{
  "abi": [
    {
      "inputs": [
        {
          "internalType": "address",
          "name": "_authority",
          "type": "address"
        }
      ],
      "stateMutability": "nonpayable",
      "type": "constructor"
    },
    {
      "anonymous": false,
      "inputs": [
        {
          "indexed": true,
          "internalType": "address",
          "name": "owner",
          "type": "address"
        },
        {
          "indexed": true,
          "internalType": "address",
          "name": "spender",
          "type": "address"
        },
        {
          "indexed": false,
          "internalType": "uint256",
          "name": "value",
          "type": "uint256"
        }
      ],
      "name": "Approval",
      "type": "event"
    },
    {
      "anonymous": false,
      "inputs": [
        {
          "indexed": true,
          "internalType": "contract IOlympusAuthority",
          "name": "authority",
          "type": "address"
        }
      ],
      "name": "AuthorityUpdated",
      "type": "event"
    },
    {
      "anonymous": false,
      "inputs": [
        {
          "indexed": true,
          "internalType": "address",
          "name": "from",
          "type": "address"
        },
        {
          "indexed": true,
          "internalType": "address",
          "name": "to",
          "type": "address"
        },
        {
          "indexed": false,
          "internalType": "uint256",
          "name": "value",
          "type": "uint256"
        }
      ],
      "name": "Transfer",
      "type": "event"
    },
    {
      "inputs": [],
      "name": "DOMAIN_SEPARATOR",
      "outputs": [
        {
          "internalType": "bytes32",
          "name": "",
          "type": "bytes32"
        }
      ],
      "stateMutability": "view",
      "type": "function"
    },
    {
      "inputs": [
        {
          "internalType": "address",
          "name": "owner",
          "type": "address"
        },
        {
          "internalType": "address",
          "name": "spender",
          "type": "address"
        }
      ],
      "name": "allowance",
      "outputs": [
        {
          "internalType": "uint256",
          "name": "",
          "type": "uint256"
        }
      ],
      "stateMutability": "view",
      "type": "function"
    },
    {
      "inputs": [
        {
          "internalType": "address",
          "name": "spender",
          "type": "address"
        },
        {
          "internalType": "uint256",
          "name": "amount",
          "type": "uint256"
        }
      ],
      "name": "approve",
      "outputs": [
        {
          "internalType": "bool",
          "name": "",
          "type": "bool"
        }
      ],
      "stateMutability": "nonpayable",
      "type": "function"
    },
    {
      "inputs": [],
      "name": "authority",
      "outputs": [
        {
          "internalType": "contract IOlympusAuthority",
          "name": "",
          "type": "address"
        }
      ],
      "stateMutability": "view",
      "type": "function"
    },
    {
      "inputs": [
        {
          "internalType": "address",
          "name": "account",
          "type": "address"
        }
      ],
      "name": "balanceOf",
      "outputs": [
        {
          "internalType": "uint256",
          "name": "",
          "type": "uint256"
        }
      ],
      "stateMutability": "view",
      "type": "function"
    },
    {
      "inputs": [
        {
          "internalType": "uint256",
          "name": "amount",
          "type": "uint256"
        }
      ],
      "name": "burn",
      "outputs": [],
      "stateMutability": "nonpayable",
      "type": "function"
    },
    {
      "inputs": [
        {
          "internalType": "address",
          "name": "account_",
          "type": "address"
        },
        {
          "internalType": "uint256",
          "name": "amount_",
          "type": "uint256"
        }
      ],
      "name": "burnFrom",
      "outputs": [],
      "stateMutability": "nonpayable",
      "type": "function"
    },
    {
      "inputs": [],
      "name": "decimals",
      "outputs": [
        {
          "internalType": "uint8",
          "name": "",
          "type": "uint8"
        }
      ],
      "stateMutability": "view",
      "type": "function"
    },
    {
      "inputs": [
        {
          "internalType": "address",
          "name": "spender",
          "type": "address"
        },
        {
          "internalType": "uint256",
          "name": "subtractedValue",
          "type": "uint256"
        }
      ],
      "name": "decreaseAllowance",
      "outputs": [
        {
          "internalType": "bool",
          "name": "",
          "type": "bool"
        }
      ],
      "stateMutability": "nonpayable",
      "type": "function"
    },
    {
      "inputs": [
        {
          "internalType": "address",
          "name": "spender",
          "type": "address"
        },
        {
          "internalType": "uint256",
          "name": "addedValue",
          "type": "uint256"
        }
      ],
      "name": "increaseAllowance",
      "outputs": [
        {
          "internalType": "bool",
          "name": "",
          "type": "bool"
        }
      ],
      "stateMutability": "nonpayable",
      "type": "function"
    },
    {
      "inputs": [
        {
          "internalType": "address",
          "name": "account_",
          "type": "address"
        },
        {
          "internalType": "uint256",
          "name": "amount_",
          "type": "uint256"
        }
      ],
      "name": "mint",
      "outputs": [],
      "stateMutability": "nonpayable",
      "type": "function"
    },
    {
      "inputs": [],
      "name": "name",
      "outputs": [
        {
          "internalType": "string",
          "name": "",
          "type": "string"
        }
      ],
      "stateMutability": "view",
      "type": "function"
    },
    {
      "inputs": [
        {
          "internalType": "address",
          "name": "owner",
          "type": "address"
        }
      ],
      "name": "nonces",
      "outputs": [
        {
          "internalType": "uint256",
          "name": "",
          "type": "uint256"
        }
      ],
      "stateMutability": "view",
      "type": "function"
    },
    {
      "inputs": [
        {
          "internalType": "address",
          "name": "owner",
          "type": "address"
        },
        {
          "internalType": "address",
          "name": "spender",
          "type": "address"
        },
        {
          "internalType": "uint256",
          "name": "value",
          "type": "uint256"
        },
        {
          "internalType": "uint256",
          "name": "deadline",
          "type": "uint256"
        },
        {
          "internalType": "uint8",
          "name": "v",
          "type": "uint8"
        },
        {
          "internalType": "bytes32",
          "name": "r",
          "type": "bytes32"
        },
        {
          "internalType": "bytes32",
          "name": "s",
          "type": "bytes32"
        }
      ],
      "name": "permit",
      "outputs": [],
      "stateMutability": "nonpayable",
      "type": "function"
    },
    {
      "inputs": [
        {
          "internalType": "contract IOlympusAuthority",
          "name": "_newAuthority",
          "type": "address"
        }
      ],
      "name": "setAuthority",
      "outputs": [],
      "stateMutability": "nonpayable",
      "type": "function"
    },
    {
      "inputs": [],
      "name": "symbol",
      "outputs": [
        {
          "internalType": "string",
          "name": "",
          "type": "string"
        }
      ],
      "stateMutability": "view",
      "type": "function"
    },
    {
      "inputs": [],
      "name": "totalSupply",
      "outputs": [
        {
          "internalType": "uint256",
          "name": "",
          "type": "uint256"
        }
      ],
      "stateMutability": "view",
      "type": "function"
    },
    {
      "inputs": [
        {
          "internalType": "address",
          "name": "recipient",
          "type": "address"
        },
        {
          "internalType": "uint256",
          "name": "amount",
          "type": "uint256"
        }
      ],
      "name": "transfer",
      "outputs": [
        {
          "internalType": "bool",
          "name": "",
          "type": "bool"
        }
      ],
      "stateMutability": "nonpayable",
      "type": "function"
    },
    {
      "inputs": [
        {
          "internalType": "address",
          "name": "sender",
          "type": "address"
        },
        {
          "internalType": "address",
          "name": "recipient",
          "type": "address"
        },
        {
          "internalType": "uint256",
          "name": "amount",
          "type": "uint256"
        }
      ],
      "name": "transferFrom",
      "outputs": [
        {
          "internalType": "bool",
          "name": "",
          "type": "bool"
        }
      ],
      "stateMutability": "nonpayable",
      "type": "function"
    }
  ],
  "bytecode": {
    "object": "0x7f6e71edae12b1b97f4d1f60370fef10105fa2faae0126114a169c64845d6126c9610140526101a0604052600c6101609081526b15539055551213d49256915160a21b61018052600690620000559082620002b1565b503480156200006357600080fd5b5060405162001fc738038062001fc783398101604081905262000086916200037d565b806040518060400160405280600a815260200169476f65726c692044616f60b01b81525080604051806040016040528060018152602001603160f81b8152506040518060400160405280600a815260200169476f65726c692044616f60b01b815250604051806040016040528060048152602001634744414f60e01b81525060098260039081620001189190620002b1565b506004620001278382620002b1565b5060ff166080908152845160209586012084519486019490942060e08590526101008190524660c0818152604080517f8b73c3c69bb8fe3d512ecc4cf759cc79239f7b179b0ffacaa9a75d522b39400f818b01819052818301999099526060810194909452938301919091523060a080840191909152835180840382018152929091019283905281519190960120909452505061012052600780546001600160a01b0319166001600160a01b03851690811790915591507f2f658b440c35314f52658ea8a740e05b284cdc84dc9ae01e891f21b8933e7cad90600090a25050620003af565b634e487b7160e01b600052604160045260246000fd5b600181811c908216806200023757607f821691505b6020821081036200025857634e487b7160e01b600052602260045260246000fd5b50919050565b601f821115620002ac57600081815260208120601f850160051c81016020861015620002875750805b601f850160051c820191505b81811015620002a85782815560010162000293565b5050505b505050565b81516001600160401b03811115620002cd57620002cd6200020c565b620002e581620002de845462000222565b846200025e565b602080601f8311600181146200031d5760008415620003045750858301515b600019600386901b1c1916600185901b178555620002a8565b600085815260208120601f198616915b828110156200034e578886015182559484019460019091019084016200032d565b50858210156200036d5787850151600019600388901b60f8161c191681555b5050505050600190811b01905550565b6000602082840312156200039057600080fd5b81516001600160a01b0381168114620003a857600080fd5b9392505050565b60805160a05160c05160e051610100516101205161014051611bbd6200040a600039600061087f01526000610e5b01526000610eaa01526000610e8501526000610e0701526000610e2e015260006101c30152611bbd6000f3fe608060405234801561001057600080fd5b50600436106101515760003560e01c806370a08231116100cd578063a457c2d711610081578063bf7e214f11610066578063bf7e214f146102cd578063d505accf14610312578063dd62ed3e1461032557600080fd5b8063a457c2d7146102a7578063a9059cbb146102ba57600080fd5b80637a9e5e4b116100b25780637a9e5e4b146102795780637ecebe001461028c57806395d89b411461029f57600080fd5b806370a082311461023057806379cc67901461026657600080fd5b8063313ce56711610124578063395093511161010957806339509351146101f557806340c10f191461020857806342966c681461021d57600080fd5b8063313ce567146101bc5780633644e515146101ed57600080fd5b806306fdde0314610156578063095ea7b31461017457806318160ddd1461019757806323b872dd146101a9575b600080fd5b61015e61036b565b60405161016b919061170c565b60405180910390f35b6101876101823660046117a1565b6103fd565b604051901515815260200161016b565b6002545b60405190815260200161016b565b6101876101b73660046117cd565b610413565b60405160ff7f000000000000000000000000000000000000000000000000000000000000000016815260200161016b565b61019b610489565b6101876102033660046117a1565b610498565b61021b6102163660046117a1565b6104db565b005b61021b61022b36600461180e565b6105ec565b61019b61023e366004611827565b73ffffffffffffffffffffffffffffffffffffffff1660009081526020819052604090205490565b61021b6102743660046117a1565b6105f9565b61021b610287366004611827565b610603565b61019b61029a366004611827565b61076c565b61015e610799565b6101876102b53660046117a1565b6107a8565b6101876102c83660046117a1565b610804565b6007546102ed9073ffffffffffffffffffffffffffffffffffffffff1681565b60405173ffffffffffffffffffffffffffffffffffffffff909116815260200161016b565b61021b610320366004611844565b610811565b61019b6103333660046118bb565b73ffffffffffffffffffffffffffffffffffffffff918216600090815260016020908152604080832093909416825291909152205490565b60606003805461037a906118f4565b80601f01602080910402602001604051908101604052809291908181526020018280546103a6906118f4565b80156103f35780601f106103c8576101008083540402835291602001916103f3565b820191906000526020600020905b8154815290600101906020018083116103d657829003601f168201915b5050505050905090565b600061040a3384846109d0565b50600192915050565b6000610420848484610b84565b61047f843361047a85604051806060016040528060288152602001611b176028913973ffffffffffffffffffffffffffffffffffffffff8a1660009081526001602090815260408083203384529091529020549190610dae565b6109d0565b5060019392505050565b6000610493610e02565b905090565b33600081815260016020908152604080832073ffffffffffffffffffffffffffffffffffffffff87168452909152812054909161040a91859061047a9086610ef8565b600760009054906101000a900473ffffffffffffffffffffffffffffffffffffffff1673ffffffffffffffffffffffffffffffffffffffff1663fbfa77cf6040518163ffffffff1660e01b8152600401602060405180830381865afa158015610548573d6000803e3d6000fd5b505050506040513d601f19601f8201168201806040525081019061056c9190611941565b73ffffffffffffffffffffffffffffffffffffffff163373ffffffffffffffffffffffffffffffffffffffff16146006906105dd576040517f08c379a00000000000000000000000000000000000000000000000000000000081526004016105d4919061195e565b60405180910390fd5b506105e88282610f78565b5050565b6105f63382611098565b50565b6105e88282611206565b600760009054906101000a900473ffffffffffffffffffffffffffffffffffffffff1673ffffffffffffffffffffffffffffffffffffffff16630c340a246040518163ffffffff1660e01b8152600401602060405180830381865afa158015610670573d6000803e3d6000fd5b505050506040513d601f19601f820116820180604052508101906106949190611941565b73ffffffffffffffffffffffffffffffffffffffff163373ffffffffffffffffffffffffffffffffffffffff16146006906106fc576040517f08c379a00000000000000000000000000000000000000000000000000000000081526004016105d4919061195e565b50600780547fffffffffffffffffffffffff00000000000000000000000000000000000000001673ffffffffffffffffffffffffffffffffffffffff83169081179091556040517f2f658b440c35314f52658ea8a740e05b284cdc84dc9ae01e891f21b8933e7cad90600090a250565b73ffffffffffffffffffffffffffffffffffffffff81166000908152600560205260408120545b92915050565b60606004805461037a906118f4565b600061040a338461047a85604051806060016040528060258152602001611b636025913933600090815260016020908152604080832073ffffffffffffffffffffffffffffffffffffffff8d1684529091529020549190610dae565b600061040a338484610b84565b8342111561087b576040517f08c379a000000000000000000000000000000000000000000000000000000000815260206004820152601d60248201527f45524332305065726d69743a206578706972656420646561646c696e6500000060448201526064016105d4565b60007f00000000000000000000000000000000000000000000000000000000000000008888886108aa8c611279565b60408051602081019690965273ffffffffffffffffffffffffffffffffffffffff94851690860152929091166060840152608083015260a082015260c0810186905260e0016040516020818303038152906040528051906020012090506000610912826112b0565b9050600061092282878787611319565b90508973ffffffffffffffffffffffffffffffffffffffff168173ffffffffffffffffffffffffffffffffffffffff16146109b9576040517f08c379a000000000000000000000000000000000000000000000000000000000815260206004820152601e60248201527f45524332305065726d69743a20696e76616c6964207369676e6174757265000060448201526064016105d4565b6109c48a8a8a6109d0565b50505050505050505050565b73ffffffffffffffffffffffffffffffffffffffff8316610a72576040517f08c379a0000000000000000000000000000000000000000000000000000000008152602060048201526024808201527f45524332303a20617070726f76652066726f6d20746865207a65726f2061646460448201527f726573730000000000000000000000000000000000000000000000000000000060648201526084016105d4565b73ffffffffffffffffffffffffffffffffffffffff8216610b15576040517f08c379a000000000000000000000000000000000000000000000000000000000815260206004820152602260248201527f45524332303a20617070726f766520746f20746865207a65726f20616464726560448201527f737300000000000000000000000000000000000000000000000000000000000060648201526084016105d4565b73ffffffffffffffffffffffffffffffffffffffff83811660008181526001602090815260408083209487168084529482529182902085905590518481527f8c5be1e5ebec7d5bd14f71427d1e84f3dd0314c0f7b2291e5b200ac8c7c3b92591015b60405180910390a3505050565b73ffffffffffffffffffffffffffffffffffffffff8316610c27576040517f08c379a000000000000000000000000000000000000000000000000000000000815260206004820152602560248201527f45524332303a207472616e736665722066726f6d20746865207a65726f20616460448201527f647265737300000000000000000000000000000000000000000000000000000060648201526084016105d4565b73ffffffffffffffffffffffffffffffffffffffff8216610cca576040517f08c379a000000000000000000000000000000000000000000000000000000000815260206004820152602360248201527f45524332303a207472616e7366657220746f20746865207a65726f206164647260448201527f657373000000000000000000000000000000000000000000000000000000000060648201526084016105d4565b610d1481604051806060016040528060268152602001611af16026913973ffffffffffffffffffffffffffffffffffffffff86166000908152602081905260409020549190610dae565b73ffffffffffffffffffffffffffffffffffffffff8085166000908152602081905260408082209390935590841681522054610d509082610ef8565b73ffffffffffffffffffffffffffffffffffffffff8381166000818152602081815260409182902094909455518481529092918616917fddf252ad1be2c89b69c2b068fc378daa952ba7f163c4a11628f55a4df523b3ef9101610b77565b60008184841115610dec576040517f08c379a00000000000000000000000000000000000000000000000000000000081526004016105d4919061170c565b506000610df98486611a70565b95945050505050565b6000467f00000000000000000000000000000000000000000000000000000000000000008103610e53577f000000000000000000000000000000000000000000000000000000000000000091505090565b5050604080517f00000000000000000000000000000000000000000000000000000000000000006020808301919091527f0000000000000000000000000000000000000000000000000000000000000000828401527f000000000000000000000000000000000000000000000000000000000000000060608301524660808301523060a0808401919091528351808403909101815260c0909201909252805191012090565b600080610f058385611a87565b905083811015610f71576040517f08c379a000000000000000000000000000000000000000000000000000000000815260206004820152601b60248201527f536166654d6174683a206164646974696f6e206f766572666c6f77000000000060448201526064016105d4565b9392505050565b73ffffffffffffffffffffffffffffffffffffffff8216610ff5576040517f08c379a000000000000000000000000000000000000000000000000000000000815260206004820152601f60248201527f45524332303a206d696e7420746f20746865207a65726f20616464726573730060448201526064016105d4565b6002546110029082610ef8565b60025573ffffffffffffffffffffffffffffffffffffffff82166000908152602081905260409020546110359082610ef8565b73ffffffffffffffffffffffffffffffffffffffff8316600081815260208181526040808320949094559251848152919290917fddf252ad1be2c89b69c2b068fc378daa952ba7f163c4a11628f55a4df523b3ef91015b60405180910390a35050565b73ffffffffffffffffffffffffffffffffffffffff821661113b576040517f08c379a000000000000000000000000000000000000000000000000000000000815260206004820152602160248201527f45524332303a206275726e2066726f6d20746865207a65726f2061646472657360448201527f730000000000000000000000000000000000000000000000000000000000000060648201526084016105d4565b61118581604051806060016040528060228152602001611acf6022913973ffffffffffffffffffffffffffffffffffffffff85166000908152602081905260409020549190610dae565b73ffffffffffffffffffffffffffffffffffffffff83166000908152602081905260409020556002546111b89082611341565b60025560405181815260009073ffffffffffffffffffffffffffffffffffffffff8416907fddf252ad1be2c89b69c2b068fc378daa952ba7f163c4a11628f55a4df523b3ef9060200161108c565b600061125d82604051806060016040528060248152602001611b3f6024913973ffffffffffffffffffffffffffffffffffffffff861660009081526001602090815260408083203384529091529020549190610dae565b905061126a8333836109d0565b6112748383611098565b505050565b73ffffffffffffffffffffffffffffffffffffffff811660009081526005602052604090208054906112aa81611383565b50919050565b60006107936112bd610e02565b836040517f19010000000000000000000000000000000000000000000000000000000000006020820152602281018390526042810182905260009060620160405160208183030381529060405280519060200120905092915050565b600080600061132a878787876113a0565b91509150611337816114b8565b5095945050505050565b6000610f7183836040518060400160405280601e81526020017f536166654d6174683a207375627472616374696f6e206f766572666c6f770000815250610dae565b60018160000160008282546113989190611a87565b909155505050565b6000807f7fffffffffffffffffffffffffffffff5d576e7357a4501ddfe92f46681b20a08311156113d757506000905060036114af565b8460ff16601b141580156113ef57508460ff16601c14155b1561140057506000905060046114af565b6040805160008082526020820180845289905260ff881692820192909252606081018690526080810185905260019060a0016020604051602081039080840390855afa158015611454573d6000803e3d6000fd5b50506040517fffffffffffffffffffffffffffffffffffffffffffffffffffffffffffffffe0015191505073ffffffffffffffffffffffffffffffffffffffff81166114a8576000600192509250506114af565b9150600090505b94509492505050565b60008160048111156114cc576114cc611a9f565b036114d45750565b60018160048111156114e8576114e8611a9f565b0361154f576040517f08c379a000000000000000000000000000000000000000000000000000000000815260206004820152601860248201527f45434453413a20696e76616c6964207369676e6174757265000000000000000060448201526064016105d4565b600281600481111561156357611563611a9f565b036115ca576040517f08c379a000000000000000000000000000000000000000000000000000000000815260206004820152601f60248201527f45434453413a20696e76616c6964207369676e6174757265206c656e6774680060448201526064016105d4565b60038160048111156115de576115de611a9f565b0361166b576040517f08c379a000000000000000000000000000000000000000000000000000000000815260206004820152602260248201527f45434453413a20696e76616c6964207369676e6174757265202773272076616c60448201527f756500000000000000000000000000000000000000000000000000000000000060648201526084016105d4565b600481600481111561167f5761167f611a9f565b036105f6576040517f08c379a000000000000000000000000000000000000000000000000000000000815260206004820152602260248201527f45434453413a20696e76616c6964207369676e6174757265202776272076616c60448201527f756500000000000000000000000000000000000000000000000000000000000060648201526084016105d4565b600060208083528351808285015260005b818110156117395785810183015185820160400152820161171d565b8181111561174b576000604083870101525b50601f017fffffffffffffffffffffffffffffffffffffffffffffffffffffffffffffffe016929092016040019392505050565b73ffffffffffffffffffffffffffffffffffffffff811681146105f657600080fd5b600080604083850312156117b457600080fd5b82356117bf8161177f565b946020939093013593505050565b6000806000606084860312156117e257600080fd5b83356117ed8161177f565b925060208401356117fd8161177f565b929592945050506040919091013590565b60006020828403121561182057600080fd5b5035919050565b60006020828403121561183957600080fd5b8135610f718161177f565b600080600080600080600060e0888a03121561185f57600080fd5b873561186a8161177f565b9650602088013561187a8161177f565b95506040880135945060608801359350608088013560ff8116811461189e57600080fd5b9699959850939692959460a0840135945060c09093013592915050565b600080604083850312156118ce57600080fd5b82356118d98161177f565b915060208301356118e98161177f565b809150509250929050565b600181811c9082168061190857607f821691505b6020821081036112aa577f4e487b7100000000000000000000000000000000000000000000000000000000600052602260045260246000fd5b60006020828403121561195357600080fd5b8151610f718161177f565b600060208083526000845481600182811c91508083168061198057607f831692505b85831081036119b6577f4e487b710000000000000000000000000000000000000000000000000000000085526022600452602485fd5b8786018381526020018180156119d35760018114611a0757611a32565b7fffffffffffffffffffffffffffffffffffffffffffffffffffffffffffffff008616825284151560051b82019650611a32565b60008b81526020902060005b86811015611a2c57815484820152908501908901611a13565b83019750505b50949998505050505050505050565b7f4e487b7100000000000000000000000000000000000000000000000000000000600052601160045260246000fd5b600082821015611a8257611a82611a41565b500390565b60008219821115611a9a57611a9a611a41565b500190565b7f4e487b7100000000000000000000000000000000000000000000000000000000600052602160045260246000fdfe45524332303a206275726e20616d6f756e7420657863656564732062616c616e636545524332303a207472616e7366657220616d6f756e7420657863656564732062616c616e636545524332303a207472616e7366657220616d6f756e74206578636565647320616c6c6f77616e636545524332303a206275726e20616d6f756e74206578636565647320616c6c6f77616e636545524332303a2064656372656173656420616c6c6f77616e63652062656c6f77207a65726fa264697066735822122041b6315d21938121a9851cf76e913f005607b84974ddfbcf3b3bf759ce5a8dfb64736f6c634300080f0033",
    "linkReferences": {}
  },
  "methodIdentifiers": {
    "DOMAIN_SEPARATOR()": "3644e515",
    "allowance(address,address)": "dd62ed3e",
    "approve(address,uint256)": "095ea7b3",
    "authority()": "bf7e214f",
    "balanceOf(address)": "70a08231",
    "burn(uint256)": "42966c68",
    "burnFrom(address,uint256)": "79cc6790",
    "decimals()": "313ce567",
    "decreaseAllowance(address,uint256)": "a457c2d7",
    "increaseAllowance(address,uint256)": "39509351",
    "mint(address,uint256)": "40c10f19",
    "name()": "06fdde03",
    "nonces(address)": "7ecebe00",
    "permit(address,address,uint256,uint256,uint8,bytes32,bytes32)": "d505accf",
    "setAuthority(address)": "7a9e5e4b",
    "symbol()": "95d89b41",
    "totalSupply()": "18160ddd",
    "transfer(address,uint256)": "a9059cbb",
    "transferFrom(address,address,uint256)": "23b872dd"
  },
  "id": 57
}