{
  "abi": [
    {
      "inputs": [
        {
          "internalType": "address",
          "name": "_authority",
          "type": "address"
        }
      ],
      "stateMutability": "nonpayable",
      "type": "constructor"
    },
    {
      "anonymous": false,
      "inputs": [
        {
          "indexed": true,
          "internalType": "address",
          "name": "owner",
          "type": "address"
        },
        {
          "indexed": true,
          "internalType": "address",
          "name": "spender",
          "type": "address"
        },
        {
          "indexed": false,
          "internalType": "uint256",
          "name": "value",
          "type": "uint256"
        }
      ],
      "name": "Approval",
      "type": "event"
    },
    {
      "anonymous": false,
      "inputs": [
        {
          "indexed": true,
          "internalType": "contract IOlympusAuthority",
          "name": "authority",
          "type": "address"
        }
      ],
      "name": "AuthorityUpdated",
      "type": "event"
    },
    {
      "anonymous": false,
      "inputs": [
        {
          "indexed": true,
          "internalType": "address",
          "name": "from",
          "type": "address"
        },
        {
          "indexed": true,
          "internalType": "address",
          "name": "to",
          "type": "address"
        },
        {
          "indexed": false,
          "internalType": "uint256",
          "name": "value",
          "type": "uint256"
        }
      ],
      "name": "Transfer",
      "type": "event"
    },
    {
      "inputs": [],
      "name": "DOMAIN_SEPARATOR",
      "outputs": [
        {
          "internalType": "bytes32",
          "name": "",
          "type": "bytes32"
        }
      ],
      "stateMutability": "view",
      "type": "function"
    },
    {
      "inputs": [
        {
          "internalType": "address",
          "name": "owner",
          "type": "address"
        },
        {
          "internalType": "address",
          "name": "spender",
          "type": "address"
        }
      ],
      "name": "allowance",
      "outputs": [
        {
          "internalType": "uint256",
          "name": "",
          "type": "uint256"
        }
      ],
      "stateMutability": "view",
      "type": "function"
    },
    {
      "inputs": [
        {
          "internalType": "address",
          "name": "spender",
          "type": "address"
        },
        {
          "internalType": "uint256",
          "name": "amount",
          "type": "uint256"
        }
      ],
      "name": "approve",
      "outputs": [
        {
          "internalType": "bool",
          "name": "",
          "type": "bool"
        }
      ],
      "stateMutability": "nonpayable",
      "type": "function"
    },
    {
      "inputs": [],
      "name": "authority",
      "outputs": [
        {
          "internalType": "contract IOlympusAuthority",
          "name": "",
          "type": "address"
        }
      ],
      "stateMutability": "view",
      "type": "function"
    },
    {
      "inputs": [
        {
          "internalType": "address",
          "name": "account",
          "type": "address"
        }
      ],
      "name": "balanceOf",
      "outputs": [
        {
          "internalType": "uint256",
          "name": "",
          "type": "uint256"
        }
      ],
      "stateMutability": "view",
      "type": "function"
    },
    {
      "inputs": [
        {
          "internalType": "uint256",
          "name": "amount",
          "type": "uint256"
        }
      ],
      "name": "burn",
      "outputs": [],
      "stateMutability": "nonpayable",
      "type": "function"
    },
    {
      "inputs": [
        {
          "internalType": "address",
          "name": "account_",
          "type": "address"
        },
        {
          "internalType": "uint256",
          "name": "amount_",
          "type": "uint256"
        }
      ],
      "name": "burnFrom",
      "outputs": [],
      "stateMutability": "nonpayable",
      "type": "function"
    },
    {
      "inputs": [],
      "name": "decimals",
      "outputs": [
        {
          "internalType": "uint8",
          "name": "",
          "type": "uint8"
        }
      ],
      "stateMutability": "view",
      "type": "function"
    },
    {
      "inputs": [
        {
          "internalType": "address",
          "name": "spender",
          "type": "address"
        },
        {
          "internalType": "uint256",
          "name": "subtractedValue",
          "type": "uint256"
        }
      ],
      "name": "decreaseAllowance",
      "outputs": [
        {
          "internalType": "bool",
          "name": "",
          "type": "bool"
        }
      ],
      "stateMutability": "nonpayable",
      "type": "function"
    },
    {
      "inputs": [
        {
          "internalType": "address",
          "name": "spender",
          "type": "address"
        },
        {
          "internalType": "uint256",
          "name": "addedValue",
          "type": "uint256"
        }
      ],
      "name": "increaseAllowance",
      "outputs": [
        {
          "internalType": "bool",
          "name": "",
          "type": "bool"
        }
      ],
      "stateMutability": "nonpayable",
      "type": "function"
    },
    {
      "inputs": [
        {
          "internalType": "address",
          "name": "account_",
          "type": "address"
        },
        {
          "internalType": "uint256",
          "name": "amount_",
          "type": "uint256"
        }
      ],
      "name": "mint",
      "outputs": [],
      "stateMutability": "nonpayable",
      "type": "function"
    },
    {
      "inputs": [],
      "name": "name",
      "outputs": [
        {
          "internalType": "string",
          "name": "",
          "type": "string"
        }
      ],
      "stateMutability": "view",
      "type": "function"
    },
    {
      "inputs": [
        {
          "internalType": "address",
          "name": "owner",
          "type": "address"
        }
      ],
      "name": "nonces",
      "outputs": [
        {
          "internalType": "uint256",
          "name": "",
          "type": "uint256"
        }
      ],
      "stateMutability": "view",
      "type": "function"
    },
    {
      "inputs": [
        {
          "internalType": "address",
          "name": "owner",
          "type": "address"
        },
        {
          "internalType": "address",
          "name": "spender",
          "type": "address"
        },
        {
          "internalType": "uint256",
          "name": "value",
          "type": "uint256"
        },
        {
          "internalType": "uint256",
          "name": "deadline",
          "type": "uint256"
        },
        {
          "internalType": "uint8",
          "name": "v",
          "type": "uint8"
        },
        {
          "internalType": "bytes32",
          "name": "r",
          "type": "bytes32"
        },
        {
          "internalType": "bytes32",
          "name": "s",
          "type": "bytes32"
        }
      ],
      "name": "permit",
      "outputs": [],
      "stateMutability": "nonpayable",
      "type": "function"
    },
    {
      "inputs": [
        {
          "internalType": "contract IOlympusAuthority",
          "name": "_newAuthority",
          "type": "address"
        }
      ],
      "name": "setAuthority",
      "outputs": [],
      "stateMutability": "nonpayable",
      "type": "function"
    },
    {
      "inputs": [],
      "name": "symbol",
      "outputs": [
        {
          "internalType": "string",
          "name": "",
          "type": "string"
        }
      ],
      "stateMutability": "view",
      "type": "function"
    },
    {
      "inputs": [],
      "name": "totalSupply",
      "outputs": [
        {
          "internalType": "uint256",
          "name": "",
          "type": "uint256"
        }
      ],
      "stateMutability": "view",
      "type": "function"
    },
    {
      "inputs": [
        {
          "internalType": "address",
          "name": "recipient",
          "type": "address"
        },
        {
          "internalType": "uint256",
          "name": "amount",
          "type": "uint256"
        }
      ],
      "name": "transfer",
      "outputs": [
        {
          "internalType": "bool",
          "name": "",
          "type": "bool"
        }
      ],
      "stateMutability": "nonpayable",
      "type": "function"
    },
    {
      "inputs": [
        {
          "internalType": "address",
          "name": "sender",
          "type": "address"
        },
        {
          "internalType": "address",
          "name": "recipient",
          "type": "address"
        },
        {
          "internalType": "uint256",
          "name": "amount",
          "type": "uint256"
        }
      ],
      "name": "transferFrom",
      "outputs": [
        {
          "internalType": "bool",
          "name": "",
          "type": "bool"
        }
      ],
      "stateMutability": "nonpayable",
      "type": "function"
    }
  ],
  "bytecode": {
    "object": "0x7f6e71edae12b1b97f4d1f60370fef10105fa2faae0126114a169c64845d6126c9610160526101c0604052600c6101809081526b15539055551213d49256915160a21b6101a052600690620000559082620002cb565b503480156200006357600080fd5b506040516200191338038062001913833981016040819052620000869162000397565b806040518060400160405280600a815260200169476f65726c692044616f60b01b81525080604051806040016040528060018152602001603160f81b8152506040518060400160405280600a815260200169476f65726c692044616f60b01b815250604051806040016040528060048152602001634744414f60e01b81525060098260039081620001189190620002cb565b506004620001278382620002cb565b5060ff16608052505081516020808401919091208251918301919091206101008290526101208190524660c0527f8b73c3c69bb8fe3d512ecc4cf759cc79239f7b179b0ffacaa9a75d522b39400f620001c58184846040805160208101859052908101839052606081018290524660808201523060a082015260009060c0016040516020818303038152906040528051906020012090509392505050565b60a0523060e052610140525050600780546001600160a01b0319166001600160a01b0386169081179091556040519093507f2f658b440c35314f52658ea8a740e05b284cdc84dc9ae01e891f21b8933e7cad925060009150a25050620003c9565b634e487b7160e01b600052604160045260246000fd5b600181811c908216806200025157607f821691505b6020821081036200027257634e487b7160e01b600052602260045260246000fd5b50919050565b601f821115620002c657600081815260208120601f850160051c81016020861015620002a15750805b601f850160051c820191505b81811015620002c257828155600101620002ad565b5050505b505050565b81516001600160401b03811115620002e757620002e762000226565b620002ff81620002f884546200023c565b8462000278565b602080601f8311600181146200033757600084156200031e5750858301515b600019600386901b1c1916600185901b178555620002c2565b600085815260208120601f198616915b82811015620003685788860151825594840194600190910190840162000347565b5085821015620003875787850151600019600388901b60f8161c191681555b5050505050600190811b01905550565b600060208284031215620003aa57600080fd5b81516001600160a01b0381168114620003c257600080fd5b9392505050565b60805160a05160c05160e051610100516101205161014051610160516114e46200042f60003960006106b601526000610b3d01526000610b8c01526000610b6701526000610ac001526000610aea01526000610b140152600061016301526114e46000f3fe608060405234801561001057600080fd5b50600436106100f15760003560e01c806306fdde03146100f6578063095ea7b31461011457806318160ddd1461013757806323b872dd14610149578063313ce5671461015c5780633644e5151461018d578063395093511461019557806340c10f19146101a857806342966c68146101bd57806370a08231146101d057806379cc6790146101f95780637a9e5e4b1461020c5780637ecebe001461021f57806395d89b4114610232578063a457c2d71461023a578063a9059cbb1461024d578063bf7e214f14610260578063d505accf1461028b578063dd62ed3e1461029e575b600080fd5b6100fe6102b1565b60405161010b91906110c0565b60405180910390f35b61012761012236600461112a565b610343565b604051901515815260200161010b565b6002545b60405190815260200161010b565b610127610157366004611156565b610359565b60405160ff7f000000000000000000000000000000000000000000000000000000000000000016815260200161010b565b61013b6103c2565b6101276101a336600461112a565b6103d1565b6101bb6101b636600461112a565b610407565b005b6101bb6101cb366004611197565b6104ca565b61013b6101de3660046111b0565b6001600160a01b031660009081526020819052604090205490565b6101bb61020736600461112a565b6104d7565b6101bb61021a3660046111b0565b6104e1565b61013b61022d3660046111b0565b6105d7565b6100fe6105f7565b61012761024836600461112a565b610606565b61012761025b36600461112a565b610655565b600754610273906001600160a01b031681565b6040516001600160a01b03909116815260200161010b565b6101bb6102993660046111cd565b610662565b61013b6102ac366004611244565b6107c6565b6060600380546102c09061127d565b80601f01602080910402602001604051908101604052809291908181526020018280546102ec9061127d565b80156103395780601f1061030e57610100808354040283529160200191610339565b820191906000526020600020905b81548152906001019060200180831161031c57829003601f168201915b5050505050905090565b60006103503384846107f1565b50600192915050565b6000610366848484610916565b6103b884336103b38560405180606001604052806028815260200161141e602891396001600160a01b038a1660009081526001602090815260408083203384529091529020549190610a87565b6107f1565b5060019392505050565b60006103cc610ab3565b905090565b3360008181526001602090815260408083206001600160a01b038716845290915281205490916103509185906103b39086610bda565b600760009054906101000a90046001600160a01b03166001600160a01b031663fbfa77cf6040518163ffffffff1660e01b8152600401602060405180830381865afa15801561045a573d6000803e3d6000fd5b505050506040513d601f19601f8201168201806040525081019061047e91906112b1565b6001600160a01b0316336001600160a01b0316146006906104bb5760405162461bcd60e51b81526004016104b291906112ce565b60405180910390fd5b506104c68282610bed565b5050565b6104d43382610cba565b50565b6104c68282610dac565b600760009054906101000a90046001600160a01b03166001600160a01b0316630c340a246040518163ffffffff1660e01b8152600401602060405180830381865afa158015610534573d6000803e3d6000fd5b505050506040513d601f19601f8201168201806040525081019061055891906112b1565b6001600160a01b0316336001600160a01b03161460069061058c5760405162461bcd60e51b81526004016104b291906112ce565b50600780546001600160a01b0319166001600160a01b0383169081179091556040517f2f658b440c35314f52658ea8a740e05b284cdc84dc9ae01e891f21b8933e7cad90600090a250565b6001600160a01b0381166000908152600560205260408120545b92915050565b6060600480546102c09061127d565b600061035033846103b38560405180606001604052806025815260200161148a602591393360009081526001602090815260408083206001600160a01b038d1684529091529020549190610a87565b6000610350338484610916565b834211156106b25760405162461bcd60e51b815260206004820152601d60248201527f45524332305065726d69743a206578706972656420646561646c696e6500000060448201526064016104b2565b60007f00000000000000000000000000000000000000000000000000000000000000008888886106e18c610df8565b6040805160208101969096526001600160a01b0394851690860152929091166060840152608083015260a082015260c0810186905260e001604051602081830303815290604052805190602001209050600061073c82610e22565b9050600061074c82878787610e70565b9050896001600160a01b0316816001600160a01b0316146107af5760405162461bcd60e51b815260206004820152601e60248201527f45524332305065726d69743a20696e76616c6964207369676e6174757265000060448201526064016104b2565b6107ba8a8a8a6107f1565b50505050505050505050565b6001600160a01b03918216600090815260016020908152604080832093909416825291909152205490565b6001600160a01b0383166108535760405162461bcd60e51b8152602060048201526024808201527f45524332303a20617070726f76652066726f6d20746865207a65726f206164646044820152637265737360e01b60648201526084016104b2565b6001600160a01b0382166108b45760405162461bcd60e51b815260206004820152602260248201527f45524332303a20617070726f766520746f20746865207a65726f206164647265604482015261737360f01b60648201526084016104b2565b6001600160a01b0383811660008181526001602090815260408083209487168084529482529182902085905590518481527f8c5be1e5ebec7d5bd14f71427d1e84f3dd0314c0f7b2291e5b200ac8c7c3b92591015b60405180910390a3505050565b6001600160a01b03831661097a5760405162461bcd60e51b815260206004820152602560248201527f45524332303a207472616e736665722066726f6d20746865207a65726f206164604482015264647265737360d81b60648201526084016104b2565b6001600160a01b0382166109dc5760405162461bcd60e51b815260206004820152602360248201527f45524332303a207472616e7366657220746f20746865207a65726f206164647260448201526265737360e81b60648201526084016104b2565b610a19816040518060600160405280602681526020016113f8602691396001600160a01b0386166000908152602081905260409020549190610a87565b6001600160a01b038085166000908152602081905260408082209390935590841681522054610a489082610bda565b6001600160a01b0383811660008181526020818152604091829020949094555184815290929186169160008051602061146a8339815191529101610909565b60008184841115610aab5760405162461bcd60e51b81526004016104b291906110c0565b505050900390565b6000306001600160a01b037f000000000000000000000000000000000000000000000000000000000000000016148015610b0c57507f000000000000000000000000000000000000000000000000000000000000000046145b15610b3657507f000000000000000000000000000000000000000000000000000000000000000090565b50604080517f00000000000000000000000000000000000000000000000000000000000000006020808301919091527f0000000000000000000000000000000000000000000000000000000000000000828401527f000000000000000000000000000000000000000000000000000000000000000060608301524660808301523060a0808401919091528351808403909101815260c0909201909252805191012090565b6000610be68284611390565b9392505050565b6001600160a01b038216610c435760405162461bcd60e51b815260206004820152601f60248201527f45524332303a206d696e7420746f20746865207a65726f20616464726573730060448201526064016104b2565b600254610c509082610bda565b6002556001600160a01b038216600090815260208190526040902054610c769082610bda565b6001600160a01b0383166000818152602081815260408083209490945592518481529192909160008051602061146a83398151915291015b60405180910390a35050565b6001600160a01b038216610d1a5760405162461bcd60e51b815260206004820152602160248201527f45524332303a206275726e2066726f6d20746865207a65726f206164647265736044820152607360f81b60648201526084016104b2565b610d57816040518060600160405280602281526020016113d6602291396001600160a01b0385166000908152602081905260409020549190610a87565b6001600160a01b038316600090815260208190526040902055600254610d7d9082610e98565b6002556040518181526000906001600160a01b0384169060008051602061146a83398151915290602001610cae565b6000610ddc8260405180606001604052806024815260200161144660249139610dd586336107c6565b9190610a87565b9050610de98333836107f1565b610df38383610cba565b505050565b6001600160a01b0381166000908152600560205260409020805490610e1c81610ea4565b50919050565b60006105f1610e2f610ab3565b8360405161190160f01b6020820152602281018390526042810182905260009060620160405160208183030381529060405280519060200120905092915050565b6000806000610e8187878787610ec1565b91509150610e8e81610f7b565b5095945050505050565b6000610be682846113a8565b6001816000016000828254610eb99190611390565b909155505050565b6000806fa2a8918ca85bafe22016d0b997e4df60600160ff1b03831115610eee5750600090506003610f72565b6040805160008082526020820180845289905260ff881692820192909252606081018690526080810185905260019060a0016020604051602081039080840390855afa158015610f42573d6000803e3d6000fd5b5050604051601f1901519150506001600160a01b038116610f6b57600060019250925050610f72565b9150600090505b94509492505050565b6000816004811115610f8f57610f8f6113bf565b03610f975750565b6001816004811115610fab57610fab6113bf565b03610ff35760405162461bcd60e51b815260206004820152601860248201527745434453413a20696e76616c6964207369676e617475726560401b60448201526064016104b2565b6002816004811115611007576110076113bf565b036110545760405162461bcd60e51b815260206004820152601f60248201527f45434453413a20696e76616c6964207369676e6174757265206c656e6774680060448201526064016104b2565b6003816004811115611068576110686113bf565b036104d45760405162461bcd60e51b815260206004820152602260248201527f45434453413a20696e76616c6964207369676e6174757265202773272076616c604482015261756560f01b60648201526084016104b2565b600060208083528351808285015260005b818110156110ed578581018301518582016040015282016110d1565b818111156110ff576000604083870101525b50601f01601f1916929092016040019392505050565b6001600160a01b03811681146104d457600080fd5b6000806040838503121561113d57600080fd5b823561114881611115565b946020939093013593505050565b60008060006060848603121561116b57600080fd5b833561117681611115565b9250602084013561118681611115565b929592945050506040919091013590565b6000602082840312156111a957600080fd5b5035919050565b6000602082840312156111c257600080fd5b8135610be681611115565b600080600080600080600060e0888a0312156111e857600080fd5b87356111f381611115565b9650602088013561120381611115565b95506040880135945060608801359350608088013560ff8116811461122757600080fd5b9699959850939692959460a0840135945060c09093013592915050565b6000806040838503121561125757600080fd5b823561126281611115565b9150602083013561127281611115565b809150509250929050565b600181811c9082168061129157607f821691505b602082108103610e1c57634e487b7160e01b600052602260045260246000fd5b6000602082840312156112c357600080fd5b8151610be681611115565b600060208083526000845481600182811c9150808316806112f057607f831692505b858310810361130d57634e487b7160e01b85526022600452602485fd5b87860183815260200181801561132a57600181146113405761136b565b60ff198616825284151560051b8201965061136b565b60008b81526020902060005b868110156113655781548482015290850190890161134c565b83019750505b50949998505050505050505050565b634e487b7160e01b600052601160045260246000fd5b600082198211156113a3576113a361137a565b500190565b6000828210156113ba576113ba61137a565b500390565b634e487b7160e01b600052602160045260246000fdfe45524332303a206275726e20616d6f756e7420657863656564732062616c616e636545524332303a207472616e7366657220616d6f756e7420657863656564732062616c616e636545524332303a207472616e7366657220616d6f756e74206578636565647320616c6c6f77616e636545524332303a206275726e20616d6f756e74206578636565647320616c6c6f77616e6365ddf252ad1be2c89b69c2b068fc378daa952ba7f163c4a11628f55a4df523b3ef45524332303a2064656372656173656420616c6c6f77616e63652062656c6f77207a65726fa2646970667358221220c3a55a95b69019a6dffd504f7ab5ec6ba311ac668a2f04b76298fac91ed2648d64736f6c634300080f0033",
    "linkReferences": {}
  },
  "methodIdentifiers": {
    "DOMAIN_SEPARATOR()": "3644e515",
    "allowance(address,address)": "dd62ed3e",
    "approve(address,uint256)": "095ea7b3",
    "authority()": "bf7e214f",
    "balanceOf(address)": "70a08231",
    "burn(uint256)": "42966c68",
    "burnFrom(address,uint256)": "79cc6790",
    "decimals()": "313ce567",
    "decreaseAllowance(address,uint256)": "a457c2d7",
    "increaseAllowance(address,uint256)": "39509351",
    "mint(address,uint256)": "40c10f19",
    "name()": "06fdde03",
    "nonces(address)": "7ecebe00",
    "permit(address,address,uint256,uint256,uint8,bytes32,bytes32)": "d505accf",
    "setAuthority(address)": "7a9e5e4b",
    "symbol()": "95d89b41",
    "totalSupply()": "18160ddd",
    "transfer(address,uint256)": "a9059cbb",
    "transferFrom(address,address,uint256)": "23b872dd"
  },
  "id": 36
}