{
  "abi": [
    {
      "inputs": [
        {
          "internalType": "contract IBondTeller",
          "name": "teller_",
          "type": "address"
        },
        {
          "internalType": "contract IBondAggregator",
          "name": "aggregator_",
          "type": "address"
        },
        {
          "internalType": "address",
          "name": "guardian_",
          "type": "address"
        },
        {
          "internalType": "contract Authority",
          "name": "authority_",
          "type": "address"
        }
      ],
      "stateMutability": "nonpayable",
      "type": "constructor"
    },
    {
      "inputs": [],
      "name": "Auctioneer_AmountLessThanMinimum",
      "type": "error"
    },
    {
      "inputs": [],
      "name": "Auctioneer_BadExpiry",
      "type": "error"
    },
    {
      "inputs": [],
      "name": "Auctioneer_InitialPriceLessThanMin",
      "type": "error"
    },
    {
      "inputs": [],
      "name": "Auctioneer_InvalidCallback",
      "type": "error"
    },
    {
      "inputs": [],
      "name": "Auctioneer_InvalidParams",
      "type": "error"
    },
    {
      "inputs": [
        {
          "internalType": "uint256",
          "name": "conclusion_",
          "type": "uint256"
        }
      ],
      "name": "Auctioneer_MarketConcluded",
      "type": "error"
    },
    {
      "inputs": [],
      "name": "Auctioneer_MaxPayoutExceeded",
      "type": "error"
    },
    {
      "inputs": [],
      "name": "Auctioneer_NewMarketsNotAllowed",
      "type": "error"
    },
    {
      "inputs": [],
      "name": "Auctioneer_NotAuthorized",
      "type": "error"
    },
    {
      "inputs": [],
      "name": "Auctioneer_NotEnoughCapacity",
      "type": "error"
    },
    {
      "inputs": [],
      "name": "Auctioneer_OnlyMarketOwner",
      "type": "error"
    },
    {
      "anonymous": false,
      "inputs": [
        {
          "indexed": true,
          "internalType": "address",
          "name": "user",
          "type": "address"
        },
        {
          "indexed": true,
          "internalType": "contract Authority",
          "name": "newAuthority",
          "type": "address"
        }
      ],
      "name": "AuthorityUpdated",
      "type": "event"
    },
    {
      "anonymous": false,
      "inputs": [
        {
          "indexed": false,
          "internalType": "uint32",
          "name": "defaultTuneInterval",
          "type": "uint32"
        },
        {
          "indexed": false,
          "internalType": "uint32",
          "name": "defaultTuneAdjustment",
          "type": "uint32"
        },
        {
          "indexed": false,
          "internalType": "uint32",
          "name": "minDebtDecayInterval",
          "type": "uint32"
        },
        {
          "indexed": false,
          "internalType": "uint32",
          "name": "minDepositInterval",
          "type": "uint32"
        },
        {
          "indexed": false,
          "internalType": "uint32",
          "name": "minMarketDuration",
          "type": "uint32"
        },
        {
          "indexed": false,
          "internalType": "uint32",
          "name": "minDebtBuffer",
          "type": "uint32"
        }
      ],
      "name": "DefaultsUpdated",
      "type": "event"
    },
    {
      "anonymous": false,
      "inputs": [
        {
          "indexed": true,
          "internalType": "uint256",
          "name": "id",
          "type": "uint256"
        }
      ],
      "name": "MarketClosed",
      "type": "event"
    },
    {
      "anonymous": false,
      "inputs": [
        {
          "indexed": true,
          "internalType": "uint256",
          "name": "id",
          "type": "uint256"
        },
        {
          "indexed": true,
          "internalType": "address",
          "name": "payoutToken",
          "type": "address"
        },
        {
          "indexed": true,
          "internalType": "address",
          "name": "quoteToken",
          "type": "address"
        },
        {
          "indexed": false,
          "internalType": "uint48",
          "name": "vesting",
          "type": "uint48"
        },
        {
          "indexed": false,
          "internalType": "uint256",
          "name": "initialPrice",
          "type": "uint256"
        }
      ],
      "name": "MarketCreated",
      "type": "event"
    },
    {
      "anonymous": false,
      "inputs": [
        {
          "indexed": true,
          "internalType": "address",
          "name": "user",
          "type": "address"
        },
        {
          "indexed": true,
          "internalType": "address",
          "name": "newOwner",
          "type": "address"
        }
      ],
      "name": "OwnerUpdated",
      "type": "event"
    },
    {
      "anonymous": false,
      "inputs": [
        {
          "indexed": true,
          "internalType": "uint256",
          "name": "id",
          "type": "uint256"
        },
        {
          "indexed": false,
          "internalType": "uint256",
          "name": "oldControlVariable",
          "type": "uint256"
        },
        {
          "indexed": false,
          "internalType": "uint256",
          "name": "newControlVariable",
          "type": "uint256"
        }
      ],
      "name": "Tuned",
      "type": "event"
    },
    {
      "inputs": [
        {
          "internalType": "uint256",
          "name": "",
          "type": "uint256"
        }
      ],
      "name": "adjustments",
      "outputs": [
        {
          "internalType": "uint256",
          "name": "change",
          "type": "uint256"
        },
        {
          "internalType": "uint48",
          "name": "lastAdjustment",
          "type": "uint48"
        },
        {
          "internalType": "uint48",
          "name": "timeToAdjusted",
          "type": "uint48"
        },
        {
          "internalType": "bool",
          "name": "active",
          "type": "bool"
        }
      ],
      "stateMutability": "view",
      "type": "function"
    },
    {
      "inputs": [],
      "name": "allowNewMarkets",
      "outputs": [
        {
          "internalType": "bool",
          "name": "",
          "type": "bool"
        }
      ],
      "stateMutability": "view",
      "type": "function"
    },
    {
      "inputs": [],
      "name": "authority",
      "outputs": [
        {
          "internalType": "contract Authority",
          "name": "",
          "type": "address"
        }
      ],
      "stateMutability": "view",
      "type": "function"
    },
    {
      "inputs": [
        {
          "internalType": "address",
          "name": "",
          "type": "address"
        }
      ],
      "name": "callbackAuthorized",
      "outputs": [
        {
          "internalType": "bool",
          "name": "",
          "type": "bool"
        }
      ],
      "stateMutability": "view",
      "type": "function"
    },
    {
      "inputs": [
        {
          "internalType": "uint256",
          "name": "id_",
          "type": "uint256"
        }
      ],
      "name": "closeMarket",
      "outputs": [],
      "stateMutability": "nonpayable",
      "type": "function"
    },
    {
      "inputs": [
        {
          "internalType": "bytes",
          "name": "params_",
          "type": "bytes"
        }
      ],
      "name": "createMarket",
      "outputs": [
        {
          "internalType": "uint256",
          "name": "",
          "type": "uint256"
        }
      ],
      "stateMutability": "nonpayable",
      "type": "function"
    },
    {
      "inputs": [
        {
          "internalType": "uint256",
          "name": "id_",
          "type": "uint256"
        }
      ],
      "name": "currentCapacity",
      "outputs": [
        {
          "internalType": "uint256",
          "name": "",
          "type": "uint256"
        }
      ],
      "stateMutability": "view",
      "type": "function"
    },
    {
      "inputs": [
        {
          "internalType": "uint256",
          "name": "id_",
          "type": "uint256"
        }
      ],
      "name": "currentControlVariable",
      "outputs": [
        {
          "internalType": "uint256",
          "name": "",
          "type": "uint256"
        }
      ],
      "stateMutability": "view",
      "type": "function"
    },
    {
      "inputs": [
        {
          "internalType": "uint256",
          "name": "id_",
          "type": "uint256"
        }
      ],
      "name": "currentDebt",
      "outputs": [
        {
          "internalType": "uint256",
          "name": "",
          "type": "uint256"
        }
      ],
      "stateMutability": "view",
      "type": "function"
    },
    {
      "inputs": [],
      "name": "defaultTuneAdjustment",
      "outputs": [
        {
          "internalType": "uint32",
          "name": "",
          "type": "uint32"
        }
      ],
      "stateMutability": "view",
      "type": "function"
    },
    {
      "inputs": [],
      "name": "defaultTuneInterval",
      "outputs": [
        {
          "internalType": "uint32",
          "name": "",
          "type": "uint32"
        }
      ],
      "stateMutability": "view",
      "type": "function"
    },
    {
      "inputs": [],
      "name": "getAggregator",
      "outputs": [
        {
          "internalType": "contract IBondAggregator",
          "name": "",
          "type": "address"
        }
      ],
      "stateMutability": "view",
      "type": "function"
    },
    {
      "inputs": [
        {
          "internalType": "uint256",
          "name": "id_",
          "type": "uint256"
        }
      ],
      "name": "getMarketInfoForPurchase",
      "outputs": [
        {
          "internalType": "address",
          "name": "owner",
          "type": "address"
        },
        {
          "internalType": "address",
          "name": "callbackAddr",
          "type": "address"
        },
        {
          "internalType": "contract ERC20",
          "name": "payoutToken",
          "type": "address"
        },
        {
          "internalType": "contract ERC20",
          "name": "quoteToken",
          "type": "address"
        },
        {
          "internalType": "uint48",
          "name": "vesting",
          "type": "uint48"
        },
        {
          "internalType": "uint256",
          "name": "maxPayout",
          "type": "uint256"
        }
      ],
      "stateMutability": "view",
      "type": "function"
    },
    {
      "inputs": [],
      "name": "getTeller",
      "outputs": [
        {
          "internalType": "contract IBondTeller",
          "name": "",
          "type": "address"
        }
      ],
      "stateMutability": "view",
      "type": "function"
    },
    {
      "inputs": [
        {
          "internalType": "uint256",
          "name": "id_",
          "type": "uint256"
        }
      ],
      "name": "isInstantSwap",
      "outputs": [
        {
          "internalType": "bool",
          "name": "",
          "type": "bool"
        }
      ],
      "stateMutability": "view",
      "type": "function"
    },
    {
      "inputs": [
        {
          "internalType": "uint256",
          "name": "id_",
          "type": "uint256"
        }
      ],
      "name": "isLive",
      "outputs": [
        {
          "internalType": "bool",
          "name": "",
          "type": "bool"
        }
      ],
      "stateMutability": "view",
      "type": "function"
    },
    {
      "inputs": [
        {
          "internalType": "uint256",
          "name": "id_",
          "type": "uint256"
        }
      ],
      "name": "marketPrice",
      "outputs": [
        {
          "internalType": "uint256",
          "name": "",
          "type": "uint256"
        }
      ],
      "stateMutability": "view",
      "type": "function"
    },
    {
      "inputs": [
        {
          "internalType": "uint256",
          "name": "id_",
          "type": "uint256"
        }
      ],
      "name": "marketScale",
      "outputs": [
        {
          "internalType": "uint256",
          "name": "",
          "type": "uint256"
        }
      ],
      "stateMutability": "view",
      "type": "function"
    },
    {
      "inputs": [
        {
          "internalType": "uint256",
          "name": "",
          "type": "uint256"
        }
      ],
      "name": "markets",
      "outputs": [
        {
          "internalType": "address",
          "name": "owner",
          "type": "address"
        },
        {
          "internalType": "contract ERC20",
          "name": "payoutToken",
          "type": "address"
        },
        {
          "internalType": "contract ERC20",
          "name": "quoteToken",
          "type": "address"
        },
        {
          "internalType": "address",
          "name": "callbackAddr",
          "type": "address"
        },
        {
          "internalType": "bool",
          "name": "capacityInQuote",
          "type": "bool"
        },
        {
          "internalType": "uint256",
          "name": "capacity",
          "type": "uint256"
        },
        {
          "internalType": "uint256",
          "name": "totalDebt",
          "type": "uint256"
        },
        {
          "internalType": "uint256",
          "name": "minPrice",
          "type": "uint256"
        },
        {
          "internalType": "uint256",
          "name": "maxPayout",
          "type": "uint256"
        },
        {
          "internalType": "uint256",
          "name": "sold",
          "type": "uint256"
        },
        {
          "internalType": "uint256",
          "name": "purchased",
          "type": "uint256"
        },
        {
          "internalType": "uint256",
          "name": "scale",
          "type": "uint256"
        }
      ],
      "stateMutability": "view",
      "type": "function"
    },
    {
      "inputs": [
        {
          "internalType": "uint256",
          "name": "id_",
          "type": "uint256"
        },
        {
          "internalType": "address",
          "name": "referrer_",
          "type": "address"
        }
      ],
      "name": "maxAmountAccepted",
      "outputs": [
        {
          "internalType": "uint256",
          "name": "",
          "type": "uint256"
        }
      ],
      "stateMutability": "view",
      "type": "function"
    },
    {
      "inputs": [
        {
          "internalType": "uint256",
          "name": "",
          "type": "uint256"
        }
      ],
      "name": "metadata",
      "outputs": [
        {
          "internalType": "uint48",
          "name": "lastTune",
          "type": "uint48"
        },
        {
          "internalType": "uint48",
          "name": "lastDecay",
          "type": "uint48"
        },
        {
          "internalType": "uint32",
          "name": "length",
          "type": "uint32"
        },
        {
          "internalType": "uint32",
          "name": "depositInterval",
          "type": "uint32"
        },
        {
          "internalType": "uint32",
          "name": "tuneInterval",
          "type": "uint32"
        },
        {
          "internalType": "uint32",
          "name": "tuneAdjustmentDelay",
          "type": "uint32"
        },
        {
          "internalType": "uint32",
          "name": "debtDecayInterval",
          "type": "uint32"
        },
        {
          "internalType": "uint256",
          "name": "tuneIntervalCapacity",
          "type": "uint256"
        },
        {
          "internalType": "uint256",
          "name": "tuneBelowCapacity",
          "type": "uint256"
        },
        {
          "internalType": "uint256",
          "name": "lastTuneDebt",
          "type": "uint256"
        }
      ],
      "stateMutability": "view",
      "type": "function"
    },
    {
      "inputs": [],
      "name": "minDebtBuffer",
      "outputs": [
        {
          "internalType": "uint32",
          "name": "",
          "type": "uint32"
        }
      ],
      "stateMutability": "view",
      "type": "function"
    },
    {
      "inputs": [],
      "name": "minDebtDecayInterval",
      "outputs": [
        {
          "internalType": "uint32",
          "name": "",
          "type": "uint32"
        }
      ],
      "stateMutability": "view",
      "type": "function"
    },
    {
      "inputs": [],
      "name": "minDepositInterval",
      "outputs": [
        {
          "internalType": "uint32",
          "name": "",
          "type": "uint32"
        }
      ],
      "stateMutability": "view",
      "type": "function"
    },
    {
      "inputs": [],
      "name": "minMarketDuration",
      "outputs": [
        {
          "internalType": "uint32",
          "name": "",
          "type": "uint32"
        }
      ],
      "stateMutability": "view",
      "type": "function"
    },
    {
      "inputs": [
        {
          "internalType": "uint256",
          "name": "",
          "type": "uint256"
        }
      ],
      "name": "newOwners",
      "outputs": [
        {
          "internalType": "address",
          "name": "",
          "type": "address"
        }
      ],
      "stateMutability": "view",
      "type": "function"
    },
    {
      "inputs": [],
      "name": "owner",
      "outputs": [
        {
          "internalType": "address",
          "name": "",
          "type": "address"
        }
      ],
      "stateMutability": "view",
      "type": "function"
    },
    {
      "inputs": [
        {
          "internalType": "uint256",
          "name": "id_",
          "type": "uint256"
        }
      ],
      "name": "ownerOf",
      "outputs": [
        {
          "internalType": "address",
          "name": "",
          "type": "address"
        }
      ],
      "stateMutability": "view",
      "type": "function"
    },
    {
      "inputs": [
        {
          "internalType": "uint256",
          "name": "amount_",
          "type": "uint256"
        },
        {
          "internalType": "uint256",
          "name": "id_",
          "type": "uint256"
        },
        {
          "internalType": "address",
          "name": "referrer_",
          "type": "address"
        }
      ],
      "name": "payoutFor",
      "outputs": [
        {
          "internalType": "uint256",
          "name": "",
          "type": "uint256"
        }
      ],
      "stateMutability": "view",
      "type": "function"
    },
    {
      "inputs": [
        {
          "internalType": "uint256",
          "name": "id_",
          "type": "uint256"
        }
      ],
      "name": "pullOwnership",
      "outputs": [],
      "stateMutability": "nonpayable",
      "type": "function"
    },
    {
      "inputs": [
        {
          "internalType": "uint256",
          "name": "id_",
          "type": "uint256"
        },
        {
          "internalType": "uint256",
          "name": "amount_",
          "type": "uint256"
        },
        {
          "internalType": "uint256",
          "name": "minAmountOut_",
          "type": "uint256"
        }
      ],
      "name": "purchaseBond",
      "outputs": [
        {
          "internalType": "uint256",
          "name": "payout",
          "type": "uint256"
        }
      ],
      "stateMutability": "nonpayable",
      "type": "function"
    },
    {
      "inputs": [
        {
          "internalType": "uint256",
          "name": "id_",
          "type": "uint256"
        },
        {
          "internalType": "address",
          "name": "newOwner_",
          "type": "address"
        }
      ],
      "name": "pushOwnership",
      "outputs": [],
      "stateMutability": "nonpayable",
      "type": "function"
    },
    {
      "inputs": [
        {
          "internalType": "bool",
          "name": "status_",
          "type": "bool"
        }
      ],
      "name": "setAllowNewMarkets",
      "outputs": [],
      "stateMutability": "nonpayable",
      "type": "function"
    },
    {
      "inputs": [
        {
          "internalType": "contract Authority",
          "name": "newAuthority",
          "type": "address"
        }
      ],
      "name": "setAuthority",
      "outputs": [],
      "stateMutability": "nonpayable",
      "type": "function"
    },
    {
      "inputs": [
        {
          "internalType": "address",
          "name": "creator_",
          "type": "address"
        },
        {
          "internalType": "bool",
          "name": "status_",
          "type": "bool"
        }
      ],
      "name": "setCallbackAuthStatus",
      "outputs": [],
      "stateMutability": "nonpayable",
      "type": "function"
    },
    {
      "inputs": [
        {
          "internalType": "uint32[6]",
          "name": "defaults_",
          "type": "uint32[6]"
        }
      ],
      "name": "setDefaults",
      "outputs": [],
      "stateMutability": "nonpayable",
      "type": "function"
    },
    {
      "inputs": [
        {
          "internalType": "uint256",
          "name": "id_",
          "type": "uint256"
        },
        {
          "internalType": "uint32[3]",
          "name": "intervals_",
          "type": "uint32[3]"
        }
      ],
      "name": "setIntervals",
      "outputs": [],
      "stateMutability": "nonpayable",
      "type": "function"
    },
    {
      "inputs": [
        {
          "internalType": "address",
          "name": "newOwner",
          "type": "address"
        }
      ],
      "name": "setOwner",
      "outputs": [],
      "stateMutability": "nonpayable",
      "type": "function"
    },
    {
      "inputs": [
        {
          "internalType": "uint256",
          "name": "",
          "type": "uint256"
        }
      ],
      "name": "terms",
      "outputs": [
        {
          "internalType": "uint256",
          "name": "controlVariable",
          "type": "uint256"
        },
        {
          "internalType": "uint256",
          "name": "maxDebt",
          "type": "uint256"
        },
        {
          "internalType": "uint48",
          "name": "vesting",
          "type": "uint48"
        },
        {
          "internalType": "uint48",
          "name": "conclusion",
          "type": "uint48"
        }
      ],
      "stateMutability": "view",
      "type": "function"
    }
  ],
  "bytecode": {
    "object": "0x60c06040523480156200001157600080fd5b50604051620047e3380380620047e383398101604081905262000034916200013d565b600080546001600160a01b03199081166001600160a01b0385811691821784556001805490931690851617909155604051869286928692869284928492909133917f8292fce18fa69edf4db7b94ea2e58241df0ae57f97e0a6c9b29067028bf92d769190a36040516001600160a01b0382169033907fa3396fd7f6e0a21b50e5089d2da70d5ac0a3bbbd1f617a93f134b7638998019890600090a3505050506001600160a01b039081166080521660a0525050600980546001600160c01b0319167527100001518000000e100003f48000000e100001518017905550506007805460ff19166001179055620001a5565b6001600160a01b03811681146200013a57600080fd5b50565b600080600080608085870312156200015457600080fd5b8451620001618162000124565b6020860151909450620001748162000124565b6040860151909350620001878162000124565b60608601519092506200019a8162000124565b939692955090935050565b60805160a0516145fc620001e76000396000818161051001528181611d7e0152818161201001526120c301526000818161034801526129a401526145fc6000f3fe608060405234801561001057600080fd5b50600436106102ad5760003560e01c8063acc5570c1161017b578063bf7e214f116100d8578063d9ccdc931161008c578063e3684e3911610071578063e3684e39146109af578063e922067314610aed578063ea0aca3314610b0957600080fd5b8063d9ccdc931461098c578063e007fa971461099c57600080fd5b8063c7bf8ca0116100bd578063c7bf8ca014610935578063d204068714610948578063d2bee3231461096857600080fd5b8063bf7e214f146108a2578063c0aa0e8a146108c257600080fd5b8063bc3b2b121161012f578063bcf6cde811610114578063bcf6cde814610869578063bd1f3a5e1461087c578063bf48582b1461088f57600080fd5b8063bc3b2b12146107d2578063bcb296671461085657600080fd5b8063afa9d3b011610160578063afa9d3b0146106a1578063b1283e77146106ae578063bbbdd95a146107bf57600080fd5b8063acc5570c14610534578063ae4180951461068e57600080fd5b80635f77274e116102295780638973082c116101dd5780638da5cb5b116101c25780638da5cb5b146104cb578063946824cd146104eb5780639787d1071461050e57600080fd5b80638973082c1461047b5780638b098db3146104b857600080fd5b80636729a41e1161020e5780636729a41e1461041f578063699e17d9146104555780637a9e5e4b1461046857600080fd5b80635f77274e146103d65780636352211e146103e957600080fd5b806327507458116102805780633adec5a7116102655780633adec5a71461038d57806353c7f8e0146103a05780635dc4d16b146103b357600080fd5b806327507458146103235780633ad59dbc1461034657600080fd5b80630a9d85eb146102b257806310b05317146102d857806313af4035146102ed5780631c063a6c14610300575b600080fd5b6102c56102c036600461402b565b610b21565b6040519081526020015b60405180910390f35b6102eb6102e636600461402b565b610b53565b005b6102eb6102fb366004614076565b610c0e565b6102c561030e36600461402b565b60009081526002602052604090206004015490565b61033661033136600461402b565b610d17565b60405190151581526020016102cf565b7f00000000000000000000000000000000000000000000000000000000000000005b60405173ffffffffffffffffffffffffffffffffffffffff90911681526020016102cf565b6102c561039b36600461402b565b610d60565b6102c56103ae366004614093565b610dc3565b6103366103c1366004614076565b60086020526000908152604090205460ff1681565b6102eb6103e436600461411e565b610e6b565b6103686103f736600461402b565b60009081526002602052604090205473ffffffffffffffffffffffffffffffffffffffff1690565b61036861042d36600461402b565b60066020526000908152604090205473ffffffffffffffffffffffffffffffffffffffff1681565b6102eb61046336600461413b565b610f30565b6102eb610476366004614076565b6113d7565b6009546104a39074010000000000000000000000000000000000000000900463ffffffff1681565b60405163ffffffff90911681526020016102cf565b6103366104c636600461402b565b611534565b6000546103689073ffffffffffffffffffffffffffffffffffffffff1681565b6102c56104f936600461402b565b6000908152600260205260409020600a015490565b7f0000000000000000000000000000000000000000000000000000000000000000610368565b61063861054236600461402b565b6000818152600260208181526040808420815161018081018352815473ffffffffffffffffffffffffffffffffffffffff90811680835260018401548216838701819052848801548316848701819052600380870154948516606087018190527401000000000000000000000000000000000000000090950460ff1615156080870152600487015460a0870152600587015460c0870152600687015460e08701526007870154610100870190815260088801546101208801526009880154610140880152600a90970154610160909601959095529989529290955292909520909301549251919590949265ffffffffffff169190565b6040805173ffffffffffffffffffffffffffffffffffffffff97881681529587166020870152938616938501939093529316606083015265ffffffffffff909216608082015260a081019190915260c0016102cf565b6102eb61069c36600461402b565b61156a565b6007546103369060ff1681565b6107456106bc36600461402b565b600260208190526000918252604090912080546001820154928201546003830154600484015460058501546006860154600787015460088801546009890154600a9099015473ffffffffffffffffffffffffffffffffffffffff9889169a891699978916988716977401000000000000000000000000000000000000000090970460ff1696908c565b6040805173ffffffffffffffffffffffffffffffffffffffff9d8e1681529b8d1660208d0152998c16998b0199909952999096166060890152931515608088015260a087019290925260c086015260e0850152610100840152610120830152610140820192909252610160810191909152610180016102cf565b6102eb6107cd36600461416e565b6115d3565b6108256107e036600461402b565b6005602052600090815260409020805460019091015465ffffffffffff8082169166010000000000008104909116906c01000000000000000000000000900460ff1684565b6040516102cf949392919093845265ffffffffffff9283166020850152911660408301521515606082015260800190565b6102c561086436600461402b565b6116bd565b6102eb6108773660046141a7565b611851565b6102eb61088a366004614239565b611901565b6102c561089d3660046142be565b611d30565b6001546103689073ffffffffffffffffffffffffffffffffffffffff1681565b6109076108d036600461402b565b60036020526000908152604090208054600182015460029092015490919065ffffffffffff80821691660100000000000090041684565b60408051948552602085019390935265ffffffffffff918216928401929092521660608201526080016102cf565b6102c56109433660046141a7565b611e89565b6009546104a3906c01000000000000000000000000900463ffffffff1681565b6009546104a390700100000000000000000000000000000000900463ffffffff1681565b6009546104a39063ffffffff1681565b6102c56109aa3660046142f7565b6120a9565b610a876109bd36600461402b565b600460205260009081526040902080546001820154600283015460039093015465ffffffffffff80841694660100000000000085049091169363ffffffff6c0100000000000000000000000082048116947001000000000000000000000000000000008304821694740100000000000000000000000000000000000000008404831694780100000000000000000000000000000000000000000000000085048416947c0100000000000000000000000000000000000000000000000000000000900490931692908a565b6040805165ffffffffffff9b8c1681529a90991660208b015263ffffffff978816988a01989098529486166060890152928516608088015290841660a08701529290921660c085015260e0840191909152610100830152610120820152610140016102cf565b6009546104a39068010000000000000000900463ffffffff1681565b6009546104a390640100000000900463ffffffff1681565b600080610b2d83612402565b5050600084815260036020526040902054909150610b4c908290614352565b9392505050565b60008181526006602052604090205473ffffffffffffffffffffffffffffffffffffffff163314610bb0576040517f2c47703200000000000000000000000000000000000000000000000000000000815260040160405180910390fd5b600090815260066020908152604080832054600290925290912080547fffffffffffffffffffffffff00000000000000000000000000000000000000001673ffffffffffffffffffffffffffffffffffffffff909216919091179055565b610c3c336000357fffffffff00000000000000000000000000000000000000000000000000000000166124dd565b610ca7576040517f08c379a000000000000000000000000000000000000000000000000000000000815260206004820152600c60248201527f554e415554484f52495a4544000000000000000000000000000000000000000060448201526064015b60405180910390fd5b600080547fffffffffffffffffffffffff00000000000000000000000000000000000000001673ffffffffffffffffffffffffffffffffffffffff83169081178255604051909133917f8292fce18fa69edf4db7b94ea2e58241df0ae57f97e0a6c9b29067028bf92d769190a350565b60008181526002602052604081206004015415801590610d5a575060008281526003602052604090206002015442660100000000000090910465ffffffffffff16115b92915050565b600080610d91610d6f846116bd565b6000858152600260205260409020600a0154610d8a86610b21565b91906125ee565b6000848152600260205260409020600601549091508111610d5a57600083815260026020526040902060060154610b4c565b600080610dd28385018561439a565b905080610100015165ffffffffffff16600014158015610e2357506201518081610100015165ffffffffffff161080610e235750635dba240065ffffffffffff1681610100015165ffffffffffff16115b15610e5a576040517f3b596f5f00000000000000000000000000000000000000000000000000000000815260040160405180910390fd5b610e638161264c565b949350505050565b610e99336000357fffffffff00000000000000000000000000000000000000000000000000000000166124dd565b610eff576040517f08c379a000000000000000000000000000000000000000000000000000000000815260206004820152600c60248201527f554e415554484f52495a454400000000000000000000000000000000000000006044820152606401610c9e565b600780547fffffffffffffffffffffffffffffffffffffffffffffffffffffffffffffff0016911515919091179055565b610f3982610d17565b610f6f576040517f3b596f5f00000000000000000000000000000000000000000000000000000000815260040160405180910390fd5b610f7c6020820182614471565b63ffffffff161580610fa15750610f996040820160208301614471565b63ffffffff16155b80610fbf5750610fb76060820160408301614471565b63ffffffff16155b15610ff6576040517f3b596f5f00000000000000000000000000000000000000000000000000000000815260040160405180910390fd5b6110066040820160208301614471565b63ffffffff166110196020830183614471565b63ffffffff161015611057576040517f3b596f5f00000000000000000000000000000000000000000000000000000000815260040160405180910390fd5b60008281526004602090815260409091208054909170010000000000000000000000000000000090910463ffffffff169061109490840184614471565b63ffffffff1610156110d2576040517f3b596f5f00000000000000000000000000000000000000000000000000000000815260040160405180910390fd5b60095468010000000000000000900463ffffffff166110f76060840160408501614471565b63ffffffff161015611135576040517f3b596f5f00000000000000000000000000000000000000000000000000000000815260040160405180910390fd5b600083815260026020818152604092839020835161018081018552815473ffffffffffffffffffffffffffffffffffffffff908116808352600184015482169483019490945293820154841694810194909452600381015492831660608501527401000000000000000000000000000000000000000090920460ff1615156080840152600482015460a0840152600582015460c0840152600682015460e0840152600782015461010084015260088201546101208401526009820154610140840152600a90910154610160830152331461123b576040517f4e1c8b5d00000000000000000000000000000000000000000000000000000000815260040160405180910390fd5b6112486020840184614471565b825463ffffffff9190911674010000000000000000000000000000000000000000027fffffffffffffffff00000000ffffffffffffffffffffffffffffffffffffffff9091161782556112e66112a16020850185614471565b60008681526003602052604090206002015463ffffffff91909116906112da9042906601000000000000900465ffffffffffff16614352565b60a08401519190613335565b6001830181905560a0820151116112fe576000611312565b81600101548160a001516113129190614352565b60028301556113276040840160208501614471565b825463ffffffff919091167801000000000000000000000000000000000000000000000000027fffffffff00000000ffffffffffffffffffffffffffffffffffffffffffffffff9091161782556113846060840160408501614471565b825463ffffffff919091167c0100000000000000000000000000000000000000000000000000000000027bffffffffffffffffffffffffffffffffffffffffffffffffffffffff90911617909155505050565b60005473ffffffffffffffffffffffffffffffffffffffff163314806114ba57506001546040517fb70096130000000000000000000000000000000000000000000000000000000081523360048201523060248201526000357fffffffff0000000000000000000000000000000000000000000000000000000016604482015273ffffffffffffffffffffffffffffffffffffffff9091169063b700961390606401602060405180830381865afa158015611496573d6000803e3d6000fd5b505050506040513d601f19601f820116820180604052508101906114ba919061448c565b6114c357600080fd5b600180547fffffffffffffffffffffffff00000000000000000000000000000000000000001673ffffffffffffffffffffffffffffffffffffffff831690811790915560405133907fa3396fd7f6e0a21b50e5089d2da70d5ac0a3bbbd1f617a93f134b7638998019890600090a350565b60008181526003602052604081206002015465ffffffffffff16635dba24008111156115635742811115610b4c565b1592915050565b60008181526002602052604090205473ffffffffffffffffffffffffffffffffffffffff1633146115c7576040517f4e1c8b5d00000000000000000000000000000000000000000000000000000000815260040160405180910390fd5b6115d081613401565b50565b611601336000357fffffffff00000000000000000000000000000000000000000000000000000000166124dd565b611667576040517f08c379a000000000000000000000000000000000000000000000000000000000815260206004820152600c60248201527f554e415554484f52495a454400000000000000000000000000000000000000006044820152606401610c9e565b73ffffffffffffffffffffffffffffffffffffffff91909116600090815260086020526040902080547fffffffffffffffffffffffffffffffffffffffffffffffffffffffffffffff0016911515919091179055565b6000818152600460209081526040808320815161014081018352815465ffffffffffff8082168352660100000000000082041694820185905263ffffffff6c0100000000000000000000000082048116948301949094527001000000000000000000000000000000008104841660608301527401000000000000000000000000000000000000000081048416608083015278010000000000000000000000000000000000000000000000008104841660a08301527c0100000000000000000000000000000000000000000000000000000000900490921660c0830152600181015460e08301526002810154610100830152600301546101208201529042808211156118125760c083015181830390611808906117e090839063ffffffff166144a9565b60c0860151600089815260026020526040902060050154919063ffffffff9081169061333516565b9695505050505050565b60c08301518282039063ffffffff16811161184557611840818560c0015163ffffffff166117e09190614352565b611808565b60009695505050505050565b60008281526002602052604090205473ffffffffffffffffffffffffffffffffffffffff1633146118ae576040517f4e1c8b5d00000000000000000000000000000000000000000000000000000000815260040160405180910390fd5b60009182526006602052604090912080547fffffffffffffffffffffffff00000000000000000000000000000000000000001673ffffffffffffffffffffffffffffffffffffffff909216919091179055565b61192f336000357fffffffff00000000000000000000000000000000000000000000000000000000166124dd565b611995576040517f08c379a000000000000000000000000000000000000000000000000000000000815260206004820152600c60248201527f554e415554484f52495a454400000000000000000000000000000000000000006044820152606401610c9e565b6020810151815163ffffffff918216911610156119de576040517f3b596f5f00000000000000000000000000000000000000000000000000000000815260040160405180910390fd5b6060810151815163ffffffff91821691161015611a27576040517f3b596f5f00000000000000000000000000000000000000000000000000000000815260040160405180910390fd5b6080810151606082015163ffffffff91821691161115611a73576040517f3b596f5f00000000000000000000000000000000000000000000000000000000815260040160405180910390fd5b6060810151611a839060056144c1565b63ffffffff16816002602002015163ffffffff161015611acf576040517f3b596f5f00000000000000000000000000000000000000000000000000000000815260040160405180910390fd5b8060006020020151600980547fffffffffffffffffffffffffffffffffffffffffffffffffffffffff000000001663ffffffff90921691909117905580600160200201516009805463ffffffff909216640100000000027fffffffffffffffffffffffffffffffffffffffffffffffff00000000ffffffff90921691909117905580600260200201516009805463ffffffff90921668010000000000000000027fffffffffffffffffffffffffffffffffffffffff00000000ffffffffffffffff90921691909117905580600360200201516009805463ffffffff9092166c01000000000000000000000000027fffffffffffffffffffffffffffffffff00000000ffffffffffffffffffffffff90921691909117905580600460200201516009805463ffffffff909216700100000000000000000000000000000000027fffffffffffffffffffffffff00000000ffffffffffffffffffffffffffffffff90921691909117905580600560209081029190910151600980547fffffffffffffffff00000000ffffffffffffffffffffffffffffffffffffffff81167401000000000000000000000000000000000000000063ffffffff9485168102918217938490556040805193861692861692909217835264010000000084048516958301959095526801000000000000000083048416908201526c010000000000000000000000008204831660608201527001000000000000000000000000000000008204831660808201529290041660a08201527fbbc02fa2138d26ec5ecb379612618d1b291bf5140167f3028178080953459c5a9060c00160405180910390a150565b6040517fb88c914800000000000000000000000000000000000000000000000000000000815273ffffffffffffffffffffffffffffffffffffffff82811660048301526000918291611dfe917f00000000000000000000000000000000000000000000000000000000000000009091169063b88c914890602401602060405180830381865afa158015611dc7573d6000803e3d6000fd5b505050506040513d601f19601f82011682018060405250810190611deb91906144ed565b869065ffffffffffff16620186a0613335565b6000858152600260205260408120600a015491925090611e3290611e2187610d60565b611e2b858a614352565b9190613335565b600086815260026020526040902060070154909150811115611e80576040517f5c430eae00000000000000000000000000000000000000000000000000000000815260040160405180910390fd5b9150610b4c9050565b6000828152600260208181526040808420815161018081018352815473ffffffffffffffffffffffffffffffffffffffff9081168252600183015481169482019490945293810154831691840191909152600381015491821660608401527401000000000000000000000000000000000000000090910460ff1615156080830152600481015460a0830152600581015460c0830152600681015460e0830152600781015461010083015260088101546101208301526009810154610140830152600a015461016082015281611f5d85610d60565b905060008260800151611f855761016083015160a0840151611f80918490613335565b611f8b565b8260a001515b90506000611fae838561016001518661010001516133359092919063ffffffff16565b90506000818310611fbf5781611fc1565b825b6040517fb88c914800000000000000000000000000000000000000000000000000000000815273ffffffffffffffffffffffffffffffffffffffff8981166004830152919250600091612090917f00000000000000000000000000000000000000000000000000000000000000009091169063b88c914890602401602060405180830381865afa158015612059573d6000803e3d6000fd5b505050506040513d601f19601f8201168201806040525081019061207d91906144ed565b839065ffffffffffff16620186a0613335565b905061209c81836144a9565b9998505050505050505050565b60003373ffffffffffffffffffffffffffffffffffffffff7f0000000000000000000000000000000000000000000000000000000000000000161461211a576040517f2c47703200000000000000000000000000000000000000000000000000000000815260040160405180910390fd5b60008481526002602081815260408084206003808452948290208251608081018452815481526001820154948101949094529093015465ffffffffffff80821692840192909252660100000000000090041660608201529181015490919073ffffffffffffffffffffffffffffffffffffffff16158015906121c35750815473ffffffffffffffffffffffffffffffffffffffff1660009081526008602052604090205460ff16155b156121fa576040517f2c47703200000000000000000000000000000000000000000000000000000000815260040160405180910390fd5b6000429050816060015165ffffffffffff168165ffffffffffff161061225c5760608201516040517f07fc4a7000000000000000000000000000000000000000000000000000000000815265ffffffffffff9091166004820152602401610c9e565b6000612269888842613485565b95509050858510156122a7576040517f74ec9d5b00000000000000000000000000000000000000000000000000000000815260040160405180910390fd5b83600701548511156122e5576040517f5c430eae00000000000000000000000000000000000000000000000000000000815260040160405180910390fd5b600384015474010000000000000000000000000000000000000000900460ff16612315578360040154851161231d565b836004015487115b15612354576040517ff3383dc900000000000000000000000000000000000000000000000000000000815260040160405180910390fd5b600384015474010000000000000000000000000000000000000000900460ff1661237e5784612380565b865b8460040160008282546123939190614352565b92505081905550868460090160008282546123ae91906144a9565b92505081905550848460080160008282546123c991906144a9565b90915550506005840154602084015110156123ec576123e788613401565b6123f7565b6123f7888383613854565b505050509392505050565b600081815260056020908152604080832081516080810183528154815260019091015465ffffffffffff8082169483019490945266010000000000008104909316918101919091526c0100000000000000000000000090910460ff1615156060820181905282918291612480576000806000935093509350506124d6565b602081015161248f904261450a565b9250806040015165ffffffffffff168365ffffffffffff16109150816124b65780516124d2565b604081015181516124d29165ffffffffffff8087169116613335565b9350505b9193909250565b60015460009073ffffffffffffffffffffffffffffffffffffffff1680158015906125c157506040517fb700961300000000000000000000000000000000000000000000000000000000815273ffffffffffffffffffffffffffffffffffffffff85811660048301523060248301527fffffffff000000000000000000000000000000000000000000000000000000008516604483015282169063b700961390606401602060405180830381865afa15801561259d573d6000803e3d6000fd5b505050506040513d601f19601f820116820180604052508101906125c1919061448c565b80610e63575060005473ffffffffffffffffffffffffffffffffffffffff85811691161491505092915050565b60006125fb848484613335565b90506000828061260d5761260d614531565b8486091115610b4c577fffffffffffffffffffffffffffffffffffffffffffffffffffffffffffffffff811061264257600080fd5b6001019392505050565b60075460009060ff1661268b576040517f64be3ffa00000000000000000000000000000000000000000000000000000000815260040160405180910390fd5b6000826000015173ffffffffffffffffffffffffffffffffffffffff1663313ce5676040518163ffffffff1660e01b8152600401602060405180830381865afa1580156126dc573d6000803e3d6000fd5b505050506040513d601f19601f820116820180604052508101906127009190614560565b90506000836020015173ffffffffffffffffffffffffffffffffffffffff1663313ce5676040518163ffffffff1660e01b8152600401602060405180830381865afa158015612753573d6000803e3d6000fd5b505050506040513d601f19601f820116820180604052508101906127779190614560565b905060068260ff16108061278e575060128260ff16115b156127c5576040517f3b596f5f00000000000000000000000000000000000000000000000000000000815260040160405180910390fd5b60068160ff1610806127da575060128160ff16115b15612811576040517f3b596f5f00000000000000000000000000000000000000000000000000000000815260040160405180910390fd5b7fffffffffffffffffffffffffffffffffffffffffffffffffffffffffffffffe884610160015160000b128061284f5750601884610160015160000b135b15612886576040517f3b596f5f00000000000000000000000000000000000000000000000000000000815260040160405180910390fd5b3360009081526008602052604090205460ff161580156128bf5750604084015173ffffffffffffffffffffffffffffffffffffffff1615155b156128f6576040517f2c47703200000000000000000000000000000000000000000000000000000000815260040160405180910390fd5b5050600082610160015160240160ff16600a0a90508260c001518360a00151101561294d576040517f4496547d00000000000000000000000000000000000000000000000000000000815260040160405180910390fd5b825160208401516040517fb435914300000000000000000000000000000000000000000000000000000000815273ffffffffffffffffffffffffffffffffffffffff928316600482015290821660248201526000917f0000000000000000000000000000000000000000000000000000000000000000169063b4359143906044016020604051808303816000875af11580156129ed573d6000803e3d6000fd5b505050506040513d601f19601f82011682018060405250810190612a119190614583565b90506000804286610120015165ffffffffffff16612a2f9190614352565b60095490925063ffffffff70010000000000000000000000000000000090910481169083161080612a80575060095461014087015163ffffffff6c0100000000000000000000000090920482169116105b80612a9b57508163ffffffff1686610140015163ffffffff16115b15612ad2576040517f3b596f5f00000000000000000000000000000000000000000000000000000000815260040160405180910390fd5b60008661014001516005612ae691906144c1565b60095490915063ffffffff808316680100000000000000009092041611612b0d5780612b23565b60095468010000000000000000900463ffffffff165b600954610140890151919350600091612b7b9163ffffffff908116911611612b535760095463ffffffff16612b5a565b8861014001515b63ffffffff168563ffffffff168a608001516133359092919063ffffffff16565b60408051610140808201835265ffffffffffff4216808352602083015263ffffffff808916938301939093528b01805183166060830152600954905193945090926080840192918216911611612bd95760095463ffffffff16612be0565b8961014001515b63ffffffff9081168252600954640100000000900481166020830152851660408201526060810183905260808a810151910190612c1e908490614352565b8152602001612c5c8563ffffffff168763ffffffff168c60600151612c47578c60800151611e2b565b60a08d015160808e0151611e2b918d90613335565b90526000868152600460209081526040808320845181549386015192860151606080880151608089015160a08a015160c08b015165ffffffffffff9687167fffffffffffffffffffffffffffffffffffffffff000000000000000000000000909a169990991766010000000000009690981695909502969096177fffffffffffffffffffffffff0000000000000000ffffffffffffffffffffffff166c0100000000000000000000000063ffffffff948516027fffffffffffffffffffffffff00000000ffffffffffffffffffffffffffffffff161770010000000000000000000000000000000091841691909102177fffffffff0000000000000000ffffffffffffffffffffffffffffffffffffffff1674010000000000000000000000000000000000000000958316959095027fffffffff00000000ffffffffffffffffffffffffffffffffffffffffffffffff1694909417780100000000000000000000000000000000000000000000000092821692909202919091177bffffffffffffffffffffffffffffffffffffffffffffffffffffffff167c0100000000000000000000000000000000000000000000000000000000919094160292909217825560e08401516001830155610100840151600283015561012090930151600390910155908901519092508291508190612e59578860800151612e6e565b60a089015160808a0151612e6e918990613335565b9050612e878163ffffffff808716908881169061333516565b9250612eaf89610140015163ffffffff168663ffffffff16836133359092919063ffffffff16565b9150506040518061018001604052803373ffffffffffffffffffffffffffffffffffffffff168152602001896000015173ffffffffffffffffffffffffffffffffffffffff168152602001896020015173ffffffffffffffffffffffffffffffffffffffff168152602001896040015173ffffffffffffffffffffffffffffffffffffffff168152602001896060015115158152602001896080015181526020018381526020018960c0015181526020018281526020016000815260200160008152602001878152506002600087815260200190815260200160002060008201518160000160006101000a81548173ffffffffffffffffffffffffffffffffffffffff021916908373ffffffffffffffffffffffffffffffffffffffff16021790555060208201518160010160006101000a81548173ffffffffffffffffffffffffffffffffffffffff021916908373ffffffffffffffffffffffffffffffffffffffff16021790555060408201518160020160006101000a81548173ffffffffffffffffffffffffffffffffffffffff021916908373ffffffffffffffffffffffffffffffffffffffff16021790555060608201518160030160006101000a81548173ffffffffffffffffffffffffffffffffffffffff021916908373ffffffffffffffffffffffffffffffffffffffff16021790555060808201518160030160146101000a81548160ff02191690831515021790555060a0820151816004015560c0820151816005015560e0820151816006015561010082015181600701556101208201518160080155610140820151816009015561016082015181600a01559050506000600960149054906101000a900463ffffffff1663ffffffff1661314f620186a065ffffffffffff1685856133359092919063ffffffff16565b1161317a5760095474010000000000000000000000000000000000000000900463ffffffff16613188565b61318882620186a085613335565b905060006131bd828b60e0015163ffffffff16116131a657826131b2565b8a60e0015163ffffffff165b8590620186a0613335565b6131c790856144a9565b60a08b01519091506000906131dd908a87613335565b905060405180608001604052808281526020018381526020018c610100015165ffffffffffff1681526020018c610120015165ffffffffffff16815250600360008a8152602001908152602001600020600082015181600001556020820151816001015560408201518160020160006101000a81548165ffffffffffff021916908365ffffffffffff16021790555060608201518160020160066101000a81548165ffffffffffff021916908365ffffffffffff1602179055509050508a6020015173ffffffffffffffffffffffffffffffffffffffff168b6000015173ffffffffffffffffffffffffffffffffffffffff16897f8235b14cd272b4e791960fe1118559bb7fed86934fcffeeae9b1175103b0756d8e61010001518f60a0015160405161331e92919065ffffffffffff929092168252602082015260400190565b60405180910390a450959998505050505050505050565b600080807fffffffffffffffffffffffffffffffffffffffffffffffffffffffffffffffff8587098587029250828110838203039150508060000361338c576000841161338157600080fd5b508290049050610b4c565b80841161339857600080fd5b60008486880960026001871981018816978890046003810283188082028403028082028403028082028403028082028403028082028403029081029092039091026000889003889004909101858311909403939093029303949094049190911702949350505050565b6000818152600360209081526040808320600290810180547fffffffffffffffffffffffffffffffffffffffff000000000000ffffffffffff1666010000000000004265ffffffffffff16021790559091528082206004018290555182917f9dc30b8eda31a6a144e092e5de600955523a6a925cc15cc1d1b9b4872cfa615591a250565b6000838152600260208181526040808420815161018081018352815473ffffffffffffffffffffffffffffffffffffffff9081168252600183015481169482019490945293810154831691840191909152600381015491821660608401527401000000000000000000000000000000000000000090910460ff1615156080830152600481015460a0830152600581015460c0830152600681015460e0830152600781015461010083015260088101546101208301526009810154610140830152600a015461016082015281908161355b876116bd565b600088815260026020908152604080832060059081018590559091529020600101549091506c01000000000000000000000000900460ff16156136a35760008781526005602052604081209080806135b28b612402565b60008e8152600360205260408120805494975092955090935085926135d8908490614352565b9091555050801561367357828460000160008282546135f79190614352565b90915550506001840180548391906006906136259084906601000000000000900465ffffffffffff1661450a565b92506101000a81548165ffffffffffff021916908365ffffffffffff160217905550888460010160006101000a81548165ffffffffffff021916908365ffffffffffff16021790555061369e565b6001840180547fffffffffffffffffffffffffffffffffffffff00ffffffffffffffffffffffff1690555b505050505b6136ac87613f48565b60e0830151909450808510156136c0578094505b6101608301516136d290889087613335565b600089815260046020526040812080546003909101549296507c0100000000000000000000000000000000000000000000000000000000810463ffffffff9081169392660100000000000090920465ffffffffffff16919061373a9085908a9086906125ee16565b60008d81526004602052604090208054919250829160069061376f9084906601000000000000900465ffffffffffff1661459c565b92506101000a81548165ffffffffffff021916908365ffffffffffff1602179055506000828b65ffffffffffff16116137c3576137b465ffffffffffff8c1684614352565b6137be90866144a9565b6137fe565b6137d58365ffffffffffff8d16614352565b85116137e25760006137fe565b6137f48365ffffffffffff8d16614352565b6137fe9086614352565b9050886138178661380f85856144a9565b8a9190613335565b61382191906144a9565b61382c9060016144a9565b60009d8e5260026020526040909d206005019c909c5550969a95995094975050505050505050565b600060046000858152602001908152602001600020604051806101400160405290816000820160009054906101000a900465ffffffffffff1665ffffffffffff1665ffffffffffff1681526020016000820160069054906101000a900465ffffffffffff1665ffffffffffff1665ffffffffffff16815260200160008201600c9054906101000a900463ffffffff1663ffffffff1663ffffffff1681526020016000820160109054906101000a900463ffffffff1663ffffffff1663ffffffff1681526020016000820160149054906101000a900463ffffffff1663ffffffff1663ffffffff1681526020016000820160189054906101000a900463ffffffff1663ffffffff1663ffffffff16815260200160008201601c9054906101000a900463ffffffff1663ffffffff1663ffffffff16815260200160018201548152602001600282015481526020016003820154815250509050600060026000868152602001908152602001600020604051806101800160405290816000820160009054906101000a900473ffffffffffffffffffffffffffffffffffffffff1673ffffffffffffffffffffffffffffffffffffffff1673ffffffffffffffffffffffffffffffffffffffff1681526020016001820160009054906101000a900473ffffffffffffffffffffffffffffffffffffffff1673ffffffffffffffffffffffffffffffffffffffff1673ffffffffffffffffffffffffffffffffffffffff1681526020016002820160009054906101000a900473ffffffffffffffffffffffffffffffffffffffff1673ffffffffffffffffffffffffffffffffffffffff1673ffffffffffffffffffffffffffffffffffffffff1681526020016003820160009054906101000a900473ffffffffffffffffffffffffffffffffffffffff1673ffffffffffffffffffffffffffffffffffffffff1673ffffffffffffffffffffffffffffffffffffffff1681526020016003820160149054906101000a900460ff16151515158152602001600482015481526020016005820154815260200160068201548152602001600782015481526020016008820154815260200160098201548152602001600a8201548152505090506000846003600088815260200190815260200160002060020160069054906101000a900465ffffffffffff16613bbd919061450a565b65ffffffffffff16905060008260800151613bdc578260a00151613bf1565b61016083015160a0840151613bf19187613335565b905060008360800151613c0957836101200151613c1f565b610160840151610140850151613c1f9188613335565b613c2990836144a9565b9050600082613c6285886040015163ffffffff16613c479190614352565b886040015163ffffffff16856133359092919063ffffffff16565b613c6c91906144a9565b90508561010001518560a00151108015613c8557508181105b80613cc0575060808601518651613ca29163ffffffff169061459c565b65ffffffffffff168865ffffffffffff1610158015613cc057508181115b15613f3d57613ce4866060015163ffffffff1685856133359092919063ffffffff16565b60008a8152600260205260408082206007019290925560c0880151918801519091613d1d91849163ffffffff9081169181169061333516565b60008b81526003602052604081205461016089015192935091613d42908b90856125ee565b60408051848152602081018390529192508d917f78f9c01d72705dba80d6ce051d36a1f987bf2a3800fee938c111a2ae741e57d1910160405180910390a281811015613e70576000613d948284614352565b905060405180608001604052808281526020018d65ffffffffffff1681526020018b60a0015163ffffffff1665ffffffffffff16815260200160011515815250600560008f81526020019081526020016000206000820151816000015560208201518160010160006101000a81548165ffffffffffff021916908365ffffffffffff16021790555060408201518160010160066101000a81548165ffffffffffff021916908365ffffffffffff160217905550606082015181600101600c6101000a81548160ff02191690831515021790555090505050613eb5565b60008c81526003602090815260408083208490556005909152902060010180547fffffffffffffffffffffffffffffffffffffff00ffffffffffffffffffffffff1690555b60008c815260046020526040902080547fffffffffffffffffffffffffffffffffffffffffffffffffffff0000000000001665ffffffffffff8d1617905560e089015160a089015111613f09576000613f1d565b8860e001518860a00151613f1d9190614352565b60008d815260046020526040902060028101919091556003019290925550505b505050505050505050565b6000818152600260208181526040808420815161018081018352815473ffffffffffffffffffffffffffffffffffffffff908116825260018301548116828601529482015485168184015260038083015495861660608301527401000000000000000000000000000000000000000090950460ff1615156080820152600482015460a0820152600582015460c08201819052600683015460e0830152600783015461010083015260088301546101208301526009830154610140830152600a90920154610160820181905287875294909352908420549192610b4c9291906125ee565b60006020828403121561403d57600080fd5b5035919050565b73ffffffffffffffffffffffffffffffffffffffff811681146115d057600080fd5b803561407181614044565b919050565b60006020828403121561408857600080fd5b8135610b4c81614044565b600080602083850312156140a657600080fd5b823567ffffffffffffffff808211156140be57600080fd5b818501915085601f8301126140d257600080fd5b8135818111156140e157600080fd5b8660208285010111156140f357600080fd5b60209290920196919550909350505050565b80151581146115d057600080fd5b803561407181614105565b60006020828403121561413057600080fd5b8135610b4c81614105565b6000806080838503121561414e57600080fd5b823591508360808401111561416257600080fd5b50926020919091019150565b6000806040838503121561418157600080fd5b823561418c81614044565b9150602083013561419c81614105565b809150509250929050565b600080604083850312156141ba57600080fd5b82359150602083013561419c81614044565b7f4e487b7100000000000000000000000000000000000000000000000000000000600052604160045260246000fd5b604051610180810167ffffffffffffffff8111828210171561421f5761421f6141cc565b60405290565b803563ffffffff8116811461407157600080fd5b600060c0828403121561424b57600080fd5b82601f83011261425a57600080fd5b60405160c0810181811067ffffffffffffffff8211171561427d5761427d6141cc565b6040528060c084018581111561429257600080fd5b845b818110156142b3576142a581614225565b835260209283019201614294565b509195945050505050565b6000806000606084860312156142d357600080fd5b833592506020840135915060408401356142ec81614044565b809150509250925092565b60008060006060848603121561430c57600080fd5b505081359360208301359350604090920135919050565b7f4e487b7100000000000000000000000000000000000000000000000000000000600052601160045260246000fd5b60008282101561436457614364614323565b500390565b65ffffffffffff811681146115d057600080fd5b803561407181614369565b8035600081900b811461407157600080fd5b600061018082840312156143ad57600080fd5b6143b56141fb565b6143be83614066565b81526143cc60208401614066565b60208201526143dd60408401614066565b60408201526143ee60608401614113565b60608201526080830135608082015260a083013560a082015260c083013560c082015261441d60e08401614225565b60e082015261010061443081850161437d565b9082015261012061444284820161437d565b90820152610140614454848201614225565b90820152610160614466848201614388565b908201529392505050565b60006020828403121561448357600080fd5b610b4c82614225565b60006020828403121561449e57600080fd5b8151610b4c81614105565b600082198211156144bc576144bc614323565b500190565b600063ffffffff808316818516818304811182151516156144e4576144e4614323565b02949350505050565b6000602082840312156144ff57600080fd5b8151610b4c81614369565b600065ffffffffffff8381169083168181101561452957614529614323565b039392505050565b7f4e487b7100000000000000000000000000000000000000000000000000000000600052601260045260246000fd5b60006020828403121561457257600080fd5b815160ff81168114610b4c57600080fd5b60006020828403121561459557600080fd5b5051919050565b600065ffffffffffff8083168185168083038211156145bd576145bd614323565b0194935050505056fea2646970667358221220a1f9ce712b73bdc9b833bdd31e5236eaeffd0a4c7e8589b9ec249572807775fe64736f6c634300080f0033",
    "linkReferences": {}
  },
  "methodIdentifiers": {
    "adjustments(uint256)": "bc3b2b12",
    "allowNewMarkets()": "afa9d3b0",
    "authority()": "bf7e214f",
    "callbackAuthorized(address)": "5dc4d16b",
    "closeMarket(uint256)": "ae418095",
    "createMarket(bytes)": "53c7f8e0",
    "currentCapacity(uint256)": "1c063a6c",
    "currentControlVariable(uint256)": "0a9d85eb",
    "currentDebt(uint256)": "bcb29667",
    "defaultTuneAdjustment()": "ea0aca33",
    "defaultTuneInterval()": "d9ccdc93",
    "getAggregator()": "3ad59dbc",
    "getMarketInfoForPurchase(uint256)": "acc5570c",
    "getTeller()": "9787d107",
    "isInstantSwap(uint256)": "8b098db3",
    "isLive(uint256)": "27507458",
    "marketPrice(uint256)": "3adec5a7",
    "marketScale(uint256)": "946824cd",
    "markets(uint256)": "b1283e77",
    "maxAmountAccepted(uint256,address)": "c7bf8ca0",
    "metadata(uint256)": "e3684e39",
    "minDebtBuffer()": "8973082c",
    "minDebtDecayInterval()": "e9220673",
    "minDepositInterval()": "d2040687",
    "minMarketDuration()": "d2bee323",
    "newOwners(uint256)": "6729a41e",
    "owner()": "8da5cb5b",
    "ownerOf(uint256)": "6352211e",
    "payoutFor(uint256,uint256,address)": "bf48582b",
    "pullOwnership(uint256)": "10b05317",
    "purchaseBond(uint256,uint256,uint256)": "e007fa97",
    "pushOwnership(uint256,address)": "bcf6cde8",
    "setAllowNewMarkets(bool)": "5f77274e",
    "setAuthority(address)": "7a9e5e4b",
    "setCallbackAuthStatus(address,bool)": "bbbdd95a",
    "setDefaults(uint32[6])": "bd1f3a5e",
    "setIntervals(uint256,uint32[3])": "699e17d9",
    "setOwner(address)": "13af4035",
    "terms(uint256)": "c0aa0e8a"
  },
  "id": 107
}