{
  "abi": [
    {
      "inputs": [
        {
          "internalType": "contract IBondTeller",
          "name": "teller_",
          "type": "address"
        },
        {
          "internalType": "contract IBondAggregator",
          "name": "aggregator_",
          "type": "address"
        },
        {
          "internalType": "address",
          "name": "guardian_",
          "type": "address"
        },
        {
          "internalType": "contract Authority",
          "name": "authority_",
          "type": "address"
        }
      ],
      "stateMutability": "nonpayable",
      "type": "constructor"
    },
    {
      "inputs": [],
      "name": "Auctioneer_AmountLessThanMinimum",
      "type": "error"
    },
    {
      "inputs": [],
      "name": "Auctioneer_BadExpiry",
      "type": "error"
    },
    {
      "inputs": [],
      "name": "Auctioneer_InitialPriceLessThanMin",
      "type": "error"
    },
    {
      "inputs": [],
      "name": "Auctioneer_InvalidCallback",
      "type": "error"
    },
    {
      "inputs": [],
      "name": "Auctioneer_InvalidParams",
      "type": "error"
    },
    {
      "inputs": [
        {
          "internalType": "uint256",
          "name": "conclusion_",
          "type": "uint256"
        }
      ],
      "name": "Auctioneer_MarketConcluded",
      "type": "error"
    },
    {
      "inputs": [],
      "name": "Auctioneer_MaxPayoutExceeded",
      "type": "error"
    },
    {
      "inputs": [],
      "name": "Auctioneer_NewMarketsNotAllowed",
      "type": "error"
    },
    {
      "inputs": [],
      "name": "Auctioneer_NotAuthorized",
      "type": "error"
    },
    {
      "inputs": [],
      "name": "Auctioneer_NotEnoughCapacity",
      "type": "error"
    },
    {
      "inputs": [],
      "name": "Auctioneer_OnlyMarketOwner",
      "type": "error"
    },
    {
      "anonymous": false,
      "inputs": [
        {
          "indexed": true,
          "internalType": "address",
          "name": "user",
          "type": "address"
        },
        {
          "indexed": true,
          "internalType": "contract Authority",
          "name": "newAuthority",
          "type": "address"
        }
      ],
      "name": "AuthorityUpdated",
      "type": "event"
    },
    {
      "anonymous": false,
      "inputs": [
        {
          "indexed": false,
          "internalType": "uint32",
          "name": "defaultTuneInterval",
          "type": "uint32"
        },
        {
          "indexed": false,
          "internalType": "uint32",
          "name": "defaultTuneAdjustment",
          "type": "uint32"
        },
        {
          "indexed": false,
          "internalType": "uint32",
          "name": "minDebtDecayInterval",
          "type": "uint32"
        },
        {
          "indexed": false,
          "internalType": "uint32",
          "name": "minDepositInterval",
          "type": "uint32"
        },
        {
          "indexed": false,
          "internalType": "uint32",
          "name": "minMarketDuration",
          "type": "uint32"
        },
        {
          "indexed": false,
          "internalType": "uint32",
          "name": "minDebtBuffer",
          "type": "uint32"
        }
      ],
      "name": "DefaultsUpdated",
      "type": "event"
    },
    {
      "anonymous": false,
      "inputs": [
        {
          "indexed": true,
          "internalType": "uint256",
          "name": "id",
          "type": "uint256"
        }
      ],
      "name": "MarketClosed",
      "type": "event"
    },
    {
      "anonymous": false,
      "inputs": [
        {
          "indexed": true,
          "internalType": "uint256",
          "name": "id",
          "type": "uint256"
        },
        {
          "indexed": true,
          "internalType": "address",
          "name": "payoutToken",
          "type": "address"
        },
        {
          "indexed": true,
          "internalType": "address",
          "name": "quoteToken",
          "type": "address"
        },
        {
          "indexed": false,
          "internalType": "uint48",
          "name": "vesting",
          "type": "uint48"
        },
        {
          "indexed": false,
          "internalType": "uint256",
          "name": "initialPrice",
          "type": "uint256"
        }
      ],
      "name": "MarketCreated",
      "type": "event"
    },
    {
      "anonymous": false,
      "inputs": [
        {
          "indexed": true,
          "internalType": "address",
          "name": "user",
          "type": "address"
        },
        {
          "indexed": true,
          "internalType": "address",
          "name": "newOwner",
          "type": "address"
        }
      ],
      "name": "OwnerUpdated",
      "type": "event"
    },
    {
      "anonymous": false,
      "inputs": [
        {
          "indexed": true,
          "internalType": "uint256",
          "name": "id",
          "type": "uint256"
        },
        {
          "indexed": false,
          "internalType": "uint256",
          "name": "oldControlVariable",
          "type": "uint256"
        },
        {
          "indexed": false,
          "internalType": "uint256",
          "name": "newControlVariable",
          "type": "uint256"
        }
      ],
      "name": "Tuned",
      "type": "event"
    },
    {
      "inputs": [
        {
          "internalType": "uint256",
          "name": "",
          "type": "uint256"
        }
      ],
      "name": "adjustments",
      "outputs": [
        {
          "internalType": "uint256",
          "name": "change",
          "type": "uint256"
        },
        {
          "internalType": "uint48",
          "name": "lastAdjustment",
          "type": "uint48"
        },
        {
          "internalType": "uint48",
          "name": "timeToAdjusted",
          "type": "uint48"
        },
        {
          "internalType": "bool",
          "name": "active",
          "type": "bool"
        }
      ],
      "stateMutability": "view",
      "type": "function"
    },
    {
      "inputs": [],
      "name": "allowNewMarkets",
      "outputs": [
        {
          "internalType": "bool",
          "name": "",
          "type": "bool"
        }
      ],
      "stateMutability": "view",
      "type": "function"
    },
    {
      "inputs": [],
      "name": "authority",
      "outputs": [
        {
          "internalType": "contract Authority",
          "name": "",
          "type": "address"
        }
      ],
      "stateMutability": "view",
      "type": "function"
    },
    {
      "inputs": [
        {
          "internalType": "address",
          "name": "",
          "type": "address"
        }
      ],
      "name": "callbackAuthorized",
      "outputs": [
        {
          "internalType": "bool",
          "name": "",
          "type": "bool"
        }
      ],
      "stateMutability": "view",
      "type": "function"
    },
    {
      "inputs": [
        {
          "internalType": "uint256",
          "name": "id_",
          "type": "uint256"
        }
      ],
      "name": "closeMarket",
      "outputs": [],
      "stateMutability": "nonpayable",
      "type": "function"
    },
    {
      "inputs": [
        {
          "internalType": "bytes",
          "name": "params_",
          "type": "bytes"
        }
      ],
      "name": "createMarket",
      "outputs": [
        {
          "internalType": "uint256",
          "name": "",
          "type": "uint256"
        }
      ],
      "stateMutability": "nonpayable",
      "type": "function"
    },
    {
      "inputs": [
        {
          "internalType": "uint256",
          "name": "id_",
          "type": "uint256"
        }
      ],
      "name": "currentCapacity",
      "outputs": [
        {
          "internalType": "uint256",
          "name": "",
          "type": "uint256"
        }
      ],
      "stateMutability": "view",
      "type": "function"
    },
    {
      "inputs": [
        {
          "internalType": "uint256",
          "name": "id_",
          "type": "uint256"
        }
      ],
      "name": "currentControlVariable",
      "outputs": [
        {
          "internalType": "uint256",
          "name": "",
          "type": "uint256"
        }
      ],
      "stateMutability": "view",
      "type": "function"
    },
    {
      "inputs": [
        {
          "internalType": "uint256",
          "name": "id_",
          "type": "uint256"
        }
      ],
      "name": "currentDebt",
      "outputs": [
        {
          "internalType": "uint256",
          "name": "",
          "type": "uint256"
        }
      ],
      "stateMutability": "view",
      "type": "function"
    },
    {
      "inputs": [],
      "name": "defaultTuneAdjustment",
      "outputs": [
        {
          "internalType": "uint32",
          "name": "",
          "type": "uint32"
        }
      ],
      "stateMutability": "view",
      "type": "function"
    },
    {
      "inputs": [],
      "name": "defaultTuneInterval",
      "outputs": [
        {
          "internalType": "uint32",
          "name": "",
          "type": "uint32"
        }
      ],
      "stateMutability": "view",
      "type": "function"
    },
    {
      "inputs": [],
      "name": "getAggregator",
      "outputs": [
        {
          "internalType": "contract IBondAggregator",
          "name": "",
          "type": "address"
        }
      ],
      "stateMutability": "view",
      "type": "function"
    },
    {
      "inputs": [
        {
          "internalType": "uint256",
          "name": "id_",
          "type": "uint256"
        }
      ],
      "name": "getMarketInfoForPurchase",
      "outputs": [
        {
          "internalType": "address",
          "name": "owner",
          "type": "address"
        },
        {
          "internalType": "address",
          "name": "callbackAddr",
          "type": "address"
        },
        {
          "internalType": "contract ERC20",
          "name": "payoutToken",
          "type": "address"
        },
        {
          "internalType": "contract ERC20",
          "name": "quoteToken",
          "type": "address"
        },
        {
          "internalType": "uint48",
          "name": "vesting",
          "type": "uint48"
        },
        {
          "internalType": "uint256",
          "name": "maxPayout",
          "type": "uint256"
        }
      ],
      "stateMutability": "view",
      "type": "function"
    },
    {
      "inputs": [],
      "name": "getTeller",
      "outputs": [
        {
          "internalType": "contract IBondTeller",
          "name": "",
          "type": "address"
        }
      ],
      "stateMutability": "view",
      "type": "function"
    },
    {
      "inputs": [
        {
          "internalType": "uint256",
          "name": "id_",
          "type": "uint256"
        }
      ],
      "name": "isInstantSwap",
      "outputs": [
        {
          "internalType": "bool",
          "name": "",
          "type": "bool"
        }
      ],
      "stateMutability": "view",
      "type": "function"
    },
    {
      "inputs": [
        {
          "internalType": "uint256",
          "name": "id_",
          "type": "uint256"
        }
      ],
      "name": "isLive",
      "outputs": [
        {
          "internalType": "bool",
          "name": "",
          "type": "bool"
        }
      ],
      "stateMutability": "view",
      "type": "function"
    },
    {
      "inputs": [
        {
          "internalType": "uint256",
          "name": "id_",
          "type": "uint256"
        }
      ],
      "name": "marketPrice",
      "outputs": [
        {
          "internalType": "uint256",
          "name": "",
          "type": "uint256"
        }
      ],
      "stateMutability": "view",
      "type": "function"
    },
    {
      "inputs": [
        {
          "internalType": "uint256",
          "name": "id_",
          "type": "uint256"
        }
      ],
      "name": "marketScale",
      "outputs": [
        {
          "internalType": "uint256",
          "name": "",
          "type": "uint256"
        }
      ],
      "stateMutability": "view",
      "type": "function"
    },
    {
      "inputs": [
        {
          "internalType": "uint256",
          "name": "",
          "type": "uint256"
        }
      ],
      "name": "markets",
      "outputs": [
        {
          "internalType": "address",
          "name": "owner",
          "type": "address"
        },
        {
          "internalType": "contract ERC20",
          "name": "payoutToken",
          "type": "address"
        },
        {
          "internalType": "contract ERC20",
          "name": "quoteToken",
          "type": "address"
        },
        {
          "internalType": "address",
          "name": "callbackAddr",
          "type": "address"
        },
        {
          "internalType": "bool",
          "name": "capacityInQuote",
          "type": "bool"
        },
        {
          "internalType": "uint256",
          "name": "capacity",
          "type": "uint256"
        },
        {
          "internalType": "uint256",
          "name": "totalDebt",
          "type": "uint256"
        },
        {
          "internalType": "uint256",
          "name": "minPrice",
          "type": "uint256"
        },
        {
          "internalType": "uint256",
          "name": "maxPayout",
          "type": "uint256"
        },
        {
          "internalType": "uint256",
          "name": "sold",
          "type": "uint256"
        },
        {
          "internalType": "uint256",
          "name": "purchased",
          "type": "uint256"
        },
        {
          "internalType": "uint256",
          "name": "scale",
          "type": "uint256"
        }
      ],
      "stateMutability": "view",
      "type": "function"
    },
    {
      "inputs": [
        {
          "internalType": "uint256",
          "name": "id_",
          "type": "uint256"
        },
        {
          "internalType": "address",
          "name": "referrer_",
          "type": "address"
        }
      ],
      "name": "maxAmountAccepted",
      "outputs": [
        {
          "internalType": "uint256",
          "name": "",
          "type": "uint256"
        }
      ],
      "stateMutability": "view",
      "type": "function"
    },
    {
      "inputs": [
        {
          "internalType": "uint256",
          "name": "",
          "type": "uint256"
        }
      ],
      "name": "metadata",
      "outputs": [
        {
          "internalType": "uint48",
          "name": "lastTune",
          "type": "uint48"
        },
        {
          "internalType": "uint48",
          "name": "lastDecay",
          "type": "uint48"
        },
        {
          "internalType": "uint32",
          "name": "length",
          "type": "uint32"
        },
        {
          "internalType": "uint32",
          "name": "depositInterval",
          "type": "uint32"
        },
        {
          "internalType": "uint32",
          "name": "tuneInterval",
          "type": "uint32"
        },
        {
          "internalType": "uint32",
          "name": "tuneAdjustmentDelay",
          "type": "uint32"
        },
        {
          "internalType": "uint32",
          "name": "debtDecayInterval",
          "type": "uint32"
        },
        {
          "internalType": "uint256",
          "name": "tuneIntervalCapacity",
          "type": "uint256"
        },
        {
          "internalType": "uint256",
          "name": "tuneBelowCapacity",
          "type": "uint256"
        },
        {
          "internalType": "uint256",
          "name": "lastTuneDebt",
          "type": "uint256"
        }
      ],
      "stateMutability": "view",
      "type": "function"
    },
    {
      "inputs": [],
      "name": "minDebtBuffer",
      "outputs": [
        {
          "internalType": "uint32",
          "name": "",
          "type": "uint32"
        }
      ],
      "stateMutability": "view",
      "type": "function"
    },
    {
      "inputs": [],
      "name": "minDebtDecayInterval",
      "outputs": [
        {
          "internalType": "uint32",
          "name": "",
          "type": "uint32"
        }
      ],
      "stateMutability": "view",
      "type": "function"
    },
    {
      "inputs": [],
      "name": "minDepositInterval",
      "outputs": [
        {
          "internalType": "uint32",
          "name": "",
          "type": "uint32"
        }
      ],
      "stateMutability": "view",
      "type": "function"
    },
    {
      "inputs": [],
      "name": "minMarketDuration",
      "outputs": [
        {
          "internalType": "uint32",
          "name": "",
          "type": "uint32"
        }
      ],
      "stateMutability": "view",
      "type": "function"
    },
    {
      "inputs": [
        {
          "internalType": "uint256",
          "name": "",
          "type": "uint256"
        }
      ],
      "name": "newOwners",
      "outputs": [
        {
          "internalType": "address",
          "name": "",
          "type": "address"
        }
      ],
      "stateMutability": "view",
      "type": "function"
    },
    {
      "inputs": [],
      "name": "owner",
      "outputs": [
        {
          "internalType": "address",
          "name": "",
          "type": "address"
        }
      ],
      "stateMutability": "view",
      "type": "function"
    },
    {
      "inputs": [
        {
          "internalType": "uint256",
          "name": "id_",
          "type": "uint256"
        }
      ],
      "name": "ownerOf",
      "outputs": [
        {
          "internalType": "address",
          "name": "",
          "type": "address"
        }
      ],
      "stateMutability": "view",
      "type": "function"
    },
    {
      "inputs": [
        {
          "internalType": "uint256",
          "name": "amount_",
          "type": "uint256"
        },
        {
          "internalType": "uint256",
          "name": "id_",
          "type": "uint256"
        },
        {
          "internalType": "address",
          "name": "referrer_",
          "type": "address"
        }
      ],
      "name": "payoutFor",
      "outputs": [
        {
          "internalType": "uint256",
          "name": "",
          "type": "uint256"
        }
      ],
      "stateMutability": "view",
      "type": "function"
    },
    {
      "inputs": [
        {
          "internalType": "uint256",
          "name": "id_",
          "type": "uint256"
        }
      ],
      "name": "pullOwnership",
      "outputs": [],
      "stateMutability": "nonpayable",
      "type": "function"
    },
    {
      "inputs": [
        {
          "internalType": "uint256",
          "name": "id_",
          "type": "uint256"
        },
        {
          "internalType": "uint256",
          "name": "amount_",
          "type": "uint256"
        },
        {
          "internalType": "uint256",
          "name": "minAmountOut_",
          "type": "uint256"
        }
      ],
      "name": "purchaseBond",
      "outputs": [
        {
          "internalType": "uint256",
          "name": "payout",
          "type": "uint256"
        }
      ],
      "stateMutability": "nonpayable",
      "type": "function"
    },
    {
      "inputs": [
        {
          "internalType": "uint256",
          "name": "id_",
          "type": "uint256"
        },
        {
          "internalType": "address",
          "name": "newOwner_",
          "type": "address"
        }
      ],
      "name": "pushOwnership",
      "outputs": [],
      "stateMutability": "nonpayable",
      "type": "function"
    },
    {
      "inputs": [
        {
          "internalType": "bool",
          "name": "status_",
          "type": "bool"
        }
      ],
      "name": "setAllowNewMarkets",
      "outputs": [],
      "stateMutability": "nonpayable",
      "type": "function"
    },
    {
      "inputs": [
        {
          "internalType": "contract Authority",
          "name": "newAuthority",
          "type": "address"
        }
      ],
      "name": "setAuthority",
      "outputs": [],
      "stateMutability": "nonpayable",
      "type": "function"
    },
    {
      "inputs": [
        {
          "internalType": "address",
          "name": "creator_",
          "type": "address"
        },
        {
          "internalType": "bool",
          "name": "status_",
          "type": "bool"
        }
      ],
      "name": "setCallbackAuthStatus",
      "outputs": [],
      "stateMutability": "nonpayable",
      "type": "function"
    },
    {
      "inputs": [
        {
          "internalType": "uint32[6]",
          "name": "defaults_",
          "type": "uint32[6]"
        }
      ],
      "name": "setDefaults",
      "outputs": [],
      "stateMutability": "nonpayable",
      "type": "function"
    },
    {
      "inputs": [
        {
          "internalType": "uint256",
          "name": "id_",
          "type": "uint256"
        },
        {
          "internalType": "uint32[3]",
          "name": "intervals_",
          "type": "uint32[3]"
        }
      ],
      "name": "setIntervals",
      "outputs": [],
      "stateMutability": "nonpayable",
      "type": "function"
    },
    {
      "inputs": [
        {
          "internalType": "address",
          "name": "newOwner",
          "type": "address"
        }
      ],
      "name": "setOwner",
      "outputs": [],
      "stateMutability": "nonpayable",
      "type": "function"
    },
    {
      "inputs": [
        {
          "internalType": "uint256",
          "name": "",
          "type": "uint256"
        }
      ],
      "name": "terms",
      "outputs": [
        {
          "internalType": "uint256",
          "name": "controlVariable",
          "type": "uint256"
        },
        {
          "internalType": "uint256",
          "name": "maxDebt",
          "type": "uint256"
        },
        {
          "internalType": "uint48",
          "name": "vesting",
          "type": "uint48"
        },
        {
          "internalType": "uint48",
          "name": "conclusion",
          "type": "uint48"
        }
      ],
      "stateMutability": "view",
      "type": "function"
    }
  ],
  "bytecode": {
    "object": "0x60c06040523480156200001157600080fd5b50604051620039523803806200395283398101604081905262000034916200013d565b600080546001600160a01b03199081166001600160a01b0385811691821784556001805490931690851617909155604051869286928692869284928492909133917f8292fce18fa69edf4db7b94ea2e58241df0ae57f97e0a6c9b29067028bf92d769190a36040516001600160a01b0382169033907fa3396fd7f6e0a21b50e5089d2da70d5ac0a3bbbd1f617a93f134b7638998019890600090a3505050506001600160a01b039081166080521660a0525050600980546001600160c01b0319167527100001518000000e100003f48000000e100001518017905550506007805460ff19166001179055620001a5565b6001600160a01b03811681146200013a57600080fd5b50565b600080600080608085870312156200015457600080fd5b8451620001618162000124565b6020860151909450620001748162000124565b6040860151909350620001878162000124565b60608601519092506200019a8162000124565b939692955090935050565b60805160a05161376b620001e7600039600081816103e0015281816115000152818161173301526117f70152600081816102680152611e70015261376b6000f3fe608060405234801561001057600080fd5b50600436106101cd5760003560e01c80630a9d85eb146101d257806310b05317146101f857806313af40351461020d5780631c063a6c1461022057806327507458146102435780633ad59dbc146102665780633adec5a71461029557806353c7f8e0146102a85780635dc4d16b146102bb5780635f77274e146102de5780636352211e146102f15780636729a41e1461031a578063699e17d9146103435780637a9e5e4b146103565780638973082c146103695780638b098db3146103955780638da5cb5b146103a8578063946824cd146103bb5780639787d107146103de578063acc5570c14610404578063ae41809514610533578063afa9d3b014610546578063b1283e7714610553578063bbbdd95a14610639578063bc3b2b121461064c578063bcb29667146106c4578063bcf6cde8146106d7578063bd1f3a5e146106ea578063bf48582b146106fd578063bf7e214f14610710578063c0aa0e8a14610723578063c7bf8ca014610793578063d2040687146107a6578063d2bee323146107bd578063d9ccdc93146107d4578063e007fa97146107e4578063e3684e39146107f7578063e9220673146108dd578063ea0aca33146108f4575b600080fd5b6101e56101e036600461318e565b61090b565b6040519081526020015b60405180910390f35b61020b61020636600461318e565b61093d565b005b61020b61021b3660046131cc565b6109ad565b6101e561022e36600461318e565b60009081526002602052604090206004015490565b61025661025136600461318e565b610a33565b60405190151581526020016101ef565b7f00000000000000000000000000000000000000000000000000000000000000005b6040516101ef91906131e9565b6101e56102a336600461318e565b610a79565b6101e56102b63660046131fd565b610adc565b6102566102c93660046131cc565b60086020526000908152604090205460ff1681565b61020b6102ec366004613287565b610b6b565b6102886102ff36600461318e565b6000908152600260205260409020546001600160a01b031690565b61028861032836600461318e565b6006602052600090815260409020546001600160a01b031681565b61020b6103513660046132a4565b610bb0565b61020b6103643660046131cc565b610f0a565b60095461038090600160a01b900463ffffffff1681565b60405163ffffffff90911681526020016101ef565b6102566103a336600461318e565b610ff4565b600054610288906001600160a01b031681565b6101e56103c936600461318e565b6000908152600260205260409020600a015490565b7f0000000000000000000000000000000000000000000000000000000000000000610288565b6104ea61041236600461318e565b600081815260026020818152604080842081516101808101835281546001600160a01b039081168083526001840154821683870181905284880154831684870181905260038087015494851660608701819052600160a01b90950460ff1615156080870152600487015460a0870152600587015460c0870152600687015460e08701526007870154610100870190815260088801546101208801526009880154610140880152600a90970154610160909601959095529989529290955292909520909301549251919590949265ffffffffffff169190565b604080516001600160a01b0397881681529587166020870152938616938501939093529316606083015265ffffffffffff909216608082015260a081019190915260c0016101ef565b61020b61054136600461318e565b61102a565b6007546102569060ff1681565b6105cc61056136600461318e565b600260208190526000918252604090912080546001820154928201546003830154600484015460058501546006860154600787015460088801546009890154600a909901546001600160a01b039889169a89169997891698871697600160a01b90970460ff1696908c565b604080516001600160a01b039d8e1681529b8d1660208d0152998c16998b0199909952999096166060890152931515608088015260a087019290925260c086015260e0850152610100840152610120830152610140820192909252610160810191909152610180016101ef565b61020b6106473660046132d7565b61106d565b61069361065a36600461318e565b6005602052600090815260409020805460019091015465ffffffffffff80821691600160301b810490911690600160601b900460ff1684565b6040516101ef949392919093845265ffffffffffff9283166020850152911660408301521515606082015260800190565b6101e56106d236600461318e565b6110ca565b61020b6106e5366004613310565b611206565b61020b6106f8366004613388565b61126b565b6101e561070b36600461340c565b6114f8565b600154610288906001600160a01b031681565b61076561073136600461318e565b60036020526000908152604090208054600182015460029092015490919065ffffffffffff80821691600160301b90041684565b60408051948552602085019390935265ffffffffffff918216928401929092521660608201526080016101ef565b6101e56107a1366004613310565b611610565b60095461038090600160601b900463ffffffff1681565b60095461038090600160801b900463ffffffff1681565b6009546103809063ffffffff1681565b6101e56107f2366004613445565b6117ea565b61087761080536600461318e565b600460205260009081526040902080546001820154600283015460039093015465ffffffffffff80841694600160301b85049091169363ffffffff600160601b8204811694600160801b8304821694600160a01b8404831694600160c01b8504841694600160e01b900490931692908a565b6040805165ffffffffffff9b8c1681529a90991660208b015263ffffffff978816988a01989098529486166060890152928516608088015290841660a08701529290921660c085015260e0840191909152610100830152610120820152610140016101ef565b60095461038090600160401b900463ffffffff1681565b60095461038090600160201b900463ffffffff1681565b60008061091783611a60565b5050600084815260036020526040902054909150610936908290613487565b9392505050565b6000818152600660205260409020546001600160a01b0316331461097457604051631623b81960e11b815260040160405180910390fd5b600090815260066020908152604080832054600290925290912080546001600160a01b0319166001600160a01b03909216919091179055565b6109c3336000356001600160e01b031916611b2f565b6109e85760405162461bcd60e51b81526004016109df9061349e565b60405180910390fd5b600080546001600160a01b0319166001600160a01b0383169081178255604051909133917f8292fce18fa69edf4db7b94ea2e58241df0ae57f97e0a6c9b29067028bf92d769190a350565b60008181526002602052604081206004015415801590610a73575060008281526003602052604090206002015442600160301b90910465ffffffffffff16115b92915050565b600080610aaa610a88846110ca565b6000858152600260205260409020600a0154610aa38661090b565b9190611bd9565b6000848152600260205260409020600601549091508111610a7357600083815260026020526040902060060154610936565b600080610aeb838501856134f5565b905080610100015165ffffffffffff16600014158015610b3c57506201518081610100015165ffffffffffff161080610b3c5750635dba240065ffffffffffff1681610100015165ffffffffffff16115b15610b5a57604051633b596f5f60e01b815260040160405180910390fd5b610b6381611c19565b949350505050565b610b81336000356001600160e01b031916611b2f565b610b9d5760405162461bcd60e51b81526004016109df9061349e565b6007805460ff1916911515919091179055565b610bb982610a33565b610bd657604051633b596f5f60e01b815260040160405180910390fd5b610be360208201826135cc565b63ffffffff161580610c085750610c0060408201602083016135cc565b63ffffffff16155b80610c265750610c1e60608201604083016135cc565b63ffffffff16155b15610c4457604051633b596f5f60e01b815260040160405180910390fd5b610c5460408201602083016135cc565b63ffffffff16610c6760208301836135cc565b63ffffffff161015610c8c57604051633b596f5f60e01b815260040160405180910390fd5b600082815260046020908152604090912080549091600160801b90910463ffffffff1690610cbc908401846135cc565b63ffffffff161015610ce157604051633b596f5f60e01b815260040160405180910390fd5b600954600160401b900463ffffffff16610d0160608401604085016135cc565b63ffffffff161015610d2657604051633b596f5f60e01b815260040160405180910390fd5b60008381526002602081815260409283902083516101808101855281546001600160a01b0390811680835260018401548216948301949094529382015484169481019490945260038101549283166060850152600160a01b90920460ff1615156080840152600482015460a0840152600582015460c0840152600682015460e0840152600782015461010084015260088201546101208401526009820154610140840152600a909101546101608301523314610df557604051634e1c8b5d60e01b815260040160405180910390fd5b610e0260208401846135cc565b825463ffffffff91909116600160a01b0263ffffffff60a01b19909116178255610e74610e3260208501856135cc565b60008681526003602052604090206002015463ffffffff9190911690610e68904290600160301b900465ffffffffffff16613487565b60a08401519190612621565b6001830181905560a082015111610e8c576000610ea0565b81600101548160a00151610ea09190613487565b6002830155610eb560408401602085016135cc565b825463ffffffff91909116600160c01b0263ffffffff60c01b19909116178255610ee560608401604085016135cc565b825463ffffffff91909116600160e01b026001600160e01b0390911617909155505050565b6000546001600160a01b0316331480610f9f575060015460405163b700961360e01b81526001600160a01b039091169063b700961390610f5e90339030906001600160e01b031960003516906004016135e7565b602060405180830381865afa158015610f7b573d6000803e3d6000fd5b505050506040513d601f19601f82011682018060405250810190610f9f9190613614565b610fa857600080fd5b600180546001600160a01b0319166001600160a01b03831690811790915560405133907fa3396fd7f6e0a21b50e5089d2da70d5ac0a3bbbd1f617a93f134b7638998019890600090a350565b60008181526003602052604081206002015465ffffffffffff16635dba24008111156110235742811115610936565b1592915050565b6000818152600260205260409020546001600160a01b0316331461106157604051634e1c8b5d60e01b815260040160405180910390fd5b61106a816126cf565b50565b611083336000356001600160e01b031916611b2f565b61109f5760405162461bcd60e51b81526004016109df9061349e565b6001600160a01b03919091166000908152600860205260409020805460ff1916911515919091179055565b6000818152600460209081526040808320815161014081018352815465ffffffffffff8082168352600160301b82041694820185905263ffffffff600160601b8204811694830194909452600160801b810484166060830152600160a01b810484166080830152600160c01b8104841660a0830152600160e01b900490921660c0830152600181015460e08301526002810154610100830152600301546101208201529042808211156111c75760c0830151818303906111bd9061119590839063ffffffff16613631565b60c0860151600089815260026020526040902060050154919063ffffffff9081169061262116565b9695505050505050565b60c08301518282039063ffffffff1681116111fa576111f5818560c0015163ffffffff166111959190613487565b6111bd565b60009695505050505050565b6000828152600260205260409020546001600160a01b0316331461123d57604051634e1c8b5d60e01b815260040160405180910390fd5b60009182526006602052604090912080546001600160a01b0319166001600160a01b03909216919091179055565b611281336000356001600160e01b031916611b2f565b61129d5760405162461bcd60e51b81526004016109df9061349e565b6020810151815163ffffffff918216911610156112cd57604051633b596f5f60e01b815260040160405180910390fd5b6060810151815163ffffffff918216911610156112fd57604051633b596f5f60e01b815260040160405180910390fd5b6080810151606082015163ffffffff9182169116111561133057604051633b596f5f60e01b815260040160405180910390fd5b6060810151611340906005613649565b63ffffffff16816002602002015163ffffffff16101561137357604051633b596f5f60e01b815260040160405180910390fd5b80600060200201516009805463ffffffff191663ffffffff90921691909117905580600160200201516009805463ffffffff909216600160201b0263ffffffff60201b1990921691909117905580600260200201516009805463ffffffff909216600160401b0263ffffffff60401b1990921691909117905580600360200201516009805463ffffffff909216600160601b0263ffffffff60601b1990921691909117905580600460200201516009805463ffffffff909216600160801b0263ffffffff60801b19909216919091179055806005602090810291909101516009805463ffffffff60a01b198116600160a01b63ffffffff94851681029182179384905560408051938616928616929092178352600160201b8404851695830195909552600160401b8304841690820152600160601b820483166060820152600160801b8204831660808201529290041660a08201527fbbc02fa2138d26ec5ecb379612618d1b291bf5140167f3028178080953459c5a9060c00160405180910390a150565b60008061159e7f00000000000000000000000000000000000000000000000000000000000000006001600160a01b031663b88c9148856040518263ffffffff1660e01b815260040161154a91906131e9565b602060405180830381865afa158015611567573d6000803e3d6000fd5b505050506040513d601f19601f8201168201806040525081019061158b9190613675565b869065ffffffffffff16620186a0612621565b6000858152600260205260408120600a0154919250906115d2906115c187610a79565b6115cb858a613487565b9190612621565b60008681526002602052604090206007015490915081111561160757604051632e21875760e11b815260040160405180910390fd5b91506109369050565b600082815260026020818152604080842081516101808101835281546001600160a01b03908116825260018301548116948201949094529381015483169184019190915260038101549182166060840152600160a01b90910460ff1615156080830152600481015460a0830152600581015460c0830152600681015460e0830152600781015461010083015260088101546101208301526009810154610140830152600a0154610160820152816116c685610a79565b9050600082608001516116ee5761016083015160a08401516116e9918490612621565b6116f4565b8260a001515b90506000611717838561016001518661010001516126219092919063ffffffff16565b90506000818310611728578161172a565b825b905060006117d17f00000000000000000000000000000000000000000000000000000000000000006001600160a01b031663b88c91488a6040518263ffffffff1660e01b815260040161177d91906131e9565b602060405180830381865afa15801561179a573d6000803e3d6000fd5b505050506040513d601f19601f820116820180604052508101906117be9190613675565b839065ffffffffffff16620186a0612621565b90506117dd8183613631565b9998505050505050505050565b6000336001600160a01b037f0000000000000000000000000000000000000000000000000000000000000000161461183557604051631623b81960e11b815260040160405180910390fd5b60008481526002602081815260408084206003808452948290208251608081018452815481526001820154948101949094529093015465ffffffffffff80821692840192909252600160301b9004166060820152918101549091906001600160a01b0316158015906118c1575081546001600160a01b031660009081526008602052604090205460ff16155b156118df57604051631623b81960e11b815260040160405180910390fd5b6000429050816060015165ffffffffffff168165ffffffffffff1610611927576060820151604051627fc4a760e41b815265ffffffffffff90911660048201526024016109df565b600061193488884261273a565b9550905085851015611959576040516374ec9d5b60e01b815260040160405180910390fd5b836007015485111561197e57604051632e21875760e11b815260040160405180910390fd5b6003840154600160a01b900460ff1661199d57836004015485116119a5565b836004015487115b156119c35760405163f3383dc960e01b815260040160405180910390fd5b6003840154600160a01b900460ff166119dc57846119de565b865b8460040160008282546119f19190613487565b9250508190555086846009016000828254611a0c9190613631565b9250508190555084846008016000828254611a279190613631565b9091555050600584015460208401511015611a4a57611a45886126cf565b611a55565b611a55888383612aa5565b505050509392505050565b600081815260056020908152604080832081516080810183528154815260019091015465ffffffffffff80821694830194909452600160301b810490931691810191909152600160601b90910460ff1615156060820181905282918291611ad257600080600093509350935050611b28565b6020810151611ae19042613692565b9250806040015165ffffffffffff168365ffffffffffff1610915081611b08578051611b24565b60408101518151611b249165ffffffffffff8087169116612621565b9350505b9193909250565b6001546000906001600160a01b03168015801590611bb9575060405163b700961360e01b81526001600160a01b0382169063b700961390611b78908790309088906004016135e7565b602060405180830381865afa158015611b95573d6000803e3d6000fd5b505050506040513d601f19601f82011682018060405250810190611bb99190613614565b80610b6357506000546001600160a01b0385811691161491505092915050565b6000611be6848484612621565b905060008280611bf857611bf86136b9565b8486091115610936576000198110611c0f57600080fd5b6001019392505050565b60075460009060ff16611c3f5760405163325f1ffd60e11b815260040160405180910390fd5b600082600001516001600160a01b031663313ce5676040518163ffffffff1660e01b8152600401602060405180830381865afa158015611c83573d6000803e3d6000fd5b505050506040513d601f19601f82011682018060405250810190611ca791906136cf565b9050600083602001516001600160a01b031663313ce5676040518163ffffffff1660e01b8152600401602060405180830381865afa158015611ced573d6000803e3d6000fd5b505050506040513d601f19601f82011682018060405250810190611d1191906136cf565b905060068260ff161080611d28575060128260ff16115b15611d4657604051633b596f5f60e01b815260040160405180910390fd5b60068160ff161080611d5b575060128160ff16115b15611d7957604051633b596f5f60e01b815260040160405180910390fd5b60171984610160015160000b1280611d995750601884610160015160000b135b15611db757604051633b596f5f60e01b815260040160405180910390fd5b3360009081526008602052604090205460ff16158015611de3575060408401516001600160a01b031615155b15611e0157604051631623b81960e11b815260040160405180910390fd5b5050600082610160015160240160ff16600a0a90508260c001518360a001511015611e3f57604051634496547d60e01b815260040160405180910390fd5b8251602084015160405163b435914360e01b81526001600160a01b03928316600482015290821660248201526000917f0000000000000000000000000000000000000000000000000000000000000000169063b4359143906044016020604051808303816000875af1158015611eb9573d6000803e3d6000fd5b505050506040513d601f19601f82011682018060405250810190611edd91906136f2565b90506000804286610120015165ffffffffffff16611efb9190613487565b60095490925063ffffffff600160801b90910481169083161080611f36575060095461014087015163ffffffff600160601b90920482169116105b80611f5157508163ffffffff1686610140015163ffffffff16115b15611f6f57604051633b596f5f60e01b815260040160405180910390fd5b60008661014001516005611f839190613649565b60095490915063ffffffff808316600160401b9092041611611fa55780611fb6565b600954600160401b900463ffffffff165b60095461014089015191935060009161200e9163ffffffff908116911611611fe65760095463ffffffff16611fed565b8861014001515b63ffffffff168563ffffffff168a608001516126219092919063ffffffff16565b60408051610140808201835265ffffffffffff4216808352602083015263ffffffff808916938301939093528b0180518316606083015260095490519394509092608084019291821691161161206c5760095463ffffffff16612073565b8961014001515b63ffffffff9081168252600954600160201b900481166020830152851660408201526060810183905260808a8101519101906120b0908490613487565b81526020016120ee8563ffffffff168763ffffffff168c606001516120d9578c608001516115cb565b60a08d015160808e01516115cb918d90612621565b90526000868152600460209081526040808320845181549386015192860151606080880151608089015160a08a015160c08b015165ffffffffffff9687166001600160601b0319909a1699909917600160301b969098169590950296909617600160601b600160a01b031916600160601b63ffffffff9485160263ffffffff60801b191617600160801b9184169190910217600160a01b600160e01b031916600160a01b9583169590950263ffffffff60c01b191694909417600160c01b92821692909202919091176001600160e01b0316600160e01b919094160292909217825560e0840151600183015561010084015160028301556101209093015160039091015590890151909250829150819061220c578860800151612221565b60a089015160808a0151612221918990612621565b905061223a8163ffffffff808716908881169061262116565b925061226289610140015163ffffffff168663ffffffff16836126219092919063ffffffff16565b915050604051806101800160405280336001600160a01b0316815260200189600001516001600160a01b0316815260200189602001516001600160a01b0316815260200189604001516001600160a01b03168152602001896060015115158152602001896080015181526020018381526020018960c0015181526020018281526020016000815260200160008152602001878152506002600087815260200190815260200160002060008201518160000160006101000a8154816001600160a01b0302191690836001600160a01b0316021790555060208201518160010160006101000a8154816001600160a01b0302191690836001600160a01b0316021790555060408201518160020160006101000a8154816001600160a01b0302191690836001600160a01b0316021790555060608201518160030160006101000a8154816001600160a01b0302191690836001600160a01b0316021790555060808201518160030160146101000a81548160ff02191690831515021790555060a0820151816004015560c0820151816005015560e0820151816006015561010082015181600701556101208201518160080155610140820151816009015561016082015181600a01559050506000600960149054906101000a900463ffffffff1663ffffffff16612466620186a065ffffffffffff1685856126219092919063ffffffff16565b1161248057600954600160a01b900463ffffffff1661248e565b61248e82620186a085612621565b905060006124c3828b60e0015163ffffffff16116124ac57826124b8565b8a60e0015163ffffffff165b8590620186a0612621565b6124cd9085613631565b60a08b01519091506000906124e3908a87612621565b905060405180608001604052808281526020018381526020018c610100015165ffffffffffff1681526020018c610120015165ffffffffffff16815250600360008a8152602001908152602001600020600082015181600001556020820151816001015560408201518160020160006101000a81548165ffffffffffff021916908365ffffffffffff16021790555060608201518160020160066101000a81548165ffffffffffff021916908365ffffffffffff1602179055509050508a602001516001600160a01b03168b600001516001600160a01b0316897f8235b14cd272b4e791960fe1118559bb7fed86934fcffeeae9b1175103b0756d8e61010001518f60a0015160405161260a92919065ffffffffffff929092168252602082015260400190565b60405180910390a450959998505050505050505050565b600080806000198587098587029250828110838203039150508060000361265a576000841161264f57600080fd5b508290049050610936565b80841161266657600080fd5b60008486880960026001871981018816978890046003810283188082028403028082028403028082028403028082028403028082028403029081029092039091026000889003889004909101858311909403939093029303949094049190911702949350505050565b60008181526003602090815260408083206002908101805465ffffffffffff60301b1916600160301b4265ffffffffffff16021790559091528082206004018290555182917f9dc30b8eda31a6a144e092e5de600955523a6a925cc15cc1d1b9b4872cfa615591a250565b600083815260026020818152604080842081516101808101835281546001600160a01b03908116825260018301548116948201949094529381015483169184019190915260038101549182166060840152600160a01b90910460ff1615156080830152600481015460a0830152600581015460c0830152600681015460e0830152600781015461010083015260088101546101208301526009810154610140830152600a01546101608201528190816127f2876110ca565b60008881526002602090815260408083206005908101859055909152902060010154909150600160601b900460ff16156129135760008781526005602052604081209080806128408b611a60565b60008e815260036020526040812080549497509295509093508592612866908490613487565b909155505080156128fe57828460000160008282546128859190613487565b90915550506001840180548391906006906128b0908490600160301b900465ffffffffffff16613692565b92506101000a81548165ffffffffffff021916908365ffffffffffff160217905550888460010160006101000a81548165ffffffffffff021916908365ffffffffffff16021790555061290e565b60018401805460ff60601b191690555b505050505b61291c876130c9565b60e083015190945080851015612930578094505b61016083015161294290889087612621565b60008981526004602052604081208054600390910154929650600160e01b810463ffffffff9081169392600160301b90920465ffffffffffff16919061298e9085908a908690611bd916565b60008d8152600460205260409020805491925082916006906129c0908490600160301b900465ffffffffffff1661370b565b92506101000a81548165ffffffffffff021916908365ffffffffffff1602179055506000828b65ffffffffffff1611612a1457612a0565ffffffffffff8c1684613487565b612a0f9086613631565b612a4f565b612a268365ffffffffffff8d16613487565b8511612a33576000612a4f565b612a458365ffffffffffff8d16613487565b612a4f9086613487565b905088612a6886612a608585613631565b8a9190612621565b612a729190613631565b612a7d906001613631565b60009d8e5260026020526040909d206005019c909c5550969a95995094975050505050505050565b600060046000858152602001908152602001600020604051806101400160405290816000820160009054906101000a900465ffffffffffff1665ffffffffffff1665ffffffffffff1681526020016000820160069054906101000a900465ffffffffffff1665ffffffffffff1665ffffffffffff16815260200160008201600c9054906101000a900463ffffffff1663ffffffff1663ffffffff1681526020016000820160109054906101000a900463ffffffff1663ffffffff1663ffffffff1681526020016000820160149054906101000a900463ffffffff1663ffffffff1663ffffffff1681526020016000820160189054906101000a900463ffffffff1663ffffffff1663ffffffff16815260200160008201601c9054906101000a900463ffffffff1663ffffffff1663ffffffff16815260200160018201548152602001600282015481526020016003820154815250509050600060026000868152602001908152602001600020604051806101800160405290816000820160009054906101000a90046001600160a01b03166001600160a01b03166001600160a01b031681526020016001820160009054906101000a90046001600160a01b03166001600160a01b03166001600160a01b031681526020016002820160009054906101000a90046001600160a01b03166001600160a01b03166001600160a01b031681526020016003820160009054906101000a90046001600160a01b03166001600160a01b03166001600160a01b031681526020016003820160149054906101000a900460ff16151515158152602001600482015481526020016005820154815260200160068201548152602001600782015481526020016008820154815260200160098201548152602001600a8201548152505090506000846003600088815260200190815260200160002060020160069054906101000a900465ffffffffffff16612d729190613692565b65ffffffffffff16905060008260800151612d91578260a00151612da6565b61016083015160a0840151612da69187612621565b905060008360800151612dbe57836101200151612dd4565b610160840151610140850151612dd49188612621565b612dde9083613631565b9050600082612e1785886040015163ffffffff16612dfc9190613487565b886040015163ffffffff16856126219092919063ffffffff16565b612e219190613631565b90508561010001518560a00151108015612e3a57508181105b80612e75575060808601518651612e579163ffffffff169061370b565b65ffffffffffff168865ffffffffffff1610158015612e7557508181115b156130be57612e99866060015163ffffffff1685856126219092919063ffffffff16565b60008a8152600260205260408082206007019290925560c0880151918801519091612ed291849163ffffffff9081169181169061262116565b60008b81526003602052604081205461016089015192935091612ef7908b9085611bd9565b60408051848152602081018390529192508d917f78f9c01d72705dba80d6ce051d36a1f987bf2a3800fee938c111a2ae741e57d1910160405180910390a281811015613025576000612f498284613487565b905060405180608001604052808281526020018d65ffffffffffff1681526020018b60a0015163ffffffff1665ffffffffffff16815260200160011515815250600560008f81526020019081526020016000206000820151816000015560208201518160010160006101000a81548165ffffffffffff021916908365ffffffffffff16021790555060408201518160010160066101000a81548165ffffffffffff021916908365ffffffffffff160217905550606082015181600101600c6101000a81548160ff0219169083151502179055509050505061304f565b60008c815260036020908152604080832084905560059091529020600101805460ff60601b191690555b60008c8152600460205260409020805465ffffffffffff191665ffffffffffff8d1617905560e089015160a08901511161308a57600061309e565b8860e001518860a0015161309e9190613487565b60008d815260046020526040902060028101919091556003019290925550505b505050505050505050565b600081815260026020818152604080842081516101808101835281546001600160a01b0390811682526001830154811682860152948201548516818401526003808301549586166060830152600160a01b90950460ff1615156080820152600482015460a0820152600582015460c08201819052600683015460e0830152600783015461010083015260088301546101208301526009830154610140830152600a90920154610160820181905287875294909352908420549192610936929190611bd9565b6000602082840312156131a057600080fd5b5035919050565b6001600160a01b038116811461106a57600080fd5b80356131c7816131a7565b919050565b6000602082840312156131de57600080fd5b8135610936816131a7565b6001600160a01b0391909116815260200190565b6000806020838503121561321057600080fd5b82356001600160401b038082111561322757600080fd5b818501915085601f83011261323b57600080fd5b81358181111561324a57600080fd5b86602082850101111561325c57600080fd5b60209290920196919550909350505050565b801515811461106a57600080fd5b80356131c78161326e565b60006020828403121561329957600080fd5b81356109368161326e565b600080608083850312156132b757600080fd5b82359150836080840111156132cb57600080fd5b50926020919091019150565b600080604083850312156132ea57600080fd5b82356132f5816131a7565b915060208301356133058161326e565b809150509250929050565b6000806040838503121561332357600080fd5b823591506020830135613305816131a7565b634e487b7160e01b600052604160045260246000fd5b60405161018081016001600160401b038111828210171561336e5761336e613335565b60405290565b803563ffffffff811681146131c757600080fd5b600060c0828403121561339a57600080fd5b82601f8301126133a957600080fd5b60405160c081016001600160401b03811182821017156133cb576133cb613335565b6040528060c08401858111156133e057600080fd5b845b81811015613401576133f381613374565b8352602092830192016133e2565b509195945050505050565b60008060006060848603121561342157600080fd5b8335925060208401359150604084013561343a816131a7565b809150509250925092565b60008060006060848603121561345a57600080fd5b505081359360208301359350604090920135919050565b634e487b7160e01b600052601160045260246000fd5b60008282101561349957613499613471565b500390565b6020808252600c908201526b15539055551213d49256915160a21b604082015260600190565b65ffffffffffff8116811461106a57600080fd5b80356131c7816134c4565b8035600081900b81146131c757600080fd5b6000610180828403121561350857600080fd5b61351061334b565b613519836131bc565b8152613527602084016131bc565b6020820152613538604084016131bc565b60408201526135496060840161327c565b60608201526080830135608082015260a083013560a082015260c083013560c082015261357860e08401613374565b60e082015261010061358b8185016134d8565b9082015261012061359d8482016134d8565b908201526101406135af848201613374565b908201526101606135c18482016134e3565b908201529392505050565b6000602082840312156135de57600080fd5b61093682613374565b6001600160a01b0393841681529190921660208201526001600160e01b0319909116604082015260600190565b60006020828403121561362657600080fd5b81516109368161326e565b6000821982111561364457613644613471565b500190565b600063ffffffff8083168185168183048111821515161561366c5761366c613471565b02949350505050565b60006020828403121561368757600080fd5b8151610936816134c4565b600065ffffffffffff838116908316818110156136b1576136b1613471565b039392505050565b634e487b7160e01b600052601260045260246000fd5b6000602082840312156136e157600080fd5b815160ff8116811461093657600080fd5b60006020828403121561370457600080fd5b5051919050565b600065ffffffffffff80831681851680830382111561372c5761372c613471565b0194935050505056fea264697066735822122068416d5f8005dd8711509ba70ce6c5aba75cf87e66df1f12426173b2e70e5e2064736f6c634300080f0033",
    "linkReferences": {}
  },
  "methodIdentifiers": {
    "adjustments(uint256)": "bc3b2b12",
    "allowNewMarkets()": "afa9d3b0",
    "authority()": "bf7e214f",
    "callbackAuthorized(address)": "5dc4d16b",
    "closeMarket(uint256)": "ae418095",
    "createMarket(bytes)": "53c7f8e0",
    "currentCapacity(uint256)": "1c063a6c",
    "currentControlVariable(uint256)": "0a9d85eb",
    "currentDebt(uint256)": "bcb29667",
    "defaultTuneAdjustment()": "ea0aca33",
    "defaultTuneInterval()": "d9ccdc93",
    "getAggregator()": "3ad59dbc",
    "getMarketInfoForPurchase(uint256)": "acc5570c",
    "getTeller()": "9787d107",
    "isInstantSwap(uint256)": "8b098db3",
    "isLive(uint256)": "27507458",
    "marketPrice(uint256)": "3adec5a7",
    "marketScale(uint256)": "946824cd",
    "markets(uint256)": "b1283e77",
    "maxAmountAccepted(uint256,address)": "c7bf8ca0",
    "metadata(uint256)": "e3684e39",
    "minDebtBuffer()": "8973082c",
    "minDebtDecayInterval()": "e9220673",
    "minDepositInterval()": "d2040687",
    "minMarketDuration()": "d2bee323",
    "newOwners(uint256)": "6729a41e",
    "owner()": "8da5cb5b",
    "ownerOf(uint256)": "6352211e",
    "payoutFor(uint256,uint256,address)": "bf48582b",
    "pullOwnership(uint256)": "10b05317",
    "purchaseBond(uint256,uint256,uint256)": "e007fa97",
    "pushOwnership(uint256,address)": "bcf6cde8",
    "setAllowNewMarkets(bool)": "5f77274e",
    "setAuthority(address)": "7a9e5e4b",
    "setCallbackAuthStatus(address,bool)": "bbbdd95a",
    "setDefaults(uint32[6])": "bd1f3a5e",
    "setIntervals(uint256,uint32[3])": "699e17d9",
    "setOwner(address)": "13af4035",
    "terms(uint256)": "c0aa0e8a"
  },
  "id": 85
}