{
  "abi": [
    {
      "inputs": [
        {
          "internalType": "contract Kernel",
          "name": "kernel_",
          "type": "address"
        }
      ],
      "stateMutability": "nonpayable",
      "type": "constructor"
    },
    {
      "inputs": [
        {
          "internalType": "address",
          "name": "caller_",
          "type": "address"
        }
      ],
      "name": "KernelAdapter_OnlyKernel",
      "type": "error"
    },
    {
      "inputs": [
        {
          "internalType": "address",
          "name": "policy_",
          "type": "address"
        }
      ],
      "name": "Module_PolicyNotPermitted",
      "type": "error"
    },
    {
      "inputs": [],
      "name": "TRSRY_NoDebtOutstanding",
      "type": "error"
    },
    {
      "inputs": [],
      "name": "TRSRY_NotActive",
      "type": "error"
    },
    {
      "anonymous": false,
      "inputs": [
        {
          "indexed": true,
          "internalType": "contract ERC20",
          "name": "token_",
          "type": "address"
        },
        {
          "indexed": true,
          "internalType": "address",
          "name": "policy_",
          "type": "address"
        },
        {
          "indexed": false,
          "internalType": "uint256",
          "name": "amount_",
          "type": "uint256"
        }
      ],
      "name": "DebtIncurred",
      "type": "event"
    },
    {
      "anonymous": false,
      "inputs": [
        {
          "indexed": true,
          "internalType": "contract ERC20",
          "name": "token_",
          "type": "address"
        },
        {
          "indexed": true,
          "internalType": "address",
          "name": "policy_",
          "type": "address"
        },
        {
          "indexed": false,
          "internalType": "uint256",
          "name": "amount_",
          "type": "uint256"
        }
      ],
      "name": "DebtRepaid",
      "type": "event"
    },
    {
      "anonymous": false,
      "inputs": [
        {
          "indexed": true,
          "internalType": "contract ERC20",
          "name": "token_",
          "type": "address"
        },
        {
          "indexed": true,
          "internalType": "address",
          "name": "policy_",
          "type": "address"
        },
        {
          "indexed": false,
          "internalType": "uint256",
          "name": "amount_",
          "type": "uint256"
        }
      ],
      "name": "DebtSet",
      "type": "event"
    },
    {
      "anonymous": false,
      "inputs": [
        {
          "indexed": true,
          "internalType": "address",
          "name": "debtor_",
          "type": "address"
        },
        {
          "indexed": true,
          "internalType": "contract ERC20",
          "name": "token_",
          "type": "address"
        },
        {
          "indexed": false,
          "internalType": "uint256",
          "name": "newAmount_",
          "type": "uint256"
        }
      ],
      "name": "DecreaseDebtorApproval",
      "type": "event"
    },
    {
      "anonymous": false,
      "inputs": [
        {
          "indexed": true,
          "internalType": "address",
          "name": "withdrawer_",
          "type": "address"
        },
        {
          "indexed": true,
          "internalType": "contract ERC20",
          "name": "token_",
          "type": "address"
        },
        {
          "indexed": false,
          "internalType": "uint256",
          "name": "newAmount_",
          "type": "uint256"
        }
      ],
      "name": "DecreaseWithdrawApproval",
      "type": "event"
    },
    {
      "anonymous": false,
      "inputs": [
        {
          "indexed": true,
          "internalType": "address",
          "name": "debtor_",
          "type": "address"
        },
        {
          "indexed": true,
          "internalType": "contract ERC20",
          "name": "token_",
          "type": "address"
        },
        {
          "indexed": false,
          "internalType": "uint256",
          "name": "newAmount_",
          "type": "uint256"
        }
      ],
      "name": "IncreaseDebtorApproval",
      "type": "event"
    },
    {
      "anonymous": false,
      "inputs": [
        {
          "indexed": true,
          "internalType": "address",
          "name": "withdrawer_",
          "type": "address"
        },
        {
          "indexed": true,
          "internalType": "contract ERC20",
          "name": "token_",
          "type": "address"
        },
        {
          "indexed": false,
          "internalType": "uint256",
          "name": "newAmount_",
          "type": "uint256"
        }
      ],
      "name": "IncreaseWithdrawApproval",
      "type": "event"
    },
    {
      "anonymous": false,
      "inputs": [
        {
          "indexed": true,
          "internalType": "address",
          "name": "policy_",
          "type": "address"
        },
        {
          "indexed": true,
          "internalType": "address",
          "name": "withdrawer_",
          "type": "address"
        },
        {
          "indexed": true,
          "internalType": "contract ERC20",
          "name": "token_",
          "type": "address"
        },
        {
          "indexed": false,
          "internalType": "uint256",
          "name": "amount_",
          "type": "uint256"
        }
      ],
      "name": "Withdrawal",
      "type": "event"
    },
    {
      "inputs": [],
      "name": "INIT",
      "outputs": [],
      "stateMutability": "nonpayable",
      "type": "function"
    },
    {
      "inputs": [],
      "name": "KEYCODE",
      "outputs": [
        {
          "internalType": "Keycode",
          "name": "",
          "type": "bytes5"
        }
      ],
      "stateMutability": "pure",
      "type": "function"
    },
    {
      "inputs": [],
      "name": "VERSION",
      "outputs": [
        {
          "internalType": "uint8",
          "name": "major",
          "type": "uint8"
        },
        {
          "internalType": "uint8",
          "name": "minor",
          "type": "uint8"
        }
      ],
      "stateMutability": "pure",
      "type": "function"
    },
    {
      "inputs": [],
      "name": "activate",
      "outputs": [],
      "stateMutability": "nonpayable",
      "type": "function"
    },
    {
      "inputs": [],
      "name": "active",
      "outputs": [
        {
          "internalType": "bool",
          "name": "",
          "type": "bool"
        }
      ],
      "stateMutability": "view",
      "type": "function"
    },
    {
      "inputs": [
        {
          "internalType": "contract Kernel",
          "name": "newKernel_",
          "type": "address"
        }
      ],
      "name": "changeKernel",
      "outputs": [],
      "stateMutability": "nonpayable",
      "type": "function"
    },
    {
      "inputs": [],
      "name": "deactivate",
      "outputs": [],
      "stateMutability": "nonpayable",
      "type": "function"
    },
    {
      "inputs": [
        {
          "internalType": "address",
          "name": "",
          "type": "address"
        },
        {
          "internalType": "contract ERC20",
          "name": "",
          "type": "address"
        }
      ],
      "name": "debtApproval",
      "outputs": [
        {
          "internalType": "uint256",
          "name": "",
          "type": "uint256"
        }
      ],
      "stateMutability": "view",
      "type": "function"
    },
    {
      "inputs": [
        {
          "internalType": "address",
          "name": "debtor_",
          "type": "address"
        },
        {
          "internalType": "contract ERC20",
          "name": "token_",
          "type": "address"
        },
        {
          "internalType": "uint256",
          "name": "amount_",
          "type": "uint256"
        }
      ],
      "name": "decreaseDebtorApproval",
      "outputs": [],
      "stateMutability": "nonpayable",
      "type": "function"
    },
    {
      "inputs": [
        {
          "internalType": "address",
          "name": "withdrawer_",
          "type": "address"
        },
        {
          "internalType": "contract ERC20",
          "name": "token_",
          "type": "address"
        },
        {
          "internalType": "uint256",
          "name": "amount_",
          "type": "uint256"
        }
      ],
      "name": "decreaseWithdrawApproval",
      "outputs": [],
      "stateMutability": "nonpayable",
      "type": "function"
    },
    {
      "inputs": [
        {
          "internalType": "contract ERC20",
          "name": "token_",
          "type": "address"
        }
      ],
      "name": "getReserveBalance",
      "outputs": [
        {
          "internalType": "uint256",
          "name": "",
          "type": "uint256"
        }
      ],
      "stateMutability": "view",
      "type": "function"
    },
    {
      "inputs": [
        {
          "internalType": "address",
          "name": "debtor_",
          "type": "address"
        },
        {
          "internalType": "contract ERC20",
          "name": "token_",
          "type": "address"
        },
        {
          "internalType": "uint256",
          "name": "amount_",
          "type": "uint256"
        }
      ],
      "name": "increaseDebtorApproval",
      "outputs": [],
      "stateMutability": "nonpayable",
      "type": "function"
    },
    {
      "inputs": [
        {
          "internalType": "address",
          "name": "withdrawer_",
          "type": "address"
        },
        {
          "internalType": "contract ERC20",
          "name": "token_",
          "type": "address"
        },
        {
          "internalType": "uint256",
          "name": "amount_",
          "type": "uint256"
        }
      ],
      "name": "increaseWithdrawApproval",
      "outputs": [],
      "stateMutability": "nonpayable",
      "type": "function"
    },
    {
      "inputs": [
        {
          "internalType": "contract ERC20",
          "name": "token_",
          "type": "address"
        },
        {
          "internalType": "uint256",
          "name": "amount_",
          "type": "uint256"
        }
      ],
      "name": "incurDebt",
      "outputs": [],
      "stateMutability": "nonpayable",
      "type": "function"
    },
    {
      "inputs": [],
      "name": "kernel",
      "outputs": [
        {
          "internalType": "contract Kernel",
          "name": "",
          "type": "address"
        }
      ],
      "stateMutability": "view",
      "type": "function"
    },
    {
      "inputs": [
        {
          "internalType": "address",
          "name": "debtor_",
          "type": "address"
        },
        {
          "internalType": "contract ERC20",
          "name": "token_",
          "type": "address"
        },
        {
          "internalType": "uint256",
          "name": "amount_",
          "type": "uint256"
        }
      ],
      "name": "repayDebt",
      "outputs": [],
      "stateMutability": "nonpayable",
      "type": "function"
    },
    {
      "inputs": [
        {
          "internalType": "contract ERC20",
          "name": "",
          "type": "address"
        },
        {
          "internalType": "address",
          "name": "",
          "type": "address"
        }
      ],
      "name": "reserveDebt",
      "outputs": [
        {
          "internalType": "uint256",
          "name": "",
          "type": "uint256"
        }
      ],
      "stateMutability": "view",
      "type": "function"
    },
    {
      "inputs": [
        {
          "internalType": "address",
          "name": "debtor_",
          "type": "address"
        },
        {
          "internalType": "contract ERC20",
          "name": "token_",
          "type": "address"
        },
        {
          "internalType": "uint256",
          "name": "amount_",
          "type": "uint256"
        }
      ],
      "name": "setDebt",
      "outputs": [],
      "stateMutability": "nonpayable",
      "type": "function"
    },
    {
      "inputs": [
        {
          "internalType": "contract ERC20",
          "name": "",
          "type": "address"
        }
      ],
      "name": "totalDebt",
      "outputs": [
        {
          "internalType": "uint256",
          "name": "",
          "type": "uint256"
        }
      ],
      "stateMutability": "view",
      "type": "function"
    },
    {
      "inputs": [
        {
          "internalType": "address",
          "name": "",
          "type": "address"
        },
        {
          "internalType": "contract ERC20",
          "name": "",
          "type": "address"
        }
      ],
      "name": "withdrawApproval",
      "outputs": [
        {
          "internalType": "uint256",
          "name": "",
          "type": "uint256"
        }
      ],
      "stateMutability": "view",
      "type": "function"
    },
    {
      "inputs": [
        {
          "internalType": "address",
          "name": "to_",
          "type": "address"
        },
        {
          "internalType": "contract ERC20",
          "name": "token_",
          "type": "address"
        },
        {
          "internalType": "uint256",
          "name": "amount_",
          "type": "uint256"
        }
      ],
      "name": "withdrawReserves",
      "outputs": [],
      "stateMutability": "nonpayable",
      "type": "function"
    }
  ],
  "bytecode": {
    "object": "0x6080604052600160055534801561001557600080fd5b50604051620021113803806200211183398101604081905261003691610060565b600080546001600160a81b0319166001600160a01b0390921691909117600160a01b179055610090565b60006020828403121561007257600080fd5b81516001600160a01b038116811461008957600080fd5b9392505050565b61207180620000a06000396000f3fe608060405234801561001057600080fd5b50600436106101775760003560e01c80634aae164b116100d8578063d4aae0c41161008c578063f5b92c7311610066578063f5b92c731461038a578063fb393f241461039d578063ffa1ad74146103b057600080fd5b8063d4aae0c41461032a578063e6eb207a1461036f578063ea6439141461038257600080fd5b80635f0736a1116100bd5780635f0736a1146102d9578063724000c1146103045780638b7f3fb91461031757600080fd5b80634aae164b146102be57806351b42b00146102d157600080fd5b80631ff517ff1161012f5780632f42aef5116101145780632f42aef51461026d57806332b43ad2146102805780634657b36c146102ab57600080fd5b80631ff517ff1461022257806328a4ace51461024257600080fd5b80630f15f4c0116101605780630f15f4c0146101cb57806315226b54146101d35780631ae7ec2e146101f457600080fd5b806301a91e5c1461017c57806302fb0c5e14610191575b600080fd5b61018f61018a366004611e9d565b6103c5565b005b6000546101b69074010000000000000000000000000000000000000000900460ff1681565b60405190151581526020015b60405180910390f35b61018f6105a4565b6101e66101e1366004611ede565b610708565b6040519081526020016101c2565b6040517f545253525900000000000000000000000000000000000000000000000000000081526020016101c2565b6101e6610230366004611ede565b60036020526000908152604090205481565b6101e6610250366004611f02565b600460209081526000928352604080842090915290825290205481565b61018f61027b366004611e9d565b6107b8565b6101e661028e366004611f02565b600260209081526000928352604080842090915290825290205481565b61018f6102b9366004611ede565b610a19565b61018f6102cc366004611e9d565b610ab3565b61018f610d04565b6101e66102e7366004611f02565b600160209081526000928352604080842090915290825290205481565b61018f610312366004611f3b565b610e51565b61018f610325366004611e9d565b6110ff565b60005461034a9073ffffffffffffffffffffffffffffffffffffffff1681565b60405173ffffffffffffffffffffffffffffffffffffffff90911681526020016101c2565b61018f61037d366004611e9d565b6112ea565b61018f611512565b61018f610398366004611e9d565b611567565b61018f6103ab366004611e9d565b6119bf565b604080516001815260006020820152016101c2565b60005473ffffffffffffffffffffffffffffffffffffffff1663f166d9eb7f54525352590000000000000000000000000000000000000000000000000000006040517fffffffff0000000000000000000000000000000000000000000000000000000060e084901b811682527fffffffffff0000000000000000000000000000000000000000000000000000009290921660048201523360248201526000359091166044820152606401602060405180830381865afa15801561048c573d6000803e3d6000fd5b505050506040513d601f19601f820116820180604052508101906104b09190611f67565b6104ed576040517f11bf00c90000000000000000000000000000000000000000000000000000000081523360048201526024015b60405180910390fd5b73ffffffffffffffffffffffffffffffffffffffff808416600090815260026020908152604080832093861683529290529081205461052d908390611fb8565b73ffffffffffffffffffffffffffffffffffffffff8581166000818152600260209081526040808320948916808452948252918290208590559051848152939450919290917f9afc1acde4b7ec0d84d924e5b530aecfb57d117a7122b80904cb9912badbff5991015b60405180910390a350505050565b60005473ffffffffffffffffffffffffffffffffffffffff1663f166d9eb7f54525352590000000000000000000000000000000000000000000000000000006040517fffffffff0000000000000000000000000000000000000000000000000000000060e084901b811682527fffffffffff0000000000000000000000000000000000000000000000000000009290921660048201523360248201526000359091166044820152606401602060405180830381865afa15801561066b573d6000803e3d6000fd5b505050506040513d601f19601f8201168201806040525081019061068f9190611f67565b6106c7576040517f11bf00c90000000000000000000000000000000000000000000000000000000081523360048201526024016104e4565b600080547fffffffffffffffffffffff00ffffffffffffffffffffffffffffffffffffffff1674010000000000000000000000000000000000000000179055565b73ffffffffffffffffffffffffffffffffffffffff81166000818152600360205260408082205490517f70a08231000000000000000000000000000000000000000000000000000000008152306004820152919290916370a0823190602401602060405180830381865afa158015610784573d6000803e3d6000fd5b505050506040513d601f19601f820116820180604052508101906107a89190611fd0565b6107b29190611fb8565b92915050565b60005473ffffffffffffffffffffffffffffffffffffffff1663f166d9eb7f54525352590000000000000000000000000000000000000000000000000000006040517fffffffff0000000000000000000000000000000000000000000000000000000060e084901b811682527fffffffffff0000000000000000000000000000000000000000000000000000009290921660048201523360248201526000359091166044820152606401602060405180830381865afa15801561087f573d6000803e3d6000fd5b505050506040513d601f19601f820116820180604052508101906108a39190611f67565b6108db576040517f11bf00c90000000000000000000000000000000000000000000000000000000081523360048201526024016104e4565b60005474010000000000000000000000000000000000000000900460ff1661092f576040517f8e76d05e00000000000000000000000000000000000000000000000000000000815260040160405180910390fd5b33600090815260016020908152604080832073ffffffffffffffffffffffffffffffffffffffff861684529091528120805483929061096f908490611fe9565b90915550610996905073ffffffffffffffffffffffffffffffffffffffff83168483611b8f565b8173ffffffffffffffffffffffffffffffffffffffff168373ffffffffffffffffffffffffffffffffffffffff163373ffffffffffffffffffffffffffffffffffffffff167f342e7ff505a8a0364cd0dc2ff195c315e43bce86b204846ecd36913e117b109e84604051610a0c91815260200190565b60405180910390a4505050565b60005473ffffffffffffffffffffffffffffffffffffffff163314610a6c576040517f14fa403c0000000000000000000000000000000000000000000000000000000081523360048201526024016104e4565b600080547fffffffffffffffffffffffff00000000000000000000000000000000000000001673ffffffffffffffffffffffffffffffffffffffff92909216919091179055565b60005473ffffffffffffffffffffffffffffffffffffffff1663f166d9eb7f54525352590000000000000000000000000000000000000000000000000000006040517fffffffff0000000000000000000000000000000000000000000000000000000060e084901b811682527fffffffffff0000000000000000000000000000000000000000000000000000009290921660048201523360248201526000359091166044820152606401602060405180830381865afa158015610b7a573d6000803e3d6000fd5b505050506040513d601f19601f82011682018060405250810190610b9e9190611f67565b610bd6576040517f11bf00c90000000000000000000000000000000000000000000000000000000081523360048201526024016104e4565b73ffffffffffffffffffffffffffffffffffffffff828116600090815260046020908152604080832093871683529290522080549082905581811015610c6057610c208183611fe9565b73ffffffffffffffffffffffffffffffffffffffff841660009081526003602052604081208054909190610c55908490611fb8565b90915550610ca59050565b610c6a8282611fe9565b73ffffffffffffffffffffffffffffffffffffffff841660009081526003602052604081208054909190610c9f908490611fe9565b90915550505b8373ffffffffffffffffffffffffffffffffffffffff168373ffffffffffffffffffffffffffffffffffffffff167f4417d205f6349e66a581332b36195e74d10f878e80db907b4fd3a814aad4049d8460405161059691815260200190565b60005473ffffffffffffffffffffffffffffffffffffffff1663f166d9eb7f54525352590000000000000000000000000000000000000000000000000000006040517fffffffff0000000000000000000000000000000000000000000000000000000060e084901b811682527fffffffffff0000000000000000000000000000000000000000000000000000009290921660048201523360248201526000359091166044820152606401602060405180830381865afa158015610dcb573d6000803e3d6000fd5b505050506040513d601f19601f82011682018060405250810190610def9190611f67565b610e27576040517f11bf00c90000000000000000000000000000000000000000000000000000000081523360048201526024016104e4565b600080547fffffffffffffffffffffff00ffffffffffffffffffffffffffffffffffffffff169055565b60005473ffffffffffffffffffffffffffffffffffffffff1663f166d9eb7f54525352590000000000000000000000000000000000000000000000000000006040517fffffffff0000000000000000000000000000000000000000000000000000000060e084901b811682527fffffffffff0000000000000000000000000000000000000000000000000000009290921660048201523360248201526000359091166044820152606401602060405180830381865afa158015610f18573d6000803e3d6000fd5b505050506040513d601f19601f82011682018060405250810190610f3c9190611f67565b610f74576040517f11bf00c90000000000000000000000000000000000000000000000000000000081523360048201526024016104e4565b60005474010000000000000000000000000000000000000000900460ff16610fc8576040517f8e76d05e00000000000000000000000000000000000000000000000000000000815260040160405180910390fd5b33600090815260026020908152604080832073ffffffffffffffffffffffffffffffffffffffff8616845290915281208054839290611008908490611fe9565b909155505073ffffffffffffffffffffffffffffffffffffffff821660009081526004602090815260408083203384529091528120805483929061104d908490611fb8565b909155505073ffffffffffffffffffffffffffffffffffffffff821660009081526003602052604081208054839290611087908490611fb8565b909155506110ae905073ffffffffffffffffffffffffffffffffffffffff83163383611b8f565b604051818152339073ffffffffffffffffffffffffffffffffffffffff8416907f7f04a714958851e1d87b504651ba77ab02f62bae8879f577bf3e07cf8567aba29060200160405180910390a35050565b60005473ffffffffffffffffffffffffffffffffffffffff1663f166d9eb7f54525352590000000000000000000000000000000000000000000000000000006040517fffffffff0000000000000000000000000000000000000000000000000000000060e084901b811682527fffffffffff0000000000000000000000000000000000000000000000000000009290921660048201523360248201526000359091166044820152606401602060405180830381865afa1580156111c6573d6000803e3d6000fd5b505050506040513d601f19601f820116820180604052508101906111ea9190611f67565b611222576040517f11bf00c90000000000000000000000000000000000000000000000000000000081523360048201526024016104e4565b73ffffffffffffffffffffffffffffffffffffffff8084166000908152600160209081526040808320938616835292905290812054908282111561126f5761126a8383611fe9565b611272565b60005b73ffffffffffffffffffffffffffffffffffffffff8681166000818152600160209081526040808320948a16808452948252918290208590559051848152939450919290917f40730d80659c76c95521f0340872d27fdc8b3c47befe2ca569d2c2eedc8a049e91015b60405180910390a35050505050565b60005473ffffffffffffffffffffffffffffffffffffffff1663f166d9eb7f54525352590000000000000000000000000000000000000000000000000000006040517fffffffff0000000000000000000000000000000000000000000000000000000060e084901b811682527fffffffffff0000000000000000000000000000000000000000000000000000009290921660048201523360248201526000359091166044820152606401602060405180830381865afa1580156113b1573d6000803e3d6000fd5b505050506040513d601f19601f820116820180604052508101906113d59190611f67565b61140d576040517f11bf00c90000000000000000000000000000000000000000000000000000000081523360048201526024016104e4565b73ffffffffffffffffffffffffffffffffffffffff8084166000908152600160209081526040808320938616835292905290812054908261146e837fffffffffffffffffffffffffffffffffffffffffffffffffffffffffffffffff611fe9565b11156114835761147e8383611fb8565b6114a5565b7fffffffffffffffffffffffffffffffffffffffffffffffffffffffffffffffff5b73ffffffffffffffffffffffffffffffffffffffff8681166000818152600160209081526040808320948a16808452948252918290208590559051848152939450919290917f8bbc2784c9e4073e20f60d8c7218cbd211c43ca2ee041bc037f977693a0c8c1b91016112db565b60005473ffffffffffffffffffffffffffffffffffffffff163314611565576040517f14fa403c0000000000000000000000000000000000000000000000000000000081523360048201526024016104e4565b565b60005473ffffffffffffffffffffffffffffffffffffffff1663f166d9eb7f54525352590000000000000000000000000000000000000000000000000000006040517fffffffff0000000000000000000000000000000000000000000000000000000060e084901b811682527fffffffffff0000000000000000000000000000000000000000000000000000009290921660048201523360248201526000359091166044820152606401602060405180830381865afa15801561162e573d6000803e3d6000fd5b505050506040513d601f19601f820116820180604052508101906116529190611f67565b61168a576040517f11bf00c90000000000000000000000000000000000000000000000000000000081523360048201526024016104e4565b6005546001146116f6576040517f08c379a000000000000000000000000000000000000000000000000000000000815260206004820152600a60248201527f5245454e5452414e43590000000000000000000000000000000000000000000060448201526064016104e4565b600260055573ffffffffffffffffffffffffffffffffffffffff80831660009081526004602090815260408083209387168352929052908120549003611768576040517fa4255dc500000000000000000000000000000000000000000000000000000000815260040160405180910390fd5b6040517f70a0823100000000000000000000000000000000000000000000000000000000815230600482015260009073ffffffffffffffffffffffffffffffffffffffff8416906370a0823190602401602060405180830381865afa1580156117d5573d6000803e3d6000fd5b505050506040513d601f19601f820116820180604052508101906117f99190611fd0565b905061181d73ffffffffffffffffffffffffffffffffffffffff8416333085611cff565b6040517f70a08231000000000000000000000000000000000000000000000000000000008152306004820152600090829073ffffffffffffffffffffffffffffffffffffffff8616906370a0823190602401602060405180830381865afa15801561188c573d6000803e3d6000fd5b505050506040513d601f19601f820116820180604052508101906118b09190611fd0565b6118ba9190611fe9565b9050828111156118c75750815b73ffffffffffffffffffffffffffffffffffffffff80851660009081526004602090815260408083209389168352929052908120805483929061190b908490611fe9565b909155505073ffffffffffffffffffffffffffffffffffffffff841660009081526003602052604081208054839290611945908490611fe9565b925050819055508473ffffffffffffffffffffffffffffffffffffffff168473ffffffffffffffffffffffffffffffffffffffff167feef1a28252f7c3266ccea3202ee9693f0834485bc3551310a406e04829c7e2cf836040516119ab91815260200190565b60405180910390a350506001600555505050565b60005473ffffffffffffffffffffffffffffffffffffffff1663f166d9eb7f54525352590000000000000000000000000000000000000000000000000000006040517fffffffff0000000000000000000000000000000000000000000000000000000060e084901b811682527fffffffffff0000000000000000000000000000000000000000000000000000009290921660048201523360248201526000359091166044820152606401602060405180830381865afa158015611a86573d6000803e3d6000fd5b505050506040513d601f19601f82011682018060405250810190611aaa9190611f67565b611ae2576040517f11bf00c90000000000000000000000000000000000000000000000000000000081523360048201526024016104e4565b73ffffffffffffffffffffffffffffffffffffffff8084166000908152600260209081526040808320938616835292905290812054611b22908390611fe9565b73ffffffffffffffffffffffffffffffffffffffff8581166000818152600260209081526040808320948916808452948252918290208590559051848152939450919290917fbb8caa1e59333c99899b67ccacb2b942c5a5ebf1a2bff4932b50274da81fe8d59101610596565b6040805173ffffffffffffffffffffffffffffffffffffffff8481166024830152604480830185905283518084039091018152606490920183526020820180517bffffffffffffffffffffffffffffffffffffffffffffffffffffffff167fa9059cbb000000000000000000000000000000000000000000000000000000001790529151600092839290871691611c269190612000565b6000604051808303816000865af19150503d8060008114611c63576040519150601f19603f3d011682016040523d82523d6000602084013e611c68565b606091505b5091509150818015611c92575080511580611c92575080806020019051810190611c929190611f67565b611cf8576040517f08c379a000000000000000000000000000000000000000000000000000000000815260206004820152600f60248201527f5452414e534645525f4641494c4544000000000000000000000000000000000060448201526064016104e4565b5050505050565b6040805173ffffffffffffffffffffffffffffffffffffffff85811660248301528481166044830152606480830185905283518084039091018152608490920183526020820180517bffffffffffffffffffffffffffffffffffffffffffffffffffffffff167f23b872dd000000000000000000000000000000000000000000000000000000001790529151600092839290881691611d9e9190612000565b6000604051808303816000865af19150503d8060008114611ddb576040519150601f19603f3d011682016040523d82523d6000602084013e611de0565b606091505b5091509150818015611e0a575080511580611e0a575080806020019051810190611e0a9190611f67565b611e70576040517f08c379a000000000000000000000000000000000000000000000000000000000815260206004820152601460248201527f5452414e534645525f46524f4d5f4641494c454400000000000000000000000060448201526064016104e4565b505050505050565b73ffffffffffffffffffffffffffffffffffffffff81168114611e9a57600080fd5b50565b600080600060608486031215611eb257600080fd5b8335611ebd81611e78565b92506020840135611ecd81611e78565b929592945050506040919091013590565b600060208284031215611ef057600080fd5b8135611efb81611e78565b9392505050565b60008060408385031215611f1557600080fd5b8235611f2081611e78565b91506020830135611f3081611e78565b809150509250929050565b60008060408385031215611f4e57600080fd5b8235611f5981611e78565b946020939093013593505050565b600060208284031215611f7957600080fd5b81518015158114611efb57600080fd5b7f4e487b7100000000000000000000000000000000000000000000000000000000600052601160045260246000fd5b60008219821115611fcb57611fcb611f89565b500190565b600060208284031215611fe257600080fd5b5051919050565b600082821015611ffb57611ffb611f89565b500390565b6000825160005b818110156120215760208186018101518583015201612007565b81811115612030576000828501525b50919091019291505056fea26469706673582212206634c68cd62b3d0f45d7635a2fd1aa8019825f1f21deea0c546dc1f7677635a164736f6c634300080f0033",
    "linkReferences": {}
  },
  "methodIdentifiers": {
    "INIT()": "ea643914",
    "KEYCODE()": "1ae7ec2e",
    "VERSION()": "ffa1ad74",
    "activate()": "0f15f4c0",
    "active()": "02fb0c5e",
    "changeKernel(address)": "4657b36c",
    "deactivate()": "51b42b00",
    "debtApproval(address,address)": "32b43ad2",
    "decreaseDebtorApproval(address,address,uint256)": "fb393f24",
    "decreaseWithdrawApproval(address,address,uint256)": "8b7f3fb9",
    "getReserveBalance(address)": "15226b54",
    "increaseDebtorApproval(address,address,uint256)": "01a91e5c",
    "increaseWithdrawApproval(address,address,uint256)": "e6eb207a",
    "incurDebt(address,uint256)": "724000c1",
    "kernel()": "d4aae0c4",
    "repayDebt(address,address,uint256)": "f5b92c73",
    "reserveDebt(address,address)": "28a4ace5",
    "setDebt(address,address,uint256)": "4aae164b",
    "totalDebt(address)": "1ff517ff",
    "withdrawApproval(address,address)": "5f0736a1",
    "withdrawReserves(address,address,uint256)": "2f42aef5"
  },
  "id": 100
}