{
  "abi": [
    {
      "inputs": [
        {
          "internalType": "address",
          "name": "dai_",
          "type": "address"
        },
        {
          "internalType": "address",
          "name": "gdaoV2_",
          "type": "address"
        },
        {
          "internalType": "address",
          "name": "stakingV2_",
          "type": "address"
        },
        {
          "internalType": "address",
          "name": "authority_",
          "type": "address"
        }
      ],
      "stateMutability": "nonpayable",
      "type": "constructor"
    },
    {
      "inputs": [],
      "name": "CanOnlyMintOnceADay",
      "type": "error"
    },
    {
      "inputs": [],
      "name": "MintTooLarge",
      "type": "error"
    },
    {
      "anonymous": false,
      "inputs": [
        {
          "indexed": true,
          "internalType": "contract IOlympusAuthority",
          "name": "authority",
          "type": "address"
        }
      ],
      "name": "AuthorityUpdated",
      "type": "event"
    },
    {
      "inputs": [],
      "name": "DAI",
      "outputs": [
        {
          "internalType": "contract IERC20",
          "name": "",
          "type": "address"
        }
      ],
      "stateMutability": "view",
      "type": "function"
    },
    {
      "inputs": [
        {
          "internalType": "address",
          "name": "gdao_",
          "type": "address"
        }
      ],
      "name": "addGDAO",
      "outputs": [],
      "stateMutability": "nonpayable",
      "type": "function"
    },
    {
      "inputs": [
        {
          "internalType": "address",
          "name": "staking_",
          "type": "address"
        }
      ],
      "name": "addStaking",
      "outputs": [],
      "stateMutability": "nonpayable",
      "type": "function"
    },
    {
      "inputs": [
        {
          "internalType": "address",
          "name": "gdao_",
          "type": "address"
        },
        {
          "internalType": "address",
          "name": "staking_",
          "type": "address"
        }
      ],
      "name": "approveStaking",
      "outputs": [],
      "stateMutability": "nonpayable",
      "type": "function"
    },
    {
      "inputs": [],
      "name": "authority",
      "outputs": [
        {
          "internalType": "contract IOlympusAuthority",
          "name": "",
          "type": "address"
        }
      ],
      "stateMutability": "view",
      "type": "function"
    },
    {
      "inputs": [
        {
          "internalType": "uint256",
          "name": "",
          "type": "uint256"
        }
      ],
      "name": "futureStaking",
      "outputs": [
        {
          "internalType": "contract IStaking",
          "name": "",
          "type": "address"
        }
      ],
      "stateMutability": "view",
      "type": "function"
    },
    {
      "inputs": [
        {
          "internalType": "address",
          "name": "",
          "type": "address"
        }
      ],
      "name": "lastMint",
      "outputs": [
        {
          "internalType": "uint256",
          "name": "",
          "type": "uint256"
        }
      ],
      "stateMutability": "view",
      "type": "function"
    },
    {
      "inputs": [],
      "name": "mintDAI",
      "outputs": [],
      "stateMutability": "nonpayable",
      "type": "function"
    },
    {
      "inputs": [
        {
          "internalType": "uint256",
          "name": "amount_",
          "type": "uint256"
        }
      ],
      "name": "mintETH",
      "outputs": [],
      "stateMutability": "nonpayable",
      "type": "function"
    },
    {
      "inputs": [
        {
          "internalType": "uint256",
          "name": "gdaoIndex_",
          "type": "uint256"
        }
      ],
      "name": "mintGDAO",
      "outputs": [],
      "stateMutability": "nonpayable",
      "type": "function"
    },
    {
      "inputs": [],
      "name": "mintGGDAO",
      "outputs": [],
      "stateMutability": "nonpayable",
      "type": "function"
    },
    {
      "inputs": [
        {
          "internalType": "uint256",
          "name": "gdaoIndex_",
          "type": "uint256"
        }
      ],
      "name": "mintSGDAO",
      "outputs": [],
      "stateMutability": "nonpayable",
      "type": "function"
    },
    {
      "inputs": [
        {
          "internalType": "uint256",
          "name": "",
          "type": "uint256"
        }
      ],
      "name": "mintable",
      "outputs": [
        {
          "internalType": "contract IFaucet",
          "name": "",
          "type": "address"
        }
      ],
      "stateMutability": "view",
      "type": "function"
    },
    {
      "inputs": [
        {
          "internalType": "contract IOlympusAuthority",
          "name": "_newAuthority",
          "type": "address"
        }
      ],
      "name": "setAuthority",
      "outputs": [],
      "stateMutability": "nonpayable",
      "type": "function"
    },
    {
      "inputs": [
        {
          "internalType": "address",
          "name": "dai_",
          "type": "address"
        }
      ],
      "name": "setDAI",
      "outputs": [],
      "stateMutability": "nonpayable",
      "type": "function"
    },
    {
      "inputs": [
        {
          "internalType": "uint256",
          "name": "gdaoIndex_",
          "type": "uint256"
        },
        {
          "internalType": "address",
          "name": "gdao_",
          "type": "address"
        }
      ],
      "name": "setGDAO",
      "outputs": [],
      "stateMutability": "nonpayable",
      "type": "function"
    },
    {
      "inputs": [
        {
          "internalType": "address",
          "name": "stakingV2_",
          "type": "address"
        }
      ],
      "name": "setStakingV2",
      "outputs": [],
      "stateMutability": "nonpayable",
      "type": "function"
    },
    {
      "inputs": [],
      "name": "stakingV2",
      "outputs": [
        {
          "internalType": "contract IStaking",
          "name": "",
          "type": "address"
        }
      ],
      "stateMutability": "view",
      "type": "function"
    },
    {
      "stateMutability": "payable",
      "type": "receive"
    }
  ],
  "bytecode": {
    "object": "0x60c0604052600c60809081526b15539055551213d49256915160a21b60a0526000906200002d908262000263565b503480156200003b57600080fd5b506040516200180a3803806200180a8339810160408190526200005e916200034c565b600180546001600160a01b0319166001600160a01b0383169081179091556040518291907f2f658b440c35314f52658ea8a740e05b284cdc84dc9ae01e891f21b8933e7cad90600090a250600280546001600160a01b038087166001600160a01b031992831617909255600380546001818101835560008390527fc2575a0e9e593c00f959f8c92f12db2869c3395a3b0502d05e2516446f71f85b9091018054888616908516179055600480549487169490931693909317909155805490919081106200012f576200012f620003a9565b60009182526020909120015460405163095ea7b360e01b81526001600160a01b03848116600483015260001960248301529091169063095ea7b3906044016020604051808303816000875af11580156200018d573d6000803e3d6000fd5b505050506040513d601f19601f82011682018060405250810190620001b39190620003bf565b5050505050620003ea565b634e487b7160e01b600052604160045260246000fd5b600181811c90821680620001e957607f821691505b6020821081036200020a57634e487b7160e01b600052602260045260246000fd5b50919050565b601f8211156200025e57600081815260208120601f850160051c81016020861015620002395750805b601f850160051c820191505b818110156200025a5782815560010162000245565b5050505b505050565b81516001600160401b038111156200027f576200027f620001be565b6200029781620002908454620001d4565b8462000210565b602080601f831160018114620002cf5760008415620002b65750858301515b600019600386901b1c1916600185901b1785556200025a565b600085815260208120601f198616915b828110156200030057888601518255948401946001909101908401620002df565b50858210156200031f5787850151600019600388901b60f8161c191681555b5050505050600190811b01905550565b80516001600160a01b03811681146200034757600080fd5b919050565b600080600080608085870312156200036357600080fd5b6200036e856200032f565b93506200037e602086016200032f565b92506200038e604086016200032f565b91506200039e606086016200032f565b905092959194509250565b634e487b7160e01b600052603260045260246000fd5b600060208284031215620003d257600080fd5b81518015158114620003e357600080fd5b9392505050565b61141080620003fa6000396000f3fe6080604052600436106100dd5760003560e01c806309ebef21146100e95780630f7849431461010b57806317a289f91461014157806372108de11461016157806373188c26146101815780637a9e5e4b146101a1578063807ccaef146101c15780638187665c146101d657806388611736146101f6578063a8aada5314610216578063adc20b1c14610236578063b62d2d0e14610271578063b97dbf5914610286578063bf7e214f146102a6578063d88f406f146102c6578063e0bab4c4146102e6578063e99e1e4914610306578063edf6220b1461032657600080fd5b366100e457005b600080fd5b3480156100f557600080fd5b50610109610104366004611194565b610346565b005b34801561011757600080fd5b5061012b610126366004611194565b6103e5565b60405161013891906111ad565b60405180910390f35b34801561014d57600080fd5b5061010961015c366004611194565b61040f565b34801561016d57600080fd5b5061010961017c3660046111d6565b610699565b34801561018d57600080fd5b5061012b61019c366004611194565b6107a0565b3480156101ad57600080fd5b506101096101bc3660046111d6565b6107b0565b3480156101cd57600080fd5b506101096108a6565b3480156101e257600080fd5b506101096101f13660046111d6565b610970565b34801561020257600080fd5b5060045461012b906001600160a01b031681565b34801561022257600080fd5b506101096102313660046111fa565b610a3e565b34801561024257600080fd5b506102636102513660046111d6565b60066020526000908152604090205481565b604051908152602001610138565b34801561027d57600080fd5b50610109610b30565b34801561029257600080fd5b506101096102a13660046111d6565b610d15565b3480156102b257600080fd5b5060015461012b906001600160a01b031681565b3480156102d257600080fd5b506101096102e1366004611194565b610de3565b3480156102f257600080fd5b5060025461012b906001600160a01b031681565b34801561031257600080fd5b5061010961032136600461122a565b610fa2565b34801561033257600080fd5b506101096103413660046111d6565b61107e565b33600090815260066020526040902054610360904261117c565b61037d57604051637820d3f960e01b815260040160405180910390fd5b670214e8348c4f00008111156103a657604051638b01e07b60e01b815260040160405180910390fd5b336000818152600660205260408082204290555183156108fc0291849190818181858888f193505050501580156103e1573d6000803e3d6000fd5b5050565b600381815481106103f557600080fd5b6000918252602090912001546001600160a01b0316905081565b33600090815260066020526040902054610429904261117c565b61044657604051637820d3f960e01b815260040160405180910390fd5b336000908152600660205260408120429055600380548390811061046c5761046c611258565b6000918252602090912001546040516370a0823160e01b81526001600160a01b0390911691506402540be4009082906370a08231906104af9030906004016111ad565b602060405180830381865afa1580156104cc573d6000803e3d6000fd5b505050506040513d601f19601f820116820180604052508101906104f0919061126e565b10156105555760405163fc8d44b760e01b81526001600160a01b0382169063fc8d44b7906105229030906004016111ad565b600060405180830381600087803b15801561053c57600080fd5b505af1158015610550573d6000803e3d6000fd5b505050505b600182111561060e576000600561056d600285611287565b8154811061057d5761057d611258565b600091825260209091200154604051631b0cd93b60e31b81526001600160a01b039091169150819063d866c9d8906105c59033906402540be4009060019081906004016112ac565b6020604051808303816000875af11580156105e4573d6000803e3d6000fd5b505050506040513d601f19601f82011682018060405250810190610608919061126e565b50505050565b816001036103e15760048054604051631b0cd93b60e31b81526001600160a01b039091169163d866c9d8916106519133916402540be400916001918291016112ac565b6020604051808303816000875af1158015610670573d6000803e3d6000fd5b505050506040513d601f19601f82011682018060405250810190610694919061126e565b505050565b600160009054906101000a90046001600160a01b03166001600160a01b0316630c340a246040518163ffffffff1660e01b8152600401602060405180830381865afa1580156106ec573d6000803e3d6000fd5b505050506040513d601f19601f8201168201806040525081019061071091906112d6565b6001600160a01b0316336001600160a01b03161460009061074d5760405162461bcd60e51b815260040161074491906112f3565b60405180910390fd5b50600380546001810182556000919091527fc2575a0e9e593c00f959f8c92f12db2869c3395a3b0502d05e2516446f71f85b0180546001600160a01b0319166001600160a01b0392909216919091179055565b600581815481106103f557600080fd5b600160009054906101000a90046001600160a01b03166001600160a01b0316630c340a246040518163ffffffff1660e01b8152600401602060405180830381865afa158015610803573d6000803e3d6000fd5b505050506040513d601f19601f8201168201806040525081019061082791906112d6565b6001600160a01b0316336001600160a01b03161460009061085b5760405162461bcd60e51b815260040161074491906112f3565b50600180546001600160a01b0319166001600160a01b0383169081179091556040517f2f658b440c35314f52658ea8a740e05b284cdc84dc9ae01e891f21b8933e7cad90600090a250565b336000908152600660205260409020546108c0904261117c565b6108dd57604051637820d3f960e01b815260040160405180910390fd5b3360008181526006602052604090819020429055600254905163a9059cbb60e01b81526001600160a01b039091169163a9059cbb9161092a919068056bc75e2d631000009060040161139f565b6020604051808303816000875af1158015610949573d6000803e3d6000fd5b505050506040513d601f19601f8201168201806040525081019061096d91906113b8565b50565b600160009054906101000a90046001600160a01b03166001600160a01b0316630c340a246040518163ffffffff1660e01b8152600401602060405180830381865afa1580156109c3573d6000803e3d6000fd5b505050506040513d601f19601f820116820180604052508101906109e791906112d6565b6001600160a01b0316336001600160a01b031614600090610a1b5760405162461bcd60e51b815260040161074491906112f3565b50600480546001600160a01b0319166001600160a01b0392909216919091179055565b600160009054906101000a90046001600160a01b03166001600160a01b0316630c340a246040518163ffffffff1660e01b8152600401602060405180830381865afa158015610a91573d6000803e3d6000fd5b505050506040513d601f19601f82011682018060405250810190610ab591906112d6565b6001600160a01b0316336001600160a01b031614600090610ae95760405162461bcd60e51b815260040161074491906112f3565b508060038381548110610afe57610afe611258565b9060005260206000200160006101000a8154816001600160a01b0302191690836001600160a01b031602179055505050565b33600090815260066020526040902054610b4a904261117c565b610b6757604051637820d3f960e01b815260040160405180910390fd5b336000908152600660205260409020429055600380546402540be40091906001908110610b9657610b96611258565b6000918252602090912001546040516370a0823160e01b81526001600160a01b03909116906370a0823190610bcf9030906004016111ad565b602060405180830381865afa158015610bec573d6000803e3d6000fd5b505050506040513d601f19601f82011682018060405250810190610c10919061126e565b1015610c96576003600181548110610c2a57610c2a611258565b60009182526020909120015460405163fc8d44b760e01b81526001600160a01b039091169063fc8d44b790610c639030906004016111ad565b600060405180830381600087803b158015610c7d57600080fd5b505af1158015610c91573d6000803e3d6000fd5b505050505b60048054604051631b0cd93b60e31b81526001600160a01b039091169163d866c9d891610cd29133916402540be40091600091600191016112ac565b6020604051808303816000875af1158015610cf1573d6000803e3d6000fd5b505050506040513d601f19601f8201168201806040525081019061096d919061126e565b600160009054906101000a90046001600160a01b03166001600160a01b0316630c340a246040518163ffffffff1660e01b8152600401602060405180830381865afa158015610d68573d6000803e3d6000fd5b505050506040513d601f19601f82011682018060405250810190610d8c91906112d6565b6001600160a01b0316336001600160a01b031614600090610dc05760405162461bcd60e51b815260040161074491906112f3565b50600280546001600160a01b0319166001600160a01b0392909216919091179055565b33600090815260066020526040902054610dfd904261117c565b610e1a57604051637820d3f960e01b815260040160405180910390fd5b3360009081526006602052604081204290556003805483908110610e4057610e40611258565b6000918252602090912001546040516370a0823160e01b81526001600160a01b0390911691506402540be4009082906370a0823190610e839030906004016111ad565b602060405180830381865afa158015610ea0573d6000803e3d6000fd5b505050506040513d601f19601f82011682018060405250810190610ec4919061126e565b1015610f2c5760405163fc8d44b760e01b81526001600160a01b0382169063fc8d44b790610ef69033906004016111ad565b600060405180830381600087803b158015610f1057600080fd5b505af1158015610f24573d6000803e3d6000fd5b505050505050565b60405163a9059cbb60e01b81526001600160a01b0382169063a9059cbb90610f5f9033906402540be4009060040161139f565b6020604051808303816000875af1158015610f7e573d6000803e3d6000fd5b505050506040513d601f19601f8201168201806040525081019061069491906113b8565b600160009054906101000a90046001600160a01b03166001600160a01b0316630c340a246040518163ffffffff1660e01b8152600401602060405180830381865afa158015610ff5573d6000803e3d6000fd5b505050506040513d601f19601f8201168201806040525081019061101991906112d6565b6001600160a01b0316336001600160a01b03161460009061104d5760405162461bcd60e51b815260040161074491906112f3565b5060405163095ea7b360e01b81526001600160a01b0383169063095ea7b390610f5f9084906000199060040161139f565b600160009054906101000a90046001600160a01b03166001600160a01b0316630c340a246040518163ffffffff1660e01b8152600401602060405180830381865afa1580156110d1573d6000803e3d6000fd5b505050506040513d601f19601f820116820180604052508101906110f591906112d6565b6001600160a01b0316336001600160a01b0316146000906111295760405162461bcd60e51b815260040161074491906112f3565b50600580546001810182556000919091527f036b6384b5eca791c62761152d0c79bb0604c104a5fb6f4eb0703f3154bb3db00180546001600160a01b0319166001600160a01b0392909216919091179055565b60006201518061118c8484611287565b119392505050565b6000602082840312156111a657600080fd5b5035919050565b6001600160a01b0391909116815260200190565b6001600160a01b038116811461096d57600080fd5b6000602082840312156111e857600080fd5b81356111f3816111c1565b9392505050565b6000806040838503121561120d57600080fd5b82359150602083013561121f816111c1565b809150509250929050565b6000806040838503121561123d57600080fd5b8235611248816111c1565b9150602083013561121f816111c1565b634e487b7160e01b600052603260045260246000fd5b60006020828403121561128057600080fd5b5051919050565b6000828210156112a757634e487b7160e01b600052601160045260246000fd5b500390565b6001600160a01b039490941684526020840192909252151560408301521515606082015260800190565b6000602082840312156112e857600080fd5b81516111f3816111c1565b600060208083526000845481600182811c91508083168061131557607f831692505b858310810361133257634e487b7160e01b85526022600452602485fd5b87860183815260200181801561134f576001811461136557611390565b60ff198616825284151560051b82019650611390565b60008b81526020902060005b8681101561138a57815484820152908501908901611371565b83019750505b50949998505050505050505050565b6001600160a01b03929092168252602082015260400190565b6000602082840312156113ca57600080fd5b815180151581146111f357600080fdfea2646970667358221220cb2345535637f724293cffee6bb7b1483560a4c38cf743e2a002e6c5d799e90364736f6c634300080f0033",
    "linkReferences": {}
  },
  "methodIdentifiers": {
    "DAI()": "e0bab4c4",
    "addGDAO(address)": "72108de1",
    "addStaking(address)": "edf6220b",
    "approveStaking(address,address)": "e99e1e49",
    "authority()": "bf7e214f",
    "futureStaking(uint256)": "73188c26",
    "lastMint(address)": "adc20b1c",
    "mintDAI()": "807ccaef",
    "mintETH(uint256)": "09ebef21",
    "mintGDAO(uint256)": "d88f406f",
    "mintGGDAO()": "b62d2d0e",
    "mintSGDAO(uint256)": "17a289f9",
    "mintable(uint256)": "0f784943",
    "setAuthority(address)": "7a9e5e4b",
    "setDAI(address)": "b97dbf59",
    "setGDAO(uint256,address)": "a8aada53",
    "setStakingV2(address)": "8187665c",
    "stakingV2()": "88611736"
  },
  "id": 62
}