{
  "abi": [
    {
      "inputs": [
        {
          "internalType": "contract Kernel",
          "name": "_kernel",
          "type": "address"
        }
      ],
      "stateMutability": "nonpayable",
      "type": "constructor"
    },
    {
      "inputs": [
        {
          "internalType": "address",
          "name": "caller_",
          "type": "address"
        }
      ],
      "name": "KernelAdapter_OnlyKernel",
      "type": "error"
    },
    {
      "inputs": [],
      "name": "OnlyAdmin",
      "type": "error"
    },
    {
      "inputs": [],
      "name": "OnlyNewAdmin",
      "type": "error"
    },
    {
      "inputs": [
        {
          "internalType": "Keycode",
          "name": "keycode_",
          "type": "bytes5"
        }
      ],
      "name": "Policy_ModuleDoesNotExist",
      "type": "error"
    },
    {
      "anonymous": false,
      "inputs": [
        {
          "indexed": true,
          "internalType": "address",
          "name": "newAdmin_",
          "type": "address"
        }
      ],
      "name": "NewAdminPulled",
      "type": "event"
    },
    {
      "anonymous": false,
      "inputs": [
        {
          "indexed": true,
          "internalType": "address",
          "name": "newAdmin_",
          "type": "address"
        }
      ],
      "name": "NewAdminPushed",
      "type": "event"
    },
    {
      "inputs": [],
      "name": "ROLES",
      "outputs": [
        {
          "internalType": "contract ROLESv1",
          "name": "",
          "type": "address"
        }
      ],
      "stateMutability": "view",
      "type": "function"
    },
    {
      "inputs": [],
      "name": "admin",
      "outputs": [
        {
          "internalType": "address",
          "name": "",
          "type": "address"
        }
      ],
      "stateMutability": "view",
      "type": "function"
    },
    {
      "inputs": [
        {
          "internalType": "contract Kernel",
          "name": "newKernel_",
          "type": "address"
        }
      ],
      "name": "changeKernel",
      "outputs": [],
      "stateMutability": "nonpayable",
      "type": "function"
    },
    {
      "inputs": [],
      "name": "configureDependencies",
      "outputs": [
        {
          "internalType": "Keycode[]",
          "name": "dependencies",
          "type": "bytes5[]"
        }
      ],
      "stateMutability": "nonpayable",
      "type": "function"
    },
    {
      "inputs": [
        {
          "internalType": "bytes32",
          "name": "role_",
          "type": "bytes32"
        },
        {
          "internalType": "address",
          "name": "wallet_",
          "type": "address"
        }
      ],
      "name": "grantRole",
      "outputs": [],
      "stateMutability": "nonpayable",
      "type": "function"
    },
    {
      "inputs": [],
      "name": "isActive",
      "outputs": [
        {
          "internalType": "bool",
          "name": "",
          "type": "bool"
        }
      ],
      "stateMutability": "view",
      "type": "function"
    },
    {
      "inputs": [],
      "name": "kernel",
      "outputs": [
        {
          "internalType": "contract Kernel",
          "name": "",
          "type": "address"
        }
      ],
      "stateMutability": "view",
      "type": "function"
    },
    {
      "inputs": [],
      "name": "newAdmin",
      "outputs": [
        {
          "internalType": "address",
          "name": "",
          "type": "address"
        }
      ],
      "stateMutability": "view",
      "type": "function"
    },
    {
      "inputs": [],
      "name": "pullNewAdmin",
      "outputs": [],
      "stateMutability": "nonpayable",
      "type": "function"
    },
    {
      "inputs": [
        {
          "internalType": "address",
          "name": "newAdmin_",
          "type": "address"
        }
      ],
      "name": "pushNewAdmin",
      "outputs": [],
      "stateMutability": "nonpayable",
      "type": "function"
    },
    {
      "inputs": [],
      "name": "requestPermissions",
      "outputs": [
        {
          "components": [
            {
              "internalType": "Keycode",
              "name": "keycode",
              "type": "bytes5"
            },
            {
              "internalType": "bytes4",
              "name": "funcSelector",
              "type": "bytes4"
            }
          ],
          "internalType": "struct Permissions[]",
          "name": "requests",
          "type": "tuple[]"
        }
      ],
      "stateMutability": "view",
      "type": "function"
    },
    {
      "inputs": [
        {
          "internalType": "bytes32",
          "name": "role_",
          "type": "bytes32"
        },
        {
          "internalType": "address",
          "name": "wallet_",
          "type": "address"
        }
      ],
      "name": "revokeRole",
      "outputs": [],
      "stateMutability": "nonpayable",
      "type": "function"
    }
  ],
  "bytecode": {
    "object": "0x608060405234801561001057600080fd5b506040516108fe3803806108fe83398101604081905261002f9161005d565b600080546001600160a01b039092166001600160a01b0319928316179055600180549091163317905561008d565b60006020828403121561006f57600080fd5b81516001600160a01b038116811461008657600080fd5b9392505050565b6108628061009c6000396000f3fe608060405234801561001057600080fd5b50600436106100a45760003560e01c806303346696146100a957806322f3e2d4146100be5780632f2ff15d146100db5780633ea26384146100ee5780634657b36c1461010e5780635924be701461012157806372b0bb4914610136578063923cb9521461013e5780639459b87514610151578063d4aae0c414610166578063d547741f14610179578063f851a4401461018c575b600080fd5b6100bc6100b7366004610692565b61019f565b005b6100c6610214565b60405190151581526020015b60405180910390f35b6100bc6100e93660046106b6565b61028b565b600254610101906001600160a01b031681565b6040516100d291906106e6565b6100bc61011c366004610692565b61031e565b610129610376565b6040516100d291906106fa565b6100bc610455565b600354610101906001600160a01b031681565b6101596104d4565b6040516100d2919061075d565b600054610101906001600160a01b031681565b6100bc6101873660046106b6565b61057a565b600154610101906001600160a01b031681565b6001546001600160a01b031633146101ca57604051634755657960e01b815260040160405180910390fd5b600280546001600160a01b0319166001600160a01b0383169081179091556040517fa2c5878324891aaeaaa631341c00e3c30a2b70c1b6a1e9411b903402d40df5c990600090a250565b6000805460405163e52223bb60e01b81526001600160a01b039091169063e52223bb906102459030906004016106e6565b602060405180830381865afa158015610262573d6000803e3d6000fd5b505050506040513d601f19601f8201168201806040525081019061028691906107ab565b905090565b6001546001600160a01b031633146102b657604051634755657960e01b815260040160405180910390fd5b60035460405163656361ff60e01b81526001600160a01b039091169063656361ff906102e890859085906004016107cd565b600060405180830381600087803b15801561030257600080fd5b505af1158015610316573d6000803e3d6000fd5b505050505050565b6000546001600160a01b03163314610354573360405163053e900f60e21b815260040161034b91906106e6565b60405180910390fd5b600080546001600160a01b0319166001600160a01b0392909216919091179055565b604080516002808252606082810190935264524f4c455360d81b9190602082015b6040805180820190915260008082526020820152815260200190600190039081610397575050604080518082019091526001600160d81b03198316815263656361ff60e01b602082015281519193509083906000906103f8576103f86107e4565b60200260200101819052506040518060400160405280826001600160d81b031916815260200163f6ba000760e01b6001600160e01b03191681525082600181518110610446576104466107e4565b60200260200101819052505090565b6002546001600160a01b031633146104805760405163c5c898b360e01b815260040160405180910390fd5b60028054600180546001600160a01b0383166001600160a01b031991821681179092559091169091556040517fecf24556cb4f08854c12350ad47cc1bf4bfe9ada0935ffb3d3de5f2f3f5a0ad690600090a2565b6040805160018082528183019092526060916020808301908036833701905050905064524f4c455360d81b81600081518110610512576105126107e4565b60200260200101906001600160d81b03191690816001600160d81b031916815250506105578160008151811061054a5761054a6107e4565b60200260200101516105d7565b600380546001600160a01b0319166001600160a01b039290921691909117905590565b6001546001600160a01b031633146105a557604051634755657960e01b815260040160405180910390fd5b60035460405163f6ba000760e01b81526001600160a01b039091169063f6ba0007906102e890859085906004016107cd565b60008054604051632d37002d60e21b815282916001600160a01b03169063b4dc00b4906106089086906004016107fa565b602060405180830381865afa158015610625573d6000803e3d6000fd5b505050506040513d601f19601f82011682018060405250810190610649919061080f565b90506001600160a01b0381166106745782604051635c3fa9cd60e01b815260040161034b91906107fa565b92915050565b6001600160a01b038116811461068f57600080fd5b50565b6000602082840312156106a457600080fd5b81356106af8161067a565b9392505050565b600080604083850312156106c957600080fd5b8235915060208301356106db8161067a565b809150509250929050565b6001600160a01b0391909116815260200190565b602080825282518282018190526000919060409081850190868401855b8281101561075057815180516001600160d81b03191685528601516001600160e01b031916868501529284019290850190600101610717565b5091979650505050505050565b6020808252825182820181905260009190848201906040850190845b8181101561079f5783516001600160d81b03191683529284019291840191600101610779565b50909695505050505050565b6000602082840312156107bd57600080fd5b815180151581146106af57600080fd5b9182526001600160a01b0316602082015260400190565b634e487b7160e01b600052603260045260246000fd5b6001600160d81b031991909116815260200190565b60006020828403121561082157600080fd5b81516106af8161067a56fea26469706673582212203c59ca7d20ebe744c229475adfe6b14453b7aa3f9b500066e764d6448993714f64736f6c634300080f0033",
    "linkReferences": {}
  },
  "methodIdentifiers": {
    "ROLES()": "923cb952",
    "admin()": "f851a440",
    "changeKernel(address)": "4657b36c",
    "configureDependencies()": "9459b875",
    "grantRole(bytes32,address)": "2f2ff15d",
    "isActive()": "22f3e2d4",
    "kernel()": "d4aae0c4",
    "newAdmin()": "3ea26384",
    "pullNewAdmin()": "72b0bb49",
    "pushNewAdmin(address)": "03346696",
    "requestPermissions()": "5924be70",
    "revokeRole(bytes32,address)": "d547741f"
  },
  "id": 92
}