{
  "abi": [
    {
      "inputs": [
        {
          "internalType": "contract Kernel",
          "name": "kernel_",
          "type": "address"
        },
        {
          "internalType": "contract IBondAggregator",
          "name": "aggregator_",
          "type": "address"
        },
        {
          "internalType": "contract ERC20",
          "name": "gdao_",
          "type": "address"
        }
      ],
      "stateMutability": "nonpayable",
      "type": "constructor"
    },
    {
      "inputs": [],
      "name": "Callback_InvalidParams",
      "type": "error"
    },
    {
      "inputs": [
        {
          "internalType": "uint256",
          "name": "id",
          "type": "uint256"
        }
      ],
      "name": "Callback_MarketNotSupported",
      "type": "error"
    },
    {
      "inputs": [],
      "name": "Callback_TokensNotReceived",
      "type": "error"
    },
    {
      "inputs": [
        {
          "internalType": "address",
          "name": "caller_",
          "type": "address"
        }
      ],
      "name": "KernelAdapter_OnlyKernel",
      "type": "error"
    },
    {
      "inputs": [
        {
          "internalType": "Keycode",
          "name": "keycode_",
          "type": "bytes5"
        }
      ],
      "name": "Policy_ModuleDoesNotExist",
      "type": "error"
    },
    {
      "inputs": [],
      "name": "MINTR",
      "outputs": [
        {
          "internalType": "contract MINTRv1",
          "name": "",
          "type": "address"
        }
      ],
      "stateMutability": "view",
      "type": "function"
    },
    {
      "inputs": [],
      "name": "ROLES",
      "outputs": [
        {
          "internalType": "contract ROLESv1",
          "name": "",
          "type": "address"
        }
      ],
      "stateMutability": "view",
      "type": "function"
    },
    {
      "inputs": [],
      "name": "TRSRY",
      "outputs": [
        {
          "internalType": "contract TRSRYv1",
          "name": "",
          "type": "address"
        }
      ],
      "stateMutability": "view",
      "type": "function"
    },
    {
      "inputs": [],
      "name": "aggregator",
      "outputs": [
        {
          "internalType": "contract IBondAggregator",
          "name": "",
          "type": "address"
        }
      ],
      "stateMutability": "view",
      "type": "function"
    },
    {
      "inputs": [
        {
          "internalType": "uint256",
          "name": "id_",
          "type": "uint256"
        }
      ],
      "name": "amountsForMarket",
      "outputs": [
        {
          "internalType": "uint256",
          "name": "in_",
          "type": "uint256"
        },
        {
          "internalType": "uint256",
          "name": "out_",
          "type": "uint256"
        }
      ],
      "stateMutability": "view",
      "type": "function"
    },
    {
      "inputs": [
        {
          "internalType": "address",
          "name": "",
          "type": "address"
        },
        {
          "internalType": "uint256",
          "name": "",
          "type": "uint256"
        }
      ],
      "name": "approvedMarkets",
      "outputs": [
        {
          "internalType": "bool",
          "name": "",
          "type": "bool"
        }
      ],
      "stateMutability": "view",
      "type": "function"
    },
    {
      "inputs": [
        {
          "internalType": "contract ERC20[]",
          "name": "tokens_",
          "type": "address[]"
        }
      ],
      "name": "batchToTreasury",
      "outputs": [],
      "stateMutability": "nonpayable",
      "type": "function"
    },
    {
      "inputs": [
        {
          "internalType": "address",
          "name": "teller_",
          "type": "address"
        },
        {
          "internalType": "uint256",
          "name": "id_",
          "type": "uint256"
        }
      ],
      "name": "blacklist",
      "outputs": [],
      "stateMutability": "nonpayable",
      "type": "function"
    },
    {
      "inputs": [
        {
          "internalType": "uint256",
          "name": "id_",
          "type": "uint256"
        },
        {
          "internalType": "uint256",
          "name": "inputAmount_",
          "type": "uint256"
        },
        {
          "internalType": "uint256",
          "name": "outputAmount_",
          "type": "uint256"
        }
      ],
      "name": "callback",
      "outputs": [],
      "stateMutability": "nonpayable",
      "type": "function"
    },
    {
      "inputs": [
        {
          "internalType": "contract Kernel",
          "name": "newKernel_",
          "type": "address"
        }
      ],
      "name": "changeKernel",
      "outputs": [],
      "stateMutability": "nonpayable",
      "type": "function"
    },
    {
      "inputs": [],
      "name": "configureDependencies",
      "outputs": [
        {
          "internalType": "Keycode[]",
          "name": "dependencies",
          "type": "bytes5[]"
        }
      ],
      "stateMutability": "nonpayable",
      "type": "function"
    },
    {
      "inputs": [],
      "name": "gdao",
      "outputs": [
        {
          "internalType": "contract ERC20",
          "name": "",
          "type": "address"
        }
      ],
      "stateMutability": "view",
      "type": "function"
    },
    {
      "inputs": [],
      "name": "isActive",
      "outputs": [
        {
          "internalType": "bool",
          "name": "",
          "type": "bool"
        }
      ],
      "stateMutability": "view",
      "type": "function"
    },
    {
      "inputs": [],
      "name": "kernel",
      "outputs": [
        {
          "internalType": "contract Kernel",
          "name": "",
          "type": "address"
        }
      ],
      "stateMutability": "view",
      "type": "function"
    },
    {
      "inputs": [],
      "name": "operator",
      "outputs": [
        {
          "internalType": "contract Operator",
          "name": "",
          "type": "address"
        }
      ],
      "stateMutability": "view",
      "type": "function"
    },
    {
      "inputs": [
        {
          "internalType": "contract ERC20",
          "name": "",
          "type": "address"
        }
      ],
      "name": "priorBalances",
      "outputs": [
        {
          "internalType": "uint256",
          "name": "",
          "type": "uint256"
        }
      ],
      "stateMutability": "view",
      "type": "function"
    },
    {
      "inputs": [],
      "name": "requestPermissions",
      "outputs": [
        {
          "components": [
            {
              "internalType": "Keycode",
              "name": "keycode",
              "type": "bytes5"
            },
            {
              "internalType": "bytes4",
              "name": "funcSelector",
              "type": "bytes4"
            }
          ],
          "internalType": "struct Permissions[]",
          "name": "requests",
          "type": "tuple[]"
        }
      ],
      "stateMutability": "view",
      "type": "function"
    },
    {
      "inputs": [
        {
          "internalType": "contract Operator",
          "name": "operator_",
          "type": "address"
        }
      ],
      "name": "setOperator",
      "outputs": [],
      "stateMutability": "nonpayable",
      "type": "function"
    },
    {
      "inputs": [
        {
          "internalType": "address",
          "name": "teller_",
          "type": "address"
        },
        {
          "internalType": "uint256",
          "name": "id_",
          "type": "uint256"
        }
      ],
      "name": "whitelist",
      "outputs": [],
      "stateMutability": "nonpayable",
      "type": "function"
    }
  ],
  "bytecode": {
    "object": "0x6080604052600180553480156200001557600080fd5b5060405162002a3538038062002a35833981016040819052620000389162000094565b600080546001600160a01b039485166001600160a01b0319918216179091556009805493851693821693909317909255600a8054919093169116179055620000e8565b6001600160a01b03811681146200009157600080fd5b50565b600080600060608486031215620000aa57600080fd5b8351620000b7816200007b565b6020850151909350620000ca816200007b565b6040850151909250620000dd816200007b565b809150509250925092565b61293d80620000f86000396000f3fe608060405234801561001057600080fd5b50600436106101515760003560e01c8063650d6ed6116100cd5780639459b87511610081578063a29a0d9011610066578063a29a0d9014610347578063b3ab15fb14610367578063d4aae0c41461037a57600080fd5b80639459b8751461031f57806398fc55d81461033457600080fd5b8063853dc0da116100b2578063853dc0da146102a95780638aeb40fd146102d7578063923cb952146102ff57600080fd5b8063650d6ed61461025b57806380cee4ab1461028957600080fd5b80634657b36c11610124578063570ca73511610109578063570ca73514610206578063577de7d0146102265780635924be701461024657600080fd5b80634657b36c146101e05780634b9de77c146101f357600080fd5b806309c2c843146101565780631074bce51461016b57806322f3e2d41461017e578063245a7bfc1461019b575b600080fd5b610169610164366004612413565b61039a565b005b6101696101793660046124f6565b6105f1565b6101866107eb565b60405190151581526020015b60405180910390f35b6009546101bb9073ffffffffffffffffffffffffffffffffffffffff1681565b60405173ffffffffffffffffffffffffffffffffffffffff9091168152602001610192565b6101696101ee366004612522565b610883565b61016961020136600461253f565b610922565b6008546101bb9073ffffffffffffffffffffffffffffffffffffffff1681565b6007546101bb9073ffffffffffffffffffffffffffffffffffffffff1681565b61024e611173565b604051610192919061256b565b61027b610269366004612522565b60056020526000908152604090205481565b604051908152602001610192565b6006546101bb9073ffffffffffffffffffffffffffffffffffffffff1681565b6101866102b73660046124f6565b600360209081526000928352604080842090915290825290205460ff1681565b6102ea6102e53660046125fe565b611533565b60408051928352602083019190915201610192565b6002546101bb9073ffffffffffffffffffffffffffffffffffffffff1681565b61032761159a565b6040516101929190612617565b6101696103423660046124f6565b611858565b600a546101bb9073ffffffffffffffffffffffffffffffffffffffff1681565b610169610375366004612522565b611d96565b6000546101bb9073ffffffffffffffffffffffffffffffffffffffff1681565b6002546040517fd09a20c50000000000000000000000000000000000000000000000000000000081527f63616c6c6261636b5f61646d696e000000000000000000000000000000000000600482018190523360248301529173ffffffffffffffffffffffffffffffffffffffff169063d09a20c590604401600060405180830381600087803b15801561042c57600080fd5b505af1158015610440573d6000803e3d6000fd5b5050835160009250829150815b818110156105e9578581815181106104675761046761267d565b60209081029190910101516040517f70a0823100000000000000000000000000000000000000000000000000000000815230600482015290945073ffffffffffffffffffffffffffffffffffffffff8516906370a0823190602401602060405180830381865afa1580156104df573d6000803e3d6000fd5b505050506040513d601f19601f8201168201806040525081019061050391906126ac565b60065490935061052d9073ffffffffffffffffffffffffffffffffffffffff868116911685611ed6565b6040517f70a0823100000000000000000000000000000000000000000000000000000000815230600482015273ffffffffffffffffffffffffffffffffffffffff8516906370a0823190602401602060405180830381865afa158015610597573d6000803e3d6000fd5b505050506040513d601f19601f820116820180604052508101906105bb91906126ac565b73ffffffffffffffffffffffffffffffffffffffff851660009081526005602052604090205560010161044d565b505050505050565b6002546040517fd09a20c50000000000000000000000000000000000000000000000000000000081527f63616c6c6261636b5f77686974656c6973740000000000000000000000000000600482018190523360248301529173ffffffffffffffffffffffffffffffffffffffff169063d09a20c590604401600060405180830381600087803b15801561068357600080fd5b505af1158015610697573d6000803e3d6000fd5b50506009546040517f78b5a87a0000000000000000000000000000000000000000000000000000000081526004810186905273ffffffffffffffffffffffffffffffffffffffff90911692506378b5a87a9150602401602060405180830381865afa15801561070a573d6000803e3d6000fd5b505050506040513d601f19601f8201168201806040525081019061072e91906126c5565b73ffffffffffffffffffffffffffffffffffffffff168373ffffffffffffffffffffffffffffffffffffffff1614610792576040517fc7a4111e00000000000000000000000000000000000000000000000000000000815260040160405180910390fd5b5073ffffffffffffffffffffffffffffffffffffffff90911660009081526003602090815260408083209383529290522080547fffffffffffffffffffffffffffffffffffffffffffffffffffffffffffffff00169055565b600080546040517fe52223bb00000000000000000000000000000000000000000000000000000000815230600482015273ffffffffffffffffffffffffffffffffffffffff9091169063e52223bb90602401602060405180830381865afa15801561085a573d6000803e3d6000fd5b505050506040513d601f19601f8201168201806040525081019061087e91906126f2565b905090565b60005473ffffffffffffffffffffffffffffffffffffffff1633146108db576040517f14fa403c0000000000000000000000000000000000000000000000000000000081523360048201526024015b60405180910390fd5b600080547fffffffffffffffffffffffff00000000000000000000000000000000000000001673ffffffffffffffffffffffffffffffffffffffff92909216919091179055565b60015460011461098e576040517f08c379a000000000000000000000000000000000000000000000000000000000815260206004820152600a60248201527f5245454e5452414e43590000000000000000000000000000000000000000000060448201526064016108d2565b600260015533600090815260036020908152604080832086845290915290205460ff166109ea576040517f2c60e167000000000000000000000000000000000000000000000000000000008152600481018490526024016108d2565b6009546040517f5204794200000000000000000000000000000000000000000000000000000000815260048101859052600091829173ffffffffffffffffffffffffffffffffffffffff90911690635204794290602401602060405180830381865afa158015610a5e573d6000803e3d6000fd5b505050506040513d601f19601f82011682018060405250810190610a8291906126c5565b73ffffffffffffffffffffffffffffffffffffffff1663acc5570c866040518263ffffffff1660e01b8152600401610abc91815260200190565b60c060405180830381865afa158015610ad9573d6000803e3d6000fd5b505050506040513d601f19601f82011682018060405250810190610afd919061270d565b505073ffffffffffffffffffffffffffffffffffffffff81166000908152600560205260409020549195509350610b379250869150612795565b6040517f70a0823100000000000000000000000000000000000000000000000000000000815230600482015273ffffffffffffffffffffffffffffffffffffffff8316906370a0823190602401602060405180830381865afa158015610ba1573d6000803e3d6000fd5b505050506040513d601f19601f82011682018060405250810190610bc591906126ac565b1015610bfd576040517f8136384900000000000000000000000000000000000000000000000000000000815260040160405180910390fd5b8173ffffffffffffffffffffffffffffffffffffffff168173ffffffffffffffffffffffffffffffffffffffff16148015610c525750600a5473ffffffffffffffffffffffffffffffffffffffff8281169116145b15610d71576007546040517f0152a5ea0000000000000000000000000000000000000000000000000000000081523060048201526024810186905273ffffffffffffffffffffffffffffffffffffffff90911690630152a5ea90604401600060405180830381600087803b158015610cc957600080fd5b505af1158015610cdd573d6000803e3d6000fd5b50506007546040517fbbaed5cb0000000000000000000000000000000000000000000000000000000081523360048201526024810187905273ffffffffffffffffffffffffffffffffffffffff909116925063bbaed5cb91506044015b600060405180830381600087803b158015610d5457600080fd5b505af1158015610d68573d6000803e3d6000fd5b50505050610f38565b600a5473ffffffffffffffffffffffffffffffffffffffff90811690821603610e83576006546040517f2f42aef500000000000000000000000000000000000000000000000000000000815233600482015273ffffffffffffffffffffffffffffffffffffffff84811660248301526044820186905290911690632f42aef590606401600060405180830381600087803b158015610e0e57600080fd5b505af1158015610e22573d6000803e3d6000fd5b50506007546040517f0152a5ea0000000000000000000000000000000000000000000000000000000081523060048201526024810188905273ffffffffffffffffffffffffffffffffffffffff9091169250630152a5ea9150604401610d3a565b600a5473ffffffffffffffffffffffffffffffffffffffff90811690831603610f03576007546040517fbbaed5cb0000000000000000000000000000000000000000000000000000000081523360048201526024810185905273ffffffffffffffffffffffffffffffffffffffff9091169063bbaed5cb90604401610d3a565b6040517f2c60e167000000000000000000000000000000000000000000000000000000008152600481018690526024016108d2565b6040517f70a0823100000000000000000000000000000000000000000000000000000000815230600482015273ffffffffffffffffffffffffffffffffffffffff8216906370a0823190602401602060405180830381865afa158015610fa2573d6000803e3d6000fd5b505050506040513d601f19601f82011682018060405250810190610fc691906126ac565b73ffffffffffffffffffffffffffffffffffffffff828116600090815260056020526040908190209290925590517f70a08231000000000000000000000000000000000000000000000000000000008152306004820152908316906370a0823190602401602060405180830381865afa158015611047573d6000803e3d6000fd5b505050506040513d601f19601f8201168201806040525081019061106b91906126ac565b73ffffffffffffffffffffffffffffffffffffffff83166000908152600560209081526040808320939093558782526004905290812080548692906110b1908490612795565b90915550506000858152600460205260409020839060010160008282546110d89190612795565b90915550506008546040517fab104771000000000000000000000000000000000000000000000000000000008152600481018790526024810185905273ffffffffffffffffffffffffffffffffffffffff9091169063ab10477190604401600060405180830381600087803b15801561115057600080fd5b505af1158015611164573d6000803e3d6000fd5b50506001805550505050505050565b60606000600660009054906101000a900473ffffffffffffffffffffffffffffffffffffffff1673ffffffffffffffffffffffffffffffffffffffff16631ae7ec2e6040518163ffffffff1660e01b8152600401602060405180830381865afa1580156111e4573d6000803e3d6000fd5b505050506040513d601f19601f8201168201806040525081019061120891906127d4565b90506000600760009054906101000a900473ffffffffffffffffffffffffffffffffffffffff1673ffffffffffffffffffffffffffffffffffffffff16631ae7ec2e6040518163ffffffff1660e01b8152600401602060405180830381865afa158015611279573d6000803e3d6000fd5b505050506040513d601f19601f8201168201806040525081019061129d91906127d4565b60408051600580825260c08201909252919250816020015b60408051808201909152600080825260208201528152602001906001900390816112b5575050604080518082019091527fffffffffff000000000000000000000000000000000000000000000000000000841681527fe6eb207a00000000000000000000000000000000000000000000000000000000602082015281519194509084906000906113475761134761267d565b60200260200101819052506040518060400160405280837affffffffffffffffffffffffffffffffffffffffffffffffffffff19168152602001632f42aef560e01b7bffffffffffffffffffffffffffffffffffffffffffffffffffffffff1916815250836001815181106113be576113be61267d565b60200260200101819052506040518060400160405280827affffffffffffffffffffffffffffffffffffffffffffffffffffff1916815260200163bbaed5cb60e01b7bffffffffffffffffffffffffffffffffffffffffffffffffffffffff1916815250836002815181106114355761143561267d565b60200260200101819052506040518060400160405280827affffffffffffffffffffffffffffffffffffffffffffffffffffff19168152602001630152a5ea60e01b7bffffffffffffffffffffffffffffffffffffffffffffffffffffffff1916815250836003815181106114ac576114ac61267d565b60200260200101819052506040518060400160405280827affffffffffffffffffffffffffffffffffffffffffffffffffffff1916815260200163359fe78060e01b7bffffffffffffffffffffffffffffffffffffffffffffffffffffffff1916815250836004815181106115235761152361267d565b6020026020010181905250505090565b600081815260046020526040808220815180830192839052839283929060029082845b8154815260200190600101908083116115565750505050509050806000600281106115835761158361267d565b602002015181600160200201519250925050915091565b604080516003808252608082019092526060916020820183803683370190505090507f5452535259000000000000000000000000000000000000000000000000000000816000815181106115f0576115f061267d565b7fffffffffff000000000000000000000000000000000000000000000000000000909216602092830291909101909101526116487f4d494e545200000000000000000000000000000000000000000000000000000090565b8160018151811061165b5761165b61267d565b7fffffffffff000000000000000000000000000000000000000000000000000000909216602092830291909101909101526116b37f524f4c455300000000000000000000000000000000000000000000000000000090565b816002815181106116c6576116c661267d565b60200260200101907affffffffffffffffffffffffffffffffffffffffffffffffffffff191690817affffffffffffffffffffffffffffffffffffffffffffffffffffff191681525050611733816000815181106117265761172661267d565b6020026020010151612046565b600660006101000a81548173ffffffffffffffffffffffffffffffffffffffff021916908373ffffffffffffffffffffffffffffffffffffffff160217905550611789816001815181106117265761172661267d565b600760006101000a81548173ffffffffffffffffffffffffffffffffffffffff021916908373ffffffffffffffffffffffffffffffffffffffff1602179055506117df816002815181106117265761172661267d565b600280547fffffffffffffffffffffffff00000000000000000000000000000000000000001673ffffffffffffffffffffffffffffffffffffffff928316179055600754600a546118559290811691167fffffffffffffffffffffffffffffffffffffffffffffffffffffffffffffffff612174565b90565b6002546040517fd09a20c50000000000000000000000000000000000000000000000000000000081527f63616c6c6261636b5f77686974656c6973740000000000000000000000000000600482018190523360248301529173ffffffffffffffffffffffffffffffffffffffff169063d09a20c590604401600060405180830381600087803b1580156118ea57600080fd5b505af11580156118fe573d6000803e3d6000fd5b50506009546040517f78b5a87a0000000000000000000000000000000000000000000000000000000081526004810186905273ffffffffffffffffffffffffffffffffffffffff90911692506378b5a87a9150602401602060405180830381865afa158015611971573d6000803e3d6000fd5b505050506040513d601f19601f8201168201806040525081019061199591906126c5565b73ffffffffffffffffffffffffffffffffffffffff168373ffffffffffffffffffffffffffffffffffffffff16146119f9576040517fc7a4111e00000000000000000000000000000000000000000000000000000000815260040160405180910390fd5b73ffffffffffffffffffffffffffffffffffffffff838116600090815260036020908152604080832086845290915280822080547fffffffffffffffffffffffffffffffffffffffffffffffffffffffffffffff0016600117905560095490517f520479420000000000000000000000000000000000000000000000000000000081526004810186905291928392911690635204794290602401602060405180830381865afa158015611ab0573d6000803e3d6000fd5b505050506040513d601f19601f82011682018060405250810190611ad491906126c5565b73ffffffffffffffffffffffffffffffffffffffff1684604051602401611afd91815260200190565b604080517fffffffffffffffffffffffffffffffffffffffffffffffffffffffffffffffe08184030181529181526020820180517bffffffffffffffffffffffffffffffffffffffffffffffffffffffff167fb1283e770000000000000000000000000000000000000000000000000000000017905251611b7e9190612816565b6000604051808303816000865af19150503d8060008114611bbb576040519150601f19603f3d011682016040523d82523d6000602084013e611bc0565b606091505b509150915081611bfc576040517fc7a4111e00000000000000000000000000000000000000000000000000000000815260040160405180910390fd5b600080600080600085806020019051810190611c189190612851565b9b50505050985050975097505050955050600084611c365783611c41565b611c418483856122dd565b600a5490915073ffffffffffffffffffffffffffffffffffffffff90811690871603611cf6576007546040517f359fe7800000000000000000000000000000000000000000000000000000000081523060048201526024810183905273ffffffffffffffffffffffffffffffffffffffff9091169063359fe78090604401600060405180830381600087803b158015611cd957600080fd5b505af1158015611ced573d6000803e3d6000fd5b50505050611d89565b6006546040517fe6eb207a00000000000000000000000000000000000000000000000000000000815230600482015273ffffffffffffffffffffffffffffffffffffffff8881166024830152604482018490529091169063e6eb207a90606401600060405180830381600087803b158015611d7057600080fd5b505af1158015611d84573d6000803e3d6000fd5b505050505b5050505050505050505050565b6002546040517fd09a20c50000000000000000000000000000000000000000000000000000000081527f63616c6c6261636b5f61646d696e000000000000000000000000000000000000600482018190523360248301529173ffffffffffffffffffffffffffffffffffffffff169063d09a20c590604401600060405180830381600087803b158015611e2857600080fd5b505af1158015611e3c573d6000803e3d6000fd5b50505073ffffffffffffffffffffffffffffffffffffffff83169050611e8e576040517fc7a4111e00000000000000000000000000000000000000000000000000000000815260040160405180910390fd5b50600880547fffffffffffffffffffffffff00000000000000000000000000000000000000001673ffffffffffffffffffffffffffffffffffffffff92909216919091179055565b6040805173ffffffffffffffffffffffffffffffffffffffff8481166024830152604480830185905283518084039091018152606490920183526020820180517bffffffffffffffffffffffffffffffffffffffffffffffffffffffff167fa9059cbb000000000000000000000000000000000000000000000000000000001790529151600092839290871691611f6d9190612816565b6000604051808303816000865af19150503d8060008114611faa576040519150601f19603f3d011682016040523d82523d6000602084013e611faf565b606091505b5091509150818015611fd9575080511580611fd9575080806020019051810190611fd991906126f2565b61203f576040517f08c379a000000000000000000000000000000000000000000000000000000000815260206004820152600f60248201527f5452414e534645525f4641494c4544000000000000000000000000000000000060448201526064016108d2565b5050505050565b600080546040517fb4dc00b40000000000000000000000000000000000000000000000000000000081527fffffffffff00000000000000000000000000000000000000000000000000000084166004820152829173ffffffffffffffffffffffffffffffffffffffff169063b4dc00b490602401602060405180830381865afa1580156120d7573d6000803e3d6000fd5b505050506040513d601f19601f820116820180604052508101906120fb91906126c5565b905073ffffffffffffffffffffffffffffffffffffffff811661216e576040517f5c3fa9cd0000000000000000000000000000000000000000000000000000000081527fffffffffff000000000000000000000000000000000000000000000000000000841660048201526024016108d2565b92915050565b6040805173ffffffffffffffffffffffffffffffffffffffff8481166024830152604480830185905283518084039091018152606490920183526020820180517bffffffffffffffffffffffffffffffffffffffffffffffffffffffff167f095ea7b300000000000000000000000000000000000000000000000000000000179052915160009283929087169161220b9190612816565b6000604051808303816000865af19150503d8060008114612248576040519150601f19603f3d011682016040523d82523d6000602084013e61224d565b606091505b509150915081801561227757508051158061227757508080602001905181019061227791906126f2565b61203f576040517f08c379a000000000000000000000000000000000000000000000000000000000815260206004820152600e60248201527f415050524f56455f4641494c454400000000000000000000000000000000000060448201526064016108d2565b600080807fffffffffffffffffffffffffffffffffffffffffffffffffffffffffffffffff85870985870292508281108382030391505080600003612334576000841161232957600080fd5b5082900490506123a8565b80841161234057600080fd5b600084868809851960019081018716968790049682860381900495909211909303600082900391909104909201919091029190911760038402600290811880860282030280860282030280860282030280860282030280860282030280860290910302029150505b9392505050565b7f4e487b7100000000000000000000000000000000000000000000000000000000600052604160045260246000fd5b73ffffffffffffffffffffffffffffffffffffffff8116811461240057600080fd5b50565b803561240e816123de565b919050565b6000602080838503121561242657600080fd5b823567ffffffffffffffff8082111561243e57600080fd5b818501915085601f83011261245257600080fd5b813581811115612464576124646123af565b8060051b6040517fffffffffffffffffffffffffffffffffffffffffffffffffffffffffffffffe0603f830116810181811085821117156124a7576124a76123af565b6040529182528482019250838101850191888311156124c557600080fd5b938501935b828510156124ea576124db85612403565b845293850193928501926124ca565b98975050505050505050565b6000806040838503121561250957600080fd5b8235612514816123de565b946020939093013593505050565b60006020828403121561253457600080fd5b81356123a8816123de565b60008060006060848603121561255457600080fd5b505081359360208301359350604090920135919050565b602080825282518282018190526000919060409081850190868401855b828110156125f157815180517fffffffffff0000000000000000000000000000000000000000000000000000001685528601517fffffffff0000000000000000000000000000000000000000000000000000000016868501529284019290850190600101612588565b5091979650505050505050565b60006020828403121561261057600080fd5b5035919050565b6020808252825182820181905260009190848201906040850190845b818110156126715783517fffffffffff0000000000000000000000000000000000000000000000000000001683529284019291840191600101612633565b50909695505050505050565b7f4e487b7100000000000000000000000000000000000000000000000000000000600052603260045260246000fd5b6000602082840312156126be57600080fd5b5051919050565b6000602082840312156126d757600080fd5b81516123a8816123de565b8051801515811461240e57600080fd5b60006020828403121561270457600080fd5b6123a8826126e2565b60008060008060008060c0878903121561272657600080fd5b8651612731816123de565b6020880151909650612742816123de565b6040880151909550612753816123de565b6060880151909450612764816123de565b608088015190935065ffffffffffff8116811461278057600080fd5b8092505060a087015190509295509295509295565b600082198211156127cf577f4e487b7100000000000000000000000000000000000000000000000000000000600052601160045260246000fd5b500190565b6000602082840312156127e657600080fd5b81517fffffffffff000000000000000000000000000000000000000000000000000000811681146123a857600080fd5b6000825160005b81811015612837576020818601810151858301520161281d565b81811115612846576000828501525b509190910192915050565b6000806000806000806000806000806000806101808d8f03121561287457600080fd5b8c5161287f816123de565b60208e0151909c50612890816123de565b60408e0151909b506128a1816123de565b60608e0151909a506128b2816123de565b98506128c060808e016126e2565b975060a08d0151965060c08d0151955060e08d015194506101008d015193506101208d015192506101408d015191506101608d015190509295989b509295989b509295989b56fea2646970667358221220abd5ddd2b793c4b2be821bd9e5c56fd66bac29d2c6d2f5491e8265e57ee9316d64736f6c634300080f0033",
    "linkReferences": {}
  },
  "methodIdentifiers": {
    "MINTR()": "577de7d0",
    "ROLES()": "923cb952",
    "TRSRY()": "80cee4ab",
    "aggregator()": "245a7bfc",
    "amountsForMarket(uint256)": "8aeb40fd",
    "approvedMarkets(address,uint256)": "853dc0da",
    "batchToTreasury(address[])": "09c2c843",
    "blacklist(address,uint256)": "1074bce5",
    "callback(uint256,uint256,uint256)": "4b9de77c",
    "changeKernel(address)": "4657b36c",
    "configureDependencies()": "9459b875",
    "gdao()": "a29a0d90",
    "isActive()": "22f3e2d4",
    "kernel()": "d4aae0c4",
    "operator()": "570ca735",
    "priorBalances(address)": "650d6ed6",
    "requestPermissions()": "5924be70",
    "setOperator(address)": "b3ab15fb",
    "whitelist(address,uint256)": "98fc55d8"
  },
  "id": 106
}