{
  "abi": [
    {
      "inputs": [
        {
          "internalType": "uint256",
          "name": "userNum",
          "type": "uint256"
        }
      ],
      "name": "create",
      "outputs": [
        {
          "internalType": "address[]",
          "name": "",
          "type": "address[]"
        }
      ],
      "stateMutability": "nonpayable",
      "type": "function"
    },
    {
      "inputs": [],
      "name": "next",
      "outputs": [
        {
          "internalType": "address payable",
          "name": "",
          "type": "address"
        }
      ],
      "stateMutability": "nonpayable",
      "type": "function"
    }
  ],
  "bytecode": {
    "object": "0x737109709ecfa91a80626ff3989d68f67f5b1dd12d60805264757365727360d81b60c052600560a05260c56040527f39b41f4ff9d03853a3e5e26ffad8712de4330b640064cfa05d0a29978dea11c660005534801561005d57600080fd5b50608051610391610079600039600061017b01526103916000f3fe608060405234801561001057600080fd5b50600436106100365760003560e01c80634c8fe5261461003b578063780900dc1461008a575b600080fd5b6000805460408051602080820184905282518083038201815282840193849052805191012090935573ffffffffffffffffffffffffffffffffffffffff90911690526060015b60405180910390f35b61009d61009836600461022b565b6100aa565b6040516100819190610244565b606060008267ffffffffffffffff8111156100c7576100c761029e565b6040519080825280602002602001820160405280156100f0578160200160208202803683370190505b50905060005b838110156102245760008054604080516020808201849052825180830382018152918301909252805191012082556040517fc88a5e6d00000000000000000000000000000000000000000000000000000000815273ffffffffffffffffffffffffffffffffffffffff808316600483015268056bc75e2d6310000060248301529192507f00000000000000000000000000000000000000000000000000000000000000009091169063c88a5e6d90604401600060405180830381600087803b1580156101c157600080fd5b505af11580156101d5573d6000803e3d6000fd5b50505050808383815181106101ec576101ec6102cd565b73ffffffffffffffffffffffffffffffffffffffff90921660209283029190910190910152508061021c816102fc565b9150506100f6565b5092915050565b60006020828403121561023d57600080fd5b5035919050565b6020808252825182820181905260009190848201906040850190845b8181101561029257835173ffffffffffffffffffffffffffffffffffffffff1683529284019291840191600101610260565b50909695505050505050565b7f4e487b7100000000000000000000000000000000000000000000000000000000600052604160045260246000fd5b7f4e487b7100000000000000000000000000000000000000000000000000000000600052603260045260246000fd5b60007fffffffffffffffffffffffffffffffffffffffffffffffffffffffffffffffff8203610354577f4e487b7100000000000000000000000000000000000000000000000000000000600052601160045260246000fd5b506001019056fea2646970667358221220deda93e03e4b234ba90d8fbed2cf2ce390afbc8778d16cf98dd284e98ba0270264736f6c634300080f0033",
    "linkReferences": {}
  },
  "methodIdentifiers": {
    "create(uint256)": "780900dc",
    "next()": "4c8fe526"
  },
  "id": 121
}