{
  "abi": [
    {
      "inputs": [
        {
          "internalType": "contract Kernel",
          "name": "kernel_",
          "type": "address"
        }
      ],
      "stateMutability": "nonpayable",
      "type": "constructor"
    },
    {
      "inputs": [],
      "name": "CollateralAlreadyReturned",
      "type": "error"
    },
    {
      "inputs": [],
      "name": "DepositedAfterActivation",
      "type": "error"
    },
    {
      "inputs": [],
      "name": "ExecutionTimelockStillActive",
      "type": "error"
    },
    {
      "inputs": [],
      "name": "ExecutionWindowExpired",
      "type": "error"
    },
    {
      "inputs": [],
      "name": "ExecutorNotSubmitter",
      "type": "error"
    },
    {
      "inputs": [
        {
          "internalType": "address",
          "name": "caller_",
          "type": "address"
        }
      ],
      "name": "KernelAdapter_OnlyKernel",
      "type": "error"
    },
    {
      "inputs": [],
      "name": "NotAuthorized",
      "type": "error"
    },
    {
      "inputs": [],
      "name": "NotEnoughVotesToExecute",
      "type": "error"
    },
    {
      "inputs": [],
      "name": "PastVotingPeriod",
      "type": "error"
    },
    {
      "inputs": [
        {
          "internalType": "Keycode",
          "name": "keycode_",
          "type": "bytes5"
        }
      ],
      "name": "Policy_ModuleDoesNotExist",
      "type": "error"
    },
    {
      "inputs": [],
      "name": "ProposalAlreadyActivated",
      "type": "error"
    },
    {
      "inputs": [],
      "name": "ProposalAlreadyExecuted",
      "type": "error"
    },
    {
      "inputs": [],
      "name": "ProposalIsNotActive",
      "type": "error"
    },
    {
      "inputs": [],
      "name": "UnableToActivate",
      "type": "error"
    },
    {
      "inputs": [],
      "name": "UnmetCollateralDuration",
      "type": "error"
    },
    {
      "inputs": [],
      "name": "UserAlreadyVoted",
      "type": "error"
    },
    {
      "inputs": [],
      "name": "UserHasNoVotes",
      "type": "error"
    },
    {
      "inputs": [],
      "name": "WarmupNotCompleted",
      "type": "error"
    },
    {
      "anonymous": false,
      "inputs": [
        {
          "indexed": false,
          "internalType": "uint256",
          "name": "proposalId",
          "type": "uint256"
        },
        {
          "indexed": false,
          "internalType": "uint256",
          "name": "tokensReclaimed_",
          "type": "uint256"
        }
      ],
      "name": "CollateralReclaimed",
      "type": "event"
    },
    {
      "anonymous": false,
      "inputs": [
        {
          "indexed": false,
          "internalType": "uint256",
          "name": "proposalId",
          "type": "uint256"
        },
        {
          "indexed": false,
          "internalType": "uint256",
          "name": "timestamp",
          "type": "uint256"
        }
      ],
      "name": "ProposalActivated",
      "type": "event"
    },
    {
      "anonymous": false,
      "inputs": [
        {
          "indexed": false,
          "internalType": "uint256",
          "name": "proposalId",
          "type": "uint256"
        }
      ],
      "name": "ProposalExecuted",
      "type": "event"
    },
    {
      "anonymous": false,
      "inputs": [
        {
          "indexed": false,
          "internalType": "uint256",
          "name": "proposalId",
          "type": "uint256"
        },
        {
          "indexed": false,
          "internalType": "string",
          "name": "title",
          "type": "string"
        },
        {
          "indexed": false,
          "internalType": "string",
          "name": "proposalURI",
          "type": "string"
        }
      ],
      "name": "ProposalSubmitted",
      "type": "event"
    },
    {
      "anonymous": false,
      "inputs": [
        {
          "indexed": false,
          "internalType": "uint256",
          "name": "proposalId",
          "type": "uint256"
        },
        {
          "indexed": false,
          "internalType": "address",
          "name": "voter",
          "type": "address"
        },
        {
          "indexed": false,
          "internalType": "bool",
          "name": "approve",
          "type": "bool"
        },
        {
          "indexed": false,
          "internalType": "uint256",
          "name": "userVotes",
          "type": "uint256"
        }
      ],
      "name": "VotesCast",
      "type": "event"
    },
    {
      "inputs": [],
      "name": "ACTIVATION_DEADLINE",
      "outputs": [
        {
          "internalType": "uint256",
          "name": "",
          "type": "uint256"
        }
      ],
      "stateMutability": "view",
      "type": "function"
    },
    {
      "inputs": [],
      "name": "ACTIVATION_TIMELOCK",
      "outputs": [
        {
          "internalType": "uint256",
          "name": "",
          "type": "uint256"
        }
      ],
      "stateMutability": "view",
      "type": "function"
    },
    {
      "inputs": [],
      "name": "COLLATERAL_DURATION",
      "outputs": [
        {
          "internalType": "uint256",
          "name": "",
          "type": "uint256"
        }
      ],
      "stateMutability": "view",
      "type": "function"
    },
    {
      "inputs": [],
      "name": "COLLATERAL_MINIMUM",
      "outputs": [
        {
          "internalType": "uint256",
          "name": "",
          "type": "uint256"
        }
      ],
      "stateMutability": "view",
      "type": "function"
    },
    {
      "inputs": [],
      "name": "COLLATERAL_REQUIREMENT",
      "outputs": [
        {
          "internalType": "uint256",
          "name": "",
          "type": "uint256"
        }
      ],
      "stateMutability": "view",
      "type": "function"
    },
    {
      "inputs": [],
      "name": "EXECUTION_DEADLINE",
      "outputs": [
        {
          "internalType": "uint256",
          "name": "",
          "type": "uint256"
        }
      ],
      "stateMutability": "view",
      "type": "function"
    },
    {
      "inputs": [],
      "name": "EXECUTION_THRESHOLD",
      "outputs": [
        {
          "internalType": "uint256",
          "name": "",
          "type": "uint256"
        }
      ],
      "stateMutability": "view",
      "type": "function"
    },
    {
      "inputs": [],
      "name": "EXECUTION_TIMELOCK",
      "outputs": [
        {
          "internalType": "uint256",
          "name": "",
          "type": "uint256"
        }
      ],
      "stateMutability": "view",
      "type": "function"
    },
    {
      "inputs": [],
      "name": "INSTR",
      "outputs": [
        {
          "internalType": "contract INSTRv1",
          "name": "",
          "type": "address"
        }
      ],
      "stateMutability": "view",
      "type": "function"
    },
    {
      "inputs": [],
      "name": "VOTES",
      "outputs": [
        {
          "internalType": "contract VOTESv1",
          "name": "",
          "type": "address"
        }
      ],
      "stateMutability": "view",
      "type": "function"
    },
    {
      "inputs": [],
      "name": "VOTING_PERIOD",
      "outputs": [
        {
          "internalType": "uint256",
          "name": "",
          "type": "uint256"
        }
      ],
      "stateMutability": "view",
      "type": "function"
    },
    {
      "inputs": [],
      "name": "WARMUP_PERIOD",
      "outputs": [
        {
          "internalType": "uint256",
          "name": "",
          "type": "uint256"
        }
      ],
      "stateMutability": "view",
      "type": "function"
    },
    {
      "inputs": [
        {
          "internalType": "uint256",
          "name": "a",
          "type": "uint256"
        },
        {
          "internalType": "uint256",
          "name": "b",
          "type": "uint256"
        }
      ],
      "name": "_max",
      "outputs": [
        {
          "internalType": "uint256",
          "name": "",
          "type": "uint256"
        }
      ],
      "stateMutability": "pure",
      "type": "function"
    },
    {
      "inputs": [
        {
          "internalType": "uint256",
          "name": "proposalId_",
          "type": "uint256"
        }
      ],
      "name": "activateProposal",
      "outputs": [],
      "stateMutability": "nonpayable",
      "type": "function"
    },
    {
      "inputs": [
        {
          "internalType": "contract Kernel",
          "name": "newKernel_",
          "type": "address"
        }
      ],
      "name": "changeKernel",
      "outputs": [],
      "stateMutability": "nonpayable",
      "type": "function"
    },
    {
      "inputs": [],
      "name": "configureDependencies",
      "outputs": [
        {
          "internalType": "Keycode[]",
          "name": "dependencies",
          "type": "bytes5[]"
        }
      ],
      "stateMutability": "nonpayable",
      "type": "function"
    },
    {
      "inputs": [
        {
          "internalType": "uint256",
          "name": "proposalId_",
          "type": "uint256"
        }
      ],
      "name": "executeProposal",
      "outputs": [],
      "stateMutability": "nonpayable",
      "type": "function"
    },
    {
      "inputs": [
        {
          "internalType": "uint256",
          "name": "",
          "type": "uint256"
        }
      ],
      "name": "getProposalMetadata",
      "outputs": [
        {
          "internalType": "address",
          "name": "submitter",
          "type": "address"
        },
        {
          "internalType": "uint256",
          "name": "submissionTimestamp",
          "type": "uint256"
        },
        {
          "internalType": "uint256",
          "name": "collateralAmt",
          "type": "uint256"
        },
        {
          "internalType": "uint256",
          "name": "activationTimestamp",
          "type": "uint256"
        },
        {
          "internalType": "uint256",
          "name": "totalRegisteredVotes",
          "type": "uint256"
        },
        {
          "internalType": "uint256",
          "name": "yesVotes",
          "type": "uint256"
        },
        {
          "internalType": "uint256",
          "name": "noVotes",
          "type": "uint256"
        },
        {
          "internalType": "bool",
          "name": "isExecuted",
          "type": "bool"
        },
        {
          "internalType": "bool",
          "name": "isCollateralReturned",
          "type": "bool"
        }
      ],
      "stateMutability": "view",
      "type": "function"
    },
    {
      "inputs": [],
      "name": "isActive",
      "outputs": [
        {
          "internalType": "bool",
          "name": "",
          "type": "bool"
        }
      ],
      "stateMutability": "view",
      "type": "function"
    },
    {
      "inputs": [],
      "name": "kernel",
      "outputs": [
        {
          "internalType": "contract Kernel",
          "name": "",
          "type": "address"
        }
      ],
      "stateMutability": "view",
      "type": "function"
    },
    {
      "inputs": [
        {
          "internalType": "uint256",
          "name": "proposalId_",
          "type": "uint256"
        }
      ],
      "name": "reclaimCollateral",
      "outputs": [],
      "stateMutability": "nonpayable",
      "type": "function"
    },
    {
      "inputs": [],
      "name": "requestPermissions",
      "outputs": [
        {
          "components": [
            {
              "internalType": "Keycode",
              "name": "keycode",
              "type": "bytes5"
            },
            {
              "internalType": "bytes4",
              "name": "funcSelector",
              "type": "bytes4"
            }
          ],
          "internalType": "struct Permissions[]",
          "name": "requests",
          "type": "tuple[]"
        }
      ],
      "stateMutability": "view",
      "type": "function"
    },
    {
      "inputs": [
        {
          "components": [
            {
              "internalType": "enum Actions",
              "name": "action",
              "type": "uint8"
            },
            {
              "internalType": "address",
              "name": "target",
              "type": "address"
            }
          ],
          "internalType": "struct Instruction[]",
          "name": "instructions_",
          "type": "tuple[]"
        },
        {
          "internalType": "string",
          "name": "title_",
          "type": "string"
        },
        {
          "internalType": "string",
          "name": "proposalURI_",
          "type": "string"
        }
      ],
      "name": "submitProposal",
      "outputs": [],
      "stateMutability": "nonpayable",
      "type": "function"
    },
    {
      "inputs": [
        {
          "internalType": "uint256",
          "name": "proposalId_",
          "type": "uint256"
        },
        {
          "internalType": "bool",
          "name": "approve_",
          "type": "bool"
        }
      ],
      "name": "vote",
      "outputs": [],
      "stateMutability": "nonpayable",
      "type": "function"
    }
  ],
  "bytecode": {
    "object": "0x608060405234801561001057600080fd5b50604051620024143803806200241483398101604081905261003191610056565b600080546001600160a01b0319166001600160a01b0392909216919091179055610086565b60006020828403121561006857600080fd5b81516001600160a01b038116811461007f57600080fd5b9392505050565b61237e80620000966000396000f3fe608060405234801561001057600080fd5b50600436106101985760003560e01c80638fb28fcf116100e3578063d4aae0c41161008c578063e4b4a72711610066578063e4b4a72714610328578063e9742748146102e7578063eb9b98381461034857600080fd5b8063d4aae0c4146102ef578063d5f333ae1461030f578063e4af62a51461031957600080fd5b8063b1610d7e116100bd578063b1610d7e14610289578063c9d27afe146102d4578063cc1a6bea146102e757600080fd5b80638fb28fcf146102995780639459b875146102ac5780639bc518e9146102c157600080fd5b80634a0323a911610145578063645671fa1161011f578063645671fa146102805780637b5eb27b1461028957806382f79c291461029157600080fd5b80634a0323a9146102505780635924be701461025857806360e1e4c61461026d57600080fd5b80633d4cc958116101765780633d4cc9581461021457806345ac59551461022a5780634657b36c1461023d57600080fd5b806309fd0d831461019d5780630d61b519146101e757806322f3e2d4146101fc575b600080fd5b6002546101bd9073ffffffffffffffffffffffffffffffffffffffff1681565b60405173ffffffffffffffffffffffffffffffffffffffff90911681526020015b60405180910390f35b6101fa6101f5366004611c31565b61041e565b005b61020461083f565b60405190151581526020016101de565b61021c602181565b6040519081526020016101de565b6101fa610238366004611c31565b6108d7565b6101fa61024b366004611c6f565b610b39565b61021c610bd8565b610260610be7565b6040516101de9190611c8c565b6101fa61027b366004611d68565b610e9d565b61021c6101f481565b61021c60b481565b61021c61128f565b61021c6102a7366004611e30565b61129d565b6102b46112b5565b6040516101de9190611e52565b6101fa6102cf366004611c31565b61147f565b6101fa6102e2366004611ec6565b61168d565b61021c603c81565b6000546101bd9073ffffffffffffffffffffffffffffffffffffffff1681565b61021c6293a80081565b61021c678ac7230489e8000081565b6003546101bd9073ffffffffffffffffffffffffffffffffffffffff1681565b6103bf610356366004611c31565b60016020819052600091825260409091208054918101546002820154600383015460048401546005850154600686015460079096015473ffffffffffffffffffffffffffffffffffffffff90971696949593949293919290919060ff8082169161010090041689565b6040805173ffffffffffffffffffffffffffffffffffffffff909a168a5260208a0198909852968801959095526060870193909352608086019190915260a085015260c0840152151560e08301521515610100820152610120016101de565b6000818152600160205260409020805473ffffffffffffffffffffffffffffffffffffffff16331461047c576040517f4c973dd700000000000000000000000000000000000000000000000000000000815260040160405180910390fd5b6021816004015461048d9190611f25565b816006015482600501546104a19190611f62565b6104ac906064611f25565b10156104e4576040517f9831686f00000000000000000000000000000000000000000000000000000000815260040160405180910390fd5b600781015460ff1615610523576040517f51618d5300000000000000000000000000000000000000000000000000000000815260040160405180910390fd5b61052f60b4603c611f79565b816003015461053e9190611f79565b421015610577576040517f709c69b200000000000000000000000000000000000000000000000000000000815260040160405180910390fd5b61058560b462093a80611f79565b81600301546105949190611f79565b4211156105cd576040517f3c09dd1100000000000000000000000000000000000000000000000000000000815260040160405180910390fd5b6007810180547fffffffffffffffffffffffffffffffffffffffffffffffffffffffffffffff001660011790556002546040517ff19928c00000000000000000000000000000000000000000000000000000000081526004810184905260009173ffffffffffffffffffffffffffffffffffffffff169063f19928c0906024016000604051808303816000875af115801561066c573d6000803e3d6000fd5b505050506040513d6000823e601f3d9081017fffffffffffffffffffffffffffffffffffffffffffffffffffffffffffffffe01682016040526106b29190810190612045565b805190915060005b8181101561077c57600054835173ffffffffffffffffffffffffffffffffffffffff9091169063c4d1f8f1908590849081106106f8576106f8612125565b60200260200101516000015185848151811061071657610716612125565b6020026020010151602001516040518363ffffffff1660e01b815260040161073f92919061218f565b600060405180830381600087803b15801561075957600080fd5b505af115801561076d573d6000803e3d6000fd5b505050508060010190506106ba565b506003546040517f2c63af4b00000000000000000000000000000000000000000000000000000000815233600482015273ffffffffffffffffffffffffffffffffffffffff90911690632c63af4b90602401600060405180830381600087803b1580156107e857600080fd5b505af11580156107fc573d6000803e3d6000fd5b505050507f712ae1383f79ac853f8d882153778e0260ef8f03b504e2866e0593e04d2b291f8460405161083191815260200190565b60405180910390a150505050565b600080546040517fe52223bb00000000000000000000000000000000000000000000000000000000815230600482015273ffffffffffffffffffffffffffffffffffffffff9091169063e52223bb90602401602060405180830381865afa1580156108ae573d6000803e3d6000fd5b505050506040513d601f19601f820116820180604052508101906108d291906121c0565b905090565b6000818152600160205260409020805473ffffffffffffffffffffffffffffffffffffffff163314610935576040517fea8e4eb500000000000000000000000000000000000000000000000000000000815260040160405180910390fd5b603c81600101546109469190611f79565b421080610962575060b4816001015461095f9190611f79565b42115b15610999576040517f084e80ba00000000000000000000000000000000000000000000000000000000815260040160405180910390fd5b6003810154156109d5576040517f9d4b96f500000000000000000000000000000000000000000000000000000000815260040160405180910390fd5b428160030181905550600360009054906101000a900473ffffffffffffffffffffffffffffffffffffffff1673ffffffffffffffffffffffffffffffffffffffff166318160ddd6040518163ffffffff1660e01b8152600401602060405180830381865afa158015610a4b573d6000803e3d6000fd5b505050506040513d601f19601f82011682018060405250810190610a6f91906121dd565b6004828101919091556003546040517f2c63af4b000000000000000000000000000000000000000000000000000000008152339281019290925273ffffffffffffffffffffffffffffffffffffffff1690632c63af4b90602401600060405180830381600087803b158015610ae357600080fd5b505af1158015610af7573d6000803e3d6000fd5b5050604080518581524260208201527f2b806fd287b9b5a02303f4209a6276f6fc3c57a7081780b1862a1da3ae24d15e93500190505b60405180910390a15050565b60005473ffffffffffffffffffffffffffffffffffffffff163314610b91576040517f14fa403c0000000000000000000000000000000000000000000000000000000081523360048201526024015b60405180910390fd5b600080547fffffffffffffffffffffffff00000000000000000000000000000000000000001673ffffffffffffffffffffffffffffffffffffffff92909216919091179055565b610be460b4603c611f79565b81565b60408051600480825260a08201909252606091816020015b6040805180820190915260008082526020820152815260200190600190039081610bff5790505090506040518060400160405280610c5a7f494e53545200000000000000000000000000000000000000000000000000000090565b7fffffffffff0000000000000000000000000000000000000000000000000000001681527fb1d85eec0000000000000000000000000000000000000000000000000000000060209091015281518290600090610cb857610cb8612125565b60200260200101819052506040518060400160405280610cf57f564f54455300000000000000000000000000000000000000000000000000000090565b7fffffffffff0000000000000000000000000000000000000000000000000000001681527f2c63af4b00000000000000000000000000000000000000000000000000000000602090910152815182906001908110610d5557610d55612125565b60200260200101819052506040518060400160405280610d927f564f54455300000000000000000000000000000000000000000000000000000090565b7fffffffffff0000000000000000000000000000000000000000000000000000001681527fa9059cbb00000000000000000000000000000000000000000000000000000000602090910152815182906002908110610df257610df2612125565b60200260200101819052506040518060400160405280610e2f7f564f54455300000000000000000000000000000000000000000000000000000090565b7fffffffffff0000000000000000000000000000000000000000000000000000001681527f23b872dd00000000000000000000000000000000000000000000000000000000602090910152815182906003908110610e8f57610e8f612125565b602002602001018190525090565b6003546040517f655d8dec0000000000000000000000000000000000000000000000000000000081523360048201524291603c9173ffffffffffffffffffffffffffffffffffffffff9091169063655d8dec90602401602060405180830381865afa158015610f10573d6000803e3d6000fd5b505050506040513d601f19601f82011682018060405250810190610f3491906121dd565b610f3e9190611f79565b1115610f76576040517f966267d300000000000000000000000000000000000000000000000000000000815260040160405180910390fd5b60006110346127106101f4600360009054906101000a900473ffffffffffffffffffffffffffffffffffffffff1673ffffffffffffffffffffffffffffffffffffffff166318160ddd6040518163ffffffff1660e01b8152600401602060405180830381865afa158015610fee573d6000803e3d6000fd5b505050506040513d601f19601f8201168201806040525081019061101291906121dd565b61101c9190611f25565b61102691906121f6565b678ac7230489e8000061129d565b6003546040517f23b872dd0000000000000000000000000000000000000000000000000000000081523360048201523060248201526044810183905291925073ffffffffffffffffffffffffffffffffffffffff16906323b872dd906064016020604051808303816000875af11580156110b2573d6000803e3d6000fd5b505050506040513d601f19601f820116820180604052508101906110d691906121c0565b506002546040517fb1d85eec00000000000000000000000000000000000000000000000000000000815260009173ffffffffffffffffffffffffffffffffffffffff169063b1d85eec90611130908b908b90600401612231565b6020604051808303816000875af115801561114f573d6000803e3d6000fd5b505050506040513d601f19601f8201168201806040525081019061117391906121dd565b60008181526001602081905260409182902080547fffffffffffffffffffffffff00000000000000000000000000000000000000001633908117825560028201879055429282019290925560035492517f2c63af4b000000000000000000000000000000000000000000000000000000008152600481019290925292935073ffffffffffffffffffffffffffffffffffffffff90911690632c63af4b90602401600060405180830381600087803b15801561122d57600080fd5b505af1158015611241573d6000803e3d6000fd5b505050507f1fb50fa98072604de89724f330e5136232a44a24ef74563e1222cea5ac3f3b0c828888888860405161127c9594939291906122f2565b60405180910390a1505050505050505050565b610be460b462093a80611f79565b60008183116112ac57816112ae565b825b9392505050565b60408051600280825260608083018452926020830190803683370190505090507f494e5354520000000000000000000000000000000000000000000000000000008160008151811061130957611309612125565b7fffffffffff000000000000000000000000000000000000000000000000000000909216602092830291909101909101526113617f564f54455300000000000000000000000000000000000000000000000000000090565b8160018151811061137457611374612125565b60200260200101907affffffffffffffffffffffffffffffffffffffffffffffffffffff191690817affffffffffffffffffffffffffffffffffffffffffffffffffffff1916815250506113e1816000815181106113d4576113d4612125565b6020026020010151611b03565b600260006101000a81548173ffffffffffffffffffffffffffffffffffffffff021916908373ffffffffffffffffffffffffffffffffffffffff160217905550611437816001815181106113d4576113d4612125565b600380547fffffffffffffffffffffffff00000000000000000000000000000000000000001673ffffffffffffffffffffffffffffffffffffffff9290921691909117905590565b6000818152600160205260409020600781015460ff161580156114b357506293a80081600101546114b09190611f79565b42105b156114ea576040517ff55be67300000000000000000000000000000000000000000000000000000000815260040160405180910390fd5b6007810154610100900460ff161561152e576040517fd946b7e000000000000000000000000000000000000000000000000000000000815260040160405180910390fd5b805473ffffffffffffffffffffffffffffffffffffffff16331461157e576040517fea8e4eb500000000000000000000000000000000000000000000000000000000815260040160405180910390fd5b6007810180547fffffffffffffffffffffffffffffffffffffffffffffffffffffffffffff00ff16610100179055600354815460028301546040517fa9059cbb00000000000000000000000000000000000000000000000000000000815273ffffffffffffffffffffffffffffffffffffffff9283166004820152602481019190915291169063a9059cbb906044016020604051808303816000875af115801561162c573d6000803e3d6000fd5b505050506040513d601f19601f8201168201806040525081019061165091906121c0565b5060028101546040805184815260208101929092527fbe16928e97ca897940f5aeafee616f18c1cbb36d679088e65afcdfe44164eac69101610b2d565b60008281526001602052604080822060035491517f70a0823100000000000000000000000000000000000000000000000000000000815233600482015290929173ffffffffffffffffffffffffffffffffffffffff16906370a0823190602401602060405180830381865afa15801561170a573d6000803e3d6000fd5b505050506040513d601f19601f8201168201806040525081019061172e91906121dd565b9050816003015460000361176e576040517f4e6bc70b00000000000000000000000000000000000000000000000000000000815260040160405180910390fd5b6003546040517f655d8dec0000000000000000000000000000000000000000000000000000000081523360048201524291603c9173ffffffffffffffffffffffffffffffffffffffff9091169063655d8dec90602401602060405180830381865afa1580156117e1573d6000803e3d6000fd5b505050506040513d601f19601f8201168201806040525081019061180591906121dd565b61180f9190611f79565b1115611847576040517f966267d300000000000000000000000000000000000000000000000000000000815260040160405180910390fd5b60038281015490546040517f655d8dec00000000000000000000000000000000000000000000000000000000815233600482015273ffffffffffffffffffffffffffffffffffffffff9091169063655d8dec90602401602060405180830381865afa1580156118ba573d6000803e3d6000fd5b505050506040513d601f19601f820116820180604052508101906118de91906121dd565b1115611916576040517f27e6bf5000000000000000000000000000000000000000000000000000000000815260040160405180910390fd5b3360009081526008830160205260409020541561195f576040517f38ec521300000000000000000000000000000000000000000000000000000000815260040160405180910390fd5b80600003611999576040517f55c224a900000000000000000000000000000000000000000000000000000000815260040160405180910390fd5b60b482600301546119aa9190611f79565b4211156119e3576040517fcb6d6f6a00000000000000000000000000000000000000000000000000000000815260040160405180910390fd5b8215611a0857808260050160008282546119fd9190611f79565b90915550611a229050565b80826006016000828254611a1c9190611f79565b90915550505b3360008181526008840160205260409081902083905560035490517f2c63af4b000000000000000000000000000000000000000000000000000000008152600481019290925273ffffffffffffffffffffffffffffffffffffffff1690632c63af4b90602401600060405180830381600087803b158015611aa257600080fd5b505af1158015611ab6573d6000803e3d6000fd5b50506040805187815233602082015286151591810191909152606081018490527f3ad8a8911f584f7a37fdea0b0a5359dfe7864c6d151412121725387793f84e8292506080019050610831565b600080546040517fb4dc00b40000000000000000000000000000000000000000000000000000000081527fffffffffff00000000000000000000000000000000000000000000000000000084166004820152829173ffffffffffffffffffffffffffffffffffffffff169063b4dc00b490602401602060405180830381865afa158015611b94573d6000803e3d6000fd5b505050506040513d601f19601f82011682018060405250810190611bb8919061232b565b905073ffffffffffffffffffffffffffffffffffffffff8116611c2b576040517f5c3fa9cd0000000000000000000000000000000000000000000000000000000081527fffffffffff00000000000000000000000000000000000000000000000000000084166004820152602401610b88565b92915050565b600060208284031215611c4357600080fd5b5035919050565b73ffffffffffffffffffffffffffffffffffffffff81168114611c6c57600080fd5b50565b600060208284031215611c8157600080fd5b81356112ae81611c4a565b602080825282518282018190526000919060409081850190868401855b82811015611d1257815180517fffffffffff0000000000000000000000000000000000000000000000000000001685528601517fffffffff0000000000000000000000000000000000000000000000000000000016868501529284019290850190600101611ca9565b5091979650505050505050565b60008083601f840112611d3157600080fd5b50813567ffffffffffffffff811115611d4957600080fd5b602083019150836020828501011115611d6157600080fd5b9250929050565b60008060008060008060608789031215611d8157600080fd5b863567ffffffffffffffff80821115611d9957600080fd5b818901915089601f830112611dad57600080fd5b813581811115611dbc57600080fd5b8a60208260061b8501011115611dd157600080fd5b602092830198509650908801359080821115611dec57600080fd5b611df88a838b01611d1f565b90965094506040890135915080821115611e1157600080fd5b50611e1e89828a01611d1f565b979a9699509497509295939492505050565b60008060408385031215611e4357600080fd5b50508035926020909101359150565b6020808252825182820181905260009190848201906040850190845b81811015611eac5783517fffffffffff0000000000000000000000000000000000000000000000000000001683529284019291840191600101611e6e565b50909695505050505050565b8015158114611c6c57600080fd5b60008060408385031215611ed957600080fd5b823591506020830135611eeb81611eb8565b809150509250929050565b7f4e487b7100000000000000000000000000000000000000000000000000000000600052601160045260246000fd5b6000817fffffffffffffffffffffffffffffffffffffffffffffffffffffffffffffffff0483118215151615611f5d57611f5d611ef6565b500290565b600082821015611f7457611f74611ef6565b500390565b60008219821115611f8c57611f8c611ef6565b500190565b7f4e487b7100000000000000000000000000000000000000000000000000000000600052604160045260246000fd5b6040805190810167ffffffffffffffff81118282101715611fe357611fe3611f91565b60405290565b604051601f82017fffffffffffffffffffffffffffffffffffffffffffffffffffffffffffffffe016810167ffffffffffffffff8111828210171561203057612030611f91565b604052919050565b60068110611c6c57600080fd5b6000602080838503121561205857600080fd5b825167ffffffffffffffff8082111561207057600080fd5b818501915085601f83011261208457600080fd5b81518181111561209657612096611f91565b6120a4848260051b01611fe9565b818152848101925060069190911b8301840190878211156120c457600080fd5b928401925b8184101561211a57604084890312156120e25760008081fd5b6120ea611fc0565b84516120f581612038565b81528486015161210481611c4a565b81870152835260409390930192918401916120c9565b979650505050505050565b7f4e487b7100000000000000000000000000000000000000000000000000000000600052603260045260246000fd5b6006811061218b577f4e487b7100000000000000000000000000000000000000000000000000000000600052602160045260246000fd5b9052565b6040810161219d8285612154565b73ffffffffffffffffffffffffffffffffffffffff831660208301529392505050565b6000602082840312156121d257600080fd5b81516112ae81611eb8565b6000602082840312156121ef57600080fd5b5051919050565b60008261222c577f4e487b7100000000000000000000000000000000000000000000000000000000600052601260045260246000fd5b500490565b6020808252818101839052600090604080840186845b8781101561229c57813561225a81612038565b6122648482612154565b508482013561227281611c4a565b73ffffffffffffffffffffffffffffffffffffffff16838601529183019190830190600101612247565b5090979650505050505050565b8183528181602085013750600060208284010152600060207fffffffffffffffffffffffffffffffffffffffffffffffffffffffffffffffe0601f840116840101905092915050565b85815260606020820152600061230c6060830186886122a9565b828103604084015261231f8185876122a9565b98975050505050505050565b60006020828403121561233d57600080fd5b81516112ae81611c4a56fea26469706673582212204005e612ea34d0d613204596b73539e5f88e93e4eb61fab05fe51ddfba9145f464736f6c634300080f0033",
    "linkReferences": {}
  },
  "methodIdentifiers": {
    "ACTIVATION_DEADLINE()": "7b5eb27b",
    "ACTIVATION_TIMELOCK()": "cc1a6bea",
    "COLLATERAL_DURATION()": "d5f333ae",
    "COLLATERAL_MINIMUM()": "e4af62a5",
    "COLLATERAL_REQUIREMENT()": "645671fa",
    "EXECUTION_DEADLINE()": "82f79c29",
    "EXECUTION_THRESHOLD()": "3d4cc958",
    "EXECUTION_TIMELOCK()": "4a0323a9",
    "INSTR()": "09fd0d83",
    "VOTES()": "e4b4a727",
    "VOTING_PERIOD()": "b1610d7e",
    "WARMUP_PERIOD()": "e9742748",
    "_max(uint256,uint256)": "8fb28fcf",
    "activateProposal(uint256)": "45ac5955",
    "changeKernel(address)": "4657b36c",
    "configureDependencies()": "9459b875",
    "executeProposal(uint256)": "0d61b519",
    "getProposalMetadata(uint256)": "eb9b9838",
    "isActive()": "22f3e2d4",
    "kernel()": "d4aae0c4",
    "reclaimCollateral(uint256)": "9bc518e9",
    "requestPermissions()": "5924be70",
    "submitProposal((uint8,address)[],string,string)": "60e1e4c6",
    "vote(uint256,bool)": "c9d27afe"
  },
  "id": 112
}