{
  "abi": [
    {
      "inputs": [
        {
          "internalType": "contract Kernel",
          "name": "kernel_",
          "type": "address"
        }
      ],
      "stateMutability": "nonpayable",
      "type": "constructor"
    },
    {
      "inputs": [],
      "name": "CollateralAlreadyReturned",
      "type": "error"
    },
    {
      "inputs": [],
      "name": "DepositedAfterActivation",
      "type": "error"
    },
    {
      "inputs": [],
      "name": "ExecutionTimelockStillActive",
      "type": "error"
    },
    {
      "inputs": [],
      "name": "ExecutionWindowExpired",
      "type": "error"
    },
    {
      "inputs": [],
      "name": "ExecutorNotSubmitter",
      "type": "error"
    },
    {
      "inputs": [
        {
          "internalType": "address",
          "name": "caller_",
          "type": "address"
        }
      ],
      "name": "KernelAdapter_OnlyKernel",
      "type": "error"
    },
    {
      "inputs": [],
      "name": "NotAuthorized",
      "type": "error"
    },
    {
      "inputs": [],
      "name": "NotEnoughVotesToExecute",
      "type": "error"
    },
    {
      "inputs": [],
      "name": "PastVotingPeriod",
      "type": "error"
    },
    {
      "inputs": [
        {
          "internalType": "Keycode",
          "name": "keycode_",
          "type": "bytes5"
        }
      ],
      "name": "Policy_ModuleDoesNotExist",
      "type": "error"
    },
    {
      "inputs": [],
      "name": "ProposalAlreadyActivated",
      "type": "error"
    },
    {
      "inputs": [],
      "name": "ProposalAlreadyExecuted",
      "type": "error"
    },
    {
      "inputs": [],
      "name": "ProposalIsNotActive",
      "type": "error"
    },
    {
      "inputs": [],
      "name": "UnableToActivate",
      "type": "error"
    },
    {
      "inputs": [],
      "name": "UnmetCollateralDuration",
      "type": "error"
    },
    {
      "inputs": [],
      "name": "UserAlreadyVoted",
      "type": "error"
    },
    {
      "inputs": [],
      "name": "UserHasNoVotes",
      "type": "error"
    },
    {
      "inputs": [],
      "name": "WarmupNotCompleted",
      "type": "error"
    },
    {
      "anonymous": false,
      "inputs": [
        {
          "indexed": false,
          "internalType": "uint256",
          "name": "proposalId",
          "type": "uint256"
        },
        {
          "indexed": false,
          "internalType": "uint256",
          "name": "tokensReclaimed_",
          "type": "uint256"
        }
      ],
      "name": "CollateralReclaimed",
      "type": "event"
    },
    {
      "anonymous": false,
      "inputs": [
        {
          "indexed": false,
          "internalType": "uint256",
          "name": "proposalId",
          "type": "uint256"
        },
        {
          "indexed": false,
          "internalType": "uint256",
          "name": "timestamp",
          "type": "uint256"
        }
      ],
      "name": "ProposalActivated",
      "type": "event"
    },
    {
      "anonymous": false,
      "inputs": [
        {
          "indexed": false,
          "internalType": "uint256",
          "name": "proposalId",
          "type": "uint256"
        }
      ],
      "name": "ProposalExecuted",
      "type": "event"
    },
    {
      "anonymous": false,
      "inputs": [
        {
          "indexed": false,
          "internalType": "uint256",
          "name": "proposalId",
          "type": "uint256"
        },
        {
          "indexed": false,
          "internalType": "string",
          "name": "title",
          "type": "string"
        },
        {
          "indexed": false,
          "internalType": "string",
          "name": "proposalURI",
          "type": "string"
        }
      ],
      "name": "ProposalSubmitted",
      "type": "event"
    },
    {
      "anonymous": false,
      "inputs": [
        {
          "indexed": false,
          "internalType": "uint256",
          "name": "proposalId",
          "type": "uint256"
        },
        {
          "indexed": false,
          "internalType": "address",
          "name": "voter",
          "type": "address"
        },
        {
          "indexed": false,
          "internalType": "bool",
          "name": "approve",
          "type": "bool"
        },
        {
          "indexed": false,
          "internalType": "uint256",
          "name": "userVotes",
          "type": "uint256"
        }
      ],
      "name": "VotesCast",
      "type": "event"
    },
    {
      "inputs": [],
      "name": "ACTIVATION_DEADLINE",
      "outputs": [
        {
          "internalType": "uint256",
          "name": "",
          "type": "uint256"
        }
      ],
      "stateMutability": "view",
      "type": "function"
    },
    {
      "inputs": [],
      "name": "ACTIVATION_TIMELOCK",
      "outputs": [
        {
          "internalType": "uint256",
          "name": "",
          "type": "uint256"
        }
      ],
      "stateMutability": "view",
      "type": "function"
    },
    {
      "inputs": [],
      "name": "COLLATERAL_DURATION",
      "outputs": [
        {
          "internalType": "uint256",
          "name": "",
          "type": "uint256"
        }
      ],
      "stateMutability": "view",
      "type": "function"
    },
    {
      "inputs": [],
      "name": "COLLATERAL_MINIMUM",
      "outputs": [
        {
          "internalType": "uint256",
          "name": "",
          "type": "uint256"
        }
      ],
      "stateMutability": "view",
      "type": "function"
    },
    {
      "inputs": [],
      "name": "COLLATERAL_REQUIREMENT",
      "outputs": [
        {
          "internalType": "uint256",
          "name": "",
          "type": "uint256"
        }
      ],
      "stateMutability": "view",
      "type": "function"
    },
    {
      "inputs": [],
      "name": "EXECUTION_DEADLINE",
      "outputs": [
        {
          "internalType": "uint256",
          "name": "",
          "type": "uint256"
        }
      ],
      "stateMutability": "view",
      "type": "function"
    },
    {
      "inputs": [],
      "name": "EXECUTION_THRESHOLD",
      "outputs": [
        {
          "internalType": "uint256",
          "name": "",
          "type": "uint256"
        }
      ],
      "stateMutability": "view",
      "type": "function"
    },
    {
      "inputs": [],
      "name": "EXECUTION_TIMELOCK",
      "outputs": [
        {
          "internalType": "uint256",
          "name": "",
          "type": "uint256"
        }
      ],
      "stateMutability": "view",
      "type": "function"
    },
    {
      "inputs": [],
      "name": "INSTR",
      "outputs": [
        {
          "internalType": "contract INSTRv1",
          "name": "",
          "type": "address"
        }
      ],
      "stateMutability": "view",
      "type": "function"
    },
    {
      "inputs": [],
      "name": "VOTES",
      "outputs": [
        {
          "internalType": "contract VOTESv1",
          "name": "",
          "type": "address"
        }
      ],
      "stateMutability": "view",
      "type": "function"
    },
    {
      "inputs": [],
      "name": "VOTING_PERIOD",
      "outputs": [
        {
          "internalType": "uint256",
          "name": "",
          "type": "uint256"
        }
      ],
      "stateMutability": "view",
      "type": "function"
    },
    {
      "inputs": [],
      "name": "WARMUP_PERIOD",
      "outputs": [
        {
          "internalType": "uint256",
          "name": "",
          "type": "uint256"
        }
      ],
      "stateMutability": "view",
      "type": "function"
    },
    {
      "inputs": [
        {
          "internalType": "uint256",
          "name": "a",
          "type": "uint256"
        },
        {
          "internalType": "uint256",
          "name": "b",
          "type": "uint256"
        }
      ],
      "name": "_max",
      "outputs": [
        {
          "internalType": "uint256",
          "name": "",
          "type": "uint256"
        }
      ],
      "stateMutability": "pure",
      "type": "function"
    },
    {
      "inputs": [
        {
          "internalType": "uint256",
          "name": "proposalId_",
          "type": "uint256"
        }
      ],
      "name": "activateProposal",
      "outputs": [],
      "stateMutability": "nonpayable",
      "type": "function"
    },
    {
      "inputs": [
        {
          "internalType": "contract Kernel",
          "name": "newKernel_",
          "type": "address"
        }
      ],
      "name": "changeKernel",
      "outputs": [],
      "stateMutability": "nonpayable",
      "type": "function"
    },
    {
      "inputs": [],
      "name": "configureDependencies",
      "outputs": [
        {
          "internalType": "Keycode[]",
          "name": "dependencies",
          "type": "bytes5[]"
        }
      ],
      "stateMutability": "nonpayable",
      "type": "function"
    },
    {
      "inputs": [
        {
          "internalType": "uint256",
          "name": "proposalId_",
          "type": "uint256"
        }
      ],
      "name": "executeProposal",
      "outputs": [],
      "stateMutability": "nonpayable",
      "type": "function"
    },
    {
      "inputs": [
        {
          "internalType": "uint256",
          "name": "",
          "type": "uint256"
        }
      ],
      "name": "getProposalMetadata",
      "outputs": [
        {
          "internalType": "address",
          "name": "submitter",
          "type": "address"
        },
        {
          "internalType": "uint256",
          "name": "submissionTimestamp",
          "type": "uint256"
        },
        {
          "internalType": "uint256",
          "name": "collateralAmt",
          "type": "uint256"
        },
        {
          "internalType": "uint256",
          "name": "activationTimestamp",
          "type": "uint256"
        },
        {
          "internalType": "uint256",
          "name": "totalRegisteredVotes",
          "type": "uint256"
        },
        {
          "internalType": "uint256",
          "name": "yesVotes",
          "type": "uint256"
        },
        {
          "internalType": "uint256",
          "name": "noVotes",
          "type": "uint256"
        },
        {
          "internalType": "bool",
          "name": "isExecuted",
          "type": "bool"
        },
        {
          "internalType": "bool",
          "name": "isCollateralReturned",
          "type": "bool"
        }
      ],
      "stateMutability": "view",
      "type": "function"
    },
    {
      "inputs": [],
      "name": "isActive",
      "outputs": [
        {
          "internalType": "bool",
          "name": "",
          "type": "bool"
        }
      ],
      "stateMutability": "view",
      "type": "function"
    },
    {
      "inputs": [],
      "name": "kernel",
      "outputs": [
        {
          "internalType": "contract Kernel",
          "name": "",
          "type": "address"
        }
      ],
      "stateMutability": "view",
      "type": "function"
    },
    {
      "inputs": [
        {
          "internalType": "uint256",
          "name": "proposalId_",
          "type": "uint256"
        }
      ],
      "name": "reclaimCollateral",
      "outputs": [],
      "stateMutability": "nonpayable",
      "type": "function"
    },
    {
      "inputs": [],
      "name": "requestPermissions",
      "outputs": [
        {
          "components": [
            {
              "internalType": "Keycode",
              "name": "keycode",
              "type": "bytes5"
            },
            {
              "internalType": "bytes4",
              "name": "funcSelector",
              "type": "bytes4"
            }
          ],
          "internalType": "struct Permissions[]",
          "name": "requests",
          "type": "tuple[]"
        }
      ],
      "stateMutability": "view",
      "type": "function"
    },
    {
      "inputs": [
        {
          "components": [
            {
              "internalType": "enum Actions",
              "name": "action",
              "type": "uint8"
            },
            {
              "internalType": "address",
              "name": "target",
              "type": "address"
            }
          ],
          "internalType": "struct Instruction[]",
          "name": "instructions_",
          "type": "tuple[]"
        },
        {
          "internalType": "string",
          "name": "title_",
          "type": "string"
        },
        {
          "internalType": "string",
          "name": "proposalURI_",
          "type": "string"
        }
      ],
      "name": "submitProposal",
      "outputs": [],
      "stateMutability": "nonpayable",
      "type": "function"
    },
    {
      "inputs": [
        {
          "internalType": "uint256",
          "name": "proposalId_",
          "type": "uint256"
        },
        {
          "internalType": "bool",
          "name": "approve_",
          "type": "bool"
        }
      ],
      "name": "vote",
      "outputs": [],
      "stateMutability": "nonpayable",
      "type": "function"
    }
  ],
  "bytecode": {
    "object": "0x608060405234801561001057600080fd5b50604051611b24380380611b2483398101604081905261002f91610054565b600080546001600160a01b0319166001600160a01b0392909216919091179055610084565b60006020828403121561006657600080fd5b81516001600160a01b038116811461007d57600080fd5b9392505050565b611a91806100936000396000f3fe608060405234801561001057600080fd5b50600436106101285760003560e01c806309fd0d831461012d5780630d61b5191461015657806322f3e2d41461016b5780633d4cc9581461018357806345ac5955146101995780634657b36c146101ac5780634a0323a9146101bf5780635924be70146101c757806360e1e4c6146101dc578063645671fa146101ef5780637b5eb27b146101f857806382f79c29146102005780638fb28fcf146102085780639459b8751461021b5780639bc518e914610230578063b1610d7e146101f8578063c9d27afe14610243578063cc1a6bea14610256578063d4aae0c41461025e578063d5f333ae14610271578063e4af62a51461027b578063e4b4a7271461028a578063e974274814610256578063eb9b98381461029d575b600080fd5b600254610140906001600160a01b031681565b60405161014d9190611466565b60405180910390f35b61016961016436600461147a565b610359565b005b610173610660565b604051901515815260200161014d565b61018b602181565b60405190815260200161014d565b6101696101a736600461147a565b6106d7565b6101696101ba3660046114ab565b6108a4565b61018b6108fc565b6101cf61090b565b60405161014d91906114c8565b6101696101ea366004611573565b610a9d565b61018b6101f481565b61018b60b481565b61018b610db4565b61018b61021636600461163a565b610dc2565b610223610dda565b60405161014d919061165c565b61016961023e36600461147a565b610ef5565b6101696102513660046116b8565b611068565b61018b603c81565b600054610140906001600160a01b031681565b61018b6293a80081565b61018b678ac7230489e8000081565b600354610140906001600160a01b031681565b6103076102ab36600461147a565b6001602081905260009182526040909120805491810154600282015460038301546004840154600585015460068601546007909601546001600160a01b0390971696949593949293919290919060ff8082169161010090041689565b604080516001600160a01b03909a168a5260208a0198909852968801959095526060870193909352608086019190915260a085015260c0840152151560e083015215156101008201526101200161014d565b600081815260016020526040902080546001600160a01b0316331461039157604051634c973dd760e01b815260040160405180910390fd5b602181600401546103a291906116fe565b816006015482600501546103b6919061171d565b6103c19060646116fe565b10156103e057604051639831686f60e01b815260040160405180910390fd5b600781015460ff1615610406576040516351618d5360e01b815260040160405180910390fd5b61041260b4603c611734565b81600301546104219190611734565b4210156104415760405163384e34d960e11b815260040160405180910390fd5b61044f60b462093a80611734565b816003015461045e9190611734565b42111561047e57604051633c09dd1160e01b815260040160405180910390fd5b60078101805460ff191660011790556002546040516303c664a360e61b8152600481018490526000916001600160a01b03169063f19928c0906024016000604051808303816000875af11580156104d9573d6000803e3d6000fd5b505050506040513d6000823e601f3d908101601f1916820160405261050191908101906117c7565b805190915060005b818110156105be5760005483516001600160a01b039091169063c4d1f8f19085908490811061053a5761053a6118a6565b602002602001015160000151858481518110610558576105586118a6565b6020026020010151602001516040518363ffffffff1660e01b81526004016105819291906118de565b600060405180830381600087803b15801561059b57600080fd5b505af11580156105af573d6000803e3d6000fd5b50505050806001019050610509565b50600354604051632c63af4b60e01b81526001600160a01b0390911690632c63af4b906105ef903390600401611466565b600060405180830381600087803b15801561060957600080fd5b505af115801561061d573d6000803e3d6000fd5b505050507f712ae1383f79ac853f8d882153778e0260ef8f03b504e2866e0593e04d2b291f8460405161065291815260200190565b60405180910390a150505050565b6000805460405163e52223bb60e01b81526001600160a01b039091169063e52223bb90610691903090600401611466565b602060405180830381865afa1580156106ae573d6000803e3d6000fd5b505050506040513d601f19601f820116820180604052508101906106d29190611904565b905090565b600081815260016020526040902080546001600160a01b0316331461070f5760405163ea8e4eb560e01b815260040160405180910390fd5b603c81600101546107209190611734565b42108061073c575060b481600101546107399190611734565b42115b1561075a57604051630427405d60e11b815260040160405180910390fd5b60038101541561077d57604051639d4b96f560e01b815260040160405180910390fd5b428160030181905550600360009054906101000a90046001600160a01b03166001600160a01b03166318160ddd6040518163ffffffff1660e01b8152600401602060405180830381865afa1580156107d9573d6000803e3d6000fd5b505050506040513d601f19601f820116820180604052508101906107fd9190611921565b600480830191909155600354604051632c63af4b60e01b81526001600160a01b0390911691632c63af4b9161083491339101611466565b600060405180830381600087803b15801561084e57600080fd5b505af1158015610862573d6000803e3d6000fd5b5050604080518581524260208201527f2b806fd287b9b5a02303f4209a6276f6fc3c57a7081780b1862a1da3ae24d15e93500190505b60405180910390a15050565b6000546001600160a01b031633146108da573360405163053e900f60e21b81526004016108d19190611466565b60405180910390fd5b600080546001600160a01b0319166001600160a01b0392909216919091179055565b61090860b4603c611734565b81565b60408051600480825260a08201909252606091816020015b604080518082019091526000808252602082015281526020019060019003908161092357905050905060405180604001604052806109666424a729aa2960d91b90565b6001600160d81b0319168152632c7617bb60e21b60209091015281518290600090610993576109936118a6565b602002602001018190525060405180604001604052806109b864564f54455360d81b90565b6001600160d81b0319168152632c63af4b60e01b6020909101528151829060019081106109e7576109e76118a6565b60200260200101819052506040518060400160405280610a0c64564f54455360d81b90565b6001600160d81b031916815263a9059cbb60e01b602090910152815182906002908110610a3b57610a3b6118a6565b60200260200101819052506040518060400160405280610a6064564f54455360d81b90565b6001600160d81b03191681526323b872dd60e01b602090910152815182906003908110610a8f57610a8f6118a6565b602002602001018190525090565b600354604051631957637b60e21b81524291603c916001600160a01b039091169063655d8dec90610ad2903390600401611466565b602060405180830381865afa158015610aef573d6000803e3d6000fd5b505050506040513d601f19601f82011682018060405250810190610b139190611921565b610b1d9190611734565b1115610b3c5760405163966267d360e01b815260040160405180910390fd5b6000610be06127106101f4600360009054906101000a90046001600160a01b03166001600160a01b03166318160ddd6040518163ffffffff1660e01b8152600401602060405180830381865afa158015610b9a573d6000803e3d6000fd5b505050506040513d601f19601f82011682018060405250810190610bbe9190611921565b610bc891906116fe565b610bd2919061193a565b678ac7230489e80000610dc2565b6003546040516323b872dd60e01b8152336004820152306024820152604481018390529192506001600160a01b0316906323b872dd906064016020604051808303816000875af1158015610c38573d6000803e3d6000fd5b505050506040513d601f19601f82011682018060405250810190610c5c9190611904565b50600254604051632c7617bb60e21b81526000916001600160a01b03169063b1d85eec90610c90908b908b9060040161195c565b6020604051808303816000875af1158015610caf573d6000803e3d6000fd5b505050506040513d601f19601f82011682018060405250810190610cd39190611921565b60008181526001602081905260409182902080546001600160a01b0319163390811782556002820187905542928201929092556003549251632c63af4b60e01b8152939450926001600160a01b039290921691632c63af4b91610d3891600401611466565b600060405180830381600087803b158015610d5257600080fd5b505af1158015610d66573d6000803e3d6000fd5b505050507f1fb50fa98072604de89724f330e5136232a44a24ef74563e1222cea5ac3f3b0c8288888888604051610da19594939291906119f0565b60405180910390a1505050505050505050565b61090860b462093a80611734565b6000818311610dd15781610dd3565b825b9392505050565b60408051600280825260608083018452926020830190803683370190505090506424a729aa2960d91b81600081518110610e1657610e166118a6565b6001600160d81b031990921660209283029190910190910152610e3e64564f54455360d81b90565b81600181518110610e5157610e516118a6565b60200260200101906001600160d81b03191690816001600160d81b03191681525050610e9681600081518110610e8957610e896118a6565b60200260200101516113c3565b600260006101000a8154816001600160a01b0302191690836001600160a01b03160217905550610ed281600181518110610e8957610e896118a6565b600380546001600160a01b0319166001600160a01b039290921691909117905590565b6000818152600160205260409020600781015460ff16158015610f2957506293a8008160010154610f269190611734565b42105b15610f475760405163f55be67360e01b815260040160405180910390fd5b6007810154610100900460ff1615610f72576040516306ca35bf60e51b815260040160405180910390fd5b80546001600160a01b03163314610f9c5760405163ea8e4eb560e01b815260040160405180910390fd5b60078101805461ff0019166101001790556003548154600283015460405163a9059cbb60e01b81526001600160a01b039283166004820152602481019190915291169063a9059cbb906044016020604051808303816000875af1158015611007573d6000803e3d6000fd5b505050506040513d601f19601f8201168201806040525081019061102b9190611904565b5060028101546040805184815260208101929092527fbe16928e97ca897940f5aeafee616f18c1cbb36d679088e65afcdfe44164eac69101610898565b60008281526001602052604080822060035491516370a0823160e01b81529092916001600160a01b0316906370a08231906110a7903390600401611466565b602060405180830381865afa1580156110c4573d6000803e3d6000fd5b505050506040513d601f19601f820116820180604052508101906110e89190611921565b9050816003015460000361110f57604051634e6bc70b60e01b815260040160405180910390fd5b600354604051631957637b60e21b81524291603c916001600160a01b039091169063655d8dec90611144903390600401611466565b602060405180830381865afa158015611161573d6000803e3d6000fd5b505050506040513d601f19601f820116820180604052508101906111859190611921565b61118f9190611734565b11156111ae5760405163966267d360e01b815260040160405180910390fd5b6003808301549054604051631957637b60e21b81526001600160a01b039091169063655d8dec906111e3903390600401611466565b602060405180830381865afa158015611200573d6000803e3d6000fd5b505050506040513d601f19601f820116820180604052508101906112249190611921565b11156112435760405163027e6bf560e41b815260040160405180910390fd5b33600090815260088301602052604090205415611273576040516338ec521360e01b815260040160405180910390fd5b80600003611294576040516355c224a960e01b815260040160405180910390fd5b60b482600301546112a59190611734565b4211156112c5576040516365b6b7b560e11b815260040160405180910390fd5b82156112ea57808260050160008282546112df9190611734565b909155506113049050565b808260060160008282546112fe9190611734565b90915550505b336000818152600884016020526040908190208390556003549051632c63af4b60e01b81526001600160a01b0390911691632c63af4b916113489190600401611466565b600060405180830381600087803b15801561136257600080fd5b505af1158015611376573d6000803e3d6000fd5b50506040805187815233602082015286151591810191909152606081018490527f3ad8a8911f584f7a37fdea0b0a5359dfe7864c6d151412121725387793f84e8292506080019050610652565b60008054604051632d37002d60e21b815282916001600160a01b03169063b4dc00b4906113f4908690600401611a29565b602060405180830381865afa158015611411573d6000803e3d6000fd5b505050506040513d601f19601f820116820180604052508101906114359190611a3e565b90506001600160a01b0381166114605782604051635c3fa9cd60e01b81526004016108d19190611a29565b92915050565b6001600160a01b0391909116815260200190565b60006020828403121561148c57600080fd5b5035919050565b6001600160a01b03811681146114a857600080fd5b50565b6000602082840312156114bd57600080fd5b8135610dd381611493565b602080825282518282018190526000919060409081850190868401855b8281101561151e57815180516001600160d81b03191685528601516001600160e01b0319168685015292840192908501906001016114e5565b5091979650505050505050565b60008083601f84011261153d57600080fd5b5081356001600160401b0381111561155457600080fd5b60208301915083602082850101111561156c57600080fd5b9250929050565b6000806000806000806060878903121561158c57600080fd5b86356001600160401b03808211156115a357600080fd5b818901915089601f8301126115b757600080fd5b8135818111156115c657600080fd5b8a60208260061b85010111156115db57600080fd5b6020928301985096509088013590808211156115f657600080fd5b6116028a838b0161152b565b9096509450604089013591508082111561161b57600080fd5b5061162889828a0161152b565b979a9699509497509295939492505050565b6000806040838503121561164d57600080fd5b50508035926020909101359150565b6020808252825182820181905260009190848201906040850190845b8181101561169e5783516001600160d81b03191683529284019291840191600101611678565b50909695505050505050565b80151581146114a857600080fd5b600080604083850312156116cb57600080fd5b8235915060208301356116dd816116aa565b809150509250929050565b634e487b7160e01b600052601160045260246000fd5b6000816000190483118215151615611718576117186116e8565b500290565b60008282101561172f5761172f6116e8565b500390565b60008219821115611747576117476116e8565b500190565b634e487b7160e01b600052604160045260246000fd5b604080519081016001600160401b03811182821017156117845761178461174c565b60405290565b604051601f8201601f191681016001600160401b03811182821017156117b2576117b261174c565b604052919050565b600681106114a857600080fd5b600060208083850312156117da57600080fd5b82516001600160401b03808211156117f157600080fd5b818501915085601f83011261180557600080fd5b8151818111156118175761181761174c565b611825848260051b0161178a565b818152848101925060069190911b83018401908782111561184557600080fd5b928401925b8184101561189b57604084890312156118635760008081fd5b61186b611762565b8451611876816117ba565b81528486015161188581611493565b818701528352604093909301929184019161184a565b979650505050505050565b634e487b7160e01b600052603260045260246000fd5b600681106118da57634e487b7160e01b600052602160045260246000fd5b9052565b604081016118ec82856118bc565b6001600160a01b039290921660209190910152919050565b60006020828403121561191657600080fd5b8151610dd3816116aa565b60006020828403121561193357600080fd5b5051919050565b60008261195757634e487b7160e01b600052601260045260246000fd5b500490565b6020808252818101839052600090604080840186845b878110156119ba578135611985816117ba565b61198f84826118bc565b508482013561199d81611493565b6001600160a01b0316838601529183019190830190600101611972565b5090979650505050505050565b81835281816020850137506000828201602090810191909152601f909101601f19169091010190565b858152606060208201526000611a0a6060830186886119c7565b8281036040840152611a1d8185876119c7565b98975050505050505050565b6001600160d81b031991909116815260200190565b600060208284031215611a5057600080fd5b8151610dd38161149356fea2646970667358221220dda9ef6c1539ef55bb37c82e7ed76ffac04472cd5fd1c4d3e875baa1552a0dfc64736f6c634300080f0033",
    "linkReferences": {}
  },
  "methodIdentifiers": {
    "ACTIVATION_DEADLINE()": "7b5eb27b",
    "ACTIVATION_TIMELOCK()": "cc1a6bea",
    "COLLATERAL_DURATION()": "d5f333ae",
    "COLLATERAL_MINIMUM()": "e4af62a5",
    "COLLATERAL_REQUIREMENT()": "645671fa",
    "EXECUTION_DEADLINE()": "82f79c29",
    "EXECUTION_THRESHOLD()": "3d4cc958",
    "EXECUTION_TIMELOCK()": "4a0323a9",
    "INSTR()": "09fd0d83",
    "VOTES()": "e4b4a727",
    "VOTING_PERIOD()": "b1610d7e",
    "WARMUP_PERIOD()": "e9742748",
    "_max(uint256,uint256)": "8fb28fcf",
    "activateProposal(uint256)": "45ac5955",
    "changeKernel(address)": "4657b36c",
    "configureDependencies()": "9459b875",
    "executeProposal(uint256)": "0d61b519",
    "getProposalMetadata(uint256)": "eb9b9838",
    "isActive()": "22f3e2d4",
    "kernel()": "d4aae0c4",
    "reclaimCollateral(uint256)": "9bc518e9",
    "requestPermissions()": "5924be70",
    "submitProposal((uint8,address)[],string,string)": "60e1e4c6",
    "vote(uint256,bool)": "c9d27afe"
  },
  "id": 113
}