{
  "abi": [
    {
      "inputs": [
        {
          "internalType": "address",
          "name": "protocol_",
          "type": "address"
        },
        {
          "internalType": "contract IBondAggregator",
          "name": "aggregator_",
          "type": "address"
        },
        {
          "internalType": "address",
          "name": "guardian_",
          "type": "address"
        },
        {
          "internalType": "contract Authority",
          "name": "authority_",
          "type": "address"
        }
      ],
      "stateMutability": "nonpayable",
      "type": "constructor"
    },
    {
      "inputs": [],
      "name": "Teller_InvalidCallback",
      "type": "error"
    },
    {
      "inputs": [],
      "name": "Teller_InvalidParams",
      "type": "error"
    },
    {
      "inputs": [],
      "name": "Teller_NotAuthorized",
      "type": "error"
    },
    {
      "inputs": [
        {
          "internalType": "contract ERC20",
          "name": "underlying",
          "type": "address"
        },
        {
          "internalType": "uint48",
          "name": "expiry",
          "type": "uint48"
        }
      ],
      "name": "Teller_TokenDoesNotExist",
      "type": "error"
    },
    {
      "inputs": [
        {
          "internalType": "uint48",
          "name": "maturesOn",
          "type": "uint48"
        }
      ],
      "name": "Teller_TokenNotMatured",
      "type": "error"
    },
    {
      "inputs": [],
      "name": "Teller_UnsupportedToken",
      "type": "error"
    },
    {
      "anonymous": false,
      "inputs": [
        {
          "indexed": true,
          "internalType": "address",
          "name": "owner",
          "type": "address"
        },
        {
          "indexed": true,
          "internalType": "address",
          "name": "operator",
          "type": "address"
        },
        {
          "indexed": false,
          "internalType": "bool",
          "name": "approved",
          "type": "bool"
        }
      ],
      "name": "ApprovalForAll",
      "type": "event"
    },
    {
      "anonymous": false,
      "inputs": [
        {
          "indexed": true,
          "internalType": "address",
          "name": "user",
          "type": "address"
        },
        {
          "indexed": true,
          "internalType": "contract Authority",
          "name": "newAuthority",
          "type": "address"
        }
      ],
      "name": "AuthorityUpdated",
      "type": "event"
    },
    {
      "anonymous": false,
      "inputs": [
        {
          "indexed": true,
          "internalType": "uint256",
          "name": "id",
          "type": "uint256"
        },
        {
          "indexed": true,
          "internalType": "address",
          "name": "referrer",
          "type": "address"
        },
        {
          "indexed": false,
          "internalType": "uint256",
          "name": "amount",
          "type": "uint256"
        },
        {
          "indexed": false,
          "internalType": "uint256",
          "name": "payout",
          "type": "uint256"
        }
      ],
      "name": "Bonded",
      "type": "event"
    },
    {
      "anonymous": false,
      "inputs": [
        {
          "indexed": false,
          "internalType": "uint256",
          "name": "tokenId",
          "type": "uint256"
        },
        {
          "indexed": true,
          "internalType": "contract ERC20",
          "name": "underlying",
          "type": "address"
        },
        {
          "indexed": true,
          "internalType": "uint48",
          "name": "expiry",
          "type": "uint48"
        }
      ],
      "name": "ERC1155BondTokenCreated",
      "type": "event"
    },
    {
      "anonymous": false,
      "inputs": [
        {
          "indexed": true,
          "internalType": "address",
          "name": "user",
          "type": "address"
        },
        {
          "indexed": true,
          "internalType": "address",
          "name": "newOwner",
          "type": "address"
        }
      ],
      "name": "OwnerUpdated",
      "type": "event"
    },
    {
      "anonymous": false,
      "inputs": [
        {
          "indexed": true,
          "internalType": "address",
          "name": "operator",
          "type": "address"
        },
        {
          "indexed": true,
          "internalType": "address",
          "name": "from",
          "type": "address"
        },
        {
          "indexed": true,
          "internalType": "address",
          "name": "to",
          "type": "address"
        },
        {
          "indexed": false,
          "internalType": "uint256[]",
          "name": "ids",
          "type": "uint256[]"
        },
        {
          "indexed": false,
          "internalType": "uint256[]",
          "name": "amounts",
          "type": "uint256[]"
        }
      ],
      "name": "TransferBatch",
      "type": "event"
    },
    {
      "anonymous": false,
      "inputs": [
        {
          "indexed": true,
          "internalType": "address",
          "name": "operator",
          "type": "address"
        },
        {
          "indexed": true,
          "internalType": "address",
          "name": "from",
          "type": "address"
        },
        {
          "indexed": true,
          "internalType": "address",
          "name": "to",
          "type": "address"
        },
        {
          "indexed": false,
          "internalType": "uint256",
          "name": "id",
          "type": "uint256"
        },
        {
          "indexed": false,
          "internalType": "uint256",
          "name": "amount",
          "type": "uint256"
        }
      ],
      "name": "TransferSingle",
      "type": "event"
    },
    {
      "anonymous": false,
      "inputs": [
        {
          "indexed": false,
          "internalType": "string",
          "name": "value",
          "type": "string"
        },
        {
          "indexed": true,
          "internalType": "uint256",
          "name": "id",
          "type": "uint256"
        }
      ],
      "name": "URI",
      "type": "event"
    },
    {
      "inputs": [],
      "name": "FEE_DECIMALS",
      "outputs": [
        {
          "internalType": "uint48",
          "name": "",
          "type": "uint48"
        }
      ],
      "stateMutability": "view",
      "type": "function"
    },
    {
      "inputs": [],
      "name": "authority",
      "outputs": [
        {
          "internalType": "contract Authority",
          "name": "",
          "type": "address"
        }
      ],
      "stateMutability": "view",
      "type": "function"
    },
    {
      "inputs": [
        {
          "internalType": "address",
          "name": "",
          "type": "address"
        },
        {
          "internalType": "uint256",
          "name": "",
          "type": "uint256"
        }
      ],
      "name": "balanceOf",
      "outputs": [
        {
          "internalType": "uint256",
          "name": "",
          "type": "uint256"
        }
      ],
      "stateMutability": "view",
      "type": "function"
    },
    {
      "inputs": [
        {
          "internalType": "address[]",
          "name": "owners",
          "type": "address[]"
        },
        {
          "internalType": "uint256[]",
          "name": "ids",
          "type": "uint256[]"
        }
      ],
      "name": "balanceOfBatch",
      "outputs": [
        {
          "internalType": "uint256[]",
          "name": "balances",
          "type": "uint256[]"
        }
      ],
      "stateMutability": "view",
      "type": "function"
    },
    {
      "inputs": [
        {
          "internalType": "uint256[]",
          "name": "tokenIds_",
          "type": "uint256[]"
        },
        {
          "internalType": "uint256[]",
          "name": "amounts_",
          "type": "uint256[]"
        }
      ],
      "name": "batchRedeem",
      "outputs": [],
      "stateMutability": "nonpayable",
      "type": "function"
    },
    {
      "inputs": [
        {
          "internalType": "contract ERC20[]",
          "name": "tokens_",
          "type": "address[]"
        },
        {
          "internalType": "address",
          "name": "to_",
          "type": "address"
        }
      ],
      "name": "claimFees",
      "outputs": [],
      "stateMutability": "nonpayable",
      "type": "function"
    },
    {
      "inputs": [
        {
          "internalType": "contract ERC20",
          "name": "underlying_",
          "type": "address"
        },
        {
          "internalType": "uint48",
          "name": "expiry_",
          "type": "uint48"
        },
        {
          "internalType": "uint256",
          "name": "amount_",
          "type": "uint256"
        }
      ],
      "name": "create",
      "outputs": [
        {
          "internalType": "uint256",
          "name": "",
          "type": "uint256"
        },
        {
          "internalType": "uint256",
          "name": "",
          "type": "uint256"
        }
      ],
      "stateMutability": "nonpayable",
      "type": "function"
    },
    {
      "inputs": [],
      "name": "createFeeDiscount",
      "outputs": [
        {
          "internalType": "uint48",
          "name": "",
          "type": "uint48"
        }
      ],
      "stateMutability": "view",
      "type": "function"
    },
    {
      "inputs": [
        {
          "internalType": "contract ERC20",
          "name": "underlying_",
          "type": "address"
        },
        {
          "internalType": "uint48",
          "name": "expiry_",
          "type": "uint48"
        }
      ],
      "name": "deploy",
      "outputs": [
        {
          "internalType": "uint256",
          "name": "",
          "type": "uint256"
        }
      ],
      "stateMutability": "nonpayable",
      "type": "function"
    },
    {
      "inputs": [
        {
          "internalType": "address",
          "name": "referrer_",
          "type": "address"
        }
      ],
      "name": "getFee",
      "outputs": [
        {
          "internalType": "uint48",
          "name": "",
          "type": "uint48"
        }
      ],
      "stateMutability": "view",
      "type": "function"
    },
    {
      "inputs": [
        {
          "internalType": "contract ERC20",
          "name": "underlying_",
          "type": "address"
        },
        {
          "internalType": "uint48",
          "name": "expiry_",
          "type": "uint48"
        }
      ],
      "name": "getTokenId",
      "outputs": [
        {
          "internalType": "uint256",
          "name": "",
          "type": "uint256"
        }
      ],
      "stateMutability": "pure",
      "type": "function"
    },
    {
      "inputs": [
        {
          "internalType": "uint256",
          "name": "tokenId_",
          "type": "uint256"
        }
      ],
      "name": "getTokenNameAndSymbol",
      "outputs": [
        {
          "internalType": "string",
          "name": "",
          "type": "string"
        },
        {
          "internalType": "string",
          "name": "",
          "type": "string"
        }
      ],
      "stateMutability": "view",
      "type": "function"
    },
    {
      "inputs": [
        {
          "internalType": "address",
          "name": "",
          "type": "address"
        },
        {
          "internalType": "address",
          "name": "",
          "type": "address"
        }
      ],
      "name": "isApprovedForAll",
      "outputs": [
        {
          "internalType": "bool",
          "name": "",
          "type": "bool"
        }
      ],
      "stateMutability": "view",
      "type": "function"
    },
    {
      "inputs": [],
      "name": "owner",
      "outputs": [
        {
          "internalType": "address",
          "name": "",
          "type": "address"
        }
      ],
      "stateMutability": "view",
      "type": "function"
    },
    {
      "inputs": [],
      "name": "protocolFee",
      "outputs": [
        {
          "internalType": "uint48",
          "name": "",
          "type": "uint48"
        }
      ],
      "stateMutability": "view",
      "type": "function"
    },
    {
      "inputs": [
        {
          "internalType": "address",
          "name": "recipient_",
          "type": "address"
        },
        {
          "internalType": "address",
          "name": "referrer_",
          "type": "address"
        },
        {
          "internalType": "uint256",
          "name": "id_",
          "type": "uint256"
        },
        {
          "internalType": "uint256",
          "name": "amount_",
          "type": "uint256"
        },
        {
          "internalType": "uint256",
          "name": "minAmountOut_",
          "type": "uint256"
        }
      ],
      "name": "purchase",
      "outputs": [
        {
          "internalType": "uint256",
          "name": "",
          "type": "uint256"
        },
        {
          "internalType": "uint48",
          "name": "",
          "type": "uint48"
        }
      ],
      "stateMutability": "nonpayable",
      "type": "function"
    },
    {
      "inputs": [
        {
          "internalType": "uint256",
          "name": "tokenId_",
          "type": "uint256"
        },
        {
          "internalType": "uint256",
          "name": "amount_",
          "type": "uint256"
        }
      ],
      "name": "redeem",
      "outputs": [],
      "stateMutability": "nonpayable",
      "type": "function"
    },
    {
      "inputs": [
        {
          "internalType": "address",
          "name": "",
          "type": "address"
        }
      ],
      "name": "referrerFees",
      "outputs": [
        {
          "internalType": "uint48",
          "name": "",
          "type": "uint48"
        }
      ],
      "stateMutability": "view",
      "type": "function"
    },
    {
      "inputs": [
        {
          "internalType": "address",
          "name": "",
          "type": "address"
        },
        {
          "internalType": "contract ERC20",
          "name": "",
          "type": "address"
        }
      ],
      "name": "rewards",
      "outputs": [
        {
          "internalType": "uint256",
          "name": "",
          "type": "uint256"
        }
      ],
      "stateMutability": "view",
      "type": "function"
    },
    {
      "inputs": [
        {
          "internalType": "address",
          "name": "from",
          "type": "address"
        },
        {
          "internalType": "address",
          "name": "to",
          "type": "address"
        },
        {
          "internalType": "uint256[]",
          "name": "ids",
          "type": "uint256[]"
        },
        {
          "internalType": "uint256[]",
          "name": "amounts",
          "type": "uint256[]"
        },
        {
          "internalType": "bytes",
          "name": "data",
          "type": "bytes"
        }
      ],
      "name": "safeBatchTransferFrom",
      "outputs": [],
      "stateMutability": "nonpayable",
      "type": "function"
    },
    {
      "inputs": [
        {
          "internalType": "address",
          "name": "from",
          "type": "address"
        },
        {
          "internalType": "address",
          "name": "to",
          "type": "address"
        },
        {
          "internalType": "uint256",
          "name": "id",
          "type": "uint256"
        },
        {
          "internalType": "uint256",
          "name": "amount",
          "type": "uint256"
        },
        {
          "internalType": "bytes",
          "name": "data",
          "type": "bytes"
        }
      ],
      "name": "safeTransferFrom",
      "outputs": [],
      "stateMutability": "nonpayable",
      "type": "function"
    },
    {
      "inputs": [
        {
          "internalType": "address",
          "name": "operator",
          "type": "address"
        },
        {
          "internalType": "bool",
          "name": "approved",
          "type": "bool"
        }
      ],
      "name": "setApprovalForAll",
      "outputs": [],
      "stateMutability": "nonpayable",
      "type": "function"
    },
    {
      "inputs": [
        {
          "internalType": "contract Authority",
          "name": "newAuthority",
          "type": "address"
        }
      ],
      "name": "setAuthority",
      "outputs": [],
      "stateMutability": "nonpayable",
      "type": "function"
    },
    {
      "inputs": [
        {
          "internalType": "uint48",
          "name": "discount_",
          "type": "uint48"
        }
      ],
      "name": "setCreateFeeDiscount",
      "outputs": [],
      "stateMutability": "nonpayable",
      "type": "function"
    },
    {
      "inputs": [
        {
          "internalType": "address",
          "name": "newOwner",
          "type": "address"
        }
      ],
      "name": "setOwner",
      "outputs": [],
      "stateMutability": "nonpayable",
      "type": "function"
    },
    {
      "inputs": [
        {
          "internalType": "uint48",
          "name": "fee_",
          "type": "uint48"
        }
      ],
      "name": "setProtocolFee",
      "outputs": [],
      "stateMutability": "nonpayable",
      "type": "function"
    },
    {
      "inputs": [
        {
          "internalType": "uint48",
          "name": "fee_",
          "type": "uint48"
        }
      ],
      "name": "setReferrerFee",
      "outputs": [],
      "stateMutability": "nonpayable",
      "type": "function"
    },
    {
      "inputs": [
        {
          "internalType": "bytes4",
          "name": "interfaceId",
          "type": "bytes4"
        }
      ],
      "name": "supportsInterface",
      "outputs": [
        {
          "internalType": "bool",
          "name": "",
          "type": "bool"
        }
      ],
      "stateMutability": "view",
      "type": "function"
    },
    {
      "inputs": [
        {
          "internalType": "uint256",
          "name": "",
          "type": "uint256"
        }
      ],
      "name": "tokenMetadata",
      "outputs": [
        {
          "internalType": "bool",
          "name": "active",
          "type": "bool"
        },
        {
          "internalType": "contract ERC20",
          "name": "underlying",
          "type": "address"
        },
        {
          "internalType": "uint8",
          "name": "decimals",
          "type": "uint8"
        },
        {
          "internalType": "uint48",
          "name": "expiry",
          "type": "uint48"
        },
        {
          "internalType": "uint256",
          "name": "supply",
          "type": "uint256"
        }
      ],
      "stateMutability": "view",
      "type": "function"
    }
  ],
  "bytecode": {
    "object": "0x60c060405260016002553480156200001657600080fd5b5060405162003a9b38038062003a9b83398101604081905262000039916200011e565b600080546001600160a01b03199081166001600160a01b0385811691821784556001805490931690851617909155604051869286928692869284928492909133917f8292fce18fa69edf4db7b94ea2e58241df0ae57f97e0a6c9b29067028bf92d769190a36040516001600160a01b0382169033907fa3396fd7f6e0a21b50e5089d2da70d5ac0a3bbbd1f617a93f134b7638998019890600090a35050506001600160a01b03928316608052501660a0525050600480546001600160601b031916905550620001869050565b6001600160a01b03811681146200011b57600080fd5b50565b600080600080608085870312156200013557600080fd5b8451620001428162000105565b6020860151909450620001558162000105565b6040860151909350620001688162000105565b60608601519092506200017b8162000105565b939692955090935050565b60805160a0516138e1620001ba60003960008181610c010152611d85015260008181610df1015261140501526138e16000f3fe608060405234801561001057600080fd5b506004361061015e5760003560e01c8062fdd58e1461016357806301ffc9a7146101a157806306692a37146101c45780630d4dfc21146101f457806313af4035146102095780632eb2c2d61461021c5780632f6fa94e1461022f57806335312c85146102425780634e1273f4146102635780636914db60146102835780636de5b4cd1461031c5780637a9e5e4b1461034b5780637cbc23731461035e57806381690927146103715780638da5cb5b1461038457806392593277146103a4578063a22cb465146103b7578063b0e21e8a146103ca578063b1e55529146103dc578063b7314ef9146103ef578063b88c914814610410578063bf7e214f14610423578063c23135dd14610436578063c6e38a4b1461045e578063ccf288c614610471578063e70b9e271461047b578063e985e9c5146104a6578063e9dc30f3146104d4578063f242432a146104e7575b600080fd5b61018e610171366004612a4e565b600660209081526000928352604080842090915290825290205481565b6040519081526020015b60405180910390f35b6101b46101af366004612a90565b6104fa565b6040519015158152602001610198565b6004546101dd90600160301b900465ffffffffffff1681565b60405165ffffffffffff9091168152602001610198565b610207610202366004612ac1565b61054c565b005b610207610217366004612ade565b6105d8565b61020761022a366004612b87565b610655565b61020761023d366004612c8b565b6108b9565b610255610250366004612d4e565b610988565b604051610198929190612dbf565b610276610271366004612ded565b610a10565b6040516101989190612e58565b6102db610291366004612d4e565b6008602052600090815260409020805460019091015460ff8083169261010081046001600160a01b031692600160a81b820490921691600160b01b90910465ffffffffffff169085565b6040805195151586526001600160a01b03909416602086015260ff9092169284019290925265ffffffffffff9091166060830152608082015260a001610198565b61032f61032a366004612e9c565b610b23565b6040805192835265ffffffffffff909116602083015201610198565b610207610359366004612ade565b610ec6565b61020761036c366004612eed565b610fb0565b61020761037f366004612ac1565b610fe9565b600054610397906001600160a01b031681565b6040516101989190612f0f565b61018e6103b2366004612f23565b611074565b6102076103c5366004612f6a565b6110db565b6004546101dd9065ffffffffffff1681565b6102076103ea366004612ac1565b611147565b6104026103fd366004612f98565b6111c4565b604051610198929190612fd9565b6101dd61041e366004612ade565b6114b0565b600154610397906001600160a01b031681565b6101dd610444366004612ade565b60036020526000908152604090205465ffffffffffff1681565b61018e61046c366004612f23565b6114e1565b6101dd620186a081565b61018e610489366004612fe7565b600560209081526000928352604080842090915290825290205481565b6101b46104b4366004612fe7565b600760209081526000928352604080842090915290825290205460ff1681565b6102076104e2366004612ded565b611545565b6102076104f5366004613015565b6115ee565b60006301ffc9a760e01b6001600160e01b03198316148061052b5750636cdb3d1360e11b6001600160e01b03198316145b8061054657506303a24d0760e21b6001600160e01b03198316145b92915050565b6002546001146105775760405162461bcd60e51b815260040161056e90613090565b60405180910390fd5b6002805561138865ffffffffffff821611156105a65760405163e94b8f2760e01b815260040160405180910390fd5b336000908152600360205260409020805465ffffffffffff191665ffffffffffff929092169190911790556001600255565b6105ee336000356001600160e01b0319166117c7565b61060a5760405162461bcd60e51b815260040161056e906130b4565b600080546001600160a01b0319166001600160a01b0383169081178255604051909133917f8292fce18fa69edf4db7b94ea2e58241df0ae57f97e0a6c9b29067028bf92d769190a350565b8483146106745760405162461bcd60e51b815260040161056e906130da565b336001600160a01b03891614806106ae57506001600160a01b038816600090815260076020908152604080832033845290915290205460ff165b6106ca5760405162461bcd60e51b815260040161056e90613103565b60008060005b87811015610789578888828181106106ea576106ea61312b565b9050602002013592508686828181106107055761070561312b565b6001600160a01b038e16600090815260066020908152604080832089845282528220805493909102949094013595508593925090610744908490613157565b90915550506001600160a01b038a1660009081526006602090815260408083208684529091528120805484929061077c90849061316e565b90915550506001016106d0565b50886001600160a01b03168a6001600160a01b0316336001600160a01b03167f4a39dc06d4c0dbc64b70af90fd698a233a518aa5d07e595d983b8c0526c8f7fb8b8b8b8b6040516107dd94939291906131bc565b60405180910390a46001600160a01b0389163b156108845760405163bc197c8160e01b808252906001600160a01b038b169063bc197c81906108319033908f908e908e908e908e908e908e90600401613217565b6020604051808303816000875af1158015610850573d6000803e3d6000fd5b505050506040513d601f19601f82011682018060405250810190610874919061327b565b6001600160e01b03191614610891565b6001600160a01b03891615155b6108ad5760405162461bcd60e51b815260040161056e90613298565b50505050505050505050565b6002546001146108db5760405162461bcd60e51b815260040161056e90613090565b60028055815160005b8181101561097d5760008482815181106109005761090061312b565b6020908102919091018101513360009081526005835260408082206001600160a01b03841683529093529190912054909150801561096a573360009081526005602090815260408083206001600160a01b038616808552925282209190915561096a908683611871565b505080610976906132c2565b90506108e4565b505060016002555050565b6000818152600860209081526040808320815160a081018352815460ff8082161515835261010082046001600160a01b0316958301869052600160a81b82041693820193909352600160b01b90920465ffffffffffff16606080840182905260019092015460808401529093849390918291610a039161197e565b9097909650945050505050565b6060838214610a315760405162461bcd60e51b815260040161056e906130da565b836001600160401b03811115610a4957610a49612c45565b604051908082528060200260200182016040528015610a72578160200160208202803683370190505b50905060005b84811015610b1a5760066000878784818110610a9657610a9661312b565b9050602002016020810190610aab9190612ade565b6001600160a01b03166001600160a01b031681526020019081526020016000206000858584818110610adf57610adf61312b565b90506020020135815260200190815260200160002054828281518110610b0757610b0761312b565b6020908102919091010152600101610a78565b50949350505050565b600080600254600114610b485760405162461bcd60e51b815260040161056e90613090565b600280556001600160a01b0386166000908152600360205260408120548190819081908190610b84908a9065ffffffffffff16620186a0611cc9565b6001600160a01b038c1660009081526003602052604081205460045492935090918391610bd391610bc09165ffffffffffff90811691166132db565b8c9065ffffffffffff16620186a0611cc9565b610bdd9190613157565b6040516329023ca160e11b8152600481018d90529091506000906001600160a01b037f00000000000000000000000000000000000000000000000000000000000000001690635204794290602401602060405180830381865afa158015610c48573d6000803e3d6000fd5b505050506040513d601f19601f82011682018060405250810190610c6c9190613305565b604051632b3155c360e21b8152600481018e90529091506000906001600160a01b0383169063acc5570c9060240160c060405180830381865afa158015610cb7573d6000803e3d6000fd5b505050506040513d601f19601f82011682018060405250810190610cdb9190613322565b50919b50995097509091506000905083610cf5868f613157565b610cff9190613157565b9050826001600160a01b031663e007fa978f838f6040518463ffffffff1660e01b8152600401610d42939291909283526020830191909152604082015260600190565b6020604051808303816000875af1158015610d61573d6000803e3d6000fd5b505050506040513d601f19601f82011682018060405250810190610d85919061339f565b955050505081600560008e6001600160a01b03166001600160a01b031681526020019081526020016000206000876001600160a01b03166001600160a01b031681526020019081526020016000206000828254610de2919061316e565b90915550506001600160a01b037f00000000000000000000000000000000000000000000000000000000000000008116600090815260056020908152604080832093891683529290529081208054839290610e3e90849061316e565b90915550610e5990508b8b85610e54858761316e565b611d7d565b6000610e678e858988612290565b90508c6001600160a01b03168c7f3ae5efadaccde413bdfcb3a4626babecd844c502ee4c2c9b340f28cd9d5527328d87604051610ea5929190612fd9565b60405180910390a36001600255929d929c50919a5050505050505050505050565b6000546001600160a01b0316331480610f5b575060015460405163b700961360e01b81526001600160a01b039091169063b700961390610f1a90339030906001600160e01b031960003516906004016133b8565b602060405180830381865afa158015610f37573d6000803e3d6000fd5b505050506040513d601f19601f82011682018060405250810190610f5b91906133e5565b610f6457600080fd5b600180546001600160a01b0319166001600160a01b03831690811790915560405133907fa3396fd7f6e0a21b50e5089d2da70d5ac0a3bbbd1f617a93f134b7638998019890600090a350565b600254600114610fd25760405162461bcd60e51b815260040161056e90613090565b60028055610fe0828261231a565b50506001600255565b610fff336000356001600160e01b0319166117c7565b61101b5760405162461bcd60e51b815260040161056e906130b4565b60045465ffffffffffff908116908216111561104a5760405163e94b8f2760e01b815260040160405180910390fd5b6004805465ffffffffffff909216600160301b0265ffffffffffff60301b19909216919091179055565b600080836110856201518085613418565b6040516020016110bb92919060609290921b6001600160601b031916825260d01b6001600160d01b0319166014820152601a0190565b60408051808303601f190181529190528051602090910120949350505050565b3360008181526007602090815260408083206001600160a01b03871680855290835292819020805460ff191686151590811790915590519081529192917f17307eab39ab6107e8899845ad3d59bd9653f200f220920489ca2b5937696c31910160405180910390a35050565b61115d336000356001600160e01b0319166117c7565b6111795760405162461bcd60e51b815260040161056e906130b4565b6113888165ffffffffffff1611156111a45760405163e94b8f2760e01b815260040160405180910390fd5b6004805465ffffffffffff191665ffffffffffff92909216919091179055565b6000806002546001146111e95760405162461bcd60e51b815260040161056e90613090565b6002805560006111fc6201518086613418565b611209906201518061343d565b9050428165ffffffffffff1610156112345760405163e94b8f2760e01b815260040160405180910390fd5b60006112408783611074565b60008181526008602052604090205490915060ff1661128b5760405163cb66c9db60e01b81526001600160a01b038816600482015265ffffffffffff8316602482015260440161056e565b6040516370a0823160e01b81526000906001600160a01b038916906370a08231906112ba903090600401612f0f565b602060405180830381865afa1580156112d7573d6000803e3d6000fd5b505050506040513d601f19601f820116820180604052508101906112fb919061339f565b90506113126001600160a01b03891633308961240f565b61131c868261316e565b6040516370a0823160e01b81526001600160a01b038a16906370a0823190611348903090600401612f0f565b602060405180830381865afa158015611365573d6000803e3d6000fd5b505050506040513d601f19601f82011682018060405250810190611389919061339f565b10156113a8576040516334d5114960e21b815260040160405180910390fd5b60045465ffffffffffff600160301b8204811691161115611489576004546000906113fb906113e89065ffffffffffff600160301b82048116911661346b565b889065ffffffffffff16620186a0611cc9565b6001600160a01b037f000000000000000000000000000000000000000000000000000000000000000081166000908152600560209081526040808320938e1683529290529081208054929350839290919061145790849061316e565b909155506114719050338461146c848b613157565b612522565b8261147c8289613157565b95509550505050506114a1565b611494338388612522565b5092508391506114a19050565b60016002559094909350915050565b6001600160a01b0381166000908152600360205260408120546004546105469165ffffffffffff90811691166132db565b60006002546001146115055760405162461bcd60e51b815260040161056e90613090565b6002805560006115158484611074565b60008181526008602052604090205490915060ff1661153957611539818585612565565b60016002559392505050565b6002546001146115675760405162461bcd60e51b815260040161056e90613090565b600280558281811461158c5760405163e94b8f2760e01b815260040160405180910390fd5b60005b818110156115e1576115d18686838181106115ac576115ac61312b565b905060200201358585848181106115c5576115c561312b565b9050602002013561231a565b6115da816132c2565b905061158f565b5050600160025550505050565b336001600160a01b038716148061162857506001600160a01b038616600090815260076020908152604080832033845290915290205460ff165b6116445760405162461bcd60e51b815260040161056e90613103565b6001600160a01b038616600090815260066020908152604080832087845290915281208054859290611677908490613157565b90915550506001600160a01b0385166000908152600660209081526040808320878452909152812080548592906116af90849061316e565b92505081905550846001600160a01b0316866001600160a01b0316336001600160a01b031660008051602061388c83398151915287876040516116f3929190612fd9565b60405180910390a46001600160a01b0385163b156117965760405163f23a6e6160e01b808252906001600160a01b0387169063f23a6e61906117439033908b908a908a908a908a90600401613492565b6020604051808303816000875af1158015611762573d6000803e3d6000fd5b505050506040513d601f19601f82011682018060405250810190611786919061327b565b6001600160e01b031916146117a3565b6001600160a01b03851615155b6117bf5760405162461bcd60e51b815260040161056e90613298565b505050505050565b6001546000906001600160a01b03168015801590611851575060405163b700961360e01b81526001600160a01b0382169063b700961390611810908790309088906004016133b8565b602060405180830381865afa15801561182d573d6000803e3d6000fd5b505050506040513d601f19601f8201168201806040525081019061185191906133e5565b8061186957506000546001600160a01b038581169116145b949350505050565b604080516001600160a01b038481166024830152604480830185905283518084039091018152606490920183526020820180516001600160e01b031663a9059cbb60e01b17905291516000928392908716916118cd91906134d9565b6000604051808303816000865af19150503d806000811461190a576040519150601f19603f3d011682016040523d82523d6000602084013e61190f565b606091505b509150915081801561193957508051158061193957508080602001905181019061193991906133e5565b6119775760405162461bcd60e51b815260206004820152600f60248201526e1514905394d1915497d19052531151608a1b604482015260640161056e565b5050505050565b606080600080808061199362015180886134f5565b905060006119a48262010bd9613509565b6119b19062253d8c613509565b9050600062023ab16119c483600461354a565b6119ce91906135cf565b905060046119df8262023ab161354a565b6119ea906003613509565b6119f491906135cf565b6119fe90836135fd565b9150600062164b09611a11846001613509565b611a1d90610fa061354a565b611a2791906135cf565b90506004611a37826105b561354a565b611a4191906135cf565b611a4b90846135fd565b611a5690601f613509565b9250600061098f611a6885605061354a565b611a7291906135cf565b905060006050611a848361098f61354a565b611a8e91906135cf565b611a9890866135fd565b9050611aa5600b836135cf565b9450611ab285600c61354a565b611abd836002613509565b611ac791906135fd565b91508483611ad66031876135fd565b611ae190606461354a565b611aeb9190613509565b611af59190613509565b9850909650945060009350611b1a9250611b15915061271090508661363c565b612724565b90506000600a8410611b3457611b2f84612724565b611b5d565b611b3d84612724565b604051602001611b4d9190613650565b6040516020818303038152906040525b90506000600a8410611b7757611b7284612724565b611ba0565b611b8084612724565b604051602001611b909190613650565b6040516020818303038152906040525b9050896001600160a01b03166306fdde036040518163ffffffff1660e01b8152600401600060405180830381865afa158015611be0573d6000803e3d6000fd5b505050506040513d6000823e601f3d908101601f19168201604052611c089190810190613679565b838383604051602001611c1e9493929190613703565b6040516020818303038152906040529750896001600160a01b03166395d89b416040518163ffffffff1660e01b8152600401600060405180830381865afa158015611c6d573d6000803e3d6000fd5b505050506040513d6000823e601f3d908101601f19168201604052611c959190810190613679565b838383604051602001611cab9493929190613780565b60405160208183030381529060405296505050505050509250929050565b6000808060001985870985870292508281108382030391505080600003611d025760008411611cf757600080fd5b508290049050611d76565b808411611d0e57600080fd5b600084868809851960019081018716968790049682860381900495909211909303600082900391909104909201919091029190911760038402600290811880860282030280860282030280860282030280860282030280860282030280860290910302029150505b9392505050565b6000806000807f00000000000000000000000000000000000000000000000000000000000000006001600160a01b03166352047942896040518263ffffffff1660e01b8152600401611dd191815260200190565b602060405180830381865afa158015611dee573d6000803e3d6000fd5b505050506040513d601f19601f82011682018060405250810190611e129190613305565b6001600160a01b031663acc5570c896040518263ffffffff1660e01b8152600401611e3f91815260200190565b60c060405180830381865afa158015611e5c573d6000803e3d6000fd5b505050506040513d601f19601f82011682018060405250810190611e809190613322565b5050935093509350935060008588611e989190613157565b90506000826001600160a01b03166370a08231306040518263ffffffff1660e01b8152600401611ec89190612f0f565b602060405180830381865afa158015611ee5573d6000803e3d6000fd5b505050506040513d601f19601f82011682018060405250810190611f09919061339f565b9050611f206001600160a01b03841633308c61240f565b611f2a898261316e565b6040516370a0823160e01b81526001600160a01b038516906370a0823190611f56903090600401612f0f565b602060405180830381865afa158015611f73573d6000803e3d6000fd5b505050506040513d601f19601f82011682018060405250810190611f97919061339f565b1015611fb6576040516334d5114960e21b815260040160405180910390fd5b6001600160a01b0385161561215257611fd96001600160a01b0384168684611871565b6040516370a0823160e01b81526000906001600160a01b038616906370a0823190612008903090600401612f0f565b602060405180830381865afa158015612025573d6000803e3d6000fd5b505050506040513d601f19601f82011682018060405250810190612049919061339f565b6040516312e779df60e21b8152600481018d905260248101859052604481018b90529091506001600160a01b03871690634b9de77c90606401600060405180830381600087803b15801561209c57600080fd5b505af11580156120b0573d6000803e3d6000fd5b5050505088816120c0919061316e565b6040516370a0823160e01b81526001600160a01b038716906370a08231906120ec903090600401612f0f565b602060405180830381865afa158015612109573d6000803e3d6000fd5b505050506040513d601f19601f8201168201806040525081019061212d919061339f565b101561214c57604051637152badd60e11b815260040160405180910390fd5b506108ad565b6040516370a0823160e01b81526000906001600160a01b038616906370a0823190612181903090600401612f0f565b602060405180830381865afa15801561219e573d6000803e3d6000fd5b505050506040513d601f19601f820116820180604052508101906121c2919061339f565b90506121d96001600160a01b03861688308c61240f565b6121e3898261316e565b6040516370a0823160e01b81526001600160a01b038716906370a082319061220f903090600401612f0f565b602060405180830381865afa15801561222c573d6000803e3d6000fd5b505050506040513d601f19601f82011682018060405250810190612250919061339f565b101561226f576040516334d5114960e21b815260040160405180910390fd5b6122836001600160a01b0385168885611871565b5050505050505050505050565b600065ffffffffffff8216156123065762015180806122af42856132db565b6122b99190613418565b6122c3919061343d565b905060006122d18483611074565b60008181526008602052604090205490915060ff166122f5576122f5818584612565565b612300868287612522565b50611869565b6118696001600160a01b0384168686611871565b60008281526008602052604090205460ff166123495760405163e94b8f2760e01b815260040160405180910390fd5b600082815260086020908152604091829020825160a081018452815460ff8082161515835261010082046001600160a01b031694830194909452600160a81b810490931693810193909352600160b01b90910465ffffffffffff166060830181905260019091015460808301524210156123e6576060810151604051634fb1e97360e01b815265ffffffffffff909116600482015260240161056e565b6123f1338484612846565b602081015161240a906001600160a01b03163384611871565b505050565b604080516001600160a01b0385811660248301528481166044830152606480830185905283518084039091018152608490920183526020820180516001600160e01b03166323b872dd60e01b179052915160009283929088169161247391906134d9565b6000604051808303816000865af19150503d80600081146124b0576040519150601f19603f3d011682016040523d82523d6000602084013e6124b5565b606091505b50915091508180156124df5750805115806124df5750808060200190518101906124df91906133e5565b6117bf5760405162461bcd60e51b81526020600482015260146024820152731514905394d1915497d19493d357d1905253115160621b604482015260640161056e565b6000828152600860205260408120600101805483929061254390849061316e565b9250508190555061240a83838360405180602001604052806000815250612878565b60006125746201518083613418565b612581906201518061343d565b9050428165ffffffffffff1610156125ac5760405163e94b8f2760e01b815260040160405180910390fd5b6040518060a00160405280600115158152602001846001600160a01b03168152602001846001600160a01b031663313ce5676040518163ffffffff1660e01b8152600401602060405180830381865afa15801561260d573d6000803e3d6000fd5b505050506040513d601f19601f8201168201806040525081019061263191906137ea565b60ff908116825265ffffffffffff8481166020808501829052600060409586018190528a81526008825285902086518154888401518989015160608b0151909716600160b01b0265ffffffffffff60b01b1997909816600160a81b029690961666ffffffffffffff60a81b196001600160a01b0397881661010002610100600160a81b0319941515949094166001600160a81b03199093169290921792909217161794909417845560809095015160019093019290925591518781529092918616917fd5a20d99fad8d4fec2eae3eb7d21c0bebeaecce7cf87b698ddba05071e7bde27910160405180910390a350505050565b60608160000361274b5750506040805180820190915260018152600360fc1b602082015290565b8160005b8115612775578061275f816132c2565b915061276e9050600a836134f5565b915061274f565b6000816001600160401b0381111561278f5761278f612c45565b6040519080825280601f01601f1916602001820160405280156127b9576020820181803683370190505b509050815b8515610b1a576127cf600182613157565b905060006127de600a886134f5565b6127e990600a61380d565b6127f39088613157565b6127fe90603061382c565b905060008160f81b90508084848151811061281b5761281b61312b565b60200101906001600160f81b031916908160001a90535061283d600a896134f5565b975050506127be565b60008281526008602052604081206001018054839290612867908490613157565b9091555061240a90508383836129b1565b6001600160a01b0384166000908152600660209081526040808320868452909152812080548492906128ab90849061316e565b90915550506040516001600160a01b03851690600090339060008051602061388c833981519152906128e09088908890612fd9565b60405180910390a46001600160a01b0384163b156129825760405163f23a6e6160e01b808252906001600160a01b0386169063f23a6e619061292f903390600090899089908990600401613851565b6020604051808303816000875af115801561294e573d6000803e3d6000fd5b505050506040513d601f19601f82011682018060405250810190612972919061327b565b6001600160e01b0319161461298f565b6001600160a01b03841615155b6129ab5760405162461bcd60e51b815260040161056e90613298565b50505050565b6001600160a01b0383166000908152600660209081526040808320858452909152812080548392906129e4908490613157565b90915550506040516000906001600160a01b03851690339060008051602061388c83398151915290612a199087908790612fd9565b60405180910390a4505050565b6001600160a01b0381168114612a3b57600080fd5b50565b8035612a4981612a26565b919050565b60008060408385031215612a6157600080fd5b8235612a6c81612a26565b946020939093013593505050565b6001600160e01b031981168114612a3b57600080fd5b600060208284031215612aa257600080fd5b8135611d7681612a7a565b65ffffffffffff81168114612a3b57600080fd5b600060208284031215612ad357600080fd5b8135611d7681612aad565b600060208284031215612af057600080fd5b8135611d7681612a26565b60008083601f840112612b0d57600080fd5b5081356001600160401b03811115612b2457600080fd5b6020830191508360208260051b8501011115612b3f57600080fd5b9250929050565b60008083601f840112612b5857600080fd5b5081356001600160401b03811115612b6f57600080fd5b602083019150836020828501011115612b3f57600080fd5b60008060008060008060008060a0898b031215612ba357600080fd5b8835612bae81612a26565b97506020890135612bbe81612a26565b965060408901356001600160401b0380821115612bda57600080fd5b612be68c838d01612afb565b909850965060608b0135915080821115612bff57600080fd5b612c0b8c838d01612afb565b909650945060808b0135915080821115612c2457600080fd5b50612c318b828c01612b46565b999c989b5096995094979396929594505050565b634e487b7160e01b600052604160045260246000fd5b604051601f8201601f191681016001600160401b0381118282101715612c8357612c83612c45565b604052919050565b60008060408385031215612c9e57600080fd5b82356001600160401b0380821115612cb557600080fd5b818501915085601f830112612cc957600080fd5b8135602082821115612cdd57612cdd612c45565b8160051b9250612cee818401612c5b565b8281529284018101928181019089851115612d0857600080fd5b948201945b84861015612d325785359350612d2284612a26565b8382529482019490820190612d0d565b9650612d419050878201612a3e565b9450505050509250929050565b600060208284031215612d6057600080fd5b5035919050565b60005b83811015612d82578181015183820152602001612d6a565b838111156129ab5750506000910152565b60008151808452612dab816020860160208601612d67565b601f01601f19169290920160200192915050565b604081526000612dd26040830185612d93565b8281036020840152612de48185612d93565b95945050505050565b60008060008060408587031215612e0357600080fd5b84356001600160401b0380821115612e1a57600080fd5b612e2688838901612afb565b90965094506020870135915080821115612e3f57600080fd5b50612e4c87828801612afb565b95989497509550505050565b6020808252825182820181905260009190848201906040850190845b81811015612e9057835183529284019291840191600101612e74565b50909695505050505050565b600080600080600060a08688031215612eb457600080fd5b8535612ebf81612a26565b94506020860135612ecf81612a26565b94979496505050506040830135926060810135926080909101359150565b60008060408385031215612f0057600080fd5b50508035926020909101359150565b6001600160a01b0391909116815260200190565b60008060408385031215612f3657600080fd5b8235612f4181612a26565b91506020830135612f5181612aad565b809150509250929050565b8015158114612a3b57600080fd5b60008060408385031215612f7d57600080fd5b8235612f8881612a26565b91506020830135612f5181612f5c565b600080600060608486031215612fad57600080fd5b8335612fb881612a26565b92506020840135612fc881612aad565b929592945050506040919091013590565b918252602082015260400190565b60008060408385031215612ffa57600080fd5b823561300581612a26565b91506020830135612f5181612a26565b60008060008060008060a0878903121561302e57600080fd5b863561303981612a26565b9550602087013561304981612a26565b9450604087013593506060870135925060808701356001600160401b0381111561307257600080fd5b61307e89828a01612b46565b979a9699509497509295939492505050565b6020808252600a90820152695245454e5452414e435960b01b604082015260600190565b6020808252600c908201526b15539055551213d49256915160a21b604082015260600190565b6020808252600f908201526e0988a9c8ea890be9a92a69a82a8869608b1b604082015260600190565b6020808252600e908201526d1393d517d055551213d49256915160921b604082015260600190565b634e487b7160e01b600052603260045260246000fd5b634e487b7160e01b600052601160045260246000fd5b60008282101561316957613169613141565b500390565b6000821982111561318157613181613141565b500190565b81835260006001600160fb1b0383111561319f57600080fd5b8260051b8083602087013760009401602001938452509192915050565b6040815260006131d0604083018688613186565b82810360208401526131e3818587613186565b979650505050505050565b81835281816020850137506000828201602090810191909152601f909101601f19169091010190565b6001600160a01b0389811682528816602082015260a060408201819052600090613244908301888a613186565b8281036060840152613257818789613186565b9050828103608084015261326c8185876131ee565b9b9a5050505050505050505050565b60006020828403121561328d57600080fd5b8151611d7681612a7a565b60208082526010908201526f155394d0519157d49150d2541251539560821b604082015260600190565b6000600182016132d4576132d4613141565b5060010190565b600065ffffffffffff8083168185168083038211156132fc576132fc613141565b01949350505050565b60006020828403121561331757600080fd5b8151611d7681612a26565b60008060008060008060c0878903121561333b57600080fd5b865161334681612a26565b602088015190965061335781612a26565b604088015190955061336881612a26565b606088015190945061337981612a26565b608088015190935061338a81612aad565b8092505060a087015190509295509295509295565b6000602082840312156133b157600080fd5b5051919050565b6001600160a01b0393841681529190921660208201526001600160e01b0319909116604082015260600190565b6000602082840312156133f757600080fd5b8151611d7681612f5c565b634e487b7160e01b600052601260045260246000fd5b600065ffffffffffff8084168061343157613431613402565b92169190910492915050565b600065ffffffffffff8083168185168183048111821515161561346257613462613141565b02949350505050565b600065ffffffffffff8381169083168181101561348a5761348a613141565b039392505050565b6001600160a01b03878116825286166020820152604081018590526060810184905260a0608082018190526000906134cd90830184866131ee565b98975050505050505050565b600082516134eb818460208701612d67565b9190910192915050565b60008261350457613504613402565b500490565b600080821280156001600160ff1b038490038513161561352b5761352b613141565b600160ff1b839003841281161561354457613544613141565b50500190565b60006001600160ff1b038184138284138082168684048611161561357057613570613141565b600160ff1b600087128281168783058912161561358f5761358f613141565b600087129250878205871284841616156135ab576135ab613141565b878505871281841616156135c1576135c1613141565b505050929093029392505050565b6000826135de576135de613402565b600160ff1b8214600019841416156135f8576135f8613141565b500590565b60008083128015600160ff1b85018412161561361b5761361b613141565b6001600160ff1b038401831381161561363657613636613141565b50500390565b60008261364b5761364b613402565b500690565b600360fc1b81526000825161366c816001850160208701612d67565b9190910160010192915050565b60006020828403121561368b57600080fd5b81516001600160401b03808211156136a257600080fd5b818401915084601f8301126136b657600080fd5b8151818111156136c8576136c8612c45565b6136db601f8201601f1916602001612c5b565b91508082528560208285010111156136f257600080fd5b610b1a816020840160208601612d67565b60008551613715818460208a01612d67565b600160fd1b9083019081528551613733816001840160208a01612d67565b808201915050602d60f81b8060018301528551613757816002850160208a01612d67565b60029201918201528351613772816003840160208801612d67565b016003019695505050505050565b60008551613792818460208a01612d67565b602d60f81b90830190815285516137b0816001840160208a01612d67565b85519101906137c6816001840160208901612d67565b84519101906137dc816001840160208801612d67565b016001019695505050505050565b6000602082840312156137fc57600080fd5b815160ff81168114611d7657600080fd5b600081600019048311821515161561382757613827613141565b500290565b600060ff821660ff84168060ff0382111561384957613849613141565b019392505050565b6001600160a01b03868116825285166020820152604081018490526060810183905260a0608082018190526000906131e390830184612d9356fec3d58168c5ae7397731d063d5bbf3d657854427343f4c083240f7aacaa2d0f62a264697066735822122000208953100b5318e46557d57034597609aeaef7160d4ac3a025239a9602d0fe64736f6c634300080f0033",
    "linkReferences": {}
  },
  "methodIdentifiers": {
    "FEE_DECIMALS()": "ccf288c6",
    "authority()": "bf7e214f",
    "balanceOf(address,uint256)": "00fdd58e",
    "balanceOfBatch(address[],uint256[])": "4e1273f4",
    "batchRedeem(uint256[],uint256[])": "e9dc30f3",
    "claimFees(address[],address)": "2f6fa94e",
    "create(address,uint48,uint256)": "b7314ef9",
    "createFeeDiscount()": "06692a37",
    "deploy(address,uint48)": "c6e38a4b",
    "getFee(address)": "b88c9148",
    "getTokenId(address,uint48)": "92593277",
    "getTokenNameAndSymbol(uint256)": "35312c85",
    "isApprovedForAll(address,address)": "e985e9c5",
    "owner()": "8da5cb5b",
    "protocolFee()": "b0e21e8a",
    "purchase(address,address,uint256,uint256,uint256)": "6de5b4cd",
    "redeem(uint256,uint256)": "7cbc2373",
    "referrerFees(address)": "c23135dd",
    "rewards(address,address)": "e70b9e27",
    "safeBatchTransferFrom(address,address,uint256[],uint256[],bytes)": "2eb2c2d6",
    "safeTransferFrom(address,address,uint256,uint256,bytes)": "f242432a",
    "setApprovalForAll(address,bool)": "a22cb465",
    "setAuthority(address)": "7a9e5e4b",
    "setCreateFeeDiscount(uint48)": "81690927",
    "setOwner(address)": "13af4035",
    "setProtocolFee(uint48)": "b1e55529",
    "setReferrerFee(uint48)": "0d4dfc21",
    "supportsInterface(bytes4)": "01ffc9a7",
    "tokenMetadata(uint256)": "6914db60"
  },
  "id": 142
}