{
  "abi": [
    {
      "inputs": [
        {
          "internalType": "address",
          "name": "guardian_",
          "type": "address"
        },
        {
          "internalType": "contract Authority",
          "name": "authority_",
          "type": "address"
        }
      ],
      "stateMutability": "nonpayable",
      "type": "constructor"
    },
    {
      "inputs": [
        {
          "internalType": "address",
          "name": "auctioneer_",
          "type": "address"
        }
      ],
      "name": "Aggregator_AlreadyRegistered",
      "type": "error"
    },
    {
      "inputs": [],
      "name": "Aggregator_InvalidParams",
      "type": "error"
    },
    {
      "inputs": [],
      "name": "Aggregator_OnlyAuctioneer",
      "type": "error"
    },
    {
      "anonymous": false,
      "inputs": [
        {
          "indexed": true,
          "internalType": "address",
          "name": "user",
          "type": "address"
        },
        {
          "indexed": true,
          "internalType": "contract Authority",
          "name": "newAuthority",
          "type": "address"
        }
      ],
      "name": "AuthorityUpdated",
      "type": "event"
    },
    {
      "anonymous": false,
      "inputs": [
        {
          "indexed": true,
          "internalType": "address",
          "name": "user",
          "type": "address"
        },
        {
          "indexed": true,
          "internalType": "address",
          "name": "newOwner",
          "type": "address"
        }
      ],
      "name": "OwnerUpdated",
      "type": "event"
    },
    {
      "inputs": [
        {
          "internalType": "uint256",
          "name": "",
          "type": "uint256"
        }
      ],
      "name": "auctioneers",
      "outputs": [
        {
          "internalType": "contract IBondAuctioneer",
          "name": "",
          "type": "address"
        }
      ],
      "stateMutability": "view",
      "type": "function"
    },
    {
      "inputs": [],
      "name": "authority",
      "outputs": [
        {
          "internalType": "contract Authority",
          "name": "",
          "type": "address"
        }
      ],
      "stateMutability": "view",
      "type": "function"
    },
    {
      "inputs": [
        {
          "internalType": "uint256",
          "name": "id_",
          "type": "uint256"
        }
      ],
      "name": "currentCapacity",
      "outputs": [
        {
          "internalType": "uint256",
          "name": "",
          "type": "uint256"
        }
      ],
      "stateMutability": "view",
      "type": "function"
    },
    {
      "inputs": [
        {
          "internalType": "address",
          "name": "payout_",
          "type": "address"
        },
        {
          "internalType": "address",
          "name": "quote_",
          "type": "address"
        },
        {
          "internalType": "uint256",
          "name": "amountIn_",
          "type": "uint256"
        },
        {
          "internalType": "uint256",
          "name": "minAmountOut_",
          "type": "uint256"
        },
        {
          "internalType": "uint256",
          "name": "maxExpiry_",
          "type": "uint256"
        }
      ],
      "name": "findMarketFor",
      "outputs": [
        {
          "internalType": "uint256",
          "name": "",
          "type": "uint256"
        }
      ],
      "stateMutability": "view",
      "type": "function"
    },
    {
      "inputs": [
        {
          "internalType": "uint256",
          "name": "id_",
          "type": "uint256"
        }
      ],
      "name": "getAuctioneer",
      "outputs": [
        {
          "internalType": "contract IBondAuctioneer",
          "name": "",
          "type": "address"
        }
      ],
      "stateMutability": "view",
      "type": "function"
    },
    {
      "inputs": [
        {
          "internalType": "uint256",
          "name": "id_",
          "type": "uint256"
        }
      ],
      "name": "getTeller",
      "outputs": [
        {
          "internalType": "contract IBondTeller",
          "name": "",
          "type": "address"
        }
      ],
      "stateMutability": "view",
      "type": "function"
    },
    {
      "inputs": [
        {
          "internalType": "uint256",
          "name": "id_",
          "type": "uint256"
        }
      ],
      "name": "isInstantSwap",
      "outputs": [
        {
          "internalType": "bool",
          "name": "",
          "type": "bool"
        }
      ],
      "stateMutability": "view",
      "type": "function"
    },
    {
      "inputs": [
        {
          "internalType": "uint256",
          "name": "id_",
          "type": "uint256"
        }
      ],
      "name": "isLive",
      "outputs": [
        {
          "internalType": "bool",
          "name": "",
          "type": "bool"
        }
      ],
      "stateMutability": "view",
      "type": "function"
    },
    {
      "inputs": [
        {
          "internalType": "uint256",
          "name": "firstIndex_",
          "type": "uint256"
        },
        {
          "internalType": "uint256",
          "name": "lastIndex_",
          "type": "uint256"
        }
      ],
      "name": "liveMarketsBetween",
      "outputs": [
        {
          "internalType": "uint256[]",
          "name": "",
          "type": "uint256[]"
        }
      ],
      "stateMutability": "view",
      "type": "function"
    },
    {
      "inputs": [
        {
          "internalType": "address",
          "name": "owner_",
          "type": "address"
        },
        {
          "internalType": "uint256",
          "name": "firstIndex_",
          "type": "uint256"
        },
        {
          "internalType": "uint256",
          "name": "lastIndex_",
          "type": "uint256"
        }
      ],
      "name": "liveMarketsBy",
      "outputs": [
        {
          "internalType": "uint256[]",
          "name": "",
          "type": "uint256[]"
        }
      ],
      "stateMutability": "view",
      "type": "function"
    },
    {
      "inputs": [
        {
          "internalType": "address",
          "name": "token_",
          "type": "address"
        },
        {
          "internalType": "bool",
          "name": "isPayout_",
          "type": "bool"
        }
      ],
      "name": "liveMarketsFor",
      "outputs": [
        {
          "internalType": "uint256[]",
          "name": "",
          "type": "uint256[]"
        }
      ],
      "stateMutability": "view",
      "type": "function"
    },
    {
      "inputs": [],
      "name": "marketCounter",
      "outputs": [
        {
          "internalType": "uint256",
          "name": "",
          "type": "uint256"
        }
      ],
      "stateMutability": "view",
      "type": "function"
    },
    {
      "inputs": [
        {
          "internalType": "uint256",
          "name": "id_",
          "type": "uint256"
        }
      ],
      "name": "marketPrice",
      "outputs": [
        {
          "internalType": "uint256",
          "name": "",
          "type": "uint256"
        }
      ],
      "stateMutability": "view",
      "type": "function"
    },
    {
      "inputs": [
        {
          "internalType": "uint256",
          "name": "id_",
          "type": "uint256"
        }
      ],
      "name": "marketScale",
      "outputs": [
        {
          "internalType": "uint256",
          "name": "",
          "type": "uint256"
        }
      ],
      "stateMutability": "view",
      "type": "function"
    },
    {
      "inputs": [
        {
          "internalType": "address",
          "name": "payout_",
          "type": "address"
        },
        {
          "internalType": "address",
          "name": "quote_",
          "type": "address"
        }
      ],
      "name": "marketsFor",
      "outputs": [
        {
          "internalType": "uint256[]",
          "name": "",
          "type": "uint256[]"
        }
      ],
      "stateMutability": "view",
      "type": "function"
    },
    {
      "inputs": [
        {
          "internalType": "address",
          "name": "",
          "type": "address"
        },
        {
          "internalType": "uint256",
          "name": "",
          "type": "uint256"
        }
      ],
      "name": "marketsForPayout",
      "outputs": [
        {
          "internalType": "uint256",
          "name": "",
          "type": "uint256"
        }
      ],
      "stateMutability": "view",
      "type": "function"
    },
    {
      "inputs": [
        {
          "internalType": "address",
          "name": "",
          "type": "address"
        },
        {
          "internalType": "uint256",
          "name": "",
          "type": "uint256"
        }
      ],
      "name": "marketsForQuote",
      "outputs": [
        {
          "internalType": "uint256",
          "name": "",
          "type": "uint256"
        }
      ],
      "stateMutability": "view",
      "type": "function"
    },
    {
      "inputs": [
        {
          "internalType": "uint256",
          "name": "",
          "type": "uint256"
        }
      ],
      "name": "marketsToAuctioneers",
      "outputs": [
        {
          "internalType": "contract IBondAuctioneer",
          "name": "",
          "type": "address"
        }
      ],
      "stateMutability": "view",
      "type": "function"
    },
    {
      "inputs": [
        {
          "internalType": "uint256",
          "name": "id_",
          "type": "uint256"
        },
        {
          "internalType": "address",
          "name": "referrer_",
          "type": "address"
        }
      ],
      "name": "maxAmountAccepted",
      "outputs": [
        {
          "internalType": "uint256",
          "name": "",
          "type": "uint256"
        }
      ],
      "stateMutability": "view",
      "type": "function"
    },
    {
      "inputs": [],
      "name": "owner",
      "outputs": [
        {
          "internalType": "address",
          "name": "",
          "type": "address"
        }
      ],
      "stateMutability": "view",
      "type": "function"
    },
    {
      "inputs": [
        {
          "internalType": "uint256",
          "name": "amount_",
          "type": "uint256"
        },
        {
          "internalType": "uint256",
          "name": "id_",
          "type": "uint256"
        },
        {
          "internalType": "address",
          "name": "referrer_",
          "type": "address"
        }
      ],
      "name": "payoutFor",
      "outputs": [
        {
          "internalType": "uint256",
          "name": "",
          "type": "uint256"
        }
      ],
      "stateMutability": "view",
      "type": "function"
    },
    {
      "inputs": [
        {
          "internalType": "contract IBondAuctioneer",
          "name": "auctioneer_",
          "type": "address"
        }
      ],
      "name": "registerAuctioneer",
      "outputs": [],
      "stateMutability": "nonpayable",
      "type": "function"
    },
    {
      "inputs": [
        {
          "internalType": "contract ERC20",
          "name": "payoutToken_",
          "type": "address"
        },
        {
          "internalType": "contract ERC20",
          "name": "quoteToken_",
          "type": "address"
        }
      ],
      "name": "registerMarket",
      "outputs": [
        {
          "internalType": "uint256",
          "name": "marketId",
          "type": "uint256"
        }
      ],
      "stateMutability": "nonpayable",
      "type": "function"
    },
    {
      "inputs": [
        {
          "internalType": "contract Authority",
          "name": "newAuthority",
          "type": "address"
        }
      ],
      "name": "setAuthority",
      "outputs": [],
      "stateMutability": "nonpayable",
      "type": "function"
    },
    {
      "inputs": [
        {
          "internalType": "address",
          "name": "newOwner",
          "type": "address"
        }
      ],
      "name": "setOwner",
      "outputs": [],
      "stateMutability": "nonpayable",
      "type": "function"
    }
  ],
  "bytecode": {
    "object": "0x60806040523480156200001157600080fd5b5060405162001b0838038062001b088339810160408190526200003491620000e8565b600080546001600160a01b03199081166001600160a01b0385811691821784556001805490931690851617909155604051849284929133917f8292fce18fa69edf4db7b94ea2e58241df0ae57f97e0a6c9b29067028bf92d7691a36040516001600160a01b0382169033907fa3396fd7f6e0a21b50e5089d2da70d5ac0a3bbbd1f617a93f134b7638998019890600090a35050505062000127565b6001600160a01b0381168114620000e557600080fd5b50565b60008060408385031215620000fc57600080fd5b82516200010981620000cf565b60208401519092506200011c81620000cf565b809150509250929050565b6119d180620001376000396000f3fe608060405234801561001057600080fd5b50600436106101335760003560e01c806306b40ea31461013857806313af40351461015e5780631c063a6c146101735780632476080714610186578063275074581461018f5780633adec5a7146101b25780634938a3fe146101c557806352047942146101e557806366b382ee1461021b57806378b5a87a1461022e5780637a9e5e4b146102415780638b098db3146102545780638da5cb5b14610267578063946824cd1461027a5780639a0fae9b1461028d578063b4359143146102a0578063bb6e75de146102b3578063bbfe3a32146102c6578063bf48582b146102d9578063bf7e214f146102ec578063c0680e20146102ff578063c3b7b13614610312578063c7bf8ca014610325578063ea5e0c6014610338578063f9e709df14610361575b600080fd5b61014b6101463660046115a6565b610374565b6040519081526020015b60405180910390f35b61017161016c3660046115d2565b6103a5565b005b61014b6101813660046115ef565b61042b565b61014b60025481565b6101a261019d3660046115ef565b6104ae565b6040519015158152602001610155565b61014b6101c03660046115ef565b61052a565b6101d86101d3366004611608565b610569565b604051610155919061163d565b61020e6101f33660046115ef565b6000908152600560205260409020546001600160a01b031690565b6040516101559190611681565b6101716102293660046115d2565b610832565b61020e61023c3660046115ef565b610907565b61017161024f3660046115d2565b61097f565b6101a26102623660046115ef565b610a69565b60005461020e906001600160a01b031681565b61014b6102883660046115ef565b610aa8565b61014b61029b366004611695565b610ae7565b61014b6102ae3660046116e6565b610d07565b6101d86102c136600461171f565b610df2565b6101d86102d43660046116e6565b610ed0565b61014b6102e7366004611741565b6111ed565b60015461020e906001600160a01b031681565b61014b61030d3660046115a6565b611279565b61020e6103203660046115ef565b611295565b61014b61033336600461177a565b6112bf565b61020e6103463660046115ef565b6005602052600090815260409020546001600160a01b031681565b6101d861036f3660046117ad565b61134a565b6006602052816000526040600020818154811061039057600080fd5b90600052602060002001600091509150505481565b6103bb336000356001600160e01b0319166114e4565b6103e05760405162461bcd60e51b81526004016103d7906117db565b60405180910390fd5b600080546001600160a01b0319166001600160a01b0383169081178255604051909133917f8292fce18fa69edf4db7b94ea2e58241df0ae57f97e0a6c9b29067028bf92d769190a350565b6000818152600560205260408082205490516307018e9b60e21b8152600481018490526001600160a01b03909116908190631c063a6c906024015b602060405180830381865afa158015610483573d6000803e3d6000fd5b505050506040513d601f19601f820116820180604052508101906104a79190611801565b9392505050565b6000818152600560205260408082205490516304ea0e8b60e31b8152600481018490526001600160a01b039091169081906327507458906024015b602060405180830381865afa158015610506573d6000803e3d6000fd5b505050506040513d601f19601f820116820180604052508101906104a7919061181a565b600081815260056020526040808220549051633adec5a760e01b8152600481018490526001600160a01b03909116908190633adec5a790602401610466565b6060600080845b8481101561069657600081815260056020526040908190205490516304ea0e8b60e31b8152600481018390526001600160a01b0390911692508290632750745890602401602060405180830381865afa1580156105d1573d6000803e3d6000fd5b505050506040513d601f19601f820116820180604052508101906105f5919061181a565b801561067557506040516331a9108f60e11b8152600481018290526001600160a01b038089169190841690636352211e90602401602060405180830381865afa158015610646573d6000803e3d6000fd5b505050506040513d601f19601f8201168201806040525081019061066a9190611837565b6001600160a01b0316145b15610686576106838361186a565b92505b61068f8161186a565b9050610570565b506000826001600160401b038111156106b1576106b1611883565b6040519080825280602002602001820160405280156106da578160200160208202803683370190505b50600093509050855b8581101561082757600081815260056020526040908190205490516304ea0e8b60e31b8152600481018390526001600160a01b0390911693508390632750745890602401602060405180830381865afa158015610744573d6000803e3d6000fd5b505050506040513d601f19601f82011682018060405250810190610768919061181a565b80156107e857506040516331a9108f60e11b8152600481018290526001600160a01b03808a169190851690636352211e90602401602060405180830381865afa1580156107b9573d6000803e3d6000fd5b505050506040513d601f19601f820116820180604052508101906107dd9190611837565b6001600160a01b0316145b15610817578082858151811061080057610800611899565b60209081029190910101526108148461186a565b93505b6108208161186a565b90506106e3565b509695505050505050565b610848336000356001600160e01b0319166114e4565b6108645760405162461bcd60e51b81526004016103d7906117db565b6001600160a01b03811660009081526004602052604090205460ff16156108a057806040516365d4ef7160e11b81526004016103d79190611681565b6003805460018181019092557fc2575a0e9e593c00f959f8c92f12db2869c3395a3b0502d05e2516446f71f85b0180546001600160a01b039093166001600160a01b031990931683179055600091825260046020526040909120805460ff19169091179055565b6000818152600560209081526040808320548151639787d10760e01b815291516001600160a01b03909116928392639787d10792600480830193928290030181865afa15801561095b573d6000803e3d6000fd5b505050506040513d601f19601f820116820180604052508101906104a79190611837565b6000546001600160a01b0316331480610a14575060015460405163b700961360e01b81526001600160a01b039091169063b7009613906109d390339030906001600160e01b031960003516906004016118af565b602060405180830381865afa1580156109f0573d6000803e3d6000fd5b505050506040513d601f19601f82011682018060405250810190610a14919061181a565b610a1d57600080fd5b600180546001600160a01b0319166001600160a01b03831690811790915560405133907fa3396fd7f6e0a21b50e5089d2da70d5ac0a3bbbd1f617a93f134b7638998019890600090a350565b600081815260056020526040808220549051638b098db360e01b8152600481018490526001600160a01b03909116908190638b098db3906024016104e9565b60008181526005602052604080822054905163946824cd60e01b8152600481018490526001600160a01b0390911690819063946824cd90602401610466565b600080610af48787610ed0565b80519091506000600019818080805b86811015610cf55760056000898381518110610b2157610b21611899565b6020026020010151815260200190815260200160002060009054906101000a90046001600160a01b03169150816001600160a01b031663acc5570c898381518110610b6e57610b6e611899565b60200260200101516040518263ffffffff1660e01b8152600401610b9491815260200190565b60c060405180830381865afa158015610bb1573d6000803e3d6000fd5b505050506040513d601f19601f82011682018060405250810190610bd591906118dc565b9098509650600093505050635dba240065ffffffffffff871611159050610c04578465ffffffffffff16610c16565b610c1665ffffffffffff861642611964565b90508a8111610ce457838c11610ce457826001600160a01b031663bf48582b8e8b8581518110610c4857610c48611899565b602002602001015160006040518463ffffffff1660e01b8152600401610c709392919061197c565b602060405180830381865afa925050508015610ca9575060408051601f3d908101601f19168201909252610ca691810190611801565b60015b15610ce4578781118015610cbd57508c8110155b15610ce257809750898381518110610cd757610cd7611899565b602002602001015196505b505b50610cee8161186a565b9050610b03565b50929c9b505050505050505050505050565b3360009081526004602052604081205460ff16610d37576040516323fbaaa960e21b815260040160405180910390fd5b6001600160a01b0383161580610d5457506001600160a01b038216155b15610d715760405162c61b1560e11b815260040160405180910390fd5b5060028054600081815260056020908152604080832080546001600160a01b031916331790556001600160a01b0387811684526006835281842080546001818101835591865284862001869055908716845260078352908320805491820181558352908220018290558254919291610de89061186a565b9091555092915050565b60606000835b83811015610e2a57610e09816104ae565b15610e1a57610e178261186a565b91505b610e238161186a565b9050610df8565b506000816001600160401b03811115610e4557610e45611883565b604051908082528060200260200182016040528015610e6e578160200160208202803683370190505b50600092509050845b84811015610ec757610e88816104ae565b15610eb75780828481518110610ea057610ea0611899565b6020908102919091010152610eb48361186a565b92505b610ec08161186a565b9050610e77565b50949350505050565b60606000610edf84600161134a565b90506000806000808451905060005b8181101561102b5760056000878381518110610f0c57610f0c611899565b6020026020010151815260200190815260200160002060009054906101000a90046001600160a01b03169250826001600160a01b031663acc5570c878381518110610f5957610f59611899565b60200260200101516040518263ffffffff1660e01b8152600401610f7f91815260200190565b60c060405180830381865afa158015610f9c573d6000803e3d6000fd5b505050506040513d601f19601f82011682018060405250810190610fc091906118dc565b50508951909750610fed93508992508491508110610fe057610fe0611899565b60200260200101516104ae565b801561100a5750876001600160a01b0316846001600160a01b0316145b1561101b576110188561186a565b94505b6110248161186a565b9050610eee565b506000846001600160401b0381111561104657611046611883565b60405190808252806020026020018201604052801561106f578160200160208202803683370190505b5090506000945060005b828110156111e0576005600088838151811061109757611097611899565b6020026020010151815260200190815260200160002060009054906101000a90046001600160a01b03169350836001600160a01b031663acc5570c8883815181106110e4576110e4611899565b60200260200101516040518263ffffffff1660e01b815260040161110a91815260200190565b60c060405180830381865afa158015611127573d6000803e3d6000fd5b505050506040513d601f19601f8201168201806040525081019061114b91906118dc565b50508a5190985061116b93508a92508491508110610fe057610fe0611899565b80156111885750886001600160a01b0316856001600160a01b0316145b156111d05786818151811061119f5761119f611899565b60200260200101518287815181106111b9576111b9611899565b60209081029190910101526111cd8661186a565b95505b6111d98161186a565b9050611079565b5098975050505050505050565b60008281526005602052604080822054905163bf48582b60e01b81526001600160a01b0390911690819063bf48582b9061122f9088908890889060040161197c565b602060405180830381865afa15801561124c573d6000803e3d6000fd5b505050506040513d601f19601f820116820180604052508101906112709190611801565b95945050505050565b6007602052816000526040600020818154811061039057600080fd5b600381815481106112a557600080fd5b6000918252602090912001546001600160a01b0316905081565b60008281526005602052604080822054905163063dfc6560e51b8152600481018590526001600160a01b03848116602483015290911690819063c7bf8ca090604401602060405180830381865afa15801561131e573d6000803e3d6000fd5b505050506040513d601f19601f820116820180604052508101906113429190611801565b949350505050565b6060808261136f576001600160a01b0384166000908152600760205260409020611388565b6001600160a01b03841660009081526006602052604090205b8054806020026020016040519081016040528092919081815260200182805480156113d257602002820191906000526020600020905b8154815260200190600101908083116113be575b505050505090506000808251905060005b8181101561142157611400848281518110610fe057610fe0611899565b156114115761140e8361186a565b92505b61141a8161186a565b90506113e3565b506000826001600160401b0381111561143c5761143c611883565b604051908082528060200260200182016040528015611465578160200160208202803683370190505b5090506000925060005b828110156108275761148c858281518110610fe057610fe0611899565b156114d4578481815181106114a3576114a3611899565b60200260200101518285815181106114bd576114bd611899565b60209081029190910101526114d18461186a565b93505b6114dd8161186a565b905061146f565b6001546000906001600160a01b0316801580159061156e575060405163b700961360e01b81526001600160a01b0382169063b70096139061152d908790309088906004016118af565b602060405180830381865afa15801561154a573d6000803e3d6000fd5b505050506040513d601f19601f8201168201806040525081019061156e919061181a565b8061134257506000546001600160a01b0385811691161491505092915050565b6001600160a01b03811681146115a357600080fd5b50565b600080604083850312156115b957600080fd5b82356115c48161158e565b946020939093013593505050565b6000602082840312156115e457600080fd5b81356104a78161158e565b60006020828403121561160157600080fd5b5035919050565b60008060006060848603121561161d57600080fd5b83356116288161158e565b95602085013595506040909401359392505050565b6020808252825182820181905260009190848201906040850190845b8181101561167557835183529284019291840191600101611659565b50909695505050505050565b6001600160a01b0391909116815260200190565b600080600080600060a086880312156116ad57600080fd5b85356116b88161158e565b945060208601356116c88161158e565b94979496505050506040830135926060810135926080909101359150565b600080604083850312156116f957600080fd5b82356117048161158e565b915060208301356117148161158e565b809150509250929050565b6000806040838503121561173257600080fd5b50508035926020909101359150565b60008060006060848603121561175657600080fd5b8335925060208401359150604084013561176f8161158e565b809150509250925092565b6000806040838503121561178d57600080fd5b8235915060208301356117148161158e565b80151581146115a357600080fd5b600080604083850312156117c057600080fd5b82356117cb8161158e565b915060208301356117148161179f565b6020808252600c908201526b15539055551213d49256915160a21b604082015260600190565b60006020828403121561181357600080fd5b5051919050565b60006020828403121561182c57600080fd5b81516104a78161179f565b60006020828403121561184957600080fd5b81516104a78161158e565b634e487b7160e01b600052601160045260246000fd5b60006001820161187c5761187c611854565b5060010190565b634e487b7160e01b600052604160045260246000fd5b634e487b7160e01b600052603260045260246000fd5b6001600160a01b0393841681529190921660208201526001600160e01b0319909116604082015260600190565b60008060008060008060c087890312156118f557600080fd5b86516119008161158e565b60208801519096506119118161158e565b60408801519095506119228161158e565b60608801519094506119338161158e565b608088015190935065ffffffffffff8116811461194f57600080fd5b8092505060a087015190509295509295509295565b6000821982111561197757611977611854565b500190565b92835260208301919091526001600160a01b031660408201526060019056fea2646970667358221220ca70bd08d039a85e94ac464a69e5e11831e32b891b6a6c9ab18d7ab3af1a3cf864736f6c634300080f0033",
    "linkReferences": {}
  },
  "methodIdentifiers": {
    "auctioneers(uint256)": "c3b7b136",
    "authority()": "bf7e214f",
    "currentCapacity(uint256)": "1c063a6c",
    "findMarketFor(address,address,uint256,uint256,uint256)": "9a0fae9b",
    "getAuctioneer(uint256)": "52047942",
    "getTeller(uint256)": "78b5a87a",
    "isInstantSwap(uint256)": "8b098db3",
    "isLive(uint256)": "27507458",
    "liveMarketsBetween(uint256,uint256)": "bb6e75de",
    "liveMarketsBy(address,uint256,uint256)": "4938a3fe",
    "liveMarketsFor(address,bool)": "f9e709df",
    "marketCounter()": "24760807",
    "marketPrice(uint256)": "3adec5a7",
    "marketScale(uint256)": "946824cd",
    "marketsFor(address,address)": "bbfe3a32",
    "marketsForPayout(address,uint256)": "06b40ea3",
    "marketsForQuote(address,uint256)": "c0680e20",
    "marketsToAuctioneers(uint256)": "ea5e0c60",
    "maxAmountAccepted(uint256,address)": "c7bf8ca0",
    "owner()": "8da5cb5b",
    "payoutFor(uint256,uint256,address)": "bf48582b",
    "registerAuctioneer(address)": "66b382ee",
    "registerMarket(address,address)": "b4359143",
    "setAuthority(address)": "7a9e5e4b",
    "setOwner(address)": "13af4035"
  },
  "id": 100
}