{
  "abi": [
    {
      "inputs": [
        {
          "internalType": "address",
          "name": "guardian_",
          "type": "address"
        },
        {
          "internalType": "contract Authority",
          "name": "authority_",
          "type": "address"
        }
      ],
      "stateMutability": "nonpayable",
      "type": "constructor"
    },
    {
      "inputs": [
        {
          "internalType": "address",
          "name": "auctioneer_",
          "type": "address"
        }
      ],
      "name": "Aggregator_AlreadyRegistered",
      "type": "error"
    },
    {
      "inputs": [],
      "name": "Aggregator_InvalidParams",
      "type": "error"
    },
    {
      "inputs": [],
      "name": "Aggregator_OnlyAuctioneer",
      "type": "error"
    },
    {
      "anonymous": false,
      "inputs": [
        {
          "indexed": true,
          "internalType": "address",
          "name": "user",
          "type": "address"
        },
        {
          "indexed": true,
          "internalType": "contract Authority",
          "name": "newAuthority",
          "type": "address"
        }
      ],
      "name": "AuthorityUpdated",
      "type": "event"
    },
    {
      "anonymous": false,
      "inputs": [
        {
          "indexed": true,
          "internalType": "address",
          "name": "user",
          "type": "address"
        },
        {
          "indexed": true,
          "internalType": "address",
          "name": "newOwner",
          "type": "address"
        }
      ],
      "name": "OwnerUpdated",
      "type": "event"
    },
    {
      "inputs": [
        {
          "internalType": "uint256",
          "name": "",
          "type": "uint256"
        }
      ],
      "name": "auctioneers",
      "outputs": [
        {
          "internalType": "contract IBondAuctioneer",
          "name": "",
          "type": "address"
        }
      ],
      "stateMutability": "view",
      "type": "function"
    },
    {
      "inputs": [],
      "name": "authority",
      "outputs": [
        {
          "internalType": "contract Authority",
          "name": "",
          "type": "address"
        }
      ],
      "stateMutability": "view",
      "type": "function"
    },
    {
      "inputs": [
        {
          "internalType": "uint256",
          "name": "id_",
          "type": "uint256"
        }
      ],
      "name": "currentCapacity",
      "outputs": [
        {
          "internalType": "uint256",
          "name": "",
          "type": "uint256"
        }
      ],
      "stateMutability": "view",
      "type": "function"
    },
    {
      "inputs": [
        {
          "internalType": "address",
          "name": "payout_",
          "type": "address"
        },
        {
          "internalType": "address",
          "name": "quote_",
          "type": "address"
        },
        {
          "internalType": "uint256",
          "name": "amountIn_",
          "type": "uint256"
        },
        {
          "internalType": "uint256",
          "name": "minAmountOut_",
          "type": "uint256"
        },
        {
          "internalType": "uint256",
          "name": "maxExpiry_",
          "type": "uint256"
        }
      ],
      "name": "findMarketFor",
      "outputs": [
        {
          "internalType": "uint256",
          "name": "",
          "type": "uint256"
        }
      ],
      "stateMutability": "view",
      "type": "function"
    },
    {
      "inputs": [
        {
          "internalType": "uint256",
          "name": "id_",
          "type": "uint256"
        }
      ],
      "name": "getAuctioneer",
      "outputs": [
        {
          "internalType": "contract IBondAuctioneer",
          "name": "",
          "type": "address"
        }
      ],
      "stateMutability": "view",
      "type": "function"
    },
    {
      "inputs": [
        {
          "internalType": "uint256",
          "name": "id_",
          "type": "uint256"
        }
      ],
      "name": "getTeller",
      "outputs": [
        {
          "internalType": "contract IBondTeller",
          "name": "",
          "type": "address"
        }
      ],
      "stateMutability": "view",
      "type": "function"
    },
    {
      "inputs": [
        {
          "internalType": "uint256",
          "name": "id_",
          "type": "uint256"
        }
      ],
      "name": "isInstantSwap",
      "outputs": [
        {
          "internalType": "bool",
          "name": "",
          "type": "bool"
        }
      ],
      "stateMutability": "view",
      "type": "function"
    },
    {
      "inputs": [
        {
          "internalType": "uint256",
          "name": "id_",
          "type": "uint256"
        }
      ],
      "name": "isLive",
      "outputs": [
        {
          "internalType": "bool",
          "name": "",
          "type": "bool"
        }
      ],
      "stateMutability": "view",
      "type": "function"
    },
    {
      "inputs": [
        {
          "internalType": "uint256",
          "name": "firstIndex_",
          "type": "uint256"
        },
        {
          "internalType": "uint256",
          "name": "lastIndex_",
          "type": "uint256"
        }
      ],
      "name": "liveMarketsBetween",
      "outputs": [
        {
          "internalType": "uint256[]",
          "name": "",
          "type": "uint256[]"
        }
      ],
      "stateMutability": "view",
      "type": "function"
    },
    {
      "inputs": [
        {
          "internalType": "address",
          "name": "owner_",
          "type": "address"
        },
        {
          "internalType": "uint256",
          "name": "firstIndex_",
          "type": "uint256"
        },
        {
          "internalType": "uint256",
          "name": "lastIndex_",
          "type": "uint256"
        }
      ],
      "name": "liveMarketsBy",
      "outputs": [
        {
          "internalType": "uint256[]",
          "name": "",
          "type": "uint256[]"
        }
      ],
      "stateMutability": "view",
      "type": "function"
    },
    {
      "inputs": [
        {
          "internalType": "address",
          "name": "token_",
          "type": "address"
        },
        {
          "internalType": "bool",
          "name": "isPayout_",
          "type": "bool"
        }
      ],
      "name": "liveMarketsFor",
      "outputs": [
        {
          "internalType": "uint256[]",
          "name": "",
          "type": "uint256[]"
        }
      ],
      "stateMutability": "view",
      "type": "function"
    },
    {
      "inputs": [],
      "name": "marketCounter",
      "outputs": [
        {
          "internalType": "uint256",
          "name": "",
          "type": "uint256"
        }
      ],
      "stateMutability": "view",
      "type": "function"
    },
    {
      "inputs": [
        {
          "internalType": "uint256",
          "name": "id_",
          "type": "uint256"
        }
      ],
      "name": "marketPrice",
      "outputs": [
        {
          "internalType": "uint256",
          "name": "",
          "type": "uint256"
        }
      ],
      "stateMutability": "view",
      "type": "function"
    },
    {
      "inputs": [
        {
          "internalType": "uint256",
          "name": "id_",
          "type": "uint256"
        }
      ],
      "name": "marketScale",
      "outputs": [
        {
          "internalType": "uint256",
          "name": "",
          "type": "uint256"
        }
      ],
      "stateMutability": "view",
      "type": "function"
    },
    {
      "inputs": [
        {
          "internalType": "address",
          "name": "payout_",
          "type": "address"
        },
        {
          "internalType": "address",
          "name": "quote_",
          "type": "address"
        }
      ],
      "name": "marketsFor",
      "outputs": [
        {
          "internalType": "uint256[]",
          "name": "",
          "type": "uint256[]"
        }
      ],
      "stateMutability": "view",
      "type": "function"
    },
    {
      "inputs": [
        {
          "internalType": "address",
          "name": "",
          "type": "address"
        },
        {
          "internalType": "uint256",
          "name": "",
          "type": "uint256"
        }
      ],
      "name": "marketsForPayout",
      "outputs": [
        {
          "internalType": "uint256",
          "name": "",
          "type": "uint256"
        }
      ],
      "stateMutability": "view",
      "type": "function"
    },
    {
      "inputs": [
        {
          "internalType": "address",
          "name": "",
          "type": "address"
        },
        {
          "internalType": "uint256",
          "name": "",
          "type": "uint256"
        }
      ],
      "name": "marketsForQuote",
      "outputs": [
        {
          "internalType": "uint256",
          "name": "",
          "type": "uint256"
        }
      ],
      "stateMutability": "view",
      "type": "function"
    },
    {
      "inputs": [
        {
          "internalType": "uint256",
          "name": "",
          "type": "uint256"
        }
      ],
      "name": "marketsToAuctioneers",
      "outputs": [
        {
          "internalType": "contract IBondAuctioneer",
          "name": "",
          "type": "address"
        }
      ],
      "stateMutability": "view",
      "type": "function"
    },
    {
      "inputs": [
        {
          "internalType": "uint256",
          "name": "id_",
          "type": "uint256"
        },
        {
          "internalType": "address",
          "name": "referrer_",
          "type": "address"
        }
      ],
      "name": "maxAmountAccepted",
      "outputs": [
        {
          "internalType": "uint256",
          "name": "",
          "type": "uint256"
        }
      ],
      "stateMutability": "view",
      "type": "function"
    },
    {
      "inputs": [],
      "name": "owner",
      "outputs": [
        {
          "internalType": "address",
          "name": "",
          "type": "address"
        }
      ],
      "stateMutability": "view",
      "type": "function"
    },
    {
      "inputs": [
        {
          "internalType": "uint256",
          "name": "amount_",
          "type": "uint256"
        },
        {
          "internalType": "uint256",
          "name": "id_",
          "type": "uint256"
        },
        {
          "internalType": "address",
          "name": "referrer_",
          "type": "address"
        }
      ],
      "name": "payoutFor",
      "outputs": [
        {
          "internalType": "uint256",
          "name": "",
          "type": "uint256"
        }
      ],
      "stateMutability": "view",
      "type": "function"
    },
    {
      "inputs": [
        {
          "internalType": "contract IBondAuctioneer",
          "name": "auctioneer_",
          "type": "address"
        }
      ],
      "name": "registerAuctioneer",
      "outputs": [],
      "stateMutability": "nonpayable",
      "type": "function"
    },
    {
      "inputs": [
        {
          "internalType": "contract ERC20",
          "name": "payoutToken_",
          "type": "address"
        },
        {
          "internalType": "contract ERC20",
          "name": "quoteToken_",
          "type": "address"
        }
      ],
      "name": "registerMarket",
      "outputs": [
        {
          "internalType": "uint256",
          "name": "marketId",
          "type": "uint256"
        }
      ],
      "stateMutability": "nonpayable",
      "type": "function"
    },
    {
      "inputs": [
        {
          "internalType": "contract Authority",
          "name": "newAuthority",
          "type": "address"
        }
      ],
      "name": "setAuthority",
      "outputs": [],
      "stateMutability": "nonpayable",
      "type": "function"
    },
    {
      "inputs": [
        {
          "internalType": "address",
          "name": "newOwner",
          "type": "address"
        }
      ],
      "name": "setOwner",
      "outputs": [],
      "stateMutability": "nonpayable",
      "type": "function"
    }
  ],
  "bytecode": {
    "object": "0x60806040523480156200001157600080fd5b506040516200216a3803806200216a8339810160408190526200003491620000e8565b600080546001600160a01b03199081166001600160a01b0385811691821784556001805490931690851617909155604051849284929133917f8292fce18fa69edf4db7b94ea2e58241df0ae57f97e0a6c9b29067028bf92d7691a36040516001600160a01b0382169033907fa3396fd7f6e0a21b50e5089d2da70d5ac0a3bbbd1f617a93f134b7638998019890600090a35050505062000127565b6001600160a01b0381168114620000e557600080fd5b50565b60008060408385031215620000fc57600080fd5b82516200010981620000cf565b60208401519092506200011c81620000cf565b809150509250929050565b61203380620001376000396000f3fe608060405234801561001057600080fd5b50600436106101a35760003560e01c80638da5cb5b116100ee578063bf48582b11610097578063c3b7b13611610071578063c3b7b136146103c1578063c7bf8ca0146103d4578063ea5e0c60146103e7578063f9e709df1461041d57600080fd5b8063bf48582b1461037b578063bf7e214f1461038e578063c0680e20146103ae57600080fd5b8063b4359143116100c8578063b435914314610342578063bb6e75de14610355578063bbfe3a321461036857600080fd5b80638da5cb5b146102fc578063946824cd1461031c5780639a0fae9b1461032f57600080fd5b80634938a3fe1161015057806378b5a87a1161012a57806378b5a87a146102c35780637a9e5e4b146102d65780638b098db3146102e957600080fd5b80634938a3fe14610235578063520479421461025557806366b382ee146102b057600080fd5b8063247608071161018157806324760807146101f657806327507458146101ff5780633adec5a71461022257600080fd5b806306b40ea3146101a857806313af4035146101ce5780631c063a6c146101e3575b600080fd5b6101bb6101b6366004611c24565b610430565b6040519081526020015b60405180910390f35b6101e16101dc366004611c50565b610461565b005b6101bb6101f1366004611c6d565b61056a565b6101bb60025481565b61021261020d366004611c6d565b610613565b60405190151581526020016101c5565b6101bb610230366004611c6d565b6106b5565b610248610243366004611c86565b61071a565b6040516101c59190611cbb565b61028b610263366004611c6d565b60009081526005602052604090205473ffffffffffffffffffffffffffffffffffffffff1690565b60405173ffffffffffffffffffffffffffffffffffffffff90911681526020016101c5565b6101e16102be366004611c50565b610a96565b61028b6102d1366004611c6d565b610c4c565b6101e16102e4366004611c50565b610cea565b6102126102f7366004611c6d565b610e47565b60005461028b9073ffffffffffffffffffffffffffffffffffffffff1681565b6101bb61032a366004611c6d565b610eac565b6101bb61033d366004611cff565b610f11565b6101bb610350366004611d50565b6111ba565b610248610363366004611d89565b611317565b610248610376366004611d50565b6113f6565b6101bb610389366004611dab565b61177c565b60015461028b9073ffffffffffffffffffffffffffffffffffffffff1681565b6101bb6103bc366004611c24565b611835565b61028b6103cf366004611c6d565b611851565b6101bb6103e2366004611de4565b611888565b61028b6103f5366004611c6d565b60056020526000908152604090205473ffffffffffffffffffffffffffffffffffffffff1681565b61024861042b366004611e17565b611939565b6006602052816000526040600020818154811061044c57600080fd5b90600052602060002001600091509150505481565b61048f336000357fffffffff0000000000000000000000000000000000000000000000000000000016611aee565b6104fa576040517f08c379a000000000000000000000000000000000000000000000000000000000815260206004820152600c60248201527f554e415554484f52495a4544000000000000000000000000000000000000000060448201526064015b60405180910390fd5b600080547fffffffffffffffffffffffff00000000000000000000000000000000000000001673ffffffffffffffffffffffffffffffffffffffff83169081178255604051909133917f8292fce18fa69edf4db7b94ea2e58241df0ae57f97e0a6c9b29067028bf92d769190a350565b6000818152600560205260408082205490517f1c063a6c0000000000000000000000000000000000000000000000000000000081526004810184905273ffffffffffffffffffffffffffffffffffffffff909116908190631c063a6c906024015b602060405180830381865afa1580156105e8573d6000803e3d6000fd5b505050506040513d601f19601f8201168201806040525081019061060c9190611e45565b9392505050565b6000818152600560205260408082205490517f275074580000000000000000000000000000000000000000000000000000000081526004810184905273ffffffffffffffffffffffffffffffffffffffff9091169081906327507458906024015b602060405180830381865afa158015610691573d6000803e3d6000fd5b505050506040513d601f19601f8201168201806040525081019061060c9190611e5e565b6000818152600560205260408082205490517f3adec5a70000000000000000000000000000000000000000000000000000000081526004810184905273ffffffffffffffffffffffffffffffffffffffff909116908190633adec5a7906024016105cb565b6060600080845b848110156108a057600081815260056020526040908190205490517f275074580000000000000000000000000000000000000000000000000000000081526004810183905273ffffffffffffffffffffffffffffffffffffffff90911692508290632750745890602401602060405180830381865afa1580156107a8573d6000803e3d6000fd5b505050506040513d601f19601f820116820180604052508101906107cc9190611e5e565b801561087f57506040517f6352211e0000000000000000000000000000000000000000000000000000000081526004810182905273ffffffffffffffffffffffffffffffffffffffff8089169190841690636352211e90602401602060405180830381865afa158015610843573d6000803e3d6000fd5b505050506040513d601f19601f820116820180604052508101906108679190611e7b565b73ffffffffffffffffffffffffffffffffffffffff16145b156108905761088d83611ec7565b92505b61089981611ec7565b9050610721565b5060008267ffffffffffffffff8111156108bc576108bc611eff565b6040519080825280602002602001820160405280156108e5578160200160208202803683370190505b50600093509050855b85811015610a8b57600081815260056020526040908190205490517f275074580000000000000000000000000000000000000000000000000000000081526004810183905273ffffffffffffffffffffffffffffffffffffffff90911693508390632750745890602401602060405180830381865afa158015610975573d6000803e3d6000fd5b505050506040513d601f19601f820116820180604052508101906109999190611e5e565b8015610a4c57506040517f6352211e0000000000000000000000000000000000000000000000000000000081526004810182905273ffffffffffffffffffffffffffffffffffffffff808a169190851690636352211e90602401602060405180830381865afa158015610a10573d6000803e3d6000fd5b505050506040513d601f19601f82011682018060405250810190610a349190611e7b565b73ffffffffffffffffffffffffffffffffffffffff16145b15610a7b5780828581518110610a6457610a64611f2e565b6020908102919091010152610a7884611ec7565b93505b610a8481611ec7565b90506108ee565b509695505050505050565b610ac4336000357fffffffff0000000000000000000000000000000000000000000000000000000016611aee565b610b2a576040517f08c379a000000000000000000000000000000000000000000000000000000000815260206004820152600c60248201527f554e415554484f52495a4544000000000000000000000000000000000000000060448201526064016104f1565b73ffffffffffffffffffffffffffffffffffffffff811660009081526004602052604090205460ff1615610ba2576040517fcba9dee200000000000000000000000000000000000000000000000000000000815273ffffffffffffffffffffffffffffffffffffffff821660048201526024016104f1565b6003805460018181019092557fc2575a0e9e593c00f959f8c92f12db2869c3395a3b0502d05e2516446f71f85b01805473ffffffffffffffffffffffffffffffffffffffff9093167fffffffffffffffffffffffff00000000000000000000000000000000000000009093168317905560009182526004602052604090912080547fffffffffffffffffffffffffffffffffffffffffffffffffffffffffffffff00169091179055565b60008181526005602090815260408083205481517f9787d107000000000000000000000000000000000000000000000000000000008152915173ffffffffffffffffffffffffffffffffffffffff909116928392639787d10792600480830193928290030181865afa158015610cc6573d6000803e3d6000fd5b505050506040513d601f19601f8201168201806040525081019061060c9190611e7b565b60005473ffffffffffffffffffffffffffffffffffffffff16331480610dcd57506001546040517fb70096130000000000000000000000000000000000000000000000000000000081523360048201523060248201526000357fffffffff0000000000000000000000000000000000000000000000000000000016604482015273ffffffffffffffffffffffffffffffffffffffff9091169063b700961390606401602060405180830381865afa158015610da9573d6000803e3d6000fd5b505050506040513d601f19601f82011682018060405250810190610dcd9190611e5e565b610dd657600080fd5b600180547fffffffffffffffffffffffff00000000000000000000000000000000000000001673ffffffffffffffffffffffffffffffffffffffff831690811790915560405133907fa3396fd7f6e0a21b50e5089d2da70d5ac0a3bbbd1f617a93f134b7638998019890600090a350565b6000818152600560205260408082205490517f8b098db30000000000000000000000000000000000000000000000000000000081526004810184905273ffffffffffffffffffffffffffffffffffffffff909116908190638b098db390602401610674565b6000818152600560205260408082205490517f946824cd0000000000000000000000000000000000000000000000000000000081526004810184905273ffffffffffffffffffffffffffffffffffffffff90911690819063946824cd906024016105cb565b600080610f1e87876113f6565b805190915060007fffffffffffffffffffffffffffffffffffffffffffffffffffffffffffffffff818080805b868110156111a85760056000898381518110610f6957610f69611f2e565b6020026020010151815260200190815260200160002060009054906101000a900473ffffffffffffffffffffffffffffffffffffffff1691508173ffffffffffffffffffffffffffffffffffffffff1663acc5570c898381518110610fd057610fd0611f2e565b60200260200101516040518263ffffffff1660e01b8152600401610ff691815260200190565b60c060405180830381865afa158015611013573d6000803e3d6000fd5b505050506040513d601f19601f820116820180604052508101906110379190611f5d565b9098509650600093505050635dba240065ffffffffffff871611159050611066578465ffffffffffff16611078565b61107865ffffffffffff861642611fe5565b90508a811161119757838c11611197578273ffffffffffffffffffffffffffffffffffffffff1663bf48582b8e8b85815181106110b7576110b7611f2e565b60209081029190910101516040517fffffffff0000000000000000000000000000000000000000000000000000000060e085901b1681526004810192909252602482015260006044820152606401602060405180830381865afa92505050801561115c575060408051601f3d9081017fffffffffffffffffffffffffffffffffffffffffffffffffffffffffffffffe016820190925261115991810190611e45565b60015b1561119757878111801561117057508c8110155b156111955780975089838151811061118a5761118a611f2e565b602002602001015196505b505b506111a181611ec7565b9050610f4b565b50929c9b505050505050505050505050565b3360009081526004602052604081205460ff16611203576040517f8feeaaa400000000000000000000000000000000000000000000000000000000815260040160405180910390fd5b73ffffffffffffffffffffffffffffffffffffffff8316158061123a575073ffffffffffffffffffffffffffffffffffffffff8216155b15611271576040517f018c362a00000000000000000000000000000000000000000000000000000000815260040160405180910390fd5b5060028054600081815260056020908152604080832080547fffffffffffffffffffffffff0000000000000000000000000000000000000000163317905573ffffffffffffffffffffffffffffffffffffffff8781168452600683528184208054600181810183559186528486200186905590871684526007835290832080549182018155835290822001829055825491929161130d90611ec7565b9091555092915050565b60606000835b8381101561134f5761132e81610613565b1561133f5761133c82611ec7565b91505b61134881611ec7565b905061131d565b5060008167ffffffffffffffff81111561136b5761136b611eff565b604051908082528060200260200182016040528015611394578160200160208202803683370190505b50600092509050845b848110156113ed576113ae81610613565b156113dd57808284815181106113c6576113c6611f2e565b60209081029190910101526113da83611ec7565b92505b6113e681611ec7565b905061139d565b50949350505050565b60606000611405846001611939565b90506000806000808451905060005b81811015611585576005600087838151811061143257611432611f2e565b6020026020010151815260200190815260200160002060009054906101000a900473ffffffffffffffffffffffffffffffffffffffff1692508273ffffffffffffffffffffffffffffffffffffffff1663acc5570c87838151811061149957611499611f2e565b60200260200101516040518263ffffffff1660e01b81526004016114bf91815260200190565b60c060405180830381865afa1580156114dc573d6000803e3d6000fd5b505050506040513d601f19601f820116820180604052508101906115009190611f5d565b5050895190975061152d9350899250849150811061152057611520611f2e565b6020026020010151610613565b801561156457508773ffffffffffffffffffffffffffffffffffffffff168473ffffffffffffffffffffffffffffffffffffffff16145b156115755761157285611ec7565b94505b61157e81611ec7565b9050611414565b5060008467ffffffffffffffff8111156115a1576115a1611eff565b6040519080825280602002602001820160405280156115ca578160200160208202803683370190505b5090506000945060005b8281101561176f57600560008883815181106115f2576115f2611f2e565b6020026020010151815260200190815260200160002060009054906101000a900473ffffffffffffffffffffffffffffffffffffffff1693508373ffffffffffffffffffffffffffffffffffffffff1663acc5570c88838151811061165957611659611f2e565b60200260200101516040518263ffffffff1660e01b815260040161167f91815260200190565b60c060405180830381865afa15801561169c573d6000803e3d6000fd5b505050506040513d601f19601f820116820180604052508101906116c09190611f5d565b50508a519098506116e093508a9250849150811061152057611520611f2e565b801561171757508873ffffffffffffffffffffffffffffffffffffffff168573ffffffffffffffffffffffffffffffffffffffff16145b1561175f5786818151811061172e5761172e611f2e565b602002602001015182878151811061174857611748611f2e565b602090810291909101015261175c86611ec7565b95505b61176881611ec7565b90506115d4565b5098975050505050505050565b6000828152600560205260408082205490517fbf48582b000000000000000000000000000000000000000000000000000000008152600481018690526024810185905273ffffffffffffffffffffffffffffffffffffffff848116604483015290911690819063bf48582b90606401602060405180830381865afa158015611808573d6000803e3d6000fd5b505050506040513d601f19601f8201168201806040525081019061182c9190611e45565b95945050505050565b6007602052816000526040600020818154811061044c57600080fd5b6003818154811061186157600080fd5b60009182526020909120015473ffffffffffffffffffffffffffffffffffffffff16905081565b6000828152600560205260408082205490517fc7bf8ca00000000000000000000000000000000000000000000000000000000081526004810185905273ffffffffffffffffffffffffffffffffffffffff848116602483015290911690819063c7bf8ca090604401602060405180830381865afa15801561190d573d6000803e3d6000fd5b505050506040513d601f19601f820116820180604052508101906119319190611e45565b949350505050565b6060808261196b5773ffffffffffffffffffffffffffffffffffffffff84166000908152600760205260409020611991565b73ffffffffffffffffffffffffffffffffffffffff841660009081526006602052604090205b8054806020026020016040519081016040528092919081815260200182805480156119db57602002820191906000526020600020905b8154815260200190600101908083116119c7575b505050505090506000808251905060005b81811015611a2a57611a0984828151811061152057611520611f2e565b15611a1a57611a1783611ec7565b92505b611a2381611ec7565b90506119ec565b5060008267ffffffffffffffff811115611a4657611a46611eff565b604051908082528060200260200182016040528015611a6f578160200160208202803683370190505b5090506000925060005b82811015610a8b57611a9685828151811061152057611520611f2e565b15611ade57848181518110611aad57611aad611f2e565b6020026020010151828581518110611ac757611ac7611f2e565b6020908102919091010152611adb84611ec7565b93505b611ae781611ec7565b9050611a79565b60015460009073ffffffffffffffffffffffffffffffffffffffff168015801590611bd257506040517fb700961300000000000000000000000000000000000000000000000000000000815273ffffffffffffffffffffffffffffffffffffffff85811660048301523060248301527fffffffff000000000000000000000000000000000000000000000000000000008516604483015282169063b700961390606401602060405180830381865afa158015611bae573d6000803e3d6000fd5b505050506040513d601f19601f82011682018060405250810190611bd29190611e5e565b80611931575060005473ffffffffffffffffffffffffffffffffffffffff85811691161491505092915050565b73ffffffffffffffffffffffffffffffffffffffff81168114611c2157600080fd5b50565b60008060408385031215611c3757600080fd5b8235611c4281611bff565b946020939093013593505050565b600060208284031215611c6257600080fd5b813561060c81611bff565b600060208284031215611c7f57600080fd5b5035919050565b600080600060608486031215611c9b57600080fd5b8335611ca681611bff565b95602085013595506040909401359392505050565b6020808252825182820181905260009190848201906040850190845b81811015611cf357835183529284019291840191600101611cd7565b50909695505050505050565b600080600080600060a08688031215611d1757600080fd5b8535611d2281611bff565b94506020860135611d3281611bff565b94979496505050506040830135926060810135926080909101359150565b60008060408385031215611d6357600080fd5b8235611d6e81611bff565b91506020830135611d7e81611bff565b809150509250929050565b60008060408385031215611d9c57600080fd5b50508035926020909101359150565b600080600060608486031215611dc057600080fd5b83359250602084013591506040840135611dd981611bff565b809150509250925092565b60008060408385031215611df757600080fd5b823591506020830135611d7e81611bff565b8015158114611c2157600080fd5b60008060408385031215611e2a57600080fd5b8235611e3581611bff565b91506020830135611d7e81611e09565b600060208284031215611e5757600080fd5b5051919050565b600060208284031215611e7057600080fd5b815161060c81611e09565b600060208284031215611e8d57600080fd5b815161060c81611bff565b7f4e487b7100000000000000000000000000000000000000000000000000000000600052601160045260246000fd5b60007fffffffffffffffffffffffffffffffffffffffffffffffffffffffffffffffff8203611ef857611ef8611e98565b5060010190565b7f4e487b7100000000000000000000000000000000000000000000000000000000600052604160045260246000fd5b7f4e487b7100000000000000000000000000000000000000000000000000000000600052603260045260246000fd5b60008060008060008060c08789031215611f7657600080fd5b8651611f8181611bff565b6020880151909650611f9281611bff565b6040880151909550611fa381611bff565b6060880151909450611fb481611bff565b608088015190935065ffffffffffff81168114611fd057600080fd5b8092505060a087015190509295509295509295565b60008219821115611ff857611ff8611e98565b50019056fea2646970667358221220f0cf1cca015ad2efc40c7e687a09f9bfba668e47e0cf11d53c4e94c9fad16b7064736f6c634300080f0033",
    "linkReferences": {}
  },
  "methodIdentifiers": {
    "auctioneers(uint256)": "c3b7b136",
    "authority()": "bf7e214f",
    "currentCapacity(uint256)": "1c063a6c",
    "findMarketFor(address,address,uint256,uint256,uint256)": "9a0fae9b",
    "getAuctioneer(uint256)": "52047942",
    "getTeller(uint256)": "78b5a87a",
    "isInstantSwap(uint256)": "8b098db3",
    "isLive(uint256)": "27507458",
    "liveMarketsBetween(uint256,uint256)": "bb6e75de",
    "liveMarketsBy(address,uint256,uint256)": "4938a3fe",
    "liveMarketsFor(address,bool)": "f9e709df",
    "marketCounter()": "24760807",
    "marketPrice(uint256)": "3adec5a7",
    "marketScale(uint256)": "946824cd",
    "marketsFor(address,address)": "bbfe3a32",
    "marketsForPayout(address,uint256)": "06b40ea3",
    "marketsForQuote(address,uint256)": "c0680e20",
    "marketsToAuctioneers(uint256)": "ea5e0c60",
    "maxAmountAccepted(uint256,address)": "c7bf8ca0",
    "owner()": "8da5cb5b",
    "payoutFor(uint256,uint256,address)": "bf48582b",
    "registerAuctioneer(address)": "66b382ee",
    "registerMarket(address,address)": "b4359143",
    "setAuthority(address)": "7a9e5e4b",
    "setOwner(address)": "13af4035"
  },
  "id": 122
}