{
  "abi": [
    {
      "inputs": [
        {
          "internalType": "address",
          "name": "token0_",
          "type": "address"
        },
        {
          "internalType": "address",
          "name": "token1_",
          "type": "address"
        }
      ],
      "stateMutability": "nonpayable",
      "type": "constructor"
    },
    {
      "inputs": [],
      "name": "getReserves",
      "outputs": [
        {
          "internalType": "uint112",
          "name": "reserve0_",
          "type": "uint112"
        },
        {
          "internalType": "uint112",
          "name": "reserve1_",
          "type": "uint112"
        },
        {
          "internalType": "uint32",
          "name": "blockTimestampLast_",
          "type": "uint32"
        }
      ],
      "stateMutability": "view",
      "type": "function"
    },
    {
      "inputs": [],
      "name": "sync",
      "outputs": [],
      "stateMutability": "nonpayable",
      "type": "function"
    },
    {
      "inputs": [],
      "name": "token0",
      "outputs": [
        {
          "internalType": "address",
          "name": "",
          "type": "address"
        }
      ],
      "stateMutability": "view",
      "type": "function"
    },
    {
      "inputs": [],
      "name": "token1",
      "outputs": [
        {
          "internalType": "address",
          "name": "",
          "type": "address"
        }
      ],
      "stateMutability": "view",
      "type": "function"
    }
  ],
  "bytecode": {
    "object": "0x608060405234801561001057600080fd5b5060405161041638038061041683398101604081905261002f9161007c565b600080546001600160a01b039384166001600160a01b031991821617909155600180549290931691161790556100af565b80516001600160a01b038116811461007757600080fd5b919050565b6000806040838503121561008f57600080fd5b61009883610060565b91506100a660208401610060565b90509250929050565b610358806100be6000396000f3fe608060405234801561001057600080fd5b506004361061004c5760003560e01c80630902f1ac146100515780630dfe1681146100bc578063d21220a714610101578063fff6cae914610121575b600080fd5b600254604080516dffffffffffffffffffffffffffff80841682526e01000000000000000000000000000084041660208201527c010000000000000000000000000000000000000000000000000000000090920463ffffffff16908201526060015b60405180910390f35b6000546100dc9073ffffffffffffffffffffffffffffffffffffffff1681565b60405173ffffffffffffffffffffffffffffffffffffffff90911681526020016100b3565b6001546100dc9073ffffffffffffffffffffffffffffffffffffffff1681565b61012961012b565b005b6000546040517f70a0823100000000000000000000000000000000000000000000000000000000815230600482015273ffffffffffffffffffffffffffffffffffffffff909116906370a0823190602401602060405180830381865afa158015610199573d6000803e3d6000fd5b505050506040513d601f19601f820116820180604052508101906101bd9190610309565b600280547fffffffffffffffffffffffffffffffffffff0000000000000000000000000000166dffffffffffffffffffffffffffff929092169190911790556001546040517f70a0823100000000000000000000000000000000000000000000000000000000815230600482015273ffffffffffffffffffffffffffffffffffffffff909116906370a0823190602401602060405180830381865afa15801561026a573d6000803e3d6000fd5b505050506040513d601f19601f8201168201806040525081019061028e9190610309565b6002805463ffffffff42167c0100000000000000000000000000000000000000000000000000000000027bffffffffffffffffffffffffffffffffffffffffffffffffffffffff6dffffffffffffffffffffffffffff9485166e01000000000000000000000000000002169390911692909217919091179055565b60006020828403121561031b57600080fd5b505191905056fea26469706673582212202841ac9f6ecee6de9169f7c3291a64b78d6a6f36a8dc77d6e74410099ef5dd7364736f6c634300080f0033",
    "linkReferences": {}
  },
  "methodIdentifiers": {
    "getReserves()": "0902f1ac",
    "sync()": "fff6cae9",
    "token0()": "0dfe1681",
    "token1()": "d21220a7"
  },
  "id": 156
}