{
  "abi": [
    {
      "inputs": [
        {
          "internalType": "address",
          "name": "_authority",
          "type": "address"
        }
      ],
      "stateMutability": "nonpayable",
      "type": "constructor"
    },
    {
      "anonymous": false,
      "inputs": [
        {
          "indexed": true,
          "internalType": "address",
          "name": "owner",
          "type": "address"
        },
        {
          "indexed": true,
          "internalType": "address",
          "name": "spender",
          "type": "address"
        },
        {
          "indexed": false,
          "internalType": "uint256",
          "name": "value",
          "type": "uint256"
        }
      ],
      "name": "Approval",
      "type": "event"
    },
    {
      "anonymous": false,
      "inputs": [
        {
          "indexed": true,
          "internalType": "contract IOlympusAuthority",
          "name": "authority",
          "type": "address"
        }
      ],
      "name": "AuthorityUpdated",
      "type": "event"
    },
    {
      "anonymous": false,
      "inputs": [
        {
          "indexed": true,
          "internalType": "address",
          "name": "from",
          "type": "address"
        },
        {
          "indexed": true,
          "internalType": "address",
          "name": "to",
          "type": "address"
        },
        {
          "indexed": false,
          "internalType": "uint256",
          "name": "value",
          "type": "uint256"
        }
      ],
      "name": "Transfer",
      "type": "event"
    },
    {
      "inputs": [],
      "name": "DOMAIN_SEPARATOR",
      "outputs": [
        {
          "internalType": "bytes32",
          "name": "",
          "type": "bytes32"
        }
      ],
      "stateMutability": "view",
      "type": "function"
    },
    {
      "inputs": [
        {
          "internalType": "address",
          "name": "owner",
          "type": "address"
        },
        {
          "internalType": "address",
          "name": "spender",
          "type": "address"
        }
      ],
      "name": "allowance",
      "outputs": [
        {
          "internalType": "uint256",
          "name": "",
          "type": "uint256"
        }
      ],
      "stateMutability": "view",
      "type": "function"
    },
    {
      "inputs": [
        {
          "internalType": "address",
          "name": "spender",
          "type": "address"
        },
        {
          "internalType": "uint256",
          "name": "amount",
          "type": "uint256"
        }
      ],
      "name": "approve",
      "outputs": [
        {
          "internalType": "bool",
          "name": "",
          "type": "bool"
        }
      ],
      "stateMutability": "nonpayable",
      "type": "function"
    },
    {
      "inputs": [],
      "name": "authority",
      "outputs": [
        {
          "internalType": "contract IOlympusAuthority",
          "name": "",
          "type": "address"
        }
      ],
      "stateMutability": "view",
      "type": "function"
    },
    {
      "inputs": [
        {
          "internalType": "address",
          "name": "account",
          "type": "address"
        }
      ],
      "name": "balanceOf",
      "outputs": [
        {
          "internalType": "uint256",
          "name": "",
          "type": "uint256"
        }
      ],
      "stateMutability": "view",
      "type": "function"
    },
    {
      "inputs": [
        {
          "internalType": "uint256",
          "name": "amount",
          "type": "uint256"
        }
      ],
      "name": "burn",
      "outputs": [],
      "stateMutability": "nonpayable",
      "type": "function"
    },
    {
      "inputs": [
        {
          "internalType": "address",
          "name": "account_",
          "type": "address"
        },
        {
          "internalType": "uint256",
          "name": "amount_",
          "type": "uint256"
        }
      ],
      "name": "burnFrom",
      "outputs": [],
      "stateMutability": "nonpayable",
      "type": "function"
    },
    {
      "inputs": [],
      "name": "decimals",
      "outputs": [
        {
          "internalType": "uint8",
          "name": "",
          "type": "uint8"
        }
      ],
      "stateMutability": "view",
      "type": "function"
    },
    {
      "inputs": [
        {
          "internalType": "address",
          "name": "spender",
          "type": "address"
        },
        {
          "internalType": "uint256",
          "name": "subtractedValue",
          "type": "uint256"
        }
      ],
      "name": "decreaseAllowance",
      "outputs": [
        {
          "internalType": "bool",
          "name": "",
          "type": "bool"
        }
      ],
      "stateMutability": "nonpayable",
      "type": "function"
    },
    {
      "inputs": [
        {
          "internalType": "address",
          "name": "recipient_",
          "type": "address"
        }
      ],
      "name": "faucetMint",
      "outputs": [],
      "stateMutability": "nonpayable",
      "type": "function"
    },
    {
      "inputs": [
        {
          "internalType": "address",
          "name": "spender",
          "type": "address"
        },
        {
          "internalType": "uint256",
          "name": "addedValue",
          "type": "uint256"
        }
      ],
      "name": "increaseAllowance",
      "outputs": [
        {
          "internalType": "bool",
          "name": "",
          "type": "bool"
        }
      ],
      "stateMutability": "nonpayable",
      "type": "function"
    },
    {
      "inputs": [
        {
          "internalType": "address",
          "name": "account_",
          "type": "address"
        },
        {
          "internalType": "uint256",
          "name": "amount_",
          "type": "uint256"
        }
      ],
      "name": "mint",
      "outputs": [],
      "stateMutability": "nonpayable",
      "type": "function"
    },
    {
      "inputs": [],
      "name": "name",
      "outputs": [
        {
          "internalType": "string",
          "name": "",
          "type": "string"
        }
      ],
      "stateMutability": "view",
      "type": "function"
    },
    {
      "inputs": [
        {
          "internalType": "address",
          "name": "owner",
          "type": "address"
        }
      ],
      "name": "nonces",
      "outputs": [
        {
          "internalType": "uint256",
          "name": "",
          "type": "uint256"
        }
      ],
      "stateMutability": "view",
      "type": "function"
    },
    {
      "inputs": [
        {
          "internalType": "address",
          "name": "owner",
          "type": "address"
        },
        {
          "internalType": "address",
          "name": "spender",
          "type": "address"
        },
        {
          "internalType": "uint256",
          "name": "value",
          "type": "uint256"
        },
        {
          "internalType": "uint256",
          "name": "deadline",
          "type": "uint256"
        },
        {
          "internalType": "uint8",
          "name": "v",
          "type": "uint8"
        },
        {
          "internalType": "bytes32",
          "name": "r",
          "type": "bytes32"
        },
        {
          "internalType": "bytes32",
          "name": "s",
          "type": "bytes32"
        }
      ],
      "name": "permit",
      "outputs": [],
      "stateMutability": "nonpayable",
      "type": "function"
    },
    {
      "inputs": [
        {
          "internalType": "contract IOlympusAuthority",
          "name": "_newAuthority",
          "type": "address"
        }
      ],
      "name": "setAuthority",
      "outputs": [],
      "stateMutability": "nonpayable",
      "type": "function"
    },
    {
      "inputs": [],
      "name": "symbol",
      "outputs": [
        {
          "internalType": "string",
          "name": "",
          "type": "string"
        }
      ],
      "stateMutability": "view",
      "type": "function"
    },
    {
      "inputs": [],
      "name": "totalSupply",
      "outputs": [
        {
          "internalType": "uint256",
          "name": "",
          "type": "uint256"
        }
      ],
      "stateMutability": "view",
      "type": "function"
    },
    {
      "inputs": [
        {
          "internalType": "address",
          "name": "recipient",
          "type": "address"
        },
        {
          "internalType": "uint256",
          "name": "amount",
          "type": "uint256"
        }
      ],
      "name": "transfer",
      "outputs": [
        {
          "internalType": "bool",
          "name": "",
          "type": "bool"
        }
      ],
      "stateMutability": "nonpayable",
      "type": "function"
    },
    {
      "inputs": [
        {
          "internalType": "address",
          "name": "sender",
          "type": "address"
        },
        {
          "internalType": "address",
          "name": "recipient",
          "type": "address"
        },
        {
          "internalType": "uint256",
          "name": "amount",
          "type": "uint256"
        }
      ],
      "name": "transferFrom",
      "outputs": [
        {
          "internalType": "bool",
          "name": "",
          "type": "bool"
        }
      ],
      "stateMutability": "nonpayable",
      "type": "function"
    }
  ],
  "bytecode": {
    "object": "0x7f6e71edae12b1b97f4d1f60370fef10105fa2faae0126114a169c64845d6126c9610160526101c0604052600c6101809081526b15539055551213d49256915160a21b6101a052600690620000559082620002d5565b503480156200006357600080fd5b506040516200194a3803806200194a8339810160408190526200008691620003a1565b806040518060400160405280600f81526020016e5445535420476f65726c692044414f60881b81525080604051806040016040528060018152602001603160f81b8152506040518060400160405280600f81526020016e5445535420476f65726c692044414f60881b815250604051806040016040528060048152602001634744414f60e01b81525060098260039081620001229190620002d5565b506004620001318382620002d5565b5060ff16608052505081516020808401919091208251918301919091206101008290526101208190524660c0527f8b73c3c69bb8fe3d512ecc4cf759cc79239f7b179b0ffacaa9a75d522b39400f620001cf8184846040805160208101859052908101839052606081018290524660808201523060a082015260009060c0016040516020818303038152906040528051906020012090509392505050565b60a0523060e052610140525050600780546001600160a01b0319166001600160a01b0386169081179091556040519093507f2f658b440c35314f52658ea8a740e05b284cdc84dc9ae01e891f21b8933e7cad925060009150a25050620003d3565b634e487b7160e01b600052604160045260246000fd5b600181811c908216806200025b57607f821691505b6020821081036200027c57634e487b7160e01b600052602260045260246000fd5b50919050565b601f821115620002d057600081815260208120601f850160051c81016020861015620002ab5750805b601f850160051c820191505b81811015620002cc57828155600101620002b7565b5050505b505050565b81516001600160401b03811115620002f157620002f162000230565b620003098162000302845462000246565b8462000282565b602080601f831160018114620003415760008415620003285750858301515b600019600386901b1c1916600185901b178555620002cc565b600085815260208120601f198616915b82811015620003725788860151825594840194600190910190840162000351565b5085821015620003915787850151600019600388901b60f8161c191681555b5050505050600190811b01905550565b600060208284031215620003b457600080fd5b81516001600160a01b0381168114620003cc57600080fd5b9392505050565b60805160a05160c05160e051610100516101205161014051610160516115116200043960003960006106d401526000610b6a01526000610bb901526000610b9401526000610aed01526000610b1701526000610b410152600061016e01526115116000f3fe608060405234801561001057600080fd5b50600436106100fc5760003560e01c806306fdde0314610101578063095ea7b31461011f57806318160ddd1461014257806323b872dd14610154578063313ce567146101675780633644e5151461019857806339509351146101a057806340c10f19146101b357806342966c68146101c857806370a08231146101db57806379cc6790146102045780637a9e5e4b146102175780637ecebe001461022a57806395d89b411461023d578063a457c2d714610245578063a9059cbb14610258578063bf7e214f1461026b578063d505accf14610296578063dd62ed3e146102a9578063fc8d44b7146102bc575b600080fd5b6101096102cf565b60405161011691906110ed565b60405180910390f35b61013261012d366004611157565b610361565b6040519015158152602001610116565b6002545b604051908152602001610116565b610132610162366004611183565b610377565b60405160ff7f0000000000000000000000000000000000000000000000000000000000000000168152602001610116565b6101466103e0565b6101326101ae366004611157565b6103ef565b6101c66101c1366004611157565b610425565b005b6101c66101d63660046111c4565b6104e8565b6101466101e93660046111dd565b6001600160a01b031660009081526020819052604090205490565b6101c6610212366004611157565b6104f5565b6101c66102253660046111dd565b6104ff565b6101466102383660046111dd565b6105f5565b610109610615565b610132610253366004611157565b610624565b610132610266366004611157565b610673565b60075461027e906001600160a01b031681565b6040516001600160a01b039091168152602001610116565b6101c66102a43660046111fa565b610680565b6101466102b7366004611271565b6107e4565b6101c66102ca3660046111dd565b61080f565b6060600380546102de906112aa565b80601f016020809104026020016040519081016040528092919081815260200182805461030a906112aa565b80156103575780601f1061032c57610100808354040283529160200191610357565b820191906000526020600020905b81548152906001019060200180831161033a57829003601f168201915b5050505050905090565b600061036e33848461081e565b50600192915050565b6000610384848484610943565b6103d684336103d18560405180606001604052806028815260200161144b602891396001600160a01b038a1660009081526001602090815260408083203384529091529020549190610ab4565b61081e565b5060019392505050565b60006103ea610ae0565b905090565b3360008181526001602090815260408083206001600160a01b0387168452909152812054909161036e9185906103d19086610c07565b600760009054906101000a90046001600160a01b03166001600160a01b031663fbfa77cf6040518163ffffffff1660e01b8152600401602060405180830381865afa158015610478573d6000803e3d6000fd5b505050506040513d601f19601f8201168201806040525081019061049c91906112de565b6001600160a01b0316336001600160a01b0316146006906104d95760405162461bcd60e51b81526004016104d091906112fb565b60405180910390fd5b506104e48282610c1a565b5050565b6104f23382610ce7565b50565b6104e48282610dd9565b600760009054906101000a90046001600160a01b03166001600160a01b0316630c340a246040518163ffffffff1660e01b8152600401602060405180830381865afa158015610552573d6000803e3d6000fd5b505050506040513d601f19601f8201168201806040525081019061057691906112de565b6001600160a01b0316336001600160a01b0316146006906105aa5760405162461bcd60e51b81526004016104d091906112fb565b50600780546001600160a01b0319166001600160a01b0383169081179091556040517f2f658b440c35314f52658ea8a740e05b284cdc84dc9ae01e891f21b8933e7cad90600090a250565b6001600160a01b0381166000908152600560205260408120545b92915050565b6060600480546102de906112aa565b600061036e33846103d1856040518060600160405280602581526020016114b7602591393360009081526001602090815260408083206001600160a01b038d1684529091529020549190610ab4565b600061036e338484610943565b834211156106d05760405162461bcd60e51b815260206004820152601d60248201527f45524332305065726d69743a206578706972656420646561646c696e6500000060448201526064016104d0565b60007f00000000000000000000000000000000000000000000000000000000000000008888886106ff8c610e25565b6040805160208101969096526001600160a01b0394851690860152929091166060840152608083015260a082015260c0810186905260e001604051602081830303815290604052805190602001209050600061075a82610e4f565b9050600061076a82878787610e9d565b9050896001600160a01b0316816001600160a01b0316146107cd5760405162461bcd60e51b815260206004820152601e60248201527f45524332305065726d69743a20696e76616c6964207369676e6174757265000060448201526064016104d0565b6107d88a8a8a61081e565b50505050505050505050565b6001600160a01b03918216600090815260016020908152604080832093909416825291909152205490565b6104f2816402540be400610c1a565b6001600160a01b0383166108805760405162461bcd60e51b8152602060048201526024808201527f45524332303a20617070726f76652066726f6d20746865207a65726f206164646044820152637265737360e01b60648201526084016104d0565b6001600160a01b0382166108e15760405162461bcd60e51b815260206004820152602260248201527f45524332303a20617070726f766520746f20746865207a65726f206164647265604482015261737360f01b60648201526084016104d0565b6001600160a01b0383811660008181526001602090815260408083209487168084529482529182902085905590518481527f8c5be1e5ebec7d5bd14f71427d1e84f3dd0314c0f7b2291e5b200ac8c7c3b92591015b60405180910390a3505050565b6001600160a01b0383166109a75760405162461bcd60e51b815260206004820152602560248201527f45524332303a207472616e736665722066726f6d20746865207a65726f206164604482015264647265737360d81b60648201526084016104d0565b6001600160a01b038216610a095760405162461bcd60e51b815260206004820152602360248201527f45524332303a207472616e7366657220746f20746865207a65726f206164647260448201526265737360e81b60648201526084016104d0565b610a4681604051806060016040528060268152602001611425602691396001600160a01b0386166000908152602081905260409020549190610ab4565b6001600160a01b038085166000908152602081905260408082209390935590841681522054610a759082610c07565b6001600160a01b038381166000818152602081815260409182902094909455518481529092918616916000805160206114978339815191529101610936565b60008184841115610ad85760405162461bcd60e51b81526004016104d091906110ed565b505050900390565b6000306001600160a01b037f000000000000000000000000000000000000000000000000000000000000000016148015610b3957507f000000000000000000000000000000000000000000000000000000000000000046145b15610b6357507f000000000000000000000000000000000000000000000000000000000000000090565b50604080517f00000000000000000000000000000000000000000000000000000000000000006020808301919091527f0000000000000000000000000000000000000000000000000000000000000000828401527f000000000000000000000000000000000000000000000000000000000000000060608301524660808301523060a0808401919091528351808403909101815260c0909201909252805191012090565b6000610c1382846113bd565b9392505050565b6001600160a01b038216610c705760405162461bcd60e51b815260206004820152601f60248201527f45524332303a206d696e7420746f20746865207a65726f20616464726573730060448201526064016104d0565b600254610c7d9082610c07565b6002556001600160a01b038216600090815260208190526040902054610ca39082610c07565b6001600160a01b0383166000818152602081815260408083209490945592518481529192909160008051602061149783398151915291015b60405180910390a35050565b6001600160a01b038216610d475760405162461bcd60e51b815260206004820152602160248201527f45524332303a206275726e2066726f6d20746865207a65726f206164647265736044820152607360f81b60648201526084016104d0565b610d8481604051806060016040528060228152602001611403602291396001600160a01b0385166000908152602081905260409020549190610ab4565b6001600160a01b038316600090815260208190526040902055600254610daa9082610ec5565b6002556040518181526000906001600160a01b0384169060008051602061149783398151915290602001610cdb565b6000610e098260405180606001604052806024815260200161147360249139610e0286336107e4565b9190610ab4565b9050610e1683338361081e565b610e208383610ce7565b505050565b6001600160a01b0381166000908152600560205260409020805490610e4981610ed1565b50919050565b600061060f610e5c610ae0565b8360405161190160f01b6020820152602281018390526042810182905260009060620160405160208183030381529060405280519060200120905092915050565b6000806000610eae87878787610eee565b91509150610ebb81610fa8565b5095945050505050565b6000610c1382846113d5565b6001816000016000828254610ee691906113bd565b909155505050565b6000806fa2a8918ca85bafe22016d0b997e4df60600160ff1b03831115610f1b5750600090506003610f9f565b6040805160008082526020820180845289905260ff881692820192909252606081018690526080810185905260019060a0016020604051602081039080840390855afa158015610f6f573d6000803e3d6000fd5b5050604051601f1901519150506001600160a01b038116610f9857600060019250925050610f9f565b9150600090505b94509492505050565b6000816004811115610fbc57610fbc6113ec565b03610fc45750565b6001816004811115610fd857610fd86113ec565b036110205760405162461bcd60e51b815260206004820152601860248201527745434453413a20696e76616c6964207369676e617475726560401b60448201526064016104d0565b6002816004811115611034576110346113ec565b036110815760405162461bcd60e51b815260206004820152601f60248201527f45434453413a20696e76616c6964207369676e6174757265206c656e6774680060448201526064016104d0565b6003816004811115611095576110956113ec565b036104f25760405162461bcd60e51b815260206004820152602260248201527f45434453413a20696e76616c6964207369676e6174757265202773272076616c604482015261756560f01b60648201526084016104d0565b600060208083528351808285015260005b8181101561111a578581018301518582016040015282016110fe565b8181111561112c576000604083870101525b50601f01601f1916929092016040019392505050565b6001600160a01b03811681146104f257600080fd5b6000806040838503121561116a57600080fd5b823561117581611142565b946020939093013593505050565b60008060006060848603121561119857600080fd5b83356111a381611142565b925060208401356111b381611142565b929592945050506040919091013590565b6000602082840312156111d657600080fd5b5035919050565b6000602082840312156111ef57600080fd5b8135610c1381611142565b600080600080600080600060e0888a03121561121557600080fd5b873561122081611142565b9650602088013561123081611142565b95506040880135945060608801359350608088013560ff8116811461125457600080fd5b9699959850939692959460a0840135945060c09093013592915050565b6000806040838503121561128457600080fd5b823561128f81611142565b9150602083013561129f81611142565b809150509250929050565b600181811c908216806112be57607f821691505b602082108103610e4957634e487b7160e01b600052602260045260246000fd5b6000602082840312156112f057600080fd5b8151610c1381611142565b600060208083526000845481600182811c91508083168061131d57607f831692505b858310810361133a57634e487b7160e01b85526022600452602485fd5b878601838152602001818015611357576001811461136d57611398565b60ff198616825284151560051b82019650611398565b60008b81526020902060005b8681101561139257815484820152908501908901611379565b83019750505b50949998505050505050505050565b634e487b7160e01b600052601160045260246000fd5b600082198211156113d0576113d06113a7565b500190565b6000828210156113e7576113e76113a7565b500390565b634e487b7160e01b600052602160045260246000fdfe45524332303a206275726e20616d6f756e7420657863656564732062616c616e636545524332303a207472616e7366657220616d6f756e7420657863656564732062616c616e636545524332303a207472616e7366657220616d6f756e74206578636565647320616c6c6f77616e636545524332303a206275726e20616d6f756e74206578636565647320616c6c6f77616e6365ddf252ad1be2c89b69c2b068fc378daa952ba7f163c4a11628f55a4df523b3ef45524332303a2064656372656173656420616c6c6f77616e63652062656c6f77207a65726fa2646970667358221220b7e79e45027139becb6652baf2ce2824d8a0ca0e80589297720921c53acc0c8864736f6c634300080f0033",
    "linkReferences": {}
  },
  "methodIdentifiers": {
    "DOMAIN_SEPARATOR()": "3644e515",
    "allowance(address,address)": "dd62ed3e",
    "approve(address,uint256)": "095ea7b3",
    "authority()": "bf7e214f",
    "balanceOf(address)": "70a08231",
    "burn(uint256)": "42966c68",
    "burnFrom(address,uint256)": "79cc6790",
    "decimals()": "313ce567",
    "decreaseAllowance(address,uint256)": "a457c2d7",
    "faucetMint(address)": "fc8d44b7",
    "increaseAllowance(address,uint256)": "39509351",
    "mint(address,uint256)": "40c10f19",
    "name()": "06fdde03",
    "nonces(address)": "7ecebe00",
    "permit(address,address,uint256,uint256,uint8,bytes32,bytes32)": "d505accf",
    "setAuthority(address)": "7a9e5e4b",
    "symbol()": "95d89b41",
    "totalSupply()": "18160ddd",
    "transfer(address,uint256)": "a9059cbb",
    "transferFrom(address,address,uint256)": "23b872dd"
  },
  "id": 43
}