{
  "abi": [
    {
      "inputs": [
        {
          "internalType": "contract Kernel",
          "name": "kernel_",
          "type": "address"
        },
        {
          "internalType": "contract ERC20",
          "name": "xGDAO_",
          "type": "address"
        }
      ],
      "stateMutability": "nonpayable",
      "type": "constructor"
    },
    {
      "inputs": [
        {
          "internalType": "address",
          "name": "caller_",
          "type": "address"
        }
      ],
      "name": "KernelAdapter_OnlyKernel",
      "type": "error"
    },
    {
      "inputs": [
        {
          "internalType": "address",
          "name": "policy_",
          "type": "address"
        }
      ],
      "name": "Module_PolicyNotPermitted",
      "type": "error"
    },
    {
      "anonymous": false,
      "inputs": [
        {
          "indexed": true,
          "internalType": "address",
          "name": "owner",
          "type": "address"
        },
        {
          "indexed": true,
          "internalType": "address",
          "name": "spender",
          "type": "address"
        },
        {
          "indexed": false,
          "internalType": "uint256",
          "name": "amount",
          "type": "uint256"
        }
      ],
      "name": "Approval",
      "type": "event"
    },
    {
      "anonymous": false,
      "inputs": [
        {
          "indexed": true,
          "internalType": "address",
          "name": "caller",
          "type": "address"
        },
        {
          "indexed": true,
          "internalType": "address",
          "name": "owner",
          "type": "address"
        },
        {
          "indexed": false,
          "internalType": "uint256",
          "name": "assets",
          "type": "uint256"
        },
        {
          "indexed": false,
          "internalType": "uint256",
          "name": "shares",
          "type": "uint256"
        }
      ],
      "name": "Deposit",
      "type": "event"
    },
    {
      "anonymous": false,
      "inputs": [
        {
          "indexed": true,
          "internalType": "address",
          "name": "from",
          "type": "address"
        },
        {
          "indexed": true,
          "internalType": "address",
          "name": "to",
          "type": "address"
        },
        {
          "indexed": false,
          "internalType": "uint256",
          "name": "amount",
          "type": "uint256"
        }
      ],
      "name": "Transfer",
      "type": "event"
    },
    {
      "anonymous": false,
      "inputs": [
        {
          "indexed": true,
          "internalType": "address",
          "name": "caller",
          "type": "address"
        },
        {
          "indexed": true,
          "internalType": "address",
          "name": "receiver",
          "type": "address"
        },
        {
          "indexed": true,
          "internalType": "address",
          "name": "owner",
          "type": "address"
        },
        {
          "indexed": false,
          "internalType": "uint256",
          "name": "assets",
          "type": "uint256"
        },
        {
          "indexed": false,
          "internalType": "uint256",
          "name": "shares",
          "type": "uint256"
        }
      ],
      "name": "Withdraw",
      "type": "event"
    },
    {
      "inputs": [],
      "name": "DOMAIN_SEPARATOR",
      "outputs": [
        {
          "internalType": "bytes32",
          "name": "",
          "type": "bytes32"
        }
      ],
      "stateMutability": "view",
      "type": "function"
    },
    {
      "inputs": [],
      "name": "INIT",
      "outputs": [],
      "stateMutability": "nonpayable",
      "type": "function"
    },
    {
      "inputs": [],
      "name": "KEYCODE",
      "outputs": [
        {
          "internalType": "Keycode",
          "name": "",
          "type": "bytes5"
        }
      ],
      "stateMutability": "pure",
      "type": "function"
    },
    {
      "inputs": [],
      "name": "VERSION",
      "outputs": [
        {
          "internalType": "uint8",
          "name": "major",
          "type": "uint8"
        },
        {
          "internalType": "uint8",
          "name": "minor",
          "type": "uint8"
        }
      ],
      "stateMutability": "pure",
      "type": "function"
    },
    {
      "inputs": [
        {
          "internalType": "address",
          "name": "",
          "type": "address"
        },
        {
          "internalType": "address",
          "name": "",
          "type": "address"
        }
      ],
      "name": "allowance",
      "outputs": [
        {
          "internalType": "uint256",
          "name": "",
          "type": "uint256"
        }
      ],
      "stateMutability": "view",
      "type": "function"
    },
    {
      "inputs": [
        {
          "internalType": "address",
          "name": "spender",
          "type": "address"
        },
        {
          "internalType": "uint256",
          "name": "amount",
          "type": "uint256"
        }
      ],
      "name": "approve",
      "outputs": [
        {
          "internalType": "bool",
          "name": "",
          "type": "bool"
        }
      ],
      "stateMutability": "nonpayable",
      "type": "function"
    },
    {
      "inputs": [],
      "name": "asset",
      "outputs": [
        {
          "internalType": "contract ERC20",
          "name": "",
          "type": "address"
        }
      ],
      "stateMutability": "view",
      "type": "function"
    },
    {
      "inputs": [
        {
          "internalType": "address",
          "name": "",
          "type": "address"
        }
      ],
      "name": "balanceOf",
      "outputs": [
        {
          "internalType": "uint256",
          "name": "",
          "type": "uint256"
        }
      ],
      "stateMutability": "view",
      "type": "function"
    },
    {
      "inputs": [
        {
          "internalType": "contract Kernel",
          "name": "newKernel_",
          "type": "address"
        }
      ],
      "name": "changeKernel",
      "outputs": [],
      "stateMutability": "nonpayable",
      "type": "function"
    },
    {
      "inputs": [
        {
          "internalType": "uint256",
          "name": "shares",
          "type": "uint256"
        }
      ],
      "name": "convertToAssets",
      "outputs": [
        {
          "internalType": "uint256",
          "name": "",
          "type": "uint256"
        }
      ],
      "stateMutability": "view",
      "type": "function"
    },
    {
      "inputs": [
        {
          "internalType": "uint256",
          "name": "assets",
          "type": "uint256"
        }
      ],
      "name": "convertToShares",
      "outputs": [
        {
          "internalType": "uint256",
          "name": "",
          "type": "uint256"
        }
      ],
      "stateMutability": "view",
      "type": "function"
    },
    {
      "inputs": [],
      "name": "decimals",
      "outputs": [
        {
          "internalType": "uint8",
          "name": "",
          "type": "uint8"
        }
      ],
      "stateMutability": "view",
      "type": "function"
    },
    {
      "inputs": [
        {
          "internalType": "uint256",
          "name": "assets_",
          "type": "uint256"
        },
        {
          "internalType": "address",
          "name": "receiver_",
          "type": "address"
        }
      ],
      "name": "deposit",
      "outputs": [
        {
          "internalType": "uint256",
          "name": "",
          "type": "uint256"
        }
      ],
      "stateMutability": "nonpayable",
      "type": "function"
    },
    {
      "inputs": [],
      "name": "kernel",
      "outputs": [
        {
          "internalType": "contract Kernel",
          "name": "",
          "type": "address"
        }
      ],
      "stateMutability": "view",
      "type": "function"
    },
    {
      "inputs": [
        {
          "internalType": "address",
          "name": "",
          "type": "address"
        }
      ],
      "name": "lastActionTimestamp",
      "outputs": [
        {
          "internalType": "uint256",
          "name": "",
          "type": "uint256"
        }
      ],
      "stateMutability": "view",
      "type": "function"
    },
    {
      "inputs": [
        {
          "internalType": "address",
          "name": "",
          "type": "address"
        }
      ],
      "name": "lastDepositTimestamp",
      "outputs": [
        {
          "internalType": "uint256",
          "name": "",
          "type": "uint256"
        }
      ],
      "stateMutability": "view",
      "type": "function"
    },
    {
      "inputs": [
        {
          "internalType": "address",
          "name": "",
          "type": "address"
        }
      ],
      "name": "maxDeposit",
      "outputs": [
        {
          "internalType": "uint256",
          "name": "",
          "type": "uint256"
        }
      ],
      "stateMutability": "view",
      "type": "function"
    },
    {
      "inputs": [
        {
          "internalType": "address",
          "name": "",
          "type": "address"
        }
      ],
      "name": "maxMint",
      "outputs": [
        {
          "internalType": "uint256",
          "name": "",
          "type": "uint256"
        }
      ],
      "stateMutability": "view",
      "type": "function"
    },
    {
      "inputs": [
        {
          "internalType": "address",
          "name": "owner",
          "type": "address"
        }
      ],
      "name": "maxRedeem",
      "outputs": [
        {
          "internalType": "uint256",
          "name": "",
          "type": "uint256"
        }
      ],
      "stateMutability": "view",
      "type": "function"
    },
    {
      "inputs": [
        {
          "internalType": "address",
          "name": "owner",
          "type": "address"
        }
      ],
      "name": "maxWithdraw",
      "outputs": [
        {
          "internalType": "uint256",
          "name": "",
          "type": "uint256"
        }
      ],
      "stateMutability": "view",
      "type": "function"
    },
    {
      "inputs": [
        {
          "internalType": "uint256",
          "name": "shares_",
          "type": "uint256"
        },
        {
          "internalType": "address",
          "name": "receiver_",
          "type": "address"
        }
      ],
      "name": "mint",
      "outputs": [
        {
          "internalType": "uint256",
          "name": "",
          "type": "uint256"
        }
      ],
      "stateMutability": "nonpayable",
      "type": "function"
    },
    {
      "inputs": [],
      "name": "name",
      "outputs": [
        {
          "internalType": "string",
          "name": "",
          "type": "string"
        }
      ],
      "stateMutability": "view",
      "type": "function"
    },
    {
      "inputs": [
        {
          "internalType": "address",
          "name": "owner",
          "type": "address"
        },
        {
          "internalType": "address",
          "name": "spender",
          "type": "address"
        },
        {
          "internalType": "uint256",
          "name": "value",
          "type": "uint256"
        },
        {
          "internalType": "uint256",
          "name": "deadline",
          "type": "uint256"
        },
        {
          "internalType": "uint8",
          "name": "v",
          "type": "uint8"
        },
        {
          "internalType": "bytes32",
          "name": "r",
          "type": "bytes32"
        },
        {
          "internalType": "bytes32",
          "name": "s",
          "type": "bytes32"
        }
      ],
      "name": "permit",
      "outputs": [],
      "stateMutability": "nonpayable",
      "type": "function"
    },
    {
      "inputs": [
        {
          "internalType": "uint256",
          "name": "assets",
          "type": "uint256"
        }
      ],
      "name": "previewDeposit",
      "outputs": [
        {
          "internalType": "uint256",
          "name": "",
          "type": "uint256"
        }
      ],
      "stateMutability": "view",
      "type": "function"
    },
    {
      "inputs": [
        {
          "internalType": "uint256",
          "name": "shares",
          "type": "uint256"
        }
      ],
      "name": "previewMint",
      "outputs": [
        {
          "internalType": "uint256",
          "name": "",
          "type": "uint256"
        }
      ],
      "stateMutability": "view",
      "type": "function"
    },
    {
      "inputs": [
        {
          "internalType": "uint256",
          "name": "shares",
          "type": "uint256"
        }
      ],
      "name": "previewRedeem",
      "outputs": [
        {
          "internalType": "uint256",
          "name": "",
          "type": "uint256"
        }
      ],
      "stateMutability": "view",
      "type": "function"
    },
    {
      "inputs": [
        {
          "internalType": "uint256",
          "name": "assets",
          "type": "uint256"
        }
      ],
      "name": "previewWithdraw",
      "outputs": [
        {
          "internalType": "uint256",
          "name": "",
          "type": "uint256"
        }
      ],
      "stateMutability": "view",
      "type": "function"
    },
    {
      "inputs": [
        {
          "internalType": "uint256",
          "name": "shares_",
          "type": "uint256"
        },
        {
          "internalType": "address",
          "name": "receiver_",
          "type": "address"
        },
        {
          "internalType": "address",
          "name": "owner_",
          "type": "address"
        }
      ],
      "name": "redeem",
      "outputs": [
        {
          "internalType": "uint256",
          "name": "",
          "type": "uint256"
        }
      ],
      "stateMutability": "nonpayable",
      "type": "function"
    },
    {
      "inputs": [
        {
          "internalType": "address",
          "name": "_wallet",
          "type": "address"
        }
      ],
      "name": "resetActionTimestamp",
      "outputs": [],
      "stateMutability": "nonpayable",
      "type": "function"
    },
    {
      "inputs": [],
      "name": "symbol",
      "outputs": [
        {
          "internalType": "string",
          "name": "",
          "type": "string"
        }
      ],
      "stateMutability": "view",
      "type": "function"
    },
    {
      "inputs": [],
      "name": "totalAssets",
      "outputs": [
        {
          "internalType": "uint256",
          "name": "",
          "type": "uint256"
        }
      ],
      "stateMutability": "view",
      "type": "function"
    },
    {
      "inputs": [],
      "name": "totalSupply",
      "outputs": [
        {
          "internalType": "uint256",
          "name": "",
          "type": "uint256"
        }
      ],
      "stateMutability": "view",
      "type": "function"
    },
    {
      "inputs": [
        {
          "internalType": "address",
          "name": "to_",
          "type": "address"
        },
        {
          "internalType": "uint256",
          "name": "amt_",
          "type": "uint256"
        }
      ],
      "name": "transfer",
      "outputs": [
        {
          "internalType": "bool",
          "name": "",
          "type": "bool"
        }
      ],
      "stateMutability": "nonpayable",
      "type": "function"
    },
    {
      "inputs": [
        {
          "internalType": "address",
          "name": "from_",
          "type": "address"
        },
        {
          "internalType": "address",
          "name": "to_",
          "type": "address"
        },
        {
          "internalType": "uint256",
          "name": "amount_",
          "type": "uint256"
        }
      ],
      "name": "transferFrom",
      "outputs": [
        {
          "internalType": "bool",
          "name": "",
          "type": "bool"
        }
      ],
      "stateMutability": "nonpayable",
      "type": "function"
    },
    {
      "inputs": [
        {
          "internalType": "uint256",
          "name": "assets_",
          "type": "uint256"
        },
        {
          "internalType": "address",
          "name": "receiver_",
          "type": "address"
        },
        {
          "internalType": "address",
          "name": "owner_",
          "type": "address"
        }
      ],
      "name": "withdraw",
      "outputs": [
        {
          "internalType": "uint256",
          "name": "",
          "type": "uint256"
        }
      ],
      "stateMutability": "nonpayable",
      "type": "function"
    },
    {
      "inputs": [],
      "name": "xGDAO",
      "outputs": [
        {
          "internalType": "contract ERC20",
          "name": "",
          "type": "address"
        }
      ],
      "stateMutability": "view",
      "type": "function"
    }
  ],
  "bytecode": {
    "object": "0x6101006040523480156200001257600080fd5b50604051620020143803806200201483398101604081905262000035916200021c565b806040518060400160405280601081526020016f476f65726c692044414f20566f74657360801b81525060405180604001604052806005815260200164764744414f60d81b8152508181846001600160a01b031663313ce5676040518163ffffffff1660e01b8152600401602060405180830381865afa158015620000be573d6000803e3d6000fd5b505050506040513d601f19601f82011682018060405250810190620000e491906200025b565b600080546001600160a01b0319166001600160a01b038a1617905560016200010d84826200032c565b5060026200011c83826200032c565b5060ff81166080524660a0526200013262000167565b60c052505050506001600160a01b0391821660e05250600680546001600160a01b031916929091169190911790555062000476565b60007f8b73c3c69bb8fe3d512ecc4cf759cc79239f7b179b0ffacaa9a75d522b39400f60016040516200019b9190620003f8565b6040805191829003822060208301939093528101919091527fc89efdaa54c0f20c7adf612882df0950f5a951637e0307cdcb4c672f298b8bc660608201524660808201523060a082015260c00160405160208183030381529060405280519060200120905090565b6001600160a01b03811681146200021957600080fd5b50565b600080604083850312156200023057600080fd5b82516200023d8162000203565b6020840151909250620002508162000203565b809150509250929050565b6000602082840312156200026e57600080fd5b815160ff811681146200028057600080fd5b9392505050565b634e487b7160e01b600052604160045260246000fd5b600181811c90821680620002b257607f821691505b602082108103620002d357634e487b7160e01b600052602260045260246000fd5b50919050565b601f8211156200032757600081815260208120601f850160051c81016020861015620003025750805b601f850160051c820191505b8181101562000323578281556001016200030e565b5050505b505050565b81516001600160401b0381111562000348576200034862000287565b62000360816200035984546200029d565b84620002d9565b602080601f8311600181146200039857600084156200037f5750858301515b600019600386901b1c1916600185901b17855562000323565b600085815260208120601f198616915b82811015620003c957888601518255948401946001909101908401620003a8565b5085821015620003e85787850151600019600388901b60f8161c191681555b5050505050600190811b01905550565b600080835462000408816200029d565b6001828116801562000423576001811462000439576200046a565b60ff19841687528215158302870194506200046a565b8760005260208060002060005b85811015620004615781548a82015290840190820162000446565b50505082870194505b50929695505050505050565b60805160a05160c05160e051611b41620004d3600039600081816102e2015281816105030152818161118d01528181611213015281816113a701526114d70152600061089201526000610862015260006102a10152611b416000f3fe608060405234801561001057600080fd5b50600436106101ac5760003560e01c806301e1d114146101b157806306fdde03146101cc57806307a2d13a146101e1578063095ea7b3146101f45780630a28a47714610217578063148ea1a41461022a57806318160ddd1461024a5780631ae7ec2e1461025357806323b872dd146102745780632c63af4b14610287578063313ce5671461029c5780633644e515146102d557806338d52e0f146102dd578063402d267d146103115780634657b36c146103265780634cdad50614610339578063655d8dec1461034c5780636e553f651461036c57806370a082311461037f57806394bf804d1461039f57806395d89b41146103b2578063a9059cbb146103ba578063b3d7f6b9146103cd578063b460af94146103e0578063ba087652146103f3578063c63d75b614610311578063c6e6f59214610406578063ce96cb7714610419578063d4aae0c41461042c578063d505accf1461043f578063d905777e14610452578063dd62ed3e1461047b578063e03481e1146104a6578063ea643914146104b9578063ef8b30f7146104c1578063ffa1ad74146104d4575b600080fd5b6101b96104e9565b6040519081526020015b60405180910390f35b6101d461057e565b6040516101c391906116c2565b6101b96101ef366004611717565b61060c565b610207610202366004611748565b610639565b60405190151581526020016101c3565b6101b9610225366004611717565b610694565b6101b9610238366004611774565b60076020526000908152604090205481565b6101b960035481565b61025b6106b4565b6040516001600160d81b031990911681526020016101c3565b610207610282366004611791565b6106c0565b61029a610295366004611774565b61079d565b005b6102c37f000000000000000000000000000000000000000000000000000000000000000081565b60405160ff90911681526020016101c3565b6101b961085e565b6103047f000000000000000000000000000000000000000000000000000000000000000081565b6040516101c391906117d2565b6101b961031f366004611774565b5060001990565b61029a610334366004611774565b6108b4565b6101b9610347366004611717565b610903565b6101b961035a366004611774565b60086020526000908152604090205481565b6101b961037a3660046117e6565b61090e565b6101b961038d366004611774565b60046020526000908152604090205481565b6101b96103ad3660046117e6565b6109d9565b6101d4610aa4565b6102076103c8366004611748565b610ab1565b6101b96103db366004611717565b610b61565b6101b96103ee366004611816565b610b80565b6101b9610401366004611816565b610c31565b6101b9610414366004611717565b610ce2565b6101b9610427366004611774565b610d02565b600054610304906001600160a01b031681565b61029a61044d366004611858565b610d24565b6101b9610460366004611774565b6001600160a01b031660009081526004602052604090205490565b6101b96104893660046118cf565b600560209081526000928352604080842090915290825290205481565b600654610304906001600160a01b031681565b61029a610f34565b6101b96104cf366004611717565b610f63565b604080516001815260006020820152016101c3565b6040516370a0823160e01b81526000906001600160a01b037f000000000000000000000000000000000000000000000000000000000000000016906370a08231906105389030906004016117d2565b602060405180830381865afa158015610555573d6000803e3d6000fd5b505050506040513d601f19601f8201168201806040525081019061057991906118fd565b905090565b6001805461058b90611916565b80601f01602080910402602001604051908101604052809291908181526020018280546105b790611916565b80156106045780601f106105d957610100808354040283529160200191610604565b820191906000526020600020905b8154815290600101906020018083116105e757829003601f168201915b505050505081565b60035460009080156106305761062b6106236104e9565b849083610f6e565b610632565b825b9392505050565b3360008181526005602090815260408083206001600160a01b03871680855292528083208590555191929091600080516020611acc833981519152906106829086815260200190565b60405180910390a35060015b92915050565b60035460009080156106305761062b816106ac6104e9565b859190610f8d565b64564f54455360d81b90565b600080546001600160a01b031663f166d9eb6106da6106b4565b336000356001600160e01b0319166040518463ffffffff1660e01b815260040161070693929190611950565b602060405180830381865afa158015610723573d6000803e3d6000fd5b505050506040513d601f19601f820116820180604052508101906107479190611985565b61076f57336040516311bf00c960e01b815260040161076691906117d2565b60405180910390fd5b6001600160a01b0383166000908152600860205260409020429055610795848484610fbb565b949350505050565b6000546001600160a01b031663f166d9eb6107b66106b4565b336000356001600160e01b0319166040518463ffffffff1660e01b81526004016107e293929190611950565b602060405180830381865afa1580156107ff573d6000803e3d6000fd5b505050506040513d601f19601f820116820180604052508101906108239190611985565b61084257336040516311bf00c960e01b815260040161076691906117d2565b6001600160a01b03166000908152600760205260409020429055565b60007f0000000000000000000000000000000000000000000000000000000000000000461461088f5761057961109b565b507f000000000000000000000000000000000000000000000000000000000000000090565b6000546001600160a01b031633146108e1573360405163053e900f60e21b815260040161076691906117d2565b600080546001600160a01b0319166001600160a01b0392909216919091179055565b600061068e8261060c565b600080546001600160a01b031663f166d9eb6109286106b4565b336000356001600160e01b0319166040518463ffffffff1660e01b815260040161095493929190611950565b602060405180830381865afa158015610971573d6000803e3d6000fd5b505050506040513d601f19601f820116820180604052508101906109959190611985565b6109b457336040516311bf00c960e01b815260040161076691906117d2565b6001600160a01b03821660009081526008602052604090204290556106328383611135565b600080546001600160a01b031663f166d9eb6109f36106b4565b336000356001600160e01b0319166040518463ffffffff1660e01b8152600401610a1f93929190611950565b602060405180830381865afa158015610a3c573d6000803e3d6000fd5b505050506040513d601f19601f82011682018060405250810190610a609190611985565b610a7f57336040516311bf00c960e01b815260040161076691906117d2565b6001600160a01b038216600090815260086020526040902042905561063283836111f9565b6002805461058b90611916565b600080546001600160a01b031663f166d9eb610acb6106b4565b336000356001600160e01b0319166040518463ffffffff1660e01b8152600401610af793929190611950565b602060405180830381865afa158015610b14573d6000803e3d6000fd5b505050506040513d601f19601f82011682018060405250810190610b389190611985565b610b5757336040516311bf00c960e01b815260040161076691906117d2565b6106328383611276565b60035460009080156106305761062b610b786104e9565b849083610f8d565b600080546001600160a01b031663f166d9eb610b9a6106b4565b336000356001600160e01b0319166040518463ffffffff1660e01b8152600401610bc693929190611950565b602060405180830381865afa158015610be3573d6000803e3d6000fd5b505050506040513d601f19601f82011682018060405250810190610c079190611985565b610c2657336040516311bf00c960e01b815260040161076691906117d2565b6107958484846112dc565b600080546001600160a01b031663f166d9eb610c4b6106b4565b336000356001600160e01b0319166040518463ffffffff1660e01b8152600401610c7793929190611950565b602060405180830381865afa158015610c94573d6000803e3d6000fd5b505050506040513d601f19601f82011682018060405250810190610cb89190611985565b610cd757336040516311bf00c960e01b815260040161076691906117d2565b6107958484846113ce565b60035460009080156106305761062b81610cfa6104e9565b859190610f6e565b6001600160a01b03811660009081526004602052604081205461068e9061060c565b42841015610d6e5760405162461bcd60e51b815260206004820152601760248201527614115493525517d11150511312539157d1561412549151604a1b6044820152606401610766565b60006001610d7a61085e565b604080517f6e71edae12b1b97f4d1f60370fef10105fa2faae0126114a169c64845d6126c960208201526001600160a01b03808d1692820192909252908a1660608201526080810189905260a0810188905260c00160405160208183030381529060405280519060200120604051602001610e0c92919061190160f01b81526002810192909252602282015260420190565b60408051601f198184030181528282528051602091820120600084529083018083525260ff871690820152606081018590526080810184905260a0016020604051602081039080840390855afa158015610e6a573d6000803e3d6000fd5b5050604051601f1901519150506001600160a01b03811615801590610ea05750876001600160a01b0316816001600160a01b0316145b610edd5760405162461bcd60e51b815260206004820152600e60248201526d24a72b20a624a22fa9a4a3a722a960911b6044820152606401610766565b6001600160a01b0390811660009081526005602090815260408083208a8516808552908352928190208990555188815291928a1691600080516020611acc833981519152910160405180910390a350505050505050565b6000546001600160a01b03163314610f61573360405163053e900f60e21b815260040161076691906117d2565b565b600061068e82610ce2565b828202811515841585830485141716610f8657600080fd5b0492915050565b828202811515841585830485141716610fa557600080fd5b6001826001830304018115150290509392505050565b6001600160a01b0383166000908152600560209081526040808320338452909152812054600019811461101757610ff283826119bd565b6001600160a01b03861660009081526005602090815260408083203384529091529020555b6001600160a01b0385166000908152600460205260408120805485929061103f9084906119bd565b90915550506001600160a01b0380851660008181526004602052604090819020805487019055519091871690600080516020611aac833981519152906110889087815260200190565b60405180910390a3506001949350505050565b60007f8b73c3c69bb8fe3d512ecc4cf759cc79239f7b179b0ffacaa9a75d522b39400f60016040516110cd91906119d4565b6040805191829003822060208301939093528101919091527fc89efdaa54c0f20c7adf612882df0950f5a951637e0307cdcb4c672f298b8bc660608201524660808201523060a082015260c00160405160208183030381529060405280519060200120905090565b600061114083610f63565b9050806000036111805760405162461bcd60e51b815260206004820152600b60248201526a5a45524f5f53484152455360a81b6044820152606401610766565b6111b56001600160a01b037f0000000000000000000000000000000000000000000000000000000000000000163330866114fe565b6111bf8282611588565b60408051848152602081018390526001600160a01b038416913391600080516020611aec83398151915291015b60405180910390a361068e565b600061120483610b61565b905061123b6001600160a01b037f0000000000000000000000000000000000000000000000000000000000000000163330846114fe565b6112458284611588565b60408051828152602081018590526001600160a01b038416913391600080516020611aec83398151915291016111ec565b336000908152600460205260408120805483919083906112979084906119bd565b90915550506001600160a01b03831660008181526004602052604090819020805485019055513390600080516020611aac833981519152906106829086815260200190565b60006112e784610694565b9050336001600160a01b03831614611357576001600160a01b038216600090815260056020908152604080832033845290915290205460001981146113555761133082826119bd565b6001600160a01b03841660009081526005602090815260408083203384529091529020555b505b61136182826115e2565b60408051858152602081018390526001600160a01b0380851692908616913391600080516020611a8c833981519152910160405180910390a46106326001600160a01b037f0000000000000000000000000000000000000000000000000000000000000000168486611644565b6000336001600160a01b0383161461143e576001600160a01b0382166000908152600560209081526040808320338452909152902054600019811461143c5761141785826119bd565b6001600160a01b03841660009081526005602090815260408083203384529091529020555b505b61144784610903565b9050806000036114875760405162461bcd60e51b815260206004820152600b60248201526a5a45524f5f41535345545360a81b6044820152606401610766565b61149182856115e2565b60408051828152602081018690526001600160a01b0380851692908616913391600080516020611a8c833981519152910160405180910390a46106326001600160a01b037f0000000000000000000000000000000000000000000000000000000000000000168483611644565b60006040516323b872dd60e01b81528460048201528360248201528260448201526020600060648360008a5af13d15601f3d11600160005114161716915050806115815760405162461bcd60e51b81526020600482015260146024820152731514905394d1915497d19493d357d1905253115160621b6044820152606401610766565b5050505050565b806003600082825461159a9190611a73565b90915550506001600160a01b038216600081815260046020908152604080832080548601905551848152600080516020611aac83398151915291015b60405180910390a35050565b6001600160a01b0382166000908152600460205260408120805483929061160a9084906119bd565b90915550506003805482900390556040518181526000906001600160a01b03841690600080516020611aac833981519152906020016115d6565b600060405163a9059cbb60e01b8152836004820152826024820152602060006044836000895af13d15601f3d11600160005114161716915050806116bc5760405162461bcd60e51b815260206004820152600f60248201526e1514905394d1915497d19052531151608a1b6044820152606401610766565b50505050565b600060208083528351808285015260005b818110156116ef578581018301518582016040015282016116d3565b81811115611701576000604083870101525b50601f01601f1916929092016040019392505050565b60006020828403121561172957600080fd5b5035919050565b6001600160a01b038116811461174557600080fd5b50565b6000806040838503121561175b57600080fd5b823561176681611730565b946020939093013593505050565b60006020828403121561178657600080fd5b813561063281611730565b6000806000606084860312156117a657600080fd5b83356117b181611730565b925060208401356117c181611730565b929592945050506040919091013590565b6001600160a01b0391909116815260200190565b600080604083850312156117f957600080fd5b82359150602083013561180b81611730565b809150509250929050565b60008060006060848603121561182b57600080fd5b83359250602084013561183d81611730565b9150604084013561184d81611730565b809150509250925092565b600080600080600080600060e0888a03121561187357600080fd5b873561187e81611730565b9650602088013561188e81611730565b95506040880135945060608801359350608088013560ff811681146118b257600080fd5b9699959850939692959460a0840135945060c09093013592915050565b600080604083850312156118e257600080fd5b82356118ed81611730565b9150602083013561180b81611730565b60006020828403121561190f57600080fd5b5051919050565b600181811c9082168061192a57607f821691505b60208210810361194a57634e487b7160e01b600052602260045260246000fd5b50919050565b6001600160d81b03199390931683526001600160a01b039190911660208301526001600160e01b031916604082015260600190565b60006020828403121561199757600080fd5b8151801515811461063257600080fd5b634e487b7160e01b600052601160045260246000fd5b6000828210156119cf576119cf6119a7565b500390565b600080835481600182811c9150808316806119f057607f831692505b60208084108203611a0f57634e487b7160e01b86526022600452602486fd5b818015611a235760018114611a3857611a65565b60ff1986168952841515850289019650611a65565b60008a81526020902060005b86811015611a5d5781548b820152908501908301611a44565b505084890196505b509498975050505050505050565b60008219821115611a8657611a866119a7565b50019056fefbde797d201c681b91056529119e0b02407c7bb96a4a2c75c01fc9667232c8dbddf252ad1be2c89b69c2b068fc378daa952ba7f163c4a11628f55a4df523b3ef8c5be1e5ebec7d5bd14f71427d1e84f3dd0314c0f7b2291e5b200ac8c7c3b925dcbc1c05240f31ff3ad067ef1ee35ce4997762752e3a095284754544f4c709d7a2646970667358221220113c3ac5b827cee07b74b650d50c2a13cf08ce7293eb4f51c027e52d6b871b4f64736f6c634300080f0033",
    "linkReferences": {}
  },
  "methodIdentifiers": {
    "DOMAIN_SEPARATOR()": "3644e515",
    "INIT()": "ea643914",
    "KEYCODE()": "1ae7ec2e",
    "VERSION()": "ffa1ad74",
    "allowance(address,address)": "dd62ed3e",
    "approve(address,uint256)": "095ea7b3",
    "asset()": "38d52e0f",
    "balanceOf(address)": "70a08231",
    "changeKernel(address)": "4657b36c",
    "convertToAssets(uint256)": "07a2d13a",
    "convertToShares(uint256)": "c6e6f592",
    "decimals()": "313ce567",
    "deposit(uint256,address)": "6e553f65",
    "kernel()": "d4aae0c4",
    "lastActionTimestamp(address)": "148ea1a4",
    "lastDepositTimestamp(address)": "655d8dec",
    "maxDeposit(address)": "402d267d",
    "maxMint(address)": "c63d75b6",
    "maxRedeem(address)": "d905777e",
    "maxWithdraw(address)": "ce96cb77",
    "mint(uint256,address)": "94bf804d",
    "name()": "06fdde03",
    "permit(address,address,uint256,uint256,uint8,bytes32,bytes32)": "d505accf",
    "previewDeposit(uint256)": "ef8b30f7",
    "previewMint(uint256)": "b3d7f6b9",
    "previewRedeem(uint256)": "4cdad506",
    "previewWithdraw(uint256)": "0a28a477",
    "redeem(uint256,address,address)": "ba087652",
    "resetActionTimestamp(address)": "2c63af4b",
    "symbol()": "95d89b41",
    "totalAssets()": "01e1d114",
    "totalSupply()": "18160ddd",
    "transfer(address,uint256)": "a9059cbb",
    "transferFrom(address,address,uint256)": "23b872dd",
    "withdraw(uint256,address,address)": "b460af94",
    "xGDAO()": "e03481e1"
  },
  "id": 103
}