{
  "abi": [
    {
      "inputs": [
        {
          "internalType": "contract Kernel",
          "name": "kernel_",
          "type": "address"
        },
        {
          "internalType": "contract ERC20",
          "name": "xGDAO_",
          "type": "address"
        }
      ],
      "stateMutability": "nonpayable",
      "type": "constructor"
    },
    {
      "inputs": [
        {
          "internalType": "address",
          "name": "caller_",
          "type": "address"
        }
      ],
      "name": "KernelAdapter_OnlyKernel",
      "type": "error"
    },
    {
      "inputs": [
        {
          "internalType": "address",
          "name": "policy_",
          "type": "address"
        }
      ],
      "name": "Module_PolicyNotPermitted",
      "type": "error"
    },
    {
      "anonymous": false,
      "inputs": [
        {
          "indexed": true,
          "internalType": "address",
          "name": "owner",
          "type": "address"
        },
        {
          "indexed": true,
          "internalType": "address",
          "name": "spender",
          "type": "address"
        },
        {
          "indexed": false,
          "internalType": "uint256",
          "name": "amount",
          "type": "uint256"
        }
      ],
      "name": "Approval",
      "type": "event"
    },
    {
      "anonymous": false,
      "inputs": [
        {
          "indexed": true,
          "internalType": "address",
          "name": "caller",
          "type": "address"
        },
        {
          "indexed": true,
          "internalType": "address",
          "name": "owner",
          "type": "address"
        },
        {
          "indexed": false,
          "internalType": "uint256",
          "name": "assets",
          "type": "uint256"
        },
        {
          "indexed": false,
          "internalType": "uint256",
          "name": "shares",
          "type": "uint256"
        }
      ],
      "name": "Deposit",
      "type": "event"
    },
    {
      "anonymous": false,
      "inputs": [
        {
          "indexed": true,
          "internalType": "address",
          "name": "from",
          "type": "address"
        },
        {
          "indexed": true,
          "internalType": "address",
          "name": "to",
          "type": "address"
        },
        {
          "indexed": false,
          "internalType": "uint256",
          "name": "amount",
          "type": "uint256"
        }
      ],
      "name": "Transfer",
      "type": "event"
    },
    {
      "anonymous": false,
      "inputs": [
        {
          "indexed": true,
          "internalType": "address",
          "name": "caller",
          "type": "address"
        },
        {
          "indexed": true,
          "internalType": "address",
          "name": "receiver",
          "type": "address"
        },
        {
          "indexed": true,
          "internalType": "address",
          "name": "owner",
          "type": "address"
        },
        {
          "indexed": false,
          "internalType": "uint256",
          "name": "assets",
          "type": "uint256"
        },
        {
          "indexed": false,
          "internalType": "uint256",
          "name": "shares",
          "type": "uint256"
        }
      ],
      "name": "Withdraw",
      "type": "event"
    },
    {
      "inputs": [],
      "name": "DOMAIN_SEPARATOR",
      "outputs": [
        {
          "internalType": "bytes32",
          "name": "",
          "type": "bytes32"
        }
      ],
      "stateMutability": "view",
      "type": "function"
    },
    {
      "inputs": [],
      "name": "INIT",
      "outputs": [],
      "stateMutability": "nonpayable",
      "type": "function"
    },
    {
      "inputs": [],
      "name": "KEYCODE",
      "outputs": [
        {
          "internalType": "Keycode",
          "name": "",
          "type": "bytes5"
        }
      ],
      "stateMutability": "pure",
      "type": "function"
    },
    {
      "inputs": [],
      "name": "VERSION",
      "outputs": [
        {
          "internalType": "uint8",
          "name": "major",
          "type": "uint8"
        },
        {
          "internalType": "uint8",
          "name": "minor",
          "type": "uint8"
        }
      ],
      "stateMutability": "pure",
      "type": "function"
    },
    {
      "inputs": [
        {
          "internalType": "address",
          "name": "",
          "type": "address"
        },
        {
          "internalType": "address",
          "name": "",
          "type": "address"
        }
      ],
      "name": "allowance",
      "outputs": [
        {
          "internalType": "uint256",
          "name": "",
          "type": "uint256"
        }
      ],
      "stateMutability": "view",
      "type": "function"
    },
    {
      "inputs": [
        {
          "internalType": "address",
          "name": "spender",
          "type": "address"
        },
        {
          "internalType": "uint256",
          "name": "amount",
          "type": "uint256"
        }
      ],
      "name": "approve",
      "outputs": [
        {
          "internalType": "bool",
          "name": "",
          "type": "bool"
        }
      ],
      "stateMutability": "nonpayable",
      "type": "function"
    },
    {
      "inputs": [],
      "name": "asset",
      "outputs": [
        {
          "internalType": "contract ERC20",
          "name": "",
          "type": "address"
        }
      ],
      "stateMutability": "view",
      "type": "function"
    },
    {
      "inputs": [
        {
          "internalType": "address",
          "name": "",
          "type": "address"
        }
      ],
      "name": "balanceOf",
      "outputs": [
        {
          "internalType": "uint256",
          "name": "",
          "type": "uint256"
        }
      ],
      "stateMutability": "view",
      "type": "function"
    },
    {
      "inputs": [
        {
          "internalType": "contract Kernel",
          "name": "newKernel_",
          "type": "address"
        }
      ],
      "name": "changeKernel",
      "outputs": [],
      "stateMutability": "nonpayable",
      "type": "function"
    },
    {
      "inputs": [
        {
          "internalType": "uint256",
          "name": "shares",
          "type": "uint256"
        }
      ],
      "name": "convertToAssets",
      "outputs": [
        {
          "internalType": "uint256",
          "name": "",
          "type": "uint256"
        }
      ],
      "stateMutability": "view",
      "type": "function"
    },
    {
      "inputs": [
        {
          "internalType": "uint256",
          "name": "assets",
          "type": "uint256"
        }
      ],
      "name": "convertToShares",
      "outputs": [
        {
          "internalType": "uint256",
          "name": "",
          "type": "uint256"
        }
      ],
      "stateMutability": "view",
      "type": "function"
    },
    {
      "inputs": [],
      "name": "decimals",
      "outputs": [
        {
          "internalType": "uint8",
          "name": "",
          "type": "uint8"
        }
      ],
      "stateMutability": "view",
      "type": "function"
    },
    {
      "inputs": [
        {
          "internalType": "uint256",
          "name": "assets_",
          "type": "uint256"
        },
        {
          "internalType": "address",
          "name": "receiver_",
          "type": "address"
        }
      ],
      "name": "deposit",
      "outputs": [
        {
          "internalType": "uint256",
          "name": "",
          "type": "uint256"
        }
      ],
      "stateMutability": "nonpayable",
      "type": "function"
    },
    {
      "inputs": [],
      "name": "kernel",
      "outputs": [
        {
          "internalType": "contract Kernel",
          "name": "",
          "type": "address"
        }
      ],
      "stateMutability": "view",
      "type": "function"
    },
    {
      "inputs": [
        {
          "internalType": "address",
          "name": "",
          "type": "address"
        }
      ],
      "name": "lastActionTimestamp",
      "outputs": [
        {
          "internalType": "uint256",
          "name": "",
          "type": "uint256"
        }
      ],
      "stateMutability": "view",
      "type": "function"
    },
    {
      "inputs": [
        {
          "internalType": "address",
          "name": "",
          "type": "address"
        }
      ],
      "name": "lastDepositTimestamp",
      "outputs": [
        {
          "internalType": "uint256",
          "name": "",
          "type": "uint256"
        }
      ],
      "stateMutability": "view",
      "type": "function"
    },
    {
      "inputs": [
        {
          "internalType": "address",
          "name": "",
          "type": "address"
        }
      ],
      "name": "maxDeposit",
      "outputs": [
        {
          "internalType": "uint256",
          "name": "",
          "type": "uint256"
        }
      ],
      "stateMutability": "view",
      "type": "function"
    },
    {
      "inputs": [
        {
          "internalType": "address",
          "name": "",
          "type": "address"
        }
      ],
      "name": "maxMint",
      "outputs": [
        {
          "internalType": "uint256",
          "name": "",
          "type": "uint256"
        }
      ],
      "stateMutability": "view",
      "type": "function"
    },
    {
      "inputs": [
        {
          "internalType": "address",
          "name": "owner",
          "type": "address"
        }
      ],
      "name": "maxRedeem",
      "outputs": [
        {
          "internalType": "uint256",
          "name": "",
          "type": "uint256"
        }
      ],
      "stateMutability": "view",
      "type": "function"
    },
    {
      "inputs": [
        {
          "internalType": "address",
          "name": "owner",
          "type": "address"
        }
      ],
      "name": "maxWithdraw",
      "outputs": [
        {
          "internalType": "uint256",
          "name": "",
          "type": "uint256"
        }
      ],
      "stateMutability": "view",
      "type": "function"
    },
    {
      "inputs": [
        {
          "internalType": "uint256",
          "name": "shares_",
          "type": "uint256"
        },
        {
          "internalType": "address",
          "name": "receiver_",
          "type": "address"
        }
      ],
      "name": "mint",
      "outputs": [
        {
          "internalType": "uint256",
          "name": "",
          "type": "uint256"
        }
      ],
      "stateMutability": "nonpayable",
      "type": "function"
    },
    {
      "inputs": [],
      "name": "name",
      "outputs": [
        {
          "internalType": "string",
          "name": "",
          "type": "string"
        }
      ],
      "stateMutability": "view",
      "type": "function"
    },
    {
      "inputs": [
        {
          "internalType": "address",
          "name": "owner",
          "type": "address"
        },
        {
          "internalType": "address",
          "name": "spender",
          "type": "address"
        },
        {
          "internalType": "uint256",
          "name": "value",
          "type": "uint256"
        },
        {
          "internalType": "uint256",
          "name": "deadline",
          "type": "uint256"
        },
        {
          "internalType": "uint8",
          "name": "v",
          "type": "uint8"
        },
        {
          "internalType": "bytes32",
          "name": "r",
          "type": "bytes32"
        },
        {
          "internalType": "bytes32",
          "name": "s",
          "type": "bytes32"
        }
      ],
      "name": "permit",
      "outputs": [],
      "stateMutability": "nonpayable",
      "type": "function"
    },
    {
      "inputs": [
        {
          "internalType": "uint256",
          "name": "assets",
          "type": "uint256"
        }
      ],
      "name": "previewDeposit",
      "outputs": [
        {
          "internalType": "uint256",
          "name": "",
          "type": "uint256"
        }
      ],
      "stateMutability": "view",
      "type": "function"
    },
    {
      "inputs": [
        {
          "internalType": "uint256",
          "name": "shares",
          "type": "uint256"
        }
      ],
      "name": "previewMint",
      "outputs": [
        {
          "internalType": "uint256",
          "name": "",
          "type": "uint256"
        }
      ],
      "stateMutability": "view",
      "type": "function"
    },
    {
      "inputs": [
        {
          "internalType": "uint256",
          "name": "shares",
          "type": "uint256"
        }
      ],
      "name": "previewRedeem",
      "outputs": [
        {
          "internalType": "uint256",
          "name": "",
          "type": "uint256"
        }
      ],
      "stateMutability": "view",
      "type": "function"
    },
    {
      "inputs": [
        {
          "internalType": "uint256",
          "name": "assets",
          "type": "uint256"
        }
      ],
      "name": "previewWithdraw",
      "outputs": [
        {
          "internalType": "uint256",
          "name": "",
          "type": "uint256"
        }
      ],
      "stateMutability": "view",
      "type": "function"
    },
    {
      "inputs": [
        {
          "internalType": "uint256",
          "name": "shares_",
          "type": "uint256"
        },
        {
          "internalType": "address",
          "name": "receiver_",
          "type": "address"
        },
        {
          "internalType": "address",
          "name": "owner_",
          "type": "address"
        }
      ],
      "name": "redeem",
      "outputs": [
        {
          "internalType": "uint256",
          "name": "",
          "type": "uint256"
        }
      ],
      "stateMutability": "nonpayable",
      "type": "function"
    },
    {
      "inputs": [
        {
          "internalType": "address",
          "name": "_wallet",
          "type": "address"
        }
      ],
      "name": "resetActionTimestamp",
      "outputs": [],
      "stateMutability": "nonpayable",
      "type": "function"
    },
    {
      "inputs": [],
      "name": "symbol",
      "outputs": [
        {
          "internalType": "string",
          "name": "",
          "type": "string"
        }
      ],
      "stateMutability": "view",
      "type": "function"
    },
    {
      "inputs": [],
      "name": "totalAssets",
      "outputs": [
        {
          "internalType": "uint256",
          "name": "",
          "type": "uint256"
        }
      ],
      "stateMutability": "view",
      "type": "function"
    },
    {
      "inputs": [],
      "name": "totalSupply",
      "outputs": [
        {
          "internalType": "uint256",
          "name": "",
          "type": "uint256"
        }
      ],
      "stateMutability": "view",
      "type": "function"
    },
    {
      "inputs": [
        {
          "internalType": "address",
          "name": "to_",
          "type": "address"
        },
        {
          "internalType": "uint256",
          "name": "amt_",
          "type": "uint256"
        }
      ],
      "name": "transfer",
      "outputs": [
        {
          "internalType": "bool",
          "name": "",
          "type": "bool"
        }
      ],
      "stateMutability": "nonpayable",
      "type": "function"
    },
    {
      "inputs": [
        {
          "internalType": "address",
          "name": "from_",
          "type": "address"
        },
        {
          "internalType": "address",
          "name": "to_",
          "type": "address"
        },
        {
          "internalType": "uint256",
          "name": "amount_",
          "type": "uint256"
        }
      ],
      "name": "transferFrom",
      "outputs": [
        {
          "internalType": "bool",
          "name": "",
          "type": "bool"
        }
      ],
      "stateMutability": "nonpayable",
      "type": "function"
    },
    {
      "inputs": [
        {
          "internalType": "uint256",
          "name": "assets_",
          "type": "uint256"
        },
        {
          "internalType": "address",
          "name": "receiver_",
          "type": "address"
        },
        {
          "internalType": "address",
          "name": "owner_",
          "type": "address"
        }
      ],
      "name": "withdraw",
      "outputs": [
        {
          "internalType": "uint256",
          "name": "",
          "type": "uint256"
        }
      ],
      "stateMutability": "nonpayable",
      "type": "function"
    },
    {
      "inputs": [],
      "name": "xGDAO",
      "outputs": [
        {
          "internalType": "contract ERC20",
          "name": "",
          "type": "address"
        }
      ],
      "stateMutability": "view",
      "type": "function"
    }
  ],
  "bytecode": {
    "object": "0x6101006040523480156200001257600080fd5b506040516200291d3803806200291d83398101604081905262000035916200021c565b806040518060400160405280601081526020016f476f65726c692044414f20566f74657360801b81525060405180604001604052806005815260200164764744414f60d81b8152508181846001600160a01b031663313ce5676040518163ffffffff1660e01b8152600401602060405180830381865afa158015620000be573d6000803e3d6000fd5b505050506040513d601f19601f82011682018060405250810190620000e491906200025b565b600080546001600160a01b0319166001600160a01b038a1617905560016200010d84826200032c565b5060026200011c83826200032c565b5060ff81166080524660a0526200013262000167565b60c052505050506001600160a01b0391821660e05250600680546001600160a01b031916929091169190911790555062000476565b60007f8b73c3c69bb8fe3d512ecc4cf759cc79239f7b179b0ffacaa9a75d522b39400f60016040516200019b9190620003f8565b6040805191829003822060208301939093528101919091527fc89efdaa54c0f20c7adf612882df0950f5a951637e0307cdcb4c672f298b8bc660608201524660808201523060a082015260c00160405160208183030381529060405280519060200120905090565b6001600160a01b03811681146200021957600080fd5b50565b600080604083850312156200023057600080fd5b82516200023d8162000203565b6020840151909250620002508162000203565b809150509250929050565b6000602082840312156200026e57600080fd5b815160ff811681146200028057600080fd5b9392505050565b634e487b7160e01b600052604160045260246000fd5b600181811c90821680620002b257607f821691505b602082108103620002d357634e487b7160e01b600052602260045260246000fd5b50919050565b601f8211156200032757600081815260208120601f850160051c81016020861015620003025750805b601f850160051c820191505b8181101562000323578281556001016200030e565b5050505b505050565b81516001600160401b0381111562000348576200034862000287565b62000360816200035984546200029d565b84620002d9565b602080601f8311600181146200039857600084156200037f5750858301515b600019600386901b1c1916600185901b17855562000323565b600085815260208120601f198616915b82811015620003c957888601518255948401946001909101908401620003a8565b5085821015620003e85787850151600019600388901b60f8161c191681555b5050505050600190811b01905550565b600080835462000408816200029d565b6001828116801562000423576001811462000439576200046a565b60ff19841687528215158302870194506200046a565b8760005260208060002060005b85811015620004615781548a82015290840190820162000446565b50505082870194505b50929695505050505050565b60805160a05160c05160e05161244a620004d36000396000818161039f015281816106340152818161188b0152818161193d01528181611b800152611d4d01526000610af201526000610ac20152600061035e015261244a6000f3fe608060405234801561001057600080fd5b506004361061025c5760003560e01c806370a0823111610145578063ce96cb77116100bd578063dd62ed3e1161008c578063ea64391411610071578063ea643914146105d3578063ef8b30f7146105db578063ffa1ad74146105ee57600080fd5b8063dd62ed3e14610588578063e03481e1146105b357600080fd5b8063ce96cb771461050c578063d4aae0c41461051f578063d505accf1461053f578063d905777e1461055257600080fd5b8063b3d7f6b911610114578063ba087652116100f9578063ba087652146104e6578063c63d75b6146103e6578063c6e6f592146104f957600080fd5b8063b3d7f6b9146104c0578063b460af94146104d357600080fd5b806370a082311461047257806394bf804d1461049257806395d89b41146104a5578063a9059cbb146104ad57600080fd5b80632c63af4b116101d8578063402d267d116101a75780634cdad5061161018c5780634cdad5061461042c578063655d8dec1461043f5780636e553f651461045f57600080fd5b8063402d267d146103e65780634657b36c1461041957600080fd5b80632c63af4b14610344578063313ce567146103595780633644e5151461039257806338d52e0f1461039a57600080fd5b80630a28a4771161022f57806318160ddd1161021457806318160ddd146102fa5780631ae7ec2e1461030357806323b872dd1461033157600080fd5b80630a28a477146102c7578063148ea1a4146102da57600080fd5b806301e1d1141461026157806306fdde031461027c57806307a2d13a14610291578063095ea7b3146102a4575b600080fd5b610269610603565b6040519081526020015b60405180910390f35b6102846106b9565b6040516102739190612000565b61026961029f366004612073565b610747565b6102b76102b23660046120b1565b610774565b6040519015158152602001610273565b6102696102d5366004612073565b6107ee565b6102696102e83660046120dd565b60076020526000908152604090205481565b61026960035481565b6040517f564f5445530000000000000000000000000000000000000000000000000000008152602001610273565b6102b761033f3660046120fa565b61080e565b6103576103523660046120dd565b610972565b005b6103807f000000000000000000000000000000000000000000000000000000000000000081565b60405160ff9091168152602001610273565b610269610abe565b6103c17f000000000000000000000000000000000000000000000000000000000000000081565b60405173ffffffffffffffffffffffffffffffffffffffff9091168152602001610273565b6102696103f43660046120dd565b507fffffffffffffffffffffffffffffffffffffffffffffffffffffffffffffffff90565b6103576104273660046120dd565b610b14565b61026961043a366004612073565b610bae565b61026961044d3660046120dd565b60086020526000908152604090205481565b61026961046d36600461213b565b610bb9565b6102696104803660046120dd565b60046020526000908152604090205481565b6102696104a036600461213b565b610d0f565b610284610e65565b6102b76104bb3660046120b1565b610e72565b6102696104ce366004612073565b610fa0565b6102696104e136600461216b565b610fbf565b6102696104f436600461216b565b6110ee565b610269610507366004612073565b61121d565b61026961051a3660046120dd565b61123d565b6000546103c19073ffffffffffffffffffffffffffffffffffffffff1681565b61035761054d3660046121ad565b61126c565b6102696105603660046120dd565b73ffffffffffffffffffffffffffffffffffffffff1660009081526004602052604090205490565b610269610596366004612224565b600560209081526000928352604080842090915290825290205481565b6006546103c19073ffffffffffffffffffffffffffffffffffffffff1681565b61035761156f565b6102696105e9366004612073565b6115c4565b60408051600181526000602082015201610273565b6040517f70a082310000000000000000000000000000000000000000000000000000000081523060048201526000907f000000000000000000000000000000000000000000000000000000000000000073ffffffffffffffffffffffffffffffffffffffff16906370a0823190602401602060405180830381865afa158015610690573d6000803e3d6000fd5b505050506040513d601f19601f820116820180604052508101906106b49190612252565b905090565b600180546106c69061226b565b80601f01602080910402602001604051908101604052809291908181526020018280546106f29061226b565b801561073f5780601f106107145761010080835404028352916020019161073f565b820191906000526020600020905b81548152906001019060200180831161072257829003601f168201915b505050505081565b600354600090801561076b5761076661075e610603565b8490836115cf565b61076d565b825b9392505050565b33600081815260056020908152604080832073ffffffffffffffffffffffffffffffffffffffff8716808552925280832085905551919290917f8c5be1e5ebec7d5bd14f71427d1e84f3dd0314c0f7b2291e5b200ac8c7c3b925906107dc9086815260200190565b60405180910390a35060015b92915050565b600354600090801561076b5761076681610806610603565b8591906115ee565b6000805473ffffffffffffffffffffffffffffffffffffffff1663f166d9eb7f564f5445530000000000000000000000000000000000000000000000000000006040517fffffffff0000000000000000000000000000000000000000000000000000000060e084901b811682527fffffffffff0000000000000000000000000000000000000000000000000000009290921660048201523360248201526000359091166044820152606401602060405180830381865afa1580156108d6573d6000803e3d6000fd5b505050506040513d601f19601f820116820180604052508101906108fa91906122be565b610937576040517f11bf00c90000000000000000000000000000000000000000000000000000000081523360048201526024015b60405180910390fd5b73ffffffffffffffffffffffffffffffffffffffff8316600090815260086020526040902042905561096a84848461161c565b949350505050565b60005473ffffffffffffffffffffffffffffffffffffffff1663f166d9eb7f564f5445530000000000000000000000000000000000000000000000000000006040517fffffffff0000000000000000000000000000000000000000000000000000000060e084901b811682527fffffffffff0000000000000000000000000000000000000000000000000000009290921660048201523360248201526000359091166044820152606401602060405180830381865afa158015610a39573d6000803e3d6000fd5b505050506040513d601f19601f82011682018060405250810190610a5d91906122be565b610a95576040517f11bf00c900000000000000000000000000000000000000000000000000000000815233600482015260240161092e565b73ffffffffffffffffffffffffffffffffffffffff166000908152600760205260409020429055565b60007f00000000000000000000000000000000000000000000000000000000000000004614610aef576106b4611760565b507f000000000000000000000000000000000000000000000000000000000000000090565b60005473ffffffffffffffffffffffffffffffffffffffff163314610b67576040517f14fa403c00000000000000000000000000000000000000000000000000000000815233600482015260240161092e565b600080547fffffffffffffffffffffffff00000000000000000000000000000000000000001673ffffffffffffffffffffffffffffffffffffffff92909216919091179055565b60006107e882610747565b6000805473ffffffffffffffffffffffffffffffffffffffff1663f166d9eb7f564f5445530000000000000000000000000000000000000000000000000000006040517fffffffff0000000000000000000000000000000000000000000000000000000060e084901b811682527fffffffffff0000000000000000000000000000000000000000000000000000009290921660048201523360248201526000359091166044820152606401602060405180830381865afa158015610c81573d6000803e3d6000fd5b505050506040513d601f19601f82011682018060405250810190610ca591906122be565b610cdd576040517f11bf00c900000000000000000000000000000000000000000000000000000000815233600482015260240161092e565b73ffffffffffffffffffffffffffffffffffffffff8216600090815260086020526040902042905561076d83836117fa565b6000805473ffffffffffffffffffffffffffffffffffffffff1663f166d9eb7f564f5445530000000000000000000000000000000000000000000000000000006040517fffffffff0000000000000000000000000000000000000000000000000000000060e084901b811682527fffffffffff0000000000000000000000000000000000000000000000000000009290921660048201523360248201526000359091166044820152606401602060405180830381865afa158015610dd7573d6000803e3d6000fd5b505050506040513d601f19601f82011682018060405250810190610dfb91906122be565b610e33576040517f11bf00c900000000000000000000000000000000000000000000000000000000815233600482015260240161092e565b73ffffffffffffffffffffffffffffffffffffffff8216600090815260086020526040902042905561076d8383611916565b600280546106c69061226b565b6000805473ffffffffffffffffffffffffffffffffffffffff1663f166d9eb7f564f5445530000000000000000000000000000000000000000000000000000006040517fffffffff0000000000000000000000000000000000000000000000000000000060e084901b811682527fffffffffff0000000000000000000000000000000000000000000000000000009290921660048201523360248201526000359091166044820152606401602060405180830381865afa158015610f3a573d6000803e3d6000fd5b505050506040513d601f19601f82011682018060405250810190610f5e91906122be565b610f96576040517f11bf00c900000000000000000000000000000000000000000000000000000000815233600482015260240161092e565b61076d83836119bf565b600354600090801561076b57610766610fb7610603565b8490836115ee565b6000805473ffffffffffffffffffffffffffffffffffffffff1663f166d9eb7f564f5445530000000000000000000000000000000000000000000000000000006040517fffffffff0000000000000000000000000000000000000000000000000000000060e084901b811682527fffffffffff0000000000000000000000000000000000000000000000000000009290921660048201523360248201526000359091166044820152606401602060405180830381865afa158015611087573d6000803e3d6000fd5b505050506040513d601f19601f820116820180604052508101906110ab91906122be565b6110e3576040517f11bf00c900000000000000000000000000000000000000000000000000000000815233600482015260240161092e565b61096a848484611a44565b6000805473ffffffffffffffffffffffffffffffffffffffff1663f166d9eb7f564f5445530000000000000000000000000000000000000000000000000000006040517fffffffff0000000000000000000000000000000000000000000000000000000060e084901b811682527fffffffffff0000000000000000000000000000000000000000000000000000009290921660048201523360248201526000359091166044820152606401602060405180830381865afa1580156111b6573d6000803e3d6000fd5b505050506040513d601f19601f820116820180604052508101906111da91906122be565b611212576040517f11bf00c900000000000000000000000000000000000000000000000000000000815233600482015260240161092e565b61096a848484611ba7565b600354600090801561076b5761076681611235610603565b8591906115cf565b73ffffffffffffffffffffffffffffffffffffffff81166000908152600460205260408120546107e890610747565b428410156112d6576040517f08c379a000000000000000000000000000000000000000000000000000000000815260206004820152601760248201527f5045524d49545f444541444c494e455f45585049524544000000000000000000604482015260640161092e565b600060016112e2610abe565b604080517f6e71edae12b1b97f4d1f60370fef10105fa2faae0126114a169c64845d6126c9602082015273ffffffffffffffffffffffffffffffffffffffff808d1692820192909252908a1660608201526080810189905260a0810188905260c0016040516020818303038152906040528051906020012060405160200161139c9291907f190100000000000000000000000000000000000000000000000000000000000081526002810192909252602282015260420190565b604080517fffffffffffffffffffffffffffffffffffffffffffffffffffffffffffffffe08184030181528282528051602091820120600084529083018083525260ff871690820152606081018590526080810184905260a0016020604051602081039080840390855afa158015611418573d6000803e3d6000fd5b50506040517fffffffffffffffffffffffffffffffffffffffffffffffffffffffffffffffe0015191505073ffffffffffffffffffffffffffffffffffffffff81161580159061149357508773ffffffffffffffffffffffffffffffffffffffff168173ffffffffffffffffffffffffffffffffffffffff16145b6114f9576040517f08c379a000000000000000000000000000000000000000000000000000000000815260206004820152600e60248201527f494e56414c49445f5349474e4552000000000000000000000000000000000000604482015260640161092e565b73ffffffffffffffffffffffffffffffffffffffff90811660009081526005602090815260408083208a8516808552908352928190208990555188815291928a16917f8c5be1e5ebec7d5bd14f71427d1e84f3dd0314c0f7b2291e5b200ac8c7c3b925910160405180910390a350505050505050565b60005473ffffffffffffffffffffffffffffffffffffffff1633146115c2576040517f14fa403c00000000000000000000000000000000000000000000000000000000815233600482015260240161092e565b565b60006107e88261121d565b8282028115158415858304851417166115e757600080fd5b0492915050565b82820281151584158583048514171661160657600080fd5b6001826001830304018115150290509392505050565b73ffffffffffffffffffffffffffffffffffffffff831660009081526005602090815260408083203384529091528120547fffffffffffffffffffffffffffffffffffffffffffffffffffffffffffffffff81146116b05761167e838261230f565b73ffffffffffffffffffffffffffffffffffffffff861660009081526005602090815260408083203384529091529020555b73ffffffffffffffffffffffffffffffffffffffff8516600090815260046020526040812080548592906116e590849061230f565b909155505073ffffffffffffffffffffffffffffffffffffffff808516600081815260046020526040908190208054870190555190918716907fddf252ad1be2c89b69c2b068fc378daa952ba7f163c4a11628f55a4df523b3ef9061174d9087815260200190565b60405180910390a3506001949350505050565b60007f8b73c3c69bb8fe3d512ecc4cf759cc79239f7b179b0ffacaa9a75d522b39400f60016040516117929190612326565b6040805191829003822060208301939093528101919091527fc89efdaa54c0f20c7adf612882df0950f5a951637e0307cdcb4c672f298b8bc660608201524660808201523060a082015260c00160405160208183030381529060405280519060200120905090565b6000611805836115c4565b905080600003611871576040517f08c379a000000000000000000000000000000000000000000000000000000000815260206004820152600b60248201527f5a45524f5f534841524553000000000000000000000000000000000000000000604482015260640161092e565b6118b373ffffffffffffffffffffffffffffffffffffffff7f000000000000000000000000000000000000000000000000000000000000000016333086611d74565b6118bd8282611e3a565b604080518481526020810183905273ffffffffffffffffffffffffffffffffffffffff84169133917fdcbc1c05240f31ff3ad067ef1ee35ce4997762752e3a095284754544f4c709d791015b60405180910390a36107e8565b600061192183610fa0565b905061196573ffffffffffffffffffffffffffffffffffffffff7f000000000000000000000000000000000000000000000000000000000000000016333084611d74565b61196f8284611e3a565b604080518281526020810185905273ffffffffffffffffffffffffffffffffffffffff84169133917fdcbc1c05240f31ff3ad067ef1ee35ce4997762752e3a095284754544f4c709d79101611909565b336000908152600460205260408120805483919083906119e090849061230f565b909155505073ffffffffffffffffffffffffffffffffffffffff8316600081815260046020526040908190208054850190555133907fddf252ad1be2c89b69c2b068fc378daa952ba7f163c4a11628f55a4df523b3ef906107dc9086815260200190565b6000611a4f846107ee565b90503373ffffffffffffffffffffffffffffffffffffffff831614611b045773ffffffffffffffffffffffffffffffffffffffff821660009081526005602090815260408083203384529091529020547fffffffffffffffffffffffffffffffffffffffffffffffffffffffffffffffff8114611b0257611ad0828261230f565b73ffffffffffffffffffffffffffffffffffffffff841660009081526005602090815260408083203384529091529020555b505b611b0e8282611eb3565b604080518581526020810183905273ffffffffffffffffffffffffffffffffffffffff808516929086169133917ffbde797d201c681b91056529119e0b02407c7bb96a4a2c75c01fc9667232c8db910160405180910390a461076d73ffffffffffffffffffffffffffffffffffffffff7f0000000000000000000000000000000000000000000000000000000000000000168486611f41565b60003373ffffffffffffffffffffffffffffffffffffffff831614611c5c5773ffffffffffffffffffffffffffffffffffffffff821660009081526005602090815260408083203384529091529020547fffffffffffffffffffffffffffffffffffffffffffffffffffffffffffffffff8114611c5a57611c28858261230f565b73ffffffffffffffffffffffffffffffffffffffff841660009081526005602090815260408083203384529091529020555b505b611c6584610bae565b905080600003611cd1576040517f08c379a000000000000000000000000000000000000000000000000000000000815260206004820152600b60248201527f5a45524f5f415353455453000000000000000000000000000000000000000000604482015260640161092e565b611cdb8285611eb3565b604080518281526020810186905273ffffffffffffffffffffffffffffffffffffffff808516929086169133917ffbde797d201c681b91056529119e0b02407c7bb96a4a2c75c01fc9667232c8db910160405180910390a461076d73ffffffffffffffffffffffffffffffffffffffff7f0000000000000000000000000000000000000000000000000000000000000000168483611f41565b60006040517f23b872dd0000000000000000000000000000000000000000000000000000000081528460048201528360248201528260448201526020600060648360008a5af13d15601f3d1160016000511416171691505080611e33576040517f08c379a000000000000000000000000000000000000000000000000000000000815260206004820152601460248201527f5452414e534645525f46524f4d5f4641494c4544000000000000000000000000604482015260640161092e565b5050505050565b8060036000828254611e4c91906123fc565b909155505073ffffffffffffffffffffffffffffffffffffffff82166000818152600460209081526040808320805486019055518481527fddf252ad1be2c89b69c2b068fc378daa952ba7f163c4a11628f55a4df523b3ef91015b60405180910390a35050565b73ffffffffffffffffffffffffffffffffffffffff821660009081526004602052604081208054839290611ee890849061230f565b909155505060038054829003905560405181815260009073ffffffffffffffffffffffffffffffffffffffff8416907fddf252ad1be2c89b69c2b068fc378daa952ba7f163c4a11628f55a4df523b3ef90602001611ea7565b60006040517fa9059cbb000000000000000000000000000000000000000000000000000000008152836004820152826024820152602060006044836000895af13d15601f3d1160016000511416171691505080611ffa576040517f08c379a000000000000000000000000000000000000000000000000000000000815260206004820152600f60248201527f5452414e534645525f4641494c45440000000000000000000000000000000000604482015260640161092e565b50505050565b600060208083528351808285015260005b8181101561202d57858101830151858201604001528201612011565b8181111561203f576000604083870101525b50601f017fffffffffffffffffffffffffffffffffffffffffffffffffffffffffffffffe016929092016040019392505050565b60006020828403121561208557600080fd5b5035919050565b73ffffffffffffffffffffffffffffffffffffffff811681146120ae57600080fd5b50565b600080604083850312156120c457600080fd5b82356120cf8161208c565b946020939093013593505050565b6000602082840312156120ef57600080fd5b813561076d8161208c565b60008060006060848603121561210f57600080fd5b833561211a8161208c565b9250602084013561212a8161208c565b929592945050506040919091013590565b6000806040838503121561214e57600080fd5b8235915060208301356121608161208c565b809150509250929050565b60008060006060848603121561218057600080fd5b8335925060208401356121928161208c565b915060408401356121a28161208c565b809150509250925092565b600080600080600080600060e0888a0312156121c857600080fd5b87356121d38161208c565b965060208801356121e38161208c565b95506040880135945060608801359350608088013560ff8116811461220757600080fd5b9699959850939692959460a0840135945060c09093013592915050565b6000806040838503121561223757600080fd5b82356122428161208c565b915060208301356121608161208c565b60006020828403121561226457600080fd5b5051919050565b600181811c9082168061227f57607f821691505b6020821081036122b8577f4e487b7100000000000000000000000000000000000000000000000000000000600052602260045260246000fd5b50919050565b6000602082840312156122d057600080fd5b8151801515811461076d57600080fd5b7f4e487b7100000000000000000000000000000000000000000000000000000000600052601160045260246000fd5b600082821015612321576123216122e0565b500390565b600080835481600182811c91508083168061234257607f831692505b6020808410820361237a577f4e487b710000000000000000000000000000000000000000000000000000000086526022600452602486fd5b81801561238e57600181146123c1576123ee565b7fffffffffffffffffffffffffffffffffffffffffffffffffffffffffffffff00861689528415158502890196506123ee565b60008a81526020902060005b868110156123e65781548b8201529085019083016123cd565b505084890196505b509498975050505050505050565b6000821982111561240f5761240f6122e0565b50019056fea2646970667358221220158bf9ea64f587009fb47ab92c6e72e6afeaaf0561bfd085b30c37d3e99b927d64736f6c634300080f0033",
    "linkReferences": {}
  },
  "methodIdentifiers": {
    "DOMAIN_SEPARATOR()": "3644e515",
    "INIT()": "ea643914",
    "KEYCODE()": "1ae7ec2e",
    "VERSION()": "ffa1ad74",
    "allowance(address,address)": "dd62ed3e",
    "approve(address,uint256)": "095ea7b3",
    "asset()": "38d52e0f",
    "balanceOf(address)": "70a08231",
    "changeKernel(address)": "4657b36c",
    "convertToAssets(uint256)": "07a2d13a",
    "convertToShares(uint256)": "c6e6f592",
    "decimals()": "313ce567",
    "deposit(uint256,address)": "6e553f65",
    "kernel()": "d4aae0c4",
    "lastActionTimestamp(address)": "148ea1a4",
    "lastDepositTimestamp(address)": "655d8dec",
    "maxDeposit(address)": "402d267d",
    "maxMint(address)": "c63d75b6",
    "maxRedeem(address)": "d905777e",
    "maxWithdraw(address)": "ce96cb77",
    "mint(uint256,address)": "94bf804d",
    "name()": "06fdde03",
    "permit(address,address,uint256,uint256,uint8,bytes32,bytes32)": "d505accf",
    "previewDeposit(uint256)": "ef8b30f7",
    "previewMint(uint256)": "b3d7f6b9",
    "previewRedeem(uint256)": "4cdad506",
    "previewWithdraw(uint256)": "0a28a477",
    "redeem(uint256,address,address)": "ba087652",
    "resetActionTimestamp(address)": "2c63af4b",
    "symbol()": "95d89b41",
    "totalAssets()": "01e1d114",
    "totalSupply()": "18160ddd",
    "transfer(address,uint256)": "a9059cbb",
    "transferFrom(address,address,uint256)": "23b872dd",
    "withdraw(uint256,address,address)": "b460af94",
    "xGDAO()": "e03481e1"
  },
  "id": 102
}