{
  "abi": [
    {
      "inputs": [
        {
          "internalType": "address",
          "name": "_authority",
          "type": "address"
        }
      ],
      "stateMutability": "nonpayable",
      "type": "constructor"
    },
    {
      "anonymous": false,
      "inputs": [
        {
          "indexed": true,
          "internalType": "address",
          "name": "owner",
          "type": "address"
        },
        {
          "indexed": true,
          "internalType": "address",
          "name": "spender",
          "type": "address"
        },
        {
          "indexed": false,
          "internalType": "uint256",
          "name": "value",
          "type": "uint256"
        }
      ],
      "name": "Approval",
      "type": "event"
    },
    {
      "anonymous": false,
      "inputs": [
        {
          "indexed": true,
          "internalType": "contract IGDAOAuthority",
          "name": "authority",
          "type": "address"
        }
      ],
      "name": "AuthorityUpdated",
      "type": "event"
    },
    {
      "anonymous": false,
      "inputs": [
        {
          "indexed": true,
          "internalType": "address",
          "name": "from",
          "type": "address"
        },
        {
          "indexed": true,
          "internalType": "address",
          "name": "to",
          "type": "address"
        },
        {
          "indexed": false,
          "internalType": "uint256",
          "name": "value",
          "type": "uint256"
        }
      ],
      "name": "Transfer",
      "type": "event"
    },
    {
      "inputs": [],
      "name": "DOMAIN_SEPARATOR",
      "outputs": [
        {
          "internalType": "bytes32",
          "name": "",
          "type": "bytes32"
        }
      ],
      "stateMutability": "view",
      "type": "function"
    },
    {
      "inputs": [
        {
          "internalType": "address",
          "name": "owner",
          "type": "address"
        },
        {
          "internalType": "address",
          "name": "spender",
          "type": "address"
        }
      ],
      "name": "allowance",
      "outputs": [
        {
          "internalType": "uint256",
          "name": "",
          "type": "uint256"
        }
      ],
      "stateMutability": "view",
      "type": "function"
    },
    {
      "inputs": [
        {
          "internalType": "address",
          "name": "spender",
          "type": "address"
        },
        {
          "internalType": "uint256",
          "name": "amount",
          "type": "uint256"
        }
      ],
      "name": "approve",
      "outputs": [
        {
          "internalType": "bool",
          "name": "",
          "type": "bool"
        }
      ],
      "stateMutability": "nonpayable",
      "type": "function"
    },
    {
      "inputs": [],
      "name": "authority",
      "outputs": [
        {
          "internalType": "contract IGDAOAuthority",
          "name": "",
          "type": "address"
        }
      ],
      "stateMutability": "view",
      "type": "function"
    },
    {
      "inputs": [
        {
          "internalType": "address",
          "name": "account",
          "type": "address"
        }
      ],
      "name": "balanceOf",
      "outputs": [
        {
          "internalType": "uint256",
          "name": "",
          "type": "uint256"
        }
      ],
      "stateMutability": "view",
      "type": "function"
    },
    {
      "inputs": [
        {
          "internalType": "uint256",
          "name": "amount",
          "type": "uint256"
        }
      ],
      "name": "burn",
      "outputs": [],
      "stateMutability": "nonpayable",
      "type": "function"
    },
    {
      "inputs": [
        {
          "internalType": "address",
          "name": "account_",
          "type": "address"
        },
        {
          "internalType": "uint256",
          "name": "amount_",
          "type": "uint256"
        }
      ],
      "name": "burnFrom",
      "outputs": [],
      "stateMutability": "nonpayable",
      "type": "function"
    },
    {
      "inputs": [],
      "name": "decimals",
      "outputs": [
        {
          "internalType": "uint8",
          "name": "",
          "type": "uint8"
        }
      ],
      "stateMutability": "view",
      "type": "function"
    },
    {
      "inputs": [
        {
          "internalType": "address",
          "name": "spender",
          "type": "address"
        },
        {
          "internalType": "uint256",
          "name": "subtractedValue",
          "type": "uint256"
        }
      ],
      "name": "decreaseAllowance",
      "outputs": [
        {
          "internalType": "bool",
          "name": "",
          "type": "bool"
        }
      ],
      "stateMutability": "nonpayable",
      "type": "function"
    },
    {
      "inputs": [
        {
          "internalType": "address",
          "name": "recipient_",
          "type": "address"
        }
      ],
      "name": "faucetMint",
      "outputs": [],
      "stateMutability": "nonpayable",
      "type": "function"
    },
    {
      "inputs": [
        {
          "internalType": "address",
          "name": "spender",
          "type": "address"
        },
        {
          "internalType": "uint256",
          "name": "addedValue",
          "type": "uint256"
        }
      ],
      "name": "increaseAllowance",
      "outputs": [
        {
          "internalType": "bool",
          "name": "",
          "type": "bool"
        }
      ],
      "stateMutability": "nonpayable",
      "type": "function"
    },
    {
      "inputs": [
        {
          "internalType": "address",
          "name": "account_",
          "type": "address"
        },
        {
          "internalType": "uint256",
          "name": "amount_",
          "type": "uint256"
        }
      ],
      "name": "mint",
      "outputs": [],
      "stateMutability": "nonpayable",
      "type": "function"
    },
    {
      "inputs": [],
      "name": "name",
      "outputs": [
        {
          "internalType": "string",
          "name": "",
          "type": "string"
        }
      ],
      "stateMutability": "view",
      "type": "function"
    },
    {
      "inputs": [
        {
          "internalType": "address",
          "name": "owner",
          "type": "address"
        }
      ],
      "name": "nonces",
      "outputs": [
        {
          "internalType": "uint256",
          "name": "",
          "type": "uint256"
        }
      ],
      "stateMutability": "view",
      "type": "function"
    },
    {
      "inputs": [
        {
          "internalType": "address",
          "name": "owner",
          "type": "address"
        },
        {
          "internalType": "address",
          "name": "spender",
          "type": "address"
        },
        {
          "internalType": "uint256",
          "name": "value",
          "type": "uint256"
        },
        {
          "internalType": "uint256",
          "name": "deadline",
          "type": "uint256"
        },
        {
          "internalType": "uint8",
          "name": "v",
          "type": "uint8"
        },
        {
          "internalType": "bytes32",
          "name": "r",
          "type": "bytes32"
        },
        {
          "internalType": "bytes32",
          "name": "s",
          "type": "bytes32"
        }
      ],
      "name": "permit",
      "outputs": [],
      "stateMutability": "nonpayable",
      "type": "function"
    },
    {
      "inputs": [
        {
          "internalType": "contract IGDAOAuthority",
          "name": "_newAuthority",
          "type": "address"
        }
      ],
      "name": "setAuthority",
      "outputs": [],
      "stateMutability": "nonpayable",
      "type": "function"
    },
    {
      "inputs": [],
      "name": "symbol",
      "outputs": [
        {
          "internalType": "string",
          "name": "",
          "type": "string"
        }
      ],
      "stateMutability": "view",
      "type": "function"
    },
    {
      "inputs": [],
      "name": "totalSupply",
      "outputs": [
        {
          "internalType": "uint256",
          "name": "",
          "type": "uint256"
        }
      ],
      "stateMutability": "view",
      "type": "function"
    },
    {
      "inputs": [
        {
          "internalType": "address",
          "name": "recipient",
          "type": "address"
        },
        {
          "internalType": "uint256",
          "name": "amount",
          "type": "uint256"
        }
      ],
      "name": "transfer",
      "outputs": [
        {
          "internalType": "bool",
          "name": "",
          "type": "bool"
        }
      ],
      "stateMutability": "nonpayable",
      "type": "function"
    },
    {
      "inputs": [
        {
          "internalType": "address",
          "name": "sender",
          "type": "address"
        },
        {
          "internalType": "address",
          "name": "recipient",
          "type": "address"
        },
        {
          "internalType": "uint256",
          "name": "amount",
          "type": "uint256"
        }
      ],
      "name": "transferFrom",
      "outputs": [
        {
          "internalType": "bool",
          "name": "",
          "type": "bool"
        }
      ],
      "stateMutability": "nonpayable",
      "type": "function"
    }
  ],
  "bytecode": {
    "object": "0x7f6e71edae12b1b97f4d1f60370fef10105fa2faae0126114a169c64845d6126c9610140526101a0604052600c6101609081526b15539055551213d49256915160a21b61018052600790620000559082620002d0565b503480156200006357600080fd5b506040516200191e3803806200191e83398101604081905262000086916200039c565b806040518060400160405280600f81526020016e5445535420476f65726c692044414f60881b81525080604051806040016040528060018152602001603160f81b8152506040518060400160405280600f81526020016e5445535420476f65726c692044414f60881b815250604051806040016040528060048152602001634744414f60e01b81525060098260039081620001229190620002d0565b506004620001318382620002d0565b506005805460ff191660ff929092169190911790555050815160208084019190912082518383012060e08290526101008190524660a0818152604080517f8b73c3c69bb8fe3d512ecc4cf759cc79239f7b179b0ffacaa9a75d522b39400f81880181905281830187905260608201869052608082019490945230818401528151808203909301835260c00190528051940193909320919290916080523060c052610120525050600880546001600160a01b0319166001600160a01b0386169081179091556040519093507f2f658b440c35314f52658ea8a740e05b284cdc84dc9ae01e891f21b8933e7cad925060009150a25050620003ce565b634e487b7160e01b600052604160045260246000fd5b600181811c908216806200025657607f821691505b6020821081036200027757634e487b7160e01b600052602260045260246000fd5b50919050565b601f821115620002cb57600081815260208120601f850160051c81016020861015620002a65750805b601f850160051c820191505b81811015620002c757828155600101620002b2565b5050505b505050565b81516001600160401b03811115620002ec57620002ec6200022b565b6200030481620002fd845462000241565b846200027d565b602080601f8311600181146200033c5760008415620003235750858301515b600019600386901b1c1916600185901b178555620002c7565b600085815260208120601f198616915b828110156200036d578886015182559484019460019091019084016200034c565b50858210156200038c5787850151600019600388901b60f8161c191681555b5050505050600190811b01905550565b600060208284031215620003af57600080fd5b81516001600160a01b0381168114620003c757600080fd5b9392505050565b60805160a05160c05160e0516101005161012051610140516114f56200042960003960006106b801526000610b4e01526000610b9d01526000610b7801526000610ad101526000610afb01526000610b2501526114f56000f3fe608060405234801561001057600080fd5b50600436106100fc5760003560e01c806306fdde0314610101578063095ea7b31461011f57806318160ddd1461014257806323b872dd14610154578063313ce567146101675780633644e5151461017c578063395093511461018457806340c10f191461019757806342966c68146101ac57806370a08231146101bf57806379cc6790146101e85780637a9e5e4b146101fb5780637ecebe001461020e57806395d89b4114610221578063a457c2d714610229578063a9059cbb1461023c578063bf7e214f1461024f578063d505accf1461027a578063dd62ed3e1461028d578063fc8d44b7146102a0575b600080fd5b6101096102b3565b60405161011691906110d1565b60405180910390f35b61013261012d36600461113b565b610345565b6040519015158152602001610116565b6002545b604051908152602001610116565b610132610162366004611167565b61035b565b60055460405160ff9091168152602001610116565b6101466103c4565b61013261019236600461113b565b6103d3565b6101aa6101a536600461113b565b610409565b005b6101aa6101ba3660046111a8565b6104cc565b6101466101cd3660046111c1565b6001600160a01b031660009081526020819052604090205490565b6101aa6101f636600461113b565b6104d9565b6101aa6102093660046111c1565b6104e3565b61014661021c3660046111c1565b6105d9565b6101096105f9565b61013261023736600461113b565b610608565b61013261024a36600461113b565b610657565b600854610262906001600160a01b031681565b6040516001600160a01b039091168152602001610116565b6101aa6102883660046111de565b610664565b61014661029b366004611255565b6107c8565b6101aa6102ae3660046111c1565b6107f3565b6060600380546102c29061128e565b80601f01602080910402602001604051908101604052809291908181526020018280546102ee9061128e565b801561033b5780601f106103105761010080835404028352916020019161033b565b820191906000526020600020905b81548152906001019060200180831161031e57829003601f168201915b5050505050905090565b6000610352338484610802565b50600192915050565b6000610368848484610927565b6103ba84336103b58560405180606001604052806028815260200161142f602891396001600160a01b038a1660009081526001602090815260408083203384529091529020549190610a98565b610802565b5060019392505050565b60006103ce610ac4565b905090565b3360008181526001602090815260408083206001600160a01b038716845290915281205490916103529185906103b59086610beb565b600860009054906101000a90046001600160a01b03166001600160a01b031663fbfa77cf6040518163ffffffff1660e01b8152600401602060405180830381865afa15801561045c573d6000803e3d6000fd5b505050506040513d601f19601f8201168201806040525081019061048091906112c2565b6001600160a01b0316336001600160a01b0316146007906104bd5760405162461bcd60e51b81526004016104b491906112df565b60405180910390fd5b506104c88282610bfe565b5050565b6104d63382610ccb565b50565b6104c88282610dbd565b600860009054906101000a90046001600160a01b03166001600160a01b0316630c340a246040518163ffffffff1660e01b8152600401602060405180830381865afa158015610536573d6000803e3d6000fd5b505050506040513d601f19601f8201168201806040525081019061055a91906112c2565b6001600160a01b0316336001600160a01b03161460079061058e5760405162461bcd60e51b81526004016104b491906112df565b50600880546001600160a01b0319166001600160a01b0383169081179091556040517f2f658b440c35314f52658ea8a740e05b284cdc84dc9ae01e891f21b8933e7cad90600090a250565b6001600160a01b0381166000908152600660205260408120545b92915050565b6060600480546102c29061128e565b600061035233846103b58560405180606001604052806025815260200161149b602591393360009081526001602090815260408083206001600160a01b038d1684529091529020549190610a98565b6000610352338484610927565b834211156106b45760405162461bcd60e51b815260206004820152601d60248201527f45524332305065726d69743a206578706972656420646561646c696e6500000060448201526064016104b4565b60007f00000000000000000000000000000000000000000000000000000000000000008888886106e38c610e09565b6040805160208101969096526001600160a01b0394851690860152929091166060840152608083015260a082015260c0810186905260e001604051602081830303815290604052805190602001209050600061073e82610e33565b9050600061074e82878787610e81565b9050896001600160a01b0316816001600160a01b0316146107b15760405162461bcd60e51b815260206004820152601e60248201527f45524332305065726d69743a20696e76616c6964207369676e6174757265000060448201526064016104b4565b6107bc8a8a8a610802565b50505050505050505050565b6001600160a01b03918216600090815260016020908152604080832093909416825291909152205490565b6104d6816402540be400610bfe565b6001600160a01b0383166108645760405162461bcd60e51b8152602060048201526024808201527f45524332303a20617070726f76652066726f6d20746865207a65726f206164646044820152637265737360e01b60648201526084016104b4565b6001600160a01b0382166108c55760405162461bcd60e51b815260206004820152602260248201527f45524332303a20617070726f766520746f20746865207a65726f206164647265604482015261737360f01b60648201526084016104b4565b6001600160a01b0383811660008181526001602090815260408083209487168084529482529182902085905590518481527f8c5be1e5ebec7d5bd14f71427d1e84f3dd0314c0f7b2291e5b200ac8c7c3b92591015b60405180910390a3505050565b6001600160a01b03831661098b5760405162461bcd60e51b815260206004820152602560248201527f45524332303a207472616e736665722066726f6d20746865207a65726f206164604482015264647265737360d81b60648201526084016104b4565b6001600160a01b0382166109ed5760405162461bcd60e51b815260206004820152602360248201527f45524332303a207472616e7366657220746f20746865207a65726f206164647260448201526265737360e81b60648201526084016104b4565b610a2a81604051806060016040528060268152602001611409602691396001600160a01b0386166000908152602081905260409020549190610a98565b6001600160a01b038085166000908152602081905260408082209390935590841681522054610a599082610beb565b6001600160a01b0383811660008181526020818152604091829020949094555184815290929186169160008051602061147b833981519152910161091a565b60008184841115610abc5760405162461bcd60e51b81526004016104b491906110d1565b505050900390565b6000306001600160a01b037f000000000000000000000000000000000000000000000000000000000000000016148015610b1d57507f000000000000000000000000000000000000000000000000000000000000000046145b15610b4757507f000000000000000000000000000000000000000000000000000000000000000090565b50604080517f00000000000000000000000000000000000000000000000000000000000000006020808301919091527f0000000000000000000000000000000000000000000000000000000000000000828401527f000000000000000000000000000000000000000000000000000000000000000060608301524660808301523060a0808401919091528351808403909101815260c0909201909252805191012090565b6000610bf782846113a1565b9392505050565b6001600160a01b038216610c545760405162461bcd60e51b815260206004820152601f60248201527f45524332303a206d696e7420746f20746865207a65726f20616464726573730060448201526064016104b4565b600254610c619082610beb565b6002556001600160a01b038216600090815260208190526040902054610c879082610beb565b6001600160a01b0383166000818152602081815260409182902093909355518381529091309160008051602061147b83398151915291015b60405180910390a35050565b6001600160a01b038216610d2b5760405162461bcd60e51b815260206004820152602160248201527f45524332303a206275726e2066726f6d20746865207a65726f206164647265736044820152607360f81b60648201526084016104b4565b610d68816040518060600160405280602281526020016113e7602291396001600160a01b0385166000908152602081905260409020549190610a98565b6001600160a01b038316600090815260208190526040902055600254610d8e9082610ea9565b6002556040518181526000906001600160a01b0384169060008051602061147b83398151915290602001610cbf565b6000610ded8260405180606001604052806024815260200161145760249139610de686336107c8565b9190610a98565b9050610dfa833383610802565b610e048383610ccb565b505050565b6001600160a01b0381166000908152600660205260409020805490610e2d81610eb5565b50919050565b60006105f3610e40610ac4565b8360405161190160f01b6020820152602281018390526042810182905260009060620160405160208183030381529060405280519060200120905092915050565b6000806000610e9287878787610ed2565b91509150610e9f81610f8c565b5095945050505050565b6000610bf782846113b9565b6001816000016000828254610eca91906113a1565b909155505050565b6000806fa2a8918ca85bafe22016d0b997e4df60600160ff1b03831115610eff5750600090506003610f83565b6040805160008082526020820180845289905260ff881692820192909252606081018690526080810185905260019060a0016020604051602081039080840390855afa158015610f53573d6000803e3d6000fd5b5050604051601f1901519150506001600160a01b038116610f7c57600060019250925050610f83565b9150600090505b94509492505050565b6000816004811115610fa057610fa06113d0565b03610fa85750565b6001816004811115610fbc57610fbc6113d0565b036110045760405162461bcd60e51b815260206004820152601860248201527745434453413a20696e76616c6964207369676e617475726560401b60448201526064016104b4565b6002816004811115611018576110186113d0565b036110655760405162461bcd60e51b815260206004820152601f60248201527f45434453413a20696e76616c6964207369676e6174757265206c656e6774680060448201526064016104b4565b6003816004811115611079576110796113d0565b036104d65760405162461bcd60e51b815260206004820152602260248201527f45434453413a20696e76616c6964207369676e6174757265202773272076616c604482015261756560f01b60648201526084016104b4565b600060208083528351808285015260005b818110156110fe578581018301518582016040015282016110e2565b81811115611110576000604083870101525b50601f01601f1916929092016040019392505050565b6001600160a01b03811681146104d657600080fd5b6000806040838503121561114e57600080fd5b823561115981611126565b946020939093013593505050565b60008060006060848603121561117c57600080fd5b833561118781611126565b9250602084013561119781611126565b929592945050506040919091013590565b6000602082840312156111ba57600080fd5b5035919050565b6000602082840312156111d357600080fd5b8135610bf781611126565b600080600080600080600060e0888a0312156111f957600080fd5b873561120481611126565b9650602088013561121481611126565b95506040880135945060608801359350608088013560ff8116811461123857600080fd5b9699959850939692959460a0840135945060c09093013592915050565b6000806040838503121561126857600080fd5b823561127381611126565b9150602083013561128381611126565b809150509250929050565b600181811c908216806112a257607f821691505b602082108103610e2d57634e487b7160e01b600052602260045260246000fd5b6000602082840312156112d457600080fd5b8151610bf781611126565b600060208083526000845481600182811c91508083168061130157607f831692505b858310810361131e57634e487b7160e01b85526022600452602485fd5b87860183815260200181801561133b57600181146113515761137c565b60ff198616825284151560051b8201965061137c565b60008b81526020902060005b868110156113765781548482015290850190890161135d565b83019750505b50949998505050505050505050565b634e487b7160e01b600052601160045260246000fd5b600082198211156113b4576113b461138b565b500190565b6000828210156113cb576113cb61138b565b500390565b634e487b7160e01b600052602160045260246000fdfe45524332303a206275726e20616d6f756e7420657863656564732062616c616e636545524332303a207472616e7366657220616d6f756e7420657863656564732062616c616e636545524332303a207472616e7366657220616d6f756e74206578636565647320616c6c6f77616e636545524332303a206275726e20616d6f756e74206578636565647320616c6c6f77616e6365ddf252ad1be2c89b69c2b068fc378daa952ba7f163c4a11628f55a4df523b3ef45524332303a2064656372656173656420616c6c6f77616e63652062656c6f77207a65726fa2646970667358221220d0ca0444d174935a8ea9acb8e7938f81f8a89bc964385fdd9320d29e056b43c264736f6c634300080f0033",
    "linkReferences": {}
  },
  "methodIdentifiers": {
    "DOMAIN_SEPARATOR()": "3644e515",
    "allowance(address,address)": "dd62ed3e",
    "approve(address,uint256)": "095ea7b3",
    "authority()": "bf7e214f",
    "balanceOf(address)": "70a08231",
    "burn(uint256)": "42966c68",
    "burnFrom(address,uint256)": "79cc6790",
    "decimals()": "313ce567",
    "decreaseAllowance(address,uint256)": "a457c2d7",
    "faucetMint(address)": "fc8d44b7",
    "increaseAllowance(address,uint256)": "39509351",
    "mint(address,uint256)": "40c10f19",
    "name()": "06fdde03",
    "nonces(address)": "7ecebe00",
    "permit(address,address,uint256,uint256,uint8,bytes32,bytes32)": "d505accf",
    "setAuthority(address)": "7a9e5e4b",
    "symbol()": "95d89b41",
    "totalSupply()": "18160ddd",
    "transfer(address,uint256)": "a9059cbb",
    "transferFrom(address,address,uint256)": "23b872dd"
  },
  "id": 30
}