{
  "abi": [
    {
      "inputs": [
        {
          "internalType": "address",
          "name": "_depositCoin",
          "type": "address"
        },
        {
          "internalType": "address",
          "name": "_saleToken",
          "type": "address"
        },
        {
          "internalType": "address",
          "name": "_multisig",
          "type": "address"
        }
      ],
      "stateMutability": "nonpayable",
      "type": "constructor"
    },
    {
      "anonymous": false,
      "inputs": [
        {
          "indexed": true,
          "internalType": "address",
          "name": "previousOwner",
          "type": "address"
        },
        {
          "indexed": true,
          "internalType": "address",
          "name": "newOwner",
          "type": "address"
        }
      ],
      "name": "OwnershipPulled",
      "type": "event"
    },
    {
      "anonymous": false,
      "inputs": [
        {
          "indexed": true,
          "internalType": "address",
          "name": "previousOwner",
          "type": "address"
        },
        {
          "indexed": true,
          "internalType": "address",
          "name": "newOwner",
          "type": "address"
        }
      ],
      "name": "OwnershipPushed",
      "type": "event"
    },
    {
      "inputs": [],
      "name": "cap",
      "outputs": [
        {
          "internalType": "uint256",
          "name": "",
          "type": "uint256"
        }
      ],
      "stateMutability": "view",
      "type": "function"
    },
    {
      "inputs": [
        {
          "internalType": "uint256",
          "name": "_cap",
          "type": "uint256"
        },
        {
          "internalType": "uint256",
          "name": "_individualCap",
          "type": "uint256"
        }
      ],
      "name": "changeCap",
      "outputs": [],
      "stateMutability": "nonpayable",
      "type": "function"
    },
    {
      "inputs": [
        {
          "internalType": "uint256",
          "name": "amount",
          "type": "uint256"
        }
      ],
      "name": "deposit",
      "outputs": [],
      "stateMutability": "nonpayable",
      "type": "function"
    },
    {
      "inputs": [],
      "name": "depositCoin",
      "outputs": [
        {
          "internalType": "address",
          "name": "",
          "type": "address"
        }
      ],
      "stateMutability": "view",
      "type": "function"
    },
    {
      "inputs": [],
      "name": "individualCap",
      "outputs": [
        {
          "internalType": "uint256",
          "name": "",
          "type": "uint256"
        }
      ],
      "stateMutability": "view",
      "type": "function"
    },
    {
      "inputs": [],
      "name": "multisig",
      "outputs": [
        {
          "internalType": "address",
          "name": "",
          "type": "address"
        }
      ],
      "stateMutability": "view",
      "type": "function"
    },
    {
      "inputs": [],
      "name": "owner",
      "outputs": [
        {
          "internalType": "address",
          "name": "",
          "type": "address"
        }
      ],
      "stateMutability": "view",
      "type": "function"
    },
    {
      "inputs": [],
      "name": "pullManagement",
      "outputs": [],
      "stateMutability": "nonpayable",
      "type": "function"
    },
    {
      "inputs": [
        {
          "internalType": "address",
          "name": "newOwner_",
          "type": "address"
        }
      ],
      "name": "pushManagement",
      "outputs": [],
      "stateMutability": "nonpayable",
      "type": "function"
    },
    {
      "inputs": [],
      "name": "renounceManagement",
      "outputs": [],
      "stateMutability": "nonpayable",
      "type": "function"
    },
    {
      "inputs": [],
      "name": "saleConcluded",
      "outputs": [
        {
          "internalType": "bool",
          "name": "",
          "type": "bool"
        }
      ],
      "stateMutability": "view",
      "type": "function"
    },
    {
      "inputs": [],
      "name": "saleToken",
      "outputs": [
        {
          "internalType": "address",
          "name": "",
          "type": "address"
        }
      ],
      "stateMutability": "view",
      "type": "function"
    },
    {
      "inputs": [
        {
          "internalType": "bool",
          "name": "_saleConcluded",
          "type": "bool"
        }
      ],
      "name": "setSaleConcluded",
      "outputs": [],
      "stateMutability": "nonpayable",
      "type": "function"
    },
    {
      "inputs": [
        {
          "internalType": "address",
          "name": "",
          "type": "address"
        }
      ],
      "name": "share",
      "outputs": [
        {
          "internalType": "uint256",
          "name": "",
          "type": "uint256"
        }
      ],
      "stateMutability": "view",
      "type": "function"
    },
    {
      "inputs": [],
      "name": "stakingConcluded",
      "outputs": [
        {
          "internalType": "bool",
          "name": "",
          "type": "bool"
        }
      ],
      "stateMutability": "view",
      "type": "function"
    },
    {
      "inputs": [],
      "name": "total",
      "outputs": [
        {
          "internalType": "uint256",
          "name": "",
          "type": "uint256"
        }
      ],
      "stateMutability": "view",
      "type": "function"
    }
  ],
  "bytecode": {
    "object": "0x60e0604052600060028190556003556005805461ffff1916905534801561002557600080fd5b5060405161084c38038061084c833981016040819052610044916100bc565b600080546001600160a01b0319163390811782556040519091907fea8258f2d9ddb679928cf34b78cf645b7feda9acc828e4dd82d014eaae270eba908290a36001600160a01b0392831660805290821660a0521660c0526100ff565b80516001600160a01b03811681146100b757600080fd5b919050565b6000806000606084860312156100d157600080fd5b6100da846100a0565b92506100e8602085016100a0565b91506100f6604085016100a0565b90509250925092565b60805160a05160c05161071061013c6000396000818161017501526104d30152600061020501526000818161022c015261050201526107106000f3fe608060405234801561001057600080fd5b50600436106100d05760003560e01c80630276650b146100d55780630436d7e3146100f1578063089208d8146101065780631877bb5c1461010e5780632ddbd13a1461012e578063355274ea14610137578063452274c51461014057806346f68ee91461015d5780634783c35b146101705780635a96ac0a146101af5780638da5cb5b146101b7578063b316642f146101c8578063b6b55f25146101da578063e1494a67146101ed578063e985e36714610200578063ff17fb5814610227575b600080fd5b6100de60035481565b6040519081526020015b60405180910390f35b6101046100ff3660046105ba565b61024e565b005b610104610294565b6100de61011c3660046105de565b60046020526000908152604090205481565b6100de60065481565b6100de60025481565b60055461014d9060ff1681565b60405190151581526020016100e8565b61010461016b3660046105de565b610302565b6101977f000000000000000000000000000000000000000000000000000000000000000081565b6040516001600160a01b0390911681526020016100e8565b610104610387565b6000546001600160a01b0316610197565b60055461014d90610100900460ff1681565b6101046101e8366004610607565b61043e565b6101046101fb366004610620565b610574565b6101977f000000000000000000000000000000000000000000000000000000000000000081565b6101977f000000000000000000000000000000000000000000000000000000000000000081565b6000546001600160a01b031633146102815760405162461bcd60e51b815260040161027890610642565b60405180910390fd5b6005805460ff1916911515919091179055565b6000546001600160a01b031633146102be5760405162461bcd60e51b815260040161027890610642565b600080546040516001600160a01b03909116906000805160206106bb833981519152908390a3600080546001600160a01b0319908116909155600180549091169055565b6000546001600160a01b0316331461032c5760405162461bcd60e51b815260040161027890610642565b600080546040516001600160a01b03808516939216917fea8258f2d9ddb679928cf34b78cf645b7feda9acc828e4dd82d014eaae270eba91a3600180546001600160a01b0319166001600160a01b0392909216919091179055565b6001546001600160a01b031633146103ec5760405162461bcd60e51b815260206004820152602260248201527f4f776e61626c653a206d757374206265206e6577206f776e657220746f2070756044820152611b1b60f21b6064820152608401610278565b600154600080546040516001600160a01b0393841693909116916000805160206106bb83398151915291a360018054600080546001600160a01b03199081166001600160a01b03841617909155169055565b600554819060ff1615801561046257506002548160065461045f9190610677565b11155b801561048a575060035433600090815260046020526040902054610487908390610677565b11155b61049357600080fd5b3360009081526004602052604090208290556006546104b3908390610677565b6006556040516323b872dd60e01b81523360048201526001600160a01b037f000000000000000000000000000000000000000000000000000000000000000081166024830152604482018490527f000000000000000000000000000000000000000000000000000000000000000016906323b872dd906064016020604051808303816000875af115801561054b573d6000803e3d6000fd5b505050506040513d601f19601f8201168201806040525081019061056f919061069d565b505050565b6000546001600160a01b0316331461059e5760405162461bcd60e51b815260040161027890610642565b600291909155600355565b80151581146105b757600080fd5b50565b6000602082840312156105cc57600080fd5b81356105d7816105a9565b9392505050565b6000602082840312156105f057600080fd5b81356001600160a01b03811681146105d757600080fd5b60006020828403121561061957600080fd5b5035919050565b6000806040838503121561063357600080fd5b50508035926020909101359150565b6020808252818101527f4f776e61626c653a2063616c6c6572206973206e6f7420746865206f776e6572604082015260600190565b6000821982111561069857634e487b7160e01b600052601160045260246000fd5b500190565b6000602082840312156106af57600080fd5b81516105d7816105a956feaa151555690c956fc3ea32f106bb9f119b5237a061eaa8557cff3e51e3792c8da26469706673582212206ed96538a4047cca4589f66c89bc9dd396c136b83c28dde067c7799abca2105b64736f6c634300080f0033",
    "linkReferences": {}
  },
  "methodIdentifiers": {
    "cap()": "355274ea",
    "changeCap(uint256,uint256)": "e1494a67",
    "deposit(uint256)": "b6b55f25",
    "depositCoin()": "ff17fb58",
    "individualCap()": "0276650b",
    "multisig()": "4783c35b",
    "owner()": "8da5cb5b",
    "pullManagement()": "5a96ac0a",
    "pushManagement(address)": "46f68ee9",
    "renounceManagement()": "089208d8",
    "saleConcluded()": "452274c5",
    "saleToken()": "e985e367",
    "setSaleConcluded(bool)": "0436d7e3",
    "share(address)": "1877bb5c",
    "stakingConcluded()": "b316642f",
    "total()": "2ddbd13a"
  },
  "id": 57
}