{
  "abi": [
    {
      "inputs": [],
      "stateMutability": "nonpayable",
      "type": "constructor"
    },
    {
      "anonymous": false,
      "inputs": [
        {
          "indexed": true,
          "internalType": "address",
          "name": "owner",
          "type": "address"
        },
        {
          "indexed": true,
          "internalType": "address",
          "name": "spender",
          "type": "address"
        },
        {
          "indexed": false,
          "internalType": "uint256",
          "name": "value",
          "type": "uint256"
        }
      ],
      "name": "Approval",
      "type": "event"
    },
    {
      "anonymous": false,
      "inputs": [
        {
          "indexed": true,
          "internalType": "uint256",
          "name": "epoch",
          "type": "uint256"
        },
        {
          "indexed": false,
          "internalType": "uint256",
          "name": "rebase",
          "type": "uint256"
        },
        {
          "indexed": false,
          "internalType": "uint256",
          "name": "index",
          "type": "uint256"
        }
      ],
      "name": "LogRebase",
      "type": "event"
    },
    {
      "anonymous": false,
      "inputs": [
        {
          "indexed": false,
          "internalType": "address",
          "name": "stakingContract",
          "type": "address"
        }
      ],
      "name": "LogStakingContractUpdated",
      "type": "event"
    },
    {
      "anonymous": false,
      "inputs": [
        {
          "indexed": true,
          "internalType": "uint256",
          "name": "epoch",
          "type": "uint256"
        },
        {
          "indexed": false,
          "internalType": "uint256",
          "name": "totalSupply",
          "type": "uint256"
        }
      ],
      "name": "LogSupply",
      "type": "event"
    },
    {
      "anonymous": false,
      "inputs": [
        {
          "indexed": true,
          "internalType": "address",
          "name": "from",
          "type": "address"
        },
        {
          "indexed": true,
          "internalType": "address",
          "name": "to",
          "type": "address"
        },
        {
          "indexed": false,
          "internalType": "uint256",
          "name": "value",
          "type": "uint256"
        }
      ],
      "name": "Transfer",
      "type": "event"
    },
    {
      "inputs": [],
      "name": "DOMAIN_SEPARATOR",
      "outputs": [
        {
          "internalType": "bytes32",
          "name": "",
          "type": "bytes32"
        }
      ],
      "stateMutability": "view",
      "type": "function"
    },
    {
      "inputs": [
        {
          "internalType": "address",
          "name": "owner_",
          "type": "address"
        },
        {
          "internalType": "address",
          "name": "spender",
          "type": "address"
        }
      ],
      "name": "allowance",
      "outputs": [
        {
          "internalType": "uint256",
          "name": "",
          "type": "uint256"
        }
      ],
      "stateMutability": "view",
      "type": "function"
    },
    {
      "inputs": [
        {
          "internalType": "address",
          "name": "spender",
          "type": "address"
        },
        {
          "internalType": "uint256",
          "name": "value",
          "type": "uint256"
        }
      ],
      "name": "approve",
      "outputs": [
        {
          "internalType": "bool",
          "name": "",
          "type": "bool"
        }
      ],
      "stateMutability": "nonpayable",
      "type": "function"
    },
    {
      "inputs": [
        {
          "internalType": "uint256",
          "name": "gons",
          "type": "uint256"
        }
      ],
      "name": "balanceForGons",
      "outputs": [
        {
          "internalType": "uint256",
          "name": "",
          "type": "uint256"
        }
      ],
      "stateMutability": "view",
      "type": "function"
    },
    {
      "inputs": [
        {
          "internalType": "address",
          "name": "who",
          "type": "address"
        }
      ],
      "name": "balanceOf",
      "outputs": [
        {
          "internalType": "uint256",
          "name": "",
          "type": "uint256"
        }
      ],
      "stateMutability": "view",
      "type": "function"
    },
    {
      "inputs": [
        {
          "internalType": "uint256",
          "name": "amount",
          "type": "uint256"
        },
        {
          "internalType": "address",
          "name": "debtor",
          "type": "address"
        },
        {
          "internalType": "bool",
          "name": "add",
          "type": "bool"
        }
      ],
      "name": "changeDebt",
      "outputs": [],
      "stateMutability": "nonpayable",
      "type": "function"
    },
    {
      "inputs": [],
      "name": "circulatingSupply",
      "outputs": [
        {
          "internalType": "uint256",
          "name": "",
          "type": "uint256"
        }
      ],
      "stateMutability": "view",
      "type": "function"
    },
    {
      "inputs": [
        {
          "internalType": "address",
          "name": "",
          "type": "address"
        }
      ],
      "name": "debtBalances",
      "outputs": [
        {
          "internalType": "uint256",
          "name": "",
          "type": "uint256"
        }
      ],
      "stateMutability": "view",
      "type": "function"
    },
    {
      "inputs": [],
      "name": "decimals",
      "outputs": [
        {
          "internalType": "uint8",
          "name": "",
          "type": "uint8"
        }
      ],
      "stateMutability": "view",
      "type": "function"
    },
    {
      "inputs": [
        {
          "internalType": "address",
          "name": "spender",
          "type": "address"
        },
        {
          "internalType": "uint256",
          "name": "subtractedValue",
          "type": "uint256"
        }
      ],
      "name": "decreaseAllowance",
      "outputs": [
        {
          "internalType": "bool",
          "name": "",
          "type": "bool"
        }
      ],
      "stateMutability": "nonpayable",
      "type": "function"
    },
    {
      "inputs": [
        {
          "internalType": "uint256",
          "name": "amount",
          "type": "uint256"
        }
      ],
      "name": "fromG",
      "outputs": [
        {
          "internalType": "uint256",
          "name": "",
          "type": "uint256"
        }
      ],
      "stateMutability": "view",
      "type": "function"
    },
    {
      "inputs": [
        {
          "internalType": "uint256",
          "name": "amount",
          "type": "uint256"
        }
      ],
      "name": "gonsForBalance",
      "outputs": [
        {
          "internalType": "uint256",
          "name": "",
          "type": "uint256"
        }
      ],
      "stateMutability": "view",
      "type": "function"
    },
    {
      "inputs": [
        {
          "internalType": "address",
          "name": "spender",
          "type": "address"
        },
        {
          "internalType": "uint256",
          "name": "addedValue",
          "type": "uint256"
        }
      ],
      "name": "increaseAllowance",
      "outputs": [
        {
          "internalType": "bool",
          "name": "",
          "type": "bool"
        }
      ],
      "stateMutability": "nonpayable",
      "type": "function"
    },
    {
      "inputs": [],
      "name": "index",
      "outputs": [
        {
          "internalType": "uint256",
          "name": "",
          "type": "uint256"
        }
      ],
      "stateMutability": "view",
      "type": "function"
    },
    {
      "inputs": [
        {
          "internalType": "address",
          "name": "_stakingContract",
          "type": "address"
        },
        {
          "internalType": "address",
          "name": "_treasury",
          "type": "address"
        }
      ],
      "name": "initialize",
      "outputs": [],
      "stateMutability": "nonpayable",
      "type": "function"
    },
    {
      "inputs": [],
      "name": "name",
      "outputs": [
        {
          "internalType": "string",
          "name": "",
          "type": "string"
        }
      ],
      "stateMutability": "view",
      "type": "function"
    },
    {
      "inputs": [
        {
          "internalType": "address",
          "name": "owner",
          "type": "address"
        }
      ],
      "name": "nonces",
      "outputs": [
        {
          "internalType": "uint256",
          "name": "",
          "type": "uint256"
        }
      ],
      "stateMutability": "view",
      "type": "function"
    },
    {
      "inputs": [
        {
          "internalType": "address",
          "name": "owner",
          "type": "address"
        },
        {
          "internalType": "address",
          "name": "spender",
          "type": "address"
        },
        {
          "internalType": "uint256",
          "name": "value",
          "type": "uint256"
        },
        {
          "internalType": "uint256",
          "name": "deadline",
          "type": "uint256"
        },
        {
          "internalType": "uint8",
          "name": "v",
          "type": "uint8"
        },
        {
          "internalType": "bytes32",
          "name": "r",
          "type": "bytes32"
        },
        {
          "internalType": "bytes32",
          "name": "s",
          "type": "bytes32"
        }
      ],
      "name": "permit",
      "outputs": [],
      "stateMutability": "nonpayable",
      "type": "function"
    },
    {
      "inputs": [
        {
          "internalType": "uint256",
          "name": "profit_",
          "type": "uint256"
        },
        {
          "internalType": "uint256",
          "name": "epoch_",
          "type": "uint256"
        }
      ],
      "name": "rebase",
      "outputs": [
        {
          "internalType": "uint256",
          "name": "",
          "type": "uint256"
        }
      ],
      "stateMutability": "nonpayable",
      "type": "function"
    },
    {
      "inputs": [
        {
          "internalType": "uint256",
          "name": "",
          "type": "uint256"
        }
      ],
      "name": "rebases",
      "outputs": [
        {
          "internalType": "uint256",
          "name": "epoch",
          "type": "uint256"
        },
        {
          "internalType": "uint256",
          "name": "rebase",
          "type": "uint256"
        },
        {
          "internalType": "uint256",
          "name": "totalStakedBefore",
          "type": "uint256"
        },
        {
          "internalType": "uint256",
          "name": "totalStakedAfter",
          "type": "uint256"
        },
        {
          "internalType": "uint256",
          "name": "amountRebased",
          "type": "uint256"
        },
        {
          "internalType": "uint256",
          "name": "index",
          "type": "uint256"
        },
        {
          "internalType": "uint256",
          "name": "blockNumberOccured",
          "type": "uint256"
        }
      ],
      "stateMutability": "view",
      "type": "function"
    },
    {
      "inputs": [
        {
          "internalType": "uint256",
          "name": "_index",
          "type": "uint256"
        }
      ],
      "name": "setIndex",
      "outputs": [],
      "stateMutability": "nonpayable",
      "type": "function"
    },
    {
      "inputs": [
        {
          "internalType": "address",
          "name": "_xGDAO",
          "type": "address"
        }
      ],
      "name": "setxGDAO",
      "outputs": [],
      "stateMutability": "nonpayable",
      "type": "function"
    },
    {
      "inputs": [],
      "name": "stakingContract",
      "outputs": [
        {
          "internalType": "address",
          "name": "",
          "type": "address"
        }
      ],
      "stateMutability": "view",
      "type": "function"
    },
    {
      "inputs": [],
      "name": "symbol",
      "outputs": [
        {
          "internalType": "string",
          "name": "",
          "type": "string"
        }
      ],
      "stateMutability": "view",
      "type": "function"
    },
    {
      "inputs": [
        {
          "internalType": "uint256",
          "name": "amount",
          "type": "uint256"
        }
      ],
      "name": "toG",
      "outputs": [
        {
          "internalType": "uint256",
          "name": "",
          "type": "uint256"
        }
      ],
      "stateMutability": "view",
      "type": "function"
    },
    {
      "inputs": [],
      "name": "totalSupply",
      "outputs": [
        {
          "internalType": "uint256",
          "name": "",
          "type": "uint256"
        }
      ],
      "stateMutability": "view",
      "type": "function"
    },
    {
      "inputs": [
        {
          "internalType": "address",
          "name": "to",
          "type": "address"
        },
        {
          "internalType": "uint256",
          "name": "value",
          "type": "uint256"
        }
      ],
      "name": "transfer",
      "outputs": [
        {
          "internalType": "bool",
          "name": "",
          "type": "bool"
        }
      ],
      "stateMutability": "nonpayable",
      "type": "function"
    },
    {
      "inputs": [
        {
          "internalType": "address",
          "name": "from",
          "type": "address"
        },
        {
          "internalType": "address",
          "name": "to",
          "type": "address"
        },
        {
          "internalType": "uint256",
          "name": "value",
          "type": "uint256"
        }
      ],
      "name": "transferFrom",
      "outputs": [
        {
          "internalType": "bool",
          "name": "",
          "type": "bool"
        }
      ],
      "stateMutability": "nonpayable",
      "type": "function"
    },
    {
      "inputs": [],
      "name": "treasury",
      "outputs": [
        {
          "internalType": "address",
          "name": "",
          "type": "address"
        }
      ],
      "stateMutability": "view",
      "type": "function"
    },
    {
      "inputs": [],
      "name": "xGDAO",
      "outputs": [
        {
          "internalType": "contract IxGDAO",
          "name": "",
          "type": "address"
        }
      ],
      "stateMutability": "view",
      "type": "function"
    }
  ],
  "bytecode": {
    "object": "0x6101806040527f6e71edae12b1b97f4d1f60370fef10105fa2faae0126114a169c64845d6126c9610160523480156200003757600080fd5b506040518060400160405280600b81526020016a5374616b6564204744414f60a81b81525080604051806040016040528060018152602001603160f81b8152506040518060400160405280600b81526020016a5374616b6564204744414f60a81b81525060405180604001604052806005815260200164734744414f60d81b81525060098260039081620000cc9190620002a0565b506004620000db8382620002a0565b5060ff16608052505081516020808401919091208251918301919091206101008290526101208190524660c0527f8b73c3c69bb8fe3d512ecc4cf759cc79239f7b179b0ffacaa9a75d522b39400f620001798184846040805160208101859052908101839052606081018290524660808201523060a082015260009060c0016040516020818303038152906040528051906020012090509392505050565b60a0523060e052610140525050600680546001600160a01b0319163317905550506611c37937e080006002819055620001dd9150620001bb8160001962000382565b620001c99060001962000399565b620001e660201b6200123d1790919060201c565b600b55620003d6565b6000620001f48284620003bf565b9392505050565b634e487b7160e01b600052604160045260246000fd5b600181811c908216806200022657607f821691505b6020821081036200024757634e487b7160e01b600052602260045260246000fd5b50919050565b601f8211156200029b57600081815260208120601f850160051c81016020861015620002765750805b601f850160051c820191505b81811015620002975782815560010162000282565b5050505b505050565b81516001600160401b03811115620002bc57620002bc620001fb565b620002d481620002cd845462000211565b846200024d565b602080601f8311600181146200030c5760008415620002f35750858301515b600019600386901b1c1916600185901b17855562000297565b600085815260208120601f198616915b828110156200033d578886015182559484019460019091019084016200031c565b50858210156200035c5787850151600019600388901b60f8161c191681555b5050505050600190811b01905550565b634e487b7160e01b600052601260045260246000fd5b6000826200039457620003946200036c565b500690565b600082821015620003ba57634e487b7160e01b600052601160045260246000fd5b500390565b600082620003d157620003d16200036c565b500490565b60805160a05160c05160e05161010051610120516101405161016051611c086200043c600039600061112d01526000611467015260006114b601526000611491015260006113ea015260006114140152600061143e0152600061021d0152611c086000f3fe608060405234801561001057600080fd5b506004361061016a5760003560e01c8063058ecdb41461016f57806306fdde0314610195578063095be818146101aa578063095ea7b3146101bd57806318160ddd146101e05780631bd39674146101e857806323b872dd146101fb5780632986c0e51461020e578063313ce567146102165780633644e51514610247578063395093511461024f57806340a5737f14610262578063485cc9551461027757806361d027b31461028a57806370a08231146102aa57806373c69eb7146102bd5780637965d56d146103055780637ecebe00146103185780639358928b1461032b57806395d89b41146103335780639d0b65b31461033b578063a457c2d71461034e578063a9059cbb14610361578063ae5c6cd314610374578063b8fbd53314610387578063c4ef1c4c1461039a578063d505accf146103ba578063dd62ed3e146103cd578063e03481e114610406578063ee99205c14610419575b600080fd5b61018261017d3660046117a4565b61042c565b6040519081526020015b60405180910390f35b61019d6105c0565b60405161018c91906117c6565b6101826101b836600461181b565b610652565b6101d06101cb366004611850565b6106c1565b604051901515815260200161018c565b600254610182565b6101826101f636600461181b565b6106d7565b6101d061020936600461187a565b6106ee565b61018261085d565b60405160ff7f000000000000000000000000000000000000000000000000000000000000000016815260200161018c565b61018261086f565b6101d061025d366004611850565b610879565b61027561027036600461181b565b6108b4565b005b6102756102853660046118b6565b610936565b600e5461029d906001600160a01b031681565b60405161018c91906118e9565b6101826102b83660046118fd565b610ae7565b6102d06102cb36600461181b565b610b0f565b604080519788526020880196909652948601939093526060850191909152608084015260a083015260c082015260e00161018c565b61018261031336600461181b565b610b61565b6101826103263660046118fd565b610b78565b610182610b96565b61019d610d10565b6102756103493660046118fd565b610d1f565b6101d061035c366004611850565b610e24565b6101d061036f366004611850565b610e79565b610275610382366004611918565b610f66565b61018261039536600461181b565b6110a7565b6101826103a83660046118fd565b600f6020526000908152604090205481565b6102756103c836600461195d565b6110d9565b6101826103db3660046118b6565b6001600160a01b039182166000908152600d6020908152604080832093909416825291909152205490565b60095461029d906001600160a01b031681565b60085461029d906001600160a01b031681565b6008546000906001600160a01b031633146104a55760405162461bcd60e51b815260206004820152602e60248201527f5374616b696e67436f6e74726163743a202063616c6c206973206e6f7420737460448201526d185ada5b99c818dbdb9d1c9858dd60921b60648201526084015b60405180910390fd5b6000806104b0610b96565b9050846000036105225783600080516020611b738339815191526002546040516104dc91815260200190565b60405180910390a283600080516020611b5383398151915260006104fe61085d565b6040805192835260208301919091520160405180910390a2600254925050506105ba565b801561054e57610547816105416002548861125090919063ffffffff16565b9061123d565b9150610552565b8491505b60025461055f908361125c565b60028190556001600160801b03101561057e576001600160801b036002555b6002546105a4906105986611c37937e080006000196119e6565b61054190600019611a10565b600b556105b2818686611268565b600254925050505b92915050565b6060600380546105cf90611a27565b80601f01602080910402602001604051908101604052809291908181526020018280546105fb90611a27565b80156106485780601f1061061d57610100808354040283529160200191610648565b820191906000526020600020905b81548152906001019060200180831161062b57829003601f168201915b5050505050905090565b6009546040516319a948db60e21b8152600481018390526000916001600160a01b0316906366a5236c906024015b602060405180830381865afa15801561069d573d6000803e3d6000fd5b505050506040513d601f19601f820116820180604052508101906105ba9190611a5b565b60006106ce338484611382565b50600192915050565b60006105ba600b548361125090919063ffffffff16565b6001600160a01b0383166000908152600d6020908152604080832033845290915281205461071c90836113d1565b6001600160a01b0385166000818152600d602090815260408083203380855290835292819020859055519384529092600080516020611bb3833981519152910160405180910390a3600061076f836106d7565b6001600160a01b0386166000908152600c602052604090205490915061079590826113d1565b6001600160a01b038087166000908152600c602052604080822093909355908616815220546107c4908261125c565b6001600160a01b038086166000908152600c60209081526040808320949094559188168152600f90915220546107f986610ae7565b10156108175760405162461bcd60e51b815260040161049c90611a74565b836001600160a01b0316856001600160a01b0316600080516020611b938339815191528560405161084a91815260200190565b60405180910390a3506001949350505050565b600061086a600754610b61565b905090565b600061086a6113dd565b336000818152600d602090815260408083206001600160a01b038716845290915281205490916106ce9185906108af908661125c565b611382565b6006546001600160a01b031633146108de5760405162461bcd60e51b815260040161049c90611aaa565b600754156109275760405162461bcd60e51b815260206004820152601660248201527521b0b73737ba1039b2ba1024a72222ac1030b3b0b4b760511b604482015260640161049c565b610930816106d7565b60075550565b6006546001600160a01b031633146109605760405162461bcd60e51b815260040161049c90611aaa565b6001600160a01b0382166109a05760405162461bcd60e51b81526020600482015260076024820152665374616b696e6760c81b604482015260640161049c565b600880546001600160a01b0319166001600160a01b0384161790556109ce6611c37937e080006000196119e6565b6109da90600019611a10565b6008546001600160a01b039081166000908152600c60205260409020919091558116610a415760405162461bcd60e51b81526020600482015260166024820152755a65726f20616464726573733a20547265617375727960501b604482015260640161049c565b600e80546001600160a01b0319166001600160a01b0383811691909117909155600854600254604051908152911690600090600080516020611b938339815191529060200160405180910390a36008546040517f817c653428858ed536dc085c5d8273734c517b55de44b55f5c5877a75e3373a191610acb916001600160a01b03909116906118e9565b60405180910390a15050600680546001600160a01b0319169055565b600b546001600160a01b0382166000908152600c602052604081205490916105ba919061123d565b600a8181548110610b1f57600080fd5b90600052602060002090600702016000915090508060000154908060010154908060020154908060030154908060040154908060050154908060060154905087565b60006105ba600b548361123d90919063ffffffff16565b6001600160a01b0381166000908152600560205260408120546105ba565b600061086a600860009054906101000a90046001600160a01b03166001600160a01b031663201386416040518163ffffffff1660e01b8152600401602060405180830381865afa158015610bee573d6000803e3d6000fd5b505050506040513d601f19601f82011682018060405250810190610c129190611a5b565b600954604080516318160ddd60e01b81529051610d0a926001600160a01b03169163a82487689183916318160ddd9160048083019260209291908290030181865afa158015610c65573d6000803e3d6000fd5b505050506040513d601f19601f82011682018060405250810190610c899190611a5b565b6040518263ffffffff1660e01b8152600401610ca791815260200190565b602060405180830381865afa158015610cc4573d6000803e3d6000fd5b505050506040513d601f19601f82011682018060405250810190610ce89190611a5b565b600854610d0a90610d01906001600160a01b0316610ae7565b600254906113d1565b9061125c565b6060600480546105cf90611a27565b6006546001600160a01b03163314610d495760405162461bcd60e51b815260040161049c90611aaa565b6009546001600160a01b031615610d9e5760405162461bcd60e51b81526020600482015260196024820152781e11d11053ce88081e11d11053c8185b1c9958591e481cd95d603a1b604482015260640161049c565b6001600160a01b038116610e025760405162461bcd60e51b815260206004820152602560248201527f784744414f3a2020784744414f206973206e6f7420612076616c696420636f6e6044820152641d1c9858dd60da1b606482015260840161049c565b600980546001600160a01b0319166001600160a01b0392909216919091179055565b336000908152600d602090815260408083206001600160a01b0386168452909152812054808310610e6057610e5b33856000611382565b610e6f565b610e6f33856108af84876113d1565b5060019392505050565b600080610e91600b548461125090919063ffffffff16565b336000908152600c6020526040902054909150610eae90826113d1565b336000908152600c6020526040808220929092556001600160a01b03861681522054610eda908261125c565b6001600160a01b0385166000908152600c602090815260408083209390935533808352600f9091529190205490610f1090610ae7565b1015610f2e5760405162461bcd60e51b815260040161049c90611a74565b6040518381526001600160a01b038516903390600080516020611b938339815191529060200160405180910390a35060019392505050565b600e546001600160a01b03163314610fb05760405162461bcd60e51b815260206004820152600d60248201526c4f6e6c7920747265617375727960981b604482015260640161049c565b8015610ff7576001600160a01b0382166000908152600f6020526040902054610fd9908461125c565b6001600160a01b0383166000908152600f6020526040902055611034565b6001600160a01b0382166000908152600f602052604090205461101a90846113d1565b6001600160a01b0383166000908152600f60205260409020555b61103d82610ae7565b6001600160a01b0383166000908152600f602052604090205411156110a25760405162461bcd60e51b815260206004820152601b60248201527a734744414f3a20696e73756666696369656e742062616c616e636560281b604482015260640161049c565b505050565b60095460405163150490ed60e31b8152600481018390526000916001600160a01b03169063a824876890602401610680565b834211156111295760405162461bcd60e51b815260206004820152601d60248201527f45524332305065726d69743a206578706972656420646561646c696e65000000604482015260640161049c565b60007f00000000000000000000000000000000000000000000000000000000000000008888886111588c611504565b6040805160208101969096526001600160a01b0394851690860152929091166060840152608083015260a082015260c0810186905260e00160405160208183030381529060405280519060200120905060006111b38261152c565b905060006111c38287878761157a565b9050896001600160a01b0316816001600160a01b0316146112265760405162461bcd60e51b815260206004820152601e60248201527f45524332305065726d69743a20696e76616c6964207369676e61747572650000604482015260640161049c565b6112318a8a8a611382565b50505050505050505050565b60006112498284611af1565b9392505050565b60006112498284611b05565b60006112498284611b24565b60006112808461054185670de0b6b3a7640000611250565b9050600a6040518060e001604052808481526020018381526020018681526020016112a9610b96565b81526020018581526020016112bc61085d565b81524360209182015282546001808201855560009485529382902083516007909202019081558282015193810193909355604080830151600280860191909155606084015160038601556080840151600486015560a0840151600586015560c090930151600690940193909355905491519182528391600080516020611b73833981519152910160405180910390a281600080516020611b538339815191528261136461085d565b6040805192835260208301919091520160405180910390a250505050565b6001600160a01b038381166000818152600d60209081526040808320948716808452948252918290208590559051848152600080516020611bb3833981519152910160405180910390a3505050565b60006112498284611a10565b6000306001600160a01b037f00000000000000000000000000000000000000000000000000000000000000001614801561143657507f000000000000000000000000000000000000000000000000000000000000000046145b1561146057507f000000000000000000000000000000000000000000000000000000000000000090565b50604080517f00000000000000000000000000000000000000000000000000000000000000006020808301919091527f0000000000000000000000000000000000000000000000000000000000000000828401527f000000000000000000000000000000000000000000000000000000000000000060608301524660808301523060a0808401919091528351808403909101815260c0909201909252805191012090565b6001600160a01b03811660009081526005602052604090208054600181018255905b50919050565b60006105ba6115396113dd565b8360405161190160f01b6020820152602281018390526042810182905260009060620160405160208183030381529060405280519060200120905092915050565b600080600061158b878787876115a2565b915091506115988161165c565b5095945050505050565b6000806fa2a8918ca85bafe22016d0b997e4df60600160ff1b038311156115cf5750600090506003611653565b6040805160008082526020820180845289905260ff881692820192909252606081018690526080810185905260019060a0016020604051602081039080840390855afa158015611623573d6000803e3d6000fd5b5050604051601f1901519150506001600160a01b03811661164c57600060019250925050611653565b9150600090505b94509492505050565b600081600481111561167057611670611b3c565b036116785750565b600181600481111561168c5761168c611b3c565b036116d45760405162461bcd60e51b815260206004820152601860248201527745434453413a20696e76616c6964207369676e617475726560401b604482015260640161049c565b60028160048111156116e8576116e8611b3c565b036117355760405162461bcd60e51b815260206004820152601f60248201527f45434453413a20696e76616c6964207369676e6174757265206c656e67746800604482015260640161049c565b600381600481111561174957611749611b3c565b036117a15760405162461bcd60e51b815260206004820152602260248201527f45434453413a20696e76616c6964207369676e6174757265202773272076616c604482015261756560f01b606482015260840161049c565b50565b600080604083850312156117b757600080fd5b50508035926020909101359150565b600060208083528351808285015260005b818110156117f3578581018301518582016040015282016117d7565b81811115611805576000604083870101525b50601f01601f1916929092016040019392505050565b60006020828403121561182d57600080fd5b5035919050565b80356001600160a01b038116811461184b57600080fd5b919050565b6000806040838503121561186357600080fd5b61186c83611834565b946020939093013593505050565b60008060006060848603121561188f57600080fd5b61189884611834565b92506118a660208501611834565b9150604084013590509250925092565b600080604083850312156118c957600080fd5b6118d283611834565b91506118e060208401611834565b90509250929050565b6001600160a01b0391909116815260200190565b60006020828403121561190f57600080fd5b61124982611834565b60008060006060848603121561192d57600080fd5b8335925061193d60208501611834565b91506040840135801515811461195257600080fd5b809150509250925092565b600080600080600080600060e0888a03121561197857600080fd5b61198188611834565b965061198f60208901611834565b95506040880135945060608801359350608088013560ff811681146119b357600080fd5b9699959850939692959460a0840135945060c09093013592915050565b634e487b7160e01b600052601260045260246000fd5b6000826119f5576119f56119d0565b500690565b634e487b7160e01b600052601160045260246000fd5b600082821015611a2257611a226119fa565b500390565b600181811c90821680611a3b57607f821691505b60208210810361152657634e487b7160e01b600052602260045260246000fd5b600060208284031215611a6d57600080fd5b5051919050565b6020808252601c908201527b1119589d0e8818d85b9b9bdd081d1c985b9cd9995c88185b5bdd5b9d60221b604082015260600190565b60208082526027908201527f496e697469616c697a65723a202063616c6c6572206973206e6f7420696e697460408201526634b0b634bd32b960c91b606082015260800190565b600082611b0057611b006119d0565b500490565b6000816000190483118215151615611b1f57611b1f6119fa565b500290565b60008219821115611b3757611b376119fa565b500190565b634e487b7160e01b600052602160045260246000fdfe6012dbce857565c4a40974aa5de8373a761fc429077ef0c8c8611d1e20d63fb20417b340e646d4be71f9b2da63b5c3c69bc9cfa069f0e0db4756271886130bf4ddf252ad1be2c89b69c2b068fc378daa952ba7f163c4a11628f55a4df523b3ef8c5be1e5ebec7d5bd14f71427d1e84f3dd0314c0f7b2291e5b200ac8c7c3b925a2646970667358221220e60f8164c9fc34aa4f476ee7d6ed750ace253a4d3b75678c0d6332e0afc6089264736f6c634300080f0033",
    "linkReferences": {}
  },
  "methodIdentifiers": {
    "DOMAIN_SEPARATOR()": "3644e515",
    "allowance(address,address)": "dd62ed3e",
    "approve(address,uint256)": "095ea7b3",
    "balanceForGons(uint256)": "7965d56d",
    "balanceOf(address)": "70a08231",
    "changeDebt(uint256,address,bool)": "ae5c6cd3",
    "circulatingSupply()": "9358928b",
    "debtBalances(address)": "c4ef1c4c",
    "decimals()": "313ce567",
    "decreaseAllowance(address,uint256)": "a457c2d7",
    "fromG(uint256)": "b8fbd533",
    "gonsForBalance(uint256)": "1bd39674",
    "increaseAllowance(address,uint256)": "39509351",
    "index()": "2986c0e5",
    "initialize(address,address)": "485cc955",
    "name()": "06fdde03",
    "nonces(address)": "7ecebe00",
    "permit(address,address,uint256,uint256,uint8,bytes32,bytes32)": "d505accf",
    "rebase(uint256,uint256)": "058ecdb4",
    "rebases(uint256)": "73c69eb7",
    "setIndex(uint256)": "40a5737f",
    "setxGDAO(address)": "9d0b65b3",
    "stakingContract()": "ee99205c",
    "symbol()": "95d89b41",
    "toG(uint256)": "095be818",
    "totalSupply()": "18160ddd",
    "transfer(address,uint256)": "a9059cbb",
    "transferFrom(address,address,uint256)": "23b872dd",
    "treasury()": "61d027b3",
    "xGDAO()": "e03481e1"
  },
  "id": 145
}