{
  "abi": [
    {
      "inputs": [],
      "stateMutability": "nonpayable",
      "type": "constructor"
    },
    {
      "anonymous": false,
      "inputs": [
        {
          "indexed": true,
          "internalType": "address",
          "name": "owner",
          "type": "address"
        },
        {
          "indexed": true,
          "internalType": "address",
          "name": "spender",
          "type": "address"
        },
        {
          "indexed": false,
          "internalType": "uint256",
          "name": "value",
          "type": "uint256"
        }
      ],
      "name": "Approval",
      "type": "event"
    },
    {
      "anonymous": false,
      "inputs": [
        {
          "indexed": true,
          "internalType": "uint256",
          "name": "epoch",
          "type": "uint256"
        },
        {
          "indexed": false,
          "internalType": "uint256",
          "name": "rebase",
          "type": "uint256"
        },
        {
          "indexed": false,
          "internalType": "uint256",
          "name": "index",
          "type": "uint256"
        }
      ],
      "name": "LogRebase",
      "type": "event"
    },
    {
      "anonymous": false,
      "inputs": [
        {
          "indexed": false,
          "internalType": "address",
          "name": "stakingContract",
          "type": "address"
        }
      ],
      "name": "LogStakingContractUpdated",
      "type": "event"
    },
    {
      "anonymous": false,
      "inputs": [
        {
          "indexed": true,
          "internalType": "uint256",
          "name": "epoch",
          "type": "uint256"
        },
        {
          "indexed": false,
          "internalType": "uint256",
          "name": "totalSupply",
          "type": "uint256"
        }
      ],
      "name": "LogSupply",
      "type": "event"
    },
    {
      "anonymous": false,
      "inputs": [
        {
          "indexed": true,
          "internalType": "address",
          "name": "from",
          "type": "address"
        },
        {
          "indexed": true,
          "internalType": "address",
          "name": "to",
          "type": "address"
        },
        {
          "indexed": false,
          "internalType": "uint256",
          "name": "value",
          "type": "uint256"
        }
      ],
      "name": "Transfer",
      "type": "event"
    },
    {
      "inputs": [],
      "name": "DOMAIN_SEPARATOR",
      "outputs": [
        {
          "internalType": "bytes32",
          "name": "",
          "type": "bytes32"
        }
      ],
      "stateMutability": "view",
      "type": "function"
    },
    {
      "inputs": [
        {
          "internalType": "address",
          "name": "owner_",
          "type": "address"
        },
        {
          "internalType": "address",
          "name": "spender",
          "type": "address"
        }
      ],
      "name": "allowance",
      "outputs": [
        {
          "internalType": "uint256",
          "name": "",
          "type": "uint256"
        }
      ],
      "stateMutability": "view",
      "type": "function"
    },
    {
      "inputs": [
        {
          "internalType": "address",
          "name": "spender",
          "type": "address"
        },
        {
          "internalType": "uint256",
          "name": "value",
          "type": "uint256"
        }
      ],
      "name": "approve",
      "outputs": [
        {
          "internalType": "bool",
          "name": "",
          "type": "bool"
        }
      ],
      "stateMutability": "nonpayable",
      "type": "function"
    },
    {
      "inputs": [
        {
          "internalType": "uint256",
          "name": "gons",
          "type": "uint256"
        }
      ],
      "name": "balanceForGons",
      "outputs": [
        {
          "internalType": "uint256",
          "name": "",
          "type": "uint256"
        }
      ],
      "stateMutability": "view",
      "type": "function"
    },
    {
      "inputs": [
        {
          "internalType": "address",
          "name": "who",
          "type": "address"
        }
      ],
      "name": "balanceOf",
      "outputs": [
        {
          "internalType": "uint256",
          "name": "",
          "type": "uint256"
        }
      ],
      "stateMutability": "view",
      "type": "function"
    },
    {
      "inputs": [
        {
          "internalType": "uint256",
          "name": "amount",
          "type": "uint256"
        },
        {
          "internalType": "address",
          "name": "debtor",
          "type": "address"
        },
        {
          "internalType": "bool",
          "name": "add",
          "type": "bool"
        }
      ],
      "name": "changeDebt",
      "outputs": [],
      "stateMutability": "nonpayable",
      "type": "function"
    },
    {
      "inputs": [],
      "name": "circulatingSupply",
      "outputs": [
        {
          "internalType": "uint256",
          "name": "",
          "type": "uint256"
        }
      ],
      "stateMutability": "view",
      "type": "function"
    },
    {
      "inputs": [
        {
          "internalType": "address",
          "name": "",
          "type": "address"
        }
      ],
      "name": "debtBalances",
      "outputs": [
        {
          "internalType": "uint256",
          "name": "",
          "type": "uint256"
        }
      ],
      "stateMutability": "view",
      "type": "function"
    },
    {
      "inputs": [],
      "name": "decimals",
      "outputs": [
        {
          "internalType": "uint8",
          "name": "",
          "type": "uint8"
        }
      ],
      "stateMutability": "view",
      "type": "function"
    },
    {
      "inputs": [
        {
          "internalType": "address",
          "name": "spender",
          "type": "address"
        },
        {
          "internalType": "uint256",
          "name": "subtractedValue",
          "type": "uint256"
        }
      ],
      "name": "decreaseAllowance",
      "outputs": [
        {
          "internalType": "bool",
          "name": "",
          "type": "bool"
        }
      ],
      "stateMutability": "nonpayable",
      "type": "function"
    },
    {
      "inputs": [
        {
          "internalType": "uint256",
          "name": "amount",
          "type": "uint256"
        }
      ],
      "name": "fromG",
      "outputs": [
        {
          "internalType": "uint256",
          "name": "",
          "type": "uint256"
        }
      ],
      "stateMutability": "view",
      "type": "function"
    },
    {
      "inputs": [
        {
          "internalType": "uint256",
          "name": "amount",
          "type": "uint256"
        }
      ],
      "name": "gonsForBalance",
      "outputs": [
        {
          "internalType": "uint256",
          "name": "",
          "type": "uint256"
        }
      ],
      "stateMutability": "view",
      "type": "function"
    },
    {
      "inputs": [
        {
          "internalType": "address",
          "name": "spender",
          "type": "address"
        },
        {
          "internalType": "uint256",
          "name": "addedValue",
          "type": "uint256"
        }
      ],
      "name": "increaseAllowance",
      "outputs": [
        {
          "internalType": "bool",
          "name": "",
          "type": "bool"
        }
      ],
      "stateMutability": "nonpayable",
      "type": "function"
    },
    {
      "inputs": [],
      "name": "index",
      "outputs": [
        {
          "internalType": "uint256",
          "name": "",
          "type": "uint256"
        }
      ],
      "stateMutability": "view",
      "type": "function"
    },
    {
      "inputs": [
        {
          "internalType": "address",
          "name": "_stakingContract",
          "type": "address"
        },
        {
          "internalType": "address",
          "name": "_treasury",
          "type": "address"
        }
      ],
      "name": "initialize",
      "outputs": [],
      "stateMutability": "nonpayable",
      "type": "function"
    },
    {
      "inputs": [],
      "name": "name",
      "outputs": [
        {
          "internalType": "string",
          "name": "",
          "type": "string"
        }
      ],
      "stateMutability": "view",
      "type": "function"
    },
    {
      "inputs": [
        {
          "internalType": "address",
          "name": "owner",
          "type": "address"
        }
      ],
      "name": "nonces",
      "outputs": [
        {
          "internalType": "uint256",
          "name": "",
          "type": "uint256"
        }
      ],
      "stateMutability": "view",
      "type": "function"
    },
    {
      "inputs": [
        {
          "internalType": "address",
          "name": "owner",
          "type": "address"
        },
        {
          "internalType": "address",
          "name": "spender",
          "type": "address"
        },
        {
          "internalType": "uint256",
          "name": "value",
          "type": "uint256"
        },
        {
          "internalType": "uint256",
          "name": "deadline",
          "type": "uint256"
        },
        {
          "internalType": "uint8",
          "name": "v",
          "type": "uint8"
        },
        {
          "internalType": "bytes32",
          "name": "r",
          "type": "bytes32"
        },
        {
          "internalType": "bytes32",
          "name": "s",
          "type": "bytes32"
        }
      ],
      "name": "permit",
      "outputs": [],
      "stateMutability": "nonpayable",
      "type": "function"
    },
    {
      "inputs": [
        {
          "internalType": "uint256",
          "name": "profit_",
          "type": "uint256"
        },
        {
          "internalType": "uint256",
          "name": "epoch_",
          "type": "uint256"
        }
      ],
      "name": "rebase",
      "outputs": [
        {
          "internalType": "uint256",
          "name": "",
          "type": "uint256"
        }
      ],
      "stateMutability": "nonpayable",
      "type": "function"
    },
    {
      "inputs": [
        {
          "internalType": "uint256",
          "name": "",
          "type": "uint256"
        }
      ],
      "name": "rebases",
      "outputs": [
        {
          "internalType": "uint256",
          "name": "epoch",
          "type": "uint256"
        },
        {
          "internalType": "uint256",
          "name": "rebase",
          "type": "uint256"
        },
        {
          "internalType": "uint256",
          "name": "totalStakedBefore",
          "type": "uint256"
        },
        {
          "internalType": "uint256",
          "name": "totalStakedAfter",
          "type": "uint256"
        },
        {
          "internalType": "uint256",
          "name": "amountRebased",
          "type": "uint256"
        },
        {
          "internalType": "uint256",
          "name": "index",
          "type": "uint256"
        },
        {
          "internalType": "uint256",
          "name": "blockNumberOccured",
          "type": "uint256"
        }
      ],
      "stateMutability": "view",
      "type": "function"
    },
    {
      "inputs": [
        {
          "internalType": "uint256",
          "name": "_index",
          "type": "uint256"
        }
      ],
      "name": "setIndex",
      "outputs": [],
      "stateMutability": "nonpayable",
      "type": "function"
    },
    {
      "inputs": [
        {
          "internalType": "address",
          "name": "_xGDAO",
          "type": "address"
        }
      ],
      "name": "setxGDAO",
      "outputs": [],
      "stateMutability": "nonpayable",
      "type": "function"
    },
    {
      "inputs": [],
      "name": "stakingContract",
      "outputs": [
        {
          "internalType": "address",
          "name": "",
          "type": "address"
        }
      ],
      "stateMutability": "view",
      "type": "function"
    },
    {
      "inputs": [],
      "name": "symbol",
      "outputs": [
        {
          "internalType": "string",
          "name": "",
          "type": "string"
        }
      ],
      "stateMutability": "view",
      "type": "function"
    },
    {
      "inputs": [
        {
          "internalType": "uint256",
          "name": "amount",
          "type": "uint256"
        }
      ],
      "name": "toG",
      "outputs": [
        {
          "internalType": "uint256",
          "name": "",
          "type": "uint256"
        }
      ],
      "stateMutability": "view",
      "type": "function"
    },
    {
      "inputs": [],
      "name": "totalSupply",
      "outputs": [
        {
          "internalType": "uint256",
          "name": "",
          "type": "uint256"
        }
      ],
      "stateMutability": "view",
      "type": "function"
    },
    {
      "inputs": [
        {
          "internalType": "address",
          "name": "to",
          "type": "address"
        },
        {
          "internalType": "uint256",
          "name": "value",
          "type": "uint256"
        }
      ],
      "name": "transfer",
      "outputs": [
        {
          "internalType": "bool",
          "name": "",
          "type": "bool"
        }
      ],
      "stateMutability": "nonpayable",
      "type": "function"
    },
    {
      "inputs": [
        {
          "internalType": "address",
          "name": "from",
          "type": "address"
        },
        {
          "internalType": "address",
          "name": "to",
          "type": "address"
        },
        {
          "internalType": "uint256",
          "name": "value",
          "type": "uint256"
        }
      ],
      "name": "transferFrom",
      "outputs": [
        {
          "internalType": "bool",
          "name": "",
          "type": "bool"
        }
      ],
      "stateMutability": "nonpayable",
      "type": "function"
    },
    {
      "inputs": [],
      "name": "treasury",
      "outputs": [
        {
          "internalType": "address",
          "name": "",
          "type": "address"
        }
      ],
      "stateMutability": "view",
      "type": "function"
    },
    {
      "inputs": [],
      "name": "xGDAO",
      "outputs": [
        {
          "internalType": "contract IxGDAO",
          "name": "",
          "type": "address"
        }
      ],
      "stateMutability": "view",
      "type": "function"
    }
  ],
  "bytecode": {
    "object": "0x6101606040527f6e71edae12b1b97f4d1f60370fef10105fa2faae0126114a169c64845d6126c9610140523480156200003757600080fd5b506040518060400160405280600b81526020016a5374616b6564204744414f60a81b81525080604051806040016040528060018152602001603160f81b8152506040518060400160405280600b81526020016a5374616b6564204744414f60a81b81525060405180604001604052806005815260200164734744414f60d81b81525060098260039081620000cc919062000341565b506004620000db838262000341565b5060ff166080908152845160209586012084519486019490942060e08590526101008190524660c0818152604080517f8b73c3c69bb8fe3d512ecc4cf759cc79239f7b179b0ffacaa9a75d522b39400f818b01819052818301999099526060810194909452938301919091523060a08084019190915283518084038201815292909101909252805195019490942090935250610120525050600680546001600160a01b031916331790556611c37937e080006002819055620001c790620001a58160001962000423565b620001b39060001962000450565b620001d060201b620019f31790919060201c565b600b556200052c565b60006200021a83836040518060400160405280601a81526020017f536166654d6174683a206469766973696f6e206279207a65726f0000000000008152506200022160201b60201c565b9392505050565b600081836200024e5760405162461bcd60e51b81526004016200024591906200046a565b60405180910390fd5b5060006200025d8486620004c2565b90506200026b848662000423565b620002778286620004d9565b620002839190620004fb565b851462000294576200029462000516565b949350505050565b634e487b7160e01b600052604160045260246000fd5b600181811c90821680620002c757607f821691505b602082108103620002e857634e487b7160e01b600052602260045260246000fd5b50919050565b601f8211156200033c57600081815260208120601f850160051c81016020861015620003175750805b601f850160051c820191505b81811015620003385782815560010162000323565b5050505b505050565b81516001600160401b038111156200035d576200035d6200029c565b62000375816200036e8454620002b2565b84620002ee565b602080601f831160018114620003ad5760008415620003945750858301515b600019600386901b1c1916600185901b17855562000338565b600085815260208120601f198616915b82811015620003de57888601518255948401946001909101908401620003bd565b5085821015620003fd5787850151600019600388901b60f8161c191681555b5050505050600190811b01905550565b634e487b7160e01b600052601260045260246000fd5b6000826200043557620004356200040d565b500690565b634e487b7160e01b600052601160045260246000fd5b6000828210156200046557620004656200043a565b500390565b600060208083528351808285015260005b8181101562000499578581018301518582016040015282016200047b565b81811115620004ac576000604083870101525b50601f01601f1916929092016040019392505050565b600082620004d457620004d46200040d565b500490565b6000816000190483118215151615620004f657620004f66200043a565b500290565b600082198211156200051157620005116200043a565b500190565b634e487b7160e01b600052600160045260246000fd5b60805160a05160c05160e0516101005161012051610140516127a66200058760003960006118a201526000611db401526000611e0301526000611dde01526000611d6001526000611d870152600061028d01526127a66000f3fe608060405234801561001057600080fd5b50600436106101da5760003560e01c806373c69eb711610104578063a9059cbb116100a2578063d505accf11610071578063d505accf1461044f578063dd62ed3e14610462578063e03481e1146104a8578063ee99205c146104c857600080fd5b8063a9059cbb146103f6578063ae5c6cd314610409578063b8fbd5331461041c578063c4ef1c4c1461042f57600080fd5b80639358928b116100de5780639358928b146103c057806395d89b41146103c85780639d0b65b3146103d0578063a457c2d7146103e357600080fd5b806373c69eb7146103525780637965d56d1461039a5780637ecebe00146103ad57600080fd5b80632986c0e51161017c57806340a5737f1161014b57806340a5737f146102d2578063485cc955146102e757806361d027b3146102fa57806370a082311461033f57600080fd5b80632986c0e51461027e578063313ce567146102865780633644e515146102b757806339509351146102bf57600080fd5b8063095ea7b3116101b8578063095ea7b31461022d57806318160ddd146102505780631bd396741461025857806323b872dd1461026b57600080fd5b8063058ecdb4146101df57806306fdde0314610205578063095be8181461021a575b600080fd5b6101f26101ed366004612377565b6104e8565b6040519081526020015b60405180910390f35b61020d610724565b6040516101fc9190612399565b6101f261022836600461240c565b6107b6565b61024061023b36600461244e565b61084b565b60405190151581526020016101fc565b6002546101f2565b6101f261026636600461240c565b610861565b610240610279366004612478565b610878565b6101f2610ab0565b60405160ff7f00000000000000000000000000000000000000000000000000000000000000001681526020016101fc565b6101f2610ac2565b6102406102cd36600461244e565b610acc565b6102e56102e036600461240c565b610b14565b005b6102e56102f53660046124b4565b610c34565b600e5461031a9073ffffffffffffffffffffffffffffffffffffffff1681565b60405173ffffffffffffffffffffffffffffffffffffffff90911681526020016101fc565b6101f261034d3660046124e7565b610f85565b61036561036036600461240c565b610fba565b604080519788526020880196909652948601939093526060850191909152608084015260a083015260c082015260e0016101fc565b6101f26103a836600461240c565b61100c565b6101f26103bb3660046124e7565b611023565b6101f261104e565b61020d611215565b6102e56103de3660046124e7565b611224565b6102406103f136600461244e565b611435565b61024061040436600461244e565b611497565b6102e5610417366004612502565b611607565b6101f261042a36600461240c565b6117dc565b6101f261043d3660046124e7565b600f6020526000908152604090205481565b6102e561045d366004612547565b611834565b6101f26104703660046124b4565b73ffffffffffffffffffffffffffffffffffffffff9182166000908152600d6020908152604080832093909416825291909152205490565b60095461031a9073ffffffffffffffffffffffffffffffffffffffff1681565b60085461031a9073ffffffffffffffffffffffffffffffffffffffff1681565b60085460009073ffffffffffffffffffffffffffffffffffffffff163314610597576040517f08c379a000000000000000000000000000000000000000000000000000000000815260206004820152602e60248201527f5374616b696e67436f6e74726163743a202063616c6c206973206e6f7420737460448201527f616b696e6720636f6e747261637400000000000000000000000000000000000060648201526084015b60405180910390fd5b6000806105a261104e565b90508460000361063857837f0417b340e646d4be71f9b2da63b5c3c69bc9cfa069f0e0db4756271886130bf46002546040516105e091815260200190565b60405180910390a2837f6012dbce857565c4a40974aa5de8373a761fc429077ef0c8c8611d1e20d63fb26000610614610ab0565b6040805192835260208301919091520160405180910390a26002549250505061071e565b80156106645761065d8161065760025488611a3c90919063ffffffff16565b906119f3565b9150610668565b8491505b6002546106759083611af4565b60028190556fffffffffffffffffffffffffffffffff10156106a6576fffffffffffffffffffffffffffffffff6002555b600254610708906106de6611c37937e080007fffffffffffffffffffffffffffffffffffffffffffffffffffffffffffffffff6125e9565b610657907fffffffffffffffffffffffffffffffffffffffffffffffffffffffffffffffff61262c565b600b55610716818686611b6d565b600254925050505b92915050565b60606003805461073390612643565b80601f016020809104026020016040519081016040528092919081815260200182805461075f90612643565b80156107ac5780601f10610781576101008083540402835291602001916107ac565b820191906000526020600020905b81548152906001019060200180831161078f57829003601f168201915b5050505050905090565b6009546040517f66a5236c0000000000000000000000000000000000000000000000000000000081526004810183905260009173ffffffffffffffffffffffffffffffffffffffff16906366a5236c906024015b602060405180830381865afa158015610827573d6000803e3d6000fd5b505050506040513d601f19601f8201168201806040525081019061071e9190612690565b6000610858338484611cab565b50600192915050565b600061071e600b5483611a3c90919063ffffffff16565b73ffffffffffffffffffffffffffffffffffffffff83166000908152600d602090815260408083203384529091528120546108b39083611d19565b73ffffffffffffffffffffffffffffffffffffffff85166000818152600d6020908152604080832033808552908352928190208590555193845290927f8c5be1e5ebec7d5bd14f71427d1e84f3dd0314c0f7b2291e5b200ac8c7c3b925910160405180910390a3600061092583610861565b73ffffffffffffffffffffffffffffffffffffffff86166000908152600c60205260409020549091506109589082611d19565b73ffffffffffffffffffffffffffffffffffffffff8087166000908152600c602052604080822093909355908616815220546109949082611af4565b73ffffffffffffffffffffffffffffffffffffffff8086166000908152600c60209081526040808320949094559188168152600f90915220546109d686610f85565b1015610a3e576040517f08c379a000000000000000000000000000000000000000000000000000000000815260206004820152601c60248201527f446562743a2063616e6e6f74207472616e7366657220616d6f756e7400000000604482015260640161058e565b8373ffffffffffffffffffffffffffffffffffffffff168573ffffffffffffffffffffffffffffffffffffffff167fddf252ad1be2c89b69c2b068fc378daa952ba7f163c4a11628f55a4df523b3ef85604051610a9d91815260200190565b60405180910390a3506001949350505050565b6000610abd60075461100c565b905090565b6000610abd611d5b565b336000818152600d6020908152604080832073ffffffffffffffffffffffffffffffffffffffff871684529091528120549091610858918590610b0f9086611af4565b611cab565b60065473ffffffffffffffffffffffffffffffffffffffff163314610bbb576040517f08c379a000000000000000000000000000000000000000000000000000000000815260206004820152602760248201527f496e697469616c697a65723a202063616c6c6572206973206e6f7420696e697460448201527f69616c697a657200000000000000000000000000000000000000000000000000606482015260840161058e565b60075415610c25576040517f08c379a000000000000000000000000000000000000000000000000000000000815260206004820152601660248201527f43616e6e6f742073657420494e44455820616761696e00000000000000000000604482015260640161058e565b610c2e81610861565b60075550565b60065473ffffffffffffffffffffffffffffffffffffffff163314610cdb576040517f08c379a000000000000000000000000000000000000000000000000000000000815260206004820152602760248201527f496e697469616c697a65723a202063616c6c6572206973206e6f7420696e697460448201527f69616c697a657200000000000000000000000000000000000000000000000000606482015260840161058e565b73ffffffffffffffffffffffffffffffffffffffff8216610d58576040517f08c379a000000000000000000000000000000000000000000000000000000000815260206004820152600760248201527f5374616b696e6700000000000000000000000000000000000000000000000000604482015260640161058e565b600880547fffffffffffffffffffffffff00000000000000000000000000000000000000001673ffffffffffffffffffffffffffffffffffffffff8416179055610dc96611c37937e080007fffffffffffffffffffffffffffffffffffffffffffffffffffffffffffffffff6125e9565b610df3907fffffffffffffffffffffffffffffffffffffffffffffffffffffffffffffffff61262c565b60085473ffffffffffffffffffffffffffffffffffffffff9081166000908152600c60205260409020919091558116610e88576040517f08c379a000000000000000000000000000000000000000000000000000000000815260206004820152601660248201527f5a65726f20616464726573733a20547265617375727900000000000000000000604482015260640161058e565b600e80547fffffffffffffffffffffffff00000000000000000000000000000000000000001673ffffffffffffffffffffffffffffffffffffffff838116919091179091556008546002546040519081529116906000907fddf252ad1be2c89b69c2b068fc378daa952ba7f163c4a11628f55a4df523b3ef9060200160405180910390a360085460405173ffffffffffffffffffffffffffffffffffffffff90911681527f817c653428858ed536dc085c5d8273734c517b55de44b55f5c5877a75e3373a19060200160405180910390a15050600680547fffffffffffffffffffffffff0000000000000000000000000000000000000000169055565b600b5473ffffffffffffffffffffffffffffffffffffffff82166000908152600c6020526040812054909161071e91906119f3565b600a8181548110610fca57600080fd5b90600052602060002090600702016000915090508060000154908060010154908060020154908060030154908060040154908060050154908060060154905087565b600061071e600b54836119f390919063ffffffff16565b73ffffffffffffffffffffffffffffffffffffffff811660009081526005602052604081205461071e565b6000610abd600860009054906101000a900473ffffffffffffffffffffffffffffffffffffffff1673ffffffffffffffffffffffffffffffffffffffff1663201386416040518163ffffffff1660e01b8152600401602060405180830381865afa1580156110c0573d6000803e3d6000fd5b505050506040513d601f19601f820116820180604052508101906110e49190612690565b600954604080517f18160ddd000000000000000000000000000000000000000000000000000000008152905161120f9273ffffffffffffffffffffffffffffffffffffffff169163a82487689183916318160ddd9160048083019260209291908290030181865afa15801561115d573d6000803e3d6000fd5b505050506040513d601f19601f820116820180604052508101906111819190612690565b6040518263ffffffff1660e01b815260040161119f91815260200190565b602060405180830381865afa1580156111bc573d6000803e3d6000fd5b505050506040513d601f19601f820116820180604052508101906111e09190612690565b60085461120f906112069073ffffffffffffffffffffffffffffffffffffffff16610f85565b60025490611d19565b90611af4565b60606004805461073390612643565b60065473ffffffffffffffffffffffffffffffffffffffff1633146112cb576040517f08c379a000000000000000000000000000000000000000000000000000000000815260206004820152602760248201527f496e697469616c697a65723a202063616c6c6572206973206e6f7420696e697460448201527f69616c697a657200000000000000000000000000000000000000000000000000606482015260840161058e565b60095473ffffffffffffffffffffffffffffffffffffffff161561134b576040517f08c379a000000000000000000000000000000000000000000000000000000000815260206004820152601960248201527f784744414f3a2020784744414f20616c72656164792073657400000000000000604482015260640161058e565b73ffffffffffffffffffffffffffffffffffffffff81166113ee576040517f08c379a000000000000000000000000000000000000000000000000000000000815260206004820152602560248201527f784744414f3a2020784744414f206973206e6f7420612076616c696420636f6e60448201527f7472616374000000000000000000000000000000000000000000000000000000606482015260840161058e565b600980547fffffffffffffffffffffffff00000000000000000000000000000000000000001673ffffffffffffffffffffffffffffffffffffffff92909216919091179055565b336000908152600d6020908152604080832073ffffffffffffffffffffffffffffffffffffffff8616845290915281205480831061147e5761147933856000611cab565b61148d565b61148d3385610b0f8487611d19565b5060019392505050565b6000806114af600b5484611a3c90919063ffffffff16565b336000908152600c60205260409020549091506114cc9082611d19565b336000908152600c60205260408082209290925573ffffffffffffffffffffffffffffffffffffffff8616815220546115059082611af4565b73ffffffffffffffffffffffffffffffffffffffff85166000908152600c602090815260408083209390935533808352600f909152919020549061154890610f85565b10156115b0576040517f08c379a000000000000000000000000000000000000000000000000000000000815260206004820152601c60248201527f446562743a2063616e6e6f74207472616e7366657220616d6f756e7400000000604482015260640161058e565b60405183815273ffffffffffffffffffffffffffffffffffffffff85169033907fddf252ad1be2c89b69c2b068fc378daa952ba7f163c4a11628f55a4df523b3ef9060200160405180910390a35060019392505050565b600e5473ffffffffffffffffffffffffffffffffffffffff163314611688576040517f08c379a000000000000000000000000000000000000000000000000000000000815260206004820152600d60248201527f4f6e6c7920747265617375727900000000000000000000000000000000000000604482015260640161058e565b80156116e95773ffffffffffffffffffffffffffffffffffffffff82166000908152600f60205260409020546116be9084611af4565b73ffffffffffffffffffffffffffffffffffffffff83166000908152600f6020526040902055611740565b73ffffffffffffffffffffffffffffffffffffffff82166000908152600f60205260409020546117199084611d19565b73ffffffffffffffffffffffffffffffffffffffff83166000908152600f60205260409020555b61174982610f85565b73ffffffffffffffffffffffffffffffffffffffff83166000908152600f602052604090205411156117d7576040517f08c379a000000000000000000000000000000000000000000000000000000000815260206004820152601b60248201527f734744414f3a20696e73756666696369656e742062616c616e63650000000000604482015260640161058e565b505050565b6009546040517fa82487680000000000000000000000000000000000000000000000000000000081526004810183905260009173ffffffffffffffffffffffffffffffffffffffff169063a82487689060240161080a565b8342111561189e576040517f08c379a000000000000000000000000000000000000000000000000000000000815260206004820152601d60248201527f45524332305065726d69743a206578706972656420646561646c696e65000000604482015260640161058e565b60007f00000000000000000000000000000000000000000000000000000000000000008888886118cd8c611e51565b60408051602081019690965273ffffffffffffffffffffffffffffffffffffffff94851690860152929091166060840152608083015260a082015260c0810186905260e001604051602081830303815290604052805190602001209050600061193582611e88565b9050600061194582878787611ef1565b90508973ffffffffffffffffffffffffffffffffffffffff168173ffffffffffffffffffffffffffffffffffffffff16146119dc576040517f08c379a000000000000000000000000000000000000000000000000000000000815260206004820152601e60248201527f45524332305065726d69743a20696e76616c6964207369676e61747572650000604482015260640161058e565b6119e78a8a8a611cab565b50505050505050505050565b6000611a3583836040518060400160405280601a81526020017f536166654d6174683a206469766973696f6e206279207a65726f000000000000815250611f19565b9392505050565b600082600003611a4e5750600061071e565b6000611a5a83856126a9565b905082611a6785836126e6565b14611a35576040517f08c379a000000000000000000000000000000000000000000000000000000000815260206004820152602160248201527f536166654d6174683a206d756c7469706c69636174696f6e206f766572666c6f60448201527f7700000000000000000000000000000000000000000000000000000000000000606482015260840161058e565b600080611b0183856126fa565b905083811015611a35576040517f08c379a000000000000000000000000000000000000000000000000000000000815260206004820152601b60248201527f536166654d6174683a206164646974696f6e206f766572666c6f770000000000604482015260640161058e565b6000611b858461065785670de0b6b3a7640000611a3c565b9050600a6040518060e00160405280848152602001838152602001868152602001611bae61104e565b8152602001858152602001611bc1610ab0565b81524360209182015282546001808201855560009485529382902083516007909202019081558282015193810193909355604080830151600280860191909155606084015160038601556080840151600486015560a0840151600586015560c0909301516006909401939093559054915191825283917f0417b340e646d4be71f9b2da63b5c3c69bc9cfa069f0e0db4756271886130bf4910160405180910390a2817f6012dbce857565c4a40974aa5de8373a761fc429077ef0c8c8611d1e20d63fb282611c8d610ab0565b6040805192835260208301919091520160405180910390a250505050565b73ffffffffffffffffffffffffffffffffffffffff8381166000818152600d602090815260408083209487168084529482529182902085905590518481527f8c5be1e5ebec7d5bd14f71427d1e84f3dd0314c0f7b2291e5b200ac8c7c3b925910160405180910390a3505050565b6000611a3583836040518060400160405280601e81526020017f536166654d6174683a207375627472616374696f6e206f766572666c6f770000815250611f97565b6000467f00000000000000000000000000000000000000000000000000000000000000008103611dac577f000000000000000000000000000000000000000000000000000000000000000091505090565b5050604080517f00000000000000000000000000000000000000000000000000000000000000006020808301919091527f0000000000000000000000000000000000000000000000000000000000000000828401527f000000000000000000000000000000000000000000000000000000000000000060608301524660808301523060a0808401919091528351808403909101815260c0909201909252805191012090565b73ffffffffffffffffffffffffffffffffffffffff81166000908152600560205260409020805490611e8281611feb565b50919050565b600061071e611e95611d5b565b836040517f19010000000000000000000000000000000000000000000000000000000000006020820152602281018390526042810182905260009060620160405160208183030381529060405280519060200120905092915050565b6000806000611f0287878787612008565b91509150611f0f81612120565b5095945050505050565b60008183611f54576040517f08c379a000000000000000000000000000000000000000000000000000000000815260040161058e9190612399565b506000611f6184866126e6565b9050611f6d84866125e9565b611f7782866126a9565b611f8191906126fa565b8514611f8f57611f8f612712565b949350505050565b60008184841115611fd5576040517f08c379a000000000000000000000000000000000000000000000000000000000815260040161058e9190612399565b506000611fe2848661262c565b95945050505050565b600181600001600082825461200091906126fa565b909155505050565b6000807f7fffffffffffffffffffffffffffffff5d576e7357a4501ddfe92f46681b20a083111561203f5750600090506003612117565b8460ff16601b1415801561205757508460ff16601c14155b156120685750600090506004612117565b6040805160008082526020820180845289905260ff881692820192909252606081018690526080810185905260019060a0016020604051602081039080840390855afa1580156120bc573d6000803e3d6000fd5b50506040517fffffffffffffffffffffffffffffffffffffffffffffffffffffffffffffffe0015191505073ffffffffffffffffffffffffffffffffffffffff811661211057600060019250925050612117565b9150600090505b94509492505050565b600081600481111561213457612134612741565b0361213c5750565b600181600481111561215057612150612741565b036121b7576040517f08c379a000000000000000000000000000000000000000000000000000000000815260206004820152601860248201527f45434453413a20696e76616c6964207369676e61747572650000000000000000604482015260640161058e565b60028160048111156121cb576121cb612741565b03612232576040517f08c379a000000000000000000000000000000000000000000000000000000000815260206004820152601f60248201527f45434453413a20696e76616c6964207369676e6174757265206c656e67746800604482015260640161058e565b600381600481111561224657612246612741565b036122d3576040517f08c379a000000000000000000000000000000000000000000000000000000000815260206004820152602260248201527f45434453413a20696e76616c6964207369676e6174757265202773272076616c60448201527f7565000000000000000000000000000000000000000000000000000000000000606482015260840161058e565b60048160048111156122e7576122e7612741565b03612374576040517f08c379a000000000000000000000000000000000000000000000000000000000815260206004820152602260248201527f45434453413a20696e76616c6964207369676e6174757265202776272076616c60448201527f7565000000000000000000000000000000000000000000000000000000000000606482015260840161058e565b50565b6000806040838503121561238a57600080fd5b50508035926020909101359150565b600060208083528351808285015260005b818110156123c6578581018301518582016040015282016123aa565b818111156123d8576000604083870101525b50601f017fffffffffffffffffffffffffffffffffffffffffffffffffffffffffffffffe016929092016040019392505050565b60006020828403121561241e57600080fd5b5035919050565b803573ffffffffffffffffffffffffffffffffffffffff8116811461244957600080fd5b919050565b6000806040838503121561246157600080fd5b61246a83612425565b946020939093013593505050565b60008060006060848603121561248d57600080fd5b61249684612425565b92506124a460208501612425565b9150604084013590509250925092565b600080604083850312156124c757600080fd5b6124d083612425565b91506124de60208401612425565b90509250929050565b6000602082840312156124f957600080fd5b611a3582612425565b60008060006060848603121561251757600080fd5b8335925061252760208501612425565b91506040840135801515811461253c57600080fd5b809150509250925092565b600080600080600080600060e0888a03121561256257600080fd5b61256b88612425565b965061257960208901612425565b95506040880135945060608801359350608088013560ff8116811461259d57600080fd5b9699959850939692959460a0840135945060c09093013592915050565b7f4e487b7100000000000000000000000000000000000000000000000000000000600052601260045260246000fd5b6000826125f8576125f86125ba565b500690565b7f4e487b7100000000000000000000000000000000000000000000000000000000600052601160045260246000fd5b60008282101561263e5761263e6125fd565b500390565b600181811c9082168061265757607f821691505b602082108103611e82577f4e487b7100000000000000000000000000000000000000000000000000000000600052602260045260246000fd5b6000602082840312156126a257600080fd5b5051919050565b6000817fffffffffffffffffffffffffffffffffffffffffffffffffffffffffffffffff04831182151516156126e1576126e16125fd565b500290565b6000826126f5576126f56125ba565b500490565b6000821982111561270d5761270d6125fd565b500190565b7f4e487b7100000000000000000000000000000000000000000000000000000000600052600160045260246000fd5b7f4e487b7100000000000000000000000000000000000000000000000000000000600052602160045260246000fdfea26469706673582212201d1448e4f273b4de475c62a41d156292336702874403ceb45ff55ba29bad84bc64736f6c634300080f0033",
    "linkReferences": {}
  },
  "methodIdentifiers": {
    "DOMAIN_SEPARATOR()": "3644e515",
    "allowance(address,address)": "dd62ed3e",
    "approve(address,uint256)": "095ea7b3",
    "balanceForGons(uint256)": "7965d56d",
    "balanceOf(address)": "70a08231",
    "changeDebt(uint256,address,bool)": "ae5c6cd3",
    "circulatingSupply()": "9358928b",
    "debtBalances(address)": "c4ef1c4c",
    "decimals()": "313ce567",
    "decreaseAllowance(address,uint256)": "a457c2d7",
    "fromG(uint256)": "b8fbd533",
    "gonsForBalance(uint256)": "1bd39674",
    "increaseAllowance(address,uint256)": "39509351",
    "index()": "2986c0e5",
    "initialize(address,address)": "485cc955",
    "name()": "06fdde03",
    "nonces(address)": "7ecebe00",
    "permit(address,address,uint256,uint256,uint8,bytes32,bytes32)": "d505accf",
    "rebase(uint256,uint256)": "058ecdb4",
    "rebases(uint256)": "73c69eb7",
    "setIndex(uint256)": "40a5737f",
    "setxGDAO(address)": "9d0b65b3",
    "stakingContract()": "ee99205c",
    "symbol()": "95d89b41",
    "toG(uint256)": "095be818",
    "totalSupply()": "18160ddd",
    "transfer(address,uint256)": "a9059cbb",
    "transferFrom(address,address,uint256)": "23b872dd",
    "treasury()": "61d027b3",
    "xGDAO()": "e03481e1"
  },
  "id": 182
}