{
  "abi": [
    {
      "inputs": [
        {
          "internalType": "contract Kernel",
          "name": "kernel_",
          "type": "address"
        },
        {
          "internalType": "contract ERC20",
          "name": "gdao_",
          "type": "address"
        },
        {
          "internalType": "contract ERC20",
          "name": "reserve_",
          "type": "address"
        },
        {
          "internalType": "uint256",
          "name": "thresholdFactor_",
          "type": "uint256"
        },
        {
          "internalType": "uint256",
          "name": "cushionSpread_",
          "type": "uint256"
        },
        {
          "internalType": "uint256",
          "name": "wallSpread_",
          "type": "uint256"
        }
      ],
      "stateMutability": "nonpayable",
      "type": "constructor"
    },
    {
      "inputs": [
        {
          "internalType": "address",
          "name": "caller_",
          "type": "address"
        }
      ],
      "name": "KernelAdapter_OnlyKernel",
      "type": "error"
    },
    {
      "inputs": [
        {
          "internalType": "address",
          "name": "policy_",
          "type": "address"
        }
      ],
      "name": "Module_PolicyNotPermitted",
      "type": "error"
    },
    {
      "inputs": [],
      "name": "RANGE_InvalidParams",
      "type": "error"
    },
    {
      "anonymous": false,
      "inputs": [
        {
          "indexed": false,
          "internalType": "bool",
          "name": "high_",
          "type": "bool"
        },
        {
          "indexed": false,
          "internalType": "uint256",
          "name": "timestamp_",
          "type": "uint256"
        }
      ],
      "name": "CushionDown",
      "type": "event"
    },
    {
      "anonymous": false,
      "inputs": [
        {
          "indexed": false,
          "internalType": "bool",
          "name": "high_",
          "type": "bool"
        },
        {
          "indexed": false,
          "internalType": "uint256",
          "name": "timestamp_",
          "type": "uint256"
        },
        {
          "indexed": false,
          "internalType": "uint256",
          "name": "capacity_",
          "type": "uint256"
        }
      ],
      "name": "CushionUp",
      "type": "event"
    },
    {
      "anonymous": false,
      "inputs": [
        {
          "indexed": false,
          "internalType": "uint256",
          "name": "wallLowPrice_",
          "type": "uint256"
        },
        {
          "indexed": false,
          "internalType": "uint256",
          "name": "cushionLowPrice_",
          "type": "uint256"
        },
        {
          "indexed": false,
          "internalType": "uint256",
          "name": "cushionHighPrice_",
          "type": "uint256"
        },
        {
          "indexed": false,
          "internalType": "uint256",
          "name": "wallHighPrice_",
          "type": "uint256"
        }
      ],
      "name": "PricesChanged",
      "type": "event"
    },
    {
      "anonymous": false,
      "inputs": [
        {
          "indexed": false,
          "internalType": "uint256",
          "name": "cushionSpread_",
          "type": "uint256"
        },
        {
          "indexed": false,
          "internalType": "uint256",
          "name": "wallSpread_",
          "type": "uint256"
        }
      ],
      "name": "SpreadsChanged",
      "type": "event"
    },
    {
      "anonymous": false,
      "inputs": [
        {
          "indexed": false,
          "internalType": "uint256",
          "name": "thresholdFactor_",
          "type": "uint256"
        }
      ],
      "name": "ThresholdFactorChanged",
      "type": "event"
    },
    {
      "anonymous": false,
      "inputs": [
        {
          "indexed": false,
          "internalType": "bool",
          "name": "high_",
          "type": "bool"
        },
        {
          "indexed": false,
          "internalType": "uint256",
          "name": "timestamp_",
          "type": "uint256"
        },
        {
          "indexed": false,
          "internalType": "uint256",
          "name": "capacity_",
          "type": "uint256"
        }
      ],
      "name": "WallDown",
      "type": "event"
    },
    {
      "anonymous": false,
      "inputs": [
        {
          "indexed": false,
          "internalType": "bool",
          "name": "high_",
          "type": "bool"
        },
        {
          "indexed": false,
          "internalType": "uint256",
          "name": "timestamp_",
          "type": "uint256"
        },
        {
          "indexed": false,
          "internalType": "uint256",
          "name": "capacity_",
          "type": "uint256"
        }
      ],
      "name": "WallUp",
      "type": "event"
    },
    {
      "inputs": [],
      "name": "INIT",
      "outputs": [],
      "stateMutability": "nonpayable",
      "type": "function"
    },
    {
      "inputs": [],
      "name": "KEYCODE",
      "outputs": [
        {
          "internalType": "Keycode",
          "name": "",
          "type": "bytes5"
        }
      ],
      "stateMutability": "pure",
      "type": "function"
    },
    {
      "inputs": [],
      "name": "ONE_HUNDRED_PERCENT",
      "outputs": [
        {
          "internalType": "uint256",
          "name": "",
          "type": "uint256"
        }
      ],
      "stateMutability": "view",
      "type": "function"
    },
    {
      "inputs": [],
      "name": "ONE_PERCENT",
      "outputs": [
        {
          "internalType": "uint256",
          "name": "",
          "type": "uint256"
        }
      ],
      "stateMutability": "view",
      "type": "function"
    },
    {
      "inputs": [],
      "name": "VERSION",
      "outputs": [
        {
          "internalType": "uint8",
          "name": "major",
          "type": "uint8"
        },
        {
          "internalType": "uint8",
          "name": "minor",
          "type": "uint8"
        }
      ],
      "stateMutability": "pure",
      "type": "function"
    },
    {
      "inputs": [
        {
          "internalType": "bool",
          "name": "high_",
          "type": "bool"
        }
      ],
      "name": "active",
      "outputs": [
        {
          "internalType": "bool",
          "name": "",
          "type": "bool"
        }
      ],
      "stateMutability": "view",
      "type": "function"
    },
    {
      "inputs": [
        {
          "internalType": "bool",
          "name": "high_",
          "type": "bool"
        }
      ],
      "name": "capacity",
      "outputs": [
        {
          "internalType": "uint256",
          "name": "",
          "type": "uint256"
        }
      ],
      "stateMutability": "view",
      "type": "function"
    },
    {
      "inputs": [
        {
          "internalType": "contract Kernel",
          "name": "newKernel_",
          "type": "address"
        }
      ],
      "name": "changeKernel",
      "outputs": [],
      "stateMutability": "nonpayable",
      "type": "function"
    },
    {
      "inputs": [],
      "name": "gdao",
      "outputs": [
        {
          "internalType": "contract ERC20",
          "name": "",
          "type": "address"
        }
      ],
      "stateMutability": "view",
      "type": "function"
    },
    {
      "inputs": [],
      "name": "kernel",
      "outputs": [
        {
          "internalType": "contract Kernel",
          "name": "",
          "type": "address"
        }
      ],
      "stateMutability": "view",
      "type": "function"
    },
    {
      "inputs": [
        {
          "internalType": "bool",
          "name": "high_",
          "type": "bool"
        }
      ],
      "name": "lastActive",
      "outputs": [
        {
          "internalType": "uint256",
          "name": "",
          "type": "uint256"
        }
      ],
      "stateMutability": "view",
      "type": "function"
    },
    {
      "inputs": [
        {
          "internalType": "bool",
          "name": "high_",
          "type": "bool"
        }
      ],
      "name": "market",
      "outputs": [
        {
          "internalType": "uint256",
          "name": "",
          "type": "uint256"
        }
      ],
      "stateMutability": "view",
      "type": "function"
    },
    {
      "inputs": [
        {
          "internalType": "bool",
          "name": "wall_",
          "type": "bool"
        },
        {
          "internalType": "bool",
          "name": "high_",
          "type": "bool"
        }
      ],
      "name": "price",
      "outputs": [
        {
          "internalType": "uint256",
          "name": "",
          "type": "uint256"
        }
      ],
      "stateMutability": "view",
      "type": "function"
    },
    {
      "inputs": [],
      "name": "range",
      "outputs": [
        {
          "components": [
            {
              "components": [
                {
                  "internalType": "bool",
                  "name": "active",
                  "type": "bool"
                },
                {
                  "internalType": "uint48",
                  "name": "lastActive",
                  "type": "uint48"
                },
                {
                  "internalType": "uint256",
                  "name": "capacity",
                  "type": "uint256"
                },
                {
                  "internalType": "uint256",
                  "name": "threshold",
                  "type": "uint256"
                },
                {
                  "internalType": "uint256",
                  "name": "market",
                  "type": "uint256"
                }
              ],
              "internalType": "struct RANGEv1.Side",
              "name": "low",
              "type": "tuple"
            },
            {
              "components": [
                {
                  "internalType": "bool",
                  "name": "active",
                  "type": "bool"
                },
                {
                  "internalType": "uint48",
                  "name": "lastActive",
                  "type": "uint48"
                },
                {
                  "internalType": "uint256",
                  "name": "capacity",
                  "type": "uint256"
                },
                {
                  "internalType": "uint256",
                  "name": "threshold",
                  "type": "uint256"
                },
                {
                  "internalType": "uint256",
                  "name": "market",
                  "type": "uint256"
                }
              ],
              "internalType": "struct RANGEv1.Side",
              "name": "high",
              "type": "tuple"
            },
            {
              "components": [
                {
                  "components": [
                    {
                      "internalType": "uint256",
                      "name": "price",
                      "type": "uint256"
                    }
                  ],
                  "internalType": "struct RANGEv1.Line",
                  "name": "high",
                  "type": "tuple"
                },
                {
                  "components": [
                    {
                      "internalType": "uint256",
                      "name": "price",
                      "type": "uint256"
                    }
                  ],
                  "internalType": "struct RANGEv1.Line",
                  "name": "low",
                  "type": "tuple"
                },
                {
                  "internalType": "uint256",
                  "name": "spread",
                  "type": "uint256"
                }
              ],
              "internalType": "struct RANGEv1.Band",
              "name": "cushion",
              "type": "tuple"
            },
            {
              "components": [
                {
                  "components": [
                    {
                      "internalType": "uint256",
                      "name": "price",
                      "type": "uint256"
                    }
                  ],
                  "internalType": "struct RANGEv1.Line",
                  "name": "high",
                  "type": "tuple"
                },
                {
                  "components": [
                    {
                      "internalType": "uint256",
                      "name": "price",
                      "type": "uint256"
                    }
                  ],
                  "internalType": "struct RANGEv1.Line",
                  "name": "low",
                  "type": "tuple"
                },
                {
                  "internalType": "uint256",
                  "name": "spread",
                  "type": "uint256"
                }
              ],
              "internalType": "struct RANGEv1.Band",
              "name": "wall",
              "type": "tuple"
            }
          ],
          "internalType": "struct RANGEv1.Range",
          "name": "",
          "type": "tuple"
        }
      ],
      "stateMutability": "view",
      "type": "function"
    },
    {
      "inputs": [
        {
          "internalType": "bool",
          "name": "high_",
          "type": "bool"
        },
        {
          "internalType": "uint256",
          "name": "capacity_",
          "type": "uint256"
        }
      ],
      "name": "regenerate",
      "outputs": [],
      "stateMutability": "nonpayable",
      "type": "function"
    },
    {
      "inputs": [],
      "name": "reserve",
      "outputs": [
        {
          "internalType": "contract ERC20",
          "name": "",
          "type": "address"
        }
      ],
      "stateMutability": "view",
      "type": "function"
    },
    {
      "inputs": [
        {
          "internalType": "uint256",
          "name": "cushionSpread_",
          "type": "uint256"
        },
        {
          "internalType": "uint256",
          "name": "wallSpread_",
          "type": "uint256"
        }
      ],
      "name": "setSpreads",
      "outputs": [],
      "stateMutability": "nonpayable",
      "type": "function"
    },
    {
      "inputs": [
        {
          "internalType": "uint256",
          "name": "thresholdFactor_",
          "type": "uint256"
        }
      ],
      "name": "setThresholdFactor",
      "outputs": [],
      "stateMutability": "nonpayable",
      "type": "function"
    },
    {
      "inputs": [
        {
          "internalType": "bool",
          "name": "wall_",
          "type": "bool"
        }
      ],
      "name": "spread",
      "outputs": [
        {
          "internalType": "uint256",
          "name": "",
          "type": "uint256"
        }
      ],
      "stateMutability": "view",
      "type": "function"
    },
    {
      "inputs": [],
      "name": "thresholdFactor",
      "outputs": [
        {
          "internalType": "uint256",
          "name": "",
          "type": "uint256"
        }
      ],
      "stateMutability": "view",
      "type": "function"
    },
    {
      "inputs": [
        {
          "internalType": "bool",
          "name": "high_",
          "type": "bool"
        },
        {
          "internalType": "uint256",
          "name": "capacity_",
          "type": "uint256"
        }
      ],
      "name": "updateCapacity",
      "outputs": [],
      "stateMutability": "nonpayable",
      "type": "function"
    },
    {
      "inputs": [
        {
          "internalType": "bool",
          "name": "high_",
          "type": "bool"
        },
        {
          "internalType": "uint256",
          "name": "market_",
          "type": "uint256"
        },
        {
          "internalType": "uint256",
          "name": "marketCapacity_",
          "type": "uint256"
        }
      ],
      "name": "updateMarket",
      "outputs": [],
      "stateMutability": "nonpayable",
      "type": "function"
    },
    {
      "inputs": [
        {
          "internalType": "uint256",
          "name": "movingAverage_",
          "type": "uint256"
        }
      ],
      "name": "updatePrices",
      "outputs": [],
      "stateMutability": "nonpayable",
      "type": "function"
    }
  ],
  "bytecode": {
    "object": "0x60806040523480156200001157600080fd5b5060405162001a7338038062001a738339810160408190526200003491620002f9565b600080546001600160a01b0319166001600160a01b03881617905561271081101580620000615750606481105b806200006f57506127108210155b806200007b5750606482105b806200008657508082115b806200009457506127108310155b80620000a05750606483105b15620000bf5760405163c51f44ab60e01b815260040160405180910390fd5b60408051610120810182526000608080830182815265ffffffffffff42811660a080870182905260c0870186905260e087018690526000196101008089018290529488528851918201895286825260208281019390935281890187905260608083018890528287019190915282880191825288518087018a52808201888152815289518085018b5288815281850152808a018c9052888a0190815289518088018b5280830189815281528a518086018c52988952808501988952808b018c8152838b018290529951805160018054838901518a168b0266ffffffffffff0019931515841666ffffffffffffff199283161717909155828e015160025582860151600355918a01516004559451805160058054838a0151909a16909a0290151590961697909116969096179390931790955583890151600655830151600755919093015160085590518051516009559182015151600a5590840151600b555151600c555151600d5551600e55600f849055601080546001600160a01b038089166001600160a01b0319928316179092556011805492881692909116919091179055517ff9f6bac7789241c1f8bc37f72defbdc6b5482ec2c96cb91f7ebf917c7ef7ff9890620002999084908490918252602082015260400190565b60405180910390a16040518381527f66df6e0040d88b0d9e6e482ec0ef8983562d1186b0b94f9747f64f3c7e3863359060200160405180910390a150505050505062000369565b6001600160a01b0381168114620002f657600080fd5b50565b60008060008060008060c087890312156200031357600080fd5b86516200032081620002e0565b60208801519096506200033381620002e0565b60408801519095506200034681620002e0565b80945050606087015192506080870151915060a087015190509295509295509295565b6116fa80620003796000396000f3fe608060405234801561001057600080fd5b506004361061018c5760003560e01c8063ae7e8d81116100e3578063d4aae0c41161008c578063e97206a911610066578063e97206a91461037a578063ea6439141461043d578063ffa1ad741461044557600080fd5b8063d4aae0c41461033e578063dd0081c71461035e578063e69f3c4e1461036757600080fd5b8063c21e6652116100bd578063c21e665214610302578063c45e91d61461030b578063cd3293de1461031e57600080fd5b8063ae7e8d81146102d4578063bb2eb4d2146102e7578063bf30142b146102ef57600080fd5b806341f19a46116101455780636d9a9a621161011f5780636d9a9a62146102695780638c3f914a1461027c578063a29a0d901461028f57600080fd5b806341f19a46146102205780634657b36c1461023357806359d236e61461024657600080fd5b806333bd33b41161017657806333bd33b4146101d95780633778c2b2146101ec5780633e56993a1461020d57600080fd5b8062d16739146101915780631ae7ec2e146101a6575b600080fd5b6101a461019f3660046114a2565b61045a565b005b6040517f52414e474500000000000000000000000000000000000000000000000000000081526020015b60405180910390f35b6101a46101e73660046114ce565b6106de565b6101ff6101fa3660046114e7565b610884565b6040519081526020016101d0565b6101a461021b366004611520565b6108be565b6101a461022e366004611555565b610af9565b6101a4610241366004611577565b610cce565b6102596102543660046115b4565b610d68565b60405190151581526020016101d0565b6101a46102773660046114a2565b610d86565b6101ff61028a3660046115b4565b610feb565b6010546102af9073ffffffffffffffffffffffffffffffffffffffff1681565b60405173ffffffffffffffffffffffffffffffffffffffff90911681526020016101d0565b6101a46102e23660046114ce565b611003565b6101ff606481565b6101ff6102fd3660046115b4565b61120f565b6101ff600f5481565b6101ff6103193660046115b4565b611227565b6011546102af9073ffffffffffffffffffffffffffffffffffffffff1681565b6000546102af9073ffffffffffffffffffffffffffffffffffffffff1681565b6101ff61271081565b6101ff6103753660046115b4565b61123f565b610382611271565b60408051825180511515825260208082015165ffffffffffff9081168285015282850151848601526060808401518186015260809384015184860152828701518051151560a08701528084015190921660c08601528186015160e0860152818101516101008601529201516101208401528484015180515161014085015280820151516101608501528401516101808401529301518051516101a083015292830151516101c08201529101516101e0820152610200016101d0565b6101a461136e565b604080516001815260006020820152016101d0565b60005473ffffffffffffffffffffffffffffffffffffffff1663f166d9eb7f52414e47450000000000000000000000000000000000000000000000000000006040517fffffffff0000000000000000000000000000000000000000000000000000000060e084901b811682527fffffffffff0000000000000000000000000000000000000000000000000000009290921660048201523360248201526000359091166044820152606401602060405180830381865afa158015610521573d6000803e3d6000fd5b505050506040513d601f19601f8201168201806040525081019061054591906115d1565b610582576040517f11bf00c90000000000000000000000000000000000000000000000000000000081523360048201526024015b60405180910390fd5b6000612710600f5483610595919061161d565b61059f919061165a565b90508215610621576040805160a08101825260018082524265ffffffffffff166020830181905292820185905260608201849052600854608090920191909152600580547fffffffffffffffffffffffffffffffffffffffffffffffffff00000000000000166101009093029290921717905560068290556007819055610696565b6040805160a08101825260018082524265ffffffffffff16602083018190529282018590526060820184905260045460809092019190915280547fffffffffffffffffffffffffffffffffffffffffffffffffff00000000000000166101009092029190911781179055600282905560038190555b6040805184151581524260208201529081018390527f518b1eea6c42d5d25b8983db58076556c4eb12d0f58f403100e037bbdf629cc3906060015b60405180910390a1505050565b60005473ffffffffffffffffffffffffffffffffffffffff1663f166d9eb7f52414e47450000000000000000000000000000000000000000000000000000006040517fffffffff0000000000000000000000000000000000000000000000000000000060e084901b811682527fffffffffff0000000000000000000000000000000000000000000000000000009290921660048201523360248201526000359091166044820152606401602060405180830381865afa1580156107a5573d6000803e3d6000fd5b505050506040513d601f19601f820116820180604052508101906107c991906115d1565b610801576040517f11bf00c9000000000000000000000000000000000000000000000000000000008152336004820152602401610579565b612710811015806108125750606481105b15610849576040517fc51f44ab00000000000000000000000000000000000000000000000000000000815260040160405180910390fd5b600f8190556040518181527f66df6e0040d88b0d9e6e482ec0ef8983562d1186b0b94f9747f64f3c7e3863359060200160405180910390a150565b600082156108a457811561089b5750600c546108b8565b50600d546108b8565b81156108b357506009546108b8565b50600a545b92915050565b60005473ffffffffffffffffffffffffffffffffffffffff1663f166d9eb7f52414e47450000000000000000000000000000000000000000000000000000006040517fffffffff0000000000000000000000000000000000000000000000000000000060e084901b811682527fffffffffff0000000000000000000000000000000000000000000000000000009290921660048201523360248201526000359091166044820152606401602060405180830381865afa158015610985573d6000803e3d6000fd5b505050506040513d601f19601f820116820180604052508101906109a991906115d1565b6109e1576040517f11bf00c9000000000000000000000000000000000000000000000000000000008152336004820152602401610579565b7fffffffffffffffffffffffffffffffffffffffffffffffffffffffffffffffff82148015610a0f57508015155b15610a46576040517fc51f44ab00000000000000000000000000000000000000000000000000000000815260040160405180910390fd5b8215610a56576008829055610a5c565b60048290555b7fffffffffffffffffffffffffffffffffffffffffffffffffffffffffffffffff8203610aba576040805184151581524260208201527fc0be2d89ec6f4d478c644e7dcb37ec5372fb158563c955066b91b5650e37e32791016106d1565b6040805184151581524260208201529081018290527f6addeb12ca5495dd878280b56a2ebcc0c18eda83a3d30ea01f9c661b03209001906060016106d1565b60005473ffffffffffffffffffffffffffffffffffffffff1663f166d9eb7f52414e47450000000000000000000000000000000000000000000000000000006040517fffffffff0000000000000000000000000000000000000000000000000000000060e084901b811682527fffffffffff0000000000000000000000000000000000000000000000000000009290921660048201523360248201526000359091166044820152606401602060405180830381865afa158015610bc0573d6000803e3d6000fd5b505050506040513d601f19601f82011682018060405250810190610be491906115d1565b610c1c576040517f11bf00c9000000000000000000000000000000000000000000000000000000008152336004820152602401610579565b61271081101580610c2d5750606481105b80610c3a57506127108210155b80610c455750606482105b80610c4f57508082115b15610c86576040517fc51f44ab00000000000000000000000000000000000000000000000000000000815260040160405180910390fd5b600e819055600b82905560408051838152602081018390527ff9f6bac7789241c1f8bc37f72defbdc6b5482ec2c96cb91f7ebf917c7ef7ff9891015b60405180910390a15050565b60005473ffffffffffffffffffffffffffffffffffffffff163314610d21576040517f14fa403c000000000000000000000000000000000000000000000000000000008152336004820152602401610579565b600080547fffffffffffffffffffffffff00000000000000000000000000000000000000001673ffffffffffffffffffffffffffffffffffffffff92909216919091179055565b60008115610d7b57505060055460ff1690565b505060015460ff1690565b60005473ffffffffffffffffffffffffffffffffffffffff1663f166d9eb7f52414e47450000000000000000000000000000000000000000000000000000006040517fffffffff0000000000000000000000000000000000000000000000000000000060e084901b811682527fffffffffff0000000000000000000000000000000000000000000000000000009290921660048201523360248201526000359091166044820152606401602060405180830381865afa158015610e4d573d6000803e3d6000fd5b505050506040513d601f19601f82011682018060405250810190610e7191906115d1565b610ea9576040517f11bf00c9000000000000000000000000000000000000000000000000000000008152336004820152602401610579565b8115610f5157600681905560075481108015610ec7575060055460ff165b15610f4d57600580547fffffffffffffffffffffffffffffffffffffffffffffffffff00000000000000166101004265ffffffffffff811691909102919091179091556040805160018152602081019290925281018290527fc897c3dfa8334f335974948095373e499dbc757ce1133f2980bcfca098c736bf9060600160405180910390a15b5050565b600281905560035481108015610f69575060015460ff165b15610f4d57600180547fffffffffffffffffffffffffffffffffffffffffffffffffff00000000000000166101004265ffffffffffff811691909102919091179091556040805160008152602081019290925281018290527fc897c3dfa8334f335974948095373e499dbc757ce1133f2980bcfca098c736bf90606001610cc2565b60008115610ffb575050600e5490565b5050600b5490565b60005473ffffffffffffffffffffffffffffffffffffffff1663f166d9eb7f52414e47450000000000000000000000000000000000000000000000000000006040517fffffffff0000000000000000000000000000000000000000000000000000000060e084901b811682527fffffffffff0000000000000000000000000000000000000000000000000000009290921660048201523360248201526000359091166044820152606401602060405180830381865afa1580156110ca573d6000803e3d6000fd5b505050506040513d601f19601f820116820180604052508101906110ee91906115d1565b611126576040517f11bf00c9000000000000000000000000000000000000000000000000000000008152336004820152602401610579565b600e54600b546127106111398382611695565b611143908561161d565b61114d919061165a565b600d5561271061115d83826116ac565b611167908561161d565b611171919061165a565b600c556127106111818282611695565b61118b908561161d565b611195919061165a565b600a556127106111a582826116ac565b6111af908561161d565b6111b9919061165a565b6009819055600d54600a54600c546040517f7f3eb23042093bdf239802495c60dece3a6249a51e7d0830afa71dc7bb184da9946106d1949392909193845260208401929092526040830152606082015260800190565b6000811561121f57505060065490565b505060025490565b6000811561123757505060085490565b505060045490565b6000811561125c575050600554610100900465ffffffffffff1690565b5050600154610100900465ffffffffffff1690565b6112796113c3565b50604080516101208101825260015460ff8082161515608080850191825265ffffffffffff61010094859004811660a08088019190915260025460c088015260035460e08801526004548688015292865286519283018752600554938416151583529390920490921660208381019190915260065483860152600754606080850191909152600854848401528185019390935284518083018652600954818501908152815285518083018752600a54815281830152600b54818701528486015284519182018552600c54828401908152825284518082018652600d54815290820152600e549381019390935281019190915290565b60005473ffffffffffffffffffffffffffffffffffffffff1633146113c1576040517f14fa403c000000000000000000000000000000000000000000000000000000008152336004820152602401610579565b565b60408051610120810182526000608080830182815260a080850184905260c0850184905260e08501849052610100850184905290845284519081018552828152602080820184905281860184905260608201849052918101929092528201529081016114566040805160808101825260006060820181815282528251602080820185528282528301529181019190915290565b815260200161148c6040805160808101825260006060820181815282528251602080820185528282528301529181019190915290565b905290565b801515811461149f57600080fd5b50565b600080604083850312156114b557600080fd5b82356114c081611491565b946020939093013593505050565b6000602082840312156114e057600080fd5b5035919050565b600080604083850312156114fa57600080fd5b823561150581611491565b9150602083013561151581611491565b809150509250929050565b60008060006060848603121561153557600080fd5b833561154081611491565b95602085013595506040909401359392505050565b6000806040838503121561156857600080fd5b50508035926020909101359150565b60006020828403121561158957600080fd5b813573ffffffffffffffffffffffffffffffffffffffff811681146115ad57600080fd5b9392505050565b6000602082840312156115c657600080fd5b81356115ad81611491565b6000602082840312156115e357600080fd5b81516115ad81611491565b7f4e487b7100000000000000000000000000000000000000000000000000000000600052601160045260246000fd5b6000817fffffffffffffffffffffffffffffffffffffffffffffffffffffffffffffffff0483118215151615611655576116556115ee565b500290565b600082611690577f4e487b7100000000000000000000000000000000000000000000000000000000600052601260045260246000fd5b500490565b6000828210156116a7576116a76115ee565b500390565b600082198211156116bf576116bf6115ee565b50019056fea2646970667358221220728103d0e0db7097c20e643317ceca31aa9888645f83878b4295b6590de69cf564736f6c634300080f0033",
    "linkReferences": {}
  },
  "methodIdentifiers": {
    "INIT()": "ea643914",
    "KEYCODE()": "1ae7ec2e",
    "ONE_HUNDRED_PERCENT()": "dd0081c7",
    "ONE_PERCENT()": "bb2eb4d2",
    "VERSION()": "ffa1ad74",
    "active(bool)": "59d236e6",
    "capacity(bool)": "bf30142b",
    "changeKernel(address)": "4657b36c",
    "gdao()": "a29a0d90",
    "kernel()": "d4aae0c4",
    "lastActive(bool)": "e69f3c4e",
    "market(bool)": "c45e91d6",
    "price(bool,bool)": "3778c2b2",
    "range()": "e97206a9",
    "regenerate(bool,uint256)": "00d16739",
    "reserve()": "cd3293de",
    "setSpreads(uint256,uint256)": "41f19a46",
    "setThresholdFactor(uint256)": "33bd33b4",
    "spread(bool)": "8c3f914a",
    "thresholdFactor()": "c21e6652",
    "updateCapacity(bool,uint256)": "6d9a9a62",
    "updateMarket(bool,uint256,uint256)": "3e56993a",
    "updatePrices(uint256)": "ae7e8d81"
  },
  "id": 96
}