{
  "abi": [
    {
      "inputs": [
        {
          "internalType": "contract Kernel",
          "name": "kernel_",
          "type": "address"
        },
        {
          "internalType": "contract ERC20",
          "name": "gdao_",
          "type": "address"
        },
        {
          "internalType": "contract ERC20",
          "name": "reserve_",
          "type": "address"
        },
        {
          "internalType": "uint256",
          "name": "thresholdFactor_",
          "type": "uint256"
        },
        {
          "internalType": "uint256",
          "name": "cushionSpread_",
          "type": "uint256"
        },
        {
          "internalType": "uint256",
          "name": "wallSpread_",
          "type": "uint256"
        }
      ],
      "stateMutability": "nonpayable",
      "type": "constructor"
    },
    {
      "inputs": [
        {
          "internalType": "address",
          "name": "caller_",
          "type": "address"
        }
      ],
      "name": "KernelAdapter_OnlyKernel",
      "type": "error"
    },
    {
      "inputs": [
        {
          "internalType": "address",
          "name": "policy_",
          "type": "address"
        }
      ],
      "name": "Module_PolicyNotPermitted",
      "type": "error"
    },
    {
      "inputs": [],
      "name": "RANGE_InvalidParams",
      "type": "error"
    },
    {
      "anonymous": false,
      "inputs": [
        {
          "indexed": false,
          "internalType": "bool",
          "name": "high_",
          "type": "bool"
        },
        {
          "indexed": false,
          "internalType": "uint256",
          "name": "timestamp_",
          "type": "uint256"
        }
      ],
      "name": "CushionDown",
      "type": "event"
    },
    {
      "anonymous": false,
      "inputs": [
        {
          "indexed": false,
          "internalType": "bool",
          "name": "high_",
          "type": "bool"
        },
        {
          "indexed": false,
          "internalType": "uint256",
          "name": "timestamp_",
          "type": "uint256"
        },
        {
          "indexed": false,
          "internalType": "uint256",
          "name": "capacity_",
          "type": "uint256"
        }
      ],
      "name": "CushionUp",
      "type": "event"
    },
    {
      "anonymous": false,
      "inputs": [
        {
          "indexed": false,
          "internalType": "uint256",
          "name": "wallLowPrice_",
          "type": "uint256"
        },
        {
          "indexed": false,
          "internalType": "uint256",
          "name": "cushionLowPrice_",
          "type": "uint256"
        },
        {
          "indexed": false,
          "internalType": "uint256",
          "name": "cushionHighPrice_",
          "type": "uint256"
        },
        {
          "indexed": false,
          "internalType": "uint256",
          "name": "wallHighPrice_",
          "type": "uint256"
        }
      ],
      "name": "PricesChanged",
      "type": "event"
    },
    {
      "anonymous": false,
      "inputs": [
        {
          "indexed": false,
          "internalType": "uint256",
          "name": "cushionSpread_",
          "type": "uint256"
        },
        {
          "indexed": false,
          "internalType": "uint256",
          "name": "wallSpread_",
          "type": "uint256"
        }
      ],
      "name": "SpreadsChanged",
      "type": "event"
    },
    {
      "anonymous": false,
      "inputs": [
        {
          "indexed": false,
          "internalType": "uint256",
          "name": "thresholdFactor_",
          "type": "uint256"
        }
      ],
      "name": "ThresholdFactorChanged",
      "type": "event"
    },
    {
      "anonymous": false,
      "inputs": [
        {
          "indexed": false,
          "internalType": "bool",
          "name": "high_",
          "type": "bool"
        },
        {
          "indexed": false,
          "internalType": "uint256",
          "name": "timestamp_",
          "type": "uint256"
        },
        {
          "indexed": false,
          "internalType": "uint256",
          "name": "capacity_",
          "type": "uint256"
        }
      ],
      "name": "WallDown",
      "type": "event"
    },
    {
      "anonymous": false,
      "inputs": [
        {
          "indexed": false,
          "internalType": "bool",
          "name": "high_",
          "type": "bool"
        },
        {
          "indexed": false,
          "internalType": "uint256",
          "name": "timestamp_",
          "type": "uint256"
        },
        {
          "indexed": false,
          "internalType": "uint256",
          "name": "capacity_",
          "type": "uint256"
        }
      ],
      "name": "WallUp",
      "type": "event"
    },
    {
      "inputs": [],
      "name": "INIT",
      "outputs": [],
      "stateMutability": "nonpayable",
      "type": "function"
    },
    {
      "inputs": [],
      "name": "KEYCODE",
      "outputs": [
        {
          "internalType": "Keycode",
          "name": "",
          "type": "bytes5"
        }
      ],
      "stateMutability": "pure",
      "type": "function"
    },
    {
      "inputs": [],
      "name": "ONE_HUNDRED_PERCENT",
      "outputs": [
        {
          "internalType": "uint256",
          "name": "",
          "type": "uint256"
        }
      ],
      "stateMutability": "view",
      "type": "function"
    },
    {
      "inputs": [],
      "name": "ONE_PERCENT",
      "outputs": [
        {
          "internalType": "uint256",
          "name": "",
          "type": "uint256"
        }
      ],
      "stateMutability": "view",
      "type": "function"
    },
    {
      "inputs": [],
      "name": "VERSION",
      "outputs": [
        {
          "internalType": "uint8",
          "name": "major",
          "type": "uint8"
        },
        {
          "internalType": "uint8",
          "name": "minor",
          "type": "uint8"
        }
      ],
      "stateMutability": "pure",
      "type": "function"
    },
    {
      "inputs": [
        {
          "internalType": "bool",
          "name": "high_",
          "type": "bool"
        }
      ],
      "name": "active",
      "outputs": [
        {
          "internalType": "bool",
          "name": "",
          "type": "bool"
        }
      ],
      "stateMutability": "view",
      "type": "function"
    },
    {
      "inputs": [
        {
          "internalType": "bool",
          "name": "high_",
          "type": "bool"
        }
      ],
      "name": "capacity",
      "outputs": [
        {
          "internalType": "uint256",
          "name": "",
          "type": "uint256"
        }
      ],
      "stateMutability": "view",
      "type": "function"
    },
    {
      "inputs": [
        {
          "internalType": "contract Kernel",
          "name": "newKernel_",
          "type": "address"
        }
      ],
      "name": "changeKernel",
      "outputs": [],
      "stateMutability": "nonpayable",
      "type": "function"
    },
    {
      "inputs": [],
      "name": "gdao",
      "outputs": [
        {
          "internalType": "contract ERC20",
          "name": "",
          "type": "address"
        }
      ],
      "stateMutability": "view",
      "type": "function"
    },
    {
      "inputs": [],
      "name": "kernel",
      "outputs": [
        {
          "internalType": "contract Kernel",
          "name": "",
          "type": "address"
        }
      ],
      "stateMutability": "view",
      "type": "function"
    },
    {
      "inputs": [
        {
          "internalType": "bool",
          "name": "high_",
          "type": "bool"
        }
      ],
      "name": "lastActive",
      "outputs": [
        {
          "internalType": "uint256",
          "name": "",
          "type": "uint256"
        }
      ],
      "stateMutability": "view",
      "type": "function"
    },
    {
      "inputs": [
        {
          "internalType": "bool",
          "name": "high_",
          "type": "bool"
        }
      ],
      "name": "market",
      "outputs": [
        {
          "internalType": "uint256",
          "name": "",
          "type": "uint256"
        }
      ],
      "stateMutability": "view",
      "type": "function"
    },
    {
      "inputs": [
        {
          "internalType": "bool",
          "name": "wall_",
          "type": "bool"
        },
        {
          "internalType": "bool",
          "name": "high_",
          "type": "bool"
        }
      ],
      "name": "price",
      "outputs": [
        {
          "internalType": "uint256",
          "name": "",
          "type": "uint256"
        }
      ],
      "stateMutability": "view",
      "type": "function"
    },
    {
      "inputs": [],
      "name": "range",
      "outputs": [
        {
          "components": [
            {
              "components": [
                {
                  "internalType": "bool",
                  "name": "active",
                  "type": "bool"
                },
                {
                  "internalType": "uint48",
                  "name": "lastActive",
                  "type": "uint48"
                },
                {
                  "internalType": "uint256",
                  "name": "capacity",
                  "type": "uint256"
                },
                {
                  "internalType": "uint256",
                  "name": "threshold",
                  "type": "uint256"
                },
                {
                  "internalType": "uint256",
                  "name": "market",
                  "type": "uint256"
                }
              ],
              "internalType": "struct RANGEv1.Side",
              "name": "low",
              "type": "tuple"
            },
            {
              "components": [
                {
                  "internalType": "bool",
                  "name": "active",
                  "type": "bool"
                },
                {
                  "internalType": "uint48",
                  "name": "lastActive",
                  "type": "uint48"
                },
                {
                  "internalType": "uint256",
                  "name": "capacity",
                  "type": "uint256"
                },
                {
                  "internalType": "uint256",
                  "name": "threshold",
                  "type": "uint256"
                },
                {
                  "internalType": "uint256",
                  "name": "market",
                  "type": "uint256"
                }
              ],
              "internalType": "struct RANGEv1.Side",
              "name": "high",
              "type": "tuple"
            },
            {
              "components": [
                {
                  "components": [
                    {
                      "internalType": "uint256",
                      "name": "price",
                      "type": "uint256"
                    }
                  ],
                  "internalType": "struct RANGEv1.Line",
                  "name": "high",
                  "type": "tuple"
                },
                {
                  "components": [
                    {
                      "internalType": "uint256",
                      "name": "price",
                      "type": "uint256"
                    }
                  ],
                  "internalType": "struct RANGEv1.Line",
                  "name": "low",
                  "type": "tuple"
                },
                {
                  "internalType": "uint256",
                  "name": "spread",
                  "type": "uint256"
                }
              ],
              "internalType": "struct RANGEv1.Band",
              "name": "cushion",
              "type": "tuple"
            },
            {
              "components": [
                {
                  "components": [
                    {
                      "internalType": "uint256",
                      "name": "price",
                      "type": "uint256"
                    }
                  ],
                  "internalType": "struct RANGEv1.Line",
                  "name": "high",
                  "type": "tuple"
                },
                {
                  "components": [
                    {
                      "internalType": "uint256",
                      "name": "price",
                      "type": "uint256"
                    }
                  ],
                  "internalType": "struct RANGEv1.Line",
                  "name": "low",
                  "type": "tuple"
                },
                {
                  "internalType": "uint256",
                  "name": "spread",
                  "type": "uint256"
                }
              ],
              "internalType": "struct RANGEv1.Band",
              "name": "wall",
              "type": "tuple"
            }
          ],
          "internalType": "struct RANGEv1.Range",
          "name": "",
          "type": "tuple"
        }
      ],
      "stateMutability": "view",
      "type": "function"
    },
    {
      "inputs": [
        {
          "internalType": "bool",
          "name": "high_",
          "type": "bool"
        },
        {
          "internalType": "uint256",
          "name": "capacity_",
          "type": "uint256"
        }
      ],
      "name": "regenerate",
      "outputs": [],
      "stateMutability": "nonpayable",
      "type": "function"
    },
    {
      "inputs": [],
      "name": "reserve",
      "outputs": [
        {
          "internalType": "contract ERC20",
          "name": "",
          "type": "address"
        }
      ],
      "stateMutability": "view",
      "type": "function"
    },
    {
      "inputs": [
        {
          "internalType": "uint256",
          "name": "cushionSpread_",
          "type": "uint256"
        },
        {
          "internalType": "uint256",
          "name": "wallSpread_",
          "type": "uint256"
        }
      ],
      "name": "setSpreads",
      "outputs": [],
      "stateMutability": "nonpayable",
      "type": "function"
    },
    {
      "inputs": [
        {
          "internalType": "uint256",
          "name": "thresholdFactor_",
          "type": "uint256"
        }
      ],
      "name": "setThresholdFactor",
      "outputs": [],
      "stateMutability": "nonpayable",
      "type": "function"
    },
    {
      "inputs": [
        {
          "internalType": "bool",
          "name": "wall_",
          "type": "bool"
        }
      ],
      "name": "spread",
      "outputs": [
        {
          "internalType": "uint256",
          "name": "",
          "type": "uint256"
        }
      ],
      "stateMutability": "view",
      "type": "function"
    },
    {
      "inputs": [],
      "name": "thresholdFactor",
      "outputs": [
        {
          "internalType": "uint256",
          "name": "",
          "type": "uint256"
        }
      ],
      "stateMutability": "view",
      "type": "function"
    },
    {
      "inputs": [
        {
          "internalType": "bool",
          "name": "high_",
          "type": "bool"
        },
        {
          "internalType": "uint256",
          "name": "capacity_",
          "type": "uint256"
        }
      ],
      "name": "updateCapacity",
      "outputs": [],
      "stateMutability": "nonpayable",
      "type": "function"
    },
    {
      "inputs": [
        {
          "internalType": "bool",
          "name": "high_",
          "type": "bool"
        },
        {
          "internalType": "uint256",
          "name": "market_",
          "type": "uint256"
        },
        {
          "internalType": "uint256",
          "name": "marketCapacity_",
          "type": "uint256"
        }
      ],
      "name": "updateMarket",
      "outputs": [],
      "stateMutability": "nonpayable",
      "type": "function"
    },
    {
      "inputs": [
        {
          "internalType": "uint256",
          "name": "movingAverage_",
          "type": "uint256"
        }
      ],
      "name": "updatePrices",
      "outputs": [],
      "stateMutability": "nonpayable",
      "type": "function"
    }
  ],
  "bytecode": {
    "object": "0x60806040523480156200001157600080fd5b5060405162001521380380620015218339810160408190526200003491620002f9565b600080546001600160a01b0319166001600160a01b03881617905561271081101580620000615750606481105b806200006f57506127108210155b806200007b5750606482105b806200008657508082115b806200009457506127108310155b80620000a05750606483105b15620000bf5760405163c51f44ab60e01b815260040160405180910390fd5b60408051610120810182526000608080830182815265ffffffffffff42811660a080870182905260c0870186905260e087018690526000196101008089018290529488528851918201895286825260208281019390935281890187905260608083018890528287019190915282880191825288518087018a52808201888152815289518085018b5288815281850152808a018c9052888a0190815289518088018b5280830189815281528a518086018c52988952808501988952808b018c8152838b018290529951805160018054838901518a168b0266ffffffffffff0019931515841666ffffffffffffff199283161717909155828e015160025582860151600355918a01516004559451805160058054838a0151909a16909a0290151590961697909116969096179390931790955583890151600655830151600755919093015160085590518051516009559182015151600a5590840151600b555151600c555151600d5551600e55600f849055601080546001600160a01b038089166001600160a01b0319928316179092556011805492881692909116919091179055517ff9f6bac7789241c1f8bc37f72defbdc6b5482ec2c96cb91f7ebf917c7ef7ff9890620002999084908490918252602082015260400190565b60405180910390a16040518381527f66df6e0040d88b0d9e6e482ec0ef8983562d1186b0b94f9747f64f3c7e3863359060200160405180910390a150505050505062000369565b6001600160a01b0381168114620002f657600080fd5b50565b60008060008060008060c087890312156200031357600080fd5b86516200032081620002e0565b60208801519096506200033381620002e0565b60408801519095506200034681620002e0565b80945050606087015192506080870151915060a087015190509295509295509295565b6111a880620003796000396000f3fe608060405234801561001057600080fd5b506004361061011c5760003560e01c8062d16739146101215780631ae7ec2e1461013657806333bd33b41461015c5780633778c2b21461016f5780633e56993a1461019057806341f19a46146101a35780634657b36c146101b657806359d236e6146101c95780636d9a9a62146101ec5780638c3f914a146101ff578063a29a0d9014610212578063ae7e8d8114610232578063bb2eb4d214610245578063bf30142b1461024d578063c21e665214610260578063c45e91d614610269578063cd3293de1461027c578063d4aae0c41461028f578063dd0081c7146102a2578063e69f3c4e146102ab578063e97206a9146102be578063ea643914146102d3578063ffa1ad74146102db575b600080fd5b61013461012f366004610e82565b6102f0565b005b61013e6104c2565b6040516001600160d81b031990911681526020015b60405180910390f35b61013461016a366004610eae565b6104ce565b61018261017d366004610ec7565b6105dd565b604051908152602001610153565b61013461019e366004610f00565b610617565b6101346101b1366004610f35565b610773565b6101346101c4366004610f57565b6108b1565b6101dc6101d7366004610f87565b610900565b6040519015158152602001610153565b6101346101fa366004610e82565b61091e565b61018261020d366004610f87565b610a97565b601054610225906001600160a01b031681565b6040516101539190610fa4565b610134610240366004610eae565b610aaf565b610182606481565b61018261025b366004610f87565b610c3d565b610182600f5481565b610182610277366004610f87565b610c55565b601154610225906001600160a01b031681565b600054610225906001600160a01b031681565b61018261271081565b6101826102b9366004610f87565b610c6d565b6102c6610c9f565b604051610153919061100d565b610134610d9c565b60408051600181526000602082015201610153565b6000546001600160a01b031663f166d9eb6103096104c2565b336000356001600160e01b0319166040518463ffffffff1660e01b815260040161033593929190611062565b602060405180830381865afa158015610352573d6000803e3d6000fd5b505050506040513d601f19601f820116820180604052508101906103769190611097565b61039e57336040516311bf00c960e01b81526004016103959190610fa4565b60405180910390fd5b6000612710600f54836103b191906110ca565b6103bb91906110e9565b90508215610425576040805160a08101825260018082524265ffffffffffff1660208301819052928201859052606082018490526008546080909201919091526005805466ffffffffffffff19166101009093029290921717905560068290556007819055610482565b6040805160a08101825260018082524265ffffffffffff166020830181905292820185905260608201849052600454608090920191909152805466ffffffffffffff19166101009092029190911781179055600282905560038190555b7f518b1eea6c42d5d25b8983db58076556c4eb12d0f58f403100e037bbdf629cc38342846040516104b59392919061110b565b60405180910390a1505050565b6452414e474560d81b90565b6000546001600160a01b031663f166d9eb6104e76104c2565b336000356001600160e01b0319166040518463ffffffff1660e01b815260040161051393929190611062565b602060405180830381865afa158015610530573d6000803e3d6000fd5b505050506040513d601f19601f820116820180604052508101906105549190611097565b61057357336040516311bf00c960e01b81526004016103959190610fa4565b612710811015806105845750606481105b156105a25760405163c51f44ab60e01b815260040160405180910390fd5b600f8190556040518181527f66df6e0040d88b0d9e6e482ec0ef8983562d1186b0b94f9747f64f3c7e3863359060200160405180910390a150565b600082156105fd5781156105f45750600c54610611565b50600d54610611565b811561060c5750600954610611565b50600a545b92915050565b6000546001600160a01b031663f166d9eb6106306104c2565b336000356001600160e01b0319166040518463ffffffff1660e01b815260040161065c93929190611062565b602060405180830381865afa158015610679573d6000803e3d6000fd5b505050506040513d601f19601f8201168201806040525081019061069d9190611097565b6106bc57336040516311bf00c960e01b81526004016103959190610fa4565b600019821480156106cc57508015155b156106ea5760405163c51f44ab60e01b815260040160405180910390fd5b82156106fa576008829055610700565b60048290555b6000198203610740576040805184151581524260208201527fc0be2d89ec6f4d478c644e7dcb37ec5372fb158563c955066b91b5650e37e32791016104b5565b7f6addeb12ca5495dd878280b56a2ebcc0c18eda83a3d30ea01f9c661b032090018342836040516104b59392919061110b565b6000546001600160a01b031663f166d9eb61078c6104c2565b336000356001600160e01b0319166040518463ffffffff1660e01b81526004016107b893929190611062565b602060405180830381865afa1580156107d5573d6000803e3d6000fd5b505050506040513d601f19601f820116820180604052508101906107f99190611097565b61081857336040516311bf00c960e01b81526004016103959190610fa4565b612710811015806108295750606481105b8061083657506127108210155b806108415750606482105b8061084b57508082115b156108695760405163c51f44ab60e01b815260040160405180910390fd5b600e819055600b82905560408051838152602081018390527ff9f6bac7789241c1f8bc37f72defbdc6b5482ec2c96cb91f7ebf917c7ef7ff9891015b60405180910390a15050565b6000546001600160a01b031633146108de573360405163053e900f60e21b81526004016103959190610fa4565b600080546001600160a01b0319166001600160a01b0392909216919091179055565b6000811561091357505060055460ff1690565b505060015460ff1690565b6000546001600160a01b031663f166d9eb6109376104c2565b336000356001600160e01b0319166040518463ffffffff1660e01b815260040161096393929190611062565b602060405180830381865afa158015610980573d6000803e3d6000fd5b505050506040513d601f19601f820116820180604052508101906109a49190611097565b6109c357336040516311bf00c960e01b81526004016103959190610fa4565b8115610a32576006819055600754811080156109e1575060055460ff165b15610a2e576005805465ffffffffffff429081166101000266ffffffffffffff1990921691909117909155604051600080516020611153833981519152916108a59160019190859061110b565b5050565b600281905560035481108015610a4a575060015460ff165b15610a2e576001805465ffffffffffff429081166101000266ffffffffffffff1990921691909117909155604051600080516020611153833981519152916108a59160009190859061110b565b60008115610aa7575050600e5490565b5050600b5490565b6000546001600160a01b031663f166d9eb610ac86104c2565b336000356001600160e01b0319166040518463ffffffff1660e01b8152600401610af493929190611062565b602060405180830381865afa158015610b11573d6000803e3d6000fd5b505050506040513d601f19601f82011682018060405250810190610b359190611097565b610b5457336040516311bf00c960e01b81526004016103959190610fa4565b600e54600b54612710610b678382611123565b610b7190856110ca565b610b7b91906110e9565b600d55612710610b8b838261113a565b610b9590856110ca565b610b9f91906110e9565b600c55612710610baf8282611123565b610bb990856110ca565b610bc391906110e9565b600a55612710610bd3828261113a565b610bdd90856110ca565b610be791906110e9565b6009819055600d54600a54600c546040517f7f3eb23042093bdf239802495c60dece3a6249a51e7d0830afa71dc7bb184da9946104b5949392909193845260208401929092526040830152606082015260800190565b60008115610c4d57505060065490565b505060025490565b60008115610c6557505060085490565b505060045490565b60008115610c8a575050600554610100900465ffffffffffff1690565b5050600154610100900465ffffffffffff1690565b610ca7610dcb565b50604080516101208101825260015460ff8082161515608080850191825265ffffffffffff61010094859004811660a08088019190915260025460c088015260035460e08801526004548688015292865286519283018752600554938416151583529390920490921660208381019190915260065483860152600754606080850191909152600854848401528185019390935284518083018652600954818501908152815285518083018752600a54815281830152600b54818701528486015284519182018552600c54828401908152825284518082018652600d54815290820152600e549381019390935281019190915290565b6000546001600160a01b03163314610dc9573360405163053e900f60e21b81526004016103959190610fa4565b565b6040518060800160405280610dde610e0a565b8152602001610deb610e0a565b8152602001610df8610e43565b8152602001610e05610e43565b905290565b6040518060a00160405280600015158152602001600065ffffffffffff1681526020016000815260200160008152602001600081525090565b6040805160808101825260006060820181815282528251602080820185528282528301529181019190915290565b8015158114610e7f57600080fd5b50565b60008060408385031215610e9557600080fd5b8235610ea081610e71565b946020939093013593505050565b600060208284031215610ec057600080fd5b5035919050565b60008060408385031215610eda57600080fd5b8235610ee581610e71565b91506020830135610ef581610e71565b809150509250929050565b600080600060608486031215610f1557600080fd5b8335610f2081610e71565b95602085013595506040909401359392505050565b60008060408385031215610f4857600080fd5b50508035926020909101359150565b600060208284031215610f6957600080fd5b81356001600160a01b0381168114610f8057600080fd5b9392505050565b600060208284031215610f9957600080fd5b8135610f8081610e71565b6001600160a01b0391909116815260200190565b80511515825265ffffffffffff60208201511660208301526040810151604083015260608101516060830152608081015160808301525050565b80515182526020808201515190830152604090810151910152565b600061020082019050611021828451610fb8565b602083015161103360a0840182610fb8565b506040830151611047610140840182610ff2565b50606083015161105b6101a0840182610ff2565b5092915050565b6001600160d81b03199390931683526001600160a01b039190911660208301526001600160e01b031916604082015260600190565b6000602082840312156110a957600080fd5b8151610f8081610e71565b634e487b7160e01b600052601160045260246000fd5b60008160001904831182151516156110e4576110e46110b4565b500290565b60008261110657634e487b7160e01b600052601260045260246000fd5b500490565b92151583526020830191909152604082015260600190565b600082821015611135576111356110b4565b500390565b6000821982111561114d5761114d6110b4565b50019056fec897c3dfa8334f335974948095373e499dbc757ce1133f2980bcfca098c736bfa26469706673582212205203dfa9687b300b916427ead092d7a33a2246e47e0d1729762f3bbcba7d71a064736f6c634300080f0033",
    "linkReferences": {}
  },
  "methodIdentifiers": {
    "INIT()": "ea643914",
    "KEYCODE()": "1ae7ec2e",
    "ONE_HUNDRED_PERCENT()": "dd0081c7",
    "ONE_PERCENT()": "bb2eb4d2",
    "VERSION()": "ffa1ad74",
    "active(bool)": "59d236e6",
    "capacity(bool)": "bf30142b",
    "changeKernel(address)": "4657b36c",
    "gdao()": "a29a0d90",
    "kernel()": "d4aae0c4",
    "lastActive(bool)": "e69f3c4e",
    "market(bool)": "c45e91d6",
    "price(bool,bool)": "3778c2b2",
    "range()": "e97206a9",
    "regenerate(bool,uint256)": "00d16739",
    "reserve()": "cd3293de",
    "setSpreads(uint256,uint256)": "41f19a46",
    "setThresholdFactor(uint256)": "33bd33b4",
    "spread(bool)": "8c3f914a",
    "thresholdFactor()": "c21e6652",
    "updateCapacity(bool,uint256)": "6d9a9a62",
    "updateMarket(bool,uint256,uint256)": "3e56993a",
    "updatePrices(uint256)": "ae7e8d81"
  },
  "id": 97
}