{
  "abi": [
    {
      "inputs": [
        {
          "internalType": "contract Kernel",
          "name": "kernel_",
          "type": "address"
        },
        {
          "internalType": "contract IBondSDA",
          "name": "auctioneer_",
          "type": "address"
        },
        {
          "internalType": "contract IBondCallback",
          "name": "callback_",
          "type": "address"
        },
        {
          "internalType": "contract ERC20[2]",
          "name": "tokens_",
          "type": "address[2]"
        },
        {
          "internalType": "uint32[8]",
          "name": "configParams",
          "type": "uint32[8]"
        }
      ],
      "stateMutability": "nonpayable",
      "type": "constructor"
    },
    {
      "inputs": [
        {
          "internalType": "address",
          "name": "caller_",
          "type": "address"
        }
      ],
      "name": "KernelAdapter_OnlyKernel",
      "type": "error"
    },
    {
      "inputs": [],
      "name": "Operator_AlreadyInitialized",
      "type": "error"
    },
    {
      "inputs": [
        {
          "internalType": "uint256",
          "name": "amountOut",
          "type": "uint256"
        },
        {
          "internalType": "uint256",
          "name": "minAmountOut",
          "type": "uint256"
        }
      ],
      "name": "Operator_AmountLessThanMinimum",
      "type": "error"
    },
    {
      "inputs": [],
      "name": "Operator_Inactive",
      "type": "error"
    },
    {
      "inputs": [],
      "name": "Operator_InsufficientCapacity",
      "type": "error"
    },
    {
      "inputs": [],
      "name": "Operator_InvalidParams",
      "type": "error"
    },
    {
      "inputs": [],
      "name": "Operator_NotInitialized",
      "type": "error"
    },
    {
      "inputs": [],
      "name": "Operator_WallDown",
      "type": "error"
    },
    {
      "inputs": [
        {
          "internalType": "Keycode",
          "name": "keycode_",
          "type": "bytes5"
        }
      ],
      "name": "Policy_ModuleDoesNotExist",
      "type": "error"
    },
    {
      "anonymous": false,
      "inputs": [
        {
          "indexed": false,
          "internalType": "uint32",
          "name": "cushionFactor_",
          "type": "uint32"
        }
      ],
      "name": "CushionFactorChanged",
      "type": "event"
    },
    {
      "anonymous": false,
      "inputs": [
        {
          "indexed": false,
          "internalType": "uint32",
          "name": "duration_",
          "type": "uint32"
        },
        {
          "indexed": false,
          "internalType": "uint32",
          "name": "debtBuffer_",
          "type": "uint32"
        },
        {
          "indexed": false,
          "internalType": "uint32",
          "name": "depositInterval_",
          "type": "uint32"
        }
      ],
      "name": "CushionParamsChanged",
      "type": "event"
    },
    {
      "anonymous": false,
      "inputs": [
        {
          "indexed": false,
          "internalType": "uint32",
          "name": "wait_",
          "type": "uint32"
        },
        {
          "indexed": false,
          "internalType": "uint32",
          "name": "threshold_",
          "type": "uint32"
        },
        {
          "indexed": false,
          "internalType": "uint32",
          "name": "observe_",
          "type": "uint32"
        }
      ],
      "name": "RegenParamsChanged",
      "type": "event"
    },
    {
      "anonymous": false,
      "inputs": [
        {
          "indexed": false,
          "internalType": "uint32",
          "name": "reserveFactor_",
          "type": "uint32"
        }
      ],
      "name": "ReserveFactorChanged",
      "type": "event"
    },
    {
      "anonymous": false,
      "inputs": [
        {
          "indexed": true,
          "internalType": "contract ERC20",
          "name": "tokenIn_",
          "type": "address"
        },
        {
          "indexed": true,
          "internalType": "contract ERC20",
          "name": "tokenOut_",
          "type": "address"
        },
        {
          "indexed": false,
          "internalType": "uint256",
          "name": "amountIn_",
          "type": "uint256"
        },
        {
          "indexed": false,
          "internalType": "uint256",
          "name": "amountOut_",
          "type": "uint256"
        }
      ],
      "name": "Swap",
      "type": "event"
    },
    {
      "inputs": [],
      "name": "ONE_HUNDRED_PERCENT",
      "outputs": [
        {
          "internalType": "uint32",
          "name": "",
          "type": "uint32"
        }
      ],
      "stateMutability": "view",
      "type": "function"
    },
    {
      "inputs": [],
      "name": "ONE_PERCENT",
      "outputs": [
        {
          "internalType": "uint32",
          "name": "",
          "type": "uint32"
        }
      ],
      "stateMutability": "view",
      "type": "function"
    },
    {
      "inputs": [],
      "name": "ROLES",
      "outputs": [
        {
          "internalType": "contract ROLESv1",
          "name": "",
          "type": "address"
        }
      ],
      "stateMutability": "view",
      "type": "function"
    },
    {
      "inputs": [],
      "name": "activate",
      "outputs": [],
      "stateMutability": "nonpayable",
      "type": "function"
    },
    {
      "inputs": [],
      "name": "active",
      "outputs": [
        {
          "internalType": "bool",
          "name": "",
          "type": "bool"
        }
      ],
      "stateMutability": "view",
      "type": "function"
    },
    {
      "inputs": [],
      "name": "auctioneer",
      "outputs": [
        {
          "internalType": "contract IBondSDA",
          "name": "",
          "type": "address"
        }
      ],
      "stateMutability": "view",
      "type": "function"
    },
    {
      "inputs": [
        {
          "internalType": "uint256",
          "name": "id_",
          "type": "uint256"
        },
        {
          "internalType": "uint256",
          "name": "amountOut_",
          "type": "uint256"
        }
      ],
      "name": "bondPurchase",
      "outputs": [],
      "stateMutability": "nonpayable",
      "type": "function"
    },
    {
      "inputs": [],
      "name": "callback",
      "outputs": [
        {
          "internalType": "contract IBondCallback",
          "name": "",
          "type": "address"
        }
      ],
      "stateMutability": "view",
      "type": "function"
    },
    {
      "inputs": [
        {
          "internalType": "contract Kernel",
          "name": "newKernel_",
          "type": "address"
        }
      ],
      "name": "changeKernel",
      "outputs": [],
      "stateMutability": "nonpayable",
      "type": "function"
    },
    {
      "inputs": [],
      "name": "config",
      "outputs": [
        {
          "components": [
            {
              "internalType": "uint32",
              "name": "cushionFactor",
              "type": "uint32"
            },
            {
              "internalType": "uint32",
              "name": "cushionDuration",
              "type": "uint32"
            },
            {
              "internalType": "uint32",
              "name": "cushionDebtBuffer",
              "type": "uint32"
            },
            {
              "internalType": "uint32",
              "name": "cushionDepositInterval",
              "type": "uint32"
            },
            {
              "internalType": "uint32",
              "name": "reserveFactor",
              "type": "uint32"
            },
            {
              "internalType": "uint32",
              "name": "regenWait",
              "type": "uint32"
            },
            {
              "internalType": "uint32",
              "name": "regenThreshold",
              "type": "uint32"
            },
            {
              "internalType": "uint32",
              "name": "regenObserve",
              "type": "uint32"
            }
          ],
          "internalType": "struct IOperator.Config",
          "name": "",
          "type": "tuple"
        }
      ],
      "stateMutability": "view",
      "type": "function"
    },
    {
      "inputs": [],
      "name": "configureDependencies",
      "outputs": [
        {
          "internalType": "Keycode[]",
          "name": "dependencies",
          "type": "bytes5[]"
        }
      ],
      "stateMutability": "nonpayable",
      "type": "function"
    },
    {
      "inputs": [],
      "name": "deactivate",
      "outputs": [],
      "stateMutability": "nonpayable",
      "type": "function"
    },
    {
      "inputs": [
        {
          "internalType": "bool",
          "name": "high_",
          "type": "bool"
        }
      ],
      "name": "deactivateCushion",
      "outputs": [],
      "stateMutability": "nonpayable",
      "type": "function"
    },
    {
      "inputs": [
        {
          "internalType": "bool",
          "name": "high_",
          "type": "bool"
        }
      ],
      "name": "fullCapacity",
      "outputs": [
        {
          "internalType": "uint256",
          "name": "",
          "type": "uint256"
        }
      ],
      "stateMutability": "view",
      "type": "function"
    },
    {
      "inputs": [],
      "name": "gdao",
      "outputs": [
        {
          "internalType": "contract ERC20",
          "name": "",
          "type": "address"
        }
      ],
      "stateMutability": "view",
      "type": "function"
    },
    {
      "inputs": [],
      "name": "gdaoDecimals",
      "outputs": [
        {
          "internalType": "uint8",
          "name": "",
          "type": "uint8"
        }
      ],
      "stateMutability": "view",
      "type": "function"
    },
    {
      "inputs": [
        {
          "internalType": "contract ERC20",
          "name": "tokenIn_",
          "type": "address"
        },
        {
          "internalType": "uint256",
          "name": "amountIn_",
          "type": "uint256"
        }
      ],
      "name": "getAmountOut",
      "outputs": [
        {
          "internalType": "uint256",
          "name": "",
          "type": "uint256"
        }
      ],
      "stateMutability": "view",
      "type": "function"
    },
    {
      "inputs": [],
      "name": "initialize",
      "outputs": [],
      "stateMutability": "nonpayable",
      "type": "function"
    },
    {
      "inputs": [],
      "name": "initialized",
      "outputs": [
        {
          "internalType": "bool",
          "name": "",
          "type": "bool"
        }
      ],
      "stateMutability": "view",
      "type": "function"
    },
    {
      "inputs": [],
      "name": "isActive",
      "outputs": [
        {
          "internalType": "bool",
          "name": "",
          "type": "bool"
        }
      ],
      "stateMutability": "view",
      "type": "function"
    },
    {
      "inputs": [],
      "name": "kernel",
      "outputs": [
        {
          "internalType": "contract Kernel",
          "name": "",
          "type": "address"
        }
      ],
      "stateMutability": "view",
      "type": "function"
    },
    {
      "inputs": [],
      "name": "operate",
      "outputs": [],
      "stateMutability": "nonpayable",
      "type": "function"
    },
    {
      "inputs": [
        {
          "internalType": "bool",
          "name": "high_",
          "type": "bool"
        }
      ],
      "name": "regenerate",
      "outputs": [],
      "stateMutability": "nonpayable",
      "type": "function"
    },
    {
      "inputs": [],
      "name": "requestPermissions",
      "outputs": [
        {
          "components": [
            {
              "internalType": "Keycode",
              "name": "keycode",
              "type": "bytes5"
            },
            {
              "internalType": "bytes4",
              "name": "funcSelector",
              "type": "bytes4"
            }
          ],
          "internalType": "struct Permissions[]",
          "name": "requests",
          "type": "tuple[]"
        }
      ],
      "stateMutability": "view",
      "type": "function"
    },
    {
      "inputs": [],
      "name": "reserve",
      "outputs": [
        {
          "internalType": "contract ERC20",
          "name": "",
          "type": "address"
        }
      ],
      "stateMutability": "view",
      "type": "function"
    },
    {
      "inputs": [],
      "name": "reserveDecimals",
      "outputs": [
        {
          "internalType": "uint8",
          "name": "",
          "type": "uint8"
        }
      ],
      "stateMutability": "view",
      "type": "function"
    },
    {
      "inputs": [
        {
          "internalType": "contract IBondSDA",
          "name": "auctioneer_",
          "type": "address"
        },
        {
          "internalType": "contract IBondCallback",
          "name": "callback_",
          "type": "address"
        }
      ],
      "name": "setBondContracts",
      "outputs": [],
      "stateMutability": "nonpayable",
      "type": "function"
    },
    {
      "inputs": [
        {
          "internalType": "uint32",
          "name": "cushionFactor_",
          "type": "uint32"
        }
      ],
      "name": "setCushionFactor",
      "outputs": [],
      "stateMutability": "nonpayable",
      "type": "function"
    },
    {
      "inputs": [
        {
          "internalType": "uint32",
          "name": "duration_",
          "type": "uint32"
        },
        {
          "internalType": "uint32",
          "name": "debtBuffer_",
          "type": "uint32"
        },
        {
          "internalType": "uint32",
          "name": "depositInterval_",
          "type": "uint32"
        }
      ],
      "name": "setCushionParams",
      "outputs": [],
      "stateMutability": "nonpayable",
      "type": "function"
    },
    {
      "inputs": [
        {
          "internalType": "uint32",
          "name": "wait_",
          "type": "uint32"
        },
        {
          "internalType": "uint32",
          "name": "threshold_",
          "type": "uint32"
        },
        {
          "internalType": "uint32",
          "name": "observe_",
          "type": "uint32"
        }
      ],
      "name": "setRegenParams",
      "outputs": [],
      "stateMutability": "nonpayable",
      "type": "function"
    },
    {
      "inputs": [
        {
          "internalType": "uint32",
          "name": "reserveFactor_",
          "type": "uint32"
        }
      ],
      "name": "setReserveFactor",
      "outputs": [],
      "stateMutability": "nonpayable",
      "type": "function"
    },
    {
      "inputs": [
        {
          "internalType": "uint256",
          "name": "cushionSpread_",
          "type": "uint256"
        },
        {
          "internalType": "uint256",
          "name": "wallSpread_",
          "type": "uint256"
        }
      ],
      "name": "setSpreads",
      "outputs": [],
      "stateMutability": "nonpayable",
      "type": "function"
    },
    {
      "inputs": [
        {
          "internalType": "uint256",
          "name": "thresholdFactor_",
          "type": "uint256"
        }
      ],
      "name": "setThresholdFactor",
      "outputs": [],
      "stateMutability": "nonpayable",
      "type": "function"
    },
    {
      "inputs": [],
      "name": "status",
      "outputs": [
        {
          "components": [
            {
              "components": [
                {
                  "internalType": "uint32",
                  "name": "count",
                  "type": "uint32"
                },
                {
                  "internalType": "uint48",
                  "name": "lastRegen",
                  "type": "uint48"
                },
                {
                  "internalType": "uint32",
                  "name": "nextObservation",
                  "type": "uint32"
                },
                {
                  "internalType": "bool[]",
                  "name": "observations",
                  "type": "bool[]"
                }
              ],
              "internalType": "struct IOperator.Regen",
              "name": "low",
              "type": "tuple"
            },
            {
              "components": [
                {
                  "internalType": "uint32",
                  "name": "count",
                  "type": "uint32"
                },
                {
                  "internalType": "uint48",
                  "name": "lastRegen",
                  "type": "uint48"
                },
                {
                  "internalType": "uint32",
                  "name": "nextObservation",
                  "type": "uint32"
                },
                {
                  "internalType": "bool[]",
                  "name": "observations",
                  "type": "bool[]"
                }
              ],
              "internalType": "struct IOperator.Regen",
              "name": "high",
              "type": "tuple"
            }
          ],
          "internalType": "struct IOperator.Status",
          "name": "",
          "type": "tuple"
        }
      ],
      "stateMutability": "view",
      "type": "function"
    },
    {
      "inputs": [
        {
          "internalType": "contract ERC20",
          "name": "tokenIn_",
          "type": "address"
        },
        {
          "internalType": "uint256",
          "name": "amountIn_",
          "type": "uint256"
        },
        {
          "internalType": "uint256",
          "name": "minAmountOut_",
          "type": "uint256"
        }
      ],
      "name": "swap",
      "outputs": [
        {
          "internalType": "uint256",
          "name": "amountOut",
          "type": "uint256"
        }
      ],
      "stateMutability": "nonpayable",
      "type": "function"
    }
  ],
  "bytecode": {
    "object": "0x61010060405260016002553480156200001757600080fd5b5060405162006c8038038062006c808339810160408190526200003a9162000a75565b600080546001600160a01b0319166001600160a01b0387811691909117909155841615806200007057506001600160a01b038316155b156200008f5760405163042a67ad60e41b815260040160405180910390fd5b62093a80816001602002015163ffffffff161180620000bd575062015180816001602002015163ffffffff16105b15620000dc5760405163042a67ad60e41b815260040160405180910390fd5b612710816002602002015163ffffffff1610156200010d5760405163042a67ad60e41b815260040160405180910390fd5b610e10816003602002015163ffffffff1610806200013c57506020810151606082015163ffffffff9182169116115b156200015b5760405163042a67ad60e41b815260040160405180910390fd5b805161271063ffffffff90911611806200017e57508051606463ffffffff909116105b156200019d5760405163042a67ad60e41b815260040160405180910390fd5b612710816004602002015163ffffffff161180620001c857506064816004602002015163ffffffff16105b15620001e75760405163042a67ad60e41b815260040160405180910390fd5b610e10816005602002015163ffffffff16108062000216575060e081015160c082015163ffffffff9182169116115b806200022a575060e081015163ffffffff16155b806200023e575060c081015163ffffffff16155b156200025d5760405163042a67ad60e41b815260040160405180910390fd5b600c80546001600160a01b038681166001600160a01b031992831617909255600d805486841692169190911790558251811660805282516040805163313ce56760e01b81529051919092169163313ce5679160048083019260209291908290030181865afa158015620002d4573d6000803e3d6000fd5b505050506040513d601f19601f82011682018060405250810190620002fa919062000b52565b60ff1660a05281600160200201516001600160a01b031660c05281600160200201516001600160a01b031663313ce5676040518163ffffffff1660e01b8152600401602060405180830381865afa1580156200035a573d6000803e3d6000fd5b505050506040513d601f19601f8201168201806040525081019062000380919062000b52565b60ff1660e05260408051608081018252600080825265ffffffffffff4216602083015291810182905260608101836007602002015163ffffffff166001600160401b03811115620003d557620003d562000994565b604051908082528060200260200182016040528015620003ff578160200160208202803683370190505b5090526040805161010081018252845163ffffffff908116825260208087015182169083015285830151169181019190915290915060608101836003602002015163ffffffff1681526020018360046008811062000461576200046162000b3c565b602002015163ffffffff1681526020018360056008811062000487576200048762000b3c565b602002015163ffffffff16815260200183600660088110620004ad57620004ad62000b3c565b602002015163ffffffff16815260200183600760088110620004d357620004d362000b3c565b602002015163ffffffff16815250600760008201518160000160006101000a81548163ffffffff021916908363ffffffff16021790555060208201518160000160046101000a81548163ffffffff021916908363ffffffff16021790555060408201518160000160086101000a81548163ffffffff021916908363ffffffff160217905550606082015181600001600c6101000a81548163ffffffff021916908363ffffffff16021790555060808201518160000160106101000a81548163ffffffff021916908363ffffffff16021790555060a08201518160000160146101000a81548163ffffffff021916908363ffffffff16021790555060c08201518160000160186101000a81548163ffffffff021916908363ffffffff16021790555060e082015181600001601c6101000a81548163ffffffff021916908363ffffffff160217905550905050604051806040016040528082815260200182815250600360008201518160000160008201518160000160006101000a81548163ffffffff021916908363ffffffff16021790555060208201518160000160046101000a81548165ffffffffffff021916908365ffffffffffff160217905550604082015181600001600a6101000a81548163ffffffff021916908363ffffffff1602179055506060820151816001019080519060200190620006d5929190620008b8565b505050602082810151805160028401805483850151604085015163ffffffff9081166a01000000000000000000000263ffffffff60501b1965ffffffffffff909316640100000000026001600160501b0319909416919095161791909117169190911781556060820151805192939192620007579260038701920190620008b8565b5050509050507f5760955ed2acbd2b290c0a6edf1c0bc845f64f1da0b9f89582fac3daade8dff58260006008811062000794576200079462000b3c565b6020020151604051620007b3919063ffffffff91909116815260200190565b60405180910390a1602080830151604080850151606080870151835163ffffffff95861681529285169583019590955292909316908301527f6627cd780fa2d7faf558f4d9d700a0852b79903fd60ce8c0f734103cf8aa12b8910160405180910390a1608082015160405163ffffffff90911681527fb3f67f3c41e3a7c2c87b93a1c1fe4581744242b44b44d4a873ca8facec1ee8a59060200160405180910390a160a082015160c083015160e08401516040805163ffffffff9485168152928416602084015292168183015290517f9f11b1d829316eb1d4d6f91541c83d9f78bc1e309f755c759d190c973f7b4fae9181900360600190a150505050505062000b7e565b82805482825590600052602060002090601f01602090048101928215620009525791602002820160005b838211156200092157835183826101000a81548160ff0219169083151502179055509260200192600101602081600001049283019260010302620008e2565b8015620009505782816101000a81549060ff021916905560010160208160000104928301926001030262000921565b505b506200096092915062000964565b5090565b5b8082111562000960576000815560010162000965565b6001600160a01b03811681146200099157600080fd5b50565b634e487b7160e01b600052604160045260246000fd5b604080519081016001600160401b0381118282101715620009db57634e487b7160e01b600052604160045260246000fd5b60405290565b600082601f830112620009f357600080fd5b6040516101008082016001600160401b038111838210171562000a2657634e487b7160e01b600052604160045260246000fd5b6040528301818582111562000a3a57600080fd5b845b8281101562000a6a57805163ffffffff8116811462000a5b5760008081fd5b82526020918201910162000a3c565b509195945050505050565b60008060008060006101a0868803121562000a8f57600080fd5b855162000a9c816200097b565b8095505060208087015162000ab1816200097b565b604088015190955062000ac4816200097b565b9350607f8701881362000ad657600080fd5b62000ae0620009aa565b8060a089018a81111562000af357600080fd5b60608a015b8181101562000b1c57805162000b0e816200097b565b845292840192840162000af8565b5081955062000b2c8b82620009e1565b9450505050509295509295909350565b634e487b7160e01b600052603260045260246000fd5b60006020828403121562000b6557600080fd5b815160ff8116811462000b7757600080fd5b9392505050565b60805160a05160c05160e051615fe862000c98600039600081816103140152818161222201528181612d6a01528181613f99015281816140a1015281816146a701526146f50152600081816104ee01528181611fca015281816125c901528181612627015281816126a7015281816127bf0152818161287a01528181612edf015281816135070152818161359f015281816136390152818161427201526148310152600081816102db0152818161217901528181612e2101528181613fba0152818161408001528181614686015261471601526000818161047901528181611f6f0152818161240e01528181612514015281816126510152818161285001528181612cb30152818161424301526148600152615fe86000f3fe608060405234801561001057600080fd5b50600436106101a15760003560e01c806301de9ba8146101a657806302fb0c5e146101bb578063083b2732146101e25780630f15f4c014610202578063158ef93e1461020a57806319f63dd714610217578063200d2ed21461022a57806322f3e2d41461023f5780632ecd1f201461024757806333bd33b41461025a5780633a3f54bc1461026d57806341f19a46146102805780634657b36c1461029357806351b42b00146102a65780635924be70146102ae5780635ec2c7bf146102c35780636a839ed6146102d65780636e703c2e1461030f5780637159a6181461033657806379502c551461033e5780638129fc1c14610410578063923cb952146104185780639459b8751461042b5780639e897711146104405780639f1d0f5914610461578063a29a0d9014610474578063aa9760a11461049b578063ab104771146104ae578063bb2eb4d2146104c1578063ca706bcf146104d6578063cd3293de146104e9578063d4aae0c414610510578063dd0081c714610523578063f2f6d5bb1461052c578063f2fa47371461053f575b600080fd5b6101b96101b4366004615357565b610552565b005b6008546101cd90610100900460ff1681565b60405190151581526020015b60405180910390f35b600d546101f5906001600160a01b031681565b6040516101d9919061537f565b6101b9610662565b6008546101cd9060ff1681565b6101b96102253660046153a8565b6106ea565b6102326107ca565b6040516101d99190615461565b6101cd610952565b6101b96102553660046154b1565b6109c9565b6101b96102683660046154ce565b610a4c565b6101b961027b3660046154e7565b610b25565b6101b961028e36600461552a565b610e11565b6101b96102a136600461554c565b610ef8565b6101b9610f50565b6102b6610fe9565b6040516101d99190615569565b600c546101f5906001600160a01b031681565b6102fd7f000000000000000000000000000000000000000000000000000000000000000081565b60405160ff90911681526020016101d9565b6102fd7f000000000000000000000000000000000000000000000000000000000000000081565b6101b961158c565b6104036040805161010081018252600080825260208201819052918101829052606081018290526080810182905260a0810182905260c0810182905260e081019190915250604080516101008101825260075463ffffffff8082168352600160201b820481166020840152600160401b8204811693830193909352600160601b810483166060830152600160801b810483166080830152600160a01b8104831660a0830152600160c01b8104831660c0830152600160e01b900490911660e082015290565b6040516101d991906155cc565b6101b9611c21565b6001546101f5906001600160a01b031681565b610433611cea565b6040516101d99190615653565b61045361044e3660046154b1565b611f9d565b6040519081526020016101d9565b61045361046f3660046156a1565b612278565b6101f57f000000000000000000000000000000000000000000000000000000000000000081565b6101b96104a9366004615357565b6128e6565b6101b96104bc36600461552a565b6129e1565b6104c9606481565b6040516101d991906156d6565b6104536104e43660046156e7565b612caf565b6101f57f000000000000000000000000000000000000000000000000000000000000000081565b6000546101f5906001600160a01b031681565b6104c961271081565b6101b961053a3660046154b1565b612fa6565b6101b961054d3660046154e7565b613025565b60015460405163d09a20c560e01b81526e6f70657261746f725f706f6c69637960881b916001600160a01b03169063d09a20c5906105969084903390600401615713565b600060405180830381600087803b1580156105b057600080fd5b505af11580156105c4573d6000803e3d6000fd5b5050505061271063ffffffff168263ffffffff1611806105ea5750606463ffffffff8316105b156106085760405163042a67ad60e41b815260040160405180910390fd5b6007805463ffffffff60801b1916600160801b63ffffffff8516021790556040517fb3f67f3c41e3a7c2c87b93a1c1fe4581744242b44b44d4a873ca8facec1ee8a5906106569084906156d6565b60405180910390a15050565b60015460405163d09a20c560e01b81526e6f70657261746f725f706f6c69637960881b916001600160a01b03169063d09a20c5906106a69084903390600401615713565b600060405180830381600087803b1580156106c057600080fd5b505af11580156106d4573d6000803e3d6000fd5b50506008805461ff001916610100179055505050565b60015460405163d09a20c560e01b81526e6f70657261746f725f706f6c69637960881b916001600160a01b03169063d09a20c59061072e9084903390600401615713565b600060405180830381600087803b15801561074857600080fd5b505af115801561075c573d6000803e3d6000fd5b505050506001600160a01b038316158061077d57506001600160a01b038216155b1561079b5760405163042a67ad60e41b815260040160405180910390fd5b50600c80546001600160a01b039384166001600160a01b031991821617909155600d8054929093169116179055565b6107d2615239565b6040805160c0810182526003805463ffffffff80821684860190815265ffffffffffff600160201b8404166060860152600160501b909204166080840152600480548551602082810282018101909752818152949593948694869360a0870193909183018282801561088357602002820191906000526020600020906000905b825461010083900a900460ff1615158152602060019283018181049485019490930390920291018084116108525790505b5050509190925250505081526040805160808101825260028401805463ffffffff808216845265ffffffffffff600160201b830416602085810191909152600160501b9092041683850152600386018054855181840281018401909652808652958201959394929360608601939283018282801561094057602002820191906000526020600020906000905b825461010083900a900460ff16151581526020600192830181810494850194909303909202910180841161090f5790505b50505050508152505081525050905090565b6000805460405163e52223bb60e01b81526001600160a01b039091169063e52223bb9061098390309060040161537f565b602060405180830381865afa1580156109a0573d6000803e3d6000fd5b505050506040513d601f19601f820116820180604052508101906109c4919061572a565b905090565b60015460405163d09a20c560e01b81526e6f70657261746f725f706f6c69637960881b916001600160a01b03169063d09a20c590610a0d9084903390600401615713565b600060405180830381600087803b158015610a2757600080fd5b505af1158015610a3b573d6000803e3d6000fd5b50505050610a48826131c7565b5050565b60015460405163d09a20c560e01b81526e6f70657261746f725f706f6c69637960881b916001600160a01b03169063d09a20c590610a909084903390600401615713565b600060405180830381600087803b158015610aaa57600080fd5b505af1158015610abe573d6000803e3d6000fd5b5050600954604051630cef4ced60e21b8152600481018690526001600160a01b0390911692506333bd33b491506024015b600060405180830381600087803b158015610b0957600080fd5b505af1158015610b1d573d6000803e3d6000fd5b505050505050565b60015460405163d09a20c560e01b81526e6f70657261746f725f706f6c69637960881b916001600160a01b03169063d09a20c590610b699084903390600401615713565b600060405180830381600087803b158015610b8357600080fd5b505af1158015610b97573d6000803e3d6000fd5b50505050610e108463ffffffff161080610bbc57508163ffffffff168363ffffffff16115b80610bcb575063ffffffff8216155b80610bda575063ffffffff8316155b80610c815750610bea838361575d565b63ffffffff16600860029054906101000a90046001600160a01b03166001600160a01b0316637321f1006040518163ffffffff1660e01b8152600401602060405180830381865afa158015610c43573d6000803e3d6000fd5b505050506040513d601f19601f82011682018060405250810190610c679190615798565b610c779063ffffffff87166157c9565b65ffffffffffff16105b15610c9f5760405163042a67ad60e41b815260040160405180910390fd5b60078054600160a01b600160e01b031916600160a01b63ffffffff8781169190910263ffffffff60c01b191691909117600160c01b86831602176001600160e01b0316600160e01b918516918202179091556005805463ffffffff63ffffffff60501b01191690556001600160401b03811115610d1e57610d1e6157ee565b604051908082528060200260200182016040528015610d47578160200160208202803683370190505b508051610d5c9160069160209091019061525e565b506003805463ffffffff63ffffffff60501b011916905563ffffffff82166001600160401b03811115610d9157610d916157ee565b604051908082528060200260200182016040528015610dba578160200160208202803683370190505b508051610dcf9160049160209091019061525e565b507f9f11b1d829316eb1d4d6f91541c83d9f78bc1e309f755c759d190c973f7b4fae848484604051610e0393929190615804565b60405180910390a150505050565b60015460405163d09a20c560e01b81526e6f70657261746f725f706f6c69637960881b916001600160a01b03169063d09a20c590610e559084903390600401615713565b600060405180830381600087803b158015610e6f57600080fd5b505af1158015610e83573d6000803e3d6000fd5b50506009546040516320f8cd2360e11b81526001600160a01b0390911692506341f19a469150610eb99086908690600401615824565b600060405180830381600087803b158015610ed357600080fd5b505af1158015610ee7573d6000803e3d6000fd5b50505050610ef36136e9565b505050565b6000546001600160a01b03163314610f2e573360405163053e900f60e21b8152600401610f25919061537f565b60405180910390fd5b600080546001600160a01b0319166001600160a01b0392909216919091179055565b60015460405163d09a20c560e01b81526e6f70657261746f725f706f6c69637960881b916001600160a01b03169063d09a20c590610f949084903390600401615713565b600060405180830381600087803b158015610fae57600080fd5b505af1158015610fc2573d6000803e3d6000fd5b50506008805461ff001916905550610fdc905060016137c4565b610fe660006137c4565b50565b60606000600960009054906101000a90046001600160a01b03166001600160a01b0316631ae7ec2e6040518163ffffffff1660e01b8152600401602060405180830381865afa158015611040573d6000803e3d6000fd5b505050506040513d601f19601f820116820180604052508101906110649190615832565b90506000600a60009054906101000a90046001600160a01b03166001600160a01b0316631ae7ec2e6040518163ffffffff1660e01b8152600401602060405180830381865afa1580156110bb573d6000803e3d6000fd5b505050506040513d601f19601f820116820180604052508101906110df9190615832565b90506000600b60009054906101000a90046001600160a01b03166001600160a01b0316631ae7ec2e6040518163ffffffff1660e01b8152600401602060405180830381865afa158015611136573d6000803e3d6000fd5b505050506040513d601f19601f8201168201806040525081019061115a9190615832565b60408051600d8082526101c08201909252919250816020015b6040805180820190915260008082526020820152815260200190600190039081611173575050604080518082019091526001600160d81b0319851681526336cd4d3160e11b602082015281519195509085906000906111d4576111d461585c565b60200260200101819052506040518060400160405280846001600160d81b0319168152602001633e56993a60e01b6001600160e01b031916815250846001815181106112225761122261585c565b60200260200101819052506040518060400160405280846001600160d81b031916815260200163ae7e8d8160e01b6001600160e01b031916815250846002815181106112705761127061585c565b60200260200101819052506040518060400160405280846001600160d81b031916815260200162d1673960e01b6001600160e01b031916815250846003815181106112bd576112bd61585c565b60200260200101819052506040518060400160405280846001600160d81b03191681526020016341f19a4660e01b6001600160e01b0319168152508460048151811061130b5761130b61585c565b60200260200101819052506040518060400160405280846001600160d81b03191681526020016333bd33b460e01b6001600160e01b031916815250846005815181106113595761135961585c565b60200260200101819052506040518060400160405280836001600160d81b0319168152602001632f42aef560e01b6001600160e01b031916815250846006815181106113a7576113a761585c565b60200260200101819052506040518060400160405280836001600160d81b031916815260200163e6eb207a60e01b6001600160e01b031916815250846007815181106113f5576113f561585c565b60200260200101819052506040518060400160405280836001600160d81b0319168152602001638b7f3fb960e01b6001600160e01b031916815250846008815181106114435761144361585c565b60200260200101819052506040518060400160405280826001600160d81b031916815260200163bbaed5cb60e01b6001600160e01b031916815250846009815181106114915761149161585c565b60200260200101819052506040518060400160405280826001600160d81b0319168152602001630152a5ea60e01b6001600160e01b03191681525084600a815181106114df576114df61585c565b60200260200101819052506040518060400160405280826001600160d81b031916815260200163359fe78060e01b6001600160e01b03191681525084600b8151811061152d5761152d61585c565b60200260200101819052506040518060400160405280826001600160d81b0319168152602001631b0a68f260e01b6001600160e01b03191681525084600c8151811061157b5761157b61585c565b602002602001018190525050505090565b600854610100900460ff1615806116b45750600860029054906101000a90046001600160a01b03166001600160a01b0316637321f1006040518163ffffffff1660e01b8152600401602060405180830381865afa1580156115f1573d6000803e3d6000fd5b505050506040513d601f19601f820116820180604052508101906116159190615798565b611620906003615872565b600860029054906101000a90046001600160a01b03166001600160a01b031663d266f5d06040518163ffffffff1660e01b8152600401602060405180830381865afa158015611673573d6000803e3d6000fd5b505050506040513d601f19601f820116820180604052508101906116979190615798565b6116a191906158a0565b65ffffffffffff164265ffffffffffff16115b156116d2576040516316b0245b60e21b815260040160405180910390fd5b60015460405163d09a20c560e01b81526f6f70657261746f725f6f70657261746560801b916001600160a01b03169063d09a20c5906117179084903390600401615713565b600060405180830381600087803b15801561173157600080fd5b505af1158015611745573d6000803e3d6000fd5b505060085460ff16915061176e905057604051633cb84dd760e11b815260040160405180910390fd5b6117766136e9565b61177e61393b565b604080516101008101825260075463ffffffff8082168352600160201b820481166020840152600160401b8204811683850152600160601b820481166060840152600160801b820481166080840152600160a01b8204811660a08401819052600160c01b8304821660c0850152600160e01b9092041660e0830152600954925163734f9e2760e11b815260016004820152919290916001600160a01b039091169063e69f3c4e90602401602060405180830381865afa158015611845573d6000803e3d6000fd5b505050506040513d601f19601f8201168201806040525081019061186991906158ca565b61187391906158e3565b4265ffffffffffff161015801561189a575060c081015160055463ffffffff918216911610155b156118a9576118a960016131c7565b60a081015160095460405163734f9e2760e11b81526000600482015263ffffffff909216916001600160a01b039091169063e69f3c4e90602401602060405180830381865afa158015611900573d6000803e3d6000fd5b505050506040513d601f19601f8201168201806040525081019061192491906158ca565b61192e91906158e3565b4265ffffffffffff1610158015611955575060c081015160035463ffffffff918216911610155b156119645761196460006131c7565b6009546040805163e97206a960e01b815290516000926001600160a01b03169163e97206a9916004808301926102009291908290030181865afa1580156119af573d6000803e3d6000fd5b505050506040513d601f19601f820116820180604052508101906119d39190615a4e565b90506000600860029054906101000a90046001600160a01b03166001600160a01b031663d8cf24fd6040518163ffffffff1660e01b8152600401602060405180830381865afa158015611a2a573d6000803e3d6000fd5b505050506040513d601f19601f82011682018060405250810190611a4e91906158ca565b82515190915015611b3957600c548251608001516040516304ea0e8b60e31b81526001600160a01b0390921691632750745891611a919160040190815260200190565b602060405180830381865afa158015611aae573d6000803e3d6000fd5b505050506040513d601f19601f82011682018060405250810190611ad2919061572a565b15611b0a5760408201516020015151811180611af657506060820151602001515181105b15611b0557611b0560006137c4565b611b39565b6040820151602001515181108015611b2a57506060820151602001515181115b15611b3957611b396000613efb565b60208201515115611c1b57600c546020830151608001516040516304ea0e8b60e31b81526001600160a01b0390921691632750745891611b7f9160040190815260200190565b602060405180830381865afa158015611b9c573d6000803e3d6000fd5b505050506040513d601f19601f82011682018060405250810190611bc0919061572a565b15611bf25760408201515151811080611bde57506060820151515181115b15611bed57611bed60016137c4565b611c1b565b6040820151515181118015611c0c57506060820151515181105b15611c1b57611c1b6001613efb565b50505050565b60015460405163d09a20c560e01b81526d37b832b930ba37b92fb0b236b4b760911b916001600160a01b03169063d09a20c590611c649084903390600401615713565b600060405180830381600087803b158015611c7e57600080fd5b505af1158015611c92573d6000803e3d6000fd5b505060085460ff16159150611cbc9050576040516358b8d27560e01b815260040160405180910390fd5b611cc46136e9565b611cce60016131c7565b611cd860006131c7565b506008805461ffff1916610101179055565b60408051600580825260c082019092526060916020820160a08036833701905050905064505249434560d81b81600081518110611d2957611d2961585c565b6001600160d81b031990921660209283029190910190910152611d516452414e474560d81b90565b81600181518110611d6457611d6461585c565b6001600160d81b031990921660209283029190910190910152611d8c64545253525960d81b90565b81600281518110611d9f57611d9f61585c565b6001600160d81b031990921660209283029190910190910152611dc76426a4a72a2960d91b90565b81600381518110611dda57611dda61585c565b6001600160d81b031990921660209283029190910190910152611e0264524f4c455360d81b90565b81600481518110611e1557611e1561585c565b60200260200101906001600160d81b03191690816001600160d81b03191681525050611e5a81600081518110611e4d57611e4d61585c565b6020026020010151614b12565b600860026101000a8154816001600160a01b0302191690836001600160a01b03160217905550611e9681600181518110611e4d57611e4d61585c565b600960006101000a8154816001600160a01b0302191690836001600160a01b03160217905550611ed281600281518110611e4d57611e4d61585c565b600a60006101000a8154816001600160a01b0302191690836001600160a01b03160217905550611f0e81600381518110611e4d57611e4d61585c565b600b60006101000a8154816001600160a01b0302191690836001600160a01b03160217905550611f4a81600481518110611e4d57611e4d61585c565b600180546001600160a01b0319166001600160a01b03928316179055600b54611f9a917f000000000000000000000000000000000000000000000000000000000000000081169116600019614baf565b90565b600a546040516305489ad560e21b815260009182916001600160a01b03909116906315226b5490611ff2907f00000000000000000000000000000000000000000000000000000000000000009060040161537f565b602060405180830381865afa15801561200f573d6000803e3d6000fd5b505050506040513d601f19601f8201168201806040525081019061203391906158ca565b6007549091506000906127109061205790600160801b900463ffffffff1684615adf565b6120619190615afe565b905083156122715760095460405163461fc8a560e11b815260016004820152612710916001600160a01b031690638c3f914a90602401602060405180830381865afa1580156120b4573d6000803e3d6000fd5b505050506040513d601f19601f820116820180604052508101906120d891906158ca565b6120e3906002615adf565b6120ef906127106158e3565b61225a600860029054906101000a90046001600160a01b03166001600160a01b031663313ce5676040518163ffffffff1660e01b8152600401602060405180830381865afa158015612145573d6000803e3d6000fd5b505050506040513d601f19601f820116820180604052508101906121699190615b12565b61217490600a615c19565b61219f7f0000000000000000000000000000000000000000000000000000000000000000600a615c19565b6121a99190615adf565b600954604051631bbc615960e11b815260016004820181905260248201526001600160a01b0390911690633778c2b290604401602060405180830381865afa1580156121f9573d6000803e3d6000fd5b505050506040513d601f19601f8201168201806040525081019061221d91906158ca565b6122487f0000000000000000000000000000000000000000000000000000000000000000600a615c19565b6122529190615adf565b859190614cbe565b6122649190615adf565b61226e9190615afe565b90505b9392505050565b600854600090610100900460ff1615806123a35750600860029054906101000a90046001600160a01b03166001600160a01b0316637321f1006040518163ffffffff1660e01b8152600401602060405180830381865afa1580156122e0573d6000803e3d6000fd5b505050506040513d601f19601f820116820180604052508101906123049190615798565b61230f906003615872565b600860029054906101000a90046001600160a01b03166001600160a01b031663d266f5d06040518163ffffffff1660e01b8152600401602060405180830381865afa158015612362573d6000803e3d6000fd5b505050506040513d601f19601f820116820180604052508101906123869190615798565b61239091906158a0565b65ffffffffffff164265ffffffffffff16115b156123c1576040516316b0245b60e21b815260040160405180910390fd5b6002546001146124005760405162461bcd60e51b815260206004820152600a6024820152695245454e5452414e435960b01b6044820152606401610f25565b600280556001600160a01b037f00000000000000000000000000000000000000000000000000000000000000008116908516036126a557600954604051632ce91b7360e11b8152600060048201526001600160a01b03909116906359d236e690602401602060405180830381865afa158015612480573d6000803e3d6000fd5b505050506040513d601f19601f820116820180604052508101906124a4919061572a565b6124c157604051631c184ff560e01b815260040160405180910390fd5b6124cb8484612caf565b9050818110156124f257808260405163c2d2c74360e01b8152600401610f25929190615824565b6124fd600082614d6b565b6125076000614e22565b61253c6001600160a01b037f000000000000000000000000000000000000000000000000000000000000000016333086615076565b600b5460405162a952f560e11b81526001600160a01b0390911690630152a5ea9061256d9030908790600401615c28565b600060405180830381600087803b15801561258757600080fd5b505af115801561259b573d6000803e3d6000fd5b5050600a54604051632f42aef560e01b81526001600160a01b039091169250632f42aef591506125f39033907f0000000000000000000000000000000000000000000000000000000000000000908690600401615c41565b600060405180830381600087803b15801561260d57600080fd5b505af1158015612621573d6000803e3d6000fd5b505050507f00000000000000000000000000000000000000000000000000000000000000006001600160a01b03167f00000000000000000000000000000000000000000000000000000000000000006001600160a01b0316600080516020615f938339815191528584604051612698929190615824565b60405180910390a36128da565b7f00000000000000000000000000000000000000000000000000000000000000006001600160a01b0316846001600160a01b0316036128c157600954604051632ce91b7360e11b8152600160048201526001600160a01b03909116906359d236e690602401602060405180830381865afa158015612727573d6000803e3d6000fd5b505050506040513d601f19601f8201168201806040525081019061274b919061572a565b61276857604051631c184ff560e01b815260040160405180910390fd5b6127728484612caf565b90508181101561279957808260405163c2d2c74360e01b8152600401610f25929190615824565b6127a4600182614d6b565b6127ae6001614e22565b600a546127ea906001600160a01b037f000000000000000000000000000000000000000000000000000000000000000081169133911686615076565b600b5460405163bbaed5cb60e01b81526001600160a01b039091169063bbaed5cb9061281c9033908590600401615c28565b600060405180830381600087803b15801561283657600080fd5b505af115801561284a573d6000803e3d6000fd5b505050507f00000000000000000000000000000000000000000000000000000000000000006001600160a01b03167f00000000000000000000000000000000000000000000000000000000000000006001600160a01b0316600080516020615f938339815191528584604051612698929190615824565b60405163042a67ad60e41b815260040160405180910390fd5b60016002559392505050565b60015460405163d09a20c560e01b81526e6f70657261746f725f706f6c69637960881b916001600160a01b03169063d09a20c59061292a9084903390600401615713565b600060405180830381600087803b15801561294457600080fd5b505af1158015612958573d6000803e3d6000fd5b5050505061271063ffffffff168263ffffffff16118061297e5750606463ffffffff8316105b1561299c5760405163042a67ad60e41b815260040160405180910390fd5b6007805463ffffffff191663ffffffff84161790556040517f5760955ed2acbd2b290c0a6edf1c0bc845f64f1da0b9f89582fac3daade8dff5906106569084906156d6565b600854610100900460ff161580612b095750600860029054906101000a90046001600160a01b03166001600160a01b0316637321f1006040518163ffffffff1660e01b8152600401602060405180830381865afa158015612a46573d6000803e3d6000fd5b505050506040513d601f19601f82011682018060405250810190612a6a9190615798565b612a75906003615872565b600860029054906101000a90046001600160a01b03166001600160a01b031663d266f5d06040518163ffffffff1660e01b8152600401602060405180830381865afa158015612ac8573d6000803e3d6000fd5b505050506040513d601f19601f82011682018060405250810190612aec9190615798565b612af691906158a0565b65ffffffffffff164265ffffffffffff16115b15612b27576040516316b0245b60e21b815260040160405180910390fd5b60015460405163d09a20c560e01b81527037b832b930ba37b92fb932b837b93a32b960791b916001600160a01b03169063d09a20c590612b6d9084903390600401615713565b600060405180830381600087803b158015612b8757600080fd5b505af1158015612b9b573d6000803e3d6000fd5b505060095460405163622f48eb60e11b8152600160048201526001600160a01b03909116925063c45e91d69150602401602060405180830381865afa158015612be8573d6000803e3d6000fd5b505050506040513d601f19601f82011682018060405250810190612c0c91906158ca565b8303612c2757612c1d600183614d6b565b612c276001614e22565b60095460405163622f48eb60e11b8152600060048201526001600160a01b039091169063c45e91d690602401602060405180830381865afa158015612c70573d6000803e3d6000fd5b505050506040513d601f19601f82011682018060405250810190612c9491906158ca565b8303610ef357612ca5600083614d6b565b610ef36000614e22565b60007f00000000000000000000000000000000000000000000000000000000000000006001600160a01b0316836001600160a01b031603612edd57600954604051631bbc615960e11b81526001600482015260006024820181905291612e47916001600160a01b0390911690633778c2b290604401602060405180830381865afa158015612d41573d6000803e3d6000fd5b505050506040513d601f19601f82011682018060405250810190612d6591906158ca565b612d907f0000000000000000000000000000000000000000000000000000000000000000600a615c19565b612d9a9190615adf565b600860029054906101000a90046001600160a01b03166001600160a01b031663313ce5676040518163ffffffff1660e01b8152600401602060405180830381865afa158015612ded573d6000803e3d6000fd5b505050506040513d601f19601f82011682018060405250810190612e119190615b12565b612e1c90600a615c19565b6122487f0000000000000000000000000000000000000000000000000000000000000000600a615c19565b60095460405163bf30142b60e01b8152600060048201529192506001600160a01b03169063bf30142b906024015b602060405180830381865afa158015612e92573d6000803e3d6000fd5b505050506040513d601f19601f82011682018060405250810190612eb691906158ca565b811115612ed657604051632c05036160e01b815260040160405180910390fd5b9050612fa0565b7f00000000000000000000000000000000000000000000000000000000000000006001600160a01b0316836001600160a01b0316036128c1576000612f6e600860029054906101000a90046001600160a01b03166001600160a01b031663313ce5676040518163ffffffff1660e01b8152600401602060405180830381865afa158015612145573d6000803e3d6000fd5b60095460405163bf30142b60e01b8152600160048201529192506001600160a01b03169063bf30142b90602401612e75565b92915050565b60015460405163d09a20c560e01b81526e6f70657261746f725f706f6c69637960881b916001600160a01b03169063d09a20c590612fea9084903390600401615713565b600060405180830381600087803b15801561300457600080fd5b505af1158015613018573d6000803e3d6000fd5b50505050610a48826137c4565b60015460405163d09a20c560e01b81526e6f70657261746f725f706f6c69637960881b916001600160a01b03169063d09a20c5906130699084903390600401615713565b600060405180830381600087803b15801561308357600080fd5b505af1158015613097573d6000803e3d6000fd5b5050505062093a808463ffffffff1611806130ba5750620151808463ffffffff16105b156130d85760405163042a67ad60e41b815260040160405180910390fd5b61271063ffffffff841610156131015760405163042a67ad60e41b815260040160405180910390fd5b610e1063ffffffff8316108061312257508363ffffffff168263ffffffff16115b156131405760405163042a67ad60e41b815260040160405180910390fd5b60078054600160201b600160601b031916600160201b63ffffffff8781169190910263ffffffff60401b191691909117600160401b868316021763ffffffff60601b1916600160601b918516919091021790556040517f6627cd780fa2d7faf558f4d9d700a0852b79903fd60ce8c0f734103cf8aa12b890610e0390869086908690615804565b6131d0816137c4565b8015613446576005805463ffffffff19169055600754600160e01b900463ffffffff166001600160401b0381111561320a5761320a6157ee565b604051908082528060200260200182016040528015613233578160200160208202803683370190505b5080516132489160069160209091019061525e565b5060058054600160201b600160701b031916600160201b4265ffffffffffff160217905560006132786001611f9d565b600b54604051630664aecb60e41b81529192506000916001600160a01b039091169063664aecb0906132ae90309060040161537f565b602060405180830381865afa1580156132cb573d6000803e3d6000fd5b505050506040513d601f19601f820116820180604052508101906132ef91906158ca565b90508181101561336957600b546001600160a01b031663359fe780306133158486615c65565b6040518363ffffffff1660e01b8152600401613332929190615c28565b600060405180830381600087803b15801561334c57600080fd5b505af1158015613360573d6000803e3d6000fd5b505050506133dd565b818111156133dd57600b546001600160a01b0316631b0a68f23061338d8585615c65565b6040518363ffffffff1660e01b81526004016133aa929190615c28565b600060405180830381600087803b1580156133c457600080fd5b505af11580156133d8573d6000803e3d6000fd5b505050505b60095460405162d1673960e01b815260016004820152602481018490526001600160a01b039091169062d16739906044015b600060405180830381600087803b15801561342957600080fd5b505af115801561343d573d6000803e3d6000fd5b50505050505050565b6003805463ffffffff19169055600754600160e01b900463ffffffff166001600160401b0381111561347a5761347a6157ee565b6040519080825280602002602001820160405280156134a3578160200160208202803683370190505b5080516134b89160049160209091019061525e565b5060038054600160201b600160701b031916600160201b4265ffffffffffff160217905560006134e781611f9d565b600a54604051635f0736a160e01b81523060048201526001600160a01b037f00000000000000000000000000000000000000000000000000000000000000008116602483015292935060009290911690635f0736a190604401602060405180830381865afa15801561355d573d6000803e3d6000fd5b505050506040513d601f19601f8201168201806040525081019061358191906158ca565b90508181101561361d57600a546001600160a01b031663e6eb207a307f00000000000000000000000000000000000000000000000000000000000000006135c88587615c65565b6040518463ffffffff1660e01b81526004016135e693929190615c41565b600060405180830381600087803b15801561360057600080fd5b505af1158015613614573d6000803e3d6000fd5b505050506136b3565b818111156136b357600a546001600160a01b0316638b7f3fb9307f00000000000000000000000000000000000000000000000000000000000000006136628686615c65565b6040518463ffffffff1660e01b815260040161368093929190615c41565b600060405180830381600087803b15801561369a57600080fd5b505af11580156136ae573d6000803e3d6000fd5b505050505b60095460405162d1673960e01b815260006004820152602481018490526001600160a01b039091169062d167399060440161340f565b6000600860029054906101000a90046001600160a01b03166001600160a01b031663bd01bb326040518163ffffffff1660e01b8152600401602060405180830381865afa15801561373e573d6000803e3d6000fd5b505050506040513d601f19601f8201168201806040525081019061376291906158ca565b60095460405163ae7e8d8160e01b8152600481018390529192506001600160a01b03169063ae7e8d8190602401600060405180830381600087803b1580156137a957600080fd5b505af11580156137bd573d6000803e3d6000fd5b5050505050565b60095460405163622f48eb60e11b815282151560048201526000916001600160a01b03169063c45e91d690602401602060405180830381865afa15801561380f573d6000803e3d6000fd5b505050506040513d601f19601f8201168201806040525081019061383391906158ca565b600c546040516304ea0e8b60e31b8152600481018390529192506001600160a01b031690632750745890602401602060405180830381865afa15801561387d573d6000803e3d6000fd5b505050506040513d601f19601f820116820180604052508101906138a1919061572a565b15610a4857600c5460405163ae41809560e01b8152600481018390526001600160a01b039091169063ae41809590602401600060405180830381600087803b1580156138ec57600080fd5b505af1158015613900573d6000803e3d6000fd5b5050600954604051631f2b4c9d60e11b81526001600160a01b039091169250633e56993a9150610aef90859060001990600090600401615c7c565b6000600860029054906101000a90046001600160a01b03166001600160a01b031663bd01bb326040518163ffffffff1660e01b8152600401602060405180830381865afa158015613990573d6000803e3d6000fd5b505050506040513d601f19601f820116820180604052508101906139b491906158ca565b90506000600860029054906101000a90046001600160a01b03166001600160a01b031663d8cf24fd6040518163ffffffff1660e01b8152600401602060405180830381865afa158015613a0b573d6000803e3d6000fd5b505050506040513d601f19601f82011682018060405250810190613a2f91906158ca565b600754604080516080810182526003805463ffffffff818116845265ffffffffffff600160201b830416602080860191909152600160501b90920481168486015260048054865181850281018501909752808752979850600160e01b909604169560009593949293606086019392909190830182828015613aef57602002820191906000526020600020906000905b825461010083900a900460ff161515815260206001928301818104948501949093039092029101808411613abe5790505b5050505050815250509050838310613bb3578060600151816040015163ffffffff1681518110613b2157613b2161585c565b6020026020010151613bae5760408101516004805460019263ffffffff16908110613b4e57613b4e61585c565b60009182526020808320908204018054931515601f9092166101000a91820260ff90920219909316179091556003805463ffffffff1691613b8e83615c94565b91906101000a81548163ffffffff021916908363ffffffff160217905550505b613c61565b8060600151816040015163ffffffff1681518110613bd357613bd361585c565b602002602001015115613c615760408101516004805460009263ffffffff16908110613c0157613c0161585c565b60009182526020808320908204018054931515601f9092166101000a91820260ff90920219909316179091556003805463ffffffff1691613c4183615cb7565b91906101000a81548163ffffffff021916908363ffffffff160217905550505b8181604001516001613c739190615cd7565b613c7d9190615cf6565b6003805463ffffffff60501b1916600160501b63ffffffff93841681029190911790915560408051608081018252600580548086168352600160201b810465ffffffffffff16602080850191909152949004909416818301526006805483518186028101860190945280845291949360608601939290830182828015613d4257602002820191906000526020600020906000905b825461010083900a900460ff161515815260206001928301818104948501949093039092029101808411613d115790505b5050505050815250509050838311613e06578060600151816040015163ffffffff1681518110613d7457613d7461585c565b6020026020010151613e015760408101516006805460019263ffffffff16908110613da157613da161585c565b60009182526020808320908204018054931515601f9092166101000a91820260ff90920219909316179091556005805463ffffffff1691613de183615c94565b91906101000a81548163ffffffff021916908363ffffffff160217905550505b613eb4565b8060600151816040015163ffffffff1681518110613e2657613e2661585c565b602002602001015115613eb45760408101516006805460009263ffffffff16908110613e5457613e5461585c565b60009182526020808320908204018054931515601f9092166101000a91820260ff90920219909316179091556005805463ffffffff1691613e9483615cb7565b91906101000a81548163ffffffff021916908363ffffffff160217905550505b8181604001516001613ec69190615cd7565b613ed09190615cf6565b6005805463ffffffff92909216600160501b0263ffffffff60501b1990921691909117905550505050565b6009546040805163e97206a960e01b815290516000926001600160a01b03169163e97206a9916004808301926102009291908290030181865afa158015613f46573d6000803e3d6000fd5b505050506040513d601f19601f82011682018060405250810190613f6a9190615a4e565b905081156145215760408101515151600090613f859061518d565b90506000613f94600283615d19565b613fde7f00000000000000000000000000000000000000000000000000000000000000007f0000000000000000000000000000000000000000000000000000000000000000615d51565b613fe89190615d92565b9050600082600860029054906101000a90046001600160a01b03166001600160a01b031663313ce5676040518163ffffffff1660e01b8152600401602060405180830381865afa158015614040573d6000803e3d6000fd5b505050506040513d601f19601f820116820180604052508101906140649190615b12565b61406e9190615d51565b61407990600a615c19565b90506000837f00000000000000000000000000000000000000000000000000000000000000007f00000000000000000000000000000000000000000000000000000000000000006140cb866024615d92565b6140d59190615d92565b6140df9190615d51565b6140e99190615d51565b6140f490600a615c19565b9050600061417b8284600860029054906101000a90046001600160a01b03166001600160a01b031663d8cf24fd6040518163ffffffff1660e01b8152600401602060405180830381865afa158015614150573d6000803e3d6000fd5b505050506040513d601f19601f8201168201806040525081019061417491906158ca565b9190614cbe565b60408701515151909150600090614193908486614cbe565b604080516101008101825260075463ffffffff808216808452600160201b83048216602080860191909152600160401b8404831685870152600160601b840483166060860152600160801b840483166080860152600160a01b8404831660a0860152600160c01b8404831660c0860152600160e01b909304821660e0850152918c0151909301519394509092600092614231929061271090614cbe16565b905060006040518061018001604052807f00000000000000000000000000000000000000000000000000000000000000006001600160a01b031681526020017f00000000000000000000000000000000000000000000000000000000000000006001600160a01b03168152602001600d60009054906101000a90046001600160a01b03166001600160a01b03168152602001600015158152602001838152602001868152602001858152602001846040015163ffffffff168152602001600065ffffffffffff168152602001846020015163ffffffff164261431391906158e3565b65ffffffffffff168152602001846060015163ffffffff1681526020018960000b81525090506000600c60009054906101000a90046001600160a01b03166001600160a01b03166353c7f8e0836040516020016143709190615dd5565b6040516020818303038152906040526040518263ffffffff1660e01b815260040161439b9190615ed1565b6020604051808303816000875af11580156143ba573d6000803e3d6000fd5b505050506040513d601f19601f820116820180604052508101906143de91906158ca565b600d54600c5460408051639787d10760e01b815290519394506001600160a01b03928316936398fc55d89390921691639787d107916004808201926020929091908290030181865afa158015614438573d6000803e3d6000fd5b505050506040513d601f19601f8201168201806040525081019061445c9190615f04565b836040518363ffffffff1660e01b815260040161447a929190615c28565b600060405180830381600087803b15801561449457600080fd5b505af11580156144a8573d6000803e3d6000fd5b5050600954604051631f2b4c9d60e11b81526001600160a01b039091169250633e56993a91506144e19060019085908890600401615c7c565b600060405180830381600087803b1580156144fb57600080fd5b505af115801561450f573d6000803e3d6000fd5b50505050505050505050505050505050565b6000600860029054906101000a90046001600160a01b03166001600160a01b031663313ce5676040518163ffffffff1660e01b8152600401602060405180830381865afa158015614576573d6000803e3d6000fd5b505050506040513d601f19601f8201168201806040525081019061459a9190615b12565b604083015160200151519091506000906145b5836002615f21565b6145c090600a615c19565b6145ca9190615afe565b90506000600860029054906101000a90046001600160a01b03166001600160a01b031663d8cf24fd6040518163ffffffff1660e01b8152600401602060405180830381865afa158015614621573d6000803e3d6000fd5b505050506040513d601f19601f8201168201806040525081019061464591906158ca565b614650846002615f21565b61465b90600a615c19565b6146659190615afe565b905060006146728361518d565b90506000614681600283615d19565b6146cb7f00000000000000000000000000000000000000000000000000000000000000007f0000000000000000000000000000000000000000000000000000000000000000615d51565b6146d59190615d92565b905060006146e38387615d51565b6146ee90600a615c19565b90506000837f00000000000000000000000000000000000000000000000000000000000000007f0000000000000000000000000000000000000000000000000000000000000000614740866024615d92565b61474a9190615d92565b6147549190615d51565b61475e9190615d51565b61476990600a615c19565b90506000614778868385614cbe565b90506000614787888486614cbe565b604080516101008101825260075463ffffffff808216808452600160201b830482166020850152600160401b8304821684860152600160601b830482166060850152600160801b830482166080850152600160a01b8304821660a0850152600160c01b8304821660c0850152600160e01b909204811660e08401528e5190930151939450909260009261481f929061271090614cbe16565b905060006040518061018001604052807f00000000000000000000000000000000000000000000000000000000000000006001600160a01b031681526020017f00000000000000000000000000000000000000000000000000000000000000006001600160a01b03168152602001600d60009054906101000a90046001600160a01b03166001600160a01b03168152602001600015158152602001838152602001868152602001858152602001846040015163ffffffff168152602001600065ffffffffffff168152602001846020015163ffffffff164261490191906158e3565b65ffffffffffff168152602001846060015163ffffffff1681526020018960000b81525090506000600c60009054906101000a90046001600160a01b03166001600160a01b03166353c7f8e08360405160200161495e9190615dd5565b6040516020818303038152906040526040518263ffffffff1660e01b81526004016149899190615ed1565b6020604051808303816000875af11580156149a8573d6000803e3d6000fd5b505050506040513d601f19601f820116820180604052508101906149cc91906158ca565b600d54600c5460408051639787d10760e01b815290519394506001600160a01b03928316936398fc55d89390921691639787d107916004808201926020929091908290030181865afa158015614a26573d6000803e3d6000fd5b505050506040513d601f19601f82011682018060405250810190614a4a9190615f04565b836040518363ffffffff1660e01b8152600401614a68929190615c28565b600060405180830381600087803b158015614a8257600080fd5b505af1158015614a96573d6000803e3d6000fd5b5050600954604051631f2b4c9d60e11b81526001600160a01b039091169250633e56993a9150614acf9060009085908890600401615c7c565b600060405180830381600087803b158015614ae957600080fd5b505af1158015614afd573d6000803e3d6000fd5b50505050505050505050505050505050505050565b60008054604051632d37002d60e21b815282916001600160a01b03169063b4dc00b490614b43908690600401615f42565b602060405180830381865afa158015614b60573d6000803e3d6000fd5b505050506040513d601f19601f82011682018060405250810190614b849190615f04565b90506001600160a01b038116612fa05782604051635c3fa9cd60e01b8152600401610f259190615f42565b600080846001600160a01b031663095ea7b360e01b8585604051602401614bd7929190615c28565b60408051601f198184030181529181526020820180516001600160e01b03166001600160e01b0319909416939093179092529051614c159190615f57565b6000604051808303816000865af19150503d8060008114614c52576040519150601f19603f3d011682016040523d82523d6000602084013e614c57565b606091505b5091509150818015614c81575080511580614c81575080806020019051810190614c81919061572a565b6137bd5760405162461bcd60e51b815260206004820152600e60248201526d1054141493d59157d1905253115160921b6044820152606401610f25565b6000808060001985870985870292508281108382030391505080600003614cf75760008411614cec57600080fd5b508290049050612271565b808411614d0357600080fd5b600084868809600260036001881981018916988990049182028318808302840302808302840302808302840302808302840302808302840302918202909203026000889003889004909101858311909403939093029303949094049190911702949350505050565b60095460405163bf30142b60e01b8152831515600482015260009183916001600160a01b039091169063bf30142b90602401602060405180830381865afa158015614dba573d6000803e3d6000fd5b505050506040513d601f19601f82011682018060405250810190614dde91906158ca565b614de89190615c65565b6009546040516336cd4d3160e11b81528515156004820152602481018390529192506001600160a01b031690636d9a9a629060440161340f565b600954604051632ce91b7360e11b815282151560048201526000916001600160a01b0316906359d236e690602401602060405180830381865afa158015614e6d573d6000803e3d6000fd5b505050506040513d601f19601f82011682018060405250810190614e91919061572a565b60095460405163622f48eb60e11b815284151560048201529192506000916001600160a01b039091169063c45e91d690602401602060405180830381865afa158015614ee1573d6000803e3d6000fd5b505050506040513d601f19601f82011682018060405250810190614f0591906158ca565b90508115806150685750818015614f845750600c546040516304ea0e8b60e31b8152600481018390526001600160a01b0390911690632750745890602401602060405180830381865afa158015614f60573d6000803e3d6000fd5b505050506040513d601f19601f82011682018060405250810190614f84919061572a565b80156150685750600c546040516307018e9b60e21b8152600481018390526001600160a01b0390911690631c063a6c90602401602060405180830381865afa158015614fd4573d6000803e3d6000fd5b505050506040513d601f19601f82011682018060405250810190614ff891906158ca565b60095460405163bf30142b60e01b815285151560048201526001600160a01b039091169063bf30142b90602401602060405180830381865afa158015615042573d6000803e3d6000fd5b505050506040513d601f19601f8201168201806040525081019061506691906158ca565b105b15610ef357610ef3836137c4565b600080856001600160a01b03166323b872dd60e01b8686866040516024016150a093929190615c41565b60408051601f198184030181529181526020820180516001600160e01b03166001600160e01b03199094169390931790925290516150de9190615f57565b6000604051808303816000865af19150503d806000811461511b576040519150601f19603f3d011682016040523d82523d6000602084013e615120565b606091505b509150915081801561514a57508051158061514a57508080602001905181019061514a919061572a565b610b1d5760405162461bcd60e51b81526020600482015260146024820152731514905394d1915497d19493d357d1905253115160621b6044820152606401610f25565b6000805b600a83106151b8576151a4600a84615afe565b9250806151b081615f73565b915050615191565b600860029054906101000a90046001600160a01b03166001600160a01b031663313ce5676040518163ffffffff1660e01b8152600401602060405180830381865afa15801561520b573d6000803e3d6000fd5b505050506040513d601f19601f8201168201806040525081019061522f9190615b12565b6122719082615d51565b604051806040016040528061524c615303565b8152602001615259615303565b905290565b82805482825590600052602060002090601f016020900481019282156152f35791602002820160005b838211156152c457835183826101000a81548160ff0219169083151502179055509260200192600101602081600001049283019260010302615287565b80156152f15782816101000a81549060ff02191690556001016020816000010492830192600103026152c4565b505b506152ff929150615329565b5090565b604080516080810182526000808252602082018190529181019190915260608082015290565b5b808211156152ff576000815560010161532a565b803563ffffffff8116811461535257600080fd5b919050565b60006020828403121561536957600080fd5b6122718261533e565b6001600160a01b03169052565b6001600160a01b0391909116815260200190565b6001600160a01b0381168114610fe657600080fd5b600080604083850312156153bb57600080fd5b82356153c681615393565b915060208301356153d681615393565b809150509250929050565b60006080830163ffffffff808451168552602065ffffffffffff818601511681870152816040860151166040870152606085015191506080606087015282825180855260a0880191508284019450600093505b8084101561545657845115158252938201936001939093019290820190615434565b509695505050505050565b60208152600082516040602084015261547d60608401826153e1565b90506020840151601f1984830301604085015261549a82826153e1565b95945050505050565b8015158114610fe657600080fd5b6000602082840312156154c357600080fd5b8135612271816154a3565b6000602082840312156154e057600080fd5b5035919050565b6000806000606084860312156154fc57600080fd5b6155058461533e565b92506155136020850161533e565b91506155216040850161533e565b90509250925092565b6000806040838503121561553d57600080fd5b50508035926020909101359150565b60006020828403121561555e57600080fd5b813561227181615393565b602080825282518282018190526000919060409081850190868401855b828110156155bf57815180516001600160d81b03191685528601516001600160e01b031916868501529284019290850190600101615586565b5091979650505050505050565b60006101008201905063ffffffff8084511683528060208501511660208401528060408501511660408401528060608501511660608401528060808501511660808401528060a08501511660a08401525060c083015161563460c084018263ffffffff169052565b5060e083015161564c60e084018263ffffffff169052565b5092915050565b6020808252825182820181905260009190848201906040850190845b818110156156955783516001600160d81b0319168352928401929184019160010161566f565b50909695505050505050565b6000806000606084860312156156b657600080fd5b83356156c181615393565b95602085013595506040909401359392505050565b63ffffffff91909116815260200190565b600080604083850312156156fa57600080fd5b823561570581615393565b946020939093013593505050565b9182526001600160a01b0316602082015260400190565b60006020828403121561573c57600080fd5b8151612271816154a3565b634e487b7160e01b600052601160045260246000fd5b600063ffffffff8381169083168181101561577a5761577a615747565b039392505050565b805165ffffffffffff8116811461535257600080fd5b6000602082840312156157aa57600080fd5b61227182615782565b634e487b7160e01b600052601260045260246000fd5b600065ffffffffffff808416806157e2576157e26157b3565b92169190910492915050565b634e487b7160e01b600052604160045260246000fd5b63ffffffff93841681529183166020830152909116604082015260600190565b918252602082015260400190565b60006020828403121561584457600080fd5b81516001600160d81b03198116811461227157600080fd5b634e487b7160e01b600052603260045260246000fd5b600065ffffffffffff8083168185168183048111821515161561589757615897615747565b02949350505050565b600065ffffffffffff8083168185168083038211156158c1576158c1615747565b01949350505050565b6000602082840312156158dc57600080fd5b5051919050565b600082198211156158f6576158f6615747565b500190565b600060a0828403121561590d57600080fd5b60405160a081016001600160401b038111828210171561593d57634e487b7160e01b600052604160045260246000fd5b80604052508091508251615950816154a3565b815261595e60208401615782565b60208201526040830151604082015260608301516060820152608083015160808201525092915050565b60006020828403121561599a57600080fd5b604051602081016001600160401b03811182821017156159ca57634e487b7160e01b600052604160045260246000fd5b6040529151825250919050565b6000606082840312156159e957600080fd5b604051606081016001600160401b0381118282101715615a1957634e487b7160e01b600052604160045260246000fd5b604052905080615a298484615988565b8152615a388460208501615988565b6020820152604083015160408201525092915050565b60006102008284031215615a6157600080fd5b604051608081016001600160401b0381118282101715615a9157634e487b7160e01b600052604160045260246000fd5b604052615a9e84846158fb565b8152615aad8460a085016158fb565b6020820152615ac08461014085016159d7565b6040820152615ad3846101a085016159d7565b60608201529392505050565b6000816000190483118215151615615af957615af9615747565b500290565b600082615b0d57615b0d6157b3565b500490565b600060208284031215615b2457600080fd5b815160ff8116811461227157600080fd5b600181815b80851115615b70578160001904821115615b5657615b56615747565b80851615615b6357918102915b93841c9390800290615b3a565b509250929050565b600082615b8757506001612fa0565b81615b9457506000612fa0565b8160018114615baa5760028114615bb457615bd0565b6001915050612fa0565b60ff841115615bc557615bc5615747565b50506001821b612fa0565b5060208310610133831016604e8410600b8410161715615bf3575081810a612fa0565b615bfd8383615b35565b8060001904821115615c1157615c11615747565b029392505050565b600061227160ff841683615b78565b6001600160a01b03929092168252602082015260400190565b6001600160a01b039384168152919092166020820152604081019190915260600190565b600082821015615c7757615c77615747565b500390565b92151583526020830191909152604082015260600190565b600063ffffffff808316818103615cad57615cad615747565b6001019392505050565b600063ffffffff821680615ccd57615ccd615747565b6000190192915050565b600063ffffffff8083168185168083038211156158c1576158c1615747565b600063ffffffff80841680615d0d57615d0d6157b3565b92169190910692915050565b60008160000b8360000b80615d3057615d306157b3565b607f19821460001982141615615d4857615d48615747565b90059392505050565b600081810b83820b8281128015607f19830184121615615d7357615d73615747565b81607f018313811615615d8857615d88615747565b5090039392505050565b60008160000b8360000b6000821282607f03821381151615615db657615db6615747565b82607f19038212811615615dcc57615dcc615747565b50019392505050565b600061018082019050615de9828451615372565b6020830151615dfb6020840182615372565b506040830151615e0e6040840182615372565b506060830151615e22606084018215159052565b506080830151608083015260a083015160a083015260c083015160c083015260e0830151615e5860e084018263ffffffff169052565b506101008381015165ffffffffffff9081169184019190915261012080850151909116908301526101408084015163ffffffff16908301526101609283015160000b929091019190915290565b60005b83811015615ec0578181015183820152602001615ea8565b83811115611c1b5750506000910152565b6020815260008251806020840152615ef0816040850160208701615ea5565b601f01601f19169190910160400192915050565b600060208284031215615f1657600080fd5b815161227181615393565b600060ff821660ff84168160ff0481118215151615615c1157615c11615747565b6001600160d81b031991909116815260200190565b60008251615f69818460208701615ea5565b9190910192915050565b60008160000b607f8103615f8957615f89615747565b6001019291505056fefa2dda1cc1b86e41239702756b13effbc1a092b5c57e3ad320fbe4f3b13fe235a2646970667358221220908c17ffe4a0793880afd1863c4d0c410b9ba6720d4aeccf377b11dc33f788dc64736f6c634300080f0033",
    "linkReferences": {}
  },
  "methodIdentifiers": {
    "ONE_HUNDRED_PERCENT()": "dd0081c7",
    "ONE_PERCENT()": "bb2eb4d2",
    "ROLES()": "923cb952",
    "activate()": "0f15f4c0",
    "active()": "02fb0c5e",
    "auctioneer()": "5ec2c7bf",
    "bondPurchase(uint256,uint256)": "ab104771",
    "callback()": "083b2732",
    "changeKernel(address)": "4657b36c",
    "config()": "79502c55",
    "configureDependencies()": "9459b875",
    "deactivate()": "51b42b00",
    "deactivateCushion(bool)": "f2f6d5bb",
    "fullCapacity(bool)": "9e897711",
    "gdao()": "a29a0d90",
    "gdaoDecimals()": "6a839ed6",
    "getAmountOut(address,uint256)": "ca706bcf",
    "initialize()": "8129fc1c",
    "initialized()": "158ef93e",
    "isActive()": "22f3e2d4",
    "kernel()": "d4aae0c4",
    "operate()": "7159a618",
    "regenerate(bool)": "2ecd1f20",
    "requestPermissions()": "5924be70",
    "reserve()": "cd3293de",
    "reserveDecimals()": "6e703c2e",
    "setBondContracts(address,address)": "19f63dd7",
    "setCushionFactor(uint32)": "aa9760a1",
    "setCushionParams(uint32,uint32,uint32)": "f2fa4737",
    "setRegenParams(uint32,uint32,uint32)": "3a3f54bc",
    "setReserveFactor(uint32)": "01de9ba8",
    "setSpreads(uint256,uint256)": "41f19a46",
    "setThresholdFactor(uint256)": "33bd33b4",
    "status()": "200d2ed2",
    "swap(address,uint256,uint256)": "9f1d0f59"
  },
  "id": 112
}