{
  "abi": [
    {
      "inputs": [
        {
          "internalType": "contract Kernel",
          "name": "kernel_",
          "type": "address"
        },
        {
          "internalType": "contract IBondSDA",
          "name": "auctioneer_",
          "type": "address"
        },
        {
          "internalType": "contract IBondCallback",
          "name": "callback_",
          "type": "address"
        },
        {
          "internalType": "contract ERC20[2]",
          "name": "tokens_",
          "type": "address[2]"
        },
        {
          "internalType": "uint32[8]",
          "name": "configParams",
          "type": "uint32[8]"
        }
      ],
      "stateMutability": "nonpayable",
      "type": "constructor"
    },
    {
      "inputs": [
        {
          "internalType": "address",
          "name": "caller_",
          "type": "address"
        }
      ],
      "name": "KernelAdapter_OnlyKernel",
      "type": "error"
    },
    {
      "inputs": [],
      "name": "Operator_AlreadyInitialized",
      "type": "error"
    },
    {
      "inputs": [
        {
          "internalType": "uint256",
          "name": "amountOut",
          "type": "uint256"
        },
        {
          "internalType": "uint256",
          "name": "minAmountOut",
          "type": "uint256"
        }
      ],
      "name": "Operator_AmountLessThanMinimum",
      "type": "error"
    },
    {
      "inputs": [],
      "name": "Operator_Inactive",
      "type": "error"
    },
    {
      "inputs": [],
      "name": "Operator_InsufficientCapacity",
      "type": "error"
    },
    {
      "inputs": [],
      "name": "Operator_InvalidParams",
      "type": "error"
    },
    {
      "inputs": [],
      "name": "Operator_NotInitialized",
      "type": "error"
    },
    {
      "inputs": [],
      "name": "Operator_WallDown",
      "type": "error"
    },
    {
      "inputs": [
        {
          "internalType": "Keycode",
          "name": "keycode_",
          "type": "bytes5"
        }
      ],
      "name": "Policy_ModuleDoesNotExist",
      "type": "error"
    },
    {
      "anonymous": false,
      "inputs": [
        {
          "indexed": false,
          "internalType": "uint32",
          "name": "cushionFactor_",
          "type": "uint32"
        }
      ],
      "name": "CushionFactorChanged",
      "type": "event"
    },
    {
      "anonymous": false,
      "inputs": [
        {
          "indexed": false,
          "internalType": "uint32",
          "name": "duration_",
          "type": "uint32"
        },
        {
          "indexed": false,
          "internalType": "uint32",
          "name": "debtBuffer_",
          "type": "uint32"
        },
        {
          "indexed": false,
          "internalType": "uint32",
          "name": "depositInterval_",
          "type": "uint32"
        }
      ],
      "name": "CushionParamsChanged",
      "type": "event"
    },
    {
      "anonymous": false,
      "inputs": [
        {
          "indexed": false,
          "internalType": "uint32",
          "name": "wait_",
          "type": "uint32"
        },
        {
          "indexed": false,
          "internalType": "uint32",
          "name": "threshold_",
          "type": "uint32"
        },
        {
          "indexed": false,
          "internalType": "uint32",
          "name": "observe_",
          "type": "uint32"
        }
      ],
      "name": "RegenParamsChanged",
      "type": "event"
    },
    {
      "anonymous": false,
      "inputs": [
        {
          "indexed": false,
          "internalType": "uint32",
          "name": "reserveFactor_",
          "type": "uint32"
        }
      ],
      "name": "ReserveFactorChanged",
      "type": "event"
    },
    {
      "anonymous": false,
      "inputs": [
        {
          "indexed": true,
          "internalType": "contract ERC20",
          "name": "tokenIn_",
          "type": "address"
        },
        {
          "indexed": true,
          "internalType": "contract ERC20",
          "name": "tokenOut_",
          "type": "address"
        },
        {
          "indexed": false,
          "internalType": "uint256",
          "name": "amountIn_",
          "type": "uint256"
        },
        {
          "indexed": false,
          "internalType": "uint256",
          "name": "amountOut_",
          "type": "uint256"
        }
      ],
      "name": "Swap",
      "type": "event"
    },
    {
      "inputs": [],
      "name": "ONE_HUNDRED_PERCENT",
      "outputs": [
        {
          "internalType": "uint32",
          "name": "",
          "type": "uint32"
        }
      ],
      "stateMutability": "view",
      "type": "function"
    },
    {
      "inputs": [],
      "name": "ONE_PERCENT",
      "outputs": [
        {
          "internalType": "uint32",
          "name": "",
          "type": "uint32"
        }
      ],
      "stateMutability": "view",
      "type": "function"
    },
    {
      "inputs": [],
      "name": "ROLES",
      "outputs": [
        {
          "internalType": "contract ROLESv1",
          "name": "",
          "type": "address"
        }
      ],
      "stateMutability": "view",
      "type": "function"
    },
    {
      "inputs": [],
      "name": "activate",
      "outputs": [],
      "stateMutability": "nonpayable",
      "type": "function"
    },
    {
      "inputs": [],
      "name": "active",
      "outputs": [
        {
          "internalType": "bool",
          "name": "",
          "type": "bool"
        }
      ],
      "stateMutability": "view",
      "type": "function"
    },
    {
      "inputs": [],
      "name": "auctioneer",
      "outputs": [
        {
          "internalType": "contract IBondSDA",
          "name": "",
          "type": "address"
        }
      ],
      "stateMutability": "view",
      "type": "function"
    },
    {
      "inputs": [
        {
          "internalType": "uint256",
          "name": "id_",
          "type": "uint256"
        },
        {
          "internalType": "uint256",
          "name": "amountOut_",
          "type": "uint256"
        }
      ],
      "name": "bondPurchase",
      "outputs": [],
      "stateMutability": "nonpayable",
      "type": "function"
    },
    {
      "inputs": [],
      "name": "callback",
      "outputs": [
        {
          "internalType": "contract IBondCallback",
          "name": "",
          "type": "address"
        }
      ],
      "stateMutability": "view",
      "type": "function"
    },
    {
      "inputs": [
        {
          "internalType": "contract Kernel",
          "name": "newKernel_",
          "type": "address"
        }
      ],
      "name": "changeKernel",
      "outputs": [],
      "stateMutability": "nonpayable",
      "type": "function"
    },
    {
      "inputs": [],
      "name": "config",
      "outputs": [
        {
          "components": [
            {
              "internalType": "uint32",
              "name": "cushionFactor",
              "type": "uint32"
            },
            {
              "internalType": "uint32",
              "name": "cushionDuration",
              "type": "uint32"
            },
            {
              "internalType": "uint32",
              "name": "cushionDebtBuffer",
              "type": "uint32"
            },
            {
              "internalType": "uint32",
              "name": "cushionDepositInterval",
              "type": "uint32"
            },
            {
              "internalType": "uint32",
              "name": "reserveFactor",
              "type": "uint32"
            },
            {
              "internalType": "uint32",
              "name": "regenWait",
              "type": "uint32"
            },
            {
              "internalType": "uint32",
              "name": "regenThreshold",
              "type": "uint32"
            },
            {
              "internalType": "uint32",
              "name": "regenObserve",
              "type": "uint32"
            }
          ],
          "internalType": "struct IOperator.Config",
          "name": "",
          "type": "tuple"
        }
      ],
      "stateMutability": "view",
      "type": "function"
    },
    {
      "inputs": [],
      "name": "configureDependencies",
      "outputs": [
        {
          "internalType": "Keycode[]",
          "name": "dependencies",
          "type": "bytes5[]"
        }
      ],
      "stateMutability": "nonpayable",
      "type": "function"
    },
    {
      "inputs": [],
      "name": "deactivate",
      "outputs": [],
      "stateMutability": "nonpayable",
      "type": "function"
    },
    {
      "inputs": [
        {
          "internalType": "bool",
          "name": "high_",
          "type": "bool"
        }
      ],
      "name": "deactivateCushion",
      "outputs": [],
      "stateMutability": "nonpayable",
      "type": "function"
    },
    {
      "inputs": [
        {
          "internalType": "bool",
          "name": "high_",
          "type": "bool"
        }
      ],
      "name": "fullCapacity",
      "outputs": [
        {
          "internalType": "uint256",
          "name": "",
          "type": "uint256"
        }
      ],
      "stateMutability": "view",
      "type": "function"
    },
    {
      "inputs": [],
      "name": "gdao",
      "outputs": [
        {
          "internalType": "contract ERC20",
          "name": "",
          "type": "address"
        }
      ],
      "stateMutability": "view",
      "type": "function"
    },
    {
      "inputs": [],
      "name": "gdaoDecimals",
      "outputs": [
        {
          "internalType": "uint8",
          "name": "",
          "type": "uint8"
        }
      ],
      "stateMutability": "view",
      "type": "function"
    },
    {
      "inputs": [
        {
          "internalType": "contract ERC20",
          "name": "tokenIn_",
          "type": "address"
        },
        {
          "internalType": "uint256",
          "name": "amountIn_",
          "type": "uint256"
        }
      ],
      "name": "getAmountOut",
      "outputs": [
        {
          "internalType": "uint256",
          "name": "",
          "type": "uint256"
        }
      ],
      "stateMutability": "view",
      "type": "function"
    },
    {
      "inputs": [],
      "name": "initialize",
      "outputs": [],
      "stateMutability": "nonpayable",
      "type": "function"
    },
    {
      "inputs": [],
      "name": "initialized",
      "outputs": [
        {
          "internalType": "bool",
          "name": "",
          "type": "bool"
        }
      ],
      "stateMutability": "view",
      "type": "function"
    },
    {
      "inputs": [],
      "name": "isActive",
      "outputs": [
        {
          "internalType": "bool",
          "name": "",
          "type": "bool"
        }
      ],
      "stateMutability": "view",
      "type": "function"
    },
    {
      "inputs": [],
      "name": "kernel",
      "outputs": [
        {
          "internalType": "contract Kernel",
          "name": "",
          "type": "address"
        }
      ],
      "stateMutability": "view",
      "type": "function"
    },
    {
      "inputs": [],
      "name": "operate",
      "outputs": [],
      "stateMutability": "nonpayable",
      "type": "function"
    },
    {
      "inputs": [
        {
          "internalType": "bool",
          "name": "high_",
          "type": "bool"
        }
      ],
      "name": "regenerate",
      "outputs": [],
      "stateMutability": "nonpayable",
      "type": "function"
    },
    {
      "inputs": [],
      "name": "requestPermissions",
      "outputs": [
        {
          "components": [
            {
              "internalType": "Keycode",
              "name": "keycode",
              "type": "bytes5"
            },
            {
              "internalType": "bytes4",
              "name": "funcSelector",
              "type": "bytes4"
            }
          ],
          "internalType": "struct Permissions[]",
          "name": "requests",
          "type": "tuple[]"
        }
      ],
      "stateMutability": "view",
      "type": "function"
    },
    {
      "inputs": [],
      "name": "reserve",
      "outputs": [
        {
          "internalType": "contract ERC20",
          "name": "",
          "type": "address"
        }
      ],
      "stateMutability": "view",
      "type": "function"
    },
    {
      "inputs": [],
      "name": "reserveDecimals",
      "outputs": [
        {
          "internalType": "uint8",
          "name": "",
          "type": "uint8"
        }
      ],
      "stateMutability": "view",
      "type": "function"
    },
    {
      "inputs": [
        {
          "internalType": "contract IBondSDA",
          "name": "auctioneer_",
          "type": "address"
        },
        {
          "internalType": "contract IBondCallback",
          "name": "callback_",
          "type": "address"
        }
      ],
      "name": "setBondContracts",
      "outputs": [],
      "stateMutability": "nonpayable",
      "type": "function"
    },
    {
      "inputs": [
        {
          "internalType": "uint32",
          "name": "cushionFactor_",
          "type": "uint32"
        }
      ],
      "name": "setCushionFactor",
      "outputs": [],
      "stateMutability": "nonpayable",
      "type": "function"
    },
    {
      "inputs": [
        {
          "internalType": "uint32",
          "name": "duration_",
          "type": "uint32"
        },
        {
          "internalType": "uint32",
          "name": "debtBuffer_",
          "type": "uint32"
        },
        {
          "internalType": "uint32",
          "name": "depositInterval_",
          "type": "uint32"
        }
      ],
      "name": "setCushionParams",
      "outputs": [],
      "stateMutability": "nonpayable",
      "type": "function"
    },
    {
      "inputs": [
        {
          "internalType": "uint32",
          "name": "wait_",
          "type": "uint32"
        },
        {
          "internalType": "uint32",
          "name": "threshold_",
          "type": "uint32"
        },
        {
          "internalType": "uint32",
          "name": "observe_",
          "type": "uint32"
        }
      ],
      "name": "setRegenParams",
      "outputs": [],
      "stateMutability": "nonpayable",
      "type": "function"
    },
    {
      "inputs": [
        {
          "internalType": "uint32",
          "name": "reserveFactor_",
          "type": "uint32"
        }
      ],
      "name": "setReserveFactor",
      "outputs": [],
      "stateMutability": "nonpayable",
      "type": "function"
    },
    {
      "inputs": [
        {
          "internalType": "uint256",
          "name": "cushionSpread_",
          "type": "uint256"
        },
        {
          "internalType": "uint256",
          "name": "wallSpread_",
          "type": "uint256"
        }
      ],
      "name": "setSpreads",
      "outputs": [],
      "stateMutability": "nonpayable",
      "type": "function"
    },
    {
      "inputs": [
        {
          "internalType": "uint256",
          "name": "thresholdFactor_",
          "type": "uint256"
        }
      ],
      "name": "setThresholdFactor",
      "outputs": [],
      "stateMutability": "nonpayable",
      "type": "function"
    },
    {
      "inputs": [],
      "name": "status",
      "outputs": [
        {
          "components": [
            {
              "components": [
                {
                  "internalType": "uint32",
                  "name": "count",
                  "type": "uint32"
                },
                {
                  "internalType": "uint48",
                  "name": "lastRegen",
                  "type": "uint48"
                },
                {
                  "internalType": "uint32",
                  "name": "nextObservation",
                  "type": "uint32"
                },
                {
                  "internalType": "bool[]",
                  "name": "observations",
                  "type": "bool[]"
                }
              ],
              "internalType": "struct IOperator.Regen",
              "name": "low",
              "type": "tuple"
            },
            {
              "components": [
                {
                  "internalType": "uint32",
                  "name": "count",
                  "type": "uint32"
                },
                {
                  "internalType": "uint48",
                  "name": "lastRegen",
                  "type": "uint48"
                },
                {
                  "internalType": "uint32",
                  "name": "nextObservation",
                  "type": "uint32"
                },
                {
                  "internalType": "bool[]",
                  "name": "observations",
                  "type": "bool[]"
                }
              ],
              "internalType": "struct IOperator.Regen",
              "name": "high",
              "type": "tuple"
            }
          ],
          "internalType": "struct IOperator.Status",
          "name": "",
          "type": "tuple"
        }
      ],
      "stateMutability": "view",
      "type": "function"
    },
    {
      "inputs": [
        {
          "internalType": "contract ERC20",
          "name": "tokenIn_",
          "type": "address"
        },
        {
          "internalType": "uint256",
          "name": "amountIn_",
          "type": "uint256"
        },
        {
          "internalType": "uint256",
          "name": "minAmountOut_",
          "type": "uint256"
        }
      ],
      "name": "swap",
      "outputs": [
        {
          "internalType": "uint256",
          "name": "amountOut",
          "type": "uint256"
        }
      ],
      "stateMutability": "nonpayable",
      "type": "function"
    }
  ],
  "bytecode": {
    "object": "0x61010060405260016002553480156200001757600080fd5b5060405162008114380380620081148339810160408190526200003a9162000a75565b600080546001600160a01b0319166001600160a01b0387811691909117909155841615806200007057506001600160a01b038316155b156200008f5760405163042a67ad60e41b815260040160405180910390fd5b62093a80816001602002015163ffffffff161180620000bd575062015180816001602002015163ffffffff16105b15620000dc5760405163042a67ad60e41b815260040160405180910390fd5b612710816002602002015163ffffffff1610156200010d5760405163042a67ad60e41b815260040160405180910390fd5b610e10816003602002015163ffffffff1610806200013c57506020810151606082015163ffffffff9182169116115b156200015b5760405163042a67ad60e41b815260040160405180910390fd5b805161271063ffffffff90911611806200017e57508051606463ffffffff909116105b156200019d5760405163042a67ad60e41b815260040160405180910390fd5b612710816004602002015163ffffffff161180620001c857506064816004602002015163ffffffff16105b15620001e75760405163042a67ad60e41b815260040160405180910390fd5b610e10816005602002015163ffffffff16108062000216575060e081015160c082015163ffffffff9182169116115b806200022a575060e081015163ffffffff16155b806200023e575060c081015163ffffffff16155b156200025d5760405163042a67ad60e41b815260040160405180910390fd5b600c80546001600160a01b038681166001600160a01b031992831617909255600d805486841692169190911790558251811660805282516040805163313ce56760e01b81529051919092169163313ce5679160048083019260209291908290030181865afa158015620002d4573d6000803e3d6000fd5b505050506040513d601f19601f82011682018060405250810190620002fa919062000b52565b60ff1660a05281600160200201516001600160a01b031660c05281600160200201516001600160a01b031663313ce5676040518163ffffffff1660e01b8152600401602060405180830381865afa1580156200035a573d6000803e3d6000fd5b505050506040513d601f19601f8201168201806040525081019062000380919062000b52565b60ff1660e05260408051608081018252600080825265ffffffffffff4216602083015291810182905260608101836007602002015163ffffffff166001600160401b03811115620003d557620003d562000994565b604051908082528060200260200182016040528015620003ff578160200160208202803683370190505b5090526040805161010081018252845163ffffffff908116825260208087015182169083015285830151169181019190915290915060608101836003602002015163ffffffff1681526020018360046008811062000461576200046162000b3c565b602002015163ffffffff1681526020018360056008811062000487576200048762000b3c565b602002015163ffffffff16815260200183600660088110620004ad57620004ad62000b3c565b602002015163ffffffff16815260200183600760088110620004d357620004d362000b3c565b602002015163ffffffff16815250600760008201518160000160006101000a81548163ffffffff021916908363ffffffff16021790555060208201518160000160046101000a81548163ffffffff021916908363ffffffff16021790555060408201518160000160086101000a81548163ffffffff021916908363ffffffff160217905550606082015181600001600c6101000a81548163ffffffff021916908363ffffffff16021790555060808201518160000160106101000a81548163ffffffff021916908363ffffffff16021790555060a08201518160000160146101000a81548163ffffffff021916908363ffffffff16021790555060c08201518160000160186101000a81548163ffffffff021916908363ffffffff16021790555060e082015181600001601c6101000a81548163ffffffff021916908363ffffffff160217905550905050604051806040016040528082815260200182815250600360008201518160000160008201518160000160006101000a81548163ffffffff021916908363ffffffff16021790555060208201518160000160046101000a81548165ffffffffffff021916908365ffffffffffff160217905550604082015181600001600a6101000a81548163ffffffff021916908363ffffffff1602179055506060820151816001019080519060200190620006d5929190620008b8565b505050602082810151805160028401805483850151604085015163ffffffff9081166a01000000000000000000000263ffffffff60501b1965ffffffffffff909316640100000000026001600160501b0319909416919095161791909117169190911781556060820151805192939192620007579260038701920190620008b8565b5050509050507f5760955ed2acbd2b290c0a6edf1c0bc845f64f1da0b9f89582fac3daade8dff58260006008811062000794576200079462000b3c565b6020020151604051620007b3919063ffffffff91909116815260200190565b60405180910390a1602080830151604080850151606080870151835163ffffffff95861681529285169583019590955292909316908301527f6627cd780fa2d7faf558f4d9d700a0852b79903fd60ce8c0f734103cf8aa12b8910160405180910390a1608082015160405163ffffffff90911681527fb3f67f3c41e3a7c2c87b93a1c1fe4581744242b44b44d4a873ca8facec1ee8a59060200160405180910390a160a082015160c083015160e08401516040805163ffffffff9485168152928416602084015292168183015290517f9f11b1d829316eb1d4d6f91541c83d9f78bc1e309f755c759d190c973f7b4fae9181900360600190a150505050505062000b7e565b82805482825590600052602060002090601f01602090048101928215620009525791602002820160005b838211156200092157835183826101000a81548160ff0219169083151502179055509260200192600101602081600001049283019260010302620008e2565b8015620009505782816101000a81549060ff021916905560010160208160000104928301926001030262000921565b505b506200096092915062000964565b5090565b5b8082111562000960576000815560010162000965565b6001600160a01b03811681146200099157600080fd5b50565b634e487b7160e01b600052604160045260246000fd5b604080519081016001600160401b0381118282101715620009db57634e487b7160e01b600052604160045260246000fd5b60405290565b600082601f830112620009f357600080fd5b6040516101008082016001600160401b038111838210171562000a2657634e487b7160e01b600052604160045260246000fd5b6040528301818582111562000a3a57600080fd5b845b8281101562000a6a57805163ffffffff8116811462000a5b5760008081fd5b82526020918201910162000a3c565b509195945050505050565b60008060008060006101a0868803121562000a8f57600080fd5b855162000a9c816200097b565b8095505060208087015162000ab1816200097b565b604088015190955062000ac4816200097b565b9350607f8701881362000ad657600080fd5b62000ae0620009aa565b8060a089018a81111562000af357600080fd5b60608a015b8181101562000b1c57805162000b0e816200097b565b845292840192840162000af8565b5081955062000b2c8b82620009e1565b9450505050509295509295909350565b634e487b7160e01b600052603260045260246000fd5b60006020828403121562000b6557600080fd5b815160ff8116811462000b7757600080fd5b9392505050565b60805160a05160c05160e05161747c62000c98600039600081816103bf01528181612bef0152818161399101528181614fc4015281816150cc0152818161578c01526157da0152600081816105fc0152818161294901528181613054015281816130d801528181613152015281816132bb0152818161339e01528181613b380152818161439d01528181614435015281816144fe015281816152f8015261597101526000818161038601528181612b2d01528181613a4801528181614fe5015281816150ab0152818161576b01526157fb01526000818161057f015281816128ca01528181612e2101528181612f78015281816130fd01528181613379015281816138c1015281816152c901526159a0015261747c6000f3fe608060405234801561001057600080fd5b50600436106102415760003560e01c80636e703c2e11610145578063aa9760a1116100bd578063cd3293de1161008c578063dd0081c711610071578063dd0081c714610631578063f2f6d5bb1461063a578063f2fa47371461064d57600080fd5b8063cd3293de146105f7578063d4aae0c41461061e57600080fd5b8063aa9760a1146105a1578063ab104771146105b4578063bb2eb4d2146105c7578063ca706bcf146105e457600080fd5b8063923cb952116101145780639e897711116100f95780639e897711146105465780639f1d0f5914610567578063a29a0d901461057a57600080fd5b8063923cb9521461051e5780639459b8751461053157600080fd5b80636e703c2e146103ba5780637159a618146103e157806379502c55146103e95780638129fc1c1461051657600080fd5b80632ecd1f20116101d85780634657b36c116101a75780635924be701161018c5780635924be70146103595780635ec2c7bf1461036e5780636a839ed61461038157600080fd5b80634657b36c1461033e57806351b42b001461035157600080fd5b80632ecd1f20146102f257806333bd33b4146103055780633a3f54bc1461031857806341f19a461461032b57600080fd5b8063158ef93e11610214578063158ef93e146102b557806319f63dd7146102c2578063200d2ed2146102d557806322f3e2d4146102ea57600080fd5b806301de9ba81461024657806302fb0c5e1461025b578063083b2732146102825780630f15f4c0146102ad575b600080fd5b610259610254366004616683565b610660565b005b60085461026d90610100900460ff1681565b60405190151581526020015b60405180910390f35b600d54610295906001600160a01b031681565b6040516001600160a01b039091168152602001610279565b6102596107d7565b60085461026d9060ff1681565b6102596102d03660046166b3565b6108a3565b6102dd6109db565b604051610279919061676c565b61026d610bc4565b6102596103003660046167da565b610c4f565b6102596103133660046167f7565b610cf9565b610259610326366004616810565b610e12565b610259610339366004616853565b6111f7565b61025961034c366004616875565b61131f565b6102596113a4565b610361611481565b6040516102799190616892565b600c54610295906001600160a01b031681565b6103a87f000000000000000000000000000000000000000000000000000000000000000081565b60405160ff9091168152602001610279565b6103a87f000000000000000000000000000000000000000000000000000000000000000081565b610259611c41565b6105096040805161010081018252600080825260208201819052918101829052606081018290526080810182905260a0810182905260c0810182905260e081019190915250604080516101008101825260075463ffffffff80821683526401000000008204811660208401526801000000000000000082048116938301939093526c01000000000000000000000000810483166060830152700100000000000000000000000000000000810483166080830152740100000000000000000000000000000000000000008104831660a083015278010000000000000000000000000000000000000000000000008104831660c08301527c0100000000000000000000000000000000000000000000000000000000900490911660e082015290565b6040516102799190616925565b610259612406565b600154610295906001600160a01b031681565b61053961252d565b60405161027991906169ac565b6105596105543660046167da565b612916565b604051908152602001610279565b610559610575366004616a12565b612c45565b6102957f000000000000000000000000000000000000000000000000000000000000000081565b6102596105af366004616683565b613426565b6102596105c2366004616853565b61357f565b6105cf606481565b60405163ffffffff9091168152602001610279565b6105596105f2366004616a47565b6138bd565b6102957f000000000000000000000000000000000000000000000000000000000000000081565b600054610295906001600160a01b031681565b6105cf61271081565b6102596106483660046167da565b613c18565b61025961065b366004616810565b613cbe565b6001546040517fd09a20c50000000000000000000000000000000000000000000000000000000081527f6f70657261746f725f706f6c696379000000000000000000000000000000000060048201819052336024830152916001600160a01b03169063d09a20c590604401600060405180830381600087803b1580156106e557600080fd5b505af11580156106f9573d6000803e3d6000fd5b5050505061271063ffffffff168263ffffffff16118061071f5750606463ffffffff8316105b15610756576040517f42a67ad000000000000000000000000000000000000000000000000000000000815260040160405180910390fd5b600780547fffffffffffffffffffffffff00000000ffffffffffffffffffffffffffffffff1670010000000000000000000000000000000063ffffffff8516908102919091179091556040519081527fb3f67f3c41e3a7c2c87b93a1c1fe4581744242b44b44d4a873ca8facec1ee8a5906020015b60405180910390a15050565b6001546040517fd09a20c50000000000000000000000000000000000000000000000000000000081527f6f70657261746f725f706f6c696379000000000000000000000000000000000060048201819052336024830152916001600160a01b03169063d09a20c590604401600060405180830381600087803b15801561085c57600080fd5b505af1158015610870573d6000803e3d6000fd5b5050600880547fffffffffffffffffffffffffffffffffffffffffffffffffffffffffffff00ff16610100179055505050565b6001546040517fd09a20c50000000000000000000000000000000000000000000000000000000081527f6f70657261746f725f706f6c696379000000000000000000000000000000000060048201819052336024830152916001600160a01b03169063d09a20c590604401600060405180830381600087803b15801561092857600080fd5b505af115801561093c573d6000803e3d6000fd5b505050506001600160a01b038316158061095d57506001600160a01b038216155b15610994576040517f42a67ad000000000000000000000000000000000000000000000000000000000815260040160405180910390fd5b50600c80546001600160a01b039384167fffffffffffffffffffffffff000000000000000000000000000000000000000091821617909155600d8054929093169116179055565b610a346040805160c08101825260009181018281526060808301849052608083019390935260a0820192909252908190815260408051608081018252600080825260208281018290529282015260608082015291015290565b6040805160c0810182526003805463ffffffff80821684860190815265ffffffffffff64010000000084041660608601526a0100000000000000000000909204166080840152600480548551602082810282018101909752818152949593948694869360a08701939091830182828015610aed57602002820191906000526020600020906000905b825461010083900a900460ff161515815260206001928301818104948501949093039092029101808411610abc5790505b5050509190925250505081526040805160808101825260028401805463ffffffff808216845265ffffffffffff6401000000008304166020858101919091526a010000000000000000000090920416838501526003860180548551818402810184019096528086529582019593949293606086019392830182828015610bb257602002820191906000526020600020906000905b825461010083900a900460ff161515815260206001928301818104948501949093039092029101808411610b815790505b50505050508152505081525050905090565b600080546040517fe52223bb0000000000000000000000000000000000000000000000000000000081523060048201526001600160a01b039091169063e52223bb90602401602060405180830381865afa158015610c26573d6000803e3d6000fd5b505050506040513d601f19601f82011682018060405250810190610c4a9190616a73565b905090565b6001546040517fd09a20c50000000000000000000000000000000000000000000000000000000081527f6f70657261746f725f706f6c696379000000000000000000000000000000000060048201819052336024830152916001600160a01b03169063d09a20c590604401600060405180830381600087803b158015610cd457600080fd5b505af1158015610ce8573d6000803e3d6000fd5b50505050610cf582613f33565b5050565b6001546040517fd09a20c50000000000000000000000000000000000000000000000000000000081527f6f70657261746f725f706f6c696379000000000000000000000000000000000060048201819052336024830152916001600160a01b03169063d09a20c590604401600060405180830381600087803b158015610d7e57600080fd5b505af1158015610d92573d6000803e3d6000fd5b50506009546040517f33bd33b4000000000000000000000000000000000000000000000000000000008152600481018690526001600160a01b0390911692506333bd33b491506024015b600060405180830381600087803b158015610df657600080fd5b505af1158015610e0a573d6000803e3d6000fd5b505050505050565b6001546040517fd09a20c50000000000000000000000000000000000000000000000000000000081527f6f70657261746f725f706f6c696379000000000000000000000000000000000060048201819052336024830152916001600160a01b03169063d09a20c590604401600060405180830381600087803b158015610e9757600080fd5b505af1158015610eab573d6000803e3d6000fd5b50505050610e108463ffffffff161080610ed057508163ffffffff168363ffffffff16115b80610edf575063ffffffff8216155b80610eee575063ffffffff8316155b80610f955750610efe8383616abf565b63ffffffff16600860029054906101000a90046001600160a01b03166001600160a01b0316637321f1006040518163ffffffff1660e01b8152600401602060405180830381865afa158015610f57573d6000803e3d6000fd5b505050506040513d601f19601f82011682018060405250810190610f7b9190616afa565b610f8b9063ffffffff8716616b44565b65ffffffffffff16105b15610fcc576040517f42a67ad000000000000000000000000000000000000000000000000000000000815260040160405180910390fd5b600780547fffffffff0000000000000000ffffffffffffffffffffffffffffffffffffffff167401000000000000000000000000000000000000000063ffffffff878116919091027fffffffff00000000ffffffffffffffffffffffffffffffffffffffffffffffff1691909117780100000000000000000000000000000000000000000000000086831602177bffffffffffffffffffffffffffffffffffffffffffffffffffffffff167c010000000000000000000000000000000000000000000000000000000091851691820217909155600580547fffffffffffffffffffffffffffffffffffff00000000ffffffffffff0000000016905567ffffffffffffffff8111156110df576110df616b69565b604051908082528060200260200182016040528015611108578160200160208202803683370190505b50805161111d916006916020909101906165b0565b50600380547fffffffffffffffffffffffffffffffffffff00000000ffffffffffff0000000016905563ffffffff821667ffffffffffffffff81111561116557611165616b69565b60405190808252806020026020018201604052801561118e578160200160208202803683370190505b5080516111a3916004916020909101906165b0565b506040805163ffffffff808716825280861660208301528416918101919091527f9f11b1d829316eb1d4d6f91541c83d9f78bc1e309f755c759d190c973f7b4fae906060015b60405180910390a150505050565b6001546040517fd09a20c50000000000000000000000000000000000000000000000000000000081527f6f70657261746f725f706f6c696379000000000000000000000000000000000060048201819052336024830152916001600160a01b03169063d09a20c590604401600060405180830381600087803b15801561127c57600080fd5b505af1158015611290573d6000803e3d6000fd5b50506009546040517f41f19a4600000000000000000000000000000000000000000000000000000000815260048101879052602481018690526001600160a01b0390911692506341f19a469150604401600060405180830381600087803b1580156112fa57600080fd5b505af115801561130e573d6000803e3d6000fd5b5050505061131a6145f6565b505050565b6000546001600160a01b0316331461136a576040517f14fa403c0000000000000000000000000000000000000000000000000000000081523360048201526024015b60405180910390fd5b600080547fffffffffffffffffffffffff0000000000000000000000000000000000000000166001600160a01b0392909216919091179055565b6001546040517fd09a20c50000000000000000000000000000000000000000000000000000000081527f6f70657261746f725f706f6c696379000000000000000000000000000000000060048201819052336024830152916001600160a01b03169063d09a20c590604401600060405180830381600087803b15801561142957600080fd5b505af115801561143d573d6000803e3d6000fd5b5050600880547fffffffffffffffffffffffffffffffffffffffffffffffffffffffffffff00ff16905550611474905060016146ea565b61147e60006146ea565b50565b60606000600960009054906101000a90046001600160a01b03166001600160a01b0316631ae7ec2e6040518163ffffffff1660e01b8152600401602060405180830381865afa1580156114d8573d6000803e3d6000fd5b505050506040513d601f19601f820116820180604052508101906114fc9190616b98565b90506000600a60009054906101000a90046001600160a01b03166001600160a01b0316631ae7ec2e6040518163ffffffff1660e01b8152600401602060405180830381865afa158015611553573d6000803e3d6000fd5b505050506040513d601f19601f820116820180604052508101906115779190616b98565b90506000600b60009054906101000a90046001600160a01b03166001600160a01b0316631ae7ec2e6040518163ffffffff1660e01b8152600401602060405180830381865afa1580156115ce573d6000803e3d6000fd5b505050506040513d601f19601f820116820180604052508101906115f29190616b98565b60408051600d8082526101c08201909252919250816020015b604080518082019091526000808252602082015281526020019060019003908161160b575050604080518082019091527fffffffffff000000000000000000000000000000000000000000000000000000851681527f6d9a9a62000000000000000000000000000000000000000000000000000000006020820152815191955090859060009061169d5761169d616bda565b60200260200101819052506040518060400160405280847affffffffffffffffffffffffffffffffffffffffffffffffffffff19168152602001633e56993a60e01b7bffffffffffffffffffffffffffffffffffffffffffffffffffffffff19168152508460018151811061171457611714616bda565b60200260200101819052506040518060400160405280847affffffffffffffffffffffffffffffffffffffffffffffffffffff1916815260200163ae7e8d8160e01b7bffffffffffffffffffffffffffffffffffffffffffffffffffffffff19168152508460028151811061178b5761178b616bda565b60200260200101819052506040518060400160405280847affffffffffffffffffffffffffffffffffffffffffffffffffffff1916815260200162d1673960e01b7bffffffffffffffffffffffffffffffffffffffffffffffffffffffff19168152508460038151811061180157611801616bda565b60200260200101819052506040518060400160405280847affffffffffffffffffffffffffffffffffffffffffffffffffffff191681526020016341f19a4660e01b7bffffffffffffffffffffffffffffffffffffffffffffffffffffffff19168152508460048151811061187857611878616bda565b60200260200101819052506040518060400160405280847affffffffffffffffffffffffffffffffffffffffffffffffffffff191681526020016333bd33b460e01b7bffffffffffffffffffffffffffffffffffffffffffffffffffffffff1916815250846005815181106118ef576118ef616bda565b60200260200101819052506040518060400160405280837affffffffffffffffffffffffffffffffffffffffffffffffffffff19168152602001632f42aef560e01b7bffffffffffffffffffffffffffffffffffffffffffffffffffffffff19168152508460068151811061196657611966616bda565b60200260200101819052506040518060400160405280837affffffffffffffffffffffffffffffffffffffffffffffffffffff1916815260200163e6eb207a60e01b7bffffffffffffffffffffffffffffffffffffffffffffffffffffffff1916815250846007815181106119dd576119dd616bda565b60200260200101819052506040518060400160405280837affffffffffffffffffffffffffffffffffffffffffffffffffffff19168152602001638b7f3fb960e01b7bffffffffffffffffffffffffffffffffffffffffffffffffffffffff191681525084600881518110611a5457611a54616bda565b60200260200101819052506040518060400160405280827affffffffffffffffffffffffffffffffffffffffffffffffffffff1916815260200163bbaed5cb60e01b7bffffffffffffffffffffffffffffffffffffffffffffffffffffffff191681525084600981518110611acb57611acb616bda565b60200260200101819052506040518060400160405280827affffffffffffffffffffffffffffffffffffffffffffffffffffff19168152602001630152a5ea60e01b7bffffffffffffffffffffffffffffffffffffffffffffffffffffffff191681525084600a81518110611b4257611b42616bda565b60200260200101819052506040518060400160405280827affffffffffffffffffffffffffffffffffffffffffffffffffffff1916815260200163359fe78060e01b7bffffffffffffffffffffffffffffffffffffffffffffffffffffffff191681525084600b81518110611bb957611bb9616bda565b60200260200101819052506040518060400160405280827affffffffffffffffffffffffffffffffffffffffffffffffffffff19168152602001631b0a68f260e01b7bffffffffffffffffffffffffffffffffffffffffffffffffffffffff191681525084600c81518110611c3057611c30616bda565b602002602001018190525050505090565b600854610100900460ff161580611d695750600860029054906101000a90046001600160a01b03166001600160a01b0316637321f1006040518163ffffffff1660e01b8152600401602060405180830381865afa158015611ca6573d6000803e3d6000fd5b505050506040513d601f19601f82011682018060405250810190611cca9190616afa565b611cd5906003616c09565b600860029054906101000a90046001600160a01b03166001600160a01b031663d266f5d06040518163ffffffff1660e01b8152600401602060405180830381865afa158015611d28573d6000803e3d6000fd5b505050506040513d601f19601f82011682018060405250810190611d4c9190616afa565b611d569190616c37565b65ffffffffffff164265ffffffffffff16115b15611da0576040517f5ac0916c00000000000000000000000000000000000000000000000000000000815260040160405180910390fd5b6001546040517fd09a20c50000000000000000000000000000000000000000000000000000000081527f6f70657261746f725f6f7065726174650000000000000000000000000000000060048201819052336024830152916001600160a01b03169063d09a20c590604401600060405180830381600087803b158015611e2557600080fd5b505af1158015611e39573d6000803e3d6000fd5b505060085460ff169150611e7b9050576040517f79709bae00000000000000000000000000000000000000000000000000000000815260040160405180910390fd5b611e836145f6565b611e8b6148ed565b604080516101008101825260075463ffffffff80821683526401000000008204811660208401526801000000000000000082048116838501526c01000000000000000000000000820481166060840152700100000000000000000000000000000000820481166080840152740100000000000000000000000000000000000000008204811660a0840181905278010000000000000000000000000000000000000000000000008304821660c08501527c01000000000000000000000000000000000000000000000000000000009092041660e083015260095492517fe69f3c4e00000000000000000000000000000000000000000000000000000000815260016004820152919290916001600160a01b039091169063e69f3c4e90602401602060405180830381865afa158015611fc6573d6000803e3d6000fd5b505050506040513d601f19601f82011682018060405250810190611fea9190616c61565b611ff49190616c7a565b4265ffffffffffff161015801561201b575060c081015160055463ffffffff918216911610155b1561202a5761202a6001613f33565b60a08101516009546040517fe69f3c4e0000000000000000000000000000000000000000000000000000000081526000600482015263ffffffff909216916001600160a01b039091169063e69f3c4e90602401602060405180830381865afa15801561209a573d6000803e3d6000fd5b505050506040513d601f19601f820116820180604052508101906120be9190616c61565b6120c89190616c7a565b4265ffffffffffff16101580156120ef575060c081015160035463ffffffff918216911610155b156120fe576120fe6000613f33565b600954604080517fe97206a900000000000000000000000000000000000000000000000000000000815290516000926001600160a01b03169163e97206a9916004808301926102009291908290030181865afa158015612162573d6000803e3d6000fd5b505050506040513d601f19601f820116820180604052508101906121869190616e33565b90506000600860029054906101000a90046001600160a01b03166001600160a01b031663d8cf24fd6040518163ffffffff1660e01b8152600401602060405180830381865afa1580156121dd573d6000803e3d6000fd5b505050506040513d601f19601f820116820180604052508101906122019190616c61565b8251519091501561230557600c548251608001516040517f275074580000000000000000000000000000000000000000000000000000000081526001600160a01b039092169163275074589161225d9160040190815260200190565b602060405180830381865afa15801561227a573d6000803e3d6000fd5b505050506040513d601f19601f8201168201806040525081019061229e9190616a73565b156122d657604082015160200151518111806122c257506060820151602001515181105b156122d1576122d160006146ea565b612305565b60408201516020015151811080156122f657506060820151602001515181115b15612305576123056000614f0d565b6020820151511561240057600c546020830151608001516040517f275074580000000000000000000000000000000000000000000000000000000081526001600160a01b03909216916327507458916123649160040190815260200190565b602060405180830381865afa158015612381573d6000803e3d6000fd5b505050506040513d601f19601f820116820180604052508101906123a59190616a73565b156123d757604082015151518110806123c357506060820151515181115b156123d2576123d260016146ea565b612400565b60408201515151811180156123f157506060820151515181105b15612400576124006001614f0d565b50505050565b6001546040517fd09a20c50000000000000000000000000000000000000000000000000000000081527f6f70657261746f725f61646d696e00000000000000000000000000000000000060048201819052336024830152916001600160a01b03169063d09a20c590604401600060405180830381600087803b15801561248b57600080fd5b505af115801561249f573d6000803e3d6000fd5b505060085460ff161591506124e29050576040517f58b8d27500000000000000000000000000000000000000000000000000000000815260040160405180910390fd5b6124ea6145f6565b6124f46001613f33565b6124fe6000613f33565b50600880547fffffffffffffffffffffffffffffffffffffffffffffffffffffffffffff000016610101179055565b60408051600580825260c082019092526060916020820160a0803683370190505090507f50524943450000000000000000000000000000000000000000000000000000008160008151811061258457612584616bda565b7fffffffffff000000000000000000000000000000000000000000000000000000909216602092830291909101909101526125dc7f52414e474500000000000000000000000000000000000000000000000000000090565b816001815181106125ef576125ef616bda565b7fffffffffff000000000000000000000000000000000000000000000000000000909216602092830291909101909101526126477f545253525900000000000000000000000000000000000000000000000000000090565b8160028151811061265a5761265a616bda565b7fffffffffff000000000000000000000000000000000000000000000000000000909216602092830291909101909101526126b27f4d494e545200000000000000000000000000000000000000000000000000000090565b816003815181106126c5576126c5616bda565b7fffffffffff0000000000000000000000000000000000000000000000000000009092166020928302919091019091015261271d7f524f4c455300000000000000000000000000000000000000000000000000000090565b8160048151811061273057612730616bda565b60200260200101907affffffffffffffffffffffffffffffffffffffffffffffffffffff191690817affffffffffffffffffffffffffffffffffffffffffffffffffffff19168152505061279d8160008151811061279057612790616bda565b6020026020010151615cb1565b600860026101000a8154816001600160a01b0302191690836001600160a01b031602179055506127d98160018151811061279057612790616bda565b600960006101000a8154816001600160a01b0302191690836001600160a01b031602179055506128158160028151811061279057612790616bda565b600a60006101000a8154816001600160a01b0302191690836001600160a01b031602179055506128518160038151811061279057612790616bda565b600b60006101000a8154816001600160a01b0302191690836001600160a01b0316021790555061288d8160048151811061279057612790616bda565b600180547fffffffffffffffffffffffff0000000000000000000000000000000000000000166001600160a01b03928316179055600b54612913917f0000000000000000000000000000000000000000000000000000000000000000811691167fffffffffffffffffffffffffffffffffffffffffffffffffffffffffffffffff615dbf565b90565b600a546040517f15226b540000000000000000000000000000000000000000000000000000000081526001600160a01b037f00000000000000000000000000000000000000000000000000000000000000008116600483015260009283929116906315226b5490602401602060405180830381865afa15801561299d573d6000803e3d6000fd5b505050506040513d601f19601f820116820180604052508101906129c19190616c61565b600754909150600090612710906129f290700100000000000000000000000000000000900463ffffffff1684616ede565b6129fc9190616f1b565b90508315612c3e576009546040517f8c3f914a00000000000000000000000000000000000000000000000000000000815260016004820152612710916001600160a01b031690638c3f914a90602401602060405180830381865afa158015612a68573d6000803e3d6000fd5b505050506040513d601f19601f82011682018060405250810190612a8c9190616c61565b612a97906002616ede565b612aa390612710616c7a565b612c27600860029054906101000a90046001600160a01b03166001600160a01b031663313ce5676040518163ffffffff1660e01b8152600401602060405180830381865afa158015612af9573d6000803e3d6000fd5b505050506040513d601f19601f82011682018060405250810190612b1d9190616f2f565b612b2890600a617072565b612b537f0000000000000000000000000000000000000000000000000000000000000000600a617072565b612b5d9190616ede565b6009546040517f3778c2b200000000000000000000000000000000000000000000000000000000815260016004820181905260248201526001600160a01b0390911690633778c2b290604401602060405180830381865afa158015612bc6573d6000803e3d6000fd5b505050506040513d601f19601f82011682018060405250810190612bea9190616c61565b612c157f0000000000000000000000000000000000000000000000000000000000000000600a617072565b612c1f9190616ede565b859190615f1b565b612c319190616ede565b612c3b9190616f1b565b90505b9392505050565b600854600090610100900460ff161580612d705750600860029054906101000a90046001600160a01b03166001600160a01b0316637321f1006040518163ffffffff1660e01b8152600401602060405180830381865afa158015612cad573d6000803e3d6000fd5b505050506040513d601f19601f82011682018060405250810190612cd19190616afa565b612cdc906003616c09565b600860029054906101000a90046001600160a01b03166001600160a01b031663d266f5d06040518163ffffffff1660e01b8152600401602060405180830381865afa158015612d2f573d6000803e3d6000fd5b505050506040513d601f19601f82011682018060405250810190612d539190616afa565b612d5d9190616c37565b65ffffffffffff164265ffffffffffff16115b15612da7576040517f5ac0916c00000000000000000000000000000000000000000000000000000000815260040160405180910390fd5b600254600114612e13576040517f08c379a000000000000000000000000000000000000000000000000000000000815260206004820152600a60248201527f5245454e5452414e4359000000000000000000000000000000000000000000006044820152606401611361565b600280556001600160a01b037f0000000000000000000000000000000000000000000000000000000000000000811690851603613150576009546040517f59d236e6000000000000000000000000000000000000000000000000000000008152600060048201526001600160a01b03909116906359d236e690602401602060405180830381865afa158015612eac573d6000803e3d6000fd5b505050506040513d601f19601f82011682018060405250810190612ed09190616a73565b612f06576040517f1c184ff500000000000000000000000000000000000000000000000000000000815260040160405180910390fd5b612f1084846138bd565b905081811015612f56576040517fc2d2c7430000000000000000000000000000000000000000000000000000000081526004810182905260248101839052604401611361565b612f61600082615fe6565b612f6b60006160cf565b612fa06001600160a01b037f0000000000000000000000000000000000000000000000000000000000000000163330866163a0565b600b546040517f0152a5ea000000000000000000000000000000000000000000000000000000008152306004820152602481018590526001600160a01b0390911690630152a5ea90604401600060405180830381600087803b15801561300557600080fd5b505af1158015613019573d6000803e3d6000fd5b5050600a546040517f2f42aef50000000000000000000000000000000000000000000000000000000081523360048201526001600160a01b037f000000000000000000000000000000000000000000000000000000000000000081166024830152604482018690529091169250632f42aef59150606401600060405180830381600087803b1580156130aa57600080fd5b505af11580156130be573d6000803e3d6000fd5b505060408051868152602081018590526001600160a01b037f0000000000000000000000000000000000000000000000000000000000000000811694507f00000000000000000000000000000000000000000000000000000000000000001692507ffa2dda1cc1b86e41239702756b13effbc1a092b5c57e3ad320fbe4f3b13fe23591015b60405180910390a361341a565b7f00000000000000000000000000000000000000000000000000000000000000006001600160a01b0316846001600160a01b0316036133e8576009546040517f59d236e6000000000000000000000000000000000000000000000000000000008152600160048201526001600160a01b03909116906359d236e690602401602060405180830381865afa1580156131eb573d6000803e3d6000fd5b505050506040513d601f19601f8201168201806040525081019061320f9190616a73565b613245576040517f1c184ff500000000000000000000000000000000000000000000000000000000815260040160405180910390fd5b61324f84846138bd565b905081811015613295576040517fc2d2c7430000000000000000000000000000000000000000000000000000000081526004810182905260248101839052604401611361565b6132a0600182615fe6565b6132aa60016160cf565b600a546132e6906001600160a01b037f0000000000000000000000000000000000000000000000000000000000000000811691339116866163a0565b600b546040517fbbaed5cb000000000000000000000000000000000000000000000000000000008152336004820152602481018390526001600160a01b039091169063bbaed5cb90604401600060405180830381600087803b15801561334b57600080fd5b505af115801561335f573d6000803e3d6000fd5b505060408051868152602081018590526001600160a01b037f0000000000000000000000000000000000000000000000000000000000000000811694507f00000000000000000000000000000000000000000000000000000000000000001692507ffa2dda1cc1b86e41239702756b13effbc1a092b5c57e3ad320fbe4f3b13fe2359101613143565b6040517f42a67ad000000000000000000000000000000000000000000000000000000000815260040160405180910390fd5b60016002559392505050565b6001546040517fd09a20c50000000000000000000000000000000000000000000000000000000081527f6f70657261746f725f706f6c696379000000000000000000000000000000000060048201819052336024830152916001600160a01b03169063d09a20c590604401600060405180830381600087803b1580156134ab57600080fd5b505af11580156134bf573d6000803e3d6000fd5b5050505061271063ffffffff168263ffffffff1611806134e55750606463ffffffff8316105b1561351c576040517f42a67ad000000000000000000000000000000000000000000000000000000000815260040160405180910390fd5b600780547fffffffffffffffffffffffffffffffffffffffffffffffffffffffff000000001663ffffffff84169081179091556040519081527f5760955ed2acbd2b290c0a6edf1c0bc845f64f1da0b9f89582fac3daade8dff5906020016107cb565b600854610100900460ff1615806136a75750600860029054906101000a90046001600160a01b03166001600160a01b0316637321f1006040518163ffffffff1660e01b8152600401602060405180830381865afa1580156135e4573d6000803e3d6000fd5b505050506040513d601f19601f820116820180604052508101906136089190616afa565b613613906003616c09565b600860029054906101000a90046001600160a01b03166001600160a01b031663d266f5d06040518163ffffffff1660e01b8152600401602060405180830381865afa158015613666573d6000803e3d6000fd5b505050506040513d601f19601f8201168201806040525081019061368a9190616afa565b6136949190616c37565b65ffffffffffff164265ffffffffffff16115b156136de576040517f5ac0916c00000000000000000000000000000000000000000000000000000000815260040160405180910390fd5b6001546040517fd09a20c50000000000000000000000000000000000000000000000000000000081527f6f70657261746f725f7265706f7274657200000000000000000000000000000060048201819052336024830152916001600160a01b03169063d09a20c590604401600060405180830381600087803b15801561376357600080fd5b505af1158015613777573d6000803e3d6000fd5b50506009546040517fc45e91d6000000000000000000000000000000000000000000000000000000008152600160048201526001600160a01b03909116925063c45e91d69150602401602060405180830381865afa1580156137dd573d6000803e3d6000fd5b505050506040513d601f19601f820116820180604052508101906138019190616c61565b830361381c57613812600183615fe6565b61381c60016160cf565b6009546040517fc45e91d6000000000000000000000000000000000000000000000000000000008152600060048201526001600160a01b039091169063c45e91d690602401602060405180830381865afa15801561387e573d6000803e3d6000fd5b505050506040513d601f19601f820116820180604052508101906138a29190616c61565b830361131a576138b3600083615fe6565b61131a60006160cf565b60007f00000000000000000000000000000000000000000000000000000000000000006001600160a01b0316836001600160a01b031603613b36576009546040517f3778c2b20000000000000000000000000000000000000000000000000000000081526001600482015260006024820181905291613a6e916001600160a01b0390911690633778c2b290604401602060405180830381865afa158015613968573d6000803e3d6000fd5b505050506040513d601f19601f8201168201806040525081019061398c9190616c61565b6139b77f0000000000000000000000000000000000000000000000000000000000000000600a617072565b6139c19190616ede565b600860029054906101000a90046001600160a01b03166001600160a01b031663313ce5676040518163ffffffff1660e01b8152600401602060405180830381865afa158015613a14573d6000803e3d6000fd5b505050506040513d601f19601f82011682018060405250810190613a389190616f2f565b613a4390600a617072565b612c157f0000000000000000000000000000000000000000000000000000000000000000600a617072565b6009546040517fbf30142b000000000000000000000000000000000000000000000000000000008152600060048201529192506001600160a01b03169063bf30142b906024015b602060405180830381865afa158015613ad2573d6000803e3d6000fd5b505050506040513d601f19601f82011682018060405250810190613af69190616c61565b811115613b2f576040517f2c05036100000000000000000000000000000000000000000000000000000000815260040160405180910390fd5b9050613c12565b7f00000000000000000000000000000000000000000000000000000000000000006001600160a01b0316836001600160a01b0316036133e8576000613bc7600860029054906101000a90046001600160a01b03166001600160a01b031663313ce5676040518163ffffffff1660e01b8152600401602060405180830381865afa158015612af9573d6000803e3d6000fd5b6009546040517fbf30142b000000000000000000000000000000000000000000000000000000008152600160048201529192506001600160a01b03169063bf30142b90602401613ab5565b92915050565b6001546040517fd09a20c50000000000000000000000000000000000000000000000000000000081527f6f70657261746f725f706f6c696379000000000000000000000000000000000060048201819052336024830152916001600160a01b03169063d09a20c590604401600060405180830381600087803b158015613c9d57600080fd5b505af1158015613cb1573d6000803e3d6000fd5b50505050610cf5826146ea565b6001546040517fd09a20c50000000000000000000000000000000000000000000000000000000081527f6f70657261746f725f706f6c696379000000000000000000000000000000000060048201819052336024830152916001600160a01b03169063d09a20c590604401600060405180830381600087803b158015613d4357600080fd5b505af1158015613d57573d6000803e3d6000fd5b5050505062093a808463ffffffff161180613d7a5750620151808463ffffffff16105b15613db1576040517f42a67ad000000000000000000000000000000000000000000000000000000000815260040160405180910390fd5b61271063ffffffff84161015613df3576040517f42a67ad000000000000000000000000000000000000000000000000000000000815260040160405180910390fd5b610e1063ffffffff83161080613e1457508363ffffffff168263ffffffff16115b15613e4b576040517f42a67ad000000000000000000000000000000000000000000000000000000000815260040160405180910390fd5b600780547fffffffffffffffffffffffffffffffffffffffff0000000000000000ffffffff1664010000000063ffffffff8781169182027fffffffffffffffffffffffffffffffffffffffff00000000ffffffffffffffff169290921768010000000000000000878416908102919091177fffffffffffffffffffffffffffffffff00000000ffffffffffffffffffffffff166c0100000000000000000000000093871693840217909355604080519182526020820193909352918201527f6627cd780fa2d7faf558f4d9d700a0852b79903fd60ce8c0f734103cf8aa12b8906060016111e9565b613f3c816146ea565b801561427857600580547fffffffffffffffffffffffffffffffffffffffffffffffffffffffff000000001690556007547c0100000000000000000000000000000000000000000000000000000000900463ffffffff1667ffffffffffffffff811115613fab57613fab616b69565b604051908082528060200260200182016040528015613fd4578160200160208202803683370190505b508051613fe9916006916020909101906165b0565b50600580547fffffffffffffffffffffffffffffffffffff00000000000000000000ffffffff166401000000004265ffffffffffff1602179055600061402f6001612916565b600b546040517f664aecb00000000000000000000000000000000000000000000000000000000081523060048201529192506000916001600160a01b039091169063664aecb090602401602060405180830381865afa158015614096573d6000803e3d6000fd5b505050506040513d601f19601f820116820180604052508101906140ba9190616c61565b90508181101561415b57600b546001600160a01b031663359fe780306140e08486617081565b6040517fffffffff0000000000000000000000000000000000000000000000000000000060e085901b1681526001600160a01b0390921660048301526024820152604401600060405180830381600087803b15801561413e57600080fd5b505af1158015614152573d6000803e3d6000fd5b505050506141f6565b818111156141f657600b546001600160a01b0316631b0a68f23061417f8585617081565b6040517fffffffff0000000000000000000000000000000000000000000000000000000060e085901b1681526001600160a01b0390921660048301526024820152604401600060405180830381600087803b1580156141dd57600080fd5b505af11580156141f1573d6000803e3d6000fd5b505050505b6009546040517ed1673900000000000000000000000000000000000000000000000000000000815260016004820152602481018490526001600160a01b039091169062d16739906044015b600060405180830381600087803b15801561425b57600080fd5b505af115801561426f573d6000803e3d6000fd5b50505050505050565b600380547fffffffffffffffffffffffffffffffffffffffffffffffffffffffff000000001690556007547c0100000000000000000000000000000000000000000000000000000000900463ffffffff1667ffffffffffffffff8111156142e1576142e1616b69565b60405190808252806020026020018201604052801561430a578160200160208202803683370190505b50805161431f916004916020909101906165b0565b50600380547fffffffffffffffffffffffffffffffffffff00000000000000000000ffffffff166401000000004265ffffffffffff1602179055600061436481612916565b600a546040517f5f0736a10000000000000000000000000000000000000000000000000000000081523060048201526001600160a01b037f00000000000000000000000000000000000000000000000000000000000000008116602483015292935060009290911690635f0736a190604401602060405180830381865afa1580156143f3573d6000803e3d6000fd5b505050506040513d601f19601f820116820180604052508101906144179190616c61565b9050818110156144e257600a546001600160a01b031663e6eb207a307f000000000000000000000000000000000000000000000000000000000000000061445e8587617081565b6040517fffffffff0000000000000000000000000000000000000000000000000000000060e086901b1681526001600160a01b0393841660048201529290911660248301526044820152606401600060405180830381600087803b1580156144c557600080fd5b505af11580156144d9573d6000803e3d6000fd5b505050506145a7565b818111156145a757600a546001600160a01b0316638b7f3fb9307f00000000000000000000000000000000000000000000000000000000000000006145278686617081565b6040517fffffffff0000000000000000000000000000000000000000000000000000000060e086901b1681526001600160a01b0393841660048201529290911660248301526044820152606401600060405180830381600087803b15801561458e57600080fd5b505af11580156145a2573d6000803e3d6000fd5b505050505b6009546040517ed1673900000000000000000000000000000000000000000000000000000000815260006004820152602481018490526001600160a01b039091169062d1673990604401614241565b6000600860029054906101000a90046001600160a01b03166001600160a01b031663bd01bb326040518163ffffffff1660e01b8152600401602060405180830381865afa15801561464b573d6000803e3d6000fd5b505050506040513d601f19601f8201168201806040525081019061466f9190616c61565b6009546040517fae7e8d81000000000000000000000000000000000000000000000000000000008152600481018390529192506001600160a01b03169063ae7e8d8190602401600060405180830381600087803b1580156146cf57600080fd5b505af11580156146e3573d6000803e3d6000fd5b5050505050565b6009546040517fc45e91d600000000000000000000000000000000000000000000000000000000815282151560048201526000916001600160a01b03169063c45e91d690602401602060405180830381865afa15801561474e573d6000803e3d6000fd5b505050506040513d601f19601f820116820180604052508101906147729190616c61565b600c546040517f27507458000000000000000000000000000000000000000000000000000000008152600481018390529192506001600160a01b031690632750745890602401602060405180830381865afa1580156147d5573d6000803e3d6000fd5b505050506040513d601f19601f820116820180604052508101906147f99190616a73565b15610cf557600c546040517fae418095000000000000000000000000000000000000000000000000000000008152600481018390526001600160a01b039091169063ae41809590602401600060405180830381600087803b15801561485d57600080fd5b505af1158015614871573d6000803e3d6000fd5b50506009546040517f3e56993a00000000000000000000000000000000000000000000000000000000815285151560048201527fffffffffffffffffffffffffffffffffffffffffffffffffffffffffffffffff6024820152600060448201526001600160a01b039091169250633e56993a9150606401610ddc565b6000600860029054906101000a90046001600160a01b03166001600160a01b031663bd01bb326040518163ffffffff1660e01b8152600401602060405180830381865afa158015614942573d6000803e3d6000fd5b505050506040513d601f19601f820116820180604052508101906149669190616c61565b90506000600860029054906101000a90046001600160a01b03166001600160a01b031663d8cf24fd6040518163ffffffff1660e01b8152600401602060405180830381865afa1580156149bd573d6000803e3d6000fd5b505050506040513d601f19601f820116820180604052508101906149e19190616c61565b600754604080516080810182526003805463ffffffff818116845265ffffffffffff6401000000008304166020808601919091526a0100000000000000000000909204811684860152600480548651818502810185019097528087529798507c0100000000000000000000000000000000000000000000000000000000909604169560009593949293606086019392909190830182828015614ac257602002820191906000526020600020906000905b825461010083900a900460ff161515815260206001928301818104948501949093039092029101808411614a915790505b5050505050815250509050838310614b86578060600151816040015163ffffffff1681518110614af457614af4616bda565b6020026020010151614b815760408101516004805460019263ffffffff16908110614b2157614b21616bda565b60009182526020808320908204018054931515601f9092166101000a91820260ff90920219909316179091556003805463ffffffff1691614b6183617098565b91906101000a81548163ffffffff021916908363ffffffff160217905550505b614c34565b8060600151816040015163ffffffff1681518110614ba657614ba6616bda565b602002602001015115614c345760408101516004805460009263ffffffff16908110614bd457614bd4616bda565b60009182526020808320908204018054931515601f9092166101000a91820260ff90920219909316179091556003805463ffffffff1691614c14836170bb565b91906101000a81548163ffffffff021916908363ffffffff160217905550505b8181604001516001614c4691906170f9565b614c509190617118565b600380547fffffffffffffffffffffffffffffffffffff00000000ffffffffffffffffffff166a010000000000000000000063ffffffff93841681029190911790915560408051608081018252600580548086168352640100000000810465ffffffffffff16602080850191909152949004909416818301526006805483518186028101860190945280845291949360608601939290830182828015614d3557602002820191906000526020600020906000905b825461010083900a900460ff161515815260206001928301818104948501949093039092029101808411614d045790505b5050505050815250509050838311614df9578060600151816040015163ffffffff1681518110614d6757614d67616bda565b6020026020010151614df45760408101516006805460019263ffffffff16908110614d9457614d94616bda565b60009182526020808320908204018054931515601f9092166101000a91820260ff90920219909316179091556005805463ffffffff1691614dd483617098565b91906101000a81548163ffffffff021916908363ffffffff160217905550505b614ea7565b8060600151816040015163ffffffff1681518110614e1957614e19616bda565b602002602001015115614ea75760408101516006805460009263ffffffff16908110614e4757614e47616bda565b60009182526020808320908204018054931515601f9092166101000a91820260ff90920219909316179091556005805463ffffffff1691614e87836170bb565b91906101000a81548163ffffffff021916908363ffffffff160217905550505b8181604001516001614eb991906170f9565b614ec39190617118565b6005805463ffffffff929092166a0100000000000000000000027fffffffffffffffffffffffffffffffffffff00000000ffffffffffffffffffff90921691909117905550505050565b600954604080517fe97206a900000000000000000000000000000000000000000000000000000000815290516000926001600160a01b03169163e97206a9916004808301926102009291908290030181865afa158015614f71573d6000803e3d6000fd5b505050506040513d601f19601f82011682018060405250810190614f959190616e33565b905081156156065760408101515151600090614fb090616504565b90506000614fbf60028361713b565b6150097f00000000000000000000000000000000000000000000000000000000000000007f00000000000000000000000000000000000000000000000000000000000000006171af565b6150139190617211565b9050600082600860029054906101000a90046001600160a01b03166001600160a01b031663313ce5676040518163ffffffff1660e01b8152600401602060405180830381865afa15801561506b573d6000803e3d6000fd5b505050506040513d601f19601f8201168201806040525081019061508f9190616f2f565b61509991906171af565b6150a490600a617072565b90506000837f00000000000000000000000000000000000000000000000000000000000000007f00000000000000000000000000000000000000000000000000000000000000006150f6866024617211565b6151009190617211565b61510a91906171af565b61511491906171af565b61511f90600a617072565b905060006151a68284600860029054906101000a90046001600160a01b03166001600160a01b031663d8cf24fd6040518163ffffffff1660e01b8152600401602060405180830381865afa15801561517b573d6000803e3d6000fd5b505050506040513d601f19601f8201168201806040525081019061519f9190616c61565b9190615f1b565b604087015151519091506000906151be908486615f1b565b604080516101008101825260075463ffffffff808216808452640100000000830482166020808601919091526801000000000000000084048316858701526c01000000000000000000000000840483166060860152700100000000000000000000000000000000840483166080860152740100000000000000000000000000000000000000008404831660a086015278010000000000000000000000000000000000000000000000008404831660c08601527c0100000000000000000000000000000000000000000000000000000000909304821660e0850152918c01519093015193945090926000926152b7929061271090615f1b16565b905060006040518061018001604052807f00000000000000000000000000000000000000000000000000000000000000006001600160a01b031681526020017f00000000000000000000000000000000000000000000000000000000000000006001600160a01b03168152602001600d60009054906101000a90046001600160a01b03166001600160a01b03168152602001600015158152602001838152602001868152602001858152602001846040015163ffffffff168152602001600065ffffffffffff168152602001846020015163ffffffff16426153999190616c7a565b65ffffffffffff168152602001846060015163ffffffff1681526020018960000b81525090506000600c60009054906101000a90046001600160a01b03166001600160a01b03166353c7f8e0836040516020016153f69190617272565b6040516020818303038152906040526040518263ffffffff1660e01b8152600401615421919061737c565b6020604051808303816000875af1158015615440573d6000803e3d6000fd5b505050506040513d601f19601f820116820180604052508101906154649190616c61565b600d54600c54604080517f9787d10700000000000000000000000000000000000000000000000000000000815290519394506001600160a01b03928316936398fc55d89390921691639787d107916004808201926020929091908290030181865afa1580156154d7573d6000803e3d6000fd5b505050506040513d601f19601f820116820180604052508101906154fb91906173cd565b6040517fffffffff0000000000000000000000000000000000000000000000000000000060e084901b1681526001600160a01b03909116600482015260248101849052604401600060405180830381600087803b15801561555b57600080fd5b505af115801561556f573d6000803e3d6000fd5b50506009546040517f3e56993a0000000000000000000000000000000000000000000000000000000081526001600482015260248101859052604481018790526001600160a01b039091169250633e56993a9150606401600060405180830381600087803b1580156155e057600080fd5b505af11580156155f4573d6000803e3d6000fd5b50505050505050505050505050505050565b6000600860029054906101000a90046001600160a01b03166001600160a01b031663313ce5676040518163ffffffff1660e01b8152600401602060405180830381865afa15801561565b573d6000803e3d6000fd5b505050506040513d601f19601f8201168201806040525081019061567f9190616f2f565b6040830151602001515190915060009061569a8360026173ea565b6156a590600a617072565b6156af9190616f1b565b90506000600860029054906101000a90046001600160a01b03166001600160a01b031663d8cf24fd6040518163ffffffff1660e01b8152600401602060405180830381865afa158015615706573d6000803e3d6000fd5b505050506040513d601f19601f8201168201806040525081019061572a9190616c61565b6157358460026173ea565b61574090600a617072565b61574a9190616f1b565b9050600061575783616504565b9050600061576660028361713b565b6157b07f00000000000000000000000000000000000000000000000000000000000000007f00000000000000000000000000000000000000000000000000000000000000006171af565b6157ba9190617211565b905060006157c883876171af565b6157d390600a617072565b90506000837f00000000000000000000000000000000000000000000000000000000000000007f0000000000000000000000000000000000000000000000000000000000000000615825866024617211565b61582f9190617211565b61583991906171af565b61584391906171af565b61584e90600a617072565b9050600061585d868385615f1b565b9050600061586c888486615f1b565b604080516101008101825260075463ffffffff8082168084526401000000008304821660208501526801000000000000000083048216848601526c01000000000000000000000000830482166060850152700100000000000000000000000000000000830482166080850152740100000000000000000000000000000000000000008304821660a085015278010000000000000000000000000000000000000000000000008304821660c08501527c0100000000000000000000000000000000000000000000000000000000909204811660e08401528e5190930151939450909260009261595f929061271090615f1b16565b905060006040518061018001604052807f00000000000000000000000000000000000000000000000000000000000000006001600160a01b031681526020017f00000000000000000000000000000000000000000000000000000000000000006001600160a01b03168152602001600d60009054906101000a90046001600160a01b03166001600160a01b03168152602001600015158152602001838152602001868152602001858152602001846040015163ffffffff168152602001600065ffffffffffff168152602001846020015163ffffffff1642615a419190616c7a565b65ffffffffffff168152602001846060015163ffffffff1681526020018960000b81525090506000600c60009054906101000a90046001600160a01b03166001600160a01b03166353c7f8e083604051602001615a9e9190617272565b6040516020818303038152906040526040518263ffffffff1660e01b8152600401615ac9919061737c565b6020604051808303816000875af1158015615ae8573d6000803e3d6000fd5b505050506040513d601f19601f82011682018060405250810190615b0c9190616c61565b600d54600c54604080517f9787d10700000000000000000000000000000000000000000000000000000000815290519394506001600160a01b03928316936398fc55d89390921691639787d107916004808201926020929091908290030181865afa158015615b7f573d6000803e3d6000fd5b505050506040513d601f19601f82011682018060405250810190615ba391906173cd565b6040517fffffffff0000000000000000000000000000000000000000000000000000000060e084901b1681526001600160a01b03909116600482015260248101849052604401600060405180830381600087803b158015615c0357600080fd5b505af1158015615c17573d6000803e3d6000fd5b50506009546040517f3e56993a0000000000000000000000000000000000000000000000000000000081526000600482015260248101859052604481018790526001600160a01b039091169250633e56993a9150606401600060405180830381600087803b158015615c8857600080fd5b505af1158015615c9c573d6000803e3d6000fd5b50505050505050505050505050505050505050565b600080546040517fb4dc00b40000000000000000000000000000000000000000000000000000000081527fffffffffff0000000000000000000000000000000000000000000000000000008416600482015282916001600160a01b03169063b4dc00b490602401602060405180830381865afa158015615d35573d6000803e3d6000fd5b505050506040513d601f19601f82011682018060405250810190615d5991906173cd565b90506001600160a01b038116613c12576040517f5c3fa9cd0000000000000000000000000000000000000000000000000000000081527fffffffffff00000000000000000000000000000000000000000000000000000084166004820152602401611361565b604080516001600160a01b038481166024830152604480830185905283518084039091018152606490920183526020820180517bffffffffffffffffffffffffffffffffffffffffffffffffffffffff167f095ea7b3000000000000000000000000000000000000000000000000000000001790529151600092839290871691615e49919061740b565b6000604051808303816000865af19150503d8060008114615e86576040519150601f19603f3d011682016040523d82523d6000602084013e615e8b565b606091505b5091509150818015615eb5575080511580615eb5575080806020019051810190615eb59190616a73565b6146e3576040517f08c379a000000000000000000000000000000000000000000000000000000000815260206004820152600e60248201527f415050524f56455f4641494c45440000000000000000000000000000000000006044820152606401611361565b600080807fffffffffffffffffffffffffffffffffffffffffffffffffffffffffffffffff85870985870292508281108382030391505080600003615f725760008411615f6757600080fd5b508290049050612c3e565b808411615f7e57600080fd5b600084868809600260036001881981018916988990049182028318808302840302808302840302808302840302808302840302808302840302918202909203026000889003889004909101858311909403939093029303949094049190911702949350505050565b6009546040517fbf30142b000000000000000000000000000000000000000000000000000000008152831515600482015260009183916001600160a01b039091169063bf30142b90602401602060405180830381865afa15801561604e573d6000803e3d6000fd5b505050506040513d601f19601f820116820180604052508101906160729190616c61565b61607c9190617081565b6009546040517f6d9a9a620000000000000000000000000000000000000000000000000000000081528515156004820152602481018390529192506001600160a01b031690636d9a9a6290604401614241565b6009546040517f59d236e600000000000000000000000000000000000000000000000000000000815282151560048201526000916001600160a01b0316906359d236e690602401602060405180830381865afa158015616133573d6000803e3d6000fd5b505050506040513d601f19601f820116820180604052508101906161579190616a73565b6009546040517fc45e91d600000000000000000000000000000000000000000000000000000000815284151560048201529192506000916001600160a01b039091169063c45e91d690602401602060405180830381865afa1580156161c0573d6000803e3d6000fd5b505050506040513d601f19601f820116820180604052508101906161e49190616c61565b9050811580616392575081801561627c5750600c546040517f27507458000000000000000000000000000000000000000000000000000000008152600481018390526001600160a01b0390911690632750745890602401602060405180830381865afa158015616258573d6000803e3d6000fd5b505050506040513d601f19601f8201168201806040525081019061627c9190616a73565b80156163925750600c546040517f1c063a6c000000000000000000000000000000000000000000000000000000008152600481018390526001600160a01b0390911690631c063a6c90602401602060405180830381865afa1580156162e5573d6000803e3d6000fd5b505050506040513d601f19601f820116820180604052508101906163099190616c61565b6009546040517fbf30142b00000000000000000000000000000000000000000000000000000000815285151560048201526001600160a01b039091169063bf30142b90602401602060405180830381865afa15801561636c573d6000803e3d6000fd5b505050506040513d601f19601f820116820180604052508101906163909190616c61565b105b1561131a5761131a836146ea565b604080516001600160a01b0385811660248301528481166044830152606480830185905283518084039091018152608490920183526020820180517bffffffffffffffffffffffffffffffffffffffffffffffffffffffff167f23b872dd000000000000000000000000000000000000000000000000000000001790529151600092839290881691616432919061740b565b6000604051808303816000865af19150503d806000811461646f576040519150601f19603f3d011682016040523d82523d6000602084013e616474565b606091505b509150915081801561649e57508051158061649e57508080602001905181019061649e9190616a73565b610e0a576040517f08c379a000000000000000000000000000000000000000000000000000000000815260206004820152601460248201527f5452414e534645525f46524f4d5f4641494c45440000000000000000000000006044820152606401611361565b6000805b600a831061652f5761651b600a84616f1b565b92508061652781617427565b915050616508565b600860029054906101000a90046001600160a01b03166001600160a01b031663313ce5676040518163ffffffff1660e01b8152600401602060405180830381865afa158015616582573d6000803e3d6000fd5b505050506040513d601f19601f820116820180604052508101906165a69190616f2f565b612c3e90826171af565b82805482825590600052602060002090601f016020900481019282156166455791602002820160005b8382111561661657835183826101000a81548160ff02191690831515021790555092602001926001016020816000010492830192600103026165d9565b80156166435782816101000a81549060ff0219169055600101602081600001049283019260010302616616565b505b50616651929150616655565b5090565b5b808211156166515760008155600101616656565b803563ffffffff8116811461667e57600080fd5b919050565b60006020828403121561669557600080fd5b612c3e8261666a565b6001600160a01b038116811461147e57600080fd5b600080604083850312156166c657600080fd5b82356166d18161669e565b915060208301356166e18161669e565b809150509250929050565b60006080830163ffffffff808451168552602065ffffffffffff818601511681870152816040860151166040870152606085015191506080606087015282825180855260a0880191508284019450600093505b808410156167615784511515825293820193600193909301929082019061673f565b509695505050505050565b60208152600082516040602084015261678860608401826166ec565b905060208401517fffffffffffffffffffffffffffffffffffffffffffffffffffffffffffffffe08483030160408501526167c382826166ec565b95945050505050565b801515811461147e57600080fd5b6000602082840312156167ec57600080fd5b8135612c3e816167cc565b60006020828403121561680957600080fd5b5035919050565b60008060006060848603121561682557600080fd5b61682e8461666a565b925061683c6020850161666a565b915061684a6040850161666a565b90509250925092565b6000806040838503121561686657600080fd5b50508035926020909101359150565b60006020828403121561688757600080fd5b8135612c3e8161669e565b602080825282518282018190526000919060409081850190868401855b8281101561691857815180517fffffffffff0000000000000000000000000000000000000000000000000000001685528601517fffffffff00000000000000000000000000000000000000000000000000000000168685015292840192908501906001016168af565b5091979650505050505050565b60006101008201905063ffffffff8084511683528060208501511660208401528060408501511660408401528060608501511660608401528060808501511660808401528060a08501511660a08401525060c083015161698d60c084018263ffffffff169052565b5060e08301516169a560e084018263ffffffff169052565b5092915050565b6020808252825182820181905260009190848201906040850190845b81811015616a065783517fffffffffff00000000000000000000000000000000000000000000000000000016835292840192918401916001016169c8565b50909695505050505050565b600080600060608486031215616a2757600080fd5b8335616a328161669e565b95602085013595506040909401359392505050565b60008060408385031215616a5a57600080fd5b8235616a658161669e565b946020939093013593505050565b600060208284031215616a8557600080fd5b8151612c3e816167cc565b7f4e487b7100000000000000000000000000000000000000000000000000000000600052601160045260246000fd5b600063ffffffff83811690831681811015616adc57616adc616a90565b039392505050565b805165ffffffffffff8116811461667e57600080fd5b600060208284031215616b0c57600080fd5b612c3e82616ae4565b7f4e487b7100000000000000000000000000000000000000000000000000000000600052601260045260246000fd5b600065ffffffffffff80841680616b5d57616b5d616b15565b92169190910492915050565b7f4e487b7100000000000000000000000000000000000000000000000000000000600052604160045260246000fd5b600060208284031215616baa57600080fd5b81517fffffffffff00000000000000000000000000000000000000000000000000000081168114612c3e57600080fd5b7f4e487b7100000000000000000000000000000000000000000000000000000000600052603260045260246000fd5b600065ffffffffffff80831681851681830481118215151615616c2e57616c2e616a90565b02949350505050565b600065ffffffffffff808316818516808303821115616c5857616c58616a90565b01949350505050565b600060208284031215616c7357600080fd5b5051919050565b60008219821115616c8d57616c8d616a90565b500190565b600060a08284031215616ca457600080fd5b60405160a0810181811067ffffffffffffffff82111715616cee577f4e487b7100000000000000000000000000000000000000000000000000000000600052604160045260246000fd5b80604052508091508251616d01816167cc565b8152616d0f60208401616ae4565b60208201526040830151604082015260608301516060820152608083015160808201525092915050565b600060208284031215616d4b57600080fd5b6040516020810181811067ffffffffffffffff82111715616d95577f4e487b7100000000000000000000000000000000000000000000000000000000600052604160045260246000fd5b6040529151825250919050565b600060608284031215616db457600080fd5b6040516060810181811067ffffffffffffffff82111715616dfe577f4e487b7100000000000000000000000000000000000000000000000000000000600052604160045260246000fd5b604052905080616e0e8484616d39565b8152616e1d8460208501616d39565b6020820152604083015160408201525092915050565b60006102008284031215616e4657600080fd5b6040516080810181811067ffffffffffffffff82111715616e90577f4e487b7100000000000000000000000000000000000000000000000000000000600052604160045260246000fd5b604052616e9d8484616c92565b8152616eac8460a08501616c92565b6020820152616ebf846101408501616da2565b6040820152616ed2846101a08501616da2565b60608201529392505050565b6000817fffffffffffffffffffffffffffffffffffffffffffffffffffffffffffffffff0483118215151615616f1657616f16616a90565b500290565b600082616f2a57616f2a616b15565b500490565b600060208284031215616f4157600080fd5b815160ff81168114612c3e57600080fd5b600181815b80851115616fab57817fffffffffffffffffffffffffffffffffffffffffffffffffffffffffffffffff04821115616f9157616f91616a90565b80851615616f9e57918102915b93841c9390800290616f57565b509250929050565b600082616fc257506001613c12565b81616fcf57506000613c12565b8160018114616fe55760028114616fef5761700b565b6001915050613c12565b60ff84111561700057617000616a90565b50506001821b613c12565b5060208310610133831016604e8410600b841016171561702e575081810a613c12565b6170388383616f52565b807fffffffffffffffffffffffffffffffffffffffffffffffffffffffffffffffff0482111561706a5761706a616a90565b029392505050565b6000612c3e60ff841683616fb3565b60008282101561709357617093616a90565b500390565b600063ffffffff8083168181036170b1576170b1616a90565b6001019392505050565b600063ffffffff8216806170d1576170d1616a90565b7fffffffffffffffffffffffffffffffffffffffffffffffffffffffffffffffff0192915050565b600063ffffffff808316818516808303821115616c5857616c58616a90565b600063ffffffff8084168061712f5761712f616b15565b92169190910692915050565b60008160000b8360000b8061715257617152616b15565b7fffffffffffffffffffffffffffffffffffffffffffffffffffffffffffffffff81147fffffffffffffffffffffffffffffffffffffffffffffffffffffffffffffff80831416156171a6576171a6616a90565b90059392505050565b60008160000b8360000b60008112817fffffffffffffffffffffffffffffffffffffffffffffffffffffffffffffff80018312811516156171f2576171f2616a90565b81607f01831381161561720757617207616a90565b5090039392505050565b60008160000b8360000b6000821282607f0382138115161561723557617235616a90565b827fffffffffffffffffffffffffffffffffffffffffffffffffffffffffffffff8003821281161561726957617269616a90565b50019392505050565b81516001600160a01b031681526101808101602083015161729e60208401826001600160a01b03169052565b5060408301516172b960408401826001600160a01b03169052565b5060608301516172cd606084018215159052565b506080830151608083015260a083015160a083015260c083015160c083015260e083015161730360e084018263ffffffff169052565b506101008381015165ffffffffffff9081169184019190915261012080850151909116908301526101408084015163ffffffff16908301526101609283015160000b929091019190915290565b60005b8381101561736b578181015183820152602001617353565b838111156124005750506000910152565b602081526000825180602084015261739b816040850160208701617350565b601f017fffffffffffffffffffffffffffffffffffffffffffffffffffffffffffffffe0169190910160400192915050565b6000602082840312156173df57600080fd5b8151612c3e8161669e565b600060ff821660ff84168160ff048111821515161561706a5761706a616a90565b6000825161741d818460208701617350565b9190910192915050565b60008160000b607f810361743d5761743d616a90565b6001019291505056fea2646970667358221220508effc4646a5b8fa6c8f451a19e87d1c5a98f86d4f0cf7a8548f2c7cd4dd7c064736f6c634300080f0033",
    "linkReferences": {}
  },
  "methodIdentifiers": {
    "ONE_HUNDRED_PERCENT()": "dd0081c7",
    "ONE_PERCENT()": "bb2eb4d2",
    "ROLES()": "923cb952",
    "activate()": "0f15f4c0",
    "active()": "02fb0c5e",
    "auctioneer()": "5ec2c7bf",
    "bondPurchase(uint256,uint256)": "ab104771",
    "callback()": "083b2732",
    "changeKernel(address)": "4657b36c",
    "config()": "79502c55",
    "configureDependencies()": "9459b875",
    "deactivate()": "51b42b00",
    "deactivateCushion(bool)": "f2f6d5bb",
    "fullCapacity(bool)": "9e897711",
    "gdao()": "a29a0d90",
    "gdaoDecimals()": "6a839ed6",
    "getAmountOut(address,uint256)": "ca706bcf",
    "initialize()": "8129fc1c",
    "initialized()": "158ef93e",
    "isActive()": "22f3e2d4",
    "kernel()": "d4aae0c4",
    "operate()": "7159a618",
    "regenerate(bool)": "2ecd1f20",
    "requestPermissions()": "5924be70",
    "reserve()": "cd3293de",
    "reserveDecimals()": "6e703c2e",
    "setBondContracts(address,address)": "19f63dd7",
    "setCushionFactor(uint32)": "aa9760a1",
    "setCushionParams(uint32,uint32,uint32)": "f2fa4737",
    "setRegenParams(uint32,uint32,uint32)": "3a3f54bc",
    "setReserveFactor(uint32)": "01de9ba8",
    "setSpreads(uint256,uint256)": "41f19a46",
    "setThresholdFactor(uint256)": "33bd33b4",
    "status()": "200d2ed2",
    "swap(address,uint256,uint256)": "9f1d0f59"
  },
  "id": 111
}