{
  "abi": [
    {
      "inputs": [
        {
          "internalType": "contract Kernel",
          "name": "kernel_",
          "type": "address"
        }
      ],
      "stateMutability": "nonpayable",
      "type": "constructor"
    },
    {
      "inputs": [
        {
          "internalType": "address",
          "name": "caller_",
          "type": "address"
        }
      ],
      "name": "KernelAdapter_OnlyKernel",
      "type": "error"
    },
    {
      "inputs": [
        {
          "internalType": "address",
          "name": "policy_",
          "type": "address"
        }
      ],
      "name": "Module_PolicyNotPermitted",
      "type": "error"
    },
    {
      "inputs": [
        {
          "internalType": "address",
          "name": "addr_",
          "type": "address"
        },
        {
          "internalType": "bytes32",
          "name": "role_",
          "type": "bytes32"
        }
      ],
      "name": "ROLES_AddressAlreadyHasRole",
      "type": "error"
    },
    {
      "inputs": [
        {
          "internalType": "address",
          "name": "addr_",
          "type": "address"
        },
        {
          "internalType": "bytes32",
          "name": "role_",
          "type": "bytes32"
        }
      ],
      "name": "ROLES_AddressDoesNotHaveRole",
      "type": "error"
    },
    {
      "inputs": [
        {
          "internalType": "bytes32",
          "name": "role_",
          "type": "bytes32"
        }
      ],
      "name": "ROLES_InvalidRole",
      "type": "error"
    },
    {
      "inputs": [
        {
          "internalType": "bytes32",
          "name": "role_",
          "type": "bytes32"
        }
      ],
      "name": "ROLES_RequireRole",
      "type": "error"
    },
    {
      "inputs": [
        {
          "internalType": "bytes32",
          "name": "role_",
          "type": "bytes32"
        }
      ],
      "name": "ROLES_RoleDoesNotExist",
      "type": "error"
    },
    {
      "anonymous": false,
      "inputs": [
        {
          "indexed": true,
          "internalType": "bytes32",
          "name": "role_",
          "type": "bytes32"
        },
        {
          "indexed": true,
          "internalType": "address",
          "name": "addr_",
          "type": "address"
        }
      ],
      "name": "RoleGranted",
      "type": "event"
    },
    {
      "anonymous": false,
      "inputs": [
        {
          "indexed": true,
          "internalType": "bytes32",
          "name": "role_",
          "type": "bytes32"
        },
        {
          "indexed": true,
          "internalType": "address",
          "name": "addr_",
          "type": "address"
        }
      ],
      "name": "RoleRevoked",
      "type": "event"
    },
    {
      "inputs": [],
      "name": "INIT",
      "outputs": [],
      "stateMutability": "nonpayable",
      "type": "function"
    },
    {
      "inputs": [],
      "name": "KEYCODE",
      "outputs": [
        {
          "internalType": "Keycode",
          "name": "",
          "type": "bytes5"
        }
      ],
      "stateMutability": "pure",
      "type": "function"
    },
    {
      "inputs": [],
      "name": "VERSION",
      "outputs": [
        {
          "internalType": "uint8",
          "name": "major",
          "type": "uint8"
        },
        {
          "internalType": "uint8",
          "name": "minor",
          "type": "uint8"
        }
      ],
      "stateMutability": "pure",
      "type": "function"
    },
    {
      "inputs": [
        {
          "internalType": "contract Kernel",
          "name": "newKernel_",
          "type": "address"
        }
      ],
      "name": "changeKernel",
      "outputs": [],
      "stateMutability": "nonpayable",
      "type": "function"
    },
    {
      "inputs": [
        {
          "internalType": "bytes32",
          "name": "role_",
          "type": "bytes32"
        }
      ],
      "name": "ensureValidRole",
      "outputs": [],
      "stateMutability": "pure",
      "type": "function"
    },
    {
      "inputs": [
        {
          "internalType": "address",
          "name": "",
          "type": "address"
        },
        {
          "internalType": "bytes32",
          "name": "",
          "type": "bytes32"
        }
      ],
      "name": "hasRole",
      "outputs": [
        {
          "internalType": "bool",
          "name": "",
          "type": "bool"
        }
      ],
      "stateMutability": "view",
      "type": "function"
    },
    {
      "inputs": [],
      "name": "kernel",
      "outputs": [
        {
          "internalType": "contract Kernel",
          "name": "",
          "type": "address"
        }
      ],
      "stateMutability": "view",
      "type": "function"
    },
    {
      "inputs": [
        {
          "internalType": "bytes32",
          "name": "role_",
          "type": "bytes32"
        },
        {
          "internalType": "address",
          "name": "addr_",
          "type": "address"
        }
      ],
      "name": "removeRole",
      "outputs": [],
      "stateMutability": "nonpayable",
      "type": "function"
    },
    {
      "inputs": [
        {
          "internalType": "bytes32",
          "name": "role_",
          "type": "bytes32"
        },
        {
          "internalType": "address",
          "name": "caller_",
          "type": "address"
        }
      ],
      "name": "requireRole",
      "outputs": [],
      "stateMutability": "view",
      "type": "function"
    },
    {
      "inputs": [
        {
          "internalType": "bytes32",
          "name": "role_",
          "type": "bytes32"
        },
        {
          "internalType": "address",
          "name": "addr_",
          "type": "address"
        }
      ],
      "name": "saveRole",
      "outputs": [],
      "stateMutability": "nonpayable",
      "type": "function"
    }
  ],
  "bytecode": {
    "object": "0x608060405234801561001057600080fd5b50604051610b11380380610b1183398101604081905261002f91610054565b600080546001600160a01b0319166001600160a01b0392909216919091179055610084565b60006020828403121561006657600080fd5b81516001600160a01b038116811461007d57600080fd5b9392505050565b610a7e806100936000396000f3fe608060405234801561001057600080fd5b50600436106100be5760003560e01c8063d09a20c511610076578063ea6439141161005b578063ea643914146101c7578063f6ba0007146101cf578063ffa1ad74146101e257600080fd5b8063d09a20c51461016f578063d4aae0c41461018257600080fd5b80634657b36c116100a75780634657b36c1461010b578063656361ff1461011e578063ac4ab3fb1461013157600080fd5b80631ae7ec2e146100c357806340e312f8146100f6575b600080fd5b6040517f524f4c455300000000000000000000000000000000000000000000000000000081526020015b60405180910390f35b610109610104366004610939565b6101f7565b005b610109610119366004610977565b610375565b61010961012c36600461099b565b61040f565b61015f61013f3660046109cb565b600160209081526000928352604080842090915290825290205460ff1681565b60405190151581526020016100ed565b61010961017d36600461099b565b61064a565b6000546101a29073ffffffffffffffffffffffffffffffffffffffff1681565b60405173ffffffffffffffffffffffffffffffffffffffff90911681526020016100ed565b6101096106b7565b6101096101dd36600461099b565b61070c565b604080516001815260006020820152016100ed565b60005b6020811015610371576000828260208110610217576102176109f7565b1a60f81b90507f61000000000000000000000000000000000000000000000000000000000000007fff00000000000000000000000000000000000000000000000000000000000000821610806102ae57507f7a000000000000000000000000000000000000000000000000000000000000007fff000000000000000000000000000000000000000000000000000000000000008216115b80156102fc57507f5f000000000000000000000000000000000000000000000000000000000000007fff00000000000000000000000000000000000000000000000000000000000000821614155b801561032957507fff00000000000000000000000000000000000000000000000000000000000000811615155b15610368576040517f0eebce88000000000000000000000000000000000000000000000000000000008152600481018490526024015b60405180910390fd5b506001016101fa565b5050565b60005473ffffffffffffffffffffffffffffffffffffffff1633146103c8576040517f14fa403c00000000000000000000000000000000000000000000000000000000815233600482015260240161035f565b600080547fffffffffffffffffffffffff00000000000000000000000000000000000000001673ffffffffffffffffffffffffffffffffffffffff92909216919091179055565b60005473ffffffffffffffffffffffffffffffffffffffff1663f166d9eb7f524f4c45530000000000000000000000000000000000000000000000000000006040517fffffffff0000000000000000000000000000000000000000000000000000000060e084901b811682527fffffffffff0000000000000000000000000000000000000000000000000000009290921660048201523360248201526000359091166044820152606401602060405180830381865afa1580156104d6573d6000803e3d6000fd5b505050506040513d601f19601f820116820180604052508101906104fa9190610a26565b610532576040517f11bf00c900000000000000000000000000000000000000000000000000000000815233600482015260240161035f565b73ffffffffffffffffffffffffffffffffffffffff8116600090815260016020908152604080832085845290915290205460ff16156105bc576040517fbfa0c12400000000000000000000000000000000000000000000000000000000815273ffffffffffffffffffffffffffffffffffffffff821660048201526024810183905260440161035f565b6105c5826101f7565b73ffffffffffffffffffffffffffffffffffffffff8116600081815260016020818152604080842087855290915280832080547fffffffffffffffffffffffffffffffffffffffffffffffffffffffffffffff00169092179091555184917f2ae6a113c0ed5b78a53413ffbb7679881f11145ccfba4fb92e863dfcd5a1d2f391a35050565b73ffffffffffffffffffffffffffffffffffffffff8116600090815260016020908152604080832085845290915290205460ff16610371576040517f7de30f410000000000000000000000000000000000000000000000000000000081526004810183905260240161035f565b60005473ffffffffffffffffffffffffffffffffffffffff16331461070a576040517f14fa403c00000000000000000000000000000000000000000000000000000000815233600482015260240161035f565b565b60005473ffffffffffffffffffffffffffffffffffffffff1663f166d9eb7f524f4c45530000000000000000000000000000000000000000000000000000006040517fffffffff0000000000000000000000000000000000000000000000000000000060e084901b811682527fffffffffff0000000000000000000000000000000000000000000000000000009290921660048201523360248201526000359091166044820152606401602060405180830381865afa1580156107d3573d6000803e3d6000fd5b505050506040513d601f19601f820116820180604052508101906107f79190610a26565b61082f576040517f11bf00c900000000000000000000000000000000000000000000000000000000815233600482015260240161035f565b73ffffffffffffffffffffffffffffffffffffffff8116600090815260016020908152604080832085845290915290205460ff166108b8576040517fb2a720cc00000000000000000000000000000000000000000000000000000000815273ffffffffffffffffffffffffffffffffffffffff821660048201526024810183905260440161035f565b73ffffffffffffffffffffffffffffffffffffffff8116600081815260016020908152604080832086845290915280822080547fffffffffffffffffffffffffffffffffffffffffffffffffffffffffffffff001690555184917f155aaafb6329a2098580462df33ec4b7441b19729b9601c5fc17ae1cf99a8a5291a35050565b60006020828403121561094b57600080fd5b5035919050565b73ffffffffffffffffffffffffffffffffffffffff8116811461097457600080fd5b50565b60006020828403121561098957600080fd5b813561099481610952565b9392505050565b600080604083850312156109ae57600080fd5b8235915060208301356109c081610952565b809150509250929050565b600080604083850312156109de57600080fd5b82356109e981610952565b946020939093013593505050565b7f4e487b7100000000000000000000000000000000000000000000000000000000600052603260045260246000fd5b600060208284031215610a3857600080fd5b8151801515811461099457600080fdfea26469706673582212204a2123866fc4f0206298105956e8d49e6e18ef63350ef4ff4f3ce47b11f9527764736f6c634300080f0033",
    "linkReferences": {}
  },
  "methodIdentifiers": {
    "INIT()": "ea643914",
    "KEYCODE()": "1ae7ec2e",
    "VERSION()": "ffa1ad74",
    "changeKernel(address)": "4657b36c",
    "ensureValidRole(bytes32)": "40e312f8",
    "hasRole(address,bytes32)": "ac4ab3fb",
    "kernel()": "d4aae0c4",
    "removeRole(bytes32,address)": "f6ba0007",
    "requireRole(bytes32,address)": "d09a20c5",
    "saveRole(bytes32,address)": "656361ff"
  },
  "id": 98
}