{
  "abi": [
    {
      "inputs": [
        {
          "internalType": "contract Kernel",
          "name": "kernel_",
          "type": "address"
        }
      ],
      "stateMutability": "nonpayable",
      "type": "constructor"
    },
    {
      "inputs": [
        {
          "internalType": "address",
          "name": "caller_",
          "type": "address"
        }
      ],
      "name": "KernelAdapter_OnlyKernel",
      "type": "error"
    },
    {
      "inputs": [
        {
          "internalType": "address",
          "name": "policy_",
          "type": "address"
        }
      ],
      "name": "Module_PolicyNotPermitted",
      "type": "error"
    },
    {
      "inputs": [
        {
          "internalType": "address",
          "name": "addr_",
          "type": "address"
        },
        {
          "internalType": "bytes32",
          "name": "role_",
          "type": "bytes32"
        }
      ],
      "name": "ROLES_AddressAlreadyHasRole",
      "type": "error"
    },
    {
      "inputs": [
        {
          "internalType": "address",
          "name": "addr_",
          "type": "address"
        },
        {
          "internalType": "bytes32",
          "name": "role_",
          "type": "bytes32"
        }
      ],
      "name": "ROLES_AddressDoesNotHaveRole",
      "type": "error"
    },
    {
      "inputs": [
        {
          "internalType": "bytes32",
          "name": "role_",
          "type": "bytes32"
        }
      ],
      "name": "ROLES_InvalidRole",
      "type": "error"
    },
    {
      "inputs": [
        {
          "internalType": "bytes32",
          "name": "role_",
          "type": "bytes32"
        }
      ],
      "name": "ROLES_RequireRole",
      "type": "error"
    },
    {
      "inputs": [
        {
          "internalType": "bytes32",
          "name": "role_",
          "type": "bytes32"
        }
      ],
      "name": "ROLES_RoleDoesNotExist",
      "type": "error"
    },
    {
      "anonymous": false,
      "inputs": [
        {
          "indexed": true,
          "internalType": "bytes32",
          "name": "role_",
          "type": "bytes32"
        },
        {
          "indexed": true,
          "internalType": "address",
          "name": "addr_",
          "type": "address"
        }
      ],
      "name": "RoleGranted",
      "type": "event"
    },
    {
      "anonymous": false,
      "inputs": [
        {
          "indexed": true,
          "internalType": "bytes32",
          "name": "role_",
          "type": "bytes32"
        },
        {
          "indexed": true,
          "internalType": "address",
          "name": "addr_",
          "type": "address"
        }
      ],
      "name": "RoleRevoked",
      "type": "event"
    },
    {
      "inputs": [],
      "name": "INIT",
      "outputs": [],
      "stateMutability": "nonpayable",
      "type": "function"
    },
    {
      "inputs": [],
      "name": "KEYCODE",
      "outputs": [
        {
          "internalType": "Keycode",
          "name": "",
          "type": "bytes5"
        }
      ],
      "stateMutability": "pure",
      "type": "function"
    },
    {
      "inputs": [],
      "name": "VERSION",
      "outputs": [
        {
          "internalType": "uint8",
          "name": "major",
          "type": "uint8"
        },
        {
          "internalType": "uint8",
          "name": "minor",
          "type": "uint8"
        }
      ],
      "stateMutability": "pure",
      "type": "function"
    },
    {
      "inputs": [
        {
          "internalType": "contract Kernel",
          "name": "newKernel_",
          "type": "address"
        }
      ],
      "name": "changeKernel",
      "outputs": [],
      "stateMutability": "nonpayable",
      "type": "function"
    },
    {
      "inputs": [
        {
          "internalType": "bytes32",
          "name": "role_",
          "type": "bytes32"
        }
      ],
      "name": "ensureValidRole",
      "outputs": [],
      "stateMutability": "pure",
      "type": "function"
    },
    {
      "inputs": [
        {
          "internalType": "address",
          "name": "",
          "type": "address"
        },
        {
          "internalType": "bytes32",
          "name": "",
          "type": "bytes32"
        }
      ],
      "name": "hasRole",
      "outputs": [
        {
          "internalType": "bool",
          "name": "",
          "type": "bool"
        }
      ],
      "stateMutability": "view",
      "type": "function"
    },
    {
      "inputs": [],
      "name": "kernel",
      "outputs": [
        {
          "internalType": "contract Kernel",
          "name": "",
          "type": "address"
        }
      ],
      "stateMutability": "view",
      "type": "function"
    },
    {
      "inputs": [
        {
          "internalType": "bytes32",
          "name": "role_",
          "type": "bytes32"
        },
        {
          "internalType": "address",
          "name": "addr_",
          "type": "address"
        }
      ],
      "name": "removeRole",
      "outputs": [],
      "stateMutability": "nonpayable",
      "type": "function"
    },
    {
      "inputs": [
        {
          "internalType": "bytes32",
          "name": "role_",
          "type": "bytes32"
        },
        {
          "internalType": "address",
          "name": "caller_",
          "type": "address"
        }
      ],
      "name": "requireRole",
      "outputs": [],
      "stateMutability": "view",
      "type": "function"
    },
    {
      "inputs": [
        {
          "internalType": "bytes32",
          "name": "role_",
          "type": "bytes32"
        },
        {
          "internalType": "address",
          "name": "addr_",
          "type": "address"
        }
      ],
      "name": "saveRole",
      "outputs": [],
      "stateMutability": "nonpayable",
      "type": "function"
    }
  ],
  "bytecode": {
    "object": "0x608060405234801561001057600080fd5b506040516107bf3803806107bf83398101604081905261002f91610054565b600080546001600160a01b0319166001600160a01b0392909216919091179055610084565b60006020828403121561006657600080fd5b81516001600160a01b038116811461007d57600080fd5b9392505050565b61072c806100936000396000f3fe608060405234801561001057600080fd5b506004361061008e5760003560e01c80631ae7ec2e1461009357806340e312f8146100b95780634657b36c146100ce578063656361ff146100e1578063ac4ab3fb146100f4578063d09a20c514610132578063d4aae0c414610145578063ea64391414610165578063f6ba00071461016d578063ffa1ad7414610180575b600080fd5b61009b610195565b6040516001600160d81b031990911681526020015b60405180910390f35b6100cc6100c73660046105ab565b6101a1565b005b6100cc6100dc3660046105dc565b610252565b6100cc6100ef366004610600565b6102a1565b610122610102366004610630565b600160209081526000928352604080842090915290825290205460ff1681565b60405190151581526020016100b0565b6100cc610140366004610600565b6103f2565b600054610158906001600160a01b031681565b6040516100b0919061065c565b6100cc610439565b6100cc61017b366004610600565b610468565b604080516001815260006020820152016100b0565b64524f4c455360d81b90565b60005b602081101561024e5760008282602081106101c1576101c1610670565b1a60f81b9050606160f81b6001600160f81b0319821610806101f05750603d60f91b6001600160f81b03198216115b801561020a5750605f60f81b6001600160f81b0319821614155b801561021f57506001600160f81b0319811615155b15610245576040516301dd79d160e31b8152600481018490526024015b60405180910390fd5b506001016101a4565b5050565b6000546001600160a01b0316331461027f573360405163053e900f60e21b815260040161023c919061065c565b600080546001600160a01b0319166001600160a01b0392909216919091179055565b6000546001600160a01b031663f166d9eb6102ba610195565b336000356001600160e01b0319166040518463ffffffff1660e01b81526004016102e693929190610686565b602060405180830381865afa158015610303573d6000803e3d6000fd5b505050506040513d601f19601f8201168201806040525081019061032791906106bb565b61034657336040516311bf00c960e01b815260040161023c919061065c565b6001600160a01b038116600090815260016020908152604080832085845290915290205460ff161561038f578082604051632fe8304960e21b815260040161023c9291906106dd565b610398826101a1565b6001600160a01b0381166000818152600160208181526040808420878552909152808320805460ff19169092179091555184917f2ae6a113c0ed5b78a53413ffbb7679881f11145ccfba4fb92e863dfcd5a1d2f391a35050565b6001600160a01b038116600090815260016020908152604080832085845290915290205460ff1661024e57604051637de30f4160e01b81526004810183905260240161023c565b6000546001600160a01b03163314610466573360405163053e900f60e21b815260040161023c919061065c565b565b6000546001600160a01b031663f166d9eb610481610195565b336000356001600160e01b0319166040518463ffffffff1660e01b81526004016104ad93929190610686565b602060405180830381865afa1580156104ca573d6000803e3d6000fd5b505050506040513d601f19601f820116820180604052508101906104ee91906106bb565b61050d57336040516311bf00c960e01b815260040161023c919061065c565b6001600160a01b038116600090815260016020908152604080832085845290915290205460ff16610555578082604051632ca9c83360e21b815260040161023c9291906106dd565b6001600160a01b0381166000818152600160209081526040808320868452909152808220805460ff191690555184917f155aaafb6329a2098580462df33ec4b7441b19729b9601c5fc17ae1cf99a8a5291a35050565b6000602082840312156105bd57600080fd5b5035919050565b6001600160a01b03811681146105d957600080fd5b50565b6000602082840312156105ee57600080fd5b81356105f9816105c4565b9392505050565b6000806040838503121561061357600080fd5b823591506020830135610625816105c4565b809150509250929050565b6000806040838503121561064357600080fd5b823561064e816105c4565b946020939093013593505050565b6001600160a01b0391909116815260200190565b634e487b7160e01b600052603260045260246000fd5b6001600160d81b03199390931683526001600160a01b039190911660208301526001600160e01b031916604082015260600190565b6000602082840312156106cd57600080fd5b815180151581146105f957600080fd5b6001600160a01b0392909216825260208201526040019056fea2646970667358221220c5eb200c5facd5f511dcd4f6f6a3be1bc965cf5d9e65d51b7246eaf2f1be7e3d64736f6c634300080f0033",
    "linkReferences": {}
  },
  "methodIdentifiers": {
    "INIT()": "ea643914",
    "KEYCODE()": "1ae7ec2e",
    "VERSION()": "ffa1ad74",
    "changeKernel(address)": "4657b36c",
    "ensureValidRole(bytes32)": "40e312f8",
    "hasRole(address,bytes32)": "ac4ab3fb",
    "kernel()": "d4aae0c4",
    "removeRole(bytes32,address)": "f6ba0007",
    "requireRole(bytes32,address)": "d09a20c5",
    "saveRole(bytes32,address)": "656361ff"
  },
  "id": 76
}