{
  "abi": [
    {
      "inputs": [
        {
          "internalType": "contract Kernel",
          "name": "kernel_",
          "type": "address"
        },
        {
          "internalType": "contract IOperator",
          "name": "operator_",
          "type": "address"
        },
        {
          "internalType": "contract ERC20",
          "name": "rewardToken_",
          "type": "address"
        },
        {
          "internalType": "uint256",
          "name": "reward_",
          "type": "uint256"
        }
      ],
      "stateMutability": "nonpayable",
      "type": "constructor"
    },
    {
      "inputs": [],
      "name": "Heart_BeatAvailable",
      "type": "error"
    },
    {
      "inputs": [],
      "name": "Heart_BeatStopped",
      "type": "error"
    },
    {
      "inputs": [],
      "name": "Heart_InvalidParams",
      "type": "error"
    },
    {
      "inputs": [],
      "name": "Heart_OutOfCycle",
      "type": "error"
    },
    {
      "inputs": [
        {
          "internalType": "address",
          "name": "caller_",
          "type": "address"
        }
      ],
      "name": "KernelAdapter_OnlyKernel",
      "type": "error"
    },
    {
      "inputs": [
        {
          "internalType": "Keycode",
          "name": "keycode_",
          "type": "bytes5"
        }
      ],
      "name": "Policy_ModuleDoesNotExist",
      "type": "error"
    },
    {
      "anonymous": false,
      "inputs": [
        {
          "indexed": false,
          "internalType": "uint256",
          "name": "timestamp_",
          "type": "uint256"
        }
      ],
      "name": "Beat",
      "type": "event"
    },
    {
      "anonymous": false,
      "inputs": [
        {
          "indexed": false,
          "internalType": "address",
          "name": "to_",
          "type": "address"
        },
        {
          "indexed": false,
          "internalType": "uint256",
          "name": "rewardAmount_",
          "type": "uint256"
        }
      ],
      "name": "RewardIssued",
      "type": "event"
    },
    {
      "anonymous": false,
      "inputs": [
        {
          "indexed": false,
          "internalType": "contract ERC20",
          "name": "token_",
          "type": "address"
        },
        {
          "indexed": false,
          "internalType": "uint256",
          "name": "rewardAmount_",
          "type": "uint256"
        }
      ],
      "name": "RewardUpdated",
      "type": "event"
    },
    {
      "inputs": [],
      "name": "ROLES",
      "outputs": [
        {
          "internalType": "contract ROLESv1",
          "name": "",
          "type": "address"
        }
      ],
      "stateMutability": "view",
      "type": "function"
    },
    {
      "inputs": [],
      "name": "activate",
      "outputs": [],
      "stateMutability": "nonpayable",
      "type": "function"
    },
    {
      "inputs": [],
      "name": "active",
      "outputs": [
        {
          "internalType": "bool",
          "name": "",
          "type": "bool"
        }
      ],
      "stateMutability": "view",
      "type": "function"
    },
    {
      "inputs": [],
      "name": "beat",
      "outputs": [],
      "stateMutability": "nonpayable",
      "type": "function"
    },
    {
      "inputs": [
        {
          "internalType": "contract Kernel",
          "name": "newKernel_",
          "type": "address"
        }
      ],
      "name": "changeKernel",
      "outputs": [],
      "stateMutability": "nonpayable",
      "type": "function"
    },
    {
      "inputs": [],
      "name": "configureDependencies",
      "outputs": [
        {
          "internalType": "Keycode[]",
          "name": "dependencies",
          "type": "bytes5[]"
        }
      ],
      "stateMutability": "nonpayable",
      "type": "function"
    },
    {
      "inputs": [],
      "name": "deactivate",
      "outputs": [],
      "stateMutability": "nonpayable",
      "type": "function"
    },
    {
      "inputs": [],
      "name": "frequency",
      "outputs": [
        {
          "internalType": "uint256",
          "name": "",
          "type": "uint256"
        }
      ],
      "stateMutability": "view",
      "type": "function"
    },
    {
      "inputs": [],
      "name": "isActive",
      "outputs": [
        {
          "internalType": "bool",
          "name": "",
          "type": "bool"
        }
      ],
      "stateMutability": "view",
      "type": "function"
    },
    {
      "inputs": [],
      "name": "kernel",
      "outputs": [
        {
          "internalType": "contract Kernel",
          "name": "",
          "type": "address"
        }
      ],
      "stateMutability": "view",
      "type": "function"
    },
    {
      "inputs": [],
      "name": "lastBeat",
      "outputs": [
        {
          "internalType": "uint256",
          "name": "",
          "type": "uint256"
        }
      ],
      "stateMutability": "view",
      "type": "function"
    },
    {
      "inputs": [],
      "name": "operator",
      "outputs": [
        {
          "internalType": "contract IOperator",
          "name": "",
          "type": "address"
        }
      ],
      "stateMutability": "view",
      "type": "function"
    },
    {
      "inputs": [],
      "name": "requestPermissions",
      "outputs": [
        {
          "components": [
            {
              "internalType": "Keycode",
              "name": "keycode",
              "type": "bytes5"
            },
            {
              "internalType": "bytes4",
              "name": "funcSelector",
              "type": "bytes4"
            }
          ],
          "internalType": "struct Permissions[]",
          "name": "permissions",
          "type": "tuple[]"
        }
      ],
      "stateMutability": "view",
      "type": "function"
    },
    {
      "inputs": [],
      "name": "resetBeat",
      "outputs": [],
      "stateMutability": "nonpayable",
      "type": "function"
    },
    {
      "inputs": [],
      "name": "reward",
      "outputs": [
        {
          "internalType": "uint256",
          "name": "",
          "type": "uint256"
        }
      ],
      "stateMutability": "view",
      "type": "function"
    },
    {
      "inputs": [],
      "name": "rewardToken",
      "outputs": [
        {
          "internalType": "contract ERC20",
          "name": "",
          "type": "address"
        }
      ],
      "stateMutability": "view",
      "type": "function"
    },
    {
      "inputs": [
        {
          "internalType": "address",
          "name": "operator_",
          "type": "address"
        }
      ],
      "name": "setOperator",
      "outputs": [],
      "stateMutability": "nonpayable",
      "type": "function"
    },
    {
      "inputs": [
        {
          "internalType": "contract ERC20",
          "name": "token_",
          "type": "address"
        },
        {
          "internalType": "uint256",
          "name": "reward_",
          "type": "uint256"
        }
      ],
      "name": "setRewardTokenAndAmount",
      "outputs": [],
      "stateMutability": "nonpayable",
      "type": "function"
    },
    {
      "inputs": [
        {
          "internalType": "contract ERC20",
          "name": "token_",
          "type": "address"
        }
      ],
      "name": "withdrawUnspentRewards",
      "outputs": [],
      "stateMutability": "nonpayable",
      "type": "function"
    }
  ],
  "bytecode": {
    "object": "0x6080604052600160025534801561001557600080fd5b506040516112d23803806112d2833981016040819052610034916100a2565b600080546001600160a01b03199081166001600160a01b0396871617909155600880548216948616949094179093556003805460ff191660011790554260045560068054909316919093161790556005556100f5565b6001600160a01b038116811461009f57600080fd5b50565b600080600080608085870312156100b857600080fd5b84516100c38161008a565b60208601519094506100d48161008a565b60408601519093506100e58161008a565b6060959095015193969295505050565b6111ce806101046000396000f3fe608060405234801561001057600080fd5b50600436106100f15760003560e01c806302fb0c5e146100f65780630f15f4c014610118578063228cb7331461012257806322f3e2d4146101395780634657b36c1461014157806351b42b0014610154578063570ca7351461015c5780635924be701461017c57806363392990146101915780637a259dba146101a4578063923cb952146101ac5780639459b875146101bf5780639ab7d7e7146101d4578063b3ab15fb146101e7578063d3a7b7d3146101fa578063d4aae0c414610203578063ead50da314610216578063ef68b87d1461021e578063f7c618c114610226575b600080fd5b6003546101039060ff1681565b60405190151581526020015b60405180910390f35b610120610239565b005b61012b60055481565b60405190815260200161010f565b6101036102c4565b61012061014f366004610edc565b61033b565b610120610393565b60085461016f906001600160a01b031681565b60405161010f9190610f00565b610184610412565b60405161010f9190610f14565b61012061019f366004610f77565b610500565b610120610605565b60015461016f906001600160a01b031681565b6101c76107df565b60405161010f9190610fa3565b6101206101e2366004610edc565b6108fa565b6101206101f5366004610edc565b610a26565b61012b60045481565b60005461016f906001600160a01b031681565b61012b610abc565b610120610b36565b60065461016f906001600160a01b031681565b60015460405163d09a20c560e01b81526a3432b0b93a2fb0b236b4b760a91b916001600160a01b03169063d09a20c5906102799084903390600401610ff1565b600060405180830381600087803b15801561029357600080fd5b505af11580156102a7573d6000803e3d6000fd5b50506003805460ff19166001179055506102c19050610bac565b50565b6000805460405163e52223bb60e01b81526001600160a01b039091169063e52223bb906102f5903090600401610f00565b602060405180830381865afa158015610312573d6000803e3d6000fd5b505050506040513d601f19601f820116820180604052508101906103369190611008565b905090565b6000546001600160a01b03163314610371573360405163053e900f60e21b81526004016103689190610f00565b60405180910390fd5b600080546001600160a01b0319166001600160a01b0392909216919091179055565b60015460405163d09a20c560e01b81526a3432b0b93a2fb0b236b4b760a91b916001600160a01b03169063d09a20c5906103d39084903390600401610ff1565b600060405180830381600087803b1580156103ed57600080fd5b505af1158015610401573d6000803e3d6000fd5b50506003805460ff19169055505050565b604080516001808252818301909252606091816020015b604080518082019091526000808252602082015281526020019060019003908161042957505060408051808201808352600754630d73f61760e11b90915291519293509182916001600160a01b031690631ae7ec2e906044808501916020918187030181865afa1580156104a1573d6000803e3d6000fd5b505050506040513d601f19601f820116820180604052508101906104c5919061102a565b6001600160d81b031916815263086db7df60e41b602090910152815182906000906104f2576104f2611054565b602002602001018190525090565b60015460405163d09a20c560e01b81526a3432b0b93a2fb0b236b4b760a91b916001600160a01b03169063d09a20c5906105409084903390600401610ff1565b600060405180830381600087803b15801561055a57600080fd5b505af115801561056e573d6000803e3d6000fd5b5050505061057a610abc565b6004546105879190611080565b42106105a657604051630bcdbe2960e21b815260040160405180910390fd5b600680546001600160a01b0319166001600160a01b03851617905560058290556040517f401ccfec4c6c7ac3f3b71182750d0f8d73c0d29cc476732b0b21ab0d359da47f906105f89085908590611098565b60405180910390a1505050565b6002546001146106445760405162461bcd60e51b815260206004820152600a6024820152695245454e5452414e435960b01b6044820152606401610368565b6002805560035460ff1661066b57604051630137efe360e71b815260040160405180910390fd5b610673610abc565b6004546106809190611080565b4210156106a05760405163461bbb8360e11b815260040160405180910390fd5b600760009054906101000a90046001600160a01b03166001600160a01b03166386db7df06040518163ffffffff1660e01b8152600401600060405180830381600087803b1580156106f057600080fd5b505af1158015610704573d6000803e3d6000fd5b50505050600860009054906101000a90046001600160a01b03166001600160a01b0316637159a6186040518163ffffffff1660e01b8152600401600060405180830381600087803b15801561075857600080fd5b505af115801561076c573d6000803e3d6000fd5b50505050610778610abc565b60045461078590426110b1565b61078f91906110c8565b61079990426110b1565b6004556107a533610bc3565b6040514281527fd5215e0661831421a9ebc79f9d2848dbfc61213cf6ae3c92b45e17ea50be19109060200160405180910390a16001600255565b604080516002808252606080830184529260208301908036833701905050905064505249434560d81b8160008151811061081b5761081b611054565b6001600160d81b03199092166020928302919091019091015261084364524f4c455360d81b90565b8160018151811061085657610856611054565b60200260200101906001600160d81b03191690816001600160d81b0319168152505061089b8160008151811061088e5761088e611054565b6020026020010151610d0d565b600760006101000a8154816001600160a01b0302191690836001600160a01b031602179055506108d78160018151811061088e5761088e611054565b600180546001600160a01b0319166001600160a01b039290921691909117905590565b60015460405163d09a20c560e01b81526a3432b0b93a2fb0b236b4b760a91b916001600160a01b03169063d09a20c59061093a9084903390600401610ff1565b600060405180830381600087803b15801561095457600080fd5b505af1158015610968573d6000803e3d6000fd5b50505050610974610abc565b6004546109819190611080565b42106109a057604051630bcdbe2960e21b815260040160405180910390fd5b610a2233836001600160a01b03166370a08231306040518263ffffffff1660e01b81526004016109d09190610f00565b602060405180830381865afa1580156109ed573d6000803e3d6000fd5b505050506040513d601f19601f82011682018060405250810190610a1191906110ea565b6001600160a01b0385169190610db0565b5050565b60015460405163d09a20c560e01b81526a3432b0b93a2fb0b236b4b760a91b916001600160a01b03169063d09a20c590610a669084903390600401610ff1565b600060405180830381600087803b158015610a8057600080fd5b505af1158015610a94573d6000803e3d6000fd5b5050600880546001600160a01b0319166001600160a01b039590951694909417909355505050565b60075460408051627321f160e81b815290516000926001600160a01b031691637321f1009160048083019260209291908290030181865afa158015610b05573d6000803e3d6000fd5b505050506040513d601f19601f82011682018060405250810190610b299190611103565b65ffffffffffff16905090565b60015460405163d09a20c560e01b81526a3432b0b93a2fb0b236b4b760a91b916001600160a01b03169063d09a20c590610b769084903390600401610ff1565b600060405180830381600087803b158015610b9057600080fd5b505af1158015610ba4573d6000803e3d6000fd5b505050506102c15b610bb4610abc565b610bbe90426110b1565b600455565b6006546040516370a0823160e01b81526000916001600160a01b0316906370a0823190610bf4903090600401610f00565b602060405180830381865afa158015610c11573d6000803e3d6000fd5b505050506040513d601f19601f82011682018060405250810190610c3591906110ea565b60055411610c4557600554610cb6565b6006546040516370a0823160e01b81526001600160a01b03909116906370a0823190610c75903090600401610f00565b602060405180830381865afa158015610c92573d6000803e3d6000fd5b505050506040513d601f19601f82011682018060405250810190610cb691906110ea565b600654909150610cd0906001600160a01b03168383610db0565b7ff9b6ec770c96c3a6f9225bf3a8463a8ad03e884448af07b4ecd4d19d628946ee8282604051610d01929190611098565b60405180910390a15050565b60008054604051632d37002d60e21b815282916001600160a01b03169063b4dc00b490610d3e90869060040161112b565b602060405180830381865afa158015610d5b573d6000803e3d6000fd5b505050506040513d601f19601f82011682018060405250810190610d7f9190611140565b90506001600160a01b038116610daa5782604051635c3fa9cd60e01b8152600401610368919061112b565b92915050565b600080846001600160a01b031663a9059cbb60e01b8585604051602401610dd8929190611098565b60408051601f198184030181529181526020820180516001600160e01b03166001600160e01b0319909416939093179092529051610e16919061115d565b6000604051808303816000865af19150503d8060008114610e53576040519150601f19603f3d011682016040523d82523d6000602084013e610e58565b606091505b5091509150818015610e82575080511580610e82575080806020019051810190610e829190611008565b610ec05760405162461bcd60e51b815260206004820152600f60248201526e1514905394d1915497d19052531151608a1b6044820152606401610368565b5050505050565b6001600160a01b03811681146102c157600080fd5b600060208284031215610eee57600080fd5b8135610ef981610ec7565b9392505050565b6001600160a01b0391909116815260200190565b602080825282518282018190526000919060409081850190868401855b82811015610f6a57815180516001600160d81b03191685528601516001600160e01b031916868501529284019290850190600101610f31565b5091979650505050505050565b60008060408385031215610f8a57600080fd5b8235610f9581610ec7565b946020939093013593505050565b6020808252825182820181905260009190848201906040850190845b81811015610fe55783516001600160d81b03191683529284019291840191600101610fbf565b50909695505050505050565b9182526001600160a01b0316602082015260400190565b60006020828403121561101a57600080fd5b81518015158114610ef957600080fd5b60006020828403121561103c57600080fd5b81516001600160d81b031981168114610ef957600080fd5b634e487b7160e01b600052603260045260246000fd5b634e487b7160e01b600052601160045260246000fd5b600082198211156110935761109361106a565b500190565b6001600160a01b03929092168252602082015260400190565b6000828210156110c3576110c361106a565b500390565b6000826110e557634e487b7160e01b600052601260045260246000fd5b500690565b6000602082840312156110fc57600080fd5b5051919050565b60006020828403121561111557600080fd5b815165ffffffffffff81168114610ef957600080fd5b6001600160d81b031991909116815260200190565b60006020828403121561115257600080fd5b8151610ef981610ec7565b6000825160005b8181101561117e5760208186018101518583015201611164565b8181111561118d576000828501525b50919091019291505056fea264697066735822122023403bcdd3ba97588e90299341b00a62d0013ef29ecbdde4e1bfce9385888b1064736f6c634300080f0033",
    "linkReferences": {}
  },
  "methodIdentifiers": {
    "ROLES()": "923cb952",
    "activate()": "0f15f4c0",
    "active()": "02fb0c5e",
    "beat()": "7a259dba",
    "changeKernel(address)": "4657b36c",
    "configureDependencies()": "9459b875",
    "deactivate()": "51b42b00",
    "frequency()": "ead50da3",
    "isActive()": "22f3e2d4",
    "kernel()": "d4aae0c4",
    "lastBeat()": "d3a7b7d3",
    "operator()": "570ca735",
    "requestPermissions()": "5924be70",
    "resetBeat()": "ef68b87d",
    "reward()": "228cb733",
    "rewardToken()": "f7c618c1",
    "setOperator(address)": "b3ab15fb",
    "setRewardTokenAndAmount(address,uint256)": "63392990",
    "withdrawUnspentRewards(address)": "9ab7d7e7"
  },
  "id": 88
}