{
  "abi": [
    {
      "anonymous": false,
      "inputs": [
        {
          "indexed": true,
          "internalType": "int256",
          "name": "current",
          "type": "int256"
        },
        {
          "indexed": true,
          "internalType": "uint256",
          "name": "roundId",
          "type": "uint256"
        },
        {
          "indexed": false,
          "internalType": "uint256",
          "name": "updatedAt",
          "type": "uint256"
        }
      ],
      "name": "AnswerUpdated",
      "type": "event"
    },
    {
      "anonymous": false,
      "inputs": [
        {
          "indexed": true,
          "internalType": "uint256",
          "name": "roundId",
          "type": "uint256"
        },
        {
          "indexed": true,
          "internalType": "address",
          "name": "startedBy",
          "type": "address"
        },
        {
          "indexed": false,
          "internalType": "uint256",
          "name": "startedAt",
          "type": "uint256"
        }
      ],
      "name": "NewRound",
      "type": "event"
    },
    {
      "inputs": [],
      "name": "decimals",
      "outputs": [
        {
          "internalType": "uint8",
          "name": "",
          "type": "uint8"
        }
      ],
      "stateMutability": "view",
      "type": "function"
    },
    {
      "inputs": [],
      "name": "description",
      "outputs": [
        {
          "internalType": "string",
          "name": "",
          "type": "string"
        }
      ],
      "stateMutability": "view",
      "type": "function"
    },
    {
      "inputs": [
        {
          "internalType": "uint256",
          "name": "roundId",
          "type": "uint256"
        }
      ],
      "name": "getAnswer",
      "outputs": [
        {
          "internalType": "int256",
          "name": "",
          "type": "int256"
        }
      ],
      "stateMutability": "view",
      "type": "function"
    },
    {
      "inputs": [
        {
          "internalType": "uint80",
          "name": "_roundId",
          "type": "uint80"
        }
      ],
      "name": "getRoundData",
      "outputs": [
        {
          "internalType": "uint80",
          "name": "roundId",
          "type": "uint80"
        },
        {
          "internalType": "int256",
          "name": "answer",
          "type": "int256"
        },
        {
          "internalType": "uint256",
          "name": "startedAt",
          "type": "uint256"
        },
        {
          "internalType": "uint256",
          "name": "updatedAt",
          "type": "uint256"
        },
        {
          "internalType": "uint80",
          "name": "answeredInRound",
          "type": "uint80"
        }
      ],
      "stateMutability": "view",
      "type": "function"
    },
    {
      "inputs": [
        {
          "internalType": "uint256",
          "name": "roundId",
          "type": "uint256"
        }
      ],
      "name": "getTimestamp",
      "outputs": [
        {
          "internalType": "uint256",
          "name": "",
          "type": "uint256"
        }
      ],
      "stateMutability": "view",
      "type": "function"
    },
    {
      "inputs": [],
      "name": "latestAnswer",
      "outputs": [
        {
          "internalType": "int256",
          "name": "",
          "type": "int256"
        }
      ],
      "stateMutability": "view",
      "type": "function"
    },
    {
      "inputs": [],
      "name": "latestAnsweredInRound",
      "outputs": [
        {
          "internalType": "uint256",
          "name": "",
          "type": "uint256"
        }
      ],
      "stateMutability": "view",
      "type": "function"
    },
    {
      "inputs": [],
      "name": "latestRound",
      "outputs": [
        {
          "internalType": "uint256",
          "name": "",
          "type": "uint256"
        }
      ],
      "stateMutability": "view",
      "type": "function"
    },
    {
      "inputs": [],
      "name": "latestRoundData",
      "outputs": [
        {
          "internalType": "uint80",
          "name": "roundId",
          "type": "uint80"
        },
        {
          "internalType": "int256",
          "name": "answer",
          "type": "int256"
        },
        {
          "internalType": "uint256",
          "name": "startedAt",
          "type": "uint256"
        },
        {
          "internalType": "uint256",
          "name": "updatedAt",
          "type": "uint256"
        },
        {
          "internalType": "uint80",
          "name": "answeredInRound",
          "type": "uint80"
        }
      ],
      "stateMutability": "view",
      "type": "function"
    },
    {
      "inputs": [],
      "name": "latestTimestamp",
      "outputs": [
        {
          "internalType": "uint256",
          "name": "",
          "type": "uint256"
        }
      ],
      "stateMutability": "view",
      "type": "function"
    },
    {
      "inputs": [],
      "name": "s_answer",
      "outputs": [
        {
          "internalType": "int256",
          "name": "",
          "type": "int256"
        }
      ],
      "stateMutability": "view",
      "type": "function"
    },
    {
      "inputs": [],
      "name": "s_answeredInRound",
      "outputs": [
        {
          "internalType": "uint80",
          "name": "",
          "type": "uint80"
        }
      ],
      "stateMutability": "view",
      "type": "function"
    },
    {
      "inputs": [],
      "name": "s_decimals",
      "outputs": [
        {
          "internalType": "uint8",
          "name": "",
          "type": "uint8"
        }
      ],
      "stateMutability": "view",
      "type": "function"
    },
    {
      "inputs": [],
      "name": "s_roundId",
      "outputs": [
        {
          "internalType": "uint80",
          "name": "",
          "type": "uint80"
        }
      ],
      "stateMutability": "view",
      "type": "function"
    },
    {
      "inputs": [],
      "name": "s_timestamp",
      "outputs": [
        {
          "internalType": "uint256",
          "name": "",
          "type": "uint256"
        }
      ],
      "stateMutability": "view",
      "type": "function"
    },
    {
      "inputs": [
        {
          "internalType": "uint80",
          "name": "answeredInRound_",
          "type": "uint80"
        }
      ],
      "name": "setAnsweredInRound",
      "outputs": [],
      "stateMutability": "nonpayable",
      "type": "function"
    },
    {
      "inputs": [
        {
          "internalType": "uint8",
          "name": "decimals_",
          "type": "uint8"
        }
      ],
      "name": "setDecimals",
      "outputs": [],
      "stateMutability": "nonpayable",
      "type": "function"
    },
    {
      "inputs": [
        {
          "internalType": "int256",
          "name": "answer",
          "type": "int256"
        }
      ],
      "name": "setLatestAnswer",
      "outputs": [],
      "stateMutability": "nonpayable",
      "type": "function"
    },
    {
      "inputs": [
        {
          "internalType": "uint80",
          "name": "roundId_",
          "type": "uint80"
        }
      ],
      "name": "setRoundId",
      "outputs": [],
      "stateMutability": "nonpayable",
      "type": "function"
    },
    {
      "inputs": [
        {
          "internalType": "uint256",
          "name": "timestamp_",
          "type": "uint256"
        }
      ],
      "name": "setTimestamp",
      "outputs": [],
      "stateMutability": "nonpayable",
      "type": "function"
    },
    {
      "inputs": [],
      "name": "version",
      "outputs": [
        {
          "internalType": "uint256",
          "name": "",
          "type": "uint256"
        }
      ],
      "stateMutability": "view",
      "type": "function"
    }
  ],
  "bytecode": {
    "object": "0x608060405234801561001057600080fd5b50610422806100206000396000f3fe608060405234801561001057600080fd5b50600436106101075760003560e01c806304ea97b01461010c57806319f60e5a14610121578063305da2db1461015b578063313ce5671461017757806350d25bcd1461019057806354fd4d50146101985780635bbfdd021461019f578063668a0f02146101cf5780637284e416146101e05780637a1395aa146101ef5780638205bf6a14610213578063948442481461021b5780639a6fc8f514610228578063a0a2b57314610278578063a53322af1461028b578063b5ab58dc146102a3578063b633620c146102a3578063c77bdb08146102b7578063cf67f902146102e9578063dda7b036146102f2578063feaf968c14610305575b600080fd5b61011f61011a36600461032b565b600055565b005b61011f61012f366004610344565b600380546001600160501b03909216600160501b02600160501b600160a01b0319909216919091179055565b61016460005481565b6040519081526020015b60405180910390f35b60015460ff165b60405160ff909116815260200161016e565b600054610164565b6000610164565b61011f6101ad366004610344565b600380546001600160501b0319166001600160501b0392909216919091179055565b6003546001600160501b0316610164565b606060405161016e9190610374565b61011f6101fd3660046103c9565b6001805460ff191660ff92909216919091179055565b600254610164565b60015461017e9060ff1681565b610244610236366004610344565b506000908190819081908190565b604080516001600160501b03968716815260208101959095528401929092526060830152909116608082015260a00161016e565b61011f61028636600461032b565b600255565b600354600160501b90046001600160501b0316610164565b6101646102b136600461032b565b50600090565b6003546102d190600160501b90046001600160501b031681565b6040516001600160501b03909116815260200161016e565b61016460025481565b6003546102d1906001600160501b031681565b600354600080546002546001600160501b0380851694929392600160501b900416610244565b60006020828403121561033d57600080fd5b5035919050565b60006020828403121561035657600080fd5b81356001600160501b038116811461036d57600080fd5b9392505050565b600060208083528351808285015260005b818110156103a157858101830151858201604001528201610385565b818111156103b3576000604083870101525b50601f01601f1916929092016040019392505050565b6000602082840312156103db57600080fd5b813560ff8116811461036d57600080fdfea264697066735822122052bd410845ee6edb7dd4f10d86db9fbe1d050c18f1fc74ccb8b8e1f3a24ca8f564736f6c634300080f0033",
    "linkReferences": {}
  },
  "methodIdentifiers": {
    "decimals()": "313ce567",
    "description()": "7284e416",
    "getAnswer(uint256)": "b5ab58dc",
    "getRoundData(uint80)": "9a6fc8f5",
    "getTimestamp(uint256)": "b633620c",
    "latestAnswer()": "50d25bcd",
    "latestAnsweredInRound()": "a53322af",
    "latestRound()": "668a0f02",
    "latestRoundData()": "feaf968c",
    "latestTimestamp()": "8205bf6a",
    "s_answer()": "305da2db",
    "s_answeredInRound()": "c77bdb08",
    "s_decimals()": "94844248",
    "s_roundId()": "dda7b036",
    "s_timestamp()": "cf67f902",
    "setAnsweredInRound(uint80)": "19f60e5a",
    "setDecimals(uint8)": "7a1395aa",
    "setLatestAnswer(int256)": "04ea97b0",
    "setRoundId(uint80)": "5bbfdd02",
    "setTimestamp(uint256)": "a0a2b573",
    "version()": "54fd4d50"
  },
  "id": 134
}