{
  "abi": [
    {
      "anonymous": false,
      "inputs": [
        {
          "indexed": true,
          "internalType": "int256",
          "name": "current",
          "type": "int256"
        },
        {
          "indexed": true,
          "internalType": "uint256",
          "name": "roundId",
          "type": "uint256"
        },
        {
          "indexed": false,
          "internalType": "uint256",
          "name": "updatedAt",
          "type": "uint256"
        }
      ],
      "name": "AnswerUpdated",
      "type": "event"
    },
    {
      "anonymous": false,
      "inputs": [
        {
          "indexed": true,
          "internalType": "uint256",
          "name": "roundId",
          "type": "uint256"
        },
        {
          "indexed": true,
          "internalType": "address",
          "name": "startedBy",
          "type": "address"
        },
        {
          "indexed": false,
          "internalType": "uint256",
          "name": "startedAt",
          "type": "uint256"
        }
      ],
      "name": "NewRound",
      "type": "event"
    },
    {
      "inputs": [],
      "name": "decimals",
      "outputs": [
        {
          "internalType": "uint8",
          "name": "",
          "type": "uint8"
        }
      ],
      "stateMutability": "view",
      "type": "function"
    },
    {
      "inputs": [],
      "name": "description",
      "outputs": [
        {
          "internalType": "string",
          "name": "",
          "type": "string"
        }
      ],
      "stateMutability": "view",
      "type": "function"
    },
    {
      "inputs": [
        {
          "internalType": "uint256",
          "name": "roundId",
          "type": "uint256"
        }
      ],
      "name": "getAnswer",
      "outputs": [
        {
          "internalType": "int256",
          "name": "",
          "type": "int256"
        }
      ],
      "stateMutability": "view",
      "type": "function"
    },
    {
      "inputs": [
        {
          "internalType": "uint80",
          "name": "_roundId",
          "type": "uint80"
        }
      ],
      "name": "getRoundData",
      "outputs": [
        {
          "internalType": "uint80",
          "name": "roundId",
          "type": "uint80"
        },
        {
          "internalType": "int256",
          "name": "answer",
          "type": "int256"
        },
        {
          "internalType": "uint256",
          "name": "startedAt",
          "type": "uint256"
        },
        {
          "internalType": "uint256",
          "name": "updatedAt",
          "type": "uint256"
        },
        {
          "internalType": "uint80",
          "name": "answeredInRound",
          "type": "uint80"
        }
      ],
      "stateMutability": "view",
      "type": "function"
    },
    {
      "inputs": [
        {
          "internalType": "uint256",
          "name": "roundId",
          "type": "uint256"
        }
      ],
      "name": "getTimestamp",
      "outputs": [
        {
          "internalType": "uint256",
          "name": "",
          "type": "uint256"
        }
      ],
      "stateMutability": "view",
      "type": "function"
    },
    {
      "inputs": [],
      "name": "latestAnswer",
      "outputs": [
        {
          "internalType": "int256",
          "name": "",
          "type": "int256"
        }
      ],
      "stateMutability": "view",
      "type": "function"
    },
    {
      "inputs": [],
      "name": "latestAnsweredInRound",
      "outputs": [
        {
          "internalType": "uint256",
          "name": "",
          "type": "uint256"
        }
      ],
      "stateMutability": "view",
      "type": "function"
    },
    {
      "inputs": [],
      "name": "latestRound",
      "outputs": [
        {
          "internalType": "uint256",
          "name": "",
          "type": "uint256"
        }
      ],
      "stateMutability": "view",
      "type": "function"
    },
    {
      "inputs": [],
      "name": "latestRoundData",
      "outputs": [
        {
          "internalType": "uint80",
          "name": "roundId",
          "type": "uint80"
        },
        {
          "internalType": "int256",
          "name": "answer",
          "type": "int256"
        },
        {
          "internalType": "uint256",
          "name": "startedAt",
          "type": "uint256"
        },
        {
          "internalType": "uint256",
          "name": "updatedAt",
          "type": "uint256"
        },
        {
          "internalType": "uint80",
          "name": "answeredInRound",
          "type": "uint80"
        }
      ],
      "stateMutability": "view",
      "type": "function"
    },
    {
      "inputs": [],
      "name": "latestTimestamp",
      "outputs": [
        {
          "internalType": "uint256",
          "name": "",
          "type": "uint256"
        }
      ],
      "stateMutability": "view",
      "type": "function"
    },
    {
      "inputs": [],
      "name": "s_answer",
      "outputs": [
        {
          "internalType": "int256",
          "name": "",
          "type": "int256"
        }
      ],
      "stateMutability": "view",
      "type": "function"
    },
    {
      "inputs": [],
      "name": "s_answeredInRound",
      "outputs": [
        {
          "internalType": "uint80",
          "name": "",
          "type": "uint80"
        }
      ],
      "stateMutability": "view",
      "type": "function"
    },
    {
      "inputs": [],
      "name": "s_decimals",
      "outputs": [
        {
          "internalType": "uint8",
          "name": "",
          "type": "uint8"
        }
      ],
      "stateMutability": "view",
      "type": "function"
    },
    {
      "inputs": [],
      "name": "s_roundId",
      "outputs": [
        {
          "internalType": "uint80",
          "name": "",
          "type": "uint80"
        }
      ],
      "stateMutability": "view",
      "type": "function"
    },
    {
      "inputs": [],
      "name": "s_timestamp",
      "outputs": [
        {
          "internalType": "uint256",
          "name": "",
          "type": "uint256"
        }
      ],
      "stateMutability": "view",
      "type": "function"
    },
    {
      "inputs": [
        {
          "internalType": "uint80",
          "name": "answeredInRound_",
          "type": "uint80"
        }
      ],
      "name": "setAnsweredInRound",
      "outputs": [],
      "stateMutability": "nonpayable",
      "type": "function"
    },
    {
      "inputs": [
        {
          "internalType": "uint8",
          "name": "decimals_",
          "type": "uint8"
        }
      ],
      "name": "setDecimals",
      "outputs": [],
      "stateMutability": "nonpayable",
      "type": "function"
    },
    {
      "inputs": [
        {
          "internalType": "int256",
          "name": "answer",
          "type": "int256"
        }
      ],
      "name": "setLatestAnswer",
      "outputs": [],
      "stateMutability": "nonpayable",
      "type": "function"
    },
    {
      "inputs": [
        {
          "internalType": "uint80",
          "name": "roundId_",
          "type": "uint80"
        }
      ],
      "name": "setRoundId",
      "outputs": [],
      "stateMutability": "nonpayable",
      "type": "function"
    },
    {
      "inputs": [
        {
          "internalType": "uint256",
          "name": "timestamp_",
          "type": "uint256"
        }
      ],
      "name": "setTimestamp",
      "outputs": [],
      "stateMutability": "nonpayable",
      "type": "function"
    },
    {
      "inputs": [],
      "name": "version",
      "outputs": [
        {
          "internalType": "uint256",
          "name": "",
          "type": "uint256"
        }
      ],
      "stateMutability": "view",
      "type": "function"
    }
  ],
  "bytecode": {
    "object": "0x608060405234801561001057600080fd5b50610535806100206000396000f3fe608060405234801561001057600080fd5b50600436106101775760003560e01c80638205bf6a116100d8578063b5ab58dc1161008c578063cf67f90211610066578063cf67f902146103ce578063dda7b036146103d7578063feaf968c146103ed57600080fd5b8063b5ab58dc1461037b578063b633620c1461037b578063c77bdb081461038f57600080fd5b80639a6fc8f5116100bd5780639a6fc8f5146102f3578063a0a2b57314610346578063a53322af1461035957600080fd5b80638205bf6a146102de57806394844248146102e657600080fd5b806354fd4d501161012f578063668a0f0211610114578063668a0f02146102795780637284e4161461028d5780637a1395aa1461029c57600080fd5b806354fd4d50146102275780635bbfdd021461022e57600080fd5b8063305da2db11610160578063305da2db146101ea578063313ce5671461020657806350d25bcd1461021f57600080fd5b806304ea97b01461017c57806319f60e5a14610191575b600080fd5b61018f61018a36600461041d565b600055565b005b61018f61019f366004610436565b6003805469ffffffffffffffffffff9092166a0100000000000000000000027fffffffffffffffffffffffff00000000000000000000ffffffffffffffffffff909216919091179055565b6101f360005481565b6040519081526020015b60405180910390f35b60015460ff165b60405160ff90911681526020016101fd565b6000546101f3565b60006101f3565b61018f61023c366004610436565b600380547fffffffffffffffffffffffffffffffffffffffffffff000000000000000000001669ffffffffffffffffffff92909216919091179055565b60035469ffffffffffffffffffff166101f3565b60606040516101fd9190610469565b61018f6102aa3660046104dc565b600180547fffffffffffffffffffffffffffffffffffffffffffffffffffffffffffffff001660ff92909216919091179055565b6002546101f3565b60015461020d9060ff1681565b61030f610301366004610436565b506000908190819081908190565b6040805169ffffffffffffffffffff968716815260208101959095528401929092526060830152909116608082015260a0016101fd565b61018f61035436600461041d565b600255565b6003546a0100000000000000000000900469ffffffffffffffffffff166101f3565b6101f361038936600461041d565b50600090565b6003546103b3906a0100000000000000000000900469ffffffffffffffffffff1681565b60405169ffffffffffffffffffff90911681526020016101fd565b6101f360025481565b6003546103b39069ffffffffffffffffffff1681565b6003546000805460025469ffffffffffffffffffff808516949293926a010000000000000000000090041661030f565b60006020828403121561042f57600080fd5b5035919050565b60006020828403121561044857600080fd5b813569ffffffffffffffffffff8116811461046257600080fd5b9392505050565b600060208083528351808285015260005b818110156104965785810183015185820160400152820161047a565b818111156104a8576000604083870101525b50601f017fffffffffffffffffffffffffffffffffffffffffffffffffffffffffffffffe016929092016040019392505050565b6000602082840312156104ee57600080fd5b813560ff8116811461046257600080fdfea2646970667358221220525cae85a1fd6c3cc6acd34fc773cf58ad28404dc4236797ce6f44738e80f8d564736f6c634300080f0033",
    "linkReferences": {}
  },
  "methodIdentifiers": {
    "decimals()": "313ce567",
    "description()": "7284e416",
    "getAnswer(uint256)": "b5ab58dc",
    "getRoundData(uint80)": "9a6fc8f5",
    "getTimestamp(uint256)": "b633620c",
    "latestAnswer()": "50d25bcd",
    "latestAnsweredInRound()": "a53322af",
    "latestRound()": "668a0f02",
    "latestRoundData()": "feaf968c",
    "latestTimestamp()": "8205bf6a",
    "s_answer()": "305da2db",
    "s_answeredInRound()": "c77bdb08",
    "s_decimals()": "94844248",
    "s_roundId()": "dda7b036",
    "s_timestamp()": "cf67f902",
    "setAnsweredInRound(uint80)": "19f60e5a",
    "setDecimals(uint8)": "7a1395aa",
    "setLatestAnswer(int256)": "04ea97b0",
    "setRoundId(uint80)": "5bbfdd02",
    "setTimestamp(uint256)": "a0a2b573",
    "version()": "54fd4d50"
  },
  "id": 155
}