{
  "abi": [
    {
      "inputs": [
        {
          "internalType": "address",
          "name": "token0_",
          "type": "address"
        },
        {
          "internalType": "address",
          "name": "token1_",
          "type": "address"
        }
      ],
      "stateMutability": "nonpayable",
      "type": "constructor"
    },
    {
      "inputs": [],
      "name": "getReserves",
      "outputs": [
        {
          "internalType": "uint112",
          "name": "reserve0_",
          "type": "uint112"
        },
        {
          "internalType": "uint112",
          "name": "reserve1_",
          "type": "uint112"
        },
        {
          "internalType": "uint32",
          "name": "blockTimestampLast_",
          "type": "uint32"
        }
      ],
      "stateMutability": "view",
      "type": "function"
    },
    {
      "inputs": [],
      "name": "sync",
      "outputs": [],
      "stateMutability": "nonpayable",
      "type": "function"
    },
    {
      "inputs": [],
      "name": "token0",
      "outputs": [
        {
          "internalType": "address",
          "name": "",
          "type": "address"
        }
      ],
      "stateMutability": "view",
      "type": "function"
    },
    {
      "inputs": [],
      "name": "token1",
      "outputs": [
        {
          "internalType": "address",
          "name": "",
          "type": "address"
        }
      ],
      "stateMutability": "view",
      "type": "function"
    }
  ],
  "bytecode": {
    "object": "0x608060405234801561001057600080fd5b5060405161032c38038061032c83398101604081905261002f9161007c565b600080546001600160a01b039384166001600160a01b031991821617909155600180549290931691161790556100af565b80516001600160a01b038116811461007757600080fd5b919050565b6000806040838503121561008f57600080fd5b61009883610060565b91506100a660208401610060565b90509250929050565b61026e806100be6000396000f3fe608060405234801561001057600080fd5b506004361061004c5760003560e01c80630902f1ac146100515780630dfe168114610091578063d21220a7146100b1578063fff6cae9146100c4575b600080fd5b600254604080516001600160701b038084168252600160701b8404166020820152600160e01b90920463ffffffff16908201526060015b60405180910390f35b6000546100a4906001600160a01b031681565b604051610088919061020b565b6001546100a4906001600160a01b031681565b6100cc6100ce565b005b6000546040516370a0823160e01b81526001600160a01b03909116906370a08231906100fe90309060040161020b565b602060405180830381865afa15801561011b573d6000803e3d6000fd5b505050506040513d601f19601f8201168201806040525081019061013f919061021f565b600280546001600160701b0319166001600160701b03929092169190911790556001546040516370a0823160e01b81526001600160a01b03909116906370a082319061018f90309060040161020b565b602060405180830381865afa1580156101ac573d6000803e3d6000fd5b505050506040513d601f19601f820116820180604052508101906101d0919061021f565b6002805463ffffffff4216600160e01b026001600160e01b036001600160701b03948516600160701b02169390911692909217919091179055565b6001600160a01b0391909116815260200190565b60006020828403121561023157600080fd5b505191905056fea2646970667358221220131b135eaf4d9f93c5888d5350efbf8e0c0e023b71ec7a46854a2a84127e027564736f6c634300080f0033",
    "linkReferences": {}
  },
  "methodIdentifiers": {
    "getReserves()": "0902f1ac",
    "sync()": "fff6cae9",
    "token0()": "0dfe1681",
    "token1()": "d21220a7"
  },
  "id": 142
}