{
  "abi": [
    {
      "inputs": [
        {
          "internalType": "contract Kernel",
          "name": "kernel_",
          "type": "address"
        }
      ],
      "stateMutability": "nonpayable",
      "type": "constructor"
    },
    {
      "inputs": [
        {
          "internalType": "address",
          "name": "caller_",
          "type": "address"
        }
      ],
      "name": "KernelAdapter_OnlyKernel",
      "type": "error"
    },
    {
      "inputs": [],
      "name": "PolicyStillActive",
      "type": "error"
    },
    {
      "inputs": [
        {
          "internalType": "Keycode",
          "name": "keycode_",
          "type": "bytes5"
        }
      ],
      "name": "Policy_ModuleDoesNotExist",
      "type": "error"
    },
    {
      "anonymous": false,
      "inputs": [
        {
          "indexed": true,
          "internalType": "address",
          "name": "policy_",
          "type": "address"
        },
        {
          "indexed": false,
          "internalType": "contract ERC20[]",
          "name": "tokens_",
          "type": "address[]"
        }
      ],
      "name": "ApprovalRevoked",
      "type": "event"
    },
    {
      "inputs": [],
      "name": "ROLES",
      "outputs": [
        {
          "internalType": "contract ROLESv1",
          "name": "",
          "type": "address"
        }
      ],
      "stateMutability": "view",
      "type": "function"
    },
    {
      "inputs": [],
      "name": "TRSRY",
      "outputs": [
        {
          "internalType": "contract TRSRYv1",
          "name": "",
          "type": "address"
        }
      ],
      "stateMutability": "view",
      "type": "function"
    },
    {
      "inputs": [
        {
          "internalType": "contract Kernel",
          "name": "newKernel_",
          "type": "address"
        }
      ],
      "name": "changeKernel",
      "outputs": [],
      "stateMutability": "nonpayable",
      "type": "function"
    },
    {
      "inputs": [],
      "name": "configureDependencies",
      "outputs": [
        {
          "internalType": "Keycode[]",
          "name": "dependencies",
          "type": "bytes5[]"
        }
      ],
      "stateMutability": "nonpayable",
      "type": "function"
    },
    {
      "inputs": [
        {
          "internalType": "contract ERC20",
          "name": "token_",
          "type": "address"
        },
        {
          "internalType": "address",
          "name": "debtor_",
          "type": "address"
        },
        {
          "internalType": "uint256",
          "name": "amount_",
          "type": "uint256"
        }
      ],
      "name": "decreaseDebt",
      "outputs": [],
      "stateMutability": "nonpayable",
      "type": "function"
    },
    {
      "inputs": [
        {
          "internalType": "address",
          "name": "for_",
          "type": "address"
        },
        {
          "internalType": "contract ERC20",
          "name": "token_",
          "type": "address"
        },
        {
          "internalType": "uint256",
          "name": "amount_",
          "type": "uint256"
        }
      ],
      "name": "grantDebtorApproval",
      "outputs": [],
      "stateMutability": "nonpayable",
      "type": "function"
    },
    {
      "inputs": [
        {
          "internalType": "address",
          "name": "for_",
          "type": "address"
        },
        {
          "internalType": "contract ERC20",
          "name": "token_",
          "type": "address"
        },
        {
          "internalType": "uint256",
          "name": "amount_",
          "type": "uint256"
        }
      ],
      "name": "grantWithdrawerApproval",
      "outputs": [],
      "stateMutability": "nonpayable",
      "type": "function"
    },
    {
      "inputs": [
        {
          "internalType": "contract ERC20",
          "name": "token_",
          "type": "address"
        },
        {
          "internalType": "address",
          "name": "debtor_",
          "type": "address"
        },
        {
          "internalType": "uint256",
          "name": "amount_",
          "type": "uint256"
        }
      ],
      "name": "increaseDebt",
      "outputs": [],
      "stateMutability": "nonpayable",
      "type": "function"
    },
    {
      "inputs": [],
      "name": "isActive",
      "outputs": [
        {
          "internalType": "bool",
          "name": "",
          "type": "bool"
        }
      ],
      "stateMutability": "view",
      "type": "function"
    },
    {
      "inputs": [],
      "name": "kernel",
      "outputs": [
        {
          "internalType": "contract Kernel",
          "name": "",
          "type": "address"
        }
      ],
      "stateMutability": "view",
      "type": "function"
    },
    {
      "inputs": [
        {
          "internalType": "address",
          "name": "for_",
          "type": "address"
        },
        {
          "internalType": "contract ERC20",
          "name": "token_",
          "type": "address"
        },
        {
          "internalType": "uint256",
          "name": "amount_",
          "type": "uint256"
        }
      ],
      "name": "reduceDebtorApproval",
      "outputs": [],
      "stateMutability": "nonpayable",
      "type": "function"
    },
    {
      "inputs": [
        {
          "internalType": "address",
          "name": "for_",
          "type": "address"
        },
        {
          "internalType": "contract ERC20",
          "name": "token_",
          "type": "address"
        },
        {
          "internalType": "uint256",
          "name": "amount_",
          "type": "uint256"
        }
      ],
      "name": "reduceWithdrawerApproval",
      "outputs": [],
      "stateMutability": "nonpayable",
      "type": "function"
    },
    {
      "inputs": [],
      "name": "requestPermissions",
      "outputs": [
        {
          "components": [
            {
              "internalType": "Keycode",
              "name": "keycode",
              "type": "bytes5"
            },
            {
              "internalType": "bytes4",
              "name": "funcSelector",
              "type": "bytes4"
            }
          ],
          "internalType": "struct Permissions[]",
          "name": "requests",
          "type": "tuple[]"
        }
      ],
      "stateMutability": "view",
      "type": "function"
    },
    {
      "inputs": [
        {
          "internalType": "address",
          "name": "policy_",
          "type": "address"
        },
        {
          "internalType": "contract ERC20[]",
          "name": "tokens_",
          "type": "address[]"
        }
      ],
      "name": "revokePolicyApprovals",
      "outputs": [],
      "stateMutability": "nonpayable",
      "type": "function"
    },
    {
      "inputs": [
        {
          "internalType": "address",
          "name": "to_",
          "type": "address"
        },
        {
          "internalType": "contract ERC20",
          "name": "token_",
          "type": "address"
        },
        {
          "internalType": "uint256",
          "name": "amount_",
          "type": "uint256"
        }
      ],
      "name": "withdrawReservesTo",
      "outputs": [],
      "stateMutability": "nonpayable",
      "type": "function"
    }
  ],
  "bytecode": {
    "object": "0x608060405234801561001057600080fd5b50604051611d31380380611d3183398101604081905261002f91610054565b600080546001600160a01b0319166001600160a01b0392909216919091179055610084565b60006020828403121561006657600080fd5b81516001600160a01b038116811461007d57600080fd5b9392505050565b611c9e806100936000396000f3fe608060405234801561001057600080fd5b50600436106100f55760003560e01c806380cee4ab11610097578063bc9c21ca11610066578063bc9c21ca1461021a578063c11e37a41461022d578063d4aae0c414610240578063ed60f1881461026057600080fd5b806380cee4ab1461018d57806390341e1b146101d2578063923cb952146101e55780639459b8751461020557600080fd5b806359bb98a0116100d357806359bb98a0146101415780635d60f33e146101545780636de244921461016757806372d2f7181461017a57600080fd5b806322f3e2d4146100fa5780634657b36c146101175780635924be701461012c575b600080fd5b610102610273565b60405190151581526020015b60405180910390f35b61012a61012536600461185e565b61030b565b005b6101346103aa565b60405161010e9190611882565b61012a61014f366004611954565b61074b565b61012a610162366004611a4c565b610c39565b61012a610175366004611a4c565b610d7e565b61012a610188366004611a4c565b610f87565b6002546101ad9073ffffffffffffffffffffffffffffffffffffffff1681565b60405173ffffffffffffffffffffffffffffffffffffffff909116815260200161010e565b61012a6101e0366004611a4c565b611098565b6001546101ad9073ffffffffffffffffffffffffffffffffffffffff1681565b61020d6111a9565b60405161010e9190611a8d565b61012a610228366004611a4c565b611373565b61012a61023b366004611a4c565b611484565b6000546101ad9073ffffffffffffffffffffffffffffffffffffffff1681565b61012a61026e366004611a4c565b611595565b600080546040517fe52223bb00000000000000000000000000000000000000000000000000000000815230600482015273ffffffffffffffffffffffffffffffffffffffff9091169063e52223bb90602401602060405180830381865afa1580156102e2573d6000803e3d6000fd5b505050506040513d601f19601f820116820180604052508101906103069190611af3565b905090565b60005473ffffffffffffffffffffffffffffffffffffffff163314610363576040517f14fa403c0000000000000000000000000000000000000000000000000000000081523360048201526024015b60405180910390fd5b600080547fffffffffffffffffffffffff00000000000000000000000000000000000000001673ffffffffffffffffffffffffffffffffffffffff92909216919091179055565b60606000600260009054906101000a900473ffffffffffffffffffffffffffffffffffffffff1673ffffffffffffffffffffffffffffffffffffffff16631ae7ec2e6040518163ffffffff1660e01b8152600401602060405180830381865afa15801561041b573d6000803e3d6000fd5b505050506040513d601f19601f8201168201806040525081019061043f9190611b15565b60408051600680825260e08201909252919250816020015b6040805180820190915260008082526020820152815260200190600190039081610457575050604080518082019091527fffffffffff000000000000000000000000000000000000000000000000000000831681527f2f42aef500000000000000000000000000000000000000000000000000000000602082015281519193509083906000906104e9576104e9611b57565b60200260200101819052506040518060400160405280827affffffffffffffffffffffffffffffffffffffffffffffffffffff1916815260200163e6eb207a60e01b7bffffffffffffffffffffffffffffffffffffffffffffffffffffffff19168152508260018151811061056057610560611b57565b60200260200101819052506040518060400160405280827affffffffffffffffffffffffffffffffffffffffffffffffffffff19168152602001638b7f3fb960e01b7bffffffffffffffffffffffffffffffffffffffffffffffffffffffff1916815250826002815181106105d7576105d7611b57565b60200260200101819052506040518060400160405280827affffffffffffffffffffffffffffffffffffffffffffffffffffff191681526020016301a91e5c60e01b7bffffffffffffffffffffffffffffffffffffffffffffffffffffffff19168152508260038151811061064e5761064e611b57565b60200260200101819052506040518060400160405280827affffffffffffffffffffffffffffffffffffffffffffffffffffff1916815260200163fb393f2460e01b7bffffffffffffffffffffffffffffffffffffffffffffffffffffffff1916815250826004815181106106c5576106c5611b57565b60200260200101819052506040518060400160405280827affffffffffffffffffffffffffffffffffffffffffffffffffffff19168152602001634aae164b60e01b7bffffffffffffffffffffffffffffffffffffffffffffffffffffffff19168152508260058151811061073c5761073c611b57565b60200260200101819052505090565b6001546040517fd09a20c50000000000000000000000000000000000000000000000000000000081527f637573746f6469616e0000000000000000000000000000000000000000000000600482018190523360248301529173ffffffffffffffffffffffffffffffffffffffff169063d09a20c590604401600060405180830381600087803b1580156107dd57600080fd5b505af11580156107f1573d6000803e3d6000fd5b505050508273ffffffffffffffffffffffffffffffffffffffff166322f3e2d46040518163ffffffff1660e01b8152600401602060405180830381865afa158015610840573d6000803e3d6000fd5b505050506040513d601f19601f820116820180604052508101906108649190611af3565b1561089b576040517f6b5b2e2100000000000000000000000000000000000000000000000000000000815260040160405180910390fd5b815160005b81811015610be457600254845160009173ffffffffffffffffffffffffffffffffffffffff1690635f0736a19088908890869081106108e1576108e1611b57565b60200260200101516040518363ffffffff1660e01b815260040161092892919073ffffffffffffffffffffffffffffffffffffffff92831681529116602082015260400190565b602060405180830381865afa158015610945573d6000803e3d6000fd5b505050506040513d601f19601f820116820180604052508101906109699190611b86565b90508015610a4157600254855173ffffffffffffffffffffffffffffffffffffffff90911690638b7f3fb99088908890869081106109a9576109a9611b57565b60209081029190910101516040517fffffffff0000000000000000000000000000000000000000000000000000000060e085901b16815273ffffffffffffffffffffffffffffffffffffffff92831660048201529116602482015260448101849052606401600060405180830381600087803b158015610a2857600080fd5b505af1158015610a3c573d6000803e3d6000fd5b505050505b600254855160009173ffffffffffffffffffffffffffffffffffffffff16906332b43ad2908990899087908110610a7a57610a7a611b57565b60200260200101516040518363ffffffff1660e01b8152600401610ac192919073ffffffffffffffffffffffffffffffffffffffff92831681529116602082015260400190565b602060405180830381865afa158015610ade573d6000803e3d6000fd5b505050506040513d601f19601f82011682018060405250810190610b029190611b86565b90508015610bda57600254865173ffffffffffffffffffffffffffffffffffffffff9091169063fb393f24908990899087908110610b4257610b42611b57565b60209081029190910101516040517fffffffff0000000000000000000000000000000000000000000000000000000060e085901b16815273ffffffffffffffffffffffffffffffffffffffff92831660048201529116602482015260448101849052606401600060405180830381600087803b158015610bc157600080fd5b505af1158015610bd5573d6000803e3d6000fd5b505050505b50506001016108a0565b508373ffffffffffffffffffffffffffffffffffffffff167f225abc46e6d252730aade6e6865644c1bf38550af878655697bcd866b4983deb84604051610c2b9190611b9f565b60405180910390a250505050565b6001546040517fd09a20c50000000000000000000000000000000000000000000000000000000081527f637573746f6469616e0000000000000000000000000000000000000000000000600482018190523360248301529173ffffffffffffffffffffffffffffffffffffffff169063d09a20c590604401600060405180830381600087803b158015610ccb57600080fd5b505af1158015610cdf573d6000803e3d6000fd5b50506002546040517ffb393f2400000000000000000000000000000000000000000000000000000000815273ffffffffffffffffffffffffffffffffffffffff8881166004830152878116602483015260448201879052909116925063fb393f2491506064015b600060405180830381600087803b158015610d6057600080fd5b505af1158015610d74573d6000803e3d6000fd5b5050505050505050565b6001546040517fd09a20c50000000000000000000000000000000000000000000000000000000081527f637573746f6469616e0000000000000000000000000000000000000000000000600482018190523360248301529173ffffffffffffffffffffffffffffffffffffffff169063d09a20c590604401600060405180830381600087803b158015610e1057600080fd5b505af1158015610e24573d6000803e3d6000fd5b50506002546040517f28a4ace500000000000000000000000000000000000000000000000000000000815273ffffffffffffffffffffffffffffffffffffffff888116600483015287811660248301526000945090911691506328a4ace590604401602060405180830381865afa158015610ea3573d6000803e3d6000fd5b505050506040513d601f19601f82011682018060405250810190610ec79190611b86565b60025490915073ffffffffffffffffffffffffffffffffffffffff16634aae164b8587610ef48786611c1c565b6040517fffffffff0000000000000000000000000000000000000000000000000000000060e086901b16815273ffffffffffffffffffffffffffffffffffffffff93841660048201529290911660248301526044820152606401600060405180830381600087803b158015610f6857600080fd5b505af1158015610f7c573d6000803e3d6000fd5b505050505050505050565b6001546040517fd09a20c50000000000000000000000000000000000000000000000000000000081527f637573746f6469616e0000000000000000000000000000000000000000000000600482018190523360248301529173ffffffffffffffffffffffffffffffffffffffff169063d09a20c590604401600060405180830381600087803b15801561101957600080fd5b505af115801561102d573d6000803e3d6000fd5b50506002546040517f8b7f3fb900000000000000000000000000000000000000000000000000000000815273ffffffffffffffffffffffffffffffffffffffff88811660048301528781166024830152604482018790529091169250638b7f3fb99150606401610d46565b6001546040517fd09a20c50000000000000000000000000000000000000000000000000000000081527f637573746f6469616e0000000000000000000000000000000000000000000000600482018190523360248301529173ffffffffffffffffffffffffffffffffffffffff169063d09a20c590604401600060405180830381600087803b15801561112a57600080fd5b505af115801561113e573d6000803e3d6000fd5b50506002546040517f2f42aef500000000000000000000000000000000000000000000000000000000815273ffffffffffffffffffffffffffffffffffffffff88811660048301528781166024830152604482018790529091169250632f42aef59150606401610d46565b60408051600280825260608083018452926020830190803683370190505090507f5452535259000000000000000000000000000000000000000000000000000000816000815181106111fd576111fd611b57565b7fffffffffff000000000000000000000000000000000000000000000000000000909216602092830291909101909101526112557f524f4c455300000000000000000000000000000000000000000000000000000090565b8160018151811061126857611268611b57565b60200260200101907affffffffffffffffffffffffffffffffffffffffffffffffffffff191690817affffffffffffffffffffffffffffffffffffffffffffffffffffff1916815250506112d5816000815181106112c8576112c8611b57565b602002602001015161170b565b600260006101000a81548173ffffffffffffffffffffffffffffffffffffffff021916908373ffffffffffffffffffffffffffffffffffffffff16021790555061132b816001815181106112c8576112c8611b57565b600180547fffffffffffffffffffffffff00000000000000000000000000000000000000001673ffffffffffffffffffffffffffffffffffffffff9290921691909117905590565b6001546040517fd09a20c50000000000000000000000000000000000000000000000000000000081527f637573746f6469616e0000000000000000000000000000000000000000000000600482018190523360248301529173ffffffffffffffffffffffffffffffffffffffff169063d09a20c590604401600060405180830381600087803b15801561140557600080fd5b505af1158015611419573d6000803e3d6000fd5b50506002546040517fe6eb207a00000000000000000000000000000000000000000000000000000000815273ffffffffffffffffffffffffffffffffffffffff8881166004830152878116602483015260448201879052909116925063e6eb207a9150606401610d46565b6001546040517fd09a20c50000000000000000000000000000000000000000000000000000000081527f637573746f6469616e0000000000000000000000000000000000000000000000600482018190523360248301529173ffffffffffffffffffffffffffffffffffffffff169063d09a20c590604401600060405180830381600087803b15801561151657600080fd5b505af115801561152a573d6000803e3d6000fd5b50506002546040517f01a91e5c00000000000000000000000000000000000000000000000000000000815273ffffffffffffffffffffffffffffffffffffffff888116600483015287811660248301526044820187905290911692506301a91e5c9150606401610d46565b6001546040517fd09a20c50000000000000000000000000000000000000000000000000000000081527f637573746f6469616e0000000000000000000000000000000000000000000000600482018190523360248301529173ffffffffffffffffffffffffffffffffffffffff169063d09a20c590604401600060405180830381600087803b15801561162757600080fd5b505af115801561163b573d6000803e3d6000fd5b50506002546040517f28a4ace500000000000000000000000000000000000000000000000000000000815273ffffffffffffffffffffffffffffffffffffffff888116600483015287811660248301526000945090911691506328a4ace590604401602060405180830381865afa1580156116ba573d6000803e3d6000fd5b505050506040513d601f19601f820116820180604052508101906116de9190611b86565b60025490915073ffffffffffffffffffffffffffffffffffffffff16634aae164b8587610ef48786611c34565b600080546040517fb4dc00b40000000000000000000000000000000000000000000000000000000081527fffffffffff00000000000000000000000000000000000000000000000000000084166004820152829173ffffffffffffffffffffffffffffffffffffffff169063b4dc00b490602401602060405180830381865afa15801561179c573d6000803e3d6000fd5b505050506040513d601f19601f820116820180604052508101906117c09190611c4b565b905073ffffffffffffffffffffffffffffffffffffffff8116611833576040517f5c3fa9cd0000000000000000000000000000000000000000000000000000000081527fffffffffff0000000000000000000000000000000000000000000000000000008416600482015260240161035a565b92915050565b73ffffffffffffffffffffffffffffffffffffffff8116811461185b57600080fd5b50565b60006020828403121561187057600080fd5b813561187b81611839565b9392505050565b602080825282518282018190526000919060409081850190868401855b8281101561190857815180517fffffffffff0000000000000000000000000000000000000000000000000000001685528601517fffffffff000000000000000000000000000000000000000000000000000000001686850152928401929085019060010161189f565b5091979650505050505050565b7f4e487b7100000000000000000000000000000000000000000000000000000000600052604160045260246000fd5b803561194f81611839565b919050565b6000806040838503121561196757600080fd5b823561197281611839565b915060208381013567ffffffffffffffff8082111561199057600080fd5b818601915086601f8301126119a457600080fd5b8135818111156119b6576119b6611915565b8060051b6040517fffffffffffffffffffffffffffffffffffffffffffffffffffffffffffffffe0603f830116810181811085821117156119f9576119f9611915565b604052918252848201925083810185019189831115611a1757600080fd5b938501935b82851015611a3c57611a2d85611944565b84529385019392850192611a1c565b8096505050505050509250929050565b600080600060608486031215611a6157600080fd5b8335611a6c81611839565b92506020840135611a7c81611839565b929592945050506040919091013590565b6020808252825182820181905260009190848201906040850190845b81811015611ae75783517fffffffffff0000000000000000000000000000000000000000000000000000001683529284019291840191600101611aa9565b50909695505050505050565b600060208284031215611b0557600080fd5b8151801515811461187b57600080fd5b600060208284031215611b2757600080fd5b81517fffffffffff0000000000000000000000000000000000000000000000000000008116811461187b57600080fd5b7f4e487b7100000000000000000000000000000000000000000000000000000000600052603260045260246000fd5b600060208284031215611b9857600080fd5b5051919050565b6020808252825182820181905260009190848201906040850190845b81811015611ae757835173ffffffffffffffffffffffffffffffffffffffff1683529284019291840191600101611bbb565b7f4e487b7100000000000000000000000000000000000000000000000000000000600052601160045260246000fd5b60008219821115611c2f57611c2f611bed565b500190565b600082821015611c4657611c46611bed565b500390565b600060208284031215611c5d57600080fd5b815161187b8161183956fea264697066735822122038eae395b2358b4c7051eaac959fb2f62d63faaee768e0d8c3c7c6f50c8aaed064736f6c634300080f0033",
    "linkReferences": {}
  },
  "methodIdentifiers": {
    "ROLES()": "923cb952",
    "TRSRY()": "80cee4ab",
    "changeKernel(address)": "4657b36c",
    "configureDependencies()": "9459b875",
    "decreaseDebt(address,address,uint256)": "ed60f188",
    "grantDebtorApproval(address,address,uint256)": "c11e37a4",
    "grantWithdrawerApproval(address,address,uint256)": "bc9c21ca",
    "increaseDebt(address,address,uint256)": "6de24492",
    "isActive()": "22f3e2d4",
    "kernel()": "d4aae0c4",
    "reduceDebtorApproval(address,address,uint256)": "5d60f33e",
    "reduceWithdrawerApproval(address,address,uint256)": "72d2f718",
    "requestPermissions()": "5924be70",
    "revokePolicyApprovals(address,address[])": "59bb98a0",
    "withdrawReservesTo(address,address,uint256)": "90341e1b"
  },
  "id": 115
}