{
  "abi": [
    {
      "inputs": [
        {
          "internalType": "contract Kernel",
          "name": "kernel_",
          "type": "address"
        }
      ],
      "stateMutability": "nonpayable",
      "type": "constructor"
    },
    {
      "inputs": [
        {
          "internalType": "address",
          "name": "caller_",
          "type": "address"
        }
      ],
      "name": "KernelAdapter_OnlyKernel",
      "type": "error"
    },
    {
      "inputs": [],
      "name": "PolicyStillActive",
      "type": "error"
    },
    {
      "inputs": [
        {
          "internalType": "Keycode",
          "name": "keycode_",
          "type": "bytes5"
        }
      ],
      "name": "Policy_ModuleDoesNotExist",
      "type": "error"
    },
    {
      "anonymous": false,
      "inputs": [
        {
          "indexed": true,
          "internalType": "address",
          "name": "policy_",
          "type": "address"
        },
        {
          "indexed": false,
          "internalType": "contract ERC20[]",
          "name": "tokens_",
          "type": "address[]"
        }
      ],
      "name": "ApprovalRevoked",
      "type": "event"
    },
    {
      "inputs": [],
      "name": "ROLES",
      "outputs": [
        {
          "internalType": "contract ROLESv1",
          "name": "",
          "type": "address"
        }
      ],
      "stateMutability": "view",
      "type": "function"
    },
    {
      "inputs": [],
      "name": "TRSRY",
      "outputs": [
        {
          "internalType": "contract TRSRYv1",
          "name": "",
          "type": "address"
        }
      ],
      "stateMutability": "view",
      "type": "function"
    },
    {
      "inputs": [
        {
          "internalType": "contract Kernel",
          "name": "newKernel_",
          "type": "address"
        }
      ],
      "name": "changeKernel",
      "outputs": [],
      "stateMutability": "nonpayable",
      "type": "function"
    },
    {
      "inputs": [],
      "name": "configureDependencies",
      "outputs": [
        {
          "internalType": "Keycode[]",
          "name": "dependencies",
          "type": "bytes5[]"
        }
      ],
      "stateMutability": "nonpayable",
      "type": "function"
    },
    {
      "inputs": [
        {
          "internalType": "contract ERC20",
          "name": "token_",
          "type": "address"
        },
        {
          "internalType": "address",
          "name": "debtor_",
          "type": "address"
        },
        {
          "internalType": "uint256",
          "name": "amount_",
          "type": "uint256"
        }
      ],
      "name": "decreaseDebt",
      "outputs": [],
      "stateMutability": "nonpayable",
      "type": "function"
    },
    {
      "inputs": [
        {
          "internalType": "address",
          "name": "for_",
          "type": "address"
        },
        {
          "internalType": "contract ERC20",
          "name": "token_",
          "type": "address"
        },
        {
          "internalType": "uint256",
          "name": "amount_",
          "type": "uint256"
        }
      ],
      "name": "grantDebtorApproval",
      "outputs": [],
      "stateMutability": "nonpayable",
      "type": "function"
    },
    {
      "inputs": [
        {
          "internalType": "address",
          "name": "for_",
          "type": "address"
        },
        {
          "internalType": "contract ERC20",
          "name": "token_",
          "type": "address"
        },
        {
          "internalType": "uint256",
          "name": "amount_",
          "type": "uint256"
        }
      ],
      "name": "grantWithdrawerApproval",
      "outputs": [],
      "stateMutability": "nonpayable",
      "type": "function"
    },
    {
      "inputs": [
        {
          "internalType": "contract ERC20",
          "name": "token_",
          "type": "address"
        },
        {
          "internalType": "address",
          "name": "debtor_",
          "type": "address"
        },
        {
          "internalType": "uint256",
          "name": "amount_",
          "type": "uint256"
        }
      ],
      "name": "increaseDebt",
      "outputs": [],
      "stateMutability": "nonpayable",
      "type": "function"
    },
    {
      "inputs": [],
      "name": "isActive",
      "outputs": [
        {
          "internalType": "bool",
          "name": "",
          "type": "bool"
        }
      ],
      "stateMutability": "view",
      "type": "function"
    },
    {
      "inputs": [],
      "name": "kernel",
      "outputs": [
        {
          "internalType": "contract Kernel",
          "name": "",
          "type": "address"
        }
      ],
      "stateMutability": "view",
      "type": "function"
    },
    {
      "inputs": [
        {
          "internalType": "address",
          "name": "for_",
          "type": "address"
        },
        {
          "internalType": "contract ERC20",
          "name": "token_",
          "type": "address"
        },
        {
          "internalType": "uint256",
          "name": "amount_",
          "type": "uint256"
        }
      ],
      "name": "reduceDebtorApproval",
      "outputs": [],
      "stateMutability": "nonpayable",
      "type": "function"
    },
    {
      "inputs": [
        {
          "internalType": "address",
          "name": "for_",
          "type": "address"
        },
        {
          "internalType": "contract ERC20",
          "name": "token_",
          "type": "address"
        },
        {
          "internalType": "uint256",
          "name": "amount_",
          "type": "uint256"
        }
      ],
      "name": "reduceWithdrawerApproval",
      "outputs": [],
      "stateMutability": "nonpayable",
      "type": "function"
    },
    {
      "inputs": [],
      "name": "requestPermissions",
      "outputs": [
        {
          "components": [
            {
              "internalType": "Keycode",
              "name": "keycode",
              "type": "bytes5"
            },
            {
              "internalType": "bytes4",
              "name": "funcSelector",
              "type": "bytes4"
            }
          ],
          "internalType": "struct Permissions[]",
          "name": "requests",
          "type": "tuple[]"
        }
      ],
      "stateMutability": "view",
      "type": "function"
    },
    {
      "inputs": [
        {
          "internalType": "address",
          "name": "policy_",
          "type": "address"
        },
        {
          "internalType": "contract ERC20[]",
          "name": "tokens_",
          "type": "address[]"
        }
      ],
      "name": "revokePolicyApprovals",
      "outputs": [],
      "stateMutability": "nonpayable",
      "type": "function"
    },
    {
      "inputs": [
        {
          "internalType": "address",
          "name": "to_",
          "type": "address"
        },
        {
          "internalType": "contract ERC20",
          "name": "token_",
          "type": "address"
        },
        {
          "internalType": "uint256",
          "name": "amount_",
          "type": "uint256"
        }
      ],
      "name": "withdrawReservesTo",
      "outputs": [],
      "stateMutability": "nonpayable",
      "type": "function"
    }
  ],
  "bytecode": {
    "object": "0x608060405234801561001057600080fd5b5060405161150738038061150783398101604081905261002f91610054565b600080546001600160a01b0319166001600160a01b0392909216919091179055610084565b60006020828403121561006657600080fd5b81516001600160a01b038116811461007d57600080fd5b9392505050565b611474806100936000396000f3fe608060405234801561001057600080fd5b50600436106100c55760003560e01c806322f3e2d4146100ca5780634657b36c146100e75780635924be70146100fc57806359bb98a0146101115780635d60f33e146101245780636de244921461013757806372d2f7181461014a57806380cee4ab1461015d57806390341e1b1461017d578063923cb952146101905780639459b875146101a3578063bc9c21ca146101b8578063c11e37a4146101cb578063d4aae0c4146101de578063ed60f188146101f1575b600080fd5b6100d2610204565b60405190151581526020015b60405180910390f35b6100fa6100f536600461108d565b61027b565b005b6101046102d3565b6040516100de91906110b1565b6100fa61011f36600461113a565b61055c565b6100fa610132366004611213565b6108e9565b6100fa610145366004611213565b6109c5565b6100fa610158366004611213565b610b22565b600254610170906001600160a01b031681565b6040516100de9190611254565b6100fa61018b366004611213565b610bc6565b600154610170906001600160a01b031681565b6101ab610c6a565b6040516100de9190611268565b6100fa6101c6366004611213565b610d85565b6100fa6101d9366004611213565b610e29565b600054610170906001600160a01b031681565b6100fa6101ff366004611213565b610ecc565b6000805460405163e52223bb60e01b81526001600160a01b039091169063e52223bb90610235903090600401611254565b602060405180830381865afa158015610252573d6000803e3d6000fd5b505050506040513d601f19601f8201168201806040525081019061027691906112b6565b905090565b6000546001600160a01b031633146102b1573360405163053e900f60e21b81526004016102a89190611254565b60405180910390fd5b600080546001600160a01b0319166001600160a01b0392909216919091179055565b60606000600260009054906101000a90046001600160a01b03166001600160a01b0316631ae7ec2e6040518163ffffffff1660e01b8152600401602060405180830381865afa15801561032a573d6000803e3d6000fd5b505050506040513d601f19601f8201168201806040525081019061034e91906112d8565b60408051600680825260e08201909252919250816020015b6040805180820190915260008082526020820152815260200190600190039081610366575050604080518082019091526001600160d81b031983168152632f42aef560e01b602082015281519193509083906000906103c7576103c7611302565b60200260200101819052506040518060400160405280826001600160d81b031916815260200163e6eb207a60e01b6001600160e01b0319168152508260018151811061041557610415611302565b60200260200101819052506040518060400160405280826001600160d81b0319168152602001638b7f3fb960e01b6001600160e01b0319168152508260028151811061046357610463611302565b60200260200101819052506040518060400160405280826001600160d81b03191681526020016301a91e5c60e01b6001600160e01b031916815250826003815181106104b1576104b1611302565b60200260200101819052506040518060400160405280826001600160d81b031916815260200163fb393f2460e01b6001600160e01b031916815250826004815181106104ff576104ff611302565b60200260200101819052506040518060400160405280826001600160d81b0319168152602001634aae164b60e01b6001600160e01b0319168152508260058151811061054d5761054d611302565b60200260200101819052505090565b60015460405163d09a20c560e01b81526831bab9ba37b234b0b760b91b916001600160a01b03169063d09a20c59061059a9084903390600401611318565b600060405180830381600087803b1580156105b457600080fd5b505af11580156105c8573d6000803e3d6000fd5b50505050826001600160a01b03166322f3e2d46040518163ffffffff1660e01b8152600401602060405180830381865afa15801561060a573d6000803e3d6000fd5b505050506040513d601f19601f8201168201806040525081019061062e91906112b6565b1561064c57604051636b5b2e2160e01b815260040160405180910390fd5b815160005b818110156108a15760025484516000916001600160a01b031690635f0736a190889088908690811061068557610685611302565b60200260200101516040518363ffffffff1660e01b81526004016106aa92919061132f565b602060405180830381865afa1580156106c7573d6000803e3d6000fd5b505050506040513d601f19601f820116820180604052508101906106eb9190611349565b905080156107785760025485516001600160a01b0390911690638b7f3fb990889088908690811061071e5761071e611302565b6020026020010151846040518463ffffffff1660e01b815260040161074593929190611362565b600060405180830381600087803b15801561075f57600080fd5b505af1158015610773573d6000803e3d6000fd5b505050505b60025485516000916001600160a01b0316906332b43ad29089908990879081106107a4576107a4611302565b60200260200101516040518363ffffffff1660e01b81526004016107c992919061132f565b602060405180830381865afa1580156107e6573d6000803e3d6000fd5b505050506040513d601f19601f8201168201806040525081019061080a9190611349565b905080156108975760025486516001600160a01b039091169063fb393f2490899089908790811061083d5761083d611302565b6020026020010151846040518463ffffffff1660e01b815260040161086493929190611362565b600060405180830381600087803b15801561087e57600080fd5b505af1158015610892573d6000803e3d6000fd5b505050505b5050600101610651565b50836001600160a01b03167f225abc46e6d252730aade6e6865644c1bf38550af878655697bcd866b4983deb846040516108db9190611386565b60405180910390a250505050565b60015460405163d09a20c560e01b81526831bab9ba37b234b0b760b91b916001600160a01b03169063d09a20c5906109279084903390600401611318565b600060405180830381600087803b15801561094157600080fd5b505af1158015610955573d6000803e3d6000fd5b5050600254604051633ece4fc960e21b81526001600160a01b03909116925063fb393f24915061098d90879087908790600401611362565b600060405180830381600087803b1580156109a757600080fd5b505af11580156109bb573d6000803e3d6000fd5b5050505050505050565b60015460405163d09a20c560e01b81526831bab9ba37b234b0b760b91b916001600160a01b03169063d09a20c590610a039084903390600401611318565b600060405180830381600087803b158015610a1d57600080fd5b505af1158015610a31573d6000803e3d6000fd5b50506002546040516328a4ace560e01b8152600093506001600160a01b0390911691506328a4ace590610a6a908890889060040161132f565b602060405180830381865afa158015610a87573d6000803e3d6000fd5b505050506040513d601f19601f82011682018060405250810190610aab9190611349565b6002549091506001600160a01b0316634aae164b8587610acb87866113dd565b6040518463ffffffff1660e01b8152600401610ae993929190611362565b600060405180830381600087803b158015610b0357600080fd5b505af1158015610b17573d6000803e3d6000fd5b505050505050505050565b60015460405163d09a20c560e01b81526831bab9ba37b234b0b760b91b916001600160a01b03169063d09a20c590610b609084903390600401611318565b600060405180830381600087803b158015610b7a57600080fd5b505af1158015610b8e573d6000803e3d6000fd5b5050600254604051638b7f3fb960e01b81526001600160a01b039091169250638b7f3fb9915061098d90879087908790600401611362565b60015460405163d09a20c560e01b81526831bab9ba37b234b0b760b91b916001600160a01b03169063d09a20c590610c049084903390600401611318565b600060405180830381600087803b158015610c1e57600080fd5b505af1158015610c32573d6000803e3d6000fd5b5050600254604051632f42aef560e01b81526001600160a01b039091169250632f42aef5915061098d90879087908790600401611362565b604080516002808252606080830184529260208301908036833701905050905064545253525960d81b81600081518110610ca657610ca6611302565b6001600160d81b031990921660209283029190910190910152610cce64524f4c455360d81b90565b81600181518110610ce157610ce1611302565b60200260200101906001600160d81b03191690816001600160d81b03191681525050610d2681600081518110610d1957610d19611302565b6020026020010151610fd2565b600260006101000a8154816001600160a01b0302191690836001600160a01b03160217905550610d6281600181518110610d1957610d19611302565b600180546001600160a01b0319166001600160a01b039290921691909117905590565b60015460405163d09a20c560e01b81526831bab9ba37b234b0b760b91b916001600160a01b03169063d09a20c590610dc39084903390600401611318565b600060405180830381600087803b158015610ddd57600080fd5b505af1158015610df1573d6000803e3d6000fd5b5050600254604051637375903d60e11b81526001600160a01b03909116925063e6eb207a915061098d90879087908790600401611362565b60015460405163d09a20c560e01b81526831bab9ba37b234b0b760b91b916001600160a01b03169063d09a20c590610e679084903390600401611318565b600060405180830381600087803b158015610e8157600080fd5b505af1158015610e95573d6000803e3d6000fd5b5050600254604051626a479760e21b81526001600160a01b0390911692506301a91e5c915061098d90879087908790600401611362565b60015460405163d09a20c560e01b81526831bab9ba37b234b0b760b91b916001600160a01b03169063d09a20c590610f0a9084903390600401611318565b600060405180830381600087803b158015610f2457600080fd5b505af1158015610f38573d6000803e3d6000fd5b50506002546040516328a4ace560e01b8152600093506001600160a01b0390911691506328a4ace590610f71908890889060040161132f565b602060405180830381865afa158015610f8e573d6000803e3d6000fd5b505050506040513d601f19601f82011682018060405250810190610fb29190611349565b6002549091506001600160a01b0316634aae164b8587610acb87866113f5565b60008054604051632d37002d60e21b815282916001600160a01b03169063b4dc00b49061100390869060040161140c565b602060405180830381865afa158015611020573d6000803e3d6000fd5b505050506040513d601f19601f820116820180604052508101906110449190611421565b90506001600160a01b03811661106f5782604051635c3fa9cd60e01b81526004016102a8919061140c565b92915050565b6001600160a01b038116811461108a57600080fd5b50565b60006020828403121561109f57600080fd5b81356110aa81611075565b9392505050565b602080825282518282018190526000919060409081850190868401855b8281101561110757815180516001600160d81b03191685528601516001600160e01b0319168685015292840192908501906001016110ce565b5091979650505050505050565b634e487b7160e01b600052604160045260246000fd5b803561113581611075565b919050565b6000806040838503121561114d57600080fd5b823561115881611075565b91506020838101356001600160401b038082111561117557600080fd5b818601915086601f83011261118957600080fd5b81358181111561119b5761119b611114565b8060051b604051601f19603f830116810181811085821117156111c0576111c0611114565b6040529182528482019250838101850191898311156111de57600080fd5b938501935b82851015611203576111f48561112a565b845293850193928501926111e3565b8096505050505050509250929050565b60008060006060848603121561122857600080fd5b833561123381611075565b9250602084013561124381611075565b929592945050506040919091013590565b6001600160a01b0391909116815260200190565b6020808252825182820181905260009190848201906040850190845b818110156112aa5783516001600160d81b03191683529284019291840191600101611284565b50909695505050505050565b6000602082840312156112c857600080fd5b815180151581146110aa57600080fd5b6000602082840312156112ea57600080fd5b81516001600160d81b0319811681146110aa57600080fd5b634e487b7160e01b600052603260045260246000fd5b9182526001600160a01b0316602082015260400190565b6001600160a01b0392831681529116602082015260400190565b60006020828403121561135b57600080fd5b5051919050565b6001600160a01b039384168152919092166020820152604081019190915260600190565b6020808252825182820181905260009190848201906040850190845b818110156112aa5783516001600160a01b0316835292840192918401916001016113a2565b634e487b7160e01b600052601160045260246000fd5b600082198211156113f0576113f06113c7565b500190565b600082821015611407576114076113c7565b500390565b6001600160d81b031991909116815260200190565b60006020828403121561143357600080fd5b81516110aa8161107556fea264697066735822122089c3dbdaf0e53cfc47935c595d7f726c8de1b3f8011261ba98fd06054ad82af164736f6c634300080f0033",
    "linkReferences": {}
  },
  "methodIdentifiers": {
    "ROLES()": "923cb952",
    "TRSRY()": "80cee4ab",
    "changeKernel(address)": "4657b36c",
    "configureDependencies()": "9459b875",
    "decreaseDebt(address,address,uint256)": "ed60f188",
    "grantDebtorApproval(address,address,uint256)": "c11e37a4",
    "grantWithdrawerApproval(address,address,uint256)": "bc9c21ca",
    "increaseDebt(address,address,uint256)": "6de24492",
    "isActive()": "22f3e2d4",
    "kernel()": "d4aae0c4",
    "reduceDebtorApproval(address,address,uint256)": "5d60f33e",
    "reduceWithdrawerApproval(address,address,uint256)": "72d2f718",
    "requestPermissions()": "5924be70",
    "revokePolicyApprovals(address,address[])": "59bb98a0",
    "withdrawReservesTo(address,address,uint256)": "90341e1b"
  },
  "id": 93
}