{
  "abi": [
    {
      "inputs": [
        {
          "internalType": "contract Kernel",
          "name": "kernel_",
          "type": "address"
        }
      ],
      "stateMutability": "nonpayable",
      "type": "constructor"
    },
    {
      "inputs": [
        {
          "internalType": "address",
          "name": "caller_",
          "type": "address"
        }
      ],
      "name": "KernelAdapter_OnlyKernel",
      "type": "error"
    },
    {
      "inputs": [
        {
          "internalType": "Keycode",
          "name": "keycode_",
          "type": "bytes5"
        }
      ],
      "name": "Policy_ModuleDoesNotExist",
      "type": "error"
    },
    {
      "anonymous": false,
      "inputs": [
        {
          "indexed": false,
          "internalType": "bool",
          "name": "treasury_",
          "type": "bool"
        },
        {
          "indexed": false,
          "internalType": "bool",
          "name": "minter_",
          "type": "bool"
        }
      ],
      "name": "Status",
      "type": "event"
    },
    {
      "inputs": [],
      "name": "MINTR",
      "outputs": [
        {
          "internalType": "contract MINTRv1",
          "name": "",
          "type": "address"
        }
      ],
      "stateMutability": "view",
      "type": "function"
    },
    {
      "inputs": [],
      "name": "ROLES",
      "outputs": [
        {
          "internalType": "contract ROLESv1",
          "name": "",
          "type": "address"
        }
      ],
      "stateMutability": "view",
      "type": "function"
    },
    {
      "inputs": [],
      "name": "TRSRY",
      "outputs": [
        {
          "internalType": "contract TRSRYv1",
          "name": "",
          "type": "address"
        }
      ],
      "stateMutability": "view",
      "type": "function"
    },
    {
      "inputs": [
        {
          "internalType": "contract Kernel",
          "name": "newKernel_",
          "type": "address"
        }
      ],
      "name": "changeKernel",
      "outputs": [],
      "stateMutability": "nonpayable",
      "type": "function"
    },
    {
      "inputs": [],
      "name": "configureDependencies",
      "outputs": [
        {
          "internalType": "Keycode[]",
          "name": "dependencies",
          "type": "bytes5[]"
        }
      ],
      "stateMutability": "nonpayable",
      "type": "function"
    },
    {
      "inputs": [],
      "name": "isActive",
      "outputs": [
        {
          "internalType": "bool",
          "name": "",
          "type": "bool"
        }
      ],
      "stateMutability": "view",
      "type": "function"
    },
    {
      "inputs": [],
      "name": "kernel",
      "outputs": [
        {
          "internalType": "contract Kernel",
          "name": "",
          "type": "address"
        }
      ],
      "stateMutability": "view",
      "type": "function"
    },
    {
      "inputs": [],
      "name": "requestPermissions",
      "outputs": [
        {
          "components": [
            {
              "internalType": "Keycode",
              "name": "keycode",
              "type": "bytes5"
            },
            {
              "internalType": "bytes4",
              "name": "funcSelector",
              "type": "bytes4"
            }
          ],
          "internalType": "struct Permissions[]",
          "name": "requests",
          "type": "tuple[]"
        }
      ],
      "stateMutability": "view",
      "type": "function"
    },
    {
      "inputs": [],
      "name": "restart",
      "outputs": [],
      "stateMutability": "nonpayable",
      "type": "function"
    },
    {
      "inputs": [],
      "name": "restartMinting",
      "outputs": [],
      "stateMutability": "nonpayable",
      "type": "function"
    },
    {
      "inputs": [],
      "name": "restartWithdrawals",
      "outputs": [],
      "stateMutability": "nonpayable",
      "type": "function"
    },
    {
      "inputs": [],
      "name": "shutdown",
      "outputs": [],
      "stateMutability": "nonpayable",
      "type": "function"
    },
    {
      "inputs": [],
      "name": "shutdownMinting",
      "outputs": [],
      "stateMutability": "nonpayable",
      "type": "function"
    },
    {
      "inputs": [],
      "name": "shutdownWithdrawals",
      "outputs": [],
      "stateMutability": "nonpayable",
      "type": "function"
    }
  ],
  "bytecode": {
    "object": "0x608060405234801561001057600080fd5b50604051610f7a380380610f7a83398101604081905261002f91610054565b600080546001600160a01b0319166001600160a01b0392909216919091179055610084565b60006020828403121561006657600080fd5b81516001600160a01b038116811461007d57600080fd5b9392505050565b610ee7806100936000396000f3fe608060405234801561001057600080fd5b50600436106100ba5760003560e01c806301ffa059146100bf5780631ef3755d146100c957806322f3e2d4146100d15780634657b36c146100ee5780634674546814610101578063577de7d0146101095780635924be701461012957806380cee4ab1461013e578063923cb952146101515780639459b87514610164578063c12954fa14610179578063d4aae0c414610181578063ec3984f614610194578063fc0e74d11461019c575b600080fd5b6100c76101a4565b005b6100c761028f565b6100d96103bf565b60405190151581526020015b60405180910390f35b6100c76100fc366004610d1d565b610436565b6100c761048e565b60035461011c906001600160a01b031681565b6040516100e59190610d41565b610131610557565b6040516100e59190610d55565b60025461011c906001600160a01b031681565b60015461011c906001600160a01b031681565b61016c6107bf565b6040516100e59190610db8565b6100c7610953565b60005461011c906001600160a01b031681565b6100c76109b3565b6100c7610a7c565b60015460405163d09a20c560e01b815270195b595c99d95b98de57dc995cdd185c9d607a1b916001600160a01b03169063d09a20c5906101ea9084903390600401610e06565b600060405180830381600087803b15801561020457600080fd5b505af1158015610218573d6000803e3d6000fd5b50505050600260009054906101000a90046001600160a01b03166001600160a01b0316630f15f4c06040518163ffffffff1660e01b8152600401600060405180830381600087803b15801561026c57600080fd5b505af1158015610280573d6000803e3d6000fd5b5050505061028c610b45565b50565b60015460405163d09a20c560e01b815270195b595c99d95b98de57dc995cdd185c9d607a1b916001600160a01b03169063d09a20c5906102d59084903390600401610e06565b600060405180830381600087803b1580156102ef57600080fd5b505af1158015610303573d6000803e3d6000fd5b50505050600260009054906101000a90046001600160a01b03166001600160a01b0316630f15f4c06040518163ffffffff1660e01b8152600401600060405180830381600087803b15801561035757600080fd5b505af115801561036b573d6000803e3d6000fd5b50505050600360009054906101000a90046001600160a01b03166001600160a01b0316630f15f4c06040518163ffffffff1660e01b8152600401600060405180830381600087803b15801561026c57600080fd5b6000805460405163e52223bb60e01b81526001600160a01b039091169063e52223bb906103f0903090600401610d41565b602060405180830381865afa15801561040d573d6000803e3d6000fd5b505050506040513d601f19601f820116820180604052508101906104319190610e1d565b905090565b6000546001600160a01b0316331461046c573360405163053e900f60e21b81526004016104639190610d41565b60405180910390fd5b600080546001600160a01b0319166001600160a01b0392909216919091179055565b60015460405163d09a20c560e01b81527132b6b2b933b2b731bcafb9b43aba3237bbb760711b916001600160a01b03169063d09a20c5906104d59084903390600401610e06565b600060405180830381600087803b1580156104ef57600080fd5b505af1158015610503573d6000803e3d6000fd5b50505050600360009054906101000a90046001600160a01b03166001600160a01b03166351b42b006040518163ffffffff1660e01b8152600401600060405180830381600087803b15801561026c57600080fd5b60606000600260009054906101000a90046001600160a01b03166001600160a01b0316631ae7ec2e6040518163ffffffff1660e01b8152600401602060405180830381865afa1580156105ae573d6000803e3d6000fd5b505050506040513d601f19601f820116820180604052508101906105d29190610e3f565b90506000600360009054906101000a90046001600160a01b03166001600160a01b0316631ae7ec2e6040518163ffffffff1660e01b8152600401602060405180830381865afa158015610629573d6000803e3d6000fd5b505050506040513d601f19601f8201168201806040525081019061064d9190610e3f565b60408051600480825260a08201909252919250816020015b6040805180820190915260008082526020820152815260200190600190039081610665575050604080518082019091526001600160d81b0319841681526251b42b60e81b602082015281519194509084906000906106c5576106c5610e69565b60200260200101819052506040518060400160405280836001600160d81b0319168152602001630f15f4c060e01b6001600160e01b0319168152508360018151811061071357610713610e69565b60200260200101819052506040518060400160405280826001600160d81b03191681526020016351b42b0060e01b6001600160e01b0319168152508360028151811061076157610761610e69565b60200260200101819052506040518060400160405280826001600160d81b0319168152602001630f15f4c060e01b6001600160e01b031916815250836003815181106107af576107af610e69565b6020026020010181905250505090565b6040805160038082526080820190925260609160208201838036833701905050905064545253525960d81b816000815181106107fd576107fd610e69565b6001600160d81b0319909216602092830291909101909101526108256426a4a72a2960d91b90565b8160018151811061083857610838610e69565b6001600160d81b03199092166020928302919091019091015261086064524f4c455360d81b90565b8160028151811061087357610873610e69565b60200260200101906001600160d81b03191690816001600160d81b031916815250506108b8816000815181106108ab576108ab610e69565b6020026020010151610c65565b600260006101000a8154816001600160a01b0302191690836001600160a01b031602179055506108f4816001815181106108ab576108ab610e69565b600360006101000a8154816001600160a01b0302191690836001600160a01b03160217905550610930816002815181106108ab576108ab610e69565b600180546001600160a01b0319166001600160a01b039290921691909117905590565b60015460405163d09a20c560e01b815270195b595c99d95b98de57dc995cdd185c9d607a1b916001600160a01b03169063d09a20c5906109999084903390600401610e06565b600060405180830381600087803b15801561035757600080fd5b60015460405163d09a20c560e01b81527132b6b2b933b2b731bcafb9b43aba3237bbb760711b916001600160a01b03169063d09a20c5906109fa9084903390600401610e06565b600060405180830381600087803b158015610a1457600080fd5b505af1158015610a28573d6000803e3d6000fd5b50505050600260009054906101000a90046001600160a01b03166001600160a01b03166351b42b006040518163ffffffff1660e01b8152600401600060405180830381600087803b15801561026c57600080fd5b60015460405163d09a20c560e01b81527132b6b2b933b2b731bcafb9b43aba3237bbb760711b916001600160a01b03169063d09a20c590610ac39084903390600401610e06565b600060405180830381600087803b158015610add57600080fd5b505af1158015610af1573d6000803e3d6000fd5b50505050600260009054906101000a90046001600160a01b03166001600160a01b03166351b42b006040518163ffffffff1660e01b8152600401600060405180830381600087803b1580156104ef57600080fd5b6002546040805163017d862f60e11b815290517f4e3bf9f8dfd7253fb755f99807f80c9c14d9ed0a71f36ede9c8e11606996c479926001600160a01b0316916302fb0c5e9160048083019260209291908290030181865afa158015610bae573d6000803e3d6000fd5b505050506040513d601f19601f82011682018060405250810190610bd29190610e1d565b600360009054906101000a90046001600160a01b03166001600160a01b03166302fb0c5e6040518163ffffffff1660e01b8152600401602060405180830381865afa158015610c25573d6000803e3d6000fd5b505050506040513d601f19601f82011682018060405250810190610c499190610e1d565b60408051921515835290151560208301520160405180910390a1565b60008054604051632d37002d60e21b815282916001600160a01b03169063b4dc00b490610c96908690600401610e7f565b602060405180830381865afa158015610cb3573d6000803e3d6000fd5b505050506040513d601f19601f82011682018060405250810190610cd79190610e94565b90506001600160a01b038116610d025782604051635c3fa9cd60e01b81526004016104639190610e7f565b92915050565b6001600160a01b038116811461028c57600080fd5b600060208284031215610d2f57600080fd5b8135610d3a81610d08565b9392505050565b6001600160a01b0391909116815260200190565b602080825282518282018190526000919060409081850190868401855b82811015610dab57815180516001600160d81b03191685528601516001600160e01b031916868501529284019290850190600101610d72565b5091979650505050505050565b6020808252825182820181905260009190848201906040850190845b81811015610dfa5783516001600160d81b03191683529284019291840191600101610dd4565b50909695505050505050565b9182526001600160a01b0316602082015260400190565b600060208284031215610e2f57600080fd5b81518015158114610d3a57600080fd5b600060208284031215610e5157600080fd5b81516001600160d81b031981168114610d3a57600080fd5b634e487b7160e01b600052603260045260246000fd5b6001600160d81b031991909116815260200190565b600060208284031215610ea657600080fd5b8151610d3a81610d0856fea26469706673582212203aa49a393caceb0d8b6e06b9241b67d40bbb799610dcc4a3516154961298cf7864736f6c634300080f0033",
    "linkReferences": {}
  },
  "methodIdentifiers": {
    "MINTR()": "577de7d0",
    "ROLES()": "923cb952",
    "TRSRY()": "80cee4ab",
    "changeKernel(address)": "4657b36c",
    "configureDependencies()": "9459b875",
    "isActive()": "22f3e2d4",
    "kernel()": "d4aae0c4",
    "requestPermissions()": "5924be70",
    "restart()": "1ef3755d",
    "restartMinting()": "c12954fa",
    "restartWithdrawals()": "01ffa059",
    "shutdown()": "fc0e74d1",
    "shutdownMinting()": "46745468",
    "shutdownWithdrawals()": "ec3984f6"
  },
  "id": 110
}