{
  "abi": [
    {
      "inputs": [
        {
          "internalType": "contract Kernel",
          "name": "kernel_",
          "type": "address"
        },
        {
          "internalType": "contract AggregatorV2V3Interface",
          "name": "gdaoEthPriceFeed_",
          "type": "address"
        },
        {
          "internalType": "uint48",
          "name": "gdaoEthUpdateThreshold_",
          "type": "uint48"
        },
        {
          "internalType": "contract AggregatorV2V3Interface",
          "name": "reserveEthPriceFeed_",
          "type": "address"
        },
        {
          "internalType": "uint48",
          "name": "reserveEthUpdateThreshold_",
          "type": "uint48"
        },
        {
          "internalType": "uint48",
          "name": "observationFrequency_",
          "type": "uint48"
        },
        {
          "internalType": "uint48",
          "name": "movingAverageDuration_",
          "type": "uint48"
        },
        {
          "internalType": "uint256",
          "name": "minimumTargetPrice_",
          "type": "uint256"
        }
      ],
      "stateMutability": "nonpayable",
      "type": "constructor"
    },
    {
      "inputs": [
        {
          "internalType": "address",
          "name": "caller_",
          "type": "address"
        }
      ],
      "name": "KernelAdapter_OnlyKernel",
      "type": "error"
    },
    {
      "inputs": [
        {
          "internalType": "address",
          "name": "policy_",
          "type": "address"
        }
      ],
      "name": "Module_PolicyNotPermitted",
      "type": "error"
    },
    {
      "inputs": [],
      "name": "Price_AlreadyInitialized",
      "type": "error"
    },
    {
      "inputs": [
        {
          "internalType": "address",
          "name": "priceFeed",
          "type": "address"
        }
      ],
      "name": "Price_BadFeed",
      "type": "error"
    },
    {
      "inputs": [],
      "name": "Price_InvalidParams",
      "type": "error"
    },
    {
      "inputs": [],
      "name": "Price_NotInitialized",
      "type": "error"
    },
    {
      "anonymous": false,
      "inputs": [
        {
          "indexed": false,
          "internalType": "uint256",
          "name": "minimumTargetPrice_",
          "type": "uint256"
        }
      ],
      "name": "MinimumTargetPriceChanged",
      "type": "event"
    },
    {
      "anonymous": false,
      "inputs": [
        {
          "indexed": false,
          "internalType": "uint48",
          "name": "movingAverageDuration_",
          "type": "uint48"
        }
      ],
      "name": "MovingAverageDurationChanged",
      "type": "event"
    },
    {
      "anonymous": false,
      "inputs": [
        {
          "indexed": false,
          "internalType": "uint256",
          "name": "timestamp_",
          "type": "uint256"
        },
        {
          "indexed": false,
          "internalType": "uint256",
          "name": "price_",
          "type": "uint256"
        },
        {
          "indexed": false,
          "internalType": "uint256",
          "name": "movingAverage_",
          "type": "uint256"
        }
      ],
      "name": "NewObservation",
      "type": "event"
    },
    {
      "anonymous": false,
      "inputs": [
        {
          "indexed": false,
          "internalType": "uint48",
          "name": "observationFrequency_",
          "type": "uint48"
        }
      ],
      "name": "ObservationFrequencyChanged",
      "type": "event"
    },
    {
      "anonymous": false,
      "inputs": [
        {
          "indexed": false,
          "internalType": "uint48",
          "name": "gdaoEthUpdateThreshold_",
          "type": "uint48"
        },
        {
          "indexed": false,
          "internalType": "uint48",
          "name": "reserveEthUpdateThreshold_",
          "type": "uint48"
        }
      ],
      "name": "UpdateThresholdsChanged",
      "type": "event"
    },
    {
      "inputs": [],
      "name": "INIT",
      "outputs": [],
      "stateMutability": "nonpayable",
      "type": "function"
    },
    {
      "inputs": [],
      "name": "KEYCODE",
      "outputs": [
        {
          "internalType": "Keycode",
          "name": "",
          "type": "bytes5"
        }
      ],
      "stateMutability": "pure",
      "type": "function"
    },
    {
      "inputs": [],
      "name": "VERSION",
      "outputs": [
        {
          "internalType": "uint8",
          "name": "major",
          "type": "uint8"
        },
        {
          "internalType": "uint8",
          "name": "minor",
          "type": "uint8"
        }
      ],
      "stateMutability": "pure",
      "type": "function"
    },
    {
      "inputs": [
        {
          "internalType": "contract Kernel",
          "name": "newKernel_",
          "type": "address"
        }
      ],
      "name": "changeKernel",
      "outputs": [],
      "stateMutability": "nonpayable",
      "type": "function"
    },
    {
      "inputs": [
        {
          "internalType": "uint256",
          "name": "minimumTargetPrice_",
          "type": "uint256"
        }
      ],
      "name": "changeMinimumTargetPrice",
      "outputs": [],
      "stateMutability": "nonpayable",
      "type": "function"
    },
    {
      "inputs": [
        {
          "internalType": "uint48",
          "name": "movingAverageDuration_",
          "type": "uint48"
        }
      ],
      "name": "changeMovingAverageDuration",
      "outputs": [],
      "stateMutability": "nonpayable",
      "type": "function"
    },
    {
      "inputs": [
        {
          "internalType": "uint48",
          "name": "observationFrequency_",
          "type": "uint48"
        }
      ],
      "name": "changeObservationFrequency",
      "outputs": [],
      "stateMutability": "nonpayable",
      "type": "function"
    },
    {
      "inputs": [
        {
          "internalType": "uint48",
          "name": "gdaoEthUpdateThreshold_",
          "type": "uint48"
        },
        {
          "internalType": "uint48",
          "name": "reserveEthUpdateThreshold_",
          "type": "uint48"
        }
      ],
      "name": "changeUpdateThresholds",
      "outputs": [],
      "stateMutability": "nonpayable",
      "type": "function"
    },
    {
      "inputs": [],
      "name": "cumulativeObs",
      "outputs": [
        {
          "internalType": "uint256",
          "name": "",
          "type": "uint256"
        }
      ],
      "stateMutability": "view",
      "type": "function"
    },
    {
      "inputs": [],
      "name": "decimals",
      "outputs": [
        {
          "internalType": "uint8",
          "name": "",
          "type": "uint8"
        }
      ],
      "stateMutability": "view",
      "type": "function"
    },
    {
      "inputs": [],
      "name": "gdaoEthPriceFeed",
      "outputs": [
        {
          "internalType": "contract AggregatorV2V3Interface",
          "name": "",
          "type": "address"
        }
      ],
      "stateMutability": "view",
      "type": "function"
    },
    {
      "inputs": [],
      "name": "gdaoEthUpdateThreshold",
      "outputs": [
        {
          "internalType": "uint48",
          "name": "",
          "type": "uint48"
        }
      ],
      "stateMutability": "view",
      "type": "function"
    },
    {
      "inputs": [],
      "name": "getCurrentPrice",
      "outputs": [
        {
          "internalType": "uint256",
          "name": "",
          "type": "uint256"
        }
      ],
      "stateMutability": "view",
      "type": "function"
    },
    {
      "inputs": [],
      "name": "getLastPrice",
      "outputs": [
        {
          "internalType": "uint256",
          "name": "",
          "type": "uint256"
        }
      ],
      "stateMutability": "view",
      "type": "function"
    },
    {
      "inputs": [],
      "name": "getMovingAverage",
      "outputs": [
        {
          "internalType": "uint256",
          "name": "",
          "type": "uint256"
        }
      ],
      "stateMutability": "view",
      "type": "function"
    },
    {
      "inputs": [],
      "name": "getTargetPrice",
      "outputs": [
        {
          "internalType": "uint256",
          "name": "",
          "type": "uint256"
        }
      ],
      "stateMutability": "view",
      "type": "function"
    },
    {
      "inputs": [
        {
          "internalType": "uint256[]",
          "name": "startObservations_",
          "type": "uint256[]"
        },
        {
          "internalType": "uint48",
          "name": "lastObservationTime_",
          "type": "uint48"
        }
      ],
      "name": "initialize",
      "outputs": [],
      "stateMutability": "nonpayable",
      "type": "function"
    },
    {
      "inputs": [],
      "name": "initialized",
      "outputs": [
        {
          "internalType": "bool",
          "name": "",
          "type": "bool"
        }
      ],
      "stateMutability": "view",
      "type": "function"
    },
    {
      "inputs": [],
      "name": "kernel",
      "outputs": [
        {
          "internalType": "contract Kernel",
          "name": "",
          "type": "address"
        }
      ],
      "stateMutability": "view",
      "type": "function"
    },
    {
      "inputs": [],
      "name": "lastObservationTime",
      "outputs": [
        {
          "internalType": "uint48",
          "name": "",
          "type": "uint48"
        }
      ],
      "stateMutability": "view",
      "type": "function"
    },
    {
      "inputs": [],
      "name": "minimumTargetPrice",
      "outputs": [
        {
          "internalType": "uint256",
          "name": "",
          "type": "uint256"
        }
      ],
      "stateMutability": "view",
      "type": "function"
    },
    {
      "inputs": [],
      "name": "movingAverageDuration",
      "outputs": [
        {
          "internalType": "uint48",
          "name": "",
          "type": "uint48"
        }
      ],
      "stateMutability": "view",
      "type": "function"
    },
    {
      "inputs": [],
      "name": "nextObsIndex",
      "outputs": [
        {
          "internalType": "uint32",
          "name": "",
          "type": "uint32"
        }
      ],
      "stateMutability": "view",
      "type": "function"
    },
    {
      "inputs": [],
      "name": "numObservations",
      "outputs": [
        {
          "internalType": "uint32",
          "name": "",
          "type": "uint32"
        }
      ],
      "stateMutability": "view",
      "type": "function"
    },
    {
      "inputs": [],
      "name": "observationFrequency",
      "outputs": [
        {
          "internalType": "uint48",
          "name": "",
          "type": "uint48"
        }
      ],
      "stateMutability": "view",
      "type": "function"
    },
    {
      "inputs": [
        {
          "internalType": "uint256",
          "name": "",
          "type": "uint256"
        }
      ],
      "name": "observations",
      "outputs": [
        {
          "internalType": "uint256",
          "name": "",
          "type": "uint256"
        }
      ],
      "stateMutability": "view",
      "type": "function"
    },
    {
      "inputs": [],
      "name": "reserveEthPriceFeed",
      "outputs": [
        {
          "internalType": "contract AggregatorV2V3Interface",
          "name": "",
          "type": "address"
        }
      ],
      "stateMutability": "view",
      "type": "function"
    },
    {
      "inputs": [],
      "name": "reserveEthUpdateThreshold",
      "outputs": [
        {
          "internalType": "uint48",
          "name": "",
          "type": "uint48"
        }
      ],
      "stateMutability": "view",
      "type": "function"
    },
    {
      "inputs": [],
      "name": "updateMovingAverage",
      "outputs": [],
      "stateMutability": "nonpayable",
      "type": "function"
    }
  ],
  "bytecode": {
    "object": "0x60a06040523480156200001157600080fd5b5060405162001dc938038062001dc983398101604081905262000034916200049d565b600080546001600160a01b0319166001600160a01b038a1617905565ffffffffffff821615806200007757506200006c838362000559565b65ffffffffffff1615155b15620000965760405163bd19ab3f60e01b815260040160405180910390fd5b600180546001600160a01b038981166001600160d01b031990921691909117600160a01b65ffffffffffff8a160217918290556040805163313ce56760e01b815290516000939092169163313ce567916004808201926020929091908290030181865afa1580156200010c573d6000803e3d6000fd5b505050506040513d601f19601f8201168201806040525081019062000132919062000581565b600280546001600160a01b038981166001600160d01b031990921691909117600160a01b65ffffffffffff8a160217918290556040805163313ce56760e01b81529051939450600093929091169163313ce567916004808201926020929091908290030181865afa158015620001ac573d6000803e3d6000fd5b505050506040513d601f19601f82011682018060405250810190620001d2919062000581565b9050600082620001e4836012620005c3565b620001f09190620005eb565b60ff1690506026811115620002185760405163bd19ab3f60e01b815260040160405180910390fd5b6200022581600a62000710565b6080526005805465ffffffffffff878116600160701b0265ffffffffffff60701b19918a16680100000000000000000291909116600160401b600160a01b0319909216919091171790556200027b86866200071e565b6005805463ffffffff60201b191664010000000063ffffffff938416810291909117918290559004166001600160401b03811115620002be57620002be62000746565b604051908082528060200260200182016040528015620002e8578160200160208202803683370190505b508051620002ff9160049160209091019062000401565b50600684905560405165ffffffffffff861681527fbf17d91c3fb2f4166d1548087583c97a6cb790502bbcdce123d872c290f582029060200160405180910390a160405165ffffffffffff871681527fccdeec192bc388cfc3e642b4a812d9cab15e3728046b2cb7b359702510a918c59060200160405180910390a16040805165ffffffffffff808c168252891660208201527f7afa9e43491ad08e1044e0aef56f3033b1e4043e9ee7795632c5877ba35a7928910160405180910390a16040518481527f429369433de996bd22c83edbc227a7480e136a8ac3bbf0138a908bc98f7b4b639060200160405180910390a150505050505050505050506200075c565b8280548282559060005260206000209081019282156200043f579160200282015b828111156200043f57825182559160200191906001019062000422565b506200044d92915062000451565b5090565b5b808211156200044d576000815560010162000452565b6001600160a01b03811681146200047e57600080fd5b50565b805165ffffffffffff811681146200049857600080fd5b919050565b600080600080600080600080610100898b031215620004bb57600080fd5b8851620004c88162000468565b60208a0151909850620004db8162000468565b9650620004eb60408a0162000481565b95506060890151620004fd8162000468565b94506200050d60808a0162000481565b93506200051d60a08a0162000481565b92506200052d60c08a0162000481565b915060e089015190509295985092959890939650565b634e487b7160e01b600052601260045260246000fd5b600065ffffffffffff8084168062000575576200057562000543565b92169190910692915050565b6000602082840312156200059457600080fd5b815160ff81168114620005a657600080fd5b9392505050565b634e487b7160e01b600052601160045260246000fd5b600060ff821660ff84168060ff03821115620005e357620005e3620005ad565b019392505050565b600060ff821660ff841680821015620006085762000608620005ad565b90039392505050565b600181815b8085111562000652578160001904821115620006365762000636620005ad565b808516156200064457918102915b93841c939080029062000616565b509250929050565b6000826200066b575060016200070a565b816200067a575060006200070a565b81600181146200069357600281146200069e57620006be565b60019150506200070a565b60ff841115620006b257620006b2620005ad565b50506001821b6200070a565b5060208310610133831016604e8410600b8410161715620006e3575081810a6200070a565b620006ef838362000611565b8060001904821115620007065762000706620005ad565b0290505b92915050565b6000620005a683836200065a565b600065ffffffffffff808416806200073a576200073a62000543565b92169190910492915050565b634e487b7160e01b600052604160045260246000fd5b6080516116516200077860003960006111b101526116516000f3fe608060405234801561001057600080fd5b506004361061015f5760003560e01c80630fbe347614610164578063158ef93e146101795780631ae7ec2e146101a2578063252c09d7146101c35780632e23fc3f146101e4578063313ce567146102095780634657b36c1461022357806357ee9383146102365780636707853d1461024957806367eab044146102695780636d2c2808146102805780637321f100146102895780637d4dce76146102af57806386db7df0146102c25780638a157337146102ca578063902a35b9146102dd578063aa321fe2146102f0578063b5e7130514610309578063bd01bb3214610311578063be8ef3d314610319578063c05b695c1461032c578063d09f724514610335578063d266f5d01461034e578063d4aae0c414610367578063d532ade41461037a578063d8cf24fd14610393578063ea6439141461039b578063eb91d37e146103a3578063ffa1ad74146103ab575b600080fd5b610177610172366004611268565b6103bf565b005b60055461018d90600160d01b900460ff1681565b60405190151581526020015b60405180910390f35b6101aa6104f6565b6040516001600160d81b03199091168152602001610199565b6101d66101d136600461129b565b610507565b604051908152602001610199565b6005546101f49063ffffffff1681565b60405163ffffffff9091168152602001610199565b610211601281565b60405160ff9091168152602001610199565b6101776102313660046112b4565b610528565b61017761024436600461129b565b610577565b60015461025c906001600160a01b031681565b60405161019991906112e4565b6005546101f490600160201b900463ffffffff1681565b6101d660065481565b6005546102a290600160401b900465ffffffffffff1681565b60405161019991906112f8565b6101776102bd36600461130b565b610657565b61017761084b565b6101776102d836600461130b565b610a53565b6101776102eb36600461133c565b610c45565b6005546102a290600160701b900465ffffffffffff1681565b6101d6610e44565b6101d6610e8e565b60025461025c906001600160a01b031681565b6101d660035481565b6001546102a290600160a01b900465ffffffffffff1681565b6005546102a290600160a01b900465ffffffffffff1681565b60005461025c906001600160a01b031681565b6002546102a290600160a01b900465ffffffffffff1681565b6101d6610eb4565b610177610f54565b6101d6610f83565b604080516001808252602082015201610199565b6000546001600160a01b031663f166d9eb6103d86104f6565b336000356001600160e01b0319166040518463ffffffff1660e01b81526004016104049392919061140b565b602060405180830381865afa158015610421573d6000803e3d6000fd5b505050506040513d601f19601f820116820180604052508101906104459190611440565b61046d57336040516311bf00c960e01b815260040161046491906112e4565b60405180910390fd5b6001805465ffffffffffff808516600160a01b90810265ffffffffffff60a01b19938416179093556002805491851690930291161790556040517f7afa9e43491ad08e1044e0aef56f3033b1e4043e9ee7795632c5877ba35a7928906104ea908490849065ffffffffffff92831681529116602082015260400190565b60405180910390a15050565b64505249434560d81b90565b905090565b6004818154811061051757600080fd5b600091825260209091200154905081565b6000546001600160a01b03163314610555573360405163053e900f60e21b815260040161046491906112e4565b600080546001600160a01b0319166001600160a01b0392909216919091179055565b6000546001600160a01b031663f166d9eb6105906104f6565b336000356001600160e01b0319166040518463ffffffff1660e01b81526004016105bc9392919061140b565b602060405180830381865afa1580156105d9573d6000803e3d6000fd5b505050506040513d601f19601f820116820180604052508101906105fd9190611440565b61061c57336040516311bf00c960e01b815260040161046491906112e4565b60068190556040518181527f429369433de996bd22c83edbc227a7480e136a8ac3bbf0138a908bc98f7b4b639060200160405180910390a150565b6000546001600160a01b031663f166d9eb6106706104f6565b336000356001600160e01b0319166040518463ffffffff1660e01b815260040161069c9392919061140b565b602060405180830381865afa1580156106b9573d6000803e3d6000fd5b505050506040513d601f19601f820116820180604052508101906106dd9190611440565b6106fc57336040516311bf00c960e01b815260040161046491906112e4565b65ffffffffffff811615806107345750600554610729908290600160701b900465ffffffffffff16611478565b65ffffffffffff1615155b156107525760405163bd19ab3f60e01b815260040160405180910390fd5b600554600090610772908390600160701b900465ffffffffffff166114b3565b65ffffffffffff169050806001600160401b0381111561079457610794611326565b6040519080825280602002602001820160405280156107bd578160200160208202803683370190505b5080516107d2916004916020909101906111ed565b50600580546000600355600165ffffffffffff60701b01600160d81b031916600160401b65ffffffffffff85160263ffffffff60201b191617600160201b63ffffffff8416021790556040517fccdeec192bc388cfc3e642b4a812d9cab15e3728046b2cb7b359702510a918c5906104ea9084906112f8565b6000546001600160a01b031663f166d9eb6108646104f6565b336000356001600160e01b0319166040518463ffffffff1660e01b81526004016108909392919061140b565b602060405180830381865afa1580156108ad573d6000803e3d6000fd5b505050506040513d601f19601f820116820180604052508101906108d19190611440565b6108f057336040516311bf00c960e01b815260040161046491906112e4565b600554600160d01b900460ff1661091a5760405163a985d3f560e01b815260040160405180910390fd5b6005546004805463ffffffff600160201b8404811693600093929116908110610945576109456114d8565b90600052602060002001549050600061095c610f83565b9050818160035461096d91906114ee565b6109779190611506565b60035560055460048054839263ffffffff16908110610998576109986114d8565b6000918252602090912001556005805465ffffffffffff4216600160a01b0265ffffffffffff60a01b198216811790925584916109e19163ffffffff918216911617600161151d565b6109eb9190611545565b6005805463ffffffff191663ffffffff929092169190911790557fa62f55aa6e9680aff071df0c621257f66bc5ba0dce63725989b3e5e42f24c6294282610a30610e44565b6040805193845260208401929092529082015260600160405180910390a1505050565b6000546001600160a01b031663f166d9eb610a6c6104f6565b336000356001600160e01b0319166040518463ffffffff1660e01b8152600401610a989392919061140b565b602060405180830381865afa158015610ab5573d6000803e3d6000fd5b505050506040513d601f19601f82011682018060405250810190610ad99190611440565b610af857336040516311bf00c960e01b815260040161046491906112e4565b65ffffffffffff81161580610b2f5750600554610b2490600160401b900465ffffffffffff1682611478565b65ffffffffffff1615155b15610b4d5760405163bd19ab3f60e01b815260040160405180910390fd5b600554600090610b6c90600160401b900465ffffffffffff16836114b3565b65ffffffffffff169050806001600160401b03811115610b8e57610b8e611326565b604051908082528060200260200182016040528015610bb7578160200160208202803683370190505b508051610bcc916004916020909101906111ed565b50600580546000600355600165ffffffffffff60401b01600160d81b031916600160701b65ffffffffffff85160263ffffffff60201b191617600160201b63ffffffff8416021790556040517fbf17d91c3fb2f4166d1548087583c97a6cb790502bbcdce123d872c290f58202906104ea9084906112f8565b6000546001600160a01b031663f166d9eb610c5e6104f6565b336000356001600160e01b0319166040518463ffffffff1660e01b8152600401610c8a9392919061140b565b602060405180830381865afa158015610ca7573d6000803e3d6000fd5b505050506040513d601f19601f82011682018060405250810190610ccb9190611440565b610cea57336040516311bf00c960e01b815260040161046491906112e4565b600554600160d01b900460ff1615610d155760405163d5a5ed8960e01b815260040160405180910390fd5b600454825181141580610d3757504265ffffffffffff168265ffffffffffff16115b15610d555760405163bd19ab3f60e01b815260040160405180910390fd5b6000805b82811015610e0357848181518110610d7357610d736114d8565b6020026020010151600003610d9b5760405163bd19ab3f60e01b815260040160405180910390fd5b848181518110610dad57610dad6114d8565b602002602001015182610dc091906114ee565b9150848181518110610dd457610dd46114d8565b602002602001015160048281548110610def57610def6114d8565b600091825260209091200155600101610d59565b50600355506005805460ff60d01b1965ffffffffffff909316600160a01b029290921666ffffffffffffff60a01b1990921691909117600160d01b17905550565b600554600090600160d01b900460ff16610e715760405163a985d3f560e01b815260040160405180910390fd5b60055460035461050291600160201b900463ffffffff169061155c565b600080610e99610e44565b90506006548111610eac57600654610eae565b805b91505090565b600554600090600160d01b900460ff16610ee15760405163a985d3f560e01b815260040160405180910390fd5b60055460009063ffffffff1615610f0c57600554610f079060019063ffffffff16611570565b610f28565b600554610f2890600190600160201b900463ffffffff16611570565b905060048163ffffffff1681548110610f4357610f436114d8565b906000526020600020015491505090565b6000546001600160a01b03163314610f81573360405163053e900f60e21b815260040161046491906112e4565b565b600554600090600160d01b900460ff16610fb05760405163a985d3f560e01b815260040160405180910390fd5b600080600080600080600160009054906101000a90046001600160a01b03166001600160a01b031663feaf968c6040518163ffffffff1660e01b815260040160a060405180830381865afa15801561100c573d6000803e3d6000fd5b505050506040513d601f19601f8201168201806040525081019061103091906115ac565b945094505093509350600083131580611063575060015461106090600160a01b900465ffffffffffff1642611506565b82105b806110805750836001600160501b0316816001600160501b031614155b156110ab57600154604051632f718a5b60e11b8152610464916001600160a01b0316906004016112e4565b8295506000600260009054906101000a90046001600160a01b03166001600160a01b031663feaf968c6040518163ffffffff1660e01b815260040160a060405180830381865afa158015611103573d6000803e3d6000fd5b505050506040513d601f19601f8201168201806040525081019061112791906115ac565b939850955091935091505060008113158061115c575060025461115990600160a01b900465ffffffffffff1642611506565b83105b806111795750846001600160501b0316826001600160501b031614155b156111a457600254604051632f718a5b60e11b8152610464916001600160a01b0316906004016112e4565b80955050505050506000817f0000000000000000000000000000000000000000000000000000000000000000846111db91906115fc565b6111e5919061155c565b949350505050565b828054828255906000526020600020908101928215611228579160200282015b8281111561122857825182559160200191906001019061120d565b50611234929150611238565b5090565b5b808211156112345760008155600101611239565b803565ffffffffffff8116811461126357600080fd5b919050565b6000806040838503121561127b57600080fd5b6112848361124d565b91506112926020840161124d565b90509250929050565b6000602082840312156112ad57600080fd5b5035919050565b6000602082840312156112c657600080fd5b81356001600160a01b03811681146112dd57600080fd5b9392505050565b6001600160a01b0391909116815260200190565b65ffffffffffff91909116815260200190565b60006020828403121561131d57600080fd5b6112dd8261124d565b634e487b7160e01b600052604160045260246000fd5b6000806040838503121561134f57600080fd5b82356001600160401b038082111561136657600080fd5b818501915085601f83011261137a57600080fd5b813560208282111561138e5761138e611326565b8160051b604051601f19603f830116810181811086821117156113b3576113b3611326565b6040529283528183019350848101820192898411156113d157600080fd5b948201945b838610156113ef578535855294820194938201936113d6565b96506113fe905087820161124d565b9450505050509250929050565b6001600160d81b03199390931683526001600160a01b039190911660208301526001600160e01b031916604082015260600190565b60006020828403121561145257600080fd5b815180151581146112dd57600080fd5b634e487b7160e01b600052601260045260246000fd5b600065ffffffffffff8084168061149157611491611462565b92169190910692915050565b634e487b7160e01b600052601160045260246000fd5b600065ffffffffffff808416806114cc576114cc611462565b92169190910492915050565b634e487b7160e01b600052603260045260246000fd5b600082198211156115015761150161149d565b500190565b6000828210156115185761151861149d565b500390565b600063ffffffff80831681851680830382111561153c5761153c61149d565b01949350505050565b600063ffffffff8084168061149157611491611462565b60008261156b5761156b611462565b500490565b600063ffffffff8381169083168181101561158d5761158d61149d565b039392505050565b80516001600160501b038116811461126357600080fd5b600080600080600060a086880312156115c457600080fd5b6115cd86611595565b94506020860151935060408601519250606086015191506115f060808701611595565b90509295509295909350565b60008160001904831182151516156116165761161661149d565b50029056fea2646970667358221220e80d19d3a484d3a3ecd9615ddd116ec0be4ae705a25a1a36f4afc2c587eee4c664736f6c634300080f0033",
    "linkReferences": {}
  },
  "methodIdentifiers": {
    "INIT()": "ea643914",
    "KEYCODE()": "1ae7ec2e",
    "VERSION()": "ffa1ad74",
    "changeKernel(address)": "4657b36c",
    "changeMinimumTargetPrice(uint256)": "57ee9383",
    "changeMovingAverageDuration(uint48)": "8a157337",
    "changeObservationFrequency(uint48)": "7d4dce76",
    "changeUpdateThresholds(uint48,uint48)": "0fbe3476",
    "cumulativeObs()": "c05b695c",
    "decimals()": "313ce567",
    "gdaoEthPriceFeed()": "6707853d",
    "gdaoEthUpdateThreshold()": "d09f7245",
    "getCurrentPrice()": "eb91d37e",
    "getLastPrice()": "d8cf24fd",
    "getMovingAverage()": "b5e71305",
    "getTargetPrice()": "bd01bb32",
    "initialize(uint256[],uint48)": "902a35b9",
    "initialized()": "158ef93e",
    "kernel()": "d4aae0c4",
    "lastObservationTime()": "d266f5d0",
    "minimumTargetPrice()": "6d2c2808",
    "movingAverageDuration()": "aa321fe2",
    "nextObsIndex()": "2e23fc3f",
    "numObservations()": "67eab044",
    "observationFrequency()": "7321f100",
    "observations(uint256)": "252c09d7",
    "reserveEthPriceFeed()": "be8ef3d3",
    "reserveEthUpdateThreshold()": "d532ade4",
    "updateMovingAverage()": "86db7df0"
  },
  "id": 72
}