{
  "abi": [
    {
      "inputs": [
        {
          "internalType": "contract Kernel",
          "name": "kernel_",
          "type": "address"
        }
      ],
      "stateMutability": "nonpayable",
      "type": "constructor"
    },
    {
      "inputs": [],
      "name": "INSTR_InstructionsCannotBeEmpty",
      "type": "error"
    },
    {
      "inputs": [],
      "name": "INSTR_InvalidAction",
      "type": "error"
    },
    {
      "inputs": [
        {
          "internalType": "Keycode",
          "name": "keycode_",
          "type": "bytes5"
        }
      ],
      "name": "InvalidKeycode",
      "type": "error"
    },
    {
      "inputs": [
        {
          "internalType": "address",
          "name": "caller_",
          "type": "address"
        }
      ],
      "name": "KernelAdapter_OnlyKernel",
      "type": "error"
    },
    {
      "inputs": [
        {
          "internalType": "address",
          "name": "policy_",
          "type": "address"
        }
      ],
      "name": "Module_PolicyNotPermitted",
      "type": "error"
    },
    {
      "inputs": [
        {
          "internalType": "address",
          "name": "target_",
          "type": "address"
        }
      ],
      "name": "TargetNotAContract",
      "type": "error"
    },
    {
      "anonymous": false,
      "inputs": [
        {
          "indexed": false,
          "internalType": "uint256",
          "name": "instructionsId",
          "type": "uint256"
        }
      ],
      "name": "InstructionsStored",
      "type": "event"
    },
    {
      "inputs": [],
      "name": "INIT",
      "outputs": [],
      "stateMutability": "nonpayable",
      "type": "function"
    },
    {
      "inputs": [],
      "name": "KEYCODE",
      "outputs": [
        {
          "internalType": "Keycode",
          "name": "",
          "type": "bytes5"
        }
      ],
      "stateMutability": "pure",
      "type": "function"
    },
    {
      "inputs": [],
      "name": "VERSION",
      "outputs": [
        {
          "internalType": "uint8",
          "name": "major",
          "type": "uint8"
        },
        {
          "internalType": "uint8",
          "name": "minor",
          "type": "uint8"
        }
      ],
      "stateMutability": "pure",
      "type": "function"
    },
    {
      "inputs": [
        {
          "internalType": "contract Kernel",
          "name": "newKernel_",
          "type": "address"
        }
      ],
      "name": "changeKernel",
      "outputs": [],
      "stateMutability": "nonpayable",
      "type": "function"
    },
    {
      "inputs": [
        {
          "internalType": "uint256",
          "name": "instructionsId_",
          "type": "uint256"
        }
      ],
      "name": "getInstructions",
      "outputs": [
        {
          "components": [
            {
              "internalType": "enum Actions",
              "name": "action",
              "type": "uint8"
            },
            {
              "internalType": "address",
              "name": "target",
              "type": "address"
            }
          ],
          "internalType": "struct Instruction[]",
          "name": "",
          "type": "tuple[]"
        }
      ],
      "stateMutability": "view",
      "type": "function"
    },
    {
      "inputs": [],
      "name": "kernel",
      "outputs": [
        {
          "internalType": "contract Kernel",
          "name": "",
          "type": "address"
        }
      ],
      "stateMutability": "view",
      "type": "function"
    },
    {
      "inputs": [
        {
          "components": [
            {
              "internalType": "enum Actions",
              "name": "action",
              "type": "uint8"
            },
            {
              "internalType": "address",
              "name": "target",
              "type": "address"
            }
          ],
          "internalType": "struct Instruction[]",
          "name": "instructions_",
          "type": "tuple[]"
        }
      ],
      "name": "store",
      "outputs": [
        {
          "internalType": "uint256",
          "name": "",
          "type": "uint256"
        }
      ],
      "stateMutability": "nonpayable",
      "type": "function"
    },
    {
      "inputs": [
        {
          "internalType": "uint256",
          "name": "",
          "type": "uint256"
        },
        {
          "internalType": "uint256",
          "name": "",
          "type": "uint256"
        }
      ],
      "name": "storedInstructions",
      "outputs": [
        {
          "internalType": "enum Actions",
          "name": "action",
          "type": "uint8"
        },
        {
          "internalType": "address",
          "name": "target",
          "type": "address"
        }
      ],
      "stateMutability": "view",
      "type": "function"
    },
    {
      "inputs": [],
      "name": "totalInstructions",
      "outputs": [
        {
          "internalType": "uint256",
          "name": "",
          "type": "uint256"
        }
      ],
      "stateMutability": "view",
      "type": "function"
    }
  ],
  "bytecode": {
    "object": "0x608060405234801561001057600080fd5b50604051610dd9380380610dd983398101604081905261002f91610054565b600080546001600160a01b0319166001600160a01b0392909216919091179055610084565b60006020828403121561006657600080fd5b81516001600160a01b038116811461007d57600080fd5b9392505050565b610d46806100936000396000f3fe608060405234801561001057600080fd5b50600436106100a35760003560e01c8063b1d85eec11610076578063ea6439141161005b578063ea64391414610180578063f19928c014610188578063ffa1ad74146101a857600080fd5b8063b1d85eec14610128578063d4aae0c41461013b57600080fd5b80631ae7ec2e146100a85780634657b36c146100db5780636eaadfc7146100f05780638ba639a414610107575b600080fd5b6040517f494e53545200000000000000000000000000000000000000000000000000000081526020015b60405180910390f35b6100ee6100e9366004610931565b6101bd565b005b6100f960015481565b6040519081526020016100d2565b61011a610115366004610955565b61025c565b6040516100d29291906109e1565b6100f9610136366004610a12565b6102aa565b60005461015b9073ffffffffffffffffffffffffffffffffffffffff1681565b60405173ffffffffffffffffffffffffffffffffffffffff90911681526020016100d2565b6100ee610671565b61019b610196366004610a87565b6106c6565b6040516100d29190610aa0565b604080516001815260006020820152016100d2565b60005473ffffffffffffffffffffffffffffffffffffffff163314610215576040517f14fa403c0000000000000000000000000000000000000000000000000000000081523360048201526024015b60405180910390fd5b600080547fffffffffffffffffffffffff00000000000000000000000000000000000000001673ffffffffffffffffffffffffffffffffffffffff92909216919091179055565b6002602052816000526040600020818154811061027857600080fd5b60009182526020909120015460ff81169250610100900473ffffffffffffffffffffffffffffffffffffffff16905082565b6000805473ffffffffffffffffffffffffffffffffffffffff1663f166d9eb7f494e5354520000000000000000000000000000000000000000000000000000006040517fffffffff0000000000000000000000000000000000000000000000000000000060e084901b811682527fffffffffff0000000000000000000000000000000000000000000000000000009290921660048201523360248201526000359091166044820152606401602060405180830381865afa158015610372573d6000803e3d6000fd5b505050506040513d601f19601f820116820180604052508101906103969190610b0c565b6103ce576040517f11bf00c900000000000000000000000000000000000000000000000000000000815233600482015260240161020c565b60018054839160009182906103e290610b5d565b91829055506000818152600260205260408120919250839003610431576040517f3f6c6e9900000000000000000000000000000000000000000000000000000000815260040160405180910390fd5b60005b83811015610634573687878381811061044f5761044f610b95565b905060400201905061047281602001602081019061046d9190610931565b610782565b60006104816020830183610bd1565b600581111561049257610492610977565b14806104bb575060016104a86020830183610bd1565b60058111156104b9576104b9610977565b145b156105515760006104d26040830160208401610931565b905061054b8173ffffffffffffffffffffffffffffffffffffffff16631ae7ec2e6040518163ffffffff1660e01b8152600401602060405180830381865afa158015610522573d6000803e3d6000fd5b505050506040513d601f19601f820116820180604052508101906105469190610bee565b6107ee565b506105e7565b60046105606020830183610bd1565b600581111561057157610571610977565b148061059a575060056105876020830183610bd1565b600581111561059857610598610977565b145b80156105b057506105ac600186610c30565b8214155b156105e7576040517f515b07cd00000000000000000000000000000000000000000000000000000000815260040160405180910390fd5b828888848181106105fa576105fa610b95565b835460018101855560009485526020909420604090910292909201929190910190506106268282610c47565b505081600101915050610434565b506040518281527f786456549a8048fc360b44d675c164244436ef1e5048c3aecea4d160400fd0019060200160405180910390a150949350505050565b60005473ffffffffffffffffffffffffffffffffffffffff1633146106c4576040517f14fa403c00000000000000000000000000000000000000000000000000000000815233600482015260240161020c565b565b606060026000838152602001908152602001600020805480602002602001604051908101604052809291908181526020016000905b8282101561077757600084815260209020604080518082019091529083018054829060ff16600581111561073157610731610977565b600581111561074257610742610977565b81529054610100900473ffffffffffffffffffffffffffffffffffffffff1660209182015290825260019290920191016106fb565b505050509050919050565b8073ffffffffffffffffffffffffffffffffffffffff163b6000036107eb576040517f6f46ea7400000000000000000000000000000000000000000000000000000000815273ffffffffffffffffffffffffffffffffffffffff8216600482015260240161020c565b50565b8060005b600581101561090a57600082826005811061080f5761080f610b95565b1a60f81b90507f41000000000000000000000000000000000000000000000000000000000000007fff00000000000000000000000000000000000000000000000000000000000000821610806108a657507f5a000000000000000000000000000000000000000000000000000000000000007fff000000000000000000000000000000000000000000000000000000000000008216115b15610901576040517f3afbb8280000000000000000000000000000000000000000000000000000000081527fffffffffff0000000000000000000000000000000000000000000000000000008516600482015260240161020c565b506001016107f2565b505050565b73ffffffffffffffffffffffffffffffffffffffff811681146107eb57600080fd5b60006020828403121561094357600080fd5b813561094e8161090f565b9392505050565b6000806040838503121561096857600080fd5b50508035926020909101359150565b7f4e487b7100000000000000000000000000000000000000000000000000000000600052602160045260246000fd5b600681106109dd577f4e487b7100000000000000000000000000000000000000000000000000000000600052602160045260246000fd5b9052565b604081016109ef82856109a6565b73ffffffffffffffffffffffffffffffffffffffff831660208301529392505050565b60008060208385031215610a2557600080fd5b823567ffffffffffffffff80821115610a3d57600080fd5b818501915085601f830112610a5157600080fd5b813581811115610a6057600080fd5b8660208260061b8501011115610a7557600080fd5b60209290920196919550909350505050565b600060208284031215610a9957600080fd5b5035919050565b602080825282518282018190526000919060409081850190868401855b82811015610aff578151610ad28582516109a6565b86015173ffffffffffffffffffffffffffffffffffffffff16848701529284019290850190600101610abd565b5091979650505050505050565b600060208284031215610b1e57600080fd5b8151801515811461094e57600080fd5b7f4e487b7100000000000000000000000000000000000000000000000000000000600052601160045260246000fd5b60007fffffffffffffffffffffffffffffffffffffffffffffffffffffffffffffffff8203610b8e57610b8e610b2e565b5060010190565b7f4e487b7100000000000000000000000000000000000000000000000000000000600052603260045260246000fd5b600681106107eb57600080fd5b600060208284031215610be357600080fd5b813561094e81610bc4565b600060208284031215610c0057600080fd5b81517fffffffffff0000000000000000000000000000000000000000000000000000008116811461094e57600080fd5b600082821015610c4257610c42610b2e565b500390565b8135610c5281610bc4565b60068110610c89577f4e487b7100000000000000000000000000000000000000000000000000000000600052602160045260246000fd5b815460ff82169150817fffffffffffffffffffffffffffffffffffffffffffffffffffffffffffffff0082161783556020840135610cc68161090f565b74ffffffffffffffffffffffffffffffffffffffff008160081b16837fffffffffffffffffffffff000000000000000000000000000000000000000000841617178455505050505056fea2646970667358221220fed4b64bf0af551d85f802b758c171fd0abe9b8a17585144bc2447cc1d59f30264736f6c634300080f0033",
    "linkReferences": {}
  },
  "methodIdentifiers": {
    "INIT()": "ea643914",
    "KEYCODE()": "1ae7ec2e",
    "VERSION()": "ffa1ad74",
    "changeKernel(address)": "4657b36c",
    "getInstructions(uint256)": "f19928c0",
    "kernel()": "d4aae0c4",
    "store((uint8,address)[])": "b1d85eec",
    "storedInstructions(uint256,uint256)": "8ba639a4",
    "totalInstructions()": "6eaadfc7"
  },
  "id": 90
}