{
  "abi": [
    {
      "inputs": [
        {
          "internalType": "contract Kernel",
          "name": "kernel_",
          "type": "address"
        }
      ],
      "stateMutability": "nonpayable",
      "type": "constructor"
    },
    {
      "inputs": [],
      "name": "INSTR_InstructionsCannotBeEmpty",
      "type": "error"
    },
    {
      "inputs": [],
      "name": "INSTR_InvalidAction",
      "type": "error"
    },
    {
      "inputs": [
        {
          "internalType": "Keycode",
          "name": "keycode_",
          "type": "bytes5"
        }
      ],
      "name": "InvalidKeycode",
      "type": "error"
    },
    {
      "inputs": [
        {
          "internalType": "address",
          "name": "caller_",
          "type": "address"
        }
      ],
      "name": "KernelAdapter_OnlyKernel",
      "type": "error"
    },
    {
      "inputs": [
        {
          "internalType": "address",
          "name": "policy_",
          "type": "address"
        }
      ],
      "name": "Module_PolicyNotPermitted",
      "type": "error"
    },
    {
      "inputs": [
        {
          "internalType": "address",
          "name": "target_",
          "type": "address"
        }
      ],
      "name": "TargetNotAContract",
      "type": "error"
    },
    {
      "anonymous": false,
      "inputs": [
        {
          "indexed": false,
          "internalType": "uint256",
          "name": "instructionsId",
          "type": "uint256"
        }
      ],
      "name": "InstructionsStored",
      "type": "event"
    },
    {
      "inputs": [],
      "name": "INIT",
      "outputs": [],
      "stateMutability": "nonpayable",
      "type": "function"
    },
    {
      "inputs": [],
      "name": "KEYCODE",
      "outputs": [
        {
          "internalType": "Keycode",
          "name": "",
          "type": "bytes5"
        }
      ],
      "stateMutability": "pure",
      "type": "function"
    },
    {
      "inputs": [],
      "name": "VERSION",
      "outputs": [
        {
          "internalType": "uint8",
          "name": "major",
          "type": "uint8"
        },
        {
          "internalType": "uint8",
          "name": "minor",
          "type": "uint8"
        }
      ],
      "stateMutability": "pure",
      "type": "function"
    },
    {
      "inputs": [
        {
          "internalType": "contract Kernel",
          "name": "newKernel_",
          "type": "address"
        }
      ],
      "name": "changeKernel",
      "outputs": [],
      "stateMutability": "nonpayable",
      "type": "function"
    },
    {
      "inputs": [
        {
          "internalType": "uint256",
          "name": "instructionsId_",
          "type": "uint256"
        }
      ],
      "name": "getInstructions",
      "outputs": [
        {
          "components": [
            {
              "internalType": "enum Actions",
              "name": "action",
              "type": "uint8"
            },
            {
              "internalType": "address",
              "name": "target",
              "type": "address"
            }
          ],
          "internalType": "struct Instruction[]",
          "name": "",
          "type": "tuple[]"
        }
      ],
      "stateMutability": "view",
      "type": "function"
    },
    {
      "inputs": [],
      "name": "kernel",
      "outputs": [
        {
          "internalType": "contract Kernel",
          "name": "",
          "type": "address"
        }
      ],
      "stateMutability": "view",
      "type": "function"
    },
    {
      "inputs": [
        {
          "components": [
            {
              "internalType": "enum Actions",
              "name": "action",
              "type": "uint8"
            },
            {
              "internalType": "address",
              "name": "target",
              "type": "address"
            }
          ],
          "internalType": "struct Instruction[]",
          "name": "instructions_",
          "type": "tuple[]"
        }
      ],
      "name": "store",
      "outputs": [
        {
          "internalType": "uint256",
          "name": "",
          "type": "uint256"
        }
      ],
      "stateMutability": "nonpayable",
      "type": "function"
    },
    {
      "inputs": [
        {
          "internalType": "uint256",
          "name": "",
          "type": "uint256"
        },
        {
          "internalType": "uint256",
          "name": "",
          "type": "uint256"
        }
      ],
      "name": "storedInstructions",
      "outputs": [
        {
          "internalType": "enum Actions",
          "name": "action",
          "type": "uint8"
        },
        {
          "internalType": "address",
          "name": "target",
          "type": "address"
        }
      ],
      "stateMutability": "view",
      "type": "function"
    },
    {
      "inputs": [],
      "name": "totalInstructions",
      "outputs": [
        {
          "internalType": "uint256",
          "name": "",
          "type": "uint256"
        }
      ],
      "stateMutability": "view",
      "type": "function"
    }
  ],
  "bytecode": {
    "object": "0x608060405234801561001057600080fd5b50604051610a84380380610a8483398101604081905261002f91610054565b600080546001600160a01b0319166001600160a01b0392909216919091179055610084565b60006020828403121561006657600080fd5b81516001600160a01b038116811461007d57600080fd5b9392505050565b6109f1806100936000396000f3fe608060405234801561001057600080fd5b50600436106100835760003560e01c80631ae7ec2e146100885780634657b36c146100a65780636eaadfc7146100bb5780638ba639a4146100d2578063b1d85eec146100f3578063d4aae0c414610106578063ea64391414610126578063f19928c01461012e578063ffa1ad741461014e575b600080fd5b610090610163565b60405161009d91906106ad565b60405180910390f35b6100b96100b43660046106d7565b61016f565b005b6100c460015481565b60405190815260200161009d565b6100e56100e03660046106fb565b6101c7565b60405161009d929190610755565b6100c461010136600461077b565b610208565b600054610119906001600160a01b031681565b60405161009d91906107ef565b6100b9610521565b61014161013c366004610803565b610550565b60405161009d919061081c565b6040805160018152600060208201520161009d565b6424a729aa2960d91b90565b6000546001600160a01b031633146101a5573360405163053e900f60e21b815260040161019c91906107ef565b60405180910390fd5b600080546001600160a01b0319166001600160a01b0392909216919091179055565b600260205281600052604060002081815481106101e357600080fd5b60009182526020909120015460ff8116925061010090046001600160a01b0316905082565b600080546001600160a01b031663f166d9eb610222610163565b6040516001600160e01b031960e084901b811682526001600160d81b03199290921660048201523360248201526000359091166044820152606401602060405180830381865afa15801561027a573d6000803e3d6000fd5b505050506040513d601f19601f8201168201806040525081019061029e919061087b565b6102bd57336040516311bf00c960e01b815260040161019c91906107ef565b60018054839160009182906102d1906108b3565b9182905550600081815260026020526040812091925083900361030757604051633f6c6e9960e01b815260040160405180910390fd5b60005b838110156104e45736878783818110610325576103256108cc565b905060400201905061034881602001602081019061034391906106d7565b6105ff565b600061035760208301836108ef565b60058111156103685761036861071d565b14806103915750600161037e60208301836108ef565b600581111561038f5761038f61071d565b145b1561041a5760006103a860408301602084016106d7565b9050610414816001600160a01b0316631ae7ec2e6040518163ffffffff1660e01b8152600401602060405180830381865afa1580156103eb573d6000803e3d6000fd5b505050506040513d601f19601f8201168201806040525081019061040f919061090c565b61062f565b50610497565b600461042960208301836108ef565b600581111561043a5761043a61071d565b14806104635750600561045060208301836108ef565b60058111156104615761046161071d565b145b80156104795750610475600186610936565b8214155b156104975760405163515b07cd60e01b815260040160405180910390fd5b828888848181106104aa576104aa6108cc565b835460018101855560009485526020909420604090910292909201929190910190506104d6828261094d565b50508160010191505061030a565b506040518281527f786456549a8048fc360b44d675c164244436ef1e5048c3aecea4d160400fd0019060200160405180910390a150949350505050565b6000546001600160a01b0316331461054e573360405163053e900f60e21b815260040161019c91906107ef565b565b606060026000838152602001908152602001600020805480602002602001604051908101604052809291908181526020016000905b828210156105f457600084815260209020604080518082019091529083018054829060ff1660058111156105bb576105bb61071d565b60058111156105cc576105cc61071d565b8152905461010090046001600160a01b03166020918201529082526001929092019101610585565b505050509050919050565b806001600160a01b03163b60000361062c5780604051631bd1ba9d60e21b815260040161019c91906107ef565b50565b8060005b60058110156106a8576000828260058110610650576106506108cc565b1a60f81b9050604160f81b6001600160f81b03198216108061067f5750602d60f91b6001600160f81b03198216115b1561069f578360405163075f770560e31b815260040161019c91906106ad565b50600101610633565b505050565b6001600160d81b031991909116815260200190565b6001600160a01b038116811461062c57600080fd5b6000602082840312156106e957600080fd5b81356106f4816106c2565b9392505050565b6000806040838503121561070e57600080fd5b50508035926020909101359150565b634e487b7160e01b600052602160045260246000fd5b6006811061075157634e487b7160e01b600052602160045260246000fd5b9052565b604081016107638285610733565b6001600160a01b039290921660209190910152919050565b6000806020838503121561078e57600080fd5b82356001600160401b03808211156107a557600080fd5b818501915085601f8301126107b957600080fd5b8135818111156107c857600080fd5b8660208260061b85010111156107dd57600080fd5b60209290920196919550909350505050565b6001600160a01b0391909116815260200190565b60006020828403121561081557600080fd5b5035919050565b602080825282518282018190526000919060409081850190868401855b8281101561086e57815161084e858251610733565b8601516001600160a01b0316848701529284019290850190600101610839565b5091979650505050505050565b60006020828403121561088d57600080fd5b815180151581146106f457600080fd5b634e487b7160e01b600052601160045260246000fd5b6000600182016108c5576108c561089d565b5060010190565b634e487b7160e01b600052603260045260246000fd5b6006811061062c57600080fd5b60006020828403121561090157600080fd5b81356106f4816108e2565b60006020828403121561091e57600080fd5b81516001600160d81b0319811681146106f457600080fd5b6000828210156109485761094861089d565b500390565b8135610958816108e2565b6006811061097657634e487b7160e01b600052602160045260246000fd5b815460ff821691508160ff1982161783556020840135610995816106c2565b6001600160a81b03199190911690911760089190911b610100600160a81b03161790555056fea2646970667358221220dc53c310902c768c083a25386b1247a9dcb2fa418aa20f5d8a2aa691fbac502b64736f6c634300080f0033",
    "linkReferences": {}
  },
  "methodIdentifiers": {
    "INIT()": "ea643914",
    "KEYCODE()": "1ae7ec2e",
    "VERSION()": "ffa1ad74",
    "changeKernel(address)": "4657b36c",
    "getInstructions(uint256)": "f19928c0",
    "kernel()": "d4aae0c4",
    "store((uint8,address)[])": "b1d85eec",
    "storedInstructions(uint256,uint256)": "8ba639a4",
    "totalInstructions()": "6eaadfc7"
  },
  "id": 91
}