{
  "abi": [
    {
      "inputs": [
        {
          "internalType": "address",
          "name": "factoryAddress",
          "type": "address"
        }
      ],
      "stateMutability": "nonpayable",
      "type": "constructor"
    },
    {
      "inputs": [],
      "name": "ExcessiveInputAmount",
      "type": "error"
    },
    {
      "inputs": [],
      "name": "InsufficientAAmount",
      "type": "error"
    },
    {
      "inputs": [],
      "name": "InsufficientBAmount",
      "type": "error"
    },
    {
      "inputs": [],
      "name": "InsufficientOutputAmount",
      "type": "error"
    },
    {
      "inputs": [],
      "name": "SafeTransferFailed",
      "type": "error"
    },
    {
      "inputs": [
        {
          "internalType": "address",
          "name": "tokenA",
          "type": "address"
        },
        {
          "internalType": "address",
          "name": "tokenB",
          "type": "address"
        },
        {
          "internalType": "uint256",
          "name": "amountADesired",
          "type": "uint256"
        },
        {
          "internalType": "uint256",
          "name": "amountBDesired",
          "type": "uint256"
        },
        {
          "internalType": "uint256",
          "name": "amountAMin",
          "type": "uint256"
        },
        {
          "internalType": "uint256",
          "name": "amountBMin",
          "type": "uint256"
        },
        {
          "internalType": "address",
          "name": "to",
          "type": "address"
        }
      ],
      "name": "addLiquidity",
      "outputs": [
        {
          "internalType": "uint256",
          "name": "amountA",
          "type": "uint256"
        },
        {
          "internalType": "uint256",
          "name": "amountB",
          "type": "uint256"
        },
        {
          "internalType": "uint256",
          "name": "liquidity",
          "type": "uint256"
        }
      ],
      "stateMutability": "nonpayable",
      "type": "function"
    },
    {
      "inputs": [
        {
          "internalType": "address",
          "name": "tokenA",
          "type": "address"
        },
        {
          "internalType": "address",
          "name": "tokenB",
          "type": "address"
        },
        {
          "internalType": "uint256",
          "name": "liquidity",
          "type": "uint256"
        },
        {
          "internalType": "uint256",
          "name": "amountAMin",
          "type": "uint256"
        },
        {
          "internalType": "uint256",
          "name": "amountBMin",
          "type": "uint256"
        },
        {
          "internalType": "address",
          "name": "to",
          "type": "address"
        }
      ],
      "name": "removeLiquidity",
      "outputs": [
        {
          "internalType": "uint256",
          "name": "amountA",
          "type": "uint256"
        },
        {
          "internalType": "uint256",
          "name": "amountB",
          "type": "uint256"
        }
      ],
      "stateMutability": "nonpayable",
      "type": "function"
    },
    {
      "inputs": [
        {
          "internalType": "uint256",
          "name": "amountIn",
          "type": "uint256"
        },
        {
          "internalType": "uint256",
          "name": "amountOutMin",
          "type": "uint256"
        },
        {
          "internalType": "address[]",
          "name": "path",
          "type": "address[]"
        },
        {
          "internalType": "address",
          "name": "to",
          "type": "address"
        }
      ],
      "name": "swapExactTokensForTokens",
      "outputs": [
        {
          "internalType": "uint256[]",
          "name": "amounts",
          "type": "uint256[]"
        }
      ],
      "stateMutability": "nonpayable",
      "type": "function"
    },
    {
      "inputs": [
        {
          "internalType": "uint256",
          "name": "amountOut",
          "type": "uint256"
        },
        {
          "internalType": "uint256",
          "name": "amountInMax",
          "type": "uint256"
        },
        {
          "internalType": "address[]",
          "name": "path",
          "type": "address[]"
        },
        {
          "internalType": "address",
          "name": "to",
          "type": "address"
        }
      ],
      "name": "swapTokensForExactTokens",
      "outputs": [
        {
          "internalType": "uint256[]",
          "name": "amounts",
          "type": "uint256[]"
        }
      ],
      "stateMutability": "nonpayable",
      "type": "function"
    }
  ],
  "bytecode": {
    "object": "0x608060405234801561001057600080fd5b5060405161404238038061404283398101604081905261002f91610054565b600080546001600160a01b0319166001600160a01b0392909216919091179055610084565b60006020828403121561006657600080fd5b81516001600160a01b038116811461007d57600080fd5b9392505050565b613faf806100936000396000f3fe60806040523480156200001157600080fd5b5060043610620000525760003560e01c806342712a671462000057578063472b43f31462000086578063c0e3ee6b146200009d578063ca3d653914620000ca575b600080fd5b6200006e6200006836600462001153565b620000fd565b6040516200007d9190620011f8565b60405180910390f35b6200006e6200009736600462001153565b6200035f565b620000b4620000ae3660046200123e565b620004a2565b604080519283526020830191909152016200007d565b620000e1620000db366004620012ac565b6200068c565b604080519384526020840192909252908201526060016200007d565b6000546040517f192128b200000000000000000000000000000000000000000000000000000000815260609173__$df304eaf27f8038f137cf78d8c40bc5dc3$__9163192128b291620001729173ffffffffffffffffffffffffffffffffffffffff909116908a908990899060040162001325565b600060405180830381865af415801562000190573d6000803e3d6000fd5b505050506040513d6000823e601f3d9081017fffffffffffffffffffffffffffffffffffffffffffffffffffffffffffffffe0168201604052620001d89190810190620013c8565b9050848160018351620001ec9190620014df565b81518110620001ff57620001ff620014f9565b6020026020010151111562000240576040517fe1b0da4f00000000000000000000000000000000000000000000000000000000815260040160405180910390fd5b62000315848460008181106200025a576200025a620014f9565b905060200201602081019062000271919062001528565b600080543391620002f19173ffffffffffffffffffffffffffffffffffffffff16908990899081620002a757620002a7620014f9565b9050602002016020810190620002be919062001528565b89896001818110620002d457620002d4620014f9565b9050602002016020810190620002eb919062001528565b620008f2565b84600081518110620003075762000307620014f9565b602002602001015162000a3a565b620003568185858080602002602001604051908101604052809392919081815260200183836020028082843760009201919091525087925062000bad915050565b95945050505050565b6000546040517fbb7b9c7600000000000000000000000000000000000000000000000000000000815260609173__$df304eaf27f8038f137cf78d8c40bc5dc3$__9163bb7b9c7691620003d49173ffffffffffffffffffffffffffffffffffffffff909116908a908990899060040162001325565b600060405180830381865af4158015620003f2573d6000803e3d6000fd5b505050506040513d6000823e601f3d9081017fffffffffffffffffffffffffffffffffffffffffffffffffffffffffffffffe01682016040526200043a9190810190620013c8565b90508481600183516200044e9190620014df565b81518110620004615762000461620014f9565b6020026020010151101562000240576040517f42301c2300000000000000000000000000000000000000000000000000000000815260040160405180910390fd5b6000805481908190620004cd9073ffffffffffffffffffffffffffffffffffffffff168a8a620008f2565b6040517f23b872dd00000000000000000000000000000000000000000000000000000000815233600482015273ffffffffffffffffffffffffffffffffffffffff821660248201819052604482018a90529192506323b872dd906064016020604051808303816000875af11580156200054a573d6000803e3d6000fd5b505050506040513d601f19601f820116820180604052508101906200057091906200154f565b506040517f89afcb4400000000000000000000000000000000000000000000000000000000815273ffffffffffffffffffffffffffffffffffffffff85811660048301528216906389afcb449060240160408051808303816000875af1158015620005df573d6000803e3d6000fd5b505050506040513d601f19601f8201168201806040525081019062000605919062001573565b90935091508583101562000645576040517f8dc525d100000000000000000000000000000000000000000000000000000000815260040160405180910390fd5b8483101562000680576040517fef71d09100000000000000000000000000000000000000000000000000000000815260040160405180910390fd5b50965096945050505050565b600080546040517f69454b8600000000000000000000000000000000000000000000000000000000815273ffffffffffffffffffffffffffffffffffffffff8a811660048301528981166024830152839283928392909116906369454b8690604401602060405180830381865afa1580156200070c573d6000803e3d6000fd5b505050506040513d601f19601f8201168201806040525081019062000732919062001598565b73ffffffffffffffffffffffffffffffffffffffff1603620007f1576000546040517fc9c6539600000000000000000000000000000000000000000000000000000000815273ffffffffffffffffffffffffffffffffffffffff8c811660048301528b811660248301529091169063c9c65396906044016020604051808303816000875af1158015620007c9573d6000803e3d6000fd5b505050506040513d601f19601f82011682018060405250810190620007ef919062001598565b505b620008018a8a8a8a8a8a62000df8565b60008054929550909350906200082f9073ffffffffffffffffffffffffffffffffffffffff168c8c620008f2565b90506200083f8b33838762000a3a565b6200084d8a33838662000a3a565b6040517f6a62784200000000000000000000000000000000000000000000000000000000815273ffffffffffffffffffffffffffffffffffffffff8681166004830152821690636a627842906024016020604051808303816000875af1158015620008bc573d6000803e3d6000fd5b505050506040513d601f19601f82011682018060405250810190620008e29190620015b8565b9150509750975097945050505050565b6000806000620009038585620010d2565b6040517fffffffffffffffffffffffffffffffffffffffff000000000000000000000000606084811b8216602084015283901b1660348201529193509150869060480160405160208183030381529060405280519060200120604051806020016200096e906200111f565b6020820181038252601f19601f8201166040525080519060200120604051602001620009fa939291907fff00000000000000000000000000000000000000000000000000000000000000815260609390931b7fffffffffffffffffffffffffffffffffffffffff0000000000000000000000001660018401526015830191909152603582015260550190565b604080517fffffffffffffffffffffffffffffffffffffffffffffffffffffffffffffffe081840301815291905280516020909101209695505050505050565b60405173ffffffffffffffffffffffffffffffffffffffff84811660248301528381166044830152606482018390526000918291871690608401604080517fffffffffffffffffffffffffffffffffffffffffffffffffffffffffffffffe08184030181529181526020820180517bffffffffffffffffffffffffffffffffffffffffffffffffffffffff167f23b872dd000000000000000000000000000000000000000000000000000000001790525162000af79190620015d2565b6000604051808303816000865af19150503d806000811462000b36576040519150601f19603f3d011682016040523d82523d6000602084013e62000b3b565b606091505b509150915081158062000b6d575080511580159062000b6d57508080602001905181019062000b6b91906200154f565b155b1562000ba5576040517ffb7f507900000000000000000000000000000000000000000000000000000000815260040160405180910390fd5b505050505050565b60005b6001835162000bc09190620014df565b81101562000df25760008084838151811062000be05762000be0620014f9565b60200260200101518584600162000bf8919062001610565b8151811062000c0b5762000c0b620014f9565b602002602001015191509150600062000c258383620010d2565b50905060008762000c3886600162001610565b8151811062000c4b5762000c4b620014f9565b602002602001015190506000808373ffffffffffffffffffffffffffffffffffffffff168673ffffffffffffffffffffffffffffffffffffffff161462000c955782600062000c99565b6000835b91509150600060028a5162000caf9190620014df565b881062000cbd578862000d0b565b60005462000d0b9073ffffffffffffffffffffffffffffffffffffffff16878c62000cea8c600262001610565b8151811062000cfd5762000cfd620014f9565b6020026020010151620008f2565b60005490915062000d349073ffffffffffffffffffffffffffffffffffffffff168888620008f2565b6040517f022c0d9f000000000000000000000000000000000000000000000000000000008152600481018590526024810184905273ffffffffffffffffffffffffffffffffffffffff83811660448301526080606483015260006084830152919091169063022c0d9f9060a401600060405180830381600087803b15801562000dbc57600080fd5b505af115801562000dd1573d6000803e3d6000fd5b5050505050505050505050808062000de9906200162b565b91505062000bb0565b50505050565b600080546040517f3274946100000000000000000000000000000000000000000000000000000000815273ffffffffffffffffffffffffffffffffffffffff91821660048201528882166024820152908716604482015281908190819073__$df304eaf27f8038f137cf78d8c40bc5dc3$__906332749461906064016040805180830381865af415801562000e91573d6000803e3d6000fd5b505050506040513d601f19601f8201168201806040525081019062000eb7919062001573565b9150915081600014801562000eca575080155b1562000edc57879350869250620010c5565b6040517fad615dec00000000000000000000000000000000000000000000000000000000815260048101899052602481018390526044810182905260009073__$df304eaf27f8038f137cf78d8c40bc5dc3$__9063ad615dec90606401602060405180830381865af415801562000f57573d6000803e3d6000fd5b505050506040513d601f19601f8201168201806040525081019062000f7d9190620015b8565b905087811162000fcd5785811162000fc1576040517fef71d09100000000000000000000000000000000000000000000000000000000815260040160405180910390fd5b889450925082620010c3565b6040517fad615dec00000000000000000000000000000000000000000000000000000000815260048101899052602481018390526044810184905260009073__$df304eaf27f8038f137cf78d8c40bc5dc3$__9063ad615dec90606401602060405180830381865af415801562001048573d6000803e3d6000fd5b505050506040513d601f19601f820116820180604052508101906200106e9190620015b8565b90508981111562001083576200108362001666565b878111620010bd576040517f8dc525d100000000000000000000000000000000000000000000000000000000815260040160405180910390fd5b94508793505b505b5050965096945050505050565b6000808273ffffffffffffffffffffffffffffffffffffffff168473ffffffffffffffffffffffffffffffffffffffff16106200111157828462001114565b83835b915091509250929050565b6128e4806200169683390190565b73ffffffffffffffffffffffffffffffffffffffff811681146200115057600080fd5b50565b6000806000806000608086880312156200116c57600080fd5b8535945060208601359350604086013567ffffffffffffffff808211156200119357600080fd5b818801915088601f830112620011a857600080fd5b813581811115620011b857600080fd5b8960208260051b8501011115620011ce57600080fd5b6020830195508094505050506060860135620011ea816200112d565b809150509295509295909350565b6020808252825182820181905260009190848201906040850190845b81811015620012325783518352928401929184019160010162001214565b50909695505050505050565b60008060008060008060c087890312156200125857600080fd5b863562001265816200112d565b9550602087013562001277816200112d565b945060408701359350606087013592506080870135915060a08701356200129e816200112d565b809150509295509295509295565b600080600080600080600060e0888a031215620012c857600080fd5b8735620012d5816200112d565b96506020880135620012e7816200112d565b955060408801359450606088013593506080880135925060a0880135915060c088013562001315816200112d565b8091505092959891949750929550565b73ffffffffffffffffffffffffffffffffffffffff858116825260208083018690526060604084018190528301849052600091859160808501845b878110156200138b57843562001376816200112d565b84168252938201939082019060010162001360565b509998505050505050505050565b7f4e487b7100000000000000000000000000000000000000000000000000000000600052604160045260246000fd5b60006020808385031215620013dc57600080fd5b825167ffffffffffffffff80821115620013f557600080fd5b818501915085601f8301126200140a57600080fd5b8151818111156200141f576200141f62001399565b8060051b6040517fffffffffffffffffffffffffffffffffffffffffffffffffffffffffffffffe0603f8301168101818110858211171562001465576200146562001399565b6040529182528482019250838101850191888311156200148457600080fd5b938501935b82851015620014a45784518452938501939285019262001489565b98975050505050505050565b7f4e487b7100000000000000000000000000000000000000000000000000000000600052601160045260246000fd5b600082821015620014f457620014f4620014b0565b500390565b7f4e487b7100000000000000000000000000000000000000000000000000000000600052603260045260246000fd5b6000602082840312156200153b57600080fd5b813562001548816200112d565b9392505050565b6000602082840312156200156257600080fd5b815180151581146200154857600080fd5b600080604083850312156200158757600080fd5b505080516020909101519092909150565b600060208284031215620015ab57600080fd5b815162001548816200112d565b600060208284031215620015cb57600080fd5b5051919050565b6000825160005b81811015620015f55760208186018101518583015201620015d9565b8181111562001605576000828501525b509190910192915050565b60008219821115620016265762001626620014b0565b500190565b60007fffffffffffffffffffffffffffffffffffffffffffffffffffffffffffffffff82036200165f576200165f620014b0565b5060010190565b7f4e487b7100000000000000000000000000000000000000000000000000000000600052600160045260246000fdfe60e06040523480156200001157600080fd5b506040518060400160405280600f81526020016e2d3ab734b9bbb0b82b19102830b4b960891b815250604051806040016040528060068152602001652d2aa724ab1960d11b815250601282600090816200006c9190620001df565b5060016200007b8382620001df565b5060ff81166080524660a052620000916200009e565b60c0525062000329915050565b60007f8b73c3c69bb8fe3d512ecc4cf759cc79239f7b179b0ffacaa9a75d522b39400f6000604051620000d29190620002ab565b6040805191829003822060208301939093528101919091527fc89efdaa54c0f20c7adf612882df0950f5a951637e0307cdcb4c672f298b8bc660608201524660808201523060a082015260c00160405160208183030381529060405280519060200120905090565b634e487b7160e01b600052604160045260246000fd5b600181811c908216806200016557607f821691505b6020821081036200018657634e487b7160e01b600052602260045260246000fd5b50919050565b601f821115620001da57600081815260208120601f850160051c81016020861015620001b55750805b601f850160051c820191505b81811015620001d657828155600101620001c1565b5050505b505050565b81516001600160401b03811115620001fb57620001fb6200013a565b62000213816200020c845462000150565b846200018c565b602080601f8311600181146200024b5760008415620002325750858301515b600019600386901b1c1916600185901b178555620001d6565b600085815260208120601f198616915b828110156200027c578886015182559484019460019091019084016200025b565b50858210156200029b5787850151600019600388901b60f8161c191681555b5050505050600190811b01905550565b6000808354620002bb8162000150565b60018281168015620002d65760018114620002ec576200031d565b60ff19841687528215158302870194506200031d565b8760005260208060002060005b85811015620003145781548a820152908401908201620002f9565b50505082870194505b50929695505050505050565b60805160a05160c05161258b620003596000396000610c2d01526000610bf8015260006102ac015261258b6000f3fe608060405234801561001057600080fd5b50600436106101775760003560e01c80635909c0d5116100d857806395d89b411161008c578063d505accf11610066578063d505accf146103a3578063dd62ed3e146103b6578063fff6cae9146103e157600080fd5b806395d89b4114610368578063a9059cbb14610370578063d21220a71461038357600080fd5b80636a627842116100bd5780636a6278421461030d57806370a082311461032057806389afcb441461034057600080fd5b80635909c0d5146102fb5780635a3d54931461030457600080fd5b806318160ddd1161012f578063313ce56711610114578063313ce567146102a75780633644e515146102e0578063485cc955146102e857600080fd5b806318160ddd1461027d57806323b872dd1461029457600080fd5b80630902f1ac116101605780630902f1ac146101af578063095ea7b3146102155780630dfe16811461023857600080fd5b8063022c0d9f1461017c57806306fdde0314610191575b600080fd5b61018f61018a366004611fca565b6103e9565b005b6101996109a9565b6040516101a6919061208e565b60405180910390f35b600754604080516dffffffffffffffffffffffffffff80841682526e01000000000000000000000000000084041660208201527c010000000000000000000000000000000000000000000000000000000090920463ffffffff16908201526060016101a6565b6102286102233660046120df565b610a37565b60405190151581526020016101a6565b6005546102589073ffffffffffffffffffffffffffffffffffffffff1681565b60405173ffffffffffffffffffffffffffffffffffffffff90911681526020016101a6565b61028660025481565b6040519081526020016101a6565b6102286102a2366004612109565b610ab0565b6102ce7f000000000000000000000000000000000000000000000000000000000000000081565b60405160ff90911681526020016101a6565b610286610bf4565b61018f6102f6366004612145565b610c4f565b61028660085481565b61028660095481565b61028661031b366004612178565b610d16565b61028661032e366004612178565b60036020526000908152604090205481565b61035361034e366004612178565b611030565b604080519283526020830191909152016101a6565b610199611438565b61022861037e3660046120df565b611445565b6006546102589073ffffffffffffffffffffffffffffffffffffffff1681565b61018f6103b1366004612193565b6114ca565b6102866103c4366004612145565b600460209081526000928352604080842090915290825290205481565b61018f6117d2565b600a5460ff16156103f957600080fd5b600a80547fffffffffffffffffffffffffffffffffffffffffffffffffffffffffffffff0016600117905584158015610430575083155b15610467576040517f42301c2300000000000000000000000000000000000000000000000000000000815260040160405180910390fd5b6000806104c36007546dffffffffffffffffffffffffffff808216926e01000000000000000000000000000083049091169163ffffffff7c01000000000000000000000000000000000000000000000000000000009091041690565b5091509150816dffffffffffffffffffffffffffff168711806104f55750806dffffffffffffffffffffffffffff1686115b1561052c576040517fbb55fd2700000000000000000000000000000000000000000000000000000000815260040160405180910390fd5b8615610556576005546105569073ffffffffffffffffffffffffffffffffffffffff16868961196c565b8515610580576006546105809073ffffffffffffffffffffffffffffffffffffffff16868861196c565b8215610613576040517fc68e5d5000000000000000000000000000000000000000000000000000000000815273ffffffffffffffffffffffffffffffffffffffff86169063c68e5d50906105e09033908b908b908a908a90600401612206565b600060405180830381600087803b1580156105fa57600080fd5b505af115801561060e573d6000803e3d6000fd5b505050505b6005546040517f70a0823100000000000000000000000000000000000000000000000000000000815230600482015260009173ffffffffffffffffffffffffffffffffffffffff16906370a08231906024016020604051808303816000875af1158015610684573d6000803e3d6000fd5b505050506040513d601f19601f820116820180604052508101906106a8919061227e565b6006546040517f70a0823100000000000000000000000000000000000000000000000000000000815230600482015291925060009173ffffffffffffffffffffffffffffffffffffffff909116906370a08231906024016020604051808303816000875af115801561071e573d6000803e3d6000fd5b505050506040513d601f19601f82011682018060405250810190610742919061227e565b600754909150600090610766908b906dffffffffffffffffffffffffffff166122c6565b831161077357600061079b565b600754610791908b906dffffffffffffffffffffffffffff166122c6565b61079b90846122c6565b6007549091506000906107d1908b906e01000000000000000000000000000090046dffffffffffffffffffffffffffff166122c6565b83116107de576000610818565b60075461080e908b906e01000000000000000000000000000090046dffffffffffffffffffffffffffff166122c6565b61081890846122c6565b905081158015610826575080155b1561085d576040517f098fb56100000000000000000000000000000000000000000000000000000000815260040160405180910390fd5b600061086a8360036122dd565b610876866103e86122dd565b61088091906122c6565b9050600061088f8360036122dd565b61089b866103e86122dd565b6108a591906122c6565b90506108c46dffffffffffffffffffffffffffff808916908a166122dd565b6108d190620f42406122dd565b6108db82846122dd565b1015610913576040517fbd8bc36400000000000000000000000000000000000000000000000000000000815260040160405180910390fd5b61091f86868a8a611acd565b604080518e8152602081018e905273ffffffffffffffffffffffffffffffffffffffff8d169133917f2a9237ff5aa599ef4c5ee4b1142b53429d5755e2685fe6288b2e3320202115f5910160405180910390a35050600a80547fffffffffffffffffffffffffffffffffffffffffffffffffffffffffffffff001690555050505050505050505050565b600080546109b69061231a565b80601f01602080910402602001604051908101604052809291908181526020018280546109e29061231a565b8015610a2f5780601f10610a0457610100808354040283529160200191610a2f565b820191906000526020600020905b815481529060010190602001808311610a1257829003601f168201915b505050505081565b33600081815260046020908152604080832073ffffffffffffffffffffffffffffffffffffffff8716808552925280832085905551919290917f8c5be1e5ebec7d5bd14f71427d1e84f3dd0314c0f7b2291e5b200ac8c7c3b92590610a9f9086815260200190565b60405180910390a350600192915050565b73ffffffffffffffffffffffffffffffffffffffff831660009081526004602090815260408083203384529091528120547fffffffffffffffffffffffffffffffffffffffffffffffffffffffffffffffff8114610b4457610b1283826122c6565b73ffffffffffffffffffffffffffffffffffffffff861660009081526004602090815260408083203384529091529020555b73ffffffffffffffffffffffffffffffffffffffff851660009081526003602052604081208054859290610b799084906122c6565b909155505073ffffffffffffffffffffffffffffffffffffffff808516600081815260036020526040908190208054870190555190918716907fddf252ad1be2c89b69c2b068fc378daa952ba7f163c4a11628f55a4df523b3ef90610be19087815260200190565b60405180910390a3506001949350505050565b60007f00000000000000000000000000000000000000000000000000000000000000004614610c2a57610c25611d30565b905090565b507f000000000000000000000000000000000000000000000000000000000000000090565b60055473ffffffffffffffffffffffffffffffffffffffff16151580610c8c575060065473ffffffffffffffffffffffffffffffffffffffff1615155b15610cc3576040517f0dc149f000000000000000000000000000000000000000000000000000000000815260040160405180910390fd5b6005805473ffffffffffffffffffffffffffffffffffffffff9384167fffffffffffffffffffffffff00000000000000000000000000000000000000009182161790915560068054929093169116179055565b6000806000610d746007546dffffffffffffffffffffffffffff808216926e01000000000000000000000000000083049091169163ffffffff7c01000000000000000000000000000000000000000000000000000000009091041690565b506005546040517f70a0823100000000000000000000000000000000000000000000000000000000815230600482015292945090925060009173ffffffffffffffffffffffffffffffffffffffff909116906370a08231906024016020604051808303816000875af1158015610dee573d6000803e3d6000fd5b505050506040513d601f19601f82011682018060405250810190610e12919061227e565b6006546040517f70a0823100000000000000000000000000000000000000000000000000000000815230600482015291925060009173ffffffffffffffffffffffffffffffffffffffff909116906370a08231906024016020604051808303816000875af1158015610e88573d6000803e3d6000fd5b505050506040513d601f19601f82011682018060405250810190610eac919061227e565b90506000610eca6dffffffffffffffffffffffffffff8616846122c6565b90506000610ee86dffffffffffffffffffffffffffff8616846122c6565b9050600254600003610f27576103e8610f09610f0483856122dd565b611dca565b610f1391906122c6565b9650610f2260006103e8611e3a565b610f84565b610f81866dffffffffffffffffffffffffffff1660025484610f4991906122dd565b610f539190612396565b866dffffffffffffffffffffffffffff1660025484610f7291906122dd565b610f7c9190612396565b611eb3565b96505b60008711610fbe576040517fd226f9d400000000000000000000000000000000000000000000000000000000815260040160405180910390fd5b610fc88888611e3a565b610fd484848888611acd565b604080518381526020810183905273ffffffffffffffffffffffffffffffffffffffff8a16917f4c209b5fc8ad50758f13e2e1088ba56a560dff690a1c6fef26394f4c03821c4f910160405180910390a2505050505050919050565b6005546040517f70a082310000000000000000000000000000000000000000000000000000000081523060048201526000918291829173ffffffffffffffffffffffffffffffffffffffff16906370a08231906024016020604051808303816000875af11580156110a5573d6000803e3d6000fd5b505050506040513d601f19601f820116820180604052508101906110c9919061227e565b6006546040517f70a0823100000000000000000000000000000000000000000000000000000000815230600482015291925060009173ffffffffffffffffffffffffffffffffffffffff909116906370a08231906024016020604051808303816000875af115801561113f573d6000803e3d6000fd5b505050506040513d601f19601f82011682018060405250810190611163919061227e565b306000908152600360205260409020546002549192509061118484836122dd565b61118e9190612396565b60025490955061119e83836122dd565b6111a89190612396565b93508415806111b5575083155b156111ec576040517f749383ad00000000000000000000000000000000000000000000000000000000815260040160405180910390fd5b6111f63082611ecb565b60055461121a9073ffffffffffffffffffffffffffffffffffffffff16878761196c565b60065461123e9073ffffffffffffffffffffffffffffffffffffffff16878661196c565b6005546040517f70a0823100000000000000000000000000000000000000000000000000000000815230600482015273ffffffffffffffffffffffffffffffffffffffff909116906370a08231906024016020604051808303816000875af11580156112ae573d6000803e3d6000fd5b505050506040513d601f19601f820116820180604052508101906112d2919061227e565b6006546040517f70a0823100000000000000000000000000000000000000000000000000000000815230600482015291945073ffffffffffffffffffffffffffffffffffffffff16906370a08231906024016020604051808303816000875af1158015611343573d6000803e3d6000fd5b505050506040513d601f19601f82011682018060405250810190611367919061227e565b91506000806113c56007546dffffffffffffffffffffffffffff808216926e01000000000000000000000000000083049091169163ffffffff7c01000000000000000000000000000000000000000000000000000000009091041690565b50915091506113d685858484611acd565b604080518881526020810188905273ffffffffffffffffffffffffffffffffffffffff8a1681830152905133917fdccd412f0b1252819cb1fd330b93224ca42612892bb3f4f789976e6d81936496919081900360600190a25050505050915091565b600180546109b69061231a565b336000908152600360205260408120805483919083906114669084906122c6565b909155505073ffffffffffffffffffffffffffffffffffffffff8316600081815260036020526040908190208054850190555133907fddf252ad1be2c89b69c2b068fc378daa952ba7f163c4a11628f55a4df523b3ef90610a9f9086815260200190565b42841015611539576040517f08c379a000000000000000000000000000000000000000000000000000000000815260206004820152601760248201527f5045524d49545f444541444c494e455f4558504952454400000000000000000060448201526064015b60405180910390fd5b60006001611545610bf4565b604080517f6e71edae12b1b97f4d1f60370fef10105fa2faae0126114a169c64845d6126c9602082015273ffffffffffffffffffffffffffffffffffffffff808d1692820192909252908a1660608201526080810189905260a0810188905260c001604051602081830303815290604052805190602001206040516020016115ff9291907f190100000000000000000000000000000000000000000000000000000000000081526002810192909252602282015260420190565b604080517fffffffffffffffffffffffffffffffffffffffffffffffffffffffffffffffe08184030181528282528051602091820120600084529083018083525260ff871690820152606081018590526080810184905260a0016020604051602081039080840390855afa15801561167b573d6000803e3d6000fd5b50506040517fffffffffffffffffffffffffffffffffffffffffffffffffffffffffffffffe0015191505073ffffffffffffffffffffffffffffffffffffffff8116158015906116f657508773ffffffffffffffffffffffffffffffffffffffff168173ffffffffffffffffffffffffffffffffffffffff16145b61175c576040517f08c379a000000000000000000000000000000000000000000000000000000000815260206004820152600e60248201527f494e56414c49445f5349474e45520000000000000000000000000000000000006044820152606401611530565b73ffffffffffffffffffffffffffffffffffffffff90811660009081526004602090815260408083208a8516808552908352928190208990555188815291928a16917f8c5be1e5ebec7d5bd14f71427d1e84f3dd0314c0f7b2291e5b200ac8c7c3b925910160405180910390a350505050505050565b60008061182e6007546dffffffffffffffffffffffffffff808216926e01000000000000000000000000000083049091169163ffffffff7c01000000000000000000000000000000000000000000000000000000009091041690565b506005546040517f70a082310000000000000000000000000000000000000000000000000000000081523060048201529294509092506119689173ffffffffffffffffffffffffffffffffffffffff909116906370a08231906024016020604051808303816000875af11580156118a9573d6000803e3d6000fd5b505050506040513d601f19601f820116820180604052508101906118cd919061227e565b6006546040517f70a0823100000000000000000000000000000000000000000000000000000000815230600482015273ffffffffffffffffffffffffffffffffffffffff909116906370a08231906024016020604051808303816000875af115801561193d573d6000803e3d6000fd5b505050506040513d601f19601f82011682018060405250810190611961919061227e565b8484611acd565b5050565b60405173ffffffffffffffffffffffffffffffffffffffff8381166024830152604482018390526000918291861690606401604080517fffffffffffffffffffffffffffffffffffffffffffffffffffffffffffffffe08184030181529181526020820180517bffffffffffffffffffffffffffffffffffffffffffffffffffffffff167fa9059cbb0000000000000000000000000000000000000000000000000000000017905251611a1f91906123aa565b6000604051808303816000865af19150503d8060008114611a5c576040519150601f19603f3d011682016040523d82523d6000602084013e611a61565b606091505b5091509150811580611a8f5750805115801590611a8f575080806020019051810190611a8d91906123c6565b155b15611ac6576040517f90b8ec1800000000000000000000000000000000000000000000000000000000815260040160405180910390fd5b5050505050565b6dffffffffffffffffffffffffffff841180611af657506dffffffffffffffffffffffffffff83115b15611b2d576040517f89560ca100000000000000000000000000000000000000000000000000000000815260040160405180910390fd5b60075463ffffffff7c01000000000000000000000000000000000000000000000000000000009091048116420390811615801590611b7b57506000836dffffffffffffffffffffffffffff16115b8015611b9757506000826dffffffffffffffffffffffffffff16115b15611c41578063ffffffff16611bd484611bb085611f59565b7bffffffffffffffffffffffffffffffffffffffffffffffffffffffff1690611f8a565b600880547bffffffffffffffffffffffffffffffffffffffffffffffffffffffff929092169290920201905563ffffffff8116611c1483611bb086611f59565b600980547bffffffffffffffffffffffffffffffffffffffffffffffffffffffff92909216929092020190555b506007805463ffffffff42167c0100000000000000000000000000000000000000000000000000000000027bffffffffffffffffffffffffffffffffffffffffffffffffffffffff6dffffffffffffffffffffffffffff8781166e0100000000000000000000000000009081027fffffffff000000000000000000000000000000000000000000000000000000009095168a83161794909417918216831794859055604080519382169282169290921783529290930490911660208201527fcf2aa50876cdfbb541206f89af0ee78d44a2abf8d328e37fa4917f982149848a910160405180910390a150505050565b60007f8b73c3c69bb8fe3d512ecc4cf759cc79239f7b179b0ffacaa9a75d522b39400f6000604051611d6291906123e8565b6040805191829003822060208301939093528101919091527fc89efdaa54c0f20c7adf612882df0950f5a951637e0307cdcb4c672f298b8bc660608201524660808201523060a082015260c00160405160208183030381529060405280519060200120905090565b60006003821115611e2b5750806000611de4600283612396565b611def9060016124be565b90505b81811015611e2557905080600281611e0a8186612396565b611e1491906124be565b611e1e9190612396565b9050611df2565b50919050565b8115611e35575060015b919050565b8060026000828254611e4c91906124be565b909155505073ffffffffffffffffffffffffffffffffffffffff82166000818152600360209081526040808320805486019055518481527fddf252ad1be2c89b69c2b068fc378daa952ba7f163c4a11628f55a4df523b3ef91015b60405180910390a35050565b6000818310611ec25781611ec4565b825b9392505050565b73ffffffffffffffffffffffffffffffffffffffff821660009081526003602052604081208054839290611f009084906122c6565b909155505060028054829003905560405181815260009073ffffffffffffffffffffffffffffffffffffffff8416907fddf252ad1be2c89b69c2b068fc378daa952ba7f163c4a11628f55a4df523b3ef90602001611ea7565b6000611f846e0100000000000000000000000000006dffffffffffffffffffffffffffff84166124d6565b92915050565b6000611ec46dffffffffffffffffffffffffffff83168461251a565b803573ffffffffffffffffffffffffffffffffffffffff81168114611e3557600080fd5b600080600080600060808688031215611fe257600080fd5b8535945060208601359350611ff960408701611fa6565b9250606086013567ffffffffffffffff8082111561201657600080fd5b818801915088601f83011261202a57600080fd5b81358181111561203957600080fd5b89602082850101111561204b57600080fd5b9699959850939650602001949392505050565b60005b83811015612079578181015183820152602001612061565b83811115612088576000848401525b50505050565b60208152600082518060208401526120ad81604085016020870161205e565b601f017fffffffffffffffffffffffffffffffffffffffffffffffffffffffffffffffe0169190910160400192915050565b600080604083850312156120f257600080fd5b6120fb83611fa6565b946020939093013593505050565b60008060006060848603121561211e57600080fd5b61212784611fa6565b925061213560208501611fa6565b9150604084013590509250925092565b6000806040838503121561215857600080fd5b61216183611fa6565b915061216f60208401611fa6565b90509250929050565b60006020828403121561218a57600080fd5b611ec482611fa6565b600080600080600080600060e0888a0312156121ae57600080fd5b6121b788611fa6565b96506121c560208901611fa6565b95506040880135945060608801359350608088013560ff811681146121e957600080fd5b9699959850939692959460a0840135945060c09093013592915050565b73ffffffffffffffffffffffffffffffffffffffff8616815284602082015283604082015260806060820152816080820152818360a0830137600081830160a090810191909152601f9092017fffffffffffffffffffffffffffffffffffffffffffffffffffffffffffffffe0160101949350505050565b60006020828403121561229057600080fd5b5051919050565b7f4e487b7100000000000000000000000000000000000000000000000000000000600052601160045260246000fd5b6000828210156122d8576122d8612297565b500390565b6000817fffffffffffffffffffffffffffffffffffffffffffffffffffffffffffffffff048311821515161561231557612315612297565b500290565b600181811c9082168061232e57607f821691505b602082108103611e25577f4e487b7100000000000000000000000000000000000000000000000000000000600052602260045260246000fd5b7f4e487b7100000000000000000000000000000000000000000000000000000000600052601260045260246000fd5b6000826123a5576123a5612367565b500490565b600082516123bc81846020870161205e565b9190910192915050565b6000602082840312156123d857600080fd5b81518015158114611ec457600080fd5b600080835481600182811c91508083168061240457607f831692505b6020808410820361243c577f4e487b710000000000000000000000000000000000000000000000000000000086526022600452602486fd5b8180156124505760018114612483576124b0565b7fffffffffffffffffffffffffffffffffffffffffffffffffffffffffffffff00861689528415158502890196506124b0565b60008a81526020902060005b868110156124a85781548b82015290850190830161248f565b505084890196505b509498975050505050505050565b600082198211156124d1576124d1612297565b500190565b60007bffffffffffffffffffffffffffffffffffffffffffffffffffffffff8083168185168183048111821515161561251157612511612297565b02949350505050565b60007bffffffffffffffffffffffffffffffffffffffffffffffffffffffff8084168061254957612549612367565b9216919091049291505056fea264697066735822122042968ac75b84c2936fde8569a07f49e23a73b84acdb3774c42b93d4a2456573164736f6c634300080f0033a26469706673582212205e98a1443c7fb50c6fe69666cfb544382588abb6d6cd08b2e585808af10aa1b964736f6c634300080f0033",
    "linkReferences": {
      "src/test/lib/zuniswapv2/ZuniswapV2Library.sol": {
        "ZuniswapV2Library": [
          {
            "start": 446,
            "length": 20
          },
          {
            "start": 1056,
            "length": 20
          },
          {
            "start": 3818,
            "length": 20
          },
          {
            "start": 4015,
            "length": 20
          },
          {
            "start": 4256,
            "length": 20
          }
        ]
      }
    }
  },
  "methodIdentifiers": {
    "addLiquidity(address,address,uint256,uint256,uint256,uint256,address)": "ca3d6539",
    "removeLiquidity(address,address,uint256,uint256,uint256,address)": "c0e3ee6b",
    "swapExactTokensForTokens(uint256,uint256,address[],address)": "472b43f3",
    "swapTokensForExactTokens(uint256,uint256,address[],address)": "42712a67"
  },
  "id": 139
}