{
  "abi": [
    {
      "inputs": [
        {
          "internalType": "address",
          "name": "_gdao",
          "type": "address"
        },
        {
          "internalType": "address",
          "name": "_sgdao",
          "type": "address"
        },
        {
          "internalType": "address",
          "name": "_xgdao",
          "type": "address"
        },
        {
          "internalType": "uint256",
          "name": "_epochLength",
          "type": "uint256"
        },
        {
          "internalType": "uint256",
          "name": "_firstEpochNumber",
          "type": "uint256"
        },
        {
          "internalType": "uint256",
          "name": "_firstEpochTime",
          "type": "uint256"
        },
        {
          "internalType": "address",
          "name": "_authority",
          "type": "address"
        }
      ],
      "stateMutability": "nonpayable",
      "type": "constructor"
    },
    {
      "anonymous": false,
      "inputs": [
        {
          "indexed": true,
          "internalType": "contract IOlympusAuthority",
          "name": "authority",
          "type": "address"
        }
      ],
      "name": "AuthorityUpdated",
      "type": "event"
    },
    {
      "anonymous": false,
      "inputs": [
        {
          "indexed": false,
          "internalType": "address",
          "name": "distributor",
          "type": "address"
        }
      ],
      "name": "DistributorSet",
      "type": "event"
    },
    {
      "anonymous": false,
      "inputs": [
        {
          "indexed": false,
          "internalType": "uint256",
          "name": "warmup",
          "type": "uint256"
        }
      ],
      "name": "WarmupSet",
      "type": "event"
    },
    {
      "inputs": [],
      "name": "GDAO",
      "outputs": [
        {
          "internalType": "contract IERC20",
          "name": "",
          "type": "address"
        }
      ],
      "stateMutability": "view",
      "type": "function"
    },
    {
      "inputs": [],
      "name": "authority",
      "outputs": [
        {
          "internalType": "contract IOlympusAuthority",
          "name": "",
          "type": "address"
        }
      ],
      "stateMutability": "view",
      "type": "function"
    },
    {
      "inputs": [
        {
          "internalType": "address",
          "name": "_to",
          "type": "address"
        },
        {
          "internalType": "bool",
          "name": "_rebasing",
          "type": "bool"
        }
      ],
      "name": "claim",
      "outputs": [
        {
          "internalType": "uint256",
          "name": "",
          "type": "uint256"
        }
      ],
      "stateMutability": "nonpayable",
      "type": "function"
    },
    {
      "inputs": [],
      "name": "distributor",
      "outputs": [
        {
          "internalType": "contract IDistributor",
          "name": "",
          "type": "address"
        }
      ],
      "stateMutability": "view",
      "type": "function"
    },
    {
      "inputs": [],
      "name": "epoch",
      "outputs": [
        {
          "internalType": "uint256",
          "name": "length",
          "type": "uint256"
        },
        {
          "internalType": "uint256",
          "name": "number",
          "type": "uint256"
        },
        {
          "internalType": "uint256",
          "name": "end",
          "type": "uint256"
        },
        {
          "internalType": "uint256",
          "name": "distribute",
          "type": "uint256"
        }
      ],
      "stateMutability": "view",
      "type": "function"
    },
    {
      "inputs": [],
      "name": "forfeit",
      "outputs": [
        {
          "internalType": "uint256",
          "name": "",
          "type": "uint256"
        }
      ],
      "stateMutability": "nonpayable",
      "type": "function"
    },
    {
      "inputs": [],
      "name": "index",
      "outputs": [
        {
          "internalType": "uint256",
          "name": "",
          "type": "uint256"
        }
      ],
      "stateMutability": "view",
      "type": "function"
    },
    {
      "inputs": [],
      "name": "rebase",
      "outputs": [
        {
          "internalType": "uint256",
          "name": "",
          "type": "uint256"
        }
      ],
      "stateMutability": "nonpayable",
      "type": "function"
    },
    {
      "inputs": [],
      "name": "sGDAO",
      "outputs": [
        {
          "internalType": "contract IsGDAO",
          "name": "",
          "type": "address"
        }
      ],
      "stateMutability": "view",
      "type": "function"
    },
    {
      "inputs": [],
      "name": "secondsToNextEpoch",
      "outputs": [
        {
          "internalType": "uint256",
          "name": "",
          "type": "uint256"
        }
      ],
      "stateMutability": "view",
      "type": "function"
    },
    {
      "inputs": [
        {
          "internalType": "contract IOlympusAuthority",
          "name": "_newAuthority",
          "type": "address"
        }
      ],
      "name": "setAuthority",
      "outputs": [],
      "stateMutability": "nonpayable",
      "type": "function"
    },
    {
      "inputs": [
        {
          "internalType": "address",
          "name": "_distributor",
          "type": "address"
        }
      ],
      "name": "setDistributor",
      "outputs": [],
      "stateMutability": "nonpayable",
      "type": "function"
    },
    {
      "inputs": [
        {
          "internalType": "uint256",
          "name": "_warmupPeriod",
          "type": "uint256"
        }
      ],
      "name": "setWarmupLength",
      "outputs": [],
      "stateMutability": "nonpayable",
      "type": "function"
    },
    {
      "inputs": [
        {
          "internalType": "address",
          "name": "_to",
          "type": "address"
        },
        {
          "internalType": "uint256",
          "name": "_amount",
          "type": "uint256"
        },
        {
          "internalType": "bool",
          "name": "_rebasing",
          "type": "bool"
        },
        {
          "internalType": "bool",
          "name": "_claim",
          "type": "bool"
        }
      ],
      "name": "stake",
      "outputs": [
        {
          "internalType": "uint256",
          "name": "",
          "type": "uint256"
        }
      ],
      "stateMutability": "nonpayable",
      "type": "function"
    },
    {
      "inputs": [],
      "name": "supplyInWarmup",
      "outputs": [
        {
          "internalType": "uint256",
          "name": "",
          "type": "uint256"
        }
      ],
      "stateMutability": "view",
      "type": "function"
    },
    {
      "inputs": [],
      "name": "toggleLock",
      "outputs": [],
      "stateMutability": "nonpayable",
      "type": "function"
    },
    {
      "inputs": [
        {
          "internalType": "address",
          "name": "_to",
          "type": "address"
        },
        {
          "internalType": "uint256",
          "name": "_amount",
          "type": "uint256"
        },
        {
          "internalType": "bool",
          "name": "_trigger",
          "type": "bool"
        },
        {
          "internalType": "bool",
          "name": "_rebasing",
          "type": "bool"
        }
      ],
      "name": "unstake",
      "outputs": [
        {
          "internalType": "uint256",
          "name": "amount_",
          "type": "uint256"
        }
      ],
      "stateMutability": "nonpayable",
      "type": "function"
    },
    {
      "inputs": [
        {
          "internalType": "address",
          "name": "_to",
          "type": "address"
        },
        {
          "internalType": "uint256",
          "name": "_amount",
          "type": "uint256"
        }
      ],
      "name": "unwrap",
      "outputs": [
        {
          "internalType": "uint256",
          "name": "sBalance_",
          "type": "uint256"
        }
      ],
      "stateMutability": "nonpayable",
      "type": "function"
    },
    {
      "inputs": [
        {
          "internalType": "address",
          "name": "",
          "type": "address"
        }
      ],
      "name": "warmupInfo",
      "outputs": [
        {
          "internalType": "uint256",
          "name": "deposit",
          "type": "uint256"
        },
        {
          "internalType": "uint256",
          "name": "gons",
          "type": "uint256"
        },
        {
          "internalType": "uint256",
          "name": "expiry",
          "type": "uint256"
        },
        {
          "internalType": "bool",
          "name": "lock",
          "type": "bool"
        }
      ],
      "stateMutability": "view",
      "type": "function"
    },
    {
      "inputs": [],
      "name": "warmupPeriod",
      "outputs": [
        {
          "internalType": "uint256",
          "name": "",
          "type": "uint256"
        }
      ],
      "stateMutability": "view",
      "type": "function"
    },
    {
      "inputs": [
        {
          "internalType": "address",
          "name": "_to",
          "type": "address"
        },
        {
          "internalType": "uint256",
          "name": "_amount",
          "type": "uint256"
        }
      ],
      "name": "wrap",
      "outputs": [
        {
          "internalType": "uint256",
          "name": "gBalance_",
          "type": "uint256"
        }
      ],
      "stateMutability": "nonpayable",
      "type": "function"
    },
    {
      "inputs": [],
      "name": "xGDAO",
      "outputs": [
        {
          "internalType": "contract IxGDAO",
          "name": "",
          "type": "address"
        }
      ],
      "stateMutability": "view",
      "type": "function"
    }
  ],
  "bytecode": {
    "object": "0x610120604052600c60e09081526b15539055551213d49256915160a21b610100526000906200002f9082620002ab565b503480156200003d57600080fd5b506040516200297d3803806200297d833981016040819052620000609162000394565b600180546001600160a01b0319166001600160a01b0383169081179091556040518291907f2f658b440c35314f52658ea8a740e05b284cdc84dc9ae01e891f21b8933e7cad90600090a2506001600160a01b038716620000fc5760405162461bcd60e51b81526020600482015260126024820152715a65726f20616464726573733a204744414f60701b60448201526064015b60405180910390fd5b6001600160a01b0380881660805286166200015a5760405162461bcd60e51b815260206004820152601360248201527f5a65726f20616464726573733a20734744414f000000000000000000000000006044820152606401620000f3565b6001600160a01b0380871660a0528516620001b85760405162461bcd60e51b815260206004820152601360248201527f5a65726f20616464726573733a20784744414f000000000000000000000000006044820152606401620000f3565b506001600160a01b0390931660c052604080516080810182528381526020810183905290810184905260006060909101819052600292909255600355600491909155600555506200040e9050565b634e487b7160e01b600052604160045260246000fd5b600181811c908216806200023157607f821691505b6020821081036200025257634e487b7160e01b600052602260045260246000fd5b50919050565b601f821115620002a657600081815260208120601f850160051c81016020861015620002815750805b601f850160051c820191505b81811015620002a2578281556001016200028d565b5050505b505050565b81516001600160401b03811115620002c757620002c762000206565b620002df81620002d884546200021c565b8462000258565b602080601f831160018114620003175760008415620002fe5750858301515b600019600386901b1c1916600185901b178555620002a2565b600085815260208120601f198616915b82811015620003485788860151825594840194600190910190840162000327565b5085821015620003675787850151600019600388901b60f8161c191681555b5050505050600190811b01905550565b80516001600160a01b03811681146200038f57600080fd5b919050565b600080600080600080600060e0888a031215620003b057600080fd5b620003bb8862000377565b9650620003cb6020890162000377565b9550620003db6040890162000377565b9450606088015193506080880151925060a088015191506200040060c0890162000377565b905092959891949750929550565b60805160a05160c051612497620004e6600039600081816103a5015281816105790152818161061701528181610e1501528181610ed0015281816114ec015281816115bb01528181611cd50152611e0f0152600081816102bb01528181610457015281816104d8015281816106b501528181610ccb01528181610da70152818161111c015281816113b001528181611495015281816117c6015281816119390152611c7801526000818161030f01528181610f720152818161109b0152818161132a0152818161163b0152611a6f01526124976000f3fe608060405234801561001057600080fd5b50600436106101825760003560e01c80639ad60297116100d8578063bfe109281161008c578063e03481e111610066578063e03481e1146103a0578063f3d86e4a146103c7578063ff9413d8146103cf57600080fd5b8063bfe1092814610364578063d866c9d814610384578063deac361a1461039757600080fd5b8063bc39493c116100bd578063bc39493c1461030a578063bf376c7a14610331578063bf7e214f1461034457600080fd5b80639ad60297146102b6578063af14052c1461030257600080fd5b80637a9e5e4b1161013a57806392fd2daf1161011457806392fd2daf146102885780639483c1d71461029b578063990966d5146102a357600080fd5b80637a9e5e4b1461022c578063900cf0cf1461023f5780639238d5921461027557600080fd5b806339f476931161016b57806339f47693146101aa5780636746f4c2146101bd57806375619ab51461021757600080fd5b806320138641146101875780632986c0e5146101a2575b600080fd5b61018f610414565b6040519081526020015b60405180910390f35b61018f6104d4565b61018f6101b83660046120fc565b610541565b6101f56101cb366004612128565b60076020526000908152604090208054600182015460028301546003909301549192909160ff1684565b6040805194855260208501939093529183015215156060820152608001610199565b61022a610225366004612128565b6106e2565b005b61022a61023a366004612128565b61085f565b6002546003546004546005546102559392919084565b604080519485526020850193909352918301526060820152608001610199565b61022a610283366004612145565b6109c8565b61018f61029636600461216c565b610af7565b61018f610d63565b61018f6102b13660046121a5565b610d73565b6102dd7f000000000000000000000000000000000000000000000000000000000000000081565b60405173ffffffffffffffffffffffffffffffffffffffff9091168152602001610199565b61018f6110cb565b6102dd7f000000000000000000000000000000000000000000000000000000000000000081565b61018f61033f3660046120fc565b611479565b6001546102dd9073ffffffffffffffffffffffffffffffffffffffff1681565b6006546102dd9073ffffffffffffffffffffffffffffffffffffffff1681565b61018f6103923660046121a5565b61161f565b61018f60085481565b6102dd7f000000000000000000000000000000000000000000000000000000000000000081565b61018f6119bd565b61022a33600090815260076020526040902060030180547fffffffffffffffffffffffffffffffffffffffffffffffffffffffffffffff00811660ff90911615179055565b6009546040517f7965d56d00000000000000000000000000000000000000000000000000000000815260009173ffffffffffffffffffffffffffffffffffffffff7f00000000000000000000000000000000000000000000000000000000000000001691637965d56d9161048e9160040190815260200190565b602060405180830381865afa1580156104ab573d6000803e3d6000fd5b505050506040513d601f19601f820116820180604052508101906104cf91906121f8565b905090565b60007f000000000000000000000000000000000000000000000000000000000000000073ffffffffffffffffffffffffffffffffffffffff16632986c0e56040518163ffffffff1660e01b8152600401602060405180830381865afa1580156104ab573d6000803e3d6000fd5b6040517f9dc29fac000000000000000000000000000000000000000000000000000000008152336004820152602481018290526000907f000000000000000000000000000000000000000000000000000000000000000073ffffffffffffffffffffffffffffffffffffffff1690639dc29fac90604401600060405180830381600087803b1580156105d257600080fd5b505af11580156105e6573d6000803e3d6000fd5b50506040517fa8248768000000000000000000000000000000000000000000000000000000008152600481018590527f000000000000000000000000000000000000000000000000000000000000000073ffffffffffffffffffffffffffffffffffffffff16925063a82487689150602401602060405180830381865afa158015610675573d6000803e3d6000fd5b505050506040513d601f19601f8201168201806040525081019061069991906121f8565b90506106dc73ffffffffffffffffffffffffffffffffffffffff7f0000000000000000000000000000000000000000000000000000000000000000168483611a9d565b92915050565b600160009054906101000a900473ffffffffffffffffffffffffffffffffffffffff1673ffffffffffffffffffffffffffffffffffffffff16630c340a246040518163ffffffff1660e01b8152600401602060405180830381865afa15801561074f573d6000803e3d6000fd5b505050506040513d601f19601f820116820180604052508101906107739190612211565b73ffffffffffffffffffffffffffffffffffffffff163373ffffffffffffffffffffffffffffffffffffffff16146000906107e4576040517f08c379a00000000000000000000000000000000000000000000000000000000081526004016107db919061222e565b60405180910390fd5b50600680547fffffffffffffffffffffffff00000000000000000000000000000000000000001673ffffffffffffffffffffffffffffffffffffffff83169081179091556040519081527f86719c518c7d99ac94b3d405d462ea876ba5cd0a978461dc9a7c9862a9485886906020015b60405180910390a150565b600160009054906101000a900473ffffffffffffffffffffffffffffffffffffffff1673ffffffffffffffffffffffffffffffffffffffff16630c340a246040518163ffffffff1660e01b8152600401602060405180830381865afa1580156108cc573d6000803e3d6000fd5b505050506040513d601f19601f820116820180604052508101906108f09190612211565b73ffffffffffffffffffffffffffffffffffffffff163373ffffffffffffffffffffffffffffffffffffffff1614600090610958576040517f08c379a00000000000000000000000000000000000000000000000000000000081526004016107db919061222e565b50600180547fffffffffffffffffffffffff00000000000000000000000000000000000000001673ffffffffffffffffffffffffffffffffffffffff83169081179091556040517f2f658b440c35314f52658ea8a740e05b284cdc84dc9ae01e891f21b8933e7cad90600090a250565b600160009054906101000a900473ffffffffffffffffffffffffffffffffffffffff1673ffffffffffffffffffffffffffffffffffffffff16630c340a246040518163ffffffff1660e01b8152600401602060405180830381865afa158015610a35573d6000803e3d6000fd5b505050506040513d601f19601f82011682018060405250810190610a599190612211565b73ffffffffffffffffffffffffffffffffffffffff163373ffffffffffffffffffffffffffffffffffffffff1614600090610ac1576040517f08c379a00000000000000000000000000000000000000000000000000000000081526004016107db919061222e565b5060088190556040518181527fac17d51c35ac71d3eddc155985908430e88946d51e2f6093e93c1c0aba08f6c490602001610854565b73ffffffffffffffffffffffffffffffffffffffff821660009081526007602090815260408083208151608081018352815481526001820154938101939093526002810154918301919091526003015460ff16151560608201819052610bfc5773ffffffffffffffffffffffffffffffffffffffff84163314610bfc576040517f08c379a000000000000000000000000000000000000000000000000000000000815260206004820152602660248201527f45787465726e616c20636c61696d7320666f72206163636f756e74206172652060448201527f6c6f636b6564000000000000000000000000000000000000000000000000000060648201526084016107db565b604081015160035410801590610c155750604081015115155b15610d595773ffffffffffffffffffffffffffffffffffffffff841660009081526007602090815260408220828155600181018390556002810192909255600390910180547fffffffffffffffffffffffffffffffffffffffffffffffffffffffffffffff00169055810151600954610c8d91611c0d565b60095560208101516040517f7965d56d0000000000000000000000000000000000000000000000000000000081526004810191909152610d519085907f000000000000000000000000000000000000000000000000000000000000000073ffffffffffffffffffffffffffffffffffffffff1690637965d56d90602401602060405180830381865afa158015610d27573d6000803e3d6000fd5b505050506040513d601f19601f82011682018060405250810190610d4b91906121f8565b85611c56565b9150506106dc565b5060009392505050565b6004546000906104cf9042611c0d565b8260008315610d8757610d846110cb565b90505b8215610de057610dcf73ffffffffffffffffffffffffffffffffffffffff7f000000000000000000000000000000000000000000000000000000000000000016333088611e91565b610dd9828261200a565b9150610f44565b6040517f9dc29fac000000000000000000000000000000000000000000000000000000008152336004820152602481018690527f000000000000000000000000000000000000000000000000000000000000000073ffffffffffffffffffffffffffffffffffffffff1690639dc29fac90604401600060405180830381600087803b158015610e6e57600080fd5b505af1158015610e82573d6000803e3d6000fd5b50506040517fa824876800000000000000000000000000000000000000000000000000000000815260048101859052610f41925083915073ffffffffffffffffffffffffffffffffffffffff7f0000000000000000000000000000000000000000000000000000000000000000169063a824876890602401602060405180830381865afa158015610f17573d6000803e3d6000fd5b505050506040513d601f19601f82011682018060405250810190610f3b91906121f8565b9061200a565b91505b6040517f70a082310000000000000000000000000000000000000000000000000000000081523060048201527f000000000000000000000000000000000000000000000000000000000000000073ffffffffffffffffffffffffffffffffffffffff16906370a0823190602401602060405180830381865afa158015610fce573d6000803e3d6000fd5b505050506040513d601f19601f82011682018060405250810190610ff291906121f8565b821115611081576040517f08c379a000000000000000000000000000000000000000000000000000000000815260206004820152602560248201527f496e73756666696369656e74204744414f2062616c616e636520696e20636f6e60448201527f747261637400000000000000000000000000000000000000000000000000000060648201526084016107db565b6110c273ffffffffffffffffffffffffffffffffffffffff7f0000000000000000000000000000000000000000000000000000000000000000168784611a9d565b50949350505050565b60008042600280015411611474576005546003546040517f058ecdb400000000000000000000000000000000000000000000000000000000815273ffffffffffffffffffffffffffffffffffffffff7f0000000000000000000000000000000000000000000000000000000000000000169263058ecdb49261115892600401918252602082015260400190565b6020604051808303816000875af1158015611177573d6000803e3d6000fd5b505050506040513d601f19601f8201168201806040525081019061119b91906121f8565b506002546004546111ab9161200a565b600455600380549060006111be83612340565b909155505060065473ffffffffffffffffffffffffffffffffffffffff16156112f957600660009054906101000a900473ffffffffffffffffffffffffffffffffffffffff1673ffffffffffffffffffffffffffffffffffffffff1663e4fc6b6d6040518163ffffffff1660e01b8152600401600060405180830381600087803b15801561124b57600080fd5b505af115801561125f573d6000803e3d6000fd5b50505050600660009054906101000a900473ffffffffffffffffffffffffffffffffffffffff1673ffffffffffffffffffffffffffffffffffffffff1663e7187e8a6040518163ffffffff1660e01b81526004016020604051808303816000875af11580156112d2573d6000803e3d6000fd5b505050506040513d601f19601f820116820180604052508101906112f691906121f8565b90505b6040517f70a082310000000000000000000000000000000000000000000000000000000081523060048201526000907f000000000000000000000000000000000000000000000000000000000000000073ffffffffffffffffffffffffffffffffffffffff16906370a0823190602401602060405180830381865afa158015611386573d6000803e3d6000fd5b505050506040513d601f19601f820116820180604052508101906113aa91906121f8565b905060007f000000000000000000000000000000000000000000000000000000000000000073ffffffffffffffffffffffffffffffffffffffff16639358928b6040518163ffffffff1660e01b8152600401602060405180830381865afa158015611419573d6000803e3d6000fd5b505050506040513d601f19601f8201168201806040525081019061143d91906121f8565b9050611449818461200a565b8211611459576000600555611471565b61146d836114678484611c0d565b90611c0d565b6005555b50505b919050565b60006114bd73ffffffffffffffffffffffffffffffffffffffff7f000000000000000000000000000000000000000000000000000000000000000016333085611e91565b6040517f66a5236c000000000000000000000000000000000000000000000000000000008152600481018390527f000000000000000000000000000000000000000000000000000000000000000073ffffffffffffffffffffffffffffffffffffffff16906366a5236c90602401602060405180830381865afa158015611548573d6000803e3d6000fd5b505050506040513d601f19601f8201168201806040525081019061156c91906121f8565b6040517f40c10f1900000000000000000000000000000000000000000000000000000000815273ffffffffffffffffffffffffffffffffffffffff8581166004830152602482018390529192507f0000000000000000000000000000000000000000000000000000000000000000909116906340c10f1990604401600060405180830381600087803b15801561160157600080fd5b505af1158015611615573d6000803e3d6000fd5b5050505092915050565b600061166373ffffffffffffffffffffffffffffffffffffffff7f000000000000000000000000000000000000000000000000000000000000000016333087611e91565b61167561166e6110cb565b859061200a565b93508180156116845750600854155b1561169b57611694858585611c56565b90506119b5565b73ffffffffffffffffffffffffffffffffffffffff851660009081526007602090815260409182902082516080810184528154815260018201549281019290925260028101549282019290925260039091015460ff161515606082018190526117a35773ffffffffffffffffffffffffffffffffffffffff861633146117a3576040517f08c379a000000000000000000000000000000000000000000000000000000000815260206004820152602860248201527f45787465726e616c206465706f7369747320666f72206163636f756e7420617260448201527f65206c6f636b656400000000000000000000000000000000000000000000000060648201526084016107db565b6040805160808101909152815181906117bc908861200a565b815260200161186b7f000000000000000000000000000000000000000000000000000000000000000073ffffffffffffffffffffffffffffffffffffffff16631bd39674896040518263ffffffff1660e01b815260040161181f91815260200190565b602060405180830381865afa15801561183c573d6000803e3d6000fd5b505050506040513d601f19601f8201168201806040525081019061186091906121f8565b60208501519061200a565b81526008546003546020909201916118829161200a565b8152606083810151151560209283015273ffffffffffffffffffffffffffffffffffffffff898116600090815260078452604090819020855181559385015160018501558481015160028501559390910151600390920180547fffffffffffffffffffffffffffffffffffffffffffffffffffffffffffffff00169215159290921790915590517f1bd39674000000000000000000000000000000000000000000000000000000008152600481018790526119ad917f00000000000000000000000000000000000000000000000000000000000000001690631bd3967490602401602060405180830381865afa158015611980573d6000803e3d6000fd5b505050506040513d601f19601f820116820180604052508101906119a491906121f8565b6009549061200a565b600955508390505b949350505050565b3360008181526007602081815260408084208151608081018352815481526001820180548286019081526002840180549584019590955260038401805460ff811615156060860152998952969095529186905590859055908490557fffffffffffffffffffffffffffffffffffffffffffffffffffffffffffffff0090941690915551600954919291611a4f91611c0d565b6009558051611a979073ffffffffffffffffffffffffffffffffffffffff7f000000000000000000000000000000000000000000000000000000000000000016903390611a9d565b51919050565b6040805173ffffffffffffffffffffffffffffffffffffffff8481166024830152604480830185905283518084039091018152606490920183526020820180517bffffffffffffffffffffffffffffffffffffffffffffffffffffffff167fa9059cbb000000000000000000000000000000000000000000000000000000001790529151600092839290871691611b3491906123a8565b6000604051808303816000865af19150503d8060008114611b71576040519150601f19603f3d011682016040523d82523d6000602084013e611b76565b606091505b5091509150818015611ba0575080511580611ba0575080806020019051810190611ba091906123c4565b611c06576040517f08c379a000000000000000000000000000000000000000000000000000000000815260206004820152600f60248201527f5452414e534645525f4641494c4544000000000000000000000000000000000060448201526064016107db565b5050505050565b6000611c4f83836040518060400160405280601e81526020017f536166654d6174683a207375627472616374696f6e206f766572666c6f770000815250612083565b9392505050565b60008115611ca657611c9f73ffffffffffffffffffffffffffffffffffffffff7f0000000000000000000000000000000000000000000000000000000000000000168585611a9d565b5081611c4f565b6040517f66a5236c000000000000000000000000000000000000000000000000000000008152600481018490527f000000000000000000000000000000000000000000000000000000000000000073ffffffffffffffffffffffffffffffffffffffff16906340c10f1990869083906366a5236c90602401602060405180830381865afa158015611d3b573d6000803e3d6000fd5b505050506040513d601f19601f82011682018060405250810190611d5f91906121f8565b6040517fffffffff0000000000000000000000000000000000000000000000000000000060e085901b16815273ffffffffffffffffffffffffffffffffffffffff90921660048301526024820152604401600060405180830381600087803b158015611dca57600080fd5b505af1158015611dde573d6000803e3d6000fd5b50506040517f66a5236c000000000000000000000000000000000000000000000000000000008152600481018690527f000000000000000000000000000000000000000000000000000000000000000073ffffffffffffffffffffffffffffffffffffffff1692506366a5236c9150602401602060405180830381865afa158015611e6d573d6000803e3d6000fd5b505050506040513d601f19601f820116820180604052508101906119b591906121f8565b6040805173ffffffffffffffffffffffffffffffffffffffff85811660248301528481166044830152606480830185905283518084039091018152608490920183526020820180517bffffffffffffffffffffffffffffffffffffffffffffffffffffffff167f23b872dd000000000000000000000000000000000000000000000000000000001790529151600092839290881691611f3091906123a8565b6000604051808303816000865af19150503d8060008114611f6d576040519150601f19603f3d011682016040523d82523d6000602084013e611f72565b606091505b5091509150818015611f9c575080511580611f9c575080806020019051810190611f9c91906123c4565b612002576040517f08c379a000000000000000000000000000000000000000000000000000000000815260206004820152601460248201527f5452414e534645525f46524f4d5f4641494c454400000000000000000000000060448201526064016107db565b505050505050565b60008061201783856123e1565b905083811015611c4f576040517f08c379a000000000000000000000000000000000000000000000000000000000815260206004820152601b60248201527f536166654d6174683a206164646974696f6e206f766572666c6f77000000000060448201526064016107db565b600081848411156120c1576040517f08c379a00000000000000000000000000000000000000000000000000000000081526004016107db91906123f9565b5060006120ce848661244a565b95945050505050565b73ffffffffffffffffffffffffffffffffffffffff811681146120f957600080fd5b50565b6000806040838503121561210f57600080fd5b823561211a816120d7565b946020939093013593505050565b60006020828403121561213a57600080fd5b8135611c4f816120d7565b60006020828403121561215757600080fd5b5035919050565b80151581146120f957600080fd5b6000806040838503121561217f57600080fd5b823561218a816120d7565b9150602083013561219a8161215e565b809150509250929050565b600080600080608085870312156121bb57600080fd5b84356121c6816120d7565b93506020850135925060408501356121dd8161215e565b915060608501356121ed8161215e565b939692955090935050565b60006020828403121561220a57600080fd5b5051919050565b60006020828403121561222357600080fd5b8151611c4f816120d7565b600060208083526000845481600182811c91508083168061225057607f831692505b8583108103612286577f4e487b710000000000000000000000000000000000000000000000000000000085526022600452602485fd5b8786018381526020018180156122a357600181146122d757612302565b7fffffffffffffffffffffffffffffffffffffffffffffffffffffffffffffff008616825284151560051b82019650612302565b60008b81526020902060005b868110156122fc578154848201529085019089016122e3565b83019750505b50949998505050505050505050565b7f4e487b7100000000000000000000000000000000000000000000000000000000600052601160045260246000fd5b60007fffffffffffffffffffffffffffffffffffffffffffffffffffffffffffffffff820361237157612371612311565b5060010190565b60005b8381101561239357818101518382015260200161237b565b838111156123a2576000848401525b50505050565b600082516123ba818460208701612378565b9190910192915050565b6000602082840312156123d657600080fd5b8151611c4f8161215e565b600082198211156123f4576123f4612311565b500190565b6020815260008251806020840152612418816040850160208701612378565b601f017fffffffffffffffffffffffffffffffffffffffffffffffffffffffffffffffe0169190910160400192915050565b60008282101561245c5761245c612311565b50039056fea2646970667358221220ddc12b08c323335e321b6ceedc2f51a874e098a6e12c3d290b6602d68c62533464736f6c634300080f0033",
    "linkReferences": {}
  },
  "methodIdentifiers": {
    "GDAO()": "bc39493c",
    "authority()": "bf7e214f",
    "claim(address,bool)": "92fd2daf",
    "distributor()": "bfe10928",
    "epoch()": "900cf0cf",
    "forfeit()": "f3d86e4a",
    "index()": "2986c0e5",
    "rebase()": "af14052c",
    "sGDAO()": "9ad60297",
    "secondsToNextEpoch()": "9483c1d7",
    "setAuthority(address)": "7a9e5e4b",
    "setDistributor(address)": "75619ab5",
    "setWarmupLength(uint256)": "9238d592",
    "stake(address,uint256,bool,bool)": "d866c9d8",
    "supplyInWarmup()": "20138641",
    "toggleLock()": "ff9413d8",
    "unstake(address,uint256,bool,bool)": "990966d5",
    "unwrap(address,uint256)": "39f47693",
    "warmupInfo(address)": "6746f4c2",
    "warmupPeriod()": "deac361a",
    "wrap(address,uint256)": "bf376c7a",
    "xGDAO()": "e03481e1"
  },
  "id": 180
}