{
  "abi": [
    {
      "inputs": [
        {
          "internalType": "address",
          "name": "_gdao",
          "type": "address"
        },
        {
          "internalType": "address",
          "name": "_sgdao",
          "type": "address"
        },
        {
          "internalType": "address",
          "name": "_xgdao",
          "type": "address"
        },
        {
          "internalType": "uint256",
          "name": "_epochLength",
          "type": "uint256"
        },
        {
          "internalType": "uint256",
          "name": "_firstEpochNumber",
          "type": "uint256"
        },
        {
          "internalType": "uint256",
          "name": "_firstEpochTime",
          "type": "uint256"
        },
        {
          "internalType": "address",
          "name": "_authority",
          "type": "address"
        }
      ],
      "stateMutability": "nonpayable",
      "type": "constructor"
    },
    {
      "anonymous": false,
      "inputs": [
        {
          "indexed": true,
          "internalType": "contract IOlympusAuthority",
          "name": "authority",
          "type": "address"
        }
      ],
      "name": "AuthorityUpdated",
      "type": "event"
    },
    {
      "anonymous": false,
      "inputs": [
        {
          "indexed": false,
          "internalType": "address",
          "name": "distributor",
          "type": "address"
        }
      ],
      "name": "DistributorSet",
      "type": "event"
    },
    {
      "anonymous": false,
      "inputs": [
        {
          "indexed": false,
          "internalType": "uint256",
          "name": "warmup",
          "type": "uint256"
        }
      ],
      "name": "WarmupSet",
      "type": "event"
    },
    {
      "inputs": [],
      "name": "GDAO",
      "outputs": [
        {
          "internalType": "contract IERC20",
          "name": "",
          "type": "address"
        }
      ],
      "stateMutability": "view",
      "type": "function"
    },
    {
      "inputs": [],
      "name": "authority",
      "outputs": [
        {
          "internalType": "contract IOlympusAuthority",
          "name": "",
          "type": "address"
        }
      ],
      "stateMutability": "view",
      "type": "function"
    },
    {
      "inputs": [
        {
          "internalType": "address",
          "name": "_to",
          "type": "address"
        },
        {
          "internalType": "bool",
          "name": "_rebasing",
          "type": "bool"
        }
      ],
      "name": "claim",
      "outputs": [
        {
          "internalType": "uint256",
          "name": "",
          "type": "uint256"
        }
      ],
      "stateMutability": "nonpayable",
      "type": "function"
    },
    {
      "inputs": [],
      "name": "distributor",
      "outputs": [
        {
          "internalType": "contract IDistributor",
          "name": "",
          "type": "address"
        }
      ],
      "stateMutability": "view",
      "type": "function"
    },
    {
      "inputs": [],
      "name": "epoch",
      "outputs": [
        {
          "internalType": "uint256",
          "name": "length",
          "type": "uint256"
        },
        {
          "internalType": "uint256",
          "name": "number",
          "type": "uint256"
        },
        {
          "internalType": "uint256",
          "name": "end",
          "type": "uint256"
        },
        {
          "internalType": "uint256",
          "name": "distribute",
          "type": "uint256"
        }
      ],
      "stateMutability": "view",
      "type": "function"
    },
    {
      "inputs": [],
      "name": "forfeit",
      "outputs": [
        {
          "internalType": "uint256",
          "name": "",
          "type": "uint256"
        }
      ],
      "stateMutability": "nonpayable",
      "type": "function"
    },
    {
      "inputs": [],
      "name": "index",
      "outputs": [
        {
          "internalType": "uint256",
          "name": "",
          "type": "uint256"
        }
      ],
      "stateMutability": "view",
      "type": "function"
    },
    {
      "inputs": [],
      "name": "rebase",
      "outputs": [
        {
          "internalType": "uint256",
          "name": "",
          "type": "uint256"
        }
      ],
      "stateMutability": "nonpayable",
      "type": "function"
    },
    {
      "inputs": [],
      "name": "sGDAO",
      "outputs": [
        {
          "internalType": "contract IsGDAO",
          "name": "",
          "type": "address"
        }
      ],
      "stateMutability": "view",
      "type": "function"
    },
    {
      "inputs": [],
      "name": "secondsToNextEpoch",
      "outputs": [
        {
          "internalType": "uint256",
          "name": "",
          "type": "uint256"
        }
      ],
      "stateMutability": "view",
      "type": "function"
    },
    {
      "inputs": [
        {
          "internalType": "contract IOlympusAuthority",
          "name": "_newAuthority",
          "type": "address"
        }
      ],
      "name": "setAuthority",
      "outputs": [],
      "stateMutability": "nonpayable",
      "type": "function"
    },
    {
      "inputs": [
        {
          "internalType": "address",
          "name": "_distributor",
          "type": "address"
        }
      ],
      "name": "setDistributor",
      "outputs": [],
      "stateMutability": "nonpayable",
      "type": "function"
    },
    {
      "inputs": [
        {
          "internalType": "uint256",
          "name": "_warmupPeriod",
          "type": "uint256"
        }
      ],
      "name": "setWarmupLength",
      "outputs": [],
      "stateMutability": "nonpayable",
      "type": "function"
    },
    {
      "inputs": [
        {
          "internalType": "address",
          "name": "_to",
          "type": "address"
        },
        {
          "internalType": "uint256",
          "name": "_amount",
          "type": "uint256"
        },
        {
          "internalType": "bool",
          "name": "_rebasing",
          "type": "bool"
        },
        {
          "internalType": "bool",
          "name": "_claim",
          "type": "bool"
        }
      ],
      "name": "stake",
      "outputs": [
        {
          "internalType": "uint256",
          "name": "",
          "type": "uint256"
        }
      ],
      "stateMutability": "nonpayable",
      "type": "function"
    },
    {
      "inputs": [],
      "name": "supplyInWarmup",
      "outputs": [
        {
          "internalType": "uint256",
          "name": "",
          "type": "uint256"
        }
      ],
      "stateMutability": "view",
      "type": "function"
    },
    {
      "inputs": [],
      "name": "toggleLock",
      "outputs": [],
      "stateMutability": "nonpayable",
      "type": "function"
    },
    {
      "inputs": [
        {
          "internalType": "address",
          "name": "_to",
          "type": "address"
        },
        {
          "internalType": "uint256",
          "name": "_amount",
          "type": "uint256"
        },
        {
          "internalType": "bool",
          "name": "_trigger",
          "type": "bool"
        },
        {
          "internalType": "bool",
          "name": "_rebasing",
          "type": "bool"
        }
      ],
      "name": "unstake",
      "outputs": [
        {
          "internalType": "uint256",
          "name": "amount_",
          "type": "uint256"
        }
      ],
      "stateMutability": "nonpayable",
      "type": "function"
    },
    {
      "inputs": [
        {
          "internalType": "address",
          "name": "_to",
          "type": "address"
        },
        {
          "internalType": "uint256",
          "name": "_amount",
          "type": "uint256"
        }
      ],
      "name": "unwrap",
      "outputs": [
        {
          "internalType": "uint256",
          "name": "sBalance_",
          "type": "uint256"
        }
      ],
      "stateMutability": "nonpayable",
      "type": "function"
    },
    {
      "inputs": [
        {
          "internalType": "address",
          "name": "",
          "type": "address"
        }
      ],
      "name": "warmupInfo",
      "outputs": [
        {
          "internalType": "uint256",
          "name": "deposit",
          "type": "uint256"
        },
        {
          "internalType": "uint256",
          "name": "gons",
          "type": "uint256"
        },
        {
          "internalType": "uint256",
          "name": "expiry",
          "type": "uint256"
        },
        {
          "internalType": "bool",
          "name": "lock",
          "type": "bool"
        }
      ],
      "stateMutability": "view",
      "type": "function"
    },
    {
      "inputs": [],
      "name": "warmupPeriod",
      "outputs": [
        {
          "internalType": "uint256",
          "name": "",
          "type": "uint256"
        }
      ],
      "stateMutability": "view",
      "type": "function"
    },
    {
      "inputs": [
        {
          "internalType": "address",
          "name": "_to",
          "type": "address"
        },
        {
          "internalType": "uint256",
          "name": "_amount",
          "type": "uint256"
        }
      ],
      "name": "wrap",
      "outputs": [
        {
          "internalType": "uint256",
          "name": "gBalance_",
          "type": "uint256"
        }
      ],
      "stateMutability": "nonpayable",
      "type": "function"
    },
    {
      "inputs": [],
      "name": "xGDAO",
      "outputs": [
        {
          "internalType": "contract IxGDAO",
          "name": "",
          "type": "address"
        }
      ],
      "stateMutability": "view",
      "type": "function"
    }
  ],
  "bytecode": {
    "object": "0x610120604052600c60e09081526b15539055551213d49256915160a21b610100526000906200002f9082620002ab565b503480156200003d57600080fd5b506040516200219538038062002195833981016040819052620000609162000394565b600180546001600160a01b0319166001600160a01b0383169081179091556040518291907f2f658b440c35314f52658ea8a740e05b284cdc84dc9ae01e891f21b8933e7cad90600090a2506001600160a01b038716620000fc5760405162461bcd60e51b81526020600482015260126024820152715a65726f20616464726573733a204744414f60701b60448201526064015b60405180910390fd5b6001600160a01b0380881660805286166200015a5760405162461bcd60e51b815260206004820152601360248201527f5a65726f20616464726573733a20734744414f000000000000000000000000006044820152606401620000f3565b6001600160a01b0380871660a0528516620001b85760405162461bcd60e51b815260206004820152601360248201527f5a65726f20616464726573733a20784744414f000000000000000000000000006044820152606401620000f3565b506001600160a01b0390931660c052604080516080810182528381526020810183905290810184905260006060909101819052600292909255600355600491909155600555506200040e9050565b634e487b7160e01b600052604160045260246000fd5b600181811c908216806200023157607f821691505b6020821081036200025257634e487b7160e01b600052602260045260246000fd5b50919050565b601f821115620002a657600081815260208120601f850160051c81016020861015620002815750805b601f850160051c820191505b81811015620002a2578281556001016200028d565b5050505b505050565b81516001600160401b03811115620002c757620002c762000206565b620002df81620002d884546200021c565b8462000258565b602080601f831160018114620003175760008415620002fe5750858301515b600019600386901b1c1916600185901b178555620002a2565b600085815260208120601f198616915b82811015620003485788860151825594840194600190910190840162000327565b5085821015620003675787850151600019600388901b60f8161c191681555b5050505050600190811b01905550565b80516001600160a01b03811681146200038f57600080fd5b919050565b600080600080600080600060e0888a031215620003b057600080fd5b620003bb8862000377565b9650620003cb6020890162000377565b9550620003db6040890162000377565b9450606088015193506080880151925060a088015191506200040060c0890162000377565b905092959891949750929550565b60805160a05160c051611caf620004e66000396000818161030301528181610468015281816104e501528181610acf01528181610b5c0152818161105d015281816110ea015281816115cc01526116ac01526000818161024b01528181610371015281816103f201528181610569015281816109bd01528181610a7f01528181610d2201528181610f540152818161101f015281816112aa015281816113cc015261158801526000818161028701528181610be701528181610cc701528181610ed80152818161116801526114d70152611caf6000f3fe608060405234801561001057600080fd5b50600436106101125760003560e01c806320138641146101175780632986c0e51461013257806339f476931461013a5780636746f4c21461014d57806375619ab5146101a75780637a9e5e4b146101bc578063900cf0cf146101cf5780639238d5921461020557806392fd2daf146102185780639483c1d71461022b578063990966d5146102335780639ad6029714610246578063af14052c1461027a578063bc39493c14610282578063bf376c7a146102a9578063bf7e214f146102bc578063bfe10928146102cf578063d866c9d8146102e2578063deac361a146102f5578063e03481e1146102fe578063f3d86e4a14610325578063ff9413d81461032d575b600080fd5b61011f610354565b6040519081526020015b60405180910390f35b61011f6103ee565b61011f610148366004611978565b61044e565b61018561015b3660046119a4565b60076020526000908152604090208054600182015460028301546003909301549192909160ff1684565b6040805194855260208501939093529183015215156060820152608001610129565b6101ba6101b53660046119a4565b610596565b005b6101ba6101ca3660046119a4565b6106a1565b6002546003546004546005546101e59392919084565b604080519485526020850193909352918301526060820152608001610129565b6101ba6102133660046119c1565b610797565b61011f6102263660046119e8565b610878565b61011f610a48565b61011f610241366004611a21565b610a58565b61026d7f000000000000000000000000000000000000000000000000000000000000000081565b6040516101299190611a74565b61011f610cf7565b61026d7f000000000000000000000000000000000000000000000000000000000000000081565b61011f6102b7366004611978565b611010565b60015461026d906001600160a01b031681565b60065461026d906001600160a01b031681565b61011f6102f0366004611a21565b611159565b61011f60085481565b61026d7f000000000000000000000000000000000000000000000000000000000000000081565b61011f611450565b6101ba336000908152600760205260409020600301805460ff19811660ff90911615179055565b600954604051637965d56d60e01b81526000916001600160a01b037f00000000000000000000000000000000000000000000000000000000000000001691637965d56d916103a89160040190815260200190565b602060405180830381865afa1580156103c5573d6000803e3d6000fd5b505050506040513d601f19601f820116820180604052508101906103e99190611a88565b905090565b60007f00000000000000000000000000000000000000000000000000000000000000006001600160a01b0316632986c0e56040518163ffffffff1660e01b8152600401602060405180830381865afa1580156103c5573d6000803e3d6000fd5b604051632770a7eb60e21b81526000906001600160a01b037f00000000000000000000000000000000000000000000000000000000000000001690639dc29fac9061049f9033908690600401611aa1565b600060405180830381600087803b1580156104b957600080fd5b505af11580156104cd573d6000803e3d6000fd5b505060405163150490ed60e31b8152600481018590527f00000000000000000000000000000000000000000000000000000000000000006001600160a01b0316925063a82487689150602401602060405180830381865afa158015610536573d6000803e3d6000fd5b505050506040513d601f19601f8201168201806040525081019061055a9190611a88565b90506105906001600160a01b037f0000000000000000000000000000000000000000000000000000000000000000168483611505565b92915050565b600160009054906101000a90046001600160a01b03166001600160a01b0316630c340a246040518163ffffffff1660e01b8152600401602060405180830381865afa1580156105e9573d6000803e3d6000fd5b505050506040513d601f19601f8201168201806040525081019061060d9190611aba565b6001600160a01b0316336001600160a01b03161460009061064a5760405162461bcd60e51b81526004016106419190611ad7565b60405180910390fd5b50600680546001600160a01b0319166001600160a01b0383161790556040517f86719c518c7d99ac94b3d405d462ea876ba5cd0a978461dc9a7c9862a948588690610696908390611a74565b60405180910390a150565b600160009054906101000a90046001600160a01b03166001600160a01b0316630c340a246040518163ffffffff1660e01b8152600401602060405180830381865afa1580156106f4573d6000803e3d6000fd5b505050506040513d601f19601f820116820180604052508101906107189190611aba565b6001600160a01b0316336001600160a01b03161460009061074c5760405162461bcd60e51b81526004016106419190611ad7565b50600180546001600160a01b0319166001600160a01b0383169081179091556040517f2f658b440c35314f52658ea8a740e05b284cdc84dc9ae01e891f21b8933e7cad90600090a250565b600160009054906101000a90046001600160a01b03166001600160a01b0316630c340a246040518163ffffffff1660e01b8152600401602060405180830381865afa1580156107ea573d6000803e3d6000fd5b505050506040513d601f19601f8201168201806040525081019061080e9190611aba565b6001600160a01b0316336001600160a01b0316146000906108425760405162461bcd60e51b81526004016106419190611ad7565b5060088190556040518181527fac17d51c35ac71d3eddc155985908430e88946d51e2f6093e93c1c0aba08f6c490602001610696565b6001600160a01b03821660009081526007602090815260408083208151608081018352815481526001820154938101939093526002810154918301919091526003015460ff16151560608201819052610932576001600160a01b03841633146109325760405162461bcd60e51b815260206004820152602660248201527f45787465726e616c20636c61696d7320666f72206163636f756e7420617265206044820152651b1bd8dad95960d21b6064820152608401610641565b60408101516003541080159061094b5750604081015115155b15610a3e576001600160a01b038416600090815260076020908152604082208281556001810183905560028101929092556003909101805460ff1916905581015160095461099891611560565b6009556020810151604051637965d56d60e01b81526004810191909152610a369085907f00000000000000000000000000000000000000000000000000000000000000006001600160a01b031690637965d56d90602401602060405180830381865afa158015610a0c573d6000803e3d6000fd5b505050506040513d601f19601f82011682018060405250810190610a309190611a88565b85611573565b915050610590565b5060009392505050565b6004546000906103e99042611560565b8260008315610a6c57610a69610cf7565b90505b8215610ab857610aa76001600160a01b037f000000000000000000000000000000000000000000000000000000000000000016333088611721565b610ab1828261175f565b9150610bd0565b604051632770a7eb60e21b81526001600160a01b037f00000000000000000000000000000000000000000000000000000000000000001690639dc29fac90610b069033908990600401611aa1565b600060405180830381600087803b158015610b2057600080fd5b505af1158015610b34573d6000803e3d6000fd5b505060405163150490ed60e31b815260048101859052610bcd92508391506001600160a01b037f0000000000000000000000000000000000000000000000000000000000000000169063a824876890602401602060405180830381865afa158015610ba3573d6000803e3d6000fd5b505050506040513d601f19601f82011682018060405250810190610bc79190611a88565b9061175f565b91505b6040516370a0823160e01b81526001600160a01b037f000000000000000000000000000000000000000000000000000000000000000016906370a0823190610c1c903090600401611a74565b602060405180830381865afa158015610c39573d6000803e3d6000fd5b505050506040513d601f19601f82011682018060405250810190610c5d9190611a88565b821115610cba5760405162461bcd60e51b815260206004820152602560248201527f496e73756666696369656e74204744414f2062616c616e636520696e20636f6e6044820152641d1c9858dd60da1b6064820152608401610641565b610cee6001600160a01b037f0000000000000000000000000000000000000000000000000000000000000000168784611505565b50949350505050565b6000804260028001541161100b57600554600354604051630163b36d60e21b81526001600160a01b037f0000000000000000000000000000000000000000000000000000000000000000169263058ecdb492610d5e92600401918252602082015260400190565b6020604051808303816000875af1158015610d7d573d6000803e3d6000fd5b505050506040513d601f19601f82011682018060405250810190610da19190611a88565b50600254600454610db19161175f565b60045560038054906000610dc483611b99565b90915550506006546001600160a01b031615610ebe57600660009054906101000a90046001600160a01b03166001600160a01b031663e4fc6b6d6040518163ffffffff1660e01b8152600401600060405180830381600087803b158015610e2a57600080fd5b505af1158015610e3e573d6000803e3d6000fd5b50505050600660009054906101000a90046001600160a01b03166001600160a01b031663e7187e8a6040518163ffffffff1660e01b81526004016020604051808303816000875af1158015610e97573d6000803e3d6000fd5b505050506040513d601f19601f82011682018060405250810190610ebb9190611a88565b90505b6040516370a0823160e01b81526000906001600160a01b037f000000000000000000000000000000000000000000000000000000000000000016906370a0823190610f0d903090600401611a74565b602060405180830381865afa158015610f2a573d6000803e3d6000fd5b505050506040513d601f19601f82011682018060405250810190610f4e9190611a88565b905060007f00000000000000000000000000000000000000000000000000000000000000006001600160a01b0316639358928b6040518163ffffffff1660e01b8152600401602060405180830381865afa158015610fb0573d6000803e3d6000fd5b505050506040513d601f19601f82011682018060405250810190610fd49190611a88565b9050610fe0818461175f565b8211610ff0576000600555611008565b61100483610ffe8484611560565b90611560565b6005555b50505b919050565b60006110476001600160a01b037f000000000000000000000000000000000000000000000000000000000000000016333085611721565b6040516319a948db60e21b8152600481018390527f00000000000000000000000000000000000000000000000000000000000000006001600160a01b0316906366a5236c90602401602060405180830381865afa1580156110ac573d6000803e3d6000fd5b505050506040513d601f19601f820116820180604052508101906110d09190611a88565b6040516340c10f1960e01b81529091506001600160a01b037f000000000000000000000000000000000000000000000000000000000000000016906340c10f19906111219086908590600401611aa1565b600060405180830381600087803b15801561113b57600080fd5b505af115801561114f573d6000803e3d6000fd5b5050505092915050565b60006111906001600160a01b037f000000000000000000000000000000000000000000000000000000000000000016333087611721565b6111a261119b610cf7565b859061175f565b93508180156111b15750600854155b156111c8576111c1858585611573565b9050611448565b6001600160a01b03851660009081526007602090815260409182902082516080810184528154815260018201549281019290925260028101549282019290925260039091015460ff16151560608201819052611287576001600160a01b03861633146112875760405162461bcd60e51b815260206004820152602860248201527f45787465726e616c206465706f7369747320666f72206163636f756e7420617260448201526719481b1bd8dad95960c21b6064820152608401610641565b6040805160808101909152815181906112a0908861175f565b81526020016113427f00000000000000000000000000000000000000000000000000000000000000006001600160a01b0316631bd39674896040518263ffffffff1660e01b81526004016112f691815260200190565b602060405180830381865afa158015611313573d6000803e3d6000fd5b505050506040513d601f19601f820116820180604052508101906113379190611a88565b60208501519061175f565b81526008546003546020909201916113599161175f565b815260608381015115156020928301526001600160a01b038981166000908152600784526040908190208551815593850151600185015584810151600285015593909101516003909201805460ff19169215159290921790915590516306f4e59d60e21b815260048101879052611440917f00000000000000000000000000000000000000000000000000000000000000001690631bd3967490602401602060405180830381865afa158015611413573d6000803e3d6000fd5b505050506040513d601f19601f820116820180604052508101906114379190611a88565b6009549061175f565b600955508390505b949350505050565b3360008181526007602081815260408084208151608081018352815481526001820180548286019081526002840180549584019590955260038401805460ff8116151560608601529989529690955291869055908590559084905560ff19909416909155516009549192916114c491611560565b60095580516114ff906001600160a01b037f000000000000000000000000000000000000000000000000000000000000000016903390611505565b51919050565b61155b8363a9059cbb60e01b8484604051602401611524929190611aa1565b60408051601f198184030181529190526020810180516001600160e01b03166001600160e01b03199093169290921790915261176b565b505050565b600061156c8284611bb2565b9392505050565b600081156115b6576115af6001600160a01b037f0000000000000000000000000000000000000000000000000000000000000000168585611505565b508161156c565b6040516319a948db60e21b8152600481018490527f00000000000000000000000000000000000000000000000000000000000000006001600160a01b0316906340c10f1990869083906366a5236c90602401602060405180830381865afa158015611625573d6000803e3d6000fd5b505050506040513d601f19601f820116820180604052508101906116499190611a88565b6040518363ffffffff1660e01b8152600401611666929190611aa1565b600060405180830381600087803b15801561168057600080fd5b505af1158015611694573d6000803e3d6000fd5b50506040516319a948db60e21b8152600481018690527f00000000000000000000000000000000000000000000000000000000000000006001600160a01b031692506366a5236c9150602401602060405180830381865afa1580156116fd573d6000803e3d6000fd5b505050506040513d601f19601f820116820180604052508101906114489190611a88565b6040516001600160a01b03808516602483015283166044820152606481018290526117599085906323b872dd60e01b90608401611524565b50505050565b600061156c8284611bc9565b60006117c0826040518060400160405280602081526020017f5361666545524332303a206c6f772d6c6576656c2063616c6c206661696c6564815250856001600160a01b031661183d9092919063ffffffff16565b80519091501561155b57808060200190518101906117de9190611be1565b61155b5760405162461bcd60e51b815260206004820152602a60248201527f5361666545524332303a204552433230206f7065726174696f6e20646964206e6044820152691bdd081cdd58d8d9595960b21b6064820152608401610641565b6060611448848460008585600080866001600160a01b031685876040516118649190611c2a565b60006040518083038185875af1925050503d80600081146118a1576040519150601f19603f3d011682016040523d82523d6000602084013e6118a6565b606091505b50915091506118b7878383876118c2565b979650505050505050565b6060831561193157825160000361192a576001600160a01b0385163b61192a5760405162461bcd60e51b815260206004820152601d60248201527f416464726573733a2063616c6c20746f206e6f6e2d636f6e74726163740000006044820152606401610641565b5081611448565b61144883838151156119465781518083602001fd5b8060405162461bcd60e51b81526004016106419190611c46565b6001600160a01b038116811461197557600080fd5b50565b6000806040838503121561198b57600080fd5b823561199681611960565b946020939093013593505050565b6000602082840312156119b657600080fd5b813561156c81611960565b6000602082840312156119d357600080fd5b5035919050565b801515811461197557600080fd5b600080604083850312156119fb57600080fd5b8235611a0681611960565b91506020830135611a16816119da565b809150509250929050565b60008060008060808587031215611a3757600080fd5b8435611a4281611960565b9350602085013592506040850135611a59816119da565b91506060850135611a69816119da565b939692955090935050565b6001600160a01b0391909116815260200190565b600060208284031215611a9a57600080fd5b5051919050565b6001600160a01b03929092168252602082015260400190565b600060208284031215611acc57600080fd5b815161156c81611960565b600060208083526000845481600182811c915080831680611af957607f831692505b8583108103611b1657634e487b7160e01b85526022600452602485fd5b878601838152602001818015611b335760018114611b4957611b74565b60ff198616825284151560051b82019650611b74565b60008b81526020902060005b86811015611b6e57815484820152908501908901611b55565b83019750505b50949998505050505050505050565b634e487b7160e01b600052601160045260246000fd5b600060018201611bab57611bab611b83565b5060010190565b600082821015611bc457611bc4611b83565b500390565b60008219821115611bdc57611bdc611b83565b500190565b600060208284031215611bf357600080fd5b815161156c816119da565b60005b83811015611c19578181015183820152602001611c01565b838111156117595750506000910152565b60008251611c3c818460208701611bfe565b9190910192915050565b6020815260008251806020840152611c65816040850160208701611bfe565b601f01601f1916919091016040019291505056fea2646970667358221220e789b27aae82d8d8d3aa0f033e3361c97c242bd76c587df87c947852d07965f964736f6c634300080f0033",
    "linkReferences": {}
  },
  "methodIdentifiers": {
    "GDAO()": "bc39493c",
    "authority()": "bf7e214f",
    "claim(address,bool)": "92fd2daf",
    "distributor()": "bfe10928",
    "epoch()": "900cf0cf",
    "forfeit()": "f3d86e4a",
    "index()": "2986c0e5",
    "rebase()": "af14052c",
    "sGDAO()": "9ad60297",
    "secondsToNextEpoch()": "9483c1d7",
    "setAuthority(address)": "7a9e5e4b",
    "setDistributor(address)": "75619ab5",
    "setWarmupLength(uint256)": "9238d592",
    "stake(address,uint256,bool,bool)": "d866c9d8",
    "supplyInWarmup()": "20138641",
    "toggleLock()": "ff9413d8",
    "unstake(address,uint256,bool,bool)": "990966d5",
    "unwrap(address,uint256)": "39f47693",
    "warmupInfo(address)": "6746f4c2",
    "warmupPeriod()": "deac361a",
    "wrap(address,uint256)": "bf376c7a",
    "xGDAO()": "e03481e1"
  },
  "id": 166
}