{
  "abi": [
    {
      "inputs": [
        {
          "internalType": "contract Kernel",
          "name": "kernel_",
          "type": "address"
        },
        {
          "internalType": "address",
          "name": "gdao_",
          "type": "address"
        }
      ],
      "stateMutability": "nonpayable",
      "type": "constructor"
    },
    {
      "inputs": [
        {
          "internalType": "address",
          "name": "caller_",
          "type": "address"
        }
      ],
      "name": "KernelAdapter_OnlyKernel",
      "type": "error"
    },
    {
      "inputs": [],
      "name": "MINTR_NotActive",
      "type": "error"
    },
    {
      "inputs": [],
      "name": "MINTR_NotApproved",
      "type": "error"
    },
    {
      "inputs": [],
      "name": "MINTR_ZeroAmount",
      "type": "error"
    },
    {
      "inputs": [
        {
          "internalType": "address",
          "name": "policy_",
          "type": "address"
        }
      ],
      "name": "Module_PolicyNotPermitted",
      "type": "error"
    },
    {
      "anonymous": false,
      "inputs": [
        {
          "indexed": true,
          "internalType": "address",
          "name": "policy_",
          "type": "address"
        },
        {
          "indexed": true,
          "internalType": "address",
          "name": "from_",
          "type": "address"
        },
        {
          "indexed": false,
          "internalType": "uint256",
          "name": "amount_",
          "type": "uint256"
        }
      ],
      "name": "Burn",
      "type": "event"
    },
    {
      "anonymous": false,
      "inputs": [
        {
          "indexed": true,
          "internalType": "address",
          "name": "policy_",
          "type": "address"
        },
        {
          "indexed": false,
          "internalType": "uint256",
          "name": "newAmount_",
          "type": "uint256"
        }
      ],
      "name": "DecreaseMintApproval",
      "type": "event"
    },
    {
      "anonymous": false,
      "inputs": [
        {
          "indexed": true,
          "internalType": "address",
          "name": "policy_",
          "type": "address"
        },
        {
          "indexed": false,
          "internalType": "uint256",
          "name": "newAmount_",
          "type": "uint256"
        }
      ],
      "name": "IncreaseMintApproval",
      "type": "event"
    },
    {
      "anonymous": false,
      "inputs": [
        {
          "indexed": true,
          "internalType": "address",
          "name": "policy_",
          "type": "address"
        },
        {
          "indexed": true,
          "internalType": "address",
          "name": "to_",
          "type": "address"
        },
        {
          "indexed": false,
          "internalType": "uint256",
          "name": "amount_",
          "type": "uint256"
        }
      ],
      "name": "Mint",
      "type": "event"
    },
    {
      "inputs": [],
      "name": "INIT",
      "outputs": [],
      "stateMutability": "nonpayable",
      "type": "function"
    },
    {
      "inputs": [],
      "name": "KEYCODE",
      "outputs": [
        {
          "internalType": "Keycode",
          "name": "",
          "type": "bytes5"
        }
      ],
      "stateMutability": "pure",
      "type": "function"
    },
    {
      "inputs": [],
      "name": "VERSION",
      "outputs": [
        {
          "internalType": "uint8",
          "name": "major",
          "type": "uint8"
        },
        {
          "internalType": "uint8",
          "name": "minor",
          "type": "uint8"
        }
      ],
      "stateMutability": "pure",
      "type": "function"
    },
    {
      "inputs": [],
      "name": "activate",
      "outputs": [],
      "stateMutability": "nonpayable",
      "type": "function"
    },
    {
      "inputs": [],
      "name": "active",
      "outputs": [
        {
          "internalType": "bool",
          "name": "",
          "type": "bool"
        }
      ],
      "stateMutability": "view",
      "type": "function"
    },
    {
      "inputs": [
        {
          "internalType": "address",
          "name": "from_",
          "type": "address"
        },
        {
          "internalType": "uint256",
          "name": "amount_",
          "type": "uint256"
        }
      ],
      "name": "burnGdao",
      "outputs": [],
      "stateMutability": "nonpayable",
      "type": "function"
    },
    {
      "inputs": [
        {
          "internalType": "contract Kernel",
          "name": "newKernel_",
          "type": "address"
        }
      ],
      "name": "changeKernel",
      "outputs": [],
      "stateMutability": "nonpayable",
      "type": "function"
    },
    {
      "inputs": [],
      "name": "deactivate",
      "outputs": [],
      "stateMutability": "nonpayable",
      "type": "function"
    },
    {
      "inputs": [
        {
          "internalType": "address",
          "name": "policy_",
          "type": "address"
        },
        {
          "internalType": "uint256",
          "name": "amount_",
          "type": "uint256"
        }
      ],
      "name": "decreaseMintApproval",
      "outputs": [],
      "stateMutability": "nonpayable",
      "type": "function"
    },
    {
      "inputs": [],
      "name": "gdao",
      "outputs": [
        {
          "internalType": "contract GDAO",
          "name": "",
          "type": "address"
        }
      ],
      "stateMutability": "view",
      "type": "function"
    },
    {
      "inputs": [
        {
          "internalType": "address",
          "name": "policy_",
          "type": "address"
        },
        {
          "internalType": "uint256",
          "name": "amount_",
          "type": "uint256"
        }
      ],
      "name": "increaseMintApproval",
      "outputs": [],
      "stateMutability": "nonpayable",
      "type": "function"
    },
    {
      "inputs": [],
      "name": "kernel",
      "outputs": [
        {
          "internalType": "contract Kernel",
          "name": "",
          "type": "address"
        }
      ],
      "stateMutability": "view",
      "type": "function"
    },
    {
      "inputs": [
        {
          "internalType": "address",
          "name": "",
          "type": "address"
        }
      ],
      "name": "mintApproval",
      "outputs": [
        {
          "internalType": "uint256",
          "name": "",
          "type": "uint256"
        }
      ],
      "stateMutability": "view",
      "type": "function"
    },
    {
      "inputs": [
        {
          "internalType": "address",
          "name": "to_",
          "type": "address"
        },
        {
          "internalType": "uint256",
          "name": "amount_",
          "type": "uint256"
        }
      ],
      "name": "mintGdao",
      "outputs": [],
      "stateMutability": "nonpayable",
      "type": "function"
    }
  ],
  "bytecode": {
    "object": "0x608060405234801561001057600080fd5b5060405161116c38038061116c83398101604081905261002f91610085565b600080546001600160a01b039384166001600160a01b0319909116179055600180546001600160a81b0319169190921617600160a01b1790556100bf565b6001600160a01b038116811461008257600080fd5b50565b6000806040838503121561009857600080fd5b82516100a38161006d565b60208401519092506100b48161006d565b809150509250929050565b61109e806100ce6000396000f3fe608060405234801561001057600080fd5b50600436106100ea5760003560e01c806351b42b001161008c578063bbaed5cb11610066578063bbaed5cb14610228578063d4aae0c41461023b578063ea6439141461025b578063ffa1ad741461026357600080fd5b806351b42b00146101ad578063664aecb0146101b5578063a29a0d90146101e357600080fd5b80631ae7ec2e116100c85780631ae7ec2e146101465780631b0a68f214610174578063359fe780146101875780634657b36c1461019a57600080fd5b80630152a5ea146100ef57806302fb0c5e146101045780630f15f4c01461013e575b600080fd5b6101026100fd366004610f98565b610278565b005b6001546101299074010000000000000000000000000000000000000000900460ff1681565b60405190151581526020015b60405180910390f35b61010261050b565b6040517f4d494e54520000000000000000000000000000000000000000000000000000008152602001610135565b610102610182366004610f98565b61066f565b610102610195366004610f98565b61083f565b6101026101a8366004610fc4565b610a49565b610102610ae3565b6101d56101c3366004610fc4565b60026020526000908152604090205481565b604051908152602001610135565b6001546102039073ffffffffffffffffffffffffffffffffffffffff1681565b60405173ffffffffffffffffffffffffffffffffffffffff9091168152602001610135565b610102610236366004610f98565b610c30565b6000546102039073ffffffffffffffffffffffffffffffffffffffff1681565b610102610f1e565b60408051600181526000602082015201610135565b60005473ffffffffffffffffffffffffffffffffffffffff1663f166d9eb7f4d494e54520000000000000000000000000000000000000000000000000000006040517fffffffff0000000000000000000000000000000000000000000000000000000060e084901b811682527fffffffffff0000000000000000000000000000000000000000000000000000009290921660048201523360248201526000359091166044820152606401602060405180830381865afa15801561033f573d6000803e3d6000fd5b505050506040513d601f19601f820116820180604052508101906103639190610fe8565b6103a0576040517f11bf00c90000000000000000000000000000000000000000000000000000000081523360048201526024015b60405180910390fd5b60015474010000000000000000000000000000000000000000900460ff166103f4576040517fa117e45e00000000000000000000000000000000000000000000000000000000815260040160405180910390fd5b8060000361042e576040517f4cd4a41600000000000000000000000000000000000000000000000000000000815260040160405180910390fd5b6001546040517f79cc679000000000000000000000000000000000000000000000000000000000815273ffffffffffffffffffffffffffffffffffffffff848116600483015260248201849052909116906379cc679090604401600060405180830381600087803b1580156104a257600080fd5b505af11580156104b6573d6000803e3d6000fd5b505060405183815273ffffffffffffffffffffffffffffffffffffffff851692503391507fbac40739b0d4ca32fa2d82fc91630465ba3eddd1598da6fca393b26fb63b94539060200160405180910390a35050565b60005473ffffffffffffffffffffffffffffffffffffffff1663f166d9eb7f4d494e54520000000000000000000000000000000000000000000000000000006040517fffffffff0000000000000000000000000000000000000000000000000000000060e084901b811682527fffffffffff0000000000000000000000000000000000000000000000000000009290921660048201523360248201526000359091166044820152606401602060405180830381865afa1580156105d2573d6000803e3d6000fd5b505050506040513d601f19601f820116820180604052508101906105f69190610fe8565b61062e576040517f11bf00c9000000000000000000000000000000000000000000000000000000008152336004820152602401610397565b600180547fffffffffffffffffffffff00ffffffffffffffffffffffffffffffffffffffff1674010000000000000000000000000000000000000000179055565b60005473ffffffffffffffffffffffffffffffffffffffff1663f166d9eb7f4d494e54520000000000000000000000000000000000000000000000000000006040517fffffffff0000000000000000000000000000000000000000000000000000000060e084901b811682527fffffffffff0000000000000000000000000000000000000000000000000000009290921660048201523360248201526000359091166044820152606401602060405180830381865afa158015610736573d6000803e3d6000fd5b505050506040513d601f19601f8201168201806040525081019061075a9190610fe8565b610792576040517f11bf00c9000000000000000000000000000000000000000000000000000000008152336004820152602401610397565b73ffffffffffffffffffffffffffffffffffffffff821660009081526002602052604081205490828211156107d0576107cb8383611039565b6107d3565b60005b73ffffffffffffffffffffffffffffffffffffffff85166000818152600260205260409081902083905551919250907f08c666f5d7ad747c595b189947464cfac5e56befa6bd12ced49a49adb3f8166d906108319084815260200190565b60405180910390a250505050565b60005473ffffffffffffffffffffffffffffffffffffffff1663f166d9eb7f4d494e54520000000000000000000000000000000000000000000000000000006040517fffffffff0000000000000000000000000000000000000000000000000000000060e084901b811682527fffffffffff0000000000000000000000000000000000000000000000000000009290921660048201523360248201526000359091166044820152606401602060405180830381865afa158015610906573d6000803e3d6000fd5b505050506040513d601f19601f8201168201806040525081019061092a9190610fe8565b610962576040517f11bf00c9000000000000000000000000000000000000000000000000000000008152336004820152602401610397565b73ffffffffffffffffffffffffffffffffffffffff821660009081526002602052604081205490826109b4837fffffffffffffffffffffffffffffffffffffffffffffffffffffffffffffffff611039565b11156109c9576109c48383611050565b6109eb565b7fffffffffffffffffffffffffffffffffffffffffffffffffffffffffffffffff5b73ffffffffffffffffffffffffffffffffffffffff85166000818152600260205260409081902083905551919250907f2f612f30164b43d77b321f13922cb2190f7f7956b9483d817271d30679a1aa7b906108319084815260200190565b60005473ffffffffffffffffffffffffffffffffffffffff163314610a9c576040517f14fa403c000000000000000000000000000000000000000000000000000000008152336004820152602401610397565b600080547fffffffffffffffffffffffff00000000000000000000000000000000000000001673ffffffffffffffffffffffffffffffffffffffff92909216919091179055565b60005473ffffffffffffffffffffffffffffffffffffffff1663f166d9eb7f4d494e54520000000000000000000000000000000000000000000000000000006040517fffffffff0000000000000000000000000000000000000000000000000000000060e084901b811682527fffffffffff0000000000000000000000000000000000000000000000000000009290921660048201523360248201526000359091166044820152606401602060405180830381865afa158015610baa573d6000803e3d6000fd5b505050506040513d601f19601f82011682018060405250810190610bce9190610fe8565b610c06576040517f11bf00c9000000000000000000000000000000000000000000000000000000008152336004820152602401610397565b600180547fffffffffffffffffffffff00ffffffffffffffffffffffffffffffffffffffff169055565b60005473ffffffffffffffffffffffffffffffffffffffff1663f166d9eb7f4d494e54520000000000000000000000000000000000000000000000000000006040517fffffffff0000000000000000000000000000000000000000000000000000000060e084901b811682527fffffffffff0000000000000000000000000000000000000000000000000000009290921660048201523360248201526000359091166044820152606401602060405180830381865afa158015610cf7573d6000803e3d6000fd5b505050506040513d601f19601f82011682018060405250810190610d1b9190610fe8565b610d53576040517f11bf00c9000000000000000000000000000000000000000000000000000000008152336004820152602401610397565b60015474010000000000000000000000000000000000000000900460ff16610da7576040517fa117e45e00000000000000000000000000000000000000000000000000000000815260040160405180910390fd5b80600003610de1576040517f4cd4a41600000000000000000000000000000000000000000000000000000000815260040160405180910390fd5b3360009081526002602052604090205481811015610e2b576040517fd20075ba00000000000000000000000000000000000000000000000000000000815260040160405180910390fd5b3360009081526002602052604090819020838303905560015490517f40c10f1900000000000000000000000000000000000000000000000000000000815273ffffffffffffffffffffffffffffffffffffffff858116600483015260248201859052909116906340c10f1990604401600060405180830381600087803b158015610eb457600080fd5b505af1158015610ec8573d6000803e3d6000fd5b505060405184815273ffffffffffffffffffffffffffffffffffffffff861692503391507fab8530f87dc9b59234c4623bf917212bb2536d647574c8e7e5da92c2ede0c9f89060200160405180910390a3505050565b60005473ffffffffffffffffffffffffffffffffffffffff163314610f71576040517f14fa403c000000000000000000000000000000000000000000000000000000008152336004820152602401610397565b565b73ffffffffffffffffffffffffffffffffffffffff81168114610f9557600080fd5b50565b60008060408385031215610fab57600080fd5b8235610fb681610f73565b946020939093013593505050565b600060208284031215610fd657600080fd5b8135610fe181610f73565b9392505050565b600060208284031215610ffa57600080fd5b81518015158114610fe157600080fd5b7f4e487b7100000000000000000000000000000000000000000000000000000000600052601160045260246000fd5b60008282101561104b5761104b61100a565b500390565b600082198211156110635761106361100a565b50019056fea26469706673582212201993dbcafb4ea2c30aab7698fb16e989fa8c88b736ca2bc4e2d2383cdf01a68064736f6c634300080f0033",
    "linkReferences": {}
  },
  "methodIdentifiers": {
    "INIT()": "ea643914",
    "KEYCODE()": "1ae7ec2e",
    "VERSION()": "ffa1ad74",
    "activate()": "0f15f4c0",
    "active()": "02fb0c5e",
    "burnGdao(address,uint256)": "0152a5ea",
    "changeKernel(address)": "4657b36c",
    "deactivate()": "51b42b00",
    "decreaseMintApproval(address,uint256)": "1b0a68f2",
    "gdao()": "a29a0d90",
    "increaseMintApproval(address,uint256)": "359fe780",
    "kernel()": "d4aae0c4",
    "mintApproval(address)": "664aecb0",
    "mintGdao(address,uint256)": "bbaed5cb"
  },
  "id": 92
}