{
  "abi": [
    {
      "inputs": [
        {
          "internalType": "contract Kernel",
          "name": "kernel_",
          "type": "address"
        }
      ],
      "stateMutability": "nonpayable",
      "type": "constructor"
    },
    {
      "inputs": [
        {
          "internalType": "address",
          "name": "caller_",
          "type": "address"
        }
      ],
      "name": "KernelAdapter_OnlyKernel",
      "type": "error"
    },
    {
      "inputs": [
        {
          "internalType": "address",
          "name": "policy_",
          "type": "address"
        }
      ],
      "name": "Module_PolicyNotPermitted",
      "type": "error"
    },
    {
      "inputs": [],
      "name": "INIT",
      "outputs": [],
      "stateMutability": "nonpayable",
      "type": "function"
    },
    {
      "inputs": [],
      "name": "KEYCODE",
      "outputs": [
        {
          "internalType": "Keycode",
          "name": "",
          "type": "bytes5"
        }
      ],
      "stateMutability": "pure",
      "type": "function"
    },
    {
      "inputs": [],
      "name": "VERSION",
      "outputs": [
        {
          "internalType": "uint8",
          "name": "major",
          "type": "uint8"
        },
        {
          "internalType": "uint8",
          "name": "minor",
          "type": "uint8"
        }
      ],
      "stateMutability": "pure",
      "type": "function"
    },
    {
      "inputs": [
        {
          "internalType": "contract Kernel",
          "name": "newKernel_",
          "type": "address"
        }
      ],
      "name": "changeKernel",
      "outputs": [],
      "stateMutability": "nonpayable",
      "type": "function"
    },
    {
      "inputs": [],
      "name": "counter",
      "outputs": [
        {
          "internalType": "uint256",
          "name": "",
          "type": "uint256"
        }
      ],
      "stateMutability": "view",
      "type": "function"
    },
    {
      "inputs": [],
      "name": "kernel",
      "outputs": [
        {
          "internalType": "contract Kernel",
          "name": "",
          "type": "address"
        }
      ],
      "stateMutability": "view",
      "type": "function"
    },
    {
      "inputs": [],
      "name": "permissionedCall",
      "outputs": [],
      "stateMutability": "nonpayable",
      "type": "function"
    }
  ],
  "bytecode": {
    "object": "0x608060405234801561001057600080fd5b506040516103ba3803806103ba83398101604081905261002f91610054565b600080546001600160a01b0319166001600160a01b0392909216919091179055610084565b60006020828403121561006657600080fd5b81516001600160a01b038116811461007d57600080fd5b9392505050565b610327806100936000396000f3fe608060405234801561001057600080fd5b506004361061006d5760003560e01c80631ae7ec2e146100725780634657b36c1461009857806361bc221a146100ad578063a7167caf146100c4578063d4aae0c4146100cc578063ea643914146100ec578063ffa1ad74146100f4575b600080fd5b61007a610108565b6040516001600160d81b031990911681526020015b60405180910390f35b6100ab6100a6366004610264565b610114565b005b6100b660015481565b60405190815260200161008f565b6100ab61016c565b6000546100df906001600160a01b031681565b60405161008f9190610294565b6100ab610235565b60408051600180825260208201520161008f565b644d4f434b5960d81b90565b6000546001600160a01b0316331461014a573360405163053e900f60e21b81526004016101419190610294565b60405180910390fd5b600080546001600160a01b0319166001600160a01b0392909216919091179055565b6000546001600160a01b031663f166d9eb610185610108565b6040516001600160e01b031960e084901b811682526001600160d81b03199290921660048201523360248201526000359091166044820152606401602060405180830381865afa1580156101dd573d6000803e3d6000fd5b505050506040513d601f19601f8201168201806040525081019061020191906102a8565b61022057336040516311bf00c960e01b81526004016101419190610294565b60016000815461022f906102ca565b90915550565b6000546001600160a01b03163314610262573360405163053e900f60e21b81526004016101419190610294565b565b60006020828403121561027657600080fd5b81356001600160a01b038116811461028d57600080fd5b9392505050565b6001600160a01b0391909116815260200190565b6000602082840312156102ba57600080fd5b8151801515811461028d57600080fd5b6000600182016102ea57634e487b7160e01b600052601160045260246000fd5b506001019056fea264697066735822122085d32c281cc521b44e27ec763b072c78ee6c627a339c2be338eef4d9f18002a064736f6c634300080f0033",
    "linkReferences": {}
  },
  "methodIdentifiers": {
    "INIT()": "ea643914",
    "KEYCODE()": "1ae7ec2e",
    "VERSION()": "ffa1ad74",
    "changeKernel(address)": "4657b36c",
    "counter()": "61bc221a",
    "kernel()": "d4aae0c4",
    "permissionedCall()": "a7167caf"
  },
  "id": 136
}