{
  "abi": [
    {
      "inputs": [
        {
          "internalType": "contract Kernel",
          "name": "kernel_",
          "type": "address"
        }
      ],
      "stateMutability": "nonpayable",
      "type": "constructor"
    },
    {
      "inputs": [
        {
          "internalType": "address",
          "name": "caller_",
          "type": "address"
        }
      ],
      "name": "KernelAdapter_OnlyKernel",
      "type": "error"
    },
    {
      "inputs": [
        {
          "internalType": "Keycode",
          "name": "keycode_",
          "type": "bytes5"
        }
      ],
      "name": "Policy_ModuleDoesNotExist",
      "type": "error"
    },
    {
      "inputs": [],
      "name": "ROLES",
      "outputs": [
        {
          "internalType": "contract ROLESv1",
          "name": "",
          "type": "address"
        }
      ],
      "stateMutability": "view",
      "type": "function"
    },
    {
      "inputs": [
        {
          "internalType": "contract Kernel",
          "name": "newKernel_",
          "type": "address"
        }
      ],
      "name": "changeKernel",
      "outputs": [],
      "stateMutability": "nonpayable",
      "type": "function"
    },
    {
      "inputs": [
        {
          "internalType": "uint256",
          "name": "minimumTargetPrice_",
          "type": "uint256"
        }
      ],
      "name": "changeMinimumTargetPrice",
      "outputs": [],
      "stateMutability": "nonpayable",
      "type": "function"
    },
    {
      "inputs": [
        {
          "internalType": "uint48",
          "name": "movingAverageDuration_",
          "type": "uint48"
        }
      ],
      "name": "changeMovingAverageDuration",
      "outputs": [],
      "stateMutability": "nonpayable",
      "type": "function"
    },
    {
      "inputs": [
        {
          "internalType": "uint48",
          "name": "observationFrequency_",
          "type": "uint48"
        }
      ],
      "name": "changeObservationFrequency",
      "outputs": [],
      "stateMutability": "nonpayable",
      "type": "function"
    },
    {
      "inputs": [
        {
          "internalType": "uint48",
          "name": "ohmEthUpdateThreshold_",
          "type": "uint48"
        },
        {
          "internalType": "uint48",
          "name": "reserveEthUpdateThreshold_",
          "type": "uint48"
        }
      ],
      "name": "changeUpdateThresholds",
      "outputs": [],
      "stateMutability": "nonpayable",
      "type": "function"
    },
    {
      "inputs": [],
      "name": "configureDependencies",
      "outputs": [
        {
          "internalType": "Keycode[]",
          "name": "dependencies",
          "type": "bytes5[]"
        }
      ],
      "stateMutability": "nonpayable",
      "type": "function"
    },
    {
      "inputs": [
        {
          "internalType": "uint256[]",
          "name": "startObservations_",
          "type": "uint256[]"
        },
        {
          "internalType": "uint48",
          "name": "lastObservationTime_",
          "type": "uint48"
        }
      ],
      "name": "initialize",
      "outputs": [],
      "stateMutability": "nonpayable",
      "type": "function"
    },
    {
      "inputs": [],
      "name": "isActive",
      "outputs": [
        {
          "internalType": "bool",
          "name": "",
          "type": "bool"
        }
      ],
      "stateMutability": "view",
      "type": "function"
    },
    {
      "inputs": [],
      "name": "kernel",
      "outputs": [
        {
          "internalType": "contract Kernel",
          "name": "",
          "type": "address"
        }
      ],
      "stateMutability": "view",
      "type": "function"
    },
    {
      "inputs": [],
      "name": "requestPermissions",
      "outputs": [
        {
          "components": [
            {
              "internalType": "Keycode",
              "name": "keycode",
              "type": "bytes5"
            },
            {
              "internalType": "bytes4",
              "name": "funcSelector",
              "type": "bytes4"
            }
          ],
          "internalType": "struct Permissions[]",
          "name": "permissions",
          "type": "tuple[]"
        }
      ],
      "stateMutability": "view",
      "type": "function"
    }
  ],
  "bytecode": {
    "object": "0x608060405234801561001057600080fd5b5060405161137c38038061137c83398101604081905261002f91610054565b600080546001600160a01b0319166001600160a01b0392909216919091179055610084565b60006020828403121561006657600080fd5b81516001600160a01b038116811461007d57600080fd5b9392505050565b6112e9806100936000396000f3fe608060405234801561001057600080fd5b50600436106100c95760003560e01c80637d4dce7611610081578063923cb9521161005b578063923cb952146101745780639459b875146101b9578063d4aae0c4146101ce57600080fd5b80637d4dce761461013b5780638a1573371461014e578063902a35b91461016157600080fd5b80634657b36c116100b25780634657b36c1461010057806357ee9383146101135780635924be701461012657600080fd5b80630fbe3476146100ce57806322f3e2d4146100e3575b600080fd5b6100e16100dc366004610eea565b6101ee565b005b6100eb610331565b60405190151581526020015b60405180910390f35b6100e161010e366004610f42565b6103c9565b6100e1610121366004610f66565b610468565b61012e61059b565b6040516100f79190610f7f565b6100e1610149366004611012565b6108c5565b6100e161015c366004611012565b6109cd565b6100e161016f36600461105c565b610ad5565b6001546101949073ffffffffffffffffffffffffffffffffffffffff1681565b60405173ffffffffffffffffffffffffffffffffffffffff90911681526020016100f7565b6101c1610bd7565b6040516100f7919061114a565b6000546101949073ffffffffffffffffffffffffffffffffffffffff1681565b6001546040517fd09a20c50000000000000000000000000000000000000000000000000000000081527f70726963655f61646d696e000000000000000000000000000000000000000000600482018190523360248301529173ffffffffffffffffffffffffffffffffffffffff169063d09a20c590604401600060405180830381600087803b15801561028057600080fd5b505af1158015610294573d6000803e3d6000fd5b50506002546040517f0fbe347600000000000000000000000000000000000000000000000000000000815265ffffffffffff80881660048301528616602482015273ffffffffffffffffffffffffffffffffffffffff9091169250630fbe347691506044015b600060405180830381600087803b15801561031457600080fd5b505af1158015610328573d6000803e3d6000fd5b50505050505050565b600080546040517fe52223bb00000000000000000000000000000000000000000000000000000000815230600482015273ffffffffffffffffffffffffffffffffffffffff9091169063e52223bb90602401602060405180830381865afa1580156103a0573d6000803e3d6000fd5b505050506040513d601f19601f820116820180604052508101906103c491906111b0565b905090565b60005473ffffffffffffffffffffffffffffffffffffffff163314610421576040517f14fa403c0000000000000000000000000000000000000000000000000000000081523360048201526024015b60405180910390fd5b600080547fffffffffffffffffffffffff00000000000000000000000000000000000000001673ffffffffffffffffffffffffffffffffffffffff92909216919091179055565b6001546040517fd09a20c50000000000000000000000000000000000000000000000000000000081527f70726963655f61646d696e000000000000000000000000000000000000000000600482018190523360248301529173ffffffffffffffffffffffffffffffffffffffff169063d09a20c590604401600060405180830381600087803b1580156104fa57600080fd5b505af115801561050e573d6000803e3d6000fd5b50506002546040517f57ee93830000000000000000000000000000000000000000000000000000000081526004810186905273ffffffffffffffffffffffffffffffffffffffff90911692506357ee938391506024015b600060405180830381600087803b15801561057f57600080fd5b505af1158015610593573d6000803e3d6000fd5b505050505050565b60606000600260009054906101000a900473ffffffffffffffffffffffffffffffffffffffff1673ffffffffffffffffffffffffffffffffffffffff16631ae7ec2e6040518163ffffffff1660e01b8152600401602060405180830381865afa15801561060c573d6000803e3d6000fd5b505050506040513d601f19601f8201168201806040525081019061063091906111d2565b60408051600580825260c08201909252919250816020015b6040805180820190915260008082526020820152815260200190600190039081610648575050604080518082019091527fffffffffff000000000000000000000000000000000000000000000000000000831681527f902a35b900000000000000000000000000000000000000000000000000000000602082015281519193509083906000906106da576106da611214565b60200260200101819052506040518060400160405280827affffffffffffffffffffffffffffffffffffffffffffffffffffff19168152602001638a15733760e01b7bffffffffffffffffffffffffffffffffffffffffffffffffffffffff19168152508260018151811061075157610751611214565b60200260200101819052506040518060400160405280827affffffffffffffffffffffffffffffffffffffffffffffffffffff19168152602001637d4dce7660e01b7bffffffffffffffffffffffffffffffffffffffffffffffffffffffff1916815250826002815181106107c8576107c8611214565b60200260200101819052506040518060400160405280827affffffffffffffffffffffffffffffffffffffffffffffffffffff19168152602001630fbe347660e01b7bffffffffffffffffffffffffffffffffffffffffffffffffffffffff19168152508260038151811061083f5761083f611214565b60200260200101819052506040518060400160405280827affffffffffffffffffffffffffffffffffffffffffffffffffffff191681526020016357ee938360e01b7bffffffffffffffffffffffffffffffffffffffffffffffffffffffff1916815250826004815181106108b6576108b6611214565b60200260200101819052505090565b6001546040517fd09a20c50000000000000000000000000000000000000000000000000000000081527f70726963655f61646d696e000000000000000000000000000000000000000000600482018190523360248301529173ffffffffffffffffffffffffffffffffffffffff169063d09a20c590604401600060405180830381600087803b15801561095757600080fd5b505af115801561096b573d6000803e3d6000fd5b50506002546040517f7d4dce7600000000000000000000000000000000000000000000000000000000815265ffffffffffff8616600482015273ffffffffffffffffffffffffffffffffffffffff9091169250637d4dce769150602401610565565b6001546040517fd09a20c50000000000000000000000000000000000000000000000000000000081527f70726963655f61646d696e000000000000000000000000000000000000000000600482018190523360248301529173ffffffffffffffffffffffffffffffffffffffff169063d09a20c590604401600060405180830381600087803b158015610a5f57600080fd5b505af1158015610a73573d6000803e3d6000fd5b50506002546040517f8a15733700000000000000000000000000000000000000000000000000000000815265ffffffffffff8616600482015273ffffffffffffffffffffffffffffffffffffffff9091169250638a1573379150602401610565565b6001546040517fd09a20c50000000000000000000000000000000000000000000000000000000081527f70726963655f61646d696e000000000000000000000000000000000000000000600482018190523360248301529173ffffffffffffffffffffffffffffffffffffffff169063d09a20c590604401600060405180830381600087803b158015610b6757600080fd5b505af1158015610b7b573d6000803e3d6000fd5b50506002546040517f902a35b900000000000000000000000000000000000000000000000000000000815273ffffffffffffffffffffffffffffffffffffffff909116925063902a35b991506102fa9086908690600401611243565b60408051600280825260608083018452926020830190803683370190505090507f505249434500000000000000000000000000000000000000000000000000000081600081518110610c2b57610c2b611214565b7fffffffffff00000000000000000000000000000000000000000000000000000090921660209283029190910190910152610c837f524f4c455300000000000000000000000000000000000000000000000000000090565b81600181518110610c9657610c96611214565b60200260200101907affffffffffffffffffffffffffffffffffffffffffffffffffffff191690817affffffffffffffffffffffffffffffffffffffffffffffffffffff191681525050610d0381600081518110610cf657610cf6611214565b6020026020010151610da1565b600260006101000a81548173ffffffffffffffffffffffffffffffffffffffff021916908373ffffffffffffffffffffffffffffffffffffffff160217905550610d5981600181518110610cf657610cf6611214565b600180547fffffffffffffffffffffffff00000000000000000000000000000000000000001673ffffffffffffffffffffffffffffffffffffffff9290921691909117905590565b600080546040517fb4dc00b40000000000000000000000000000000000000000000000000000000081527fffffffffff00000000000000000000000000000000000000000000000000000084166004820152829173ffffffffffffffffffffffffffffffffffffffff169063b4dc00b490602401602060405180830381865afa158015610e32573d6000803e3d6000fd5b505050506040513d601f19601f82011682018060405250810190610e569190611296565b905073ffffffffffffffffffffffffffffffffffffffff8116610ec9576040517f5c3fa9cd0000000000000000000000000000000000000000000000000000000081527fffffffffff00000000000000000000000000000000000000000000000000000084166004820152602401610418565b92915050565b803565ffffffffffff81168114610ee557600080fd5b919050565b60008060408385031215610efd57600080fd5b610f0683610ecf565b9150610f1460208401610ecf565b90509250929050565b73ffffffffffffffffffffffffffffffffffffffff81168114610f3f57600080fd5b50565b600060208284031215610f5457600080fd5b8135610f5f81610f1d565b9392505050565b600060208284031215610f7857600080fd5b5035919050565b602080825282518282018190526000919060409081850190868401855b8281101561100557815180517fffffffffff0000000000000000000000000000000000000000000000000000001685528601517fffffffff0000000000000000000000000000000000000000000000000000000016868501529284019290850190600101610f9c565b5091979650505050505050565b60006020828403121561102457600080fd5b610f5f82610ecf565b7f4e487b7100000000000000000000000000000000000000000000000000000000600052604160045260246000fd5b6000806040838503121561106f57600080fd5b823567ffffffffffffffff8082111561108757600080fd5b818501915085601f83011261109b57600080fd5b81356020828211156110af576110af61102d565b8160051b6040517fffffffffffffffffffffffffffffffffffffffffffffffffffffffffffffffe0603f830116810181811086821117156110f2576110f261102d565b60405292835281830193508481018201928984111561111057600080fd5b948201945b8386101561112e57853585529482019493820193611115565b965061113d9050878201610ecf565b9450505050509250929050565b6020808252825182820181905260009190848201906040850190845b818110156111a45783517fffffffffff0000000000000000000000000000000000000000000000000000001683529284019291840191600101611166565b50909695505050505050565b6000602082840312156111c257600080fd5b81518015158114610f5f57600080fd5b6000602082840312156111e457600080fd5b81517fffffffffff00000000000000000000000000000000000000000000000000000081168114610f5f57600080fd5b7f4e487b7100000000000000000000000000000000000000000000000000000000600052603260045260246000fd5b604080825283519082018190526000906020906060840190828701845b8281101561127c57815184529284019290840190600101611260565b50505065ffffffffffff9490941692019190915250919050565b6000602082840312156112a857600080fd5b8151610f5f81610f1d56fea2646970667358221220b7f29a19e9ef9dbb9b8e96dc712c754a8e8ae3775311c0f420ab5de0e1934e2964736f6c634300080f0033",
    "linkReferences": {}
  },
  "methodIdentifiers": {
    "ROLES()": "923cb952",
    "changeKernel(address)": "4657b36c",
    "changeMinimumTargetPrice(uint256)": "57ee9383",
    "changeMovingAverageDuration(uint48)": "8a157337",
    "changeObservationFrequency(uint48)": "7d4dce76",
    "changeUpdateThresholds(uint48,uint48)": "0fbe3476",
    "configureDependencies()": "9459b875",
    "initialize(uint256[],uint48)": "902a35b9",
    "isActive()": "22f3e2d4",
    "kernel()": "d4aae0c4",
    "requestPermissions()": "5924be70"
  },
  "id": 113
}